{
  "address": "0x329E090aCE410aC8D86f1f0c2a13486884E7072a",
  "abi": [
    {
      "inputs": [
        {
          "internalType": "address",
          "name": "_nftfiHub",
          "type": "address"
        },
        {
          "internalType": "address",
          "name": "_admin",
          "type": "address"
        },
        {
          "internalType": "string[]",
          "name": "_loanTypes",
          "type": "string[]"
        },
        {
          "internalType": "address[]",
          "name": "_loanContracts",
          "type": "address[]"
        }
      ],
      "stateMutability": "nonpayable",
      "type": "constructor"
    },
    {
      "anonymous": false,
      "inputs": [
        {
          "indexed": true,
          "internalType": "address",
          "name": "previousOwner",
          "type": "address"
        },
        {
          "indexed": true,
          "internalType": "address",
          "name": "newOwner",
          "type": "address"
        }
      ],
      "name": "OwnershipTransferred",
      "type": "event"
    },
    {
      "anonymous": false,
      "inputs": [
        {
          "indexed": true,
          "internalType": "bytes32",
          "name": "loanType",
          "type": "bytes32"
        },
        {
          "indexed": true,
          "internalType": "address",
          "name": "loanContract",
          "type": "address"
        }
      ],
      "name": "TypeUpdated",
      "type": "event"
    },
    {
      "anonymous": false,
      "inputs": [
        {
          "indexed": true,
          "internalType": "uint32",
          "name": "loanId",
          "type": "uint32"
        },
        {
          "indexed": true,
          "internalType": "uint64",
          "name": "smartNftId",
          "type": "uint64"
        },
        {
          "indexed": true,
          "internalType": "address",
          "name": "loanContract",
          "type": "address"
        },
        {
          "indexed": false,
          "internalType": "enum IDirectLoanCoordinator.StatusType",
          "name": "newStatus",
          "type": "uint8"
        }
      ],
      "name": "UpdateStatus",
      "type": "event"
    },
    {
      "inputs": [],
      "name": "acceptTransferOwnership",
      "outputs": [],
      "stateMutability": "nonpayable",
      "type": "function"
    },
    {
      "inputs": [],
      "name": "cancelTransferOwnership",
      "outputs": [],
      "stateMutability": "nonpayable",
      "type": "function"
    },
    {
      "inputs": [
        {
          "internalType": "bytes32",
          "name": "_loanType",
          "type": "bytes32"
        }
      ],
      "name": "getContractFromType",
      "outputs": [
        {
          "internalType": "address",
          "name": "",
          "type": "address"
        }
      ],
      "stateMutability": "view",
      "type": "function"
    },
    {
      "inputs": [
        {
          "internalType": "uint32",
          "name": "_loanId",
          "type": "uint32"
        }
      ],
      "name": "getLoanData",
      "outputs": [
        {
          "components": [
            {
              "internalType": "address",
              "name": "loanContract",
              "type": "address"
            },
            {
              "internalType": "uint64",
              "name": "smartNftId",
              "type": "uint64"
            },
            {
              "internalType": "enum IDirectLoanCoordinator.StatusType",
              "name": "status",
              "type": "uint8"
            }
          ],
          "internalType": "struct IDirectLoanCoordinator.Loan",
          "name": "",
          "type": "tuple"
        }
      ],
      "stateMutability": "view",
      "type": "function"
    },
    {
      "inputs": [
        {
          "internalType": "address",
          "name": "_loanContract",
          "type": "address"
        }
      ],
      "name": "getTypeFromContract",
      "outputs": [
        {
          "internalType": "bytes32",
          "name": "",
          "type": "bytes32"
        }
      ],
      "stateMutability": "view",
      "type": "function"
    },
    {
      "inputs": [],
      "name": "hub",
      "outputs": [
        {
          "internalType": "contract INftfiHub",
          "name": "",
          "type": "address"
        }
      ],
      "stateMutability": "view",
      "type": "function"
    },
    {
      "inputs": [
        {
          "internalType": "address",
          "name": "_promissoryNoteToken",
          "type": "address"
        },
        {
          "internalType": "address",
          "name": "_obligationReceiptToken",
          "type": "address"
        }
      ],
      "name": "initialize",
      "outputs": [],
      "stateMutability": "nonpayable",
      "type": "function"
    },
    {
      "inputs": [
        {
          "internalType": "uint32",
          "name": "_loanId",
          "type": "uint32"
        },
        {
          "internalType": "address",
          "name": "_loanContract",
          "type": "address"
        }
      ],
      "name": "isValidLoanId",
      "outputs": [
        {
          "internalType": "bool",
          "name": "validity",
          "type": "bool"
        }
      ],
      "stateMutability": "view",
      "type": "function"
    },
    {
      "inputs": [
        {
          "internalType": "uint32",
          "name": "_loanId",
          "type": "uint32"
        },
        {
          "internalType": "address",
          "name": "_borrower",
          "type": "address"
        }
      ],
      "name": "mintObligationReceipt",
      "outputs": [],
      "stateMutability": "nonpayable",
      "type": "function"
    },
    {
      "inputs": [],
      "name": "obligationReceiptToken",
      "outputs": [
        {
          "internalType": "address",
          "name": "",
          "type": "address"
        }
      ],
      "stateMutability": "view",
      "type": "function"
    },
    {
      "inputs": [],
      "name": "owner",
      "outputs": [
        {
          "internalType": "address",
          "name": "",
          "type": "address"
        }
      ],
      "stateMutability": "view",
      "type": "function"
    },
    {
      "inputs": [],
      "name": "promissoryNoteToken",
      "outputs": [
        {
          "internalType": "address",
          "name": "",
          "type": "address"
        }
      ],
      "stateMutability": "view",
      "type": "function"
    },
    {
      "inputs": [
        {
          "internalType": "address",
          "name": "_lender",
          "type": "address"
        },
        {
          "internalType": "bytes32",
          "name": "_loanType",
          "type": "bytes32"
        }
      ],
      "name": "registerLoan",
      "outputs": [
        {
          "internalType": "uint32",
          "name": "",
          "type": "uint32"
        }
      ],
      "stateMutability": "nonpayable",
      "type": "function"
    },
    {
      "inputs": [
        {
          "internalType": "string",
          "name": "_loanType",
          "type": "string"
        },
        {
          "internalType": "address",
          "name": "_loanContract",
          "type": "address"
        }
      ],
      "name": "registerLoanType",
      "outputs": [],
      "stateMutability": "nonpayable",
      "type": "function"
    },
    {
      "inputs": [
        {
          "internalType": "string[]",
          "name": "_loanTypes",
          "type": "string[]"
        },
        {
          "internalType": "address[]",
          "name": "_loanContracts",
          "type": "address[]"
        }
      ],
      "name": "registerLoanTypes",
      "outputs": [],
      "stateMutability": "nonpayable",
      "type": "function"
    },
    {
      "inputs": [],
      "name": "rejectTransferOwnership",
      "outputs": [],
      "stateMutability": "nonpayable",
      "type": "function"
    },
    {
      "inputs": [
        {
          "internalType": "address",
          "name": "_newOwnerCandidate",
          "type": "address"
        }
      ],
      "name": "requestTransferOwnership",
      "outputs": [],
      "stateMutability": "nonpayable",
      "type": "function"
    },
    {
      "inputs": [
        {
          "internalType": "uint32",
          "name": "_loanId",
          "type": "uint32"
        },
        {
          "internalType": "address",
          "name": "_lender",
          "type": "address"
        }
      ],
      "name": "resetSmartNfts",
      "outputs": [],
      "stateMutability": "nonpayable",
      "type": "function"
    },
    {
      "inputs": [
        {
          "internalType": "uint32",
          "name": "_loanId",
          "type": "uint32"
        },
        {
          "internalType": "bool",
          "name": "_repaid",
          "type": "bool"
        }
      ],
      "name": "resolveLoan",
      "outputs": [],
      "stateMutability": "nonpayable",
      "type": "function"
    },
    {
      "inputs": [],
      "name": "smartNftIdCounter",
      "outputs": [
        {
          "internalType": "uint32",
          "name": "",
          "type": "uint32"
        }
      ],
      "stateMutability": "view",
      "type": "function"
    },
    {
      "inputs": [],
      "name": "totalNumLoans",
      "outputs": [
        {
          "internalType": "uint32",
          "name": "",
          "type": "uint32"
        }
      ],
      "stateMutability": "view",
      "type": "function"
    }
  ],
  "transactionHash": "0xc3f2ec1431d3be19d8de7fc7379929edca99c2d7ee01695411141197c1749c5c",
  "args": [
    "0x4deAcdDEF0E6ada9a35e360126181C75fA7F8EdA",
    "0x169ee6762811ab9BC59A609331bc721d9f0CD56c",
    [
      "DIRECT_LOAN_FIXED_OFFER",
      "DIRECT_LOAN_FIXED_COLLECTION"
    ],
    [
      "0xd0a40eB7FD94eE97102BA8e9342243A2b2E22207",
      "0xD0C6e59B50C32530C627107F50Acc71958C4341F"
    ]
  ],
  "numDeployments": 1,
  "solcInputHash": "103c7252f85cc80233118bf16e4e3c05",
  "bytecode": "0x60c0604052600480546001600160481b03191690553480156200002157600080fd5b50604051620022e5380380620022e58339810160408190526200004491620003f9565b82620000508162000078565b506001600160a01b0384166080523360a0526200006e8282620000c8565b50505050620005e9565b600080546001600160a01b038381166001600160a01b0319831681178455604051919092169283917f8be0079c531659141344cd1fd0a4f28419497f9722a3daafe3b4186f6b6457e09190a35050565b80518251146200012b5760405162461bcd60e51b815260206004820152602360248201527f66756e6374696f6e20696e666f726d6174696f6e206172697479206d69736d616044820152620e8c6d60eb1b60648201526084015b60405180910390fd5b60005b82518110156200019557620001828382815181106200015157620001516200055c565b60200260200101518383815181106200016e576200016e6200055c565b60200260200101516200019a60201b60201c565b6200018d8162000572565b90506200012e565b505050565b8151600003620001e15760405162461bcd60e51b81526020600482015260116024820152706c6f616e5479706520697320656d70747960781b604482015260640162000122565b60405163f99a8ffb60e01b815260009073733aC632056AA272130Af63809fF3301C80bD1e79063f99a8ffb906200021d9086906004016200059a565b602060405180830381865af41580156200023b573d6000803e3d6000fd5b505050506040513d601f19601f82011682018060405250810190620002619190620005cf565b600081815260026020908152604080832080546001600160a01b0319166001600160a01b0388169081179091558084526003909252808320849055519293509183917f22be69269c1f7d73e73dcb25b710dd88c7aa1cf374c16d945def98df2107c2f891a3505050565b80516001600160a01b0381168114620002e357600080fd5b919050565b634e487b7160e01b600052604160045260246000fd5b604051601f8201601f191681016001600160401b0381118282101715620003295762000329620002e8565b604052919050565b60006001600160401b038211156200034d576200034d620002e8565b5060051b60200190565b60005b83811015620003745781810151838201526020016200035a565b50506000910152565b600082601f8301126200038f57600080fd5b81516020620003a8620003a28362000331565b620002fe565b82815260059290921b84018101918181019086841115620003c857600080fd5b8286015b84811015620003ee57620003e081620002cb565b8352918301918301620003cc565b509695505050505050565b600080600080608085870312156200041057600080fd5b6200041b85620002cb565b935060206200042c818701620002cb565b60408701519094506001600160401b03808211156200044a57600080fd5b818801915088601f8301126200045f57600080fd5b815162000470620003a28262000331565b81815260059190911b8301840190848101908b8311156200049057600080fd5b8585015b838110156200052557805185811115620004ae5760008081fd5b8601603f81018e13620004c15760008081fd5b8781015186811115620004d857620004d8620002e8565b620004ec601f8201601f19168a01620002fe565b8181528f6040838501011115620005035760008081fd5b62000515828b83016040860162000357565b8552505091860191860162000494565b5060608b015190975094505050808311156200054057600080fd5b505062000550878288016200037d565b91505092959194509250565b634e487b7160e01b600052603260045260246000fd5b6000600182016200059357634e487b7160e01b600052601160045260246000fd5b5060010190565b6020815260008251806020840152620005bb81604085016020870162000357565b601f01601f19169190910160400192915050565b600060208284031215620005e257600080fd5b5051919050565b60805160a051611cd66200060f60003960006109d1015260006101c20152611cd66000f3fe608060405234801561001057600080fd5b50600436106101375760003560e01c80635f992fdd116100b857806392fede001161007c57806392fede00146102d95780639d6fa618146102e1578063a4d0845d146102f4578063d1f7659514610307578063d5d4d1821461031a578063e6c5a5411461032d57600080fd5b80635f992fdd1461028d5780637b371107146102955780638208e76c1461029d57806386d93f66146102b05780638da5cb5b146102d157600080fd5b8063485cc955116100ff578063485cc955146101e45780634fbe68a0146101f757806352a067e51461020a5780635509a9e9146102505780635794fefc1461027d57600080fd5b8063072db1471461013c57806308abefa9146101515780631b982cf11461019757806326041874146101aa578063365a86fc146101bd575b600080fd5b61014f61014a366004611634565b61034d565b005b61017a61015f366004611667565b6000908152600260205260409020546001600160a01b031690565b6040516001600160a01b0390911681526020015b60405180910390f35b61014f6101a5366004611634565b61070f565b61014f6101b83660046117ca565b610989565b61017a7f000000000000000000000000000000000000000000000000000000000000000081565b61014f6101f236600461189d565b6109c6565b60065461017a906001600160a01b031681565b610240610218366004611634565b63ffffffff9091166000908152600560205260409020546001600160a01b0390811691161490565b604051901515815260200161018e565b60045461026890640100000000900463ffffffff1681565b60405163ffffffff909116815260200161018e565b6004546102689063ffffffff1681565b61014f610b6b565b61014f610ba7565b60075461017a906001600160a01b031681565b6102c36102be3660046118b9565b610be6565b60405190815260200161018e565b61017a610c01565b61014f610c10565b61014f6102ef3660046118b9565b610c3f565b61014f6103023660046118ec565b610cf5565b610268610315366004611923565b610ff8565b61014f61032836600461194d565b6112f4565b61034061033b366004611991565b61132d565b60405161018e91906119e4565b600454600160401b900460ff1661037f5760405162461bcd60e51b815260040161037690611a22565b60405180910390fd5b33600061038b82610be6565b036103a85760405162461bcd60e51b815260040161037690611a4b565b63ffffffff8316600090815260056020526040812054600160a01b90046001600160401b0316908190036103ee5760405162461bcd60e51b815260040161037690611a90565b600654604051634f558e7960e01b81526001600160401b03831660048201526001600160a01b0390911690634f558e7990602401602060405180830381865afa15801561043f573d6000803e3d6000fd5b505050506040513d601f19601f820116820180604052508101906104639190611abc565b61047f5760405162461bcd60e51b815260040161037690611ad9565b600654604051630852cd8d60e31b81526001600160401b03831660048201526001600160a01b03909116906342966c6890602401600060405180830381600087803b1580156104cd57600080fd5b505af11580156104e1573d6000803e3d6000fd5b5050505060016004808282829054906101000a900463ffffffff166105069190611b26565b92506101000a81548163ffffffff021916908363ffffffff16021790555060003060048054906101000a900463ffffffff16604051602001610549929190611b43565b60408051601f19818403018152828252805160209182012060065463ffffffff8a168386015283518086039093018352848401938490526394d008ef60e01b90935293506001600160a01b03909116916394d008ef916105af9188918691604401611bb8565b600060405180830381600087803b1580156105c957600080fd5b505af11580156105dd573d6000803e3d6000fd5b50505063ffffffff86166000908152600560205260409081902080546001600160401b038516600160a01b0267ffffffffffffffff60a01b199091161790556007549051634f558e7960e01b81526001600160a01b039091169150634f558e799061065b9085906004016001600160401b0391909116815260200190565b602060405180830381865afa158015610678573d6000803e3d6000fd5b505050506040513d601f19601f8201168201806040525081019061069c9190611abc565b1561070857600754604051630852cd8d60e31b81526001600160401b03841660048201526001600160a01b03909116906342966c6890602401600060405180830381600087803b1580156106ef57600080fd5b505af1158015610703573d6000803e3d6000fd5b505050505b5050505050565b600454600160401b900460ff166107385760405162461bcd60e51b815260040161037690611a22565b33600061074482610be6565b036107615760405162461bcd60e51b815260040161037690611a4b565b63ffffffff8316600090815260056020526040812054600160a01b90046001600160401b0316908190036107a75760405162461bcd60e51b815260040161037690611a90565b600654604051634f558e7960e01b81526001600160401b03831660048201526001600160a01b0390911690634f558e7990602401602060405180830381865afa1580156107f8573d6000803e3d6000fd5b505050506040513d601f19601f8201168201806040525081019061081c9190611abc565b6108385760405162461bcd60e51b815260040161037690611ad9565b600754604051634f558e7960e01b81526001600160401b03831660048201526001600160a01b0390911690634f558e7990602401602060405180830381865afa158015610889573d6000803e3d6000fd5b505050506040513d601f19601f820116820180604052508101906108ad9190611abc565b156108fa5760405162461bcd60e51b815260206004820152601c60248201527f4f626c69676174696f6e20722073686f756c646e2774206578697374000000006044820152606401610376565b6007546040805163ffffffff871660208201526001600160a01b03909216916394d008ef9186918591016040516020818303038152906040526040518463ffffffff1660e01b815260040161095193929190611bb8565b600060405180830381600087803b15801561096b57600080fd5b505af115801561097f573d6000803e3d6000fd5b5050505050505050565b33610992610c01565b6001600160a01b0316146109b85760405162461bcd60e51b815260040161037690611bf4565b6109c282826113d0565b5050565b336001600160a01b037f00000000000000000000000000000000000000000000000000000000000000001614610a2e5760405162461bcd60e51b815260206004820152600d60248201526c37b7363c903232b83637bcb2b960991b6044820152606401610376565b600454600160401b900460ff1615610a7e5760405162461bcd60e51b8152602060048201526013602482015272185b1c9958591e481a5b9a5d1a585b1a5e9959606a1b6044820152606401610376565b6001600160a01b038216610ad45760405162461bcd60e51b815260206004820152601b60248201527f70726f6d6973736f72794e6f7465546f6b656e206973207a65726f00000000006044820152606401610376565b6001600160a01b038116610b2a5760405162461bcd60e51b815260206004820152601e60248201527f6f626c69676174696f6e52656365697074546f6b656e206973207a65726f00006044820152606401610376565b6004805460ff60401b1916600160401b179055600680546001600160a01b039384166001600160a01b03199182161790915560078054929093169116179055565b6001546001600160a01b03163314610b955760405162461bcd60e51b815260040161037690611c29565b600180546001600160a01b0319169055565b6001546001600160a01b03163314610bd15760405162461bcd60e51b815260040161037690611c29565b600154610b95906001600160a01b031661148a565b6001600160a01b031660009081526003602052604090205490565b6000546001600160a01b031690565b33610c19610c01565b6001600160a01b031614610b955760405162461bcd60e51b815260040161037690611bf4565b33610c48610c01565b6001600160a01b031614610c6e5760405162461bcd60e51b815260040161037690611bf4565b6001600160a01b038116610cd35760405162461bcd60e51b815260206004820152602660248201527f4f776e61626c653a206e6577206f776e657220697320746865207a65726f206160448201526564647265737360d01b6064820152608401610376565b600180546001600160a01b0319166001600160a01b0392909216919091179055565b600454600160401b900460ff16610d1e5760405162461bcd60e51b815260040161037690611a22565b63ffffffff8216600090815260056020526040902060018154600160e01b900460ff166003811115610d5257610d526119ac565b14610d995760405162461bcd60e51b81526020600482015260176024820152764c6f616e20737461747573206d757374206265204e657760481b6044820152606401610376565b80546001600160a01b03163314610e055760405162461bcd60e51b815260206004820152602a60248201527f4e6f74207468652073616d6520436f6e747261637420746861742072656769736044820152693a32b932b2102637b0b760b11b6064820152608401610376565b8115610e2157805460ff60e01b1916600160e11b178155610e33565b805460ff60e01b1916600360e01b1781555b6006548154604051630852cd8d60e31b8152600160a01b9091046001600160401b031660048201526001600160a01b03909116906342966c6890602401600060405180830381600087803b158015610e8a57600080fd5b505af1158015610e9e573d6000803e3d6000fd5b50506007548354604051634f558e7960e01b8152600160a01b9091046001600160401b031660048201526001600160a01b039091169250634f558e799150602401602060405180830381865afa158015610efc573d6000803e3d6000fd5b505050506040513d601f19601f82011682018060405250810190610f209190611abc565b15610f95576007548154604051630852cd8d60e31b8152600160a01b9091046001600160401b031660048201526001600160a01b03909116906342966c6890602401600060405180830381600087803b158015610f7c57600080fd5b505af1158015610f90573d6000803e3d6000fd5b505050505b80546040513391600160a01b81046001600160401b03169163ffffffff8716917fed71188e6e889129ea3e58f204838c0d459c617582cbbc6759017f50820edb5c91610feb91600160e01b900460ff1690611c60565b60405180910390a4505050565b600454600090600160401b900460ff166110245760405162461bcd60e51b815260040161037690611a22565b3380611045846000908152600260205260409020546001600160a01b031690565b6001600160a01b0316146110ab5760405162461bcd60e51b815260206004820152602760248201527f43616c6c6572206d757374206265207265676973746572656420666f72206c6f604482015266616e207479706560c81b6064820152608401610376565b60048054600191906000906110c790849063ffffffff16611b26565b92506101000a81548163ffffffff021916908363ffffffff16021790555060016004808282829054906101000a900463ffffffff166111069190611b26565b92506101000a81548163ffffffff021916908363ffffffff16021790555060003060048054906101000a900463ffffffff16604051602001611149929190611b43565b60408051601f1981840301815282825280516020918201206060840183526001600160a01b0386811685526001600160401b03821683860152600185850152600654600454855163ffffffff9091168186015285518082039095018552808601958690526394d008ef60e01b90955291955016916394d008ef916111d3918a918791604401611bb8565b600060405180830381600087803b1580156111ed57600080fd5b505af1158015611201573d6000803e3d6000fd5b505060045463ffffffff1660009081526005602090815260409182902085518154928701516001600160401b0316600160a01b026001600160e01b03199093166001600160a01b0390911617919091178082559185015185945090925090829060ff60e01b1916600160e01b83600381111561127f5761127f6119ac565b0217905550506004546040516001600160a01b03861692506001600160401b0385169163ffffffff16907fed71188e6e889129ea3e58f204838c0d459c617582cbbc6759017f50820edb5c906112d790600190611c60565b60405180910390a4505060045463ffffffff169150505b92915050565b336112fd610c01565b6001600160a01b0316146113235760405162461bcd60e51b815260040161037690611bf4565b6109c282826114da565b61134e60408051606081018252600080825260208201819052909182015290565b63ffffffff8216600090815260056020908152604091829020825160608101845281546001600160a01b0381168252600160a01b81046001600160401b03169382019390935292909190830190600160e01b900460ff1660038111156113b6576113b66119ac565b60038111156113c7576113c76119ac565b90525092915050565b805182511461142d5760405162461bcd60e51b815260206004820152602360248201527f66756e6374696f6e20696e666f726d6174696f6e206172697479206d69736d616044820152620e8c6d60eb1b6064820152608401610376565b60005b82518110156114855761147583828151811061144e5761144e611c6e565b602002602001015183838151811061146857611468611c6e565b60200260200101516114da565b61147e81611c84565b9050611430565b505050565b600080546001600160a01b038381166001600160a01b0319831681178455604051919092169283917f8be0079c531659141344cd1fd0a4f28419497f9722a3daafe3b4186f6b6457e09190a35050565b815160000361151f5760405162461bcd60e51b81526020600482015260116024820152706c6f616e5479706520697320656d70747960781b6044820152606401610376565b60405163f99a8ffb60e01b815260009073733aC632056AA272130Af63809fF3301C80bD1e79063f99a8ffb90611559908690600401611c9d565b602060405180830381865af4158015611576573d6000803e3d6000fd5b505050506040513d601f19601f8201168201806040525081019061159a9190611cb0565b600081815260026020908152604080832080546001600160a01b0319166001600160a01b0388169081179091558084526003909252808320849055519293509183917f22be69269c1f7d73e73dcb25b710dd88c7aa1cf374c16d945def98df2107c2f891a3505050565b803563ffffffff8116811461161857600080fd5b919050565b80356001600160a01b038116811461161857600080fd5b6000806040838503121561164757600080fd5b61165083611604565b915061165e6020840161161d565b90509250929050565b60006020828403121561167957600080fd5b5035919050565b634e487b7160e01b600052604160045260246000fd5b604051601f8201601f191681016001600160401b03811182821017156116be576116be611680565b604052919050565b60006001600160401b038211156116df576116df611680565b5060051b60200190565b600082601f8301126116fa57600080fd5b81356001600160401b0381111561171357611713611680565b611726601f8201601f1916602001611696565b81815284602083860101111561173b57600080fd5b816020850160208301376000918101602001919091529392505050565b600082601f83011261176957600080fd5b8135602061177e611779836116c6565b611696565b82815260059290921b8401810191818101908684111561179d57600080fd5b8286015b848110156117bf576117b28161161d565b83529183019183016117a1565b509695505050505050565b600080604083850312156117dd57600080fd5b82356001600160401b03808211156117f457600080fd5b818501915085601f83011261180857600080fd5b81356020611818611779836116c6565b82815260059290921b8401810191818101908984111561183757600080fd5b8286015b8481101561186f578035868111156118535760008081fd5b6118618c86838b01016116e9565b84525091830191830161183b565b509650508601359250508082111561188657600080fd5b5061189385828601611758565b9150509250929050565b600080604083850312156118b057600080fd5b6116508361161d565b6000602082840312156118cb57600080fd5b6118d48261161d565b9392505050565b80151581146118e957600080fd5b50565b600080604083850312156118ff57600080fd5b61190883611604565b91506020830135611918816118db565b809150509250929050565b6000806040838503121561193657600080fd5b61193f8361161d565b946020939093013593505050565b6000806040838503121561196057600080fd5b82356001600160401b0381111561197657600080fd5b611982858286016116e9565b92505061165e6020840161161d565b6000602082840312156119a357600080fd5b6118d482611604565b634e487b7160e01b600052602160045260246000fd5b600481106119e057634e487b7160e01b600052602160045260246000fd5b9052565b81516001600160a01b031681526020808301516001600160401b0316908201526040808301516060830191611a1b908401826119c2565b5092915050565b6020808252600f908201526e1b9bdd081a5b9a5d1a585b1a5e9959608a1b604082015260600190565b60208082526025908201527f43616c6c6572206d75737420612062652072656769737465726564206c6f616e604082015264207479706560d81b606082015260800190565b6020808252601290820152711b1bd85b88191bd95cdb89dd08195e1a5cdd60721b604082015260600190565b600060208284031215611ace57600080fd5b81516118d4816118db565b6020808252601c908201527f50726f6d6973736f7279206e6f74652073686f756c6420657869737400000000604082015260600190565b634e487b7160e01b600052601160045260246000fd5b63ffffffff818116838216019080821115611a1b57611a1b611b10565b60609290921b6bffffffffffffffffffffffff1916825260e01b6001600160e01b031916601482015260180190565b6000815180845260005b81811015611b9857602081850181015186830182015201611b7c565b506000602082860101526020601f19601f83011685010191505092915050565b6001600160a01b03841681526001600160401b0383166020820152606060408201819052600090611beb90830184611b72565b95945050505050565b6020808252818101527f4f776e61626c653a2063616c6c6572206973206e6f7420746865206f776e6572604082015260600190565b6020808252601c908201527f4f776e61626c653a206e6f74206f776e65722063616e64696461746500000000604082015260600190565b602081016112ee82846119c2565b634e487b7160e01b600052603260045260246000fd5b600060018201611c9657611c96611b10565b5060010190565b6020815260006118d46020830184611b72565b600060208284031215611cc257600080fd5b505191905056fea164736f6c6343000813000a",
  "deployedBytecode": "0x608060405234801561001057600080fd5b50600436106101375760003560e01c80635f992fdd116100b857806392fede001161007c57806392fede00146102d95780639d6fa618146102e1578063a4d0845d146102f4578063d1f7659514610307578063d5d4d1821461031a578063e6c5a5411461032d57600080fd5b80635f992fdd1461028d5780637b371107146102955780638208e76c1461029d57806386d93f66146102b05780638da5cb5b146102d157600080fd5b8063485cc955116100ff578063485cc955146101e45780634fbe68a0146101f757806352a067e51461020a5780635509a9e9146102505780635794fefc1461027d57600080fd5b8063072db1471461013c57806308abefa9146101515780631b982cf11461019757806326041874146101aa578063365a86fc146101bd575b600080fd5b61014f61014a366004611634565b61034d565b005b61017a61015f366004611667565b6000908152600260205260409020546001600160a01b031690565b6040516001600160a01b0390911681526020015b60405180910390f35b61014f6101a5366004611634565b61070f565b61014f6101b83660046117ca565b610989565b61017a7f000000000000000000000000000000000000000000000000000000000000000081565b61014f6101f236600461189d565b6109c6565b60065461017a906001600160a01b031681565b610240610218366004611634565b63ffffffff9091166000908152600560205260409020546001600160a01b0390811691161490565b604051901515815260200161018e565b60045461026890640100000000900463ffffffff1681565b60405163ffffffff909116815260200161018e565b6004546102689063ffffffff1681565b61014f610b6b565b61014f610ba7565b60075461017a906001600160a01b031681565b6102c36102be3660046118b9565b610be6565b60405190815260200161018e565b61017a610c01565b61014f610c10565b61014f6102ef3660046118b9565b610c3f565b61014f6103023660046118ec565b610cf5565b610268610315366004611923565b610ff8565b61014f61032836600461194d565b6112f4565b61034061033b366004611991565b61132d565b60405161018e91906119e4565b600454600160401b900460ff1661037f5760405162461bcd60e51b815260040161037690611a22565b60405180910390fd5b33600061038b82610be6565b036103a85760405162461bcd60e51b815260040161037690611a4b565b63ffffffff8316600090815260056020526040812054600160a01b90046001600160401b0316908190036103ee5760405162461bcd60e51b815260040161037690611a90565b600654604051634f558e7960e01b81526001600160401b03831660048201526001600160a01b0390911690634f558e7990602401602060405180830381865afa15801561043f573d6000803e3d6000fd5b505050506040513d601f19601f820116820180604052508101906104639190611abc565b61047f5760405162461bcd60e51b815260040161037690611ad9565b600654604051630852cd8d60e31b81526001600160401b03831660048201526001600160a01b03909116906342966c6890602401600060405180830381600087803b1580156104cd57600080fd5b505af11580156104e1573d6000803e3d6000fd5b5050505060016004808282829054906101000a900463ffffffff166105069190611b26565b92506101000a81548163ffffffff021916908363ffffffff16021790555060003060048054906101000a900463ffffffff16604051602001610549929190611b43565b60408051601f19818403018152828252805160209182012060065463ffffffff8a168386015283518086039093018352848401938490526394d008ef60e01b90935293506001600160a01b03909116916394d008ef916105af9188918691604401611bb8565b600060405180830381600087803b1580156105c957600080fd5b505af11580156105dd573d6000803e3d6000fd5b50505063ffffffff86166000908152600560205260409081902080546001600160401b038516600160a01b0267ffffffffffffffff60a01b199091161790556007549051634f558e7960e01b81526001600160a01b039091169150634f558e799061065b9085906004016001600160401b0391909116815260200190565b602060405180830381865afa158015610678573d6000803e3d6000fd5b505050506040513d601f19601f8201168201806040525081019061069c9190611abc565b1561070857600754604051630852cd8d60e31b81526001600160401b03841660048201526001600160a01b03909116906342966c6890602401600060405180830381600087803b1580156106ef57600080fd5b505af1158015610703573d6000803e3d6000fd5b505050505b5050505050565b600454600160401b900460ff166107385760405162461bcd60e51b815260040161037690611a22565b33600061074482610be6565b036107615760405162461bcd60e51b815260040161037690611a4b565b63ffffffff8316600090815260056020526040812054600160a01b90046001600160401b0316908190036107a75760405162461bcd60e51b815260040161037690611a90565b600654604051634f558e7960e01b81526001600160401b03831660048201526001600160a01b0390911690634f558e7990602401602060405180830381865afa1580156107f8573d6000803e3d6000fd5b505050506040513d601f19601f8201168201806040525081019061081c9190611abc565b6108385760405162461bcd60e51b815260040161037690611ad9565b600754604051634f558e7960e01b81526001600160401b03831660048201526001600160a01b0390911690634f558e7990602401602060405180830381865afa158015610889573d6000803e3d6000fd5b505050506040513d601f19601f820116820180604052508101906108ad9190611abc565b156108fa5760405162461bcd60e51b815260206004820152601c60248201527f4f626c69676174696f6e20722073686f756c646e2774206578697374000000006044820152606401610376565b6007546040805163ffffffff871660208201526001600160a01b03909216916394d008ef9186918591016040516020818303038152906040526040518463ffffffff1660e01b815260040161095193929190611bb8565b600060405180830381600087803b15801561096b57600080fd5b505af115801561097f573d6000803e3d6000fd5b5050505050505050565b33610992610c01565b6001600160a01b0316146109b85760405162461bcd60e51b815260040161037690611bf4565b6109c282826113d0565b5050565b336001600160a01b037f00000000000000000000000000000000000000000000000000000000000000001614610a2e5760405162461bcd60e51b815260206004820152600d60248201526c37b7363c903232b83637bcb2b960991b6044820152606401610376565b600454600160401b900460ff1615610a7e5760405162461bcd60e51b8152602060048201526013602482015272185b1c9958591e481a5b9a5d1a585b1a5e9959606a1b6044820152606401610376565b6001600160a01b038216610ad45760405162461bcd60e51b815260206004820152601b60248201527f70726f6d6973736f72794e6f7465546f6b656e206973207a65726f00000000006044820152606401610376565b6001600160a01b038116610b2a5760405162461bcd60e51b815260206004820152601e60248201527f6f626c69676174696f6e52656365697074546f6b656e206973207a65726f00006044820152606401610376565b6004805460ff60401b1916600160401b179055600680546001600160a01b039384166001600160a01b03199182161790915560078054929093169116179055565b6001546001600160a01b03163314610b955760405162461bcd60e51b815260040161037690611c29565b600180546001600160a01b0319169055565b6001546001600160a01b03163314610bd15760405162461bcd60e51b815260040161037690611c29565b600154610b95906001600160a01b031661148a565b6001600160a01b031660009081526003602052604090205490565b6000546001600160a01b031690565b33610c19610c01565b6001600160a01b031614610b955760405162461bcd60e51b815260040161037690611bf4565b33610c48610c01565b6001600160a01b031614610c6e5760405162461bcd60e51b815260040161037690611bf4565b6001600160a01b038116610cd35760405162461bcd60e51b815260206004820152602660248201527f4f776e61626c653a206e6577206f776e657220697320746865207a65726f206160448201526564647265737360d01b6064820152608401610376565b600180546001600160a01b0319166001600160a01b0392909216919091179055565b600454600160401b900460ff16610d1e5760405162461bcd60e51b815260040161037690611a22565b63ffffffff8216600090815260056020526040902060018154600160e01b900460ff166003811115610d5257610d526119ac565b14610d995760405162461bcd60e51b81526020600482015260176024820152764c6f616e20737461747573206d757374206265204e657760481b6044820152606401610376565b80546001600160a01b03163314610e055760405162461bcd60e51b815260206004820152602a60248201527f4e6f74207468652073616d6520436f6e747261637420746861742072656769736044820152693a32b932b2102637b0b760b11b6064820152608401610376565b8115610e2157805460ff60e01b1916600160e11b178155610e33565b805460ff60e01b1916600360e01b1781555b6006548154604051630852cd8d60e31b8152600160a01b9091046001600160401b031660048201526001600160a01b03909116906342966c6890602401600060405180830381600087803b158015610e8a57600080fd5b505af1158015610e9e573d6000803e3d6000fd5b50506007548354604051634f558e7960e01b8152600160a01b9091046001600160401b031660048201526001600160a01b039091169250634f558e799150602401602060405180830381865afa158015610efc573d6000803e3d6000fd5b505050506040513d601f19601f82011682018060405250810190610f209190611abc565b15610f95576007548154604051630852cd8d60e31b8152600160a01b9091046001600160401b031660048201526001600160a01b03909116906342966c6890602401600060405180830381600087803b158015610f7c57600080fd5b505af1158015610f90573d6000803e3d6000fd5b505050505b80546040513391600160a01b81046001600160401b03169163ffffffff8716917fed71188e6e889129ea3e58f204838c0d459c617582cbbc6759017f50820edb5c91610feb91600160e01b900460ff1690611c60565b60405180910390a4505050565b600454600090600160401b900460ff166110245760405162461bcd60e51b815260040161037690611a22565b3380611045846000908152600260205260409020546001600160a01b031690565b6001600160a01b0316146110ab5760405162461bcd60e51b815260206004820152602760248201527f43616c6c6572206d757374206265207265676973746572656420666f72206c6f604482015266616e207479706560c81b6064820152608401610376565b60048054600191906000906110c790849063ffffffff16611b26565b92506101000a81548163ffffffff021916908363ffffffff16021790555060016004808282829054906101000a900463ffffffff166111069190611b26565b92506101000a81548163ffffffff021916908363ffffffff16021790555060003060048054906101000a900463ffffffff16604051602001611149929190611b43565b60408051601f1981840301815282825280516020918201206060840183526001600160a01b0386811685526001600160401b03821683860152600185850152600654600454855163ffffffff9091168186015285518082039095018552808601958690526394d008ef60e01b90955291955016916394d008ef916111d3918a918791604401611bb8565b600060405180830381600087803b1580156111ed57600080fd5b505af1158015611201573d6000803e3d6000fd5b505060045463ffffffff1660009081526005602090815260409182902085518154928701516001600160401b0316600160a01b026001600160e01b03199093166001600160a01b0390911617919091178082559185015185945090925090829060ff60e01b1916600160e01b83600381111561127f5761127f6119ac565b0217905550506004546040516001600160a01b03861692506001600160401b0385169163ffffffff16907fed71188e6e889129ea3e58f204838c0d459c617582cbbc6759017f50820edb5c906112d790600190611c60565b60405180910390a4505060045463ffffffff169150505b92915050565b336112fd610c01565b6001600160a01b0316146113235760405162461bcd60e51b815260040161037690611bf4565b6109c282826114da565b61134e60408051606081018252600080825260208201819052909182015290565b63ffffffff8216600090815260056020908152604091829020825160608101845281546001600160a01b0381168252600160a01b81046001600160401b03169382019390935292909190830190600160e01b900460ff1660038111156113b6576113b66119ac565b60038111156113c7576113c76119ac565b90525092915050565b805182511461142d5760405162461bcd60e51b815260206004820152602360248201527f66756e6374696f6e20696e666f726d6174696f6e206172697479206d69736d616044820152620e8c6d60eb1b6064820152608401610376565b60005b82518110156114855761147583828151811061144e5761144e611c6e565b602002602001015183838151811061146857611468611c6e565b60200260200101516114da565b61147e81611c84565b9050611430565b505050565b600080546001600160a01b038381166001600160a01b0319831681178455604051919092169283917f8be0079c531659141344cd1fd0a4f28419497f9722a3daafe3b4186f6b6457e09190a35050565b815160000361151f5760405162461bcd60e51b81526020600482015260116024820152706c6f616e5479706520697320656d70747960781b6044820152606401610376565b60405163f99a8ffb60e01b815260009073__$d7e2e0a2db402280e6c36233d590dce656$__9063f99a8ffb90611559908690600401611c9d565b602060405180830381865af4158015611576573d6000803e3d6000fd5b505050506040513d601f19601f8201168201806040525081019061159a9190611cb0565b600081815260026020908152604080832080546001600160a01b0319166001600160a01b0388169081179091558084526003909252808320849055519293509183917f22be69269c1f7d73e73dcb25b710dd88c7aa1cf374c16d945def98df2107c2f891a3505050565b803563ffffffff8116811461161857600080fd5b919050565b80356001600160a01b038116811461161857600080fd5b6000806040838503121561164757600080fd5b61165083611604565b915061165e6020840161161d565b90509250929050565b60006020828403121561167957600080fd5b5035919050565b634e487b7160e01b600052604160045260246000fd5b604051601f8201601f191681016001600160401b03811182821017156116be576116be611680565b604052919050565b60006001600160401b038211156116df576116df611680565b5060051b60200190565b600082601f8301126116fa57600080fd5b81356001600160401b0381111561171357611713611680565b611726601f8201601f1916602001611696565b81815284602083860101111561173b57600080fd5b816020850160208301376000918101602001919091529392505050565b600082601f83011261176957600080fd5b8135602061177e611779836116c6565b611696565b82815260059290921b8401810191818101908684111561179d57600080fd5b8286015b848110156117bf576117b28161161d565b83529183019183016117a1565b509695505050505050565b600080604083850312156117dd57600080fd5b82356001600160401b03808211156117f457600080fd5b818501915085601f83011261180857600080fd5b81356020611818611779836116c6565b82815260059290921b8401810191818101908984111561183757600080fd5b8286015b8481101561186f578035868111156118535760008081fd5b6118618c86838b01016116e9565b84525091830191830161183b565b509650508601359250508082111561188657600080fd5b5061189385828601611758565b9150509250929050565b600080604083850312156118b057600080fd5b6116508361161d565b6000602082840312156118cb57600080fd5b6118d48261161d565b9392505050565b80151581146118e957600080fd5b50565b600080604083850312156118ff57600080fd5b61190883611604565b91506020830135611918816118db565b809150509250929050565b6000806040838503121561193657600080fd5b61193f8361161d565b946020939093013593505050565b6000806040838503121561196057600080fd5b82356001600160401b0381111561197657600080fd5b611982858286016116e9565b92505061165e6020840161161d565b6000602082840312156119a357600080fd5b6118d482611604565b634e487b7160e01b600052602160045260246000fd5b600481106119e057634e487b7160e01b600052602160045260246000fd5b9052565b81516001600160a01b031681526020808301516001600160401b0316908201526040808301516060830191611a1b908401826119c2565b5092915050565b6020808252600f908201526e1b9bdd081a5b9a5d1a585b1a5e9959608a1b604082015260600190565b60208082526025908201527f43616c6c6572206d75737420612062652072656769737465726564206c6f616e604082015264207479706560d81b606082015260800190565b6020808252601290820152711b1bd85b88191bd95cdb89dd08195e1a5cdd60721b604082015260600190565b600060208284031215611ace57600080fd5b81516118d4816118db565b6020808252601c908201527f50726f6d6973736f7279206e6f74652073686f756c6420657869737400000000604082015260600190565b634e487b7160e01b600052601160045260246000fd5b63ffffffff818116838216019080821115611a1b57611a1b611b10565b60609290921b6bffffffffffffffffffffffff1916825260e01b6001600160e01b031916601482015260180190565b6000815180845260005b81811015611b9857602081850181015186830182015201611b7c565b506000602082860101526020601f19601f83011685010191505092915050565b6001600160a01b03841681526001600160401b0383166020820152606060408201819052600090611beb90830184611b72565b95945050505050565b6020808252818101527f4f776e61626c653a2063616c6c6572206973206e6f7420746865206f776e6572604082015260600190565b6020808252601c908201527f4f776e61626c653a206e6f74206f776e65722063616e64696461746500000000604082015260600190565b602081016112ee82846119c2565b634e487b7160e01b600052603260045260246000fd5b600060018201611c9657611c96611b10565b5060010190565b6020815260006118d46020830184611b72565b600060208284031215611cc257600080fd5b505191905056fea164736f6c6343000813000a",
  "libraries": {
    "ContractKeys": "0x733aC632056AA272130Af63809fF3301C80bD1e7"
  },
  "devdoc": {
    "author": "NFTfi",
    "events": {
      "TypeUpdated(bytes32,address)": {
        "params": {
          "loanContract": "- Address of the loan type contract.",
          "loanType": "- Loan type represented by keccak256('loan type')."
        }
      }
    },
    "kind": "dev",
    "methods": {
      "constructor": {
        "params": {
          "_admin": "- Initial admin of this contract.",
          "_loanContracts": "- The addresses of each wrapper contract that implements the loan type's behaviour.",
          "_loanTypes": "- Loan types represented by keccak256('loan type').",
          "_nftfiHub": "- Address of the NftfiHub contract"
        }
      },
      "getContractFromType(bytes32)": {
        "params": {
          "_loanType": "- The loan type, e.g. bytes32(\"DIRECT_LOAN_FIXED\"), or bytes32(\"DIRECT_LOAN_PRO_RATED\")."
        }
      },
      "getLoanData(uint32)": {
        "details": "Returns loan's data for a given id.",
        "params": {
          "_loanId": "- Id of the loan"
        }
      },
      "getTypeFromContract(address)": {
        "params": {
          "_loanContract": "- The loan contract"
        }
      },
      "initialize(address,address)": {
        "details": "Sets `promissoryNoteToken` and `obligationReceiptToken`. It can be executed once by the deployer.",
        "params": {
          "_obligationReceiptToken": "- Obligaiton Recipt Token address",
          "_promissoryNoteToken": "- Promissory Note Token address"
        }
      },
      "isValidLoanId(uint32,address)": {
        "details": "checks if the given id is valid for the given loan contract address",
        "params": {
          "_loanContract": "- address og the loan contract",
          "_loanId": "- Id of the loan"
        }
      },
      "owner()": {
        "details": "Returns the address of the current owner."
      },
      "registerLoan(address,bytes32)": {
        "details": "This is called by the LoanType beginning the new loan. It initialize the new loan data, mints both PromissoryNote and ObligationReceipt SmartNft's and returns the new loan id.",
        "params": {
          "_lender": "- Address of the lender",
          "_loanType": "- The type of the loan"
        }
      },
      "registerLoanType(string,address)": {
        "params": {
          "_loanContract": "- The address of the wrapper contract that implements the loan type's behaviour.",
          "_loanType": "- Loan type represented by 'loan type'."
        }
      },
      "registerLoanTypes(string[],address[])": {
        "params": {
          "_loanContracts": "- The addresses of each wrapper contract that implements the loan type's behaviour.",
          "_loanTypes": "- Loan types represented by 'loan type'."
        }
      },
      "requestTransferOwnership(address)": {
        "details": "Requests transferring ownership of the contract to a new account (`_newOwnerCandidate`). Can only be called by the current owner."
      },
      "resolveLoan(uint32,bool)": {
        "details": "This is called by the LoanType who created the loan, when a loan is resolved whether by paying back or liquidating the loan. It sets the loan as `RESOLVED` and burns both PromossoryNote and ObligationReceipt SmartNft's.",
        "params": {
          "_loanId": "- Id of the loan"
        }
      }
    },
    "stateVariables": {
      "contractTypes": {
        "details": "reverse mapping of loanTypes - for each contract address, records the associated loan type"
      },
      "typeContracts": {
        "details": "For each loan type, records the address of the contract that implements the type"
      }
    },
    "title": "DirectLoanCoordinator",
    "version": 1
  },
  "userdoc": {
    "events": {
      "TypeUpdated(bytes32,address)": {
        "notice": "This event is fired whenever the admins register a loan type."
      }
    },
    "kind": "user",
    "methods": {
      "constructor": {
        "notice": "Sets the admin of the contract. Initializes `contractTypes` with a batch of loan types. Sets `NftfiHub`."
      },
      "getContractFromType(bytes32)": {
        "notice": "This function can be called by anyone to get the contract address that implements the given loan type."
      },
      "getTypeFromContract(address)": {
        "notice": "This function can be called by anyone to get the loan type of the given contract address."
      },
      "registerLoanType(string,address)": {
        "notice": "Set or update the contract address that implements the given Loan Type. Set address(0) for a loan type for un-register such type."
      },
      "registerLoanTypes(string[],address[])": {
        "notice": "Batch set or update the contract addresses that implement the given batch Loan Type. Set address(0) for a loan type for un-register such type."
      },
      "totalNumLoans()": {
        "notice": "A continuously increasing counter that simultaneously allows every loan to have a unique ID and provides a running count of how many loans have been started by this contract."
      }
    },
    "notice": "This contract is in charge of coordinating the creation, disctubution and desctruction of the SmartNfts related to a loan, the Promossory Note and Obligaiton Receipt.",
    "version": 1
  },
  "storageLayout": {
    "storage": [
      {
        "astId": 20389,
        "contract": "contracts/loans/direct/DirectLoanCoordinator.sol:DirectLoanCoordinator",
        "label": "_owner",
        "offset": 0,
        "slot": "0",
        "type": "t_address"
      },
      {
        "astId": 20391,
        "contract": "contracts/loans/direct/DirectLoanCoordinator.sol:DirectLoanCoordinator",
        "label": "_ownerCandidate",
        "offset": 0,
        "slot": "1",
        "type": "t_address"
      },
      {
        "astId": 9536,
        "contract": "contracts/loans/direct/DirectLoanCoordinator.sol:DirectLoanCoordinator",
        "label": "typeContracts",
        "offset": 0,
        "slot": "2",
        "type": "t_mapping(t_bytes32,t_address)"
      },
      {
        "astId": 9541,
        "contract": "contracts/loans/direct/DirectLoanCoordinator.sol:DirectLoanCoordinator",
        "label": "contractTypes",
        "offset": 0,
        "slot": "3",
        "type": "t_mapping(t_address,t_bytes32)"
      },
      {
        "astId": 9545,
        "contract": "contracts/loans/direct/DirectLoanCoordinator.sol:DirectLoanCoordinator",
        "label": "totalNumLoans",
        "offset": 0,
        "slot": "4",
        "type": "t_uint32"
      },
      {
        "astId": 9548,
        "contract": "contracts/loans/direct/DirectLoanCoordinator.sol:DirectLoanCoordinator",
        "label": "smartNftIdCounter",
        "offset": 4,
        "slot": "4",
        "type": "t_uint32"
      },
      {
        "astId": 9553,
        "contract": "contracts/loans/direct/DirectLoanCoordinator.sol:DirectLoanCoordinator",
        "label": "_initialized",
        "offset": 8,
        "slot": "4",
        "type": "t_bool"
      },
      {
        "astId": 9558,
        "contract": "contracts/loans/direct/DirectLoanCoordinator.sol:DirectLoanCoordinator",
        "label": "loans",
        "offset": 0,
        "slot": "5",
        "type": "t_mapping(t_uint32,t_struct(Loan)8927_storage)"
      },
      {
        "astId": 9561,
        "contract": "contracts/loans/direct/DirectLoanCoordinator.sol:DirectLoanCoordinator",
        "label": "promissoryNoteToken",
        "offset": 0,
        "slot": "6",
        "type": "t_address"
      },
      {
        "astId": 9564,
        "contract": "contracts/loans/direct/DirectLoanCoordinator.sol:DirectLoanCoordinator",
        "label": "obligationReceiptToken",
        "offset": 0,
        "slot": "7",
        "type": "t_address"
      }
    ],
    "types": {
      "t_address": {
        "encoding": "inplace",
        "label": "address",
        "numberOfBytes": "20"
      },
      "t_bool": {
        "encoding": "inplace",
        "label": "bool",
        "numberOfBytes": "1"
      },
      "t_bytes32": {
        "encoding": "inplace",
        "label": "bytes32",
        "numberOfBytes": "32"
      },
      "t_enum(StatusType)8919": {
        "encoding": "inplace",
        "label": "enum IDirectLoanCoordinator.StatusType",
        "numberOfBytes": "1"
      },
      "t_mapping(t_address,t_bytes32)": {
        "encoding": "mapping",
        "key": "t_address",
        "label": "mapping(address => bytes32)",
        "numberOfBytes": "32",
        "value": "t_bytes32"
      },
      "t_mapping(t_bytes32,t_address)": {
        "encoding": "mapping",
        "key": "t_bytes32",
        "label": "mapping(bytes32 => address)",
        "numberOfBytes": "32",
        "value": "t_address"
      },
      "t_mapping(t_uint32,t_struct(Loan)8927_storage)": {
        "encoding": "mapping",
        "key": "t_uint32",
        "label": "mapping(uint32 => struct IDirectLoanCoordinator.Loan)",
        "numberOfBytes": "32",
        "value": "t_struct(Loan)8927_storage"
      },
      "t_struct(Loan)8927_storage": {
        "encoding": "inplace",
        "label": "struct IDirectLoanCoordinator.Loan",
        "members": [
          {
            "astId": 8921,
            "contract": "contracts/loans/direct/DirectLoanCoordinator.sol:DirectLoanCoordinator",
            "label": "loanContract",
            "offset": 0,
            "slot": "0",
            "type": "t_address"
          },
          {
            "astId": 8923,
            "contract": "contracts/loans/direct/DirectLoanCoordinator.sol:DirectLoanCoordinator",
            "label": "smartNftId",
            "offset": 20,
            "slot": "0",
            "type": "t_uint64"
          },
          {
            "astId": 8926,
            "contract": "contracts/loans/direct/DirectLoanCoordinator.sol:DirectLoanCoordinator",
            "label": "status",
            "offset": 28,
            "slot": "0",
            "type": "t_enum(StatusType)8919"
          }
        ],
        "numberOfBytes": "32"
      },
      "t_uint32": {
        "encoding": "inplace",
        "label": "uint32",
        "numberOfBytes": "4"
      },
      "t_uint64": {
        "encoding": "inplace",
        "label": "uint64",
        "numberOfBytes": "8"
      }
    }
  }
}