{
  "address": "0xB2C2fCe38a0B7A89aB51F046B7052892Ba55EB2B",
  "abi": [
    {
      "inputs": [
        {
          "internalType": "address",
          "name": "_owner",
          "type": "address"
        },
        {
          "internalType": "address",
          "name": "_nftContract",
          "type": "address"
        },
        {
          "internalType": "uint256",
          "name": "_tokenId",
          "type": "uint256"
        }
      ],
      "name": "isOwner",
      "outputs": [
        {
          "internalType": "bool",
          "name": "",
          "type": "bool"
        }
      ],
      "stateMutability": "view",
      "type": "function"
    },
    {
      "inputs": [
        {
          "internalType": "address",
          "name": "_sender",
          "type": "address"
        },
        {
          "internalType": "address",
          "name": "_recipient",
          "type": "address"
        },
        {
          "internalType": "address",
          "name": "_nftContract",
          "type": "address"
        },
        {
          "internalType": "uint256",
          "name": "_nftId",
          "type": "uint256"
        }
      ],
      "name": "transferNFT",
      "outputs": [
        {
          "internalType": "bool",
          "name": "",
          "type": "bool"
        }
      ],
      "stateMutability": "nonpayable",
      "type": "function"
    },
    {
      "inputs": [
        {
          "internalType": "address",
          "name": "_recipient",
          "type": "address"
        },
        {
          "internalType": "address",
          "name": "_nftContract",
          "type": "address"
        },
        {
          "internalType": "uint256",
          "name": "_nftId",
          "type": "uint256"
        },
        {
          "internalType": "address",
          "name": "_beneficiary",
          "type": "address"
        }
      ],
      "name": "wrapAirdropReceiver",
      "outputs": [
        {
          "internalType": "bool",
          "name": "",
          "type": "bool"
        }
      ],
      "stateMutability": "nonpayable",
      "type": "function"
    }
  ],
  "transactionHash": "0x610c36ec6ed998d306d3a1b1df537c68133a53b5062399deea7048d7e6797d58",
  "args": [],
  "numDeployments": 1,
  "solcInputHash": "e960dbb71492b307ed8580de393cc147",
  "bytecode": "0x608060405234801561001057600080fd5b506103ab806100206000396000f3fe608060405234801561001057600080fd5b50600436106100415760003560e01c8063b030667114610046578063c7783aaa1461006d578063f370e8c514610080575b600080fd5b61005961005436600461022e565b610093565b604051901515815260200160405180910390f35b61005961007b3660046102be565b61010d565b61005961008e36600461027e565b61016f565b604051632142170760e11b81526001600160a01b038581166004830152848116602483015260448201839052600091908416906342842e0e906064015b600060405180830381600087803b1580156100ea57600080fd5b505af11580156100fe573d6000803e3d6000fd5b50600198975050505050505050565b6000836001600160a01b031663b88d4fde3087868660405160200161014191906001600160a01b0391909116815260200190565b6040516020818303038152906040526040518563ffffffff1660e01b81526004016100d09493929190610310565b6000836001600160a01b0316836001600160a01b0316636352211e846040518263ffffffff1660e01b81526004016101a991815260200190565b60206040518083038186803b1580156101c157600080fd5b505afa1580156101d5573d6000803e3d6000fd5b505050506040513d601f19601f820116820180604052508101906101f9919061020b565b6001600160a01b031614949350505050565b60006020828403121561021c578081fd5b815161022781610386565b9392505050565b60008060008060808587031215610243578283fd5b843561024e81610386565b9350602085013561025e81610386565b9250604085013561026e81610386565b9396929550929360600135925050565b600080600060608486031215610292578283fd5b833561029d81610386565b925060208401356102ad81610386565b929592945050506040919091013590565b600080600080608085870312156102d3578384fd5b84356102de81610386565b935060208501356102ee81610386565b925060408501359150606085013561030581610386565b939692955090935050565b600060018060a01b0380871683526020818716818501528560408501526080606085015284519150816080850152825b8281101561035c5785810182015185820160a001528101610340565b8281111561036d578360a084870101525b5050601f01601f19169190910160a00195945050505050565b6001600160a01b038116811461039b57600080fd5b5056fea164736f6c6343000804000a",
  "devdoc": {
    "author": "NFTfi",
    "details": "Provides logic to transfer ERC721",
    "kind": "dev",
    "methods": {
      "transferNFT(address,address,address,uint256)": {
        "details": "Transfers ERC721 `_nftId` handled by the contract `_nftContract` from `_sender` to `_recipient`",
        "params": {
          "_nftContract": "- ERC721 contract",
          "_nftId": "- ERC721 id",
          "_recipient": "- The new owner of the ERC721",
          "_sender": "- The current owner of the ERC721"
        },
        "returns": {
          "_0": "true if successfully transferred, false otherwise"
        }
      }
    },
    "title": "ERC721Wrapper",
    "version": 1
  },
  "userdoc": {
    "kind": "user",
    "methods": {},
    "version": 1
  },
  "storageLayout": {
    "storage": [],
    "types": null
  }
}