{
  "address": "0xf4CB058AB8f253C6085839bF87d7B369B90D7A44",
  "abi": [
    {
      "inputs": [
        {
          "internalType": "address",
          "name": "_owner",
          "type": "address"
        },
        {
          "internalType": "address",
          "name": "_nftContract",
          "type": "address"
        },
        {
          "internalType": "uint256",
          "name": "_tokenId",
          "type": "uint256"
        }
      ],
      "name": "isOwner",
      "outputs": [
        {
          "internalType": "bool",
          "name": "",
          "type": "bool"
        }
      ],
      "stateMutability": "view",
      "type": "function"
    },
    {
      "inputs": [
        {
          "internalType": "address",
          "name": "_sender",
          "type": "address"
        },
        {
          "internalType": "address",
          "name": "_recipient",
          "type": "address"
        },
        {
          "internalType": "address",
          "name": "_nftContract",
          "type": "address"
        },
        {
          "internalType": "uint256",
          "name": "_nftId",
          "type": "uint256"
        }
      ],
      "name": "transferNFT",
      "outputs": [
        {
          "internalType": "bool",
          "name": "",
          "type": "bool"
        }
      ],
      "stateMutability": "nonpayable",
      "type": "function"
    }
  ],
  "transactionHash": "0xc830796da7bfff8012d861049c89ca2a3bda99ebcac9315b600b216279e077ee",
  "args": [],
  "numDeployments": 1,
  "solcInputHash": "103c7252f85cc80233118bf16e4e3c05",
  "bytecode": "0x608060405234801561001057600080fd5b50610317806100206000396000f3fe608060405234801561001057600080fd5b50600436106100365760003560e01c8063b03066711461003b578063f370e8c514610062575b600080fd5b61004e610049366004610254565b610075565b604051901515815260200160405180910390f35b61004e6100703660046102a5565b6101af565b60006001600160a01b03851630036100ee576040516322dca8bb60e21b81526001600160a01b03858116600483015260248201849052841690638b72a2ec90604401600060405180830381600087803b1580156100d157600080fd5b505af11580156100e5573d6000803e3d6000fd5b505050506101a4565b6100f98584846101af565b6101495760405162461bcd60e51b815260206004820181905260248201527f50756e6b577261707065723a73656e646572206d757374206265206f776e6572604482015260640160405180910390fd5b60405163104c9fd360e31b8152600481018390526001600160a01b03841690638264fe9890602401600060405180830381600087803b15801561018b57600080fd5b505af115801561019f573d6000803e3d6000fd5b505050505b506001949350505050565b6000836001600160a01b0316836001600160a01b03166358178168846040518263ffffffff1660e01b81526004016101e991815260200190565b602060405180830381865afa158015610206573d6000803e3d6000fd5b505050506040513d601f19601f8201168201806040525081019061022a91906102e6565b6001600160a01b031614949350505050565b6001600160a01b038116811461025157600080fd5b50565b6000806000806080858703121561026a57600080fd5b84356102758161023c565b935060208501356102858161023c565b925060408501356102958161023c565b9396929550929360600135925050565b6000806000606084860312156102ba57600080fd5b83356102c58161023c565b925060208401356102d58161023c565b929592945050506040919091013590565b6000602082840312156102f857600080fd5b81516103038161023c565b939250505056fea164736f6c6343000813000a",
  "devdoc": {
    "author": "NFTfi",
    "details": "Provides logic to transfer Punks",
    "kind": "dev",
    "methods": {
      "transferNFT(address,address,address,uint256)": {
        "details": "Transfers Punk `_nftId` handled by the contract `_nftContract` from `_sender` to `_recipient`",
        "params": {
          "_nftContract": "- Punk contract",
          "_nftId": "- Punk id",
          "_recipient": "- The new owner of the Punk",
          "_sender": "- The current owner of the Punk"
        },
        "returns": {
          "_0": "true if successfully transferred, false otherwise"
        }
      }
    },
    "title": "PunkWrapper",
    "version": 1
  },
  "userdoc": {
    "kind": "user",
    "methods": {},
    "version": 1
  },
  "storageLayout": {
    "storage": [],
    "types": null
  }
}