{
  "address": "0x3f4Cc2848bC51ef6EbDba503847D007f823E5a78",
  "abi": [
    {
      "inputs": [
        {
          "internalType": "address",
          "name": "_nftfiHub",
          "type": "address"
        }
      ],
      "stateMutability": "nonpayable",
      "type": "constructor"
    },
    {
      "anonymous": false,
      "inputs": [
        {
          "indexed": true,
          "internalType": "address",
          "name": "owner",
          "type": "address"
        },
        {
          "indexed": true,
          "internalType": "address",
          "name": "approved",
          "type": "address"
        },
        {
          "indexed": true,
          "internalType": "uint256",
          "name": "tokenId",
          "type": "uint256"
        }
      ],
      "name": "Approval",
      "type": "event"
    },
    {
      "anonymous": false,
      "inputs": [
        {
          "indexed": true,
          "internalType": "address",
          "name": "owner",
          "type": "address"
        },
        {
          "indexed": true,
          "internalType": "address",
          "name": "operator",
          "type": "address"
        },
        {
          "indexed": false,
          "internalType": "bool",
          "name": "approved",
          "type": "bool"
        }
      ],
      "name": "ApprovalForAll",
      "type": "event"
    },
    {
      "anonymous": false,
      "inputs": [
        {
          "indexed": true,
          "internalType": "uint256",
          "name": "tokenId",
          "type": "uint256"
        }
      ],
      "name": "Initialized",
      "type": "event"
    },
    {
      "anonymous": false,
      "inputs": [
        {
          "indexed": true,
          "internalType": "address",
          "name": "nftCollateralContract",
          "type": "address"
        },
        {
          "indexed": true,
          "internalType": "uint256",
          "name": "nftCollateralId",
          "type": "uint256"
        },
        {
          "indexed": true,
          "internalType": "address",
          "name": "to",
          "type": "address"
        },
        {
          "indexed": false,
          "internalType": "address",
          "name": "owner",
          "type": "address"
        }
      ],
      "name": "NftUnwrapped",
      "type": "event"
    },
    {
      "anonymous": false,
      "inputs": [
        {
          "indexed": true,
          "internalType": "address",
          "name": "nftCollateralContract",
          "type": "address"
        },
        {
          "indexed": true,
          "internalType": "uint256",
          "name": "nftCollateralId",
          "type": "uint256"
        },
        {
          "indexed": true,
          "internalType": "address",
          "name": "from",
          "type": "address"
        },
        {
          "indexed": false,
          "internalType": "address",
          "name": "beneficiary",
          "type": "address"
        },
        {
          "indexed": false,
          "internalType": "address",
          "name": "owner",
          "type": "address"
        }
      ],
      "name": "NftWrapped",
      "type": "event"
    },
    {
      "anonymous": false,
      "inputs": [
        {
          "indexed": true,
          "internalType": "address",
          "name": "from",
          "type": "address"
        },
        {
          "indexed": true,
          "internalType": "address",
          "name": "to",
          "type": "address"
        },
        {
          "indexed": true,
          "internalType": "uint256",
          "name": "tokenId",
          "type": "uint256"
        }
      ],
      "name": "Transfer",
      "type": "event"
    },
    {
      "inputs": [
        {
          "internalType": "address",
          "name": "to",
          "type": "address"
        },
        {
          "internalType": "uint256",
          "name": "tokenId",
          "type": "uint256"
        }
      ],
      "name": "approve",
      "outputs": [],
      "stateMutability": "nonpayable",
      "type": "function"
    },
    {
      "inputs": [
        {
          "internalType": "address",
          "name": "owner",
          "type": "address"
        }
      ],
      "name": "balanceOf",
      "outputs": [
        {
          "internalType": "uint256",
          "name": "",
          "type": "uint256"
        }
      ],
      "stateMutability": "view",
      "type": "function"
    },
    {
      "inputs": [],
      "name": "beneficiary",
      "outputs": [
        {
          "internalType": "address",
          "name": "",
          "type": "address"
        }
      ],
      "stateMutability": "view",
      "type": "function"
    },
    {
      "inputs": [
        {
          "internalType": "address",
          "name": "tokenAddress",
          "type": "address"
        },
        {
          "internalType": "uint256",
          "name": "tokenId",
          "type": "uint256"
        },
        {
          "internalType": "address",
          "name": "receiver",
          "type": "address"
        }
      ],
      "name": "drainERC1155Airdrop",
      "outputs": [],
      "stateMutability": "nonpayable",
      "type": "function"
    },
    {
      "inputs": [
        {
          "internalType": "address",
          "name": "tokenAddress",
          "type": "address"
        },
        {
          "internalType": "address",
          "name": "receiver",
          "type": "address"
        }
      ],
      "name": "drainERC20Airdrop",
      "outputs": [],
      "stateMutability": "nonpayable",
      "type": "function"
    },
    {
      "inputs": [
        {
          "internalType": "address",
          "name": "tokenAddress",
          "type": "address"
        },
        {
          "internalType": "uint256",
          "name": "tokenId",
          "type": "uint256"
        },
        {
          "internalType": "address",
          "name": "receiver",
          "type": "address"
        }
      ],
      "name": "drainERC721Airdrop",
      "outputs": [],
      "stateMutability": "nonpayable",
      "type": "function"
    },
    {
      "inputs": [
        {
          "internalType": "uint256",
          "name": "tokenId",
          "type": "uint256"
        }
      ],
      "name": "getApproved",
      "outputs": [
        {
          "internalType": "address",
          "name": "",
          "type": "address"
        }
      ],
      "stateMutability": "view",
      "type": "function"
    },
    {
      "inputs": [],
      "name": "getTokenId",
      "outputs": [
        {
          "internalType": "uint256",
          "name": "",
          "type": "uint256"
        }
      ],
      "stateMutability": "view",
      "type": "function"
    },
    {
      "inputs": [],
      "name": "hub",
      "outputs": [
        {
          "internalType": "contract INftfiHub",
          "name": "",
          "type": "address"
        }
      ],
      "stateMutability": "view",
      "type": "function"
    },
    {
      "inputs": [
        {
          "internalType": "address",
          "name": "_to",
          "type": "address"
        }
      ],
      "name": "initialize",
      "outputs": [
        {
          "internalType": "uint256",
          "name": "",
          "type": "uint256"
        }
      ],
      "stateMutability": "nonpayable",
      "type": "function"
    },
    {
      "inputs": [
        {
          "internalType": "address",
          "name": "owner",
          "type": "address"
        },
        {
          "internalType": "address",
          "name": "operator",
          "type": "address"
        }
      ],
      "name": "isApprovedForAll",
      "outputs": [
        {
          "internalType": "bool",
          "name": "",
          "type": "bool"
        }
      ],
      "stateMutability": "view",
      "type": "function"
    },
    {
      "inputs": [],
      "name": "name",
      "outputs": [
        {
          "internalType": "string",
          "name": "",
          "type": "string"
        }
      ],
      "stateMutability": "view",
      "type": "function"
    },
    {
      "inputs": [],
      "name": "nftTransferWrapper",
      "outputs": [
        {
          "internalType": "address",
          "name": "",
          "type": "address"
        }
      ],
      "stateMutability": "view",
      "type": "function"
    },
    {
      "inputs": [
        {
          "internalType": "address",
          "name": "",
          "type": "address"
        },
        {
          "internalType": "address",
          "name": "_from",
          "type": "address"
        },
        {
          "internalType": "uint256[]",
          "name": "_ids",
          "type": "uint256[]"
        },
        {
          "internalType": "uint256[]",
          "name": "",
          "type": "uint256[]"
        },
        {
          "internalType": "bytes",
          "name": "_data",
          "type": "bytes"
        }
      ],
      "name": "onERC1155BatchReceived",
      "outputs": [
        {
          "internalType": "bytes4",
          "name": "",
          "type": "bytes4"
        }
      ],
      "stateMutability": "nonpayable",
      "type": "function"
    },
    {
      "inputs": [
        {
          "internalType": "address",
          "name": "",
          "type": "address"
        },
        {
          "internalType": "address",
          "name": "_from",
          "type": "address"
        },
        {
          "internalType": "uint256",
          "name": "_id",
          "type": "uint256"
        },
        {
          "internalType": "uint256",
          "name": "",
          "type": "uint256"
        },
        {
          "internalType": "bytes",
          "name": "_data",
          "type": "bytes"
        }
      ],
      "name": "onERC1155Received",
      "outputs": [
        {
          "internalType": "bytes4",
          "name": "",
          "type": "bytes4"
        }
      ],
      "stateMutability": "nonpayable",
      "type": "function"
    },
    {
      "inputs": [
        {
          "internalType": "address",
          "name": "",
          "type": "address"
        },
        {
          "internalType": "address",
          "name": "_from",
          "type": "address"
        },
        {
          "internalType": "uint256",
          "name": "_tokenId",
          "type": "uint256"
        },
        {
          "internalType": "bytes",
          "name": "_data",
          "type": "bytes"
        }
      ],
      "name": "onERC721Received",
      "outputs": [
        {
          "internalType": "bytes4",
          "name": "",
          "type": "bytes4"
        }
      ],
      "stateMutability": "nonpayable",
      "type": "function"
    },
    {
      "inputs": [
        {
          "internalType": "uint256",
          "name": "tokenId",
          "type": "uint256"
        }
      ],
      "name": "ownerOf",
      "outputs": [
        {
          "internalType": "address",
          "name": "",
          "type": "address"
        }
      ],
      "stateMutability": "view",
      "type": "function"
    },
    {
      "inputs": [
        {
          "internalType": "address",
          "name": "_target",
          "type": "address"
        },
        {
          "internalType": "bytes",
          "name": "_data",
          "type": "bytes"
        }
      ],
      "name": "pullAirdrop",
      "outputs": [],
      "stateMutability": "nonpayable",
      "type": "function"
    },
    {
      "inputs": [
        {
          "internalType": "address",
          "name": "from",
          "type": "address"
        },
        {
          "internalType": "address",
          "name": "to",
          "type": "address"
        },
        {
          "internalType": "uint256",
          "name": "tokenId",
          "type": "uint256"
        }
      ],
      "name": "safeTransferFrom",
      "outputs": [],
      "stateMutability": "nonpayable",
      "type": "function"
    },
    {
      "inputs": [
        {
          "internalType": "address",
          "name": "from",
          "type": "address"
        },
        {
          "internalType": "address",
          "name": "to",
          "type": "address"
        },
        {
          "internalType": "uint256",
          "name": "tokenId",
          "type": "uint256"
        },
        {
          "internalType": "bytes",
          "name": "_data",
          "type": "bytes"
        }
      ],
      "name": "safeTransferFrom",
      "outputs": [],
      "stateMutability": "nonpayable",
      "type": "function"
    },
    {
      "inputs": [
        {
          "internalType": "address",
          "name": "operator",
          "type": "address"
        },
        {
          "internalType": "bool",
          "name": "approved",
          "type": "bool"
        }
      ],
      "name": "setApprovalForAll",
      "outputs": [],
      "stateMutability": "nonpayable",
      "type": "function"
    },
    {
      "inputs": [
        {
          "internalType": "bytes4",
          "name": "_interfaceId",
          "type": "bytes4"
        }
      ],
      "name": "supportsInterface",
      "outputs": [
        {
          "internalType": "bool",
          "name": "",
          "type": "bool"
        }
      ],
      "stateMutability": "view",
      "type": "function"
    },
    {
      "inputs": [],
      "name": "symbol",
      "outputs": [
        {
          "internalType": "string",
          "name": "",
          "type": "string"
        }
      ],
      "stateMutability": "view",
      "type": "function"
    },
    {
      "inputs": [
        {
          "internalType": "uint256",
          "name": "index",
          "type": "uint256"
        }
      ],
      "name": "tokenByIndex",
      "outputs": [
        {
          "internalType": "uint256",
          "name": "",
          "type": "uint256"
        }
      ],
      "stateMutability": "view",
      "type": "function"
    },
    {
      "inputs": [
        {
          "internalType": "address",
          "name": "owner",
          "type": "address"
        },
        {
          "internalType": "uint256",
          "name": "index",
          "type": "uint256"
        }
      ],
      "name": "tokenOfOwnerByIndex",
      "outputs": [
        {
          "internalType": "uint256",
          "name": "",
          "type": "uint256"
        }
      ],
      "stateMutability": "view",
      "type": "function"
    },
    {
      "inputs": [
        {
          "internalType": "uint256",
          "name": "tokenId",
          "type": "uint256"
        }
      ],
      "name": "tokenURI",
      "outputs": [
        {
          "internalType": "string",
          "name": "",
          "type": "string"
        }
      ],
      "stateMutability": "view",
      "type": "function"
    },
    {
      "inputs": [],
      "name": "totalSupply",
      "outputs": [
        {
          "internalType": "uint256",
          "name": "",
          "type": "uint256"
        }
      ],
      "stateMutability": "view",
      "type": "function"
    },
    {
      "inputs": [
        {
          "internalType": "address",
          "name": "from",
          "type": "address"
        },
        {
          "internalType": "address",
          "name": "to",
          "type": "address"
        },
        {
          "internalType": "uint256",
          "name": "tokenId",
          "type": "uint256"
        }
      ],
      "name": "transferFrom",
      "outputs": [],
      "stateMutability": "nonpayable",
      "type": "function"
    },
    {
      "inputs": [
        {
          "internalType": "address",
          "name": "_receiver",
          "type": "address"
        }
      ],
      "name": "unwrap",
      "outputs": [],
      "stateMutability": "nonpayable",
      "type": "function"
    },
    {
      "inputs": [
        {
          "internalType": "address",
          "name": "_from",
          "type": "address"
        },
        {
          "internalType": "address",
          "name": "_beneficiary",
          "type": "address"
        },
        {
          "internalType": "address",
          "name": "_nftCollateralContract",
          "type": "address"
        },
        {
          "internalType": "uint256",
          "name": "_nftCollateralId",
          "type": "uint256"
        }
      ],
      "name": "wrap",
      "outputs": [],
      "stateMutability": "nonpayable",
      "type": "function"
    },
    {
      "inputs": [],
      "name": "wrappedNft",
      "outputs": [
        {
          "internalType": "address",
          "name": "",
          "type": "address"
        }
      ],
      "stateMutability": "view",
      "type": "function"
    },
    {
      "inputs": [],
      "name": "wrappedNftId",
      "outputs": [
        {
          "internalType": "uint256",
          "name": "",
          "type": "uint256"
        }
      ],
      "stateMutability": "view",
      "type": "function"
    }
  ],
  "transactionHash": "0x36093057bf96bf01753f979e28cf621a8bdb01488e23231fe51177a2026a3706",
  "args": [
    "0xd99b8075Cb583FdE8F60A2C3aC84eE37c701a578"
  ],
  "numDeployments": 1,
  "solcInputHash": "e960dbb71492b307ed8580de393cc147",
  "bytecode": "0x60a06040523480156200001157600080fd5b5060405162003d7138038062003d7183398101604081905262000034916200083a565b604080516020808201808452600080845284519283019094528382528251929391926200006392919062000794565b5080516200007990600190602084019062000794565b50506001600b55506001600160601b0319606082901b16608052620000dc33620000d66040516001600160601b03193060601b1660208201526000906034016040516020818303038152906040528051906020012060001c905090565b620000e3565b5062000995565b620001058282604051806020016040528060008152506200010960201b60201c565b5050565b62000115838362000185565b620001246000848484620002db565b620001805760405162461bcd60e51b8152602060048201526032602482015260008051602062003d5183398151915260448201527131b2b4bb32b91034b6b83632b6b2b73a32b960711b60648201526084015b60405180910390fd5b505050565b6001600160a01b038216620001dd5760405162461bcd60e51b815260206004820181905260248201527f4552433732313a206d696e7420746f20746865207a65726f2061646472657373604482015260640162000177565b6000818152600260205260409020546001600160a01b031615620002445760405162461bcd60e51b815260206004820152601c60248201527f4552433732313a20746f6b656e20616c7265616479206d696e74656400000000604482015260640162000177565b620002526000838362000444565b6001600160a01b03821660009081526003602052604081208054600192906200027d9084906200090d565b909155505060008181526002602052604080822080546001600160a01b0319166001600160a01b03861690811790915590518392907fddf252ad1be2c89b69c2b068fc378daa952ba7f163c4a11628f55a4df523b3ef908290a45050565b6000620002fc846001600160a01b03166200052060201b620019141760201c565b156200043857604051630a85bd0160e11b81526001600160a01b0385169063150b7a02906200033690339089908890889060040162000894565b602060405180830381600087803b1580156200035157600080fd5b505af192505050801562000384575060408051601f3d908101601f1916820190925262000381918101906200086a565b60015b6200041d573d808015620003b5576040519150601f19603f3d011682016040523d82523d6000602084013e620003ba565b606091505b508051620004155760405162461bcd60e51b8152602060048201526032602482015260008051602062003d5183398151915260448201527131b2b4bb32b91034b6b83632b6b2b73a32b960711b606482015260840162000177565b805181602001fd5b6001600160e01b031916630a85bd0160e11b1490506200043c565b5060015b949350505050565b6200045c8383836200018060201b620007f81760201c565b6001600160a01b038316620004ba57620004b481600880546000838152600960205260408120829055600182018355919091527ff3f7a9fe364faab93b216da50a3214154f22a0a2b415b23a84c8169e8b636ee30155565b620004e0565b816001600160a01b0316836001600160a01b031614620004e057620004e083826200052f565b6001600160a01b038216620004fa576200018081620005dc565b826001600160a01b0316826001600160a01b0316146200018057620001808282620006ba565b6001600160a01b03163b151590565b6000600162000549846200070b60201b62000e541760201c565b62000555919062000928565b600083815260076020526040902054909150808214620005a9576001600160a01b03841660009081526006602090815260408083208584528252808320548484528184208190558352600790915290208190555b5060009182526007602090815260408084208490556001600160a01b039094168352600681528383209183525290812055565b600854600090620005f09060019062000928565b600083815260096020526040812054600880549394509092849081106200062757634e487b7160e01b600052603260045260246000fd5b9060005260206000200154905080600883815481106200065757634e487b7160e01b600052603260045260246000fd5b60009182526020808320909101929092558281526009909152604080822084905585825281205560088054806200069e57634e487b7160e01b600052603160045260246000fd5b6001900381819060005260206000200160009055905550505050565b6000620006d2836200070b60201b62000e541760201c565b6001600160a01b039093166000908152600660209081526040808320868452825280832085905593825260079052919091209190915550565b60006001600160a01b038216620007785760405162461bcd60e51b815260206004820152602a60248201527f4552433732313a2062616c616e636520717565727920666f7220746865207a65604482015269726f206164647265737360b01b606482015260840162000177565b506001600160a01b031660009081526003602052604090205490565b828054620007a29062000942565b90600052602060002090601f016020900481019282620007c6576000855562000811565b82601f10620007e157805160ff191683800117855562000811565b8280016001018555821562000811579182015b8281111562000811578251825591602001919060010190620007f4565b506200081f92915062000823565b5090565b5b808211156200081f576000815560010162000824565b6000602082840312156200084c578081fd5b81516001600160a01b038116811462000863578182fd5b9392505050565b6000602082840312156200087c578081fd5b81516001600160e01b03198116811462000863578182fd5b600060018060a01b0380871683526020818716818501528560408501526080606085015284519150816080850152825b82811015620008e25785810182015185820160a001528101620008c4565b82811115620008f4578360a084870101525b5050601f01601f19169190910160a00195945050505050565b600082198211156200092357620009236200097f565b500190565b6000828210156200093d576200093d6200097f565b500390565b600181811c908216806200095757607f821691505b602082108114156200097957634e487b7160e01b600052602260045260246000fd5b50919050565b634e487b7160e01b600052601160045260246000fd5b60805160601c613388620009c9600039600081816102d8015281816108c20152818161116f0152611a9401526133886000f3fe608060405234801561001057600080fd5b50600436106101af5760003560e01c80635163a1c3116100ef578063ac4e35ea11610092578063ac4e35ea146103b6578063b88d4fde146103c9578063bb7132a4146103dc578063bc197c81146103ef578063c4d66de814610402578063c87b56dd14610415578063e985e9c514610428578063f23a6e611461043b57600080fd5b80635163a1c3146103335780636352211e1461034657806370a082311461035957806375f26e631461036c5780637afe6e311461037f57806395d89b4114610388578063a1571a5714610390578063a22cb465146103a357600080fd5b8063150b7a0211610157578063150b7a021461027957806318160ddd146102a557806323b872dd146102ad5780632f745c59146102c0578063365a86fc146102d357806338af3eed146102fa57806342842e0e1461030d5780634f6ccce71461032057600080fd5b8062f73663146101b4578063010a38f5146101dd57806301ffc9a7146101f357806305b406cf1461021657806306fdde031461022b578063081812fc14610240578063095ea7b31461025357806312fc775814610266575b600080fd5b600e546101c7906001600160a01b031681565b6040516101d49190613023565b60405180910390f35b6101e561044e565b6040519081526020016101d4565b610206610201366004612f44565b61048d565b60405190151581526020016101d4565b610229610224366004612afa565b6104b8565b005b6102336105d2565b6040516101d4919061306a565b6101c761024e366004612f7c565b610664565b610229610261366004612ebc565b6106ec565b610229610274366004612e6a565b6107fd565b61028c610287366004612c7c565b610ac7565b6040516001600160e01b031990911681526020016101d4565b6008546101e5565b6102296102bb366004612c3c565b610b7b565b6101e56102ce366004612ebc565b610bac565b6101c77f000000000000000000000000000000000000000000000000000000000000000081565b600d546101c7906001600160a01b031681565b61022961031b366004612c3c565b610c42565b6101e561032e366004612f7c565b610c5d565b610229610341366004612ee7565b610cfe565b6101c7610354366004612f7c565b610ddd565b6101e5610367366004612ac2565b610e54565b61022961037a366004612ac2565b610edb565b6101e5600f5481565b610233610ff3565b61022961039e366004612b32565b611002565b6102296103b1366004612e3d565b611311565b6102296103c4366004612ee7565b611320565b6102296103d7366004612cec565b6114d5565b600c546101c7906001600160a01b031681565b61028c6103fd366004612b82565b611507565b6101e5610410366004612ac2565b611626565b610233610423366004612f7c565b611759565b610206610436366004612afa565b611831565b61028c610449366004612dc4565b61185f565b6040516bffffffffffffffffffffffff193060601b1660208201526000906034016040516020818303038152906040528051906020012060001c905090565b60006001600160e01b03198216630a85bd0160e11b14806104b257506104b282611923565b92915050565b336104c461035461044e565b6001600160a01b0316146104f35760405162461bcd60e51b81526004016104ea9061307d565b60405180910390fd5b6040516370a0823160e01b815282906000906001600160a01b038316906370a0823190610524903090600401613023565b60206040518083038186803b15801561053c57600080fd5b505afa158015610550573d6000803e3d6000fd5b505050506040513d601f19601f820116820180604052508101906105749190612f94565b9050600081116105b85760405162461bcd60e51b815260206004820152600f60248201526e1b9bc81d1bdad95b9cc81bdddb9959608a1b60448201526064016104ea565b6105cc6001600160a01b0383168483611948565b50505050565b6060600080546105e190613275565b80601f016020809104026020016040519081016040528092919081815260200182805461060d90613275565b801561065a5780601f1061062f5761010080835404028352916020019161065a565b820191906000526020600020905b81548152906001019060200180831161063d57829003601f168201915b5050505050905090565b600061066f8261199a565b6106d05760405162461bcd60e51b815260206004820152602c60248201527f4552433732313a20617070726f76656420717565727920666f72206e6f6e657860448201526b34b9ba32b73a103a37b5b2b760a11b60648201526084016104ea565b506000908152600460205260409020546001600160a01b031690565b60006106f782610ddd565b9050806001600160a01b0316836001600160a01b031614156107655760405162461bcd60e51b815260206004820152602160248201527f4552433732313a20617070726f76616c20746f2063757272656e74206f776e656044820152603960f91b60648201526084016104ea565b336001600160a01b038216148061078157506107818133611831565b6107ee5760405162461bcd60e51b815260206004820152603860248201527f4552433732313a20617070726f76652063616c6c6572206973206e6f74206f776044820152771b995c881b9bdc88185c1c1c9bdd995908199bdc88185b1b60421b60648201526084016104ea565b6107f883836119b7565b505050565b6002600b5414156108205760405162461bcd60e51b81526004016104ea906131cf565b6002600b553361083161035461044e565b6001600160a01b031614806108505750600d546001600160a01b031633145b6108985760405162461bcd60e51b81526020600482015260196024820152784f6e6c79206f776e6572206f722062656e656669636961727960381b60448201526064016104ea565b604051631c2d8fb360e31b8152715045524d49545445445f41495244524f505360701b60048201527f00000000000000000000000000000000000000000000000000000000000000006001600160a01b03169063e16c7d989060240160206040518083038186803b15801561090c57600080fd5b505afa158015610920573d6000803e3d6000fd5b505050506040513d601f19601f820116820180604052508101906109449190612ade565b6001600160a01b031663bcef622e8461099285858080601f016020809104026020016040519081016040528093929190818152602001838380828437600092019190915250611a2592505050565b604080516001600160a01b0390931660208401526001600160e01b0319909116908201526060016040516020818303038152906040526040518263ffffffff1660e01b81526004016109e4919061306a565b60206040518083038186803b1580156109fc57600080fd5b505afa158015610a10573d6000803e3d6000fd5b505050506040513d601f19601f82011682018060405250810190610a349190612f28565b610a725760405162461bcd60e51b815260206004820152600f60248201526e0496e76616c69642041697264726f7608c1b60448201526064016104ea565b610abc82828080601f016020809104026020016040519081016040528093929190818152602001838380828437600092019190915250506001600160a01b03871692915050611a2c565b50506001600b555050565b6000846001600160a01b0316610ade61035461044e565b6001600160a01b0316148015610af7575060105460ff16155b15610b6957600e546001600160a01b031615610b255760405162461bcd60e51b81526004016104ea90613154565b6000610b3383850185612ac2565b90506001600160a01b038116610b5b5760405162461bcd60e51b81526004016104ea906130f3565b610b6786823388611a6e565b505b50630a85bd0160e11b95945050505050565b610b853382611c68565b610ba15760405162461bcd60e51b81526004016104ea9061317e565b6107f8838383611d32565b6000610bb783610e54565b8210610c195760405162461bcd60e51b815260206004820152602b60248201527f455243373231456e756d657261626c653a206f776e657220696e646578206f7560448201526a74206f6620626f756e647360a81b60648201526084016104ea565b506001600160a01b03919091166000908152600660209081526040808320938352929052205490565b6107f8838383604051806020016040528060008152506114d5565b6000610c6860085490565b8210610ccb5760405162461bcd60e51b815260206004820152602c60248201527f455243373231456e756d657261626c653a20676c6f62616c20696e646578206f60448201526b7574206f6620626f756e647360a01b60648201526084016104ea565b60088281548110610cec57634e487b7160e01b600052603260045260246000fd5b90600052602060002001549050919050565b33610d0a61035461044e565b6001600160a01b031614610d305760405162461bcd60e51b81526004016104ea9061307d565b600e546001600160a01b03848116911614801590610d505750600f548214155b610d6c5760405162461bcd60e51b81526004016104ea9061312a565b604051632142170760e11b81523060048201526001600160a01b038281166024830152604482018490528491908216906342842e0e90606401600060405180830381600087803b158015610dbf57600080fd5b505af1158015610dd3573d6000803e3d6000fd5b5050505050505050565b6000818152600260205260408120546001600160a01b0316806104b25760405162461bcd60e51b815260206004820152602960248201527f4552433732313a206f776e657220717565727920666f72206e6f6e657869737460448201526832b73a103a37b5b2b760b91b60648201526084016104ea565b60006001600160a01b038216610ebf5760405162461bcd60e51b815260206004820152602a60248201527f4552433732313a2062616c616e636520717565727920666f7220746865207a65604482015269726f206164647265737360b01b60648201526084016104ea565b506001600160a01b031660009081526003602052604090205490565b33610ee761035461044e565b6001600160a01b031614610f0d5760405162461bcd60e51b81526004016104ea9061307d565b600e546001600160a01b0316610f545760405162461bcd60e51b815260206004820152600c60248201526b6e6f74207772617070696e6760a01b60448201526064016104ea565b600c54600e54600f54610f7a926001600160a01b03908116923092869290911690611ed9565b600f54600e546040516001600160a01b03808516939216907fec4b1d2db955afdfa12c9cb9146cdcc2d05d33b366922acf6551273caf8e441890610fbf903390613023565b60405180910390a450600d80546001600160a01b0319908116909155600e8054821690556000600f55600c80549091169055565b6060600180546105e190613275565b3361100e61035461044e565b6001600160a01b0316146110345760405162461bcd60e51b81526004016104ea9061307d565b600e546001600160a01b03161561105d5760405162461bcd60e51b81526004016104ea90613154565b6001600160a01b0384166110aa5760405162461bcd60e51b815260206004820152601460248201527366726f6d206973207a65726f206164647265737360601b60448201526064016104ea565b6001600160a01b0383166110d05760405162461bcd60e51b81526004016104ea906130f3565b6001600160a01b0382166111345760405162461bcd60e51b815260206004820152602560248201527f6e6674436f6c6c61746572616c436f6e7472616374206973207a65726f206164604482015264647265737360d81b60648201526084016104ea565b6010805460ff19166001179055604051631c2d8fb360e31b81526d5045524d49545445445f4e46545360901b60048201526001600160a01b037f0000000000000000000000000000000000000000000000000000000000000000169063e16c7d989060240160206040518083038186803b1580156111b157600080fd5b505afa1580156111c5573d6000803e3d6000fd5b505050506040513d601f19601f820116820180604052508101906111e99190612ade565b6001600160a01b031663b8c8aff8836040518263ffffffff1660e01b81526004016112149190613023565b60206040518083038186803b15801561122c57600080fd5b505afa158015611240573d6000803e3d6000fd5b505050506040513d601f19601f820116820180604052508101906112649190612ade565b600c80546001600160a01b0319166001600160a01b039290921691821790556112909085308585611ed9565b600d80546001600160a01b038581166001600160a01b03199283168117909355600e8054868316931683179055600f84905560408051938452336020850152908716928492917fe3b36666ca4efda9647687b0c5638041770ba18816524b621b4e8995da29e1e4910160405180910390a450506010805460ff191690555050565b61131c338383611f67565b5050565b3361132c61035461044e565b6001600160a01b0316146113525760405162461bcd60e51b81526004016104ea9061307d565b600e546001600160a01b038481169116148015906113725750600f548214155b61138e5760405162461bcd60e51b81526004016104ea9061312a565b604051627eeac760e11b81523060048201526024810183905283906000906001600160a01b0383169062fdd58e9060440160206040518083038186803b1580156113d757600080fd5b505afa1580156113eb573d6000803e3d6000fd5b505050506040513d601f19601f8201168201806040525081019061140f9190612f94565b9050600081116114515760405162461bcd60e51b815260206004820152600d60248201526c1b9bc81b999d1cc81bdddb9959609a1b60448201526064016104ea565b604051637921219560e11b81523060048201526001600160a01b038481166024830152604482018690526064820183905260a06084830152600060a483015283169063f242432a9060c401600060405180830381600087803b1580156114b657600080fd5b505af11580156114ca573d6000803e3d6000fd5b505050505050505050565b6114df3383611c68565b6114fb5760405162461bcd60e51b81526004016104ea9061317e565b6105cc84848484612032565b6000876001600160a01b031661151e61035461044e565b6001600160a01b0316148015611537575060105460ff16155b1561161157600e546001600160a01b0316156115655760405162461bcd60e51b81526004016104ea90613154565b600186116115a65760405162461bcd60e51b815260206004820152600e60248201526d1bdb9b1e480c08185b1b1bddd95960921b60448201526064016104ea565b60006115b483850185612ac2565b90506001600160a01b0381166115dc5760405162461bcd60e51b81526004016104ea906130f3565b61160f8982338b8b600081811061160357634e487b7160e01b600052603260045260246000fd5b90506020020135611a6e565b505b5063bc197c8160e01b98975050505050505050565b600a54600090610100900460ff1661164457600a5460ff161561164c565b61164c612065565b6116af5760405162461bcd60e51b815260206004820152602e60248201527f496e697469616c697a61626c653a20636f6e747261637420697320616c72656160448201526d191e481a5b9a5d1a585b1a5e995960921b60648201526084016104ea565b600a54610100900460ff161580156116d157600a805461ffff19166101011790555b6002600b5414156116f45760405162461bcd60e51b81526004016104ea906131cf565b6002600b55600061170361044e565b905061170f8482612076565b60405181907fbe9b076dc5b65990cca9dd9d7366682482e7817a6f6bc7f4faf4dc32af497f3290600090a291506001600b55801561175357600a805461ff00191690555b50919050565b60606117648261199a565b6117c85760405162461bcd60e51b815260206004820152602f60248201527f4552433732314d657461646174613a2055524920717565727920666f72206e6f60448201526e3732bc34b9ba32b73a103a37b5b2b760891b60648201526084016104ea565b60006117df60408051602081019091526000815290565b905060008151116117ff576040518060200160405280600081525061182a565b8061180984612090565b60405160200161181a929190612ff4565b6040516020818303038152906040525b9392505050565b6001600160a01b03918216600090815260056020908152604080832093909416825291909152205460ff1690565b6000856001600160a01b031661187661035461044e565b6001600160a01b031614801561188f575060105460ff16155b1561190157600e546001600160a01b0316156118bd5760405162461bcd60e51b81526004016104ea90613154565b60006118cb83850185612ac2565b90506001600160a01b0381166118f35760405162461bcd60e51b81526004016104ea906130f3565b6118ff87823389611a6e565b505b5063f23a6e6160e01b9695505050505050565b6001600160a01b03163b151590565b60006001600160e01b03198216630271189760e51b14806104b257506104b2826121a9565b604080516001600160a01b038416602482015260448082018490528251808303909101815260649091019091526020810180516001600160e01b031663a9059cbb60e01b1790526107f89084906121ce565b6000908152600260205260409020546001600160a01b0316151590565b600081815260046020526040902080546001600160a01b0319166001600160a01b03841690811790915581906119ec82610ddd565b6001600160a01b03167f8c5be1e5ebec7d5bd14f71427d1e84f3dd0314c0f7b2291e5b200ac8c7c3b92560405160405180910390a45050565b6020015190565b606061182a83836040518060400160405280601e81526020017f416464726573733a206c6f772d6c6576656c2063616c6c206661696c656400008152506122a0565b604051631c2d8fb360e31b81526d5045524d49545445445f4e46545360901b60048201527f00000000000000000000000000000000000000000000000000000000000000006001600160a01b03169063e16c7d989060240160206040518083038186803b158015611ade57600080fd5b505afa158015611af2573d6000803e3d6000fd5b505050506040513d601f19601f82011682018060405250810190611b169190612ade565b6001600160a01b031663b8c8aff8836040518263ffffffff1660e01b8152600401611b419190613023565b60206040518083038186803b158015611b5957600080fd5b505afa158015611b6d573d6000803e3d6000fd5b505050506040513d601f19601f82011682018060405250810190611b919190612ade565b600c80546001600160a01b0319166001600160a01b03929092169182179055611bf05760405162461bcd60e51b815260206004820152601160248201527018999d081b9bdd081c195c9b5a5d1d1959607a1b60448201526064016104ea565b600d80546001600160a01b038581166001600160a01b03199283168117909355600e8054868316931683179055600f8490556040805193845290871660208401819052928492917fe3b36666ca4efda9647687b0c5638041770ba18816524b621b4e8995da29e1e4910160405180910390a450505050565b6000611c738261199a565b611cd45760405162461bcd60e51b815260206004820152602c60248201527f4552433732313a206f70657261746f7220717565727920666f72206e6f6e657860448201526b34b9ba32b73a103a37b5b2b760a11b60648201526084016104ea565b6000611cdf83610ddd565b9050806001600160a01b0316846001600160a01b03161480611d1a5750836001600160a01b0316611d0f84610664565b6001600160a01b0316145b80611d2a5750611d2a8185611831565b949350505050565b826001600160a01b0316611d4582610ddd565b6001600160a01b031614611da95760405162461bcd60e51b815260206004820152602560248201527f4552433732313a207472616e736665722066726f6d20696e636f72726563742060448201526437bbb732b960d91b60648201526084016104ea565b6001600160a01b038216611e0b5760405162461bcd60e51b8152602060048201526024808201527f4552433732313a207472616e7366657220746f20746865207a65726f206164646044820152637265737360e01b60648201526084016104ea565b611e168383836122af565b611e216000826119b7565b6001600160a01b0383166000908152600360205260408120805460019290611e4a908490613232565b90915550506001600160a01b0382166000908152600360205260408120805460019290611e78908490613206565b909155505060008181526002602052604080822080546001600160a01b0319166001600160a01b0386811691821790925591518493918716917fddf252ad1be2c89b69c2b068fc378daa952ba7f163c4a11628f55a4df523b3ef91a4505050565b604080516001600160a01b038681166024808401919091528682166044840152908516606483015260848083018590528351808403909101815260a49092018352602080830180516001600160e01b031663b030667160e01b179052835160608101909452818452611f5f939190613358908301396001600160a01b0388169190612367565b505050505050565b816001600160a01b0316836001600160a01b03161415611fc55760405162461bcd60e51b815260206004820152601960248201527822a9219b99189d1030b8383937bb32903a379031b0b63632b960391b60448201526064016104ea565b6001600160a01b03838116600081815260056020908152604080832094871680845294825291829020805460ff191686151590811790915591519182527f17307eab39ab6107e8899845ad3d59bd9653f200f220920489ca2b5937696c31910160405180910390a3505050565b61203d848484611d32565b61204984848484612442565b6105cc5760405162461bcd60e51b81526004016104ea906130a1565b600061207030611914565b15905090565b61131c828260405180602001604052806000815250612556565b6060816120b45750506040805180820190915260018152600360fc1b602082015290565b8160005b81156120de57806120c8816132aa565b91506120d79050600a8361321e565b91506120b8565b6000816001600160401b0381111561210657634e487b7160e01b600052604160045260246000fd5b6040519080825280601f01601f191660200182016040528015612130576020820181803683370190505b5090505b8415611d2a57612145600183613232565b9150612152600a866132c5565b61215d906030613206565b60f81b81838151811061218057634e487b7160e01b600052603260045260246000fd5b60200101906001600160f81b031916908160001a9053506121a2600a8661321e565b9450612134565b60006001600160e01b0319821663780e9d6360e01b14806104b257506104b282612589565b6000612223826040518060400160405280602081526020017f5361666545524332303a206c6f772d6c6576656c2063616c6c206661696c6564815250856001600160a01b03166122a09092919063ffffffff16565b8051909150156107f857808060200190518101906122419190612f28565b6107f85760405162461bcd60e51b815260206004820152602a60248201527f5361666545524332303a204552433230206f7065726174696f6e20646964206e6044820152691bdd081cdd58d8d9595960b21b60648201526084016104ea565b6060611d2a84846000856125d9565b6001600160a01b03831661230a5761230581600880546000838152600960205260408120829055600182018355919091527ff3f7a9fe364faab93b216da50a3214154f22a0a2b415b23a84c8169e8b636ee30155565b61232d565b816001600160a01b0316836001600160a01b03161461232d5761232d8382612708565b6001600160a01b038216612344576107f8816127a5565b826001600160a01b0316826001600160a01b0316146107f8576107f8828261287e565b606061237284611914565b6123cd5760405162461bcd60e51b815260206004820152602660248201527f416464726573733a2064656c65676174652063616c6c20746f206e6f6e2d636f6044820152651b9d1c9858dd60d21b60648201526084016104ea565b600080856001600160a01b0316856040516123e89190612fd8565b600060405180830381855af49150503d8060008114612423576040519150601f19603f3d011682016040523d82523d6000602084013e612428565b606091505b50915091506124388282866128c2565b9695505050505050565b6000612456846001600160a01b0316611914565b1561254b57604051630a85bd0160e11b81526001600160a01b0385169063150b7a029061248d903390899088908890600401613037565b602060405180830381600087803b1580156124a757600080fd5b505af19250505080156124d7575060408051601f3d908101601f191682019092526124d491810190612f60565b60015b612531573d808015612505576040519150601f19603f3d011682016040523d82523d6000602084013e61250a565b606091505b5080516125295760405162461bcd60e51b81526004016104ea906130a1565b805181602001fd5b6001600160e01b031916630a85bd0160e11b149050611d2a565b506001949350505050565b61256083836128fb565b61256d6000848484612442565b6107f85760405162461bcd60e51b81526004016104ea906130a1565b60006001600160e01b031982166380ac58cd60e01b14806125ba57506001600160e01b03198216635b5e139f60e01b145b806104b257506301ffc9a760e01b6001600160e01b03198316146104b2565b60608247101561263a5760405162461bcd60e51b815260206004820152602660248201527f416464726573733a20696e73756666696369656e742062616c616e636520666f6044820152651c8818d85b1b60d21b60648201526084016104ea565b61264385611914565b61268f5760405162461bcd60e51b815260206004820152601d60248201527f416464726573733a2063616c6c20746f206e6f6e2d636f6e747261637400000060448201526064016104ea565b600080866001600160a01b031685876040516126ab9190612fd8565b60006040518083038185875af1925050503d80600081146126e8576040519150601f19603f3d011682016040523d82523d6000602084013e6126ed565b606091505b50915091506126fd8282866128c2565b979650505050505050565b6000600161271584610e54565b61271f9190613232565b600083815260076020526040902054909150808214612772576001600160a01b03841660009081526006602090815260408083208584528252808320548484528184208190558352600790915290208190555b5060009182526007602090815260408084208490556001600160a01b039094168352600681528383209183525290812055565b6008546000906127b790600190613232565b600083815260096020526040812054600880549394509092849081106127ed57634e487b7160e01b600052603260045260246000fd5b90600052602060002001549050806008838154811061281c57634e487b7160e01b600052603260045260246000fd5b600091825260208083209091019290925582815260099091526040808220849055858252812055600880548061286257634e487b7160e01b600052603160045260246000fd5b6001900381819060005260206000200160009055905550505050565b600061288983610e54565b6001600160a01b039093166000908152600660209081526040808320868452825280832085905593825260079052919091209190915550565b606083156128d157508161182a565b8251156128e15782518084602001fd5b8160405162461bcd60e51b81526004016104ea919061306a565b6001600160a01b0382166129515760405162461bcd60e51b815260206004820181905260248201527f4552433732313a206d696e7420746f20746865207a65726f206164647265737360448201526064016104ea565b61295a8161199a565b156129a75760405162461bcd60e51b815260206004820152601c60248201527f4552433732313a20746f6b656e20616c7265616479206d696e7465640000000060448201526064016104ea565b6129b3600083836122af565b6001600160a01b03821660009081526003602052604081208054600192906129dc908490613206565b909155505060008181526002602052604080822080546001600160a01b0319166001600160a01b03861690811790915590518392907fddf252ad1be2c89b69c2b068fc378daa952ba7f163c4a11628f55a4df523b3ef908290a45050565b60008083601f840112612a4b578182fd5b5081356001600160401b03811115612a61578182fd5b6020830191508360208260051b8501011115612a7c57600080fd5b9250929050565b60008083601f840112612a94578182fd5b5081356001600160401b03811115612aaa578182fd5b602083019150836020828501011115612a7c57600080fd5b600060208284031215612ad3578081fd5b813561182a8161331b565b600060208284031215612aef578081fd5b815161182a8161331b565b60008060408385031215612b0c578081fd5b8235612b178161331b565b91506020830135612b278161331b565b809150509250929050565b60008060008060808587031215612b47578182fd5b8435612b528161331b565b93506020850135612b628161331b565b92506040850135612b728161331b565b9396929550929360600135925050565b60008060008060008060008060a0898b031215612b9d578384fd5b8835612ba88161331b565b97506020890135612bb88161331b565b965060408901356001600160401b0380821115612bd3578586fd5b612bdf8c838d01612a3a565b909850965060608b0135915080821115612bf7578586fd5b612c038c838d01612a3a565b909650945060808b0135915080821115612c1b578384fd5b50612c288b828c01612a83565b999c989b5096995094979396929594505050565b600080600060608486031215612c50578283fd5b8335612c5b8161331b565b92506020840135612c6b8161331b565b929592945050506040919091013590565b600080600080600060808688031215612c93578081fd5b8535612c9e8161331b565b94506020860135612cae8161331b565b93506040860135925060608601356001600160401b03811115612ccf578182fd5b612cdb88828901612a83565b969995985093965092949392505050565b60008060008060808587031215612d01578384fd5b8435612d0c8161331b565b93506020850135612d1c8161331b565b92506040850135915060608501356001600160401b0380821115612d3e578283fd5b818701915087601f830112612d51578283fd5b813581811115612d6357612d63613305565b604051601f8201601f19908116603f01168101908382118183101715612d8b57612d8b613305565b816040528281528a6020848701011115612da3578586fd5b82602086016020830137918201602001949094529598949750929550505050565b60008060008060008060a08789031215612ddc578384fd5b8635612de78161331b565b95506020870135612df78161331b565b9450604087013593506060870135925060808701356001600160401b03811115612e1f578283fd5b612e2b89828a01612a83565b979a9699509497509295939492505050565b60008060408385031215612e4f578182fd5b8235612e5a8161331b565b91506020830135612b2781613333565b600080600060408486031215612e7e578081fd5b8335612e898161331b565b925060208401356001600160401b03811115612ea3578182fd5b612eaf86828701612a83565b9497909650939450505050565b60008060408385031215612ece578182fd5b8235612ed98161331b565b946020939093013593505050565b600080600060608486031215612efb578081fd5b8335612f068161331b565b9250602084013591506040840135612f1d8161331b565b809150509250925092565b600060208284031215612f39578081fd5b815161182a81613333565b600060208284031215612f55578081fd5b813561182a81613341565b600060208284031215612f71578081fd5b815161182a81613341565b600060208284031215612f8d578081fd5b5035919050565b600060208284031215612fa5578081fd5b5051919050565b60008151808452612fc4816020860160208601613249565b601f01601f19169290920160200192915050565b60008251612fea818460208701613249565b9190910192915050565b60008351613006818460208801613249565b83519083019061301a818360208801613249565b01949350505050565b6001600160a01b0391909116815260200190565b6001600160a01b038581168252841660208201526040810183905260806060820181905260009061243890830184612fac565b60208152600061182a6020830184612fac565b6020808252600a908201526927b7363c9037bbb732b960b11b604082015260600190565b60208082526032908201527f4552433732313a207472616e7366657220746f206e6f6e20455243373231526560408201527131b2b4bb32b91034b6b83632b6b2b73a32b960711b606082015260800190565b6020808252601b908201527f62656e6566696369617279206973207a65726f20616464726573730000000000604082015260600190565b60208082526010908201526f1d1bdad95b881a5cc81ddc985c1c195960821b604082015260600190565b60208082526010908201526f616c7265616479207772617070696e6760801b604082015260600190565b60208082526031908201527f4552433732313a207472616e736665722063616c6c6572206973206e6f74206f6040820152701ddb995c881b9bdc88185c1c1c9bdd9959607a1b606082015260800190565b6020808252601f908201527f5265656e7472616e637947756172643a207265656e7472616e742063616c6c00604082015260600190565b60008219821115613219576132196132d9565b500190565b60008261322d5761322d6132ef565b500490565b600082821015613244576132446132d9565b500390565b60005b8381101561326457818101518382015260200161324c565b838111156105cc5750506000910152565b600181811c9082168061328957607f821691505b6020821081141561175357634e487b7160e01b600052602260045260246000fd5b60006000198214156132be576132be6132d9565b5060010190565b6000826132d4576132d46132ef565b500690565b634e487b7160e01b600052601160045260246000fd5b634e487b7160e01b600052601260045260246000fd5b634e487b7160e01b600052604160045260246000fd5b6001600160a01b038116811461333057600080fd5b50565b801515811461333057600080fd5b6001600160e01b03198116811461333057600080fdfe4e465420776173206e6f74207375636365737366756c6c79207472616e73666572726564a164736f6c6343000804000a4552433732313a207472616e7366657220746f206e6f6e204552433732315265",
  "devdoc": {
    "author": "NFTfi",
    "kind": "dev",
    "methods": {
      "approve(address,uint256)": {
        "details": "See {IERC721-approve}."
      },
      "balanceOf(address)": {
        "details": "See {IERC721-balanceOf}."
      },
      "drainERC1155Airdrop(address,uint256,address)": {
        "params": {
          "receiver": "- receiver of the token",
          "tokenAddress": "- address of the token contract for the token to be sent out",
          "tokenId": "- id token to be sent out"
        }
      },
      "drainERC20Airdrop(address,address)": {
        "params": {
          "receiver": "- receiver of the token",
          "tokenAddress": "- address of the token contract for the token to be sent out"
        }
      },
      "drainERC721Airdrop(address,uint256,address)": {
        "params": {
          "receiver": "- receiver of the token",
          "tokenAddress": "- address of the token contract for the token to be sent out",
          "tokenId": "- id token to be sent out"
        }
      },
      "getApproved(uint256)": {
        "details": "See {IERC721-getApproved}."
      },
      "isApprovedForAll(address,address)": {
        "details": "See {IERC721-isApprovedForAll}."
      },
      "name()": {
        "details": "See {IERC721Metadata-name}."
      },
      "ownerOf(uint256)": {
        "details": "See {IERC721-ownerOf}."
      },
      "safeTransferFrom(address,address,uint256)": {
        "details": "See {IERC721-safeTransferFrom}."
      },
      "safeTransferFrom(address,address,uint256,bytes)": {
        "details": "See {IERC721-safeTransferFrom}."
      },
      "setApprovalForAll(address,bool)": {
        "details": "See {IERC721-setApprovalForAll}."
      },
      "supportsInterface(bytes4)": {
        "details": "See {IERC165-supportsInterface}."
      },
      "symbol()": {
        "details": "See {IERC721Metadata-symbol}."
      },
      "tokenByIndex(uint256)": {
        "details": "See {IERC721Enumerable-tokenByIndex}."
      },
      "tokenOfOwnerByIndex(address,uint256)": {
        "details": "See {IERC721Enumerable-tokenOfOwnerByIndex}."
      },
      "tokenURI(uint256)": {
        "details": "See {IERC721Metadata-tokenURI}."
      },
      "totalSupply()": {
        "details": "See {IERC721Enumerable-totalSupply}."
      },
      "transferFrom(address,address,uint256)": {
        "details": "See {IERC721-transferFrom}."
      }
    },
    "title": "AirdropReceiver",
    "version": 1
  },
  "userdoc": {
    "kind": "user",
    "methods": {
      "drainERC1155Airdrop(address,uint256,address)": {
        "notice": "used by the owner account to be able to drain ERC1155 tokens received as airdrops for the locked  collateral NFT-s"
      },
      "drainERC20Airdrop(address,address)": {
        "notice": "used by the owner account to be able to drain ERC20 tokens received as airdrops for the locked  collateral NFT-s"
      },
      "drainERC721Airdrop(address,uint256,address)": {
        "notice": "used by the owner account to be able to drain ERC721 tokens received as airdrops for the locked  collateral NFT-s"
      }
    },
    "version": 1
  },
  "storageLayout": {
    "storage": [
      {
        "astId": 3553,
        "contract": "contracts/airdrop/AirdropReceiver.sol:AirdropReceiver",
        "label": "_name",
        "offset": 0,
        "slot": "0",
        "type": "t_string_storage"
      },
      {
        "astId": 3555,
        "contract": "contracts/airdrop/AirdropReceiver.sol:AirdropReceiver",
        "label": "_symbol",
        "offset": 0,
        "slot": "1",
        "type": "t_string_storage"
      },
      {
        "astId": 3559,
        "contract": "contracts/airdrop/AirdropReceiver.sol:AirdropReceiver",
        "label": "_owners",
        "offset": 0,
        "slot": "2",
        "type": "t_mapping(t_uint256,t_address)"
      },
      {
        "astId": 3563,
        "contract": "contracts/airdrop/AirdropReceiver.sol:AirdropReceiver",
        "label": "_balances",
        "offset": 0,
        "slot": "3",
        "type": "t_mapping(t_address,t_uint256)"
      },
      {
        "astId": 3567,
        "contract": "contracts/airdrop/AirdropReceiver.sol:AirdropReceiver",
        "label": "_tokenApprovals",
        "offset": 0,
        "slot": "4",
        "type": "t_mapping(t_uint256,t_address)"
      },
      {
        "astId": 3573,
        "contract": "contracts/airdrop/AirdropReceiver.sol:AirdropReceiver",
        "label": "_operatorApprovals",
        "offset": 0,
        "slot": "5",
        "type": "t_mapping(t_address,t_mapping(t_address,t_bool))"
      },
      {
        "astId": 4572,
        "contract": "contracts/airdrop/AirdropReceiver.sol:AirdropReceiver",
        "label": "_ownedTokens",
        "offset": 0,
        "slot": "6",
        "type": "t_mapping(t_address,t_mapping(t_uint256,t_uint256))"
      },
      {
        "astId": 4576,
        "contract": "contracts/airdrop/AirdropReceiver.sol:AirdropReceiver",
        "label": "_ownedTokensIndex",
        "offset": 0,
        "slot": "7",
        "type": "t_mapping(t_uint256,t_uint256)"
      },
      {
        "astId": 4579,
        "contract": "contracts/airdrop/AirdropReceiver.sol:AirdropReceiver",
        "label": "_allTokens",
        "offset": 0,
        "slot": "8",
        "type": "t_array(t_uint256)dyn_storage"
      },
      {
        "astId": 4583,
        "contract": "contracts/airdrop/AirdropReceiver.sol:AirdropReceiver",
        "label": "_allTokensIndex",
        "offset": 0,
        "slot": "9",
        "type": "t_mapping(t_uint256,t_uint256)"
      },
      {
        "astId": 632,
        "contract": "contracts/airdrop/AirdropReceiver.sol:AirdropReceiver",
        "label": "_initialized",
        "offset": 0,
        "slot": "10",
        "type": "t_bool"
      },
      {
        "astId": 635,
        "contract": "contracts/airdrop/AirdropReceiver.sol:AirdropReceiver",
        "label": "_initializing",
        "offset": 1,
        "slot": "10",
        "type": "t_bool"
      },
      {
        "astId": 802,
        "contract": "contracts/airdrop/AirdropReceiver.sol:AirdropReceiver",
        "label": "_status",
        "offset": 0,
        "slot": "11",
        "type": "t_uint256"
      },
      {
        "astId": 7501,
        "contract": "contracts/airdrop/AirdropReceiver.sol:AirdropReceiver",
        "label": "nftTransferWrapper",
        "offset": 0,
        "slot": "12",
        "type": "t_address"
      },
      {
        "astId": 7503,
        "contract": "contracts/airdrop/AirdropReceiver.sol:AirdropReceiver",
        "label": "beneficiary",
        "offset": 0,
        "slot": "13",
        "type": "t_address"
      },
      {
        "astId": 7505,
        "contract": "contracts/airdrop/AirdropReceiver.sol:AirdropReceiver",
        "label": "wrappedNft",
        "offset": 0,
        "slot": "14",
        "type": "t_address"
      },
      {
        "astId": 7507,
        "contract": "contracts/airdrop/AirdropReceiver.sol:AirdropReceiver",
        "label": "wrappedNftId",
        "offset": 0,
        "slot": "15",
        "type": "t_uint256"
      },
      {
        "astId": 7509,
        "contract": "contracts/airdrop/AirdropReceiver.sol:AirdropReceiver",
        "label": "wrapping_",
        "offset": 0,
        "slot": "16",
        "type": "t_bool"
      }
    ],
    "types": {
      "t_address": {
        "encoding": "inplace",
        "label": "address",
        "numberOfBytes": "20"
      },
      "t_array(t_uint256)dyn_storage": {
        "base": "t_uint256",
        "encoding": "dynamic_array",
        "label": "uint256[]",
        "numberOfBytes": "32"
      },
      "t_bool": {
        "encoding": "inplace",
        "label": "bool",
        "numberOfBytes": "1"
      },
      "t_mapping(t_address,t_bool)": {
        "encoding": "mapping",
        "key": "t_address",
        "label": "mapping(address => bool)",
        "numberOfBytes": "32",
        "value": "t_bool"
      },
      "t_mapping(t_address,t_mapping(t_address,t_bool))": {
        "encoding": "mapping",
        "key": "t_address",
        "label": "mapping(address => mapping(address => bool))",
        "numberOfBytes": "32",
        "value": "t_mapping(t_address,t_bool)"
      },
      "t_mapping(t_address,t_mapping(t_uint256,t_uint256))": {
        "encoding": "mapping",
        "key": "t_address",
        "label": "mapping(address => mapping(uint256 => uint256))",
        "numberOfBytes": "32",
        "value": "t_mapping(t_uint256,t_uint256)"
      },
      "t_mapping(t_address,t_uint256)": {
        "encoding": "mapping",
        "key": "t_address",
        "label": "mapping(address => uint256)",
        "numberOfBytes": "32",
        "value": "t_uint256"
      },
      "t_mapping(t_uint256,t_address)": {
        "encoding": "mapping",
        "key": "t_uint256",
        "label": "mapping(uint256 => address)",
        "numberOfBytes": "32",
        "value": "t_address"
      },
      "t_mapping(t_uint256,t_uint256)": {
        "encoding": "mapping",
        "key": "t_uint256",
        "label": "mapping(uint256 => uint256)",
        "numberOfBytes": "32",
        "value": "t_uint256"
      },
      "t_string_storage": {
        "encoding": "bytes",
        "label": "string",
        "numberOfBytes": "32"
      },
      "t_uint256": {
        "encoding": "inplace",
        "label": "uint256",
        "numberOfBytes": "32"
      }
    }
  }
}