{
  "address": "0x3B043958181E0E5282E5415c953b146024e1ec97",
  "abi": [
    {
      "inputs": [
        {
          "internalType": "address",
          "name": "_nftfiHub",
          "type": "address"
        }
      ],
      "stateMutability": "nonpayable",
      "type": "constructor"
    },
    {
      "inputs": [],
      "name": "hub",
      "outputs": [
        {
          "internalType": "contract INftfiHub",
          "name": "",
          "type": "address"
        }
      ],
      "stateMutability": "view",
      "type": "function"
    },
    {
      "inputs": [
        {
          "internalType": "address",
          "name": "",
          "type": "address"
        },
        {
          "internalType": "address",
          "name": "",
          "type": "address"
        },
        {
          "internalType": "uint256[]",
          "name": "",
          "type": "uint256[]"
        },
        {
          "internalType": "uint256[]",
          "name": "",
          "type": "uint256[]"
        },
        {
          "internalType": "bytes",
          "name": "",
          "type": "bytes"
        }
      ],
      "name": "onERC1155BatchReceived",
      "outputs": [
        {
          "internalType": "bytes4",
          "name": "",
          "type": "bytes4"
        }
      ],
      "stateMutability": "nonpayable",
      "type": "function"
    },
    {
      "inputs": [
        {
          "internalType": "address",
          "name": "",
          "type": "address"
        },
        {
          "internalType": "address",
          "name": "",
          "type": "address"
        },
        {
          "internalType": "uint256",
          "name": "",
          "type": "uint256"
        },
        {
          "internalType": "uint256",
          "name": "",
          "type": "uint256"
        },
        {
          "internalType": "bytes",
          "name": "",
          "type": "bytes"
        }
      ],
      "name": "onERC1155Received",
      "outputs": [
        {
          "internalType": "bytes4",
          "name": "",
          "type": "bytes4"
        }
      ],
      "stateMutability": "nonpayable",
      "type": "function"
    },
    {
      "inputs": [
        {
          "internalType": "address",
          "name": "",
          "type": "address"
        },
        {
          "internalType": "address",
          "name": "",
          "type": "address"
        },
        {
          "internalType": "uint256",
          "name": "",
          "type": "uint256"
        },
        {
          "internalType": "bytes",
          "name": "",
          "type": "bytes"
        }
      ],
      "name": "onERC721Received",
      "outputs": [
        {
          "internalType": "bytes4",
          "name": "",
          "type": "bytes4"
        }
      ],
      "stateMutability": "nonpayable",
      "type": "function"
    },
    {
      "inputs": [
        {
          "internalType": "address",
          "name": "_nftCollateralContract",
          "type": "address"
        },
        {
          "internalType": "uint256",
          "name": "_nftCollateralId",
          "type": "uint256"
        },
        {
          "internalType": "address",
          "name": "_nftWrapper",
          "type": "address"
        },
        {
          "internalType": "address",
          "name": "_target",
          "type": "address"
        },
        {
          "internalType": "bytes",
          "name": "_data",
          "type": "bytes"
        },
        {
          "internalType": "address",
          "name": "_nftAirdrop",
          "type": "address"
        },
        {
          "internalType": "uint256",
          "name": "_nftAirdropId",
          "type": "uint256"
        },
        {
          "internalType": "bool",
          "name": "_is1155",
          "type": "bool"
        },
        {
          "internalType": "uint256",
          "name": "_nftAirdropAmount",
          "type": "uint256"
        },
        {
          "internalType": "address",
          "name": "_beneficiary",
          "type": "address"
        }
      ],
      "name": "pullAirdrop",
      "outputs": [],
      "stateMutability": "nonpayable",
      "type": "function"
    },
    {
      "inputs": [
        {
          "internalType": "bytes4",
          "name": "_interfaceId",
          "type": "bytes4"
        }
      ],
      "name": "supportsInterface",
      "outputs": [
        {
          "internalType": "bool",
          "name": "",
          "type": "bool"
        }
      ],
      "stateMutability": "view",
      "type": "function"
    }
  ],
  "transactionHash": "0xb46950f267138c751cfa98c03a616af667f9567983d28a901ece91157bb48f7b",
  "args": [
    "0xd99b8075Cb583FdE8F60A2C3aC84eE37c701a578"
  ],
  "numDeployments": 1,
  "solcInputHash": "e960dbb71492b307ed8580de393cc147",
  "bytecode": "0x60a060405234801561001057600080fd5b50604051610e4e380380610e4e83398101604081905261002f91610049565b600160005560601b6001600160601b031916608052610077565b60006020828403121561005a578081fd5b81516001600160a01b0381168114610070578182fd5b9392505050565b60805160601c610db361009b6000396000818160e0015261020a0152610db36000f3fe608060405234801561001057600080fd5b50600436106100625760003560e01c806301ffc9a7146100675780630846e9401461008f578063150b7a02146100a4578063365a86fc146100db578063bc197c811461011a578063f23a6e6114610139575b600080fd5b61007a610075366004610c63565b610158565b60405190151581526020015b60405180910390f35b6100a261009d366004610b51565b610183565b005b6100c26100b2366004610a82565b630a85bd0160e11b949350505050565b6040516001600160e01b03199091168152602001610086565b6101027f000000000000000000000000000000000000000000000000000000000000000081565b6040516001600160a01b039091168152602001610086565b6100c26101283660046109d9565b63bc197c8160e01b95945050505050565b6100c2610147366004610aeb565b63f23a6e6160e01b95945050505050565b60006001600160e01b03198216630a85bd0160e11b148061017d575061017d82610545565b92915050565b600260005414156101db5760405162461bcd60e51b815260206004820152601f60248201527f5265656e7472616e637947756172643a207265656e7472616e742063616c6c0060448201526064015b60405180910390fd5b6002600055604051631c2d8fb360e31b8152715045524d49545445445f41495244524f505360701b60048201527f00000000000000000000000000000000000000000000000000000000000000006001600160a01b03169063e16c7d989060240160206040518083038186803b15801561025457600080fd5b505afa158015610268573d6000803e3d6000fd5b505050506040513d601f19601f8201168201806040525081019061028c91906109bd565b6001600160a01b031663bcef622e896102da8a8a8080601f01602080910402602001604051908101604052809392919081815260200183838082843760009201919091525061057a92505050565b604080516001600160a01b0390931660208401526001600160e01b0319909116908201526060016040516020818303038152906040526040518263ffffffff1660e01b815260040161032c9190610cd3565b60206040518083038186803b15801561034457600080fd5b505afa158015610358573d6000803e3d6000fd5b505050506040513d601f19601f8201168201806040525081019061037c9190610c47565b6103ba5760405162461bcd60e51b815260206004820152600f60248201526e0496e76616c69642041697264726f7608c1b60448201526064016101d2565b61040487878080601f016020809104026020016040519081016040528093929190818152602001838380828437600092019190915250506001600160a01b038c1692915050610581565b506104128930338e8e6105ca565b6001600160a01b0385161580159061043257506001600160a01b03811615155b156105335782156104ca57604051637921219560e11b81523060048201526001600160a01b038281166024830152604482018690526064820184905260a06084830152600260a483015261060f60f31b60c483015286169063f242432a9060e401600060405180830381600087803b1580156104ad57600080fd5b505af11580156104c1573d6000803e3d6000fd5b50505050610533565b604051632142170760e11b81523060048201526001600160a01b038281166024830152604482018690528616906342842e0e90606401600060405180830381600087803b15801561051a57600080fd5b505af115801561052e573d6000803e3d6000fd5b505050505b50506001600055505050505050505050565b60006001600160e01b03198216630271189760e51b148061017d57506301ffc9a760e01b6001600160e01b031983161461017d565b6020015190565b60606105c383836040518060400160405280601e81526020017f416464726573733a206c6f772d6c6576656c2063616c6c206661696c65640000815250610658565b9392505050565b604080516001600160a01b038681166024808401919091528682166044840152908516606483015260848083018590528351808403909101815260a49092018352602080830180516001600160e01b031663b030667160e01b179052835160608101909452818452610650939190610d83908301396001600160a01b038816919061066f565b505050505050565b6060610667848460008561074c565b949350505050565b60606001600160a01b0384163b6106d75760405162461bcd60e51b815260206004820152602660248201527f416464726573733a2064656c65676174652063616c6c20746f206e6f6e2d636f6044820152651b9d1c9858dd60d21b60648201526084016101d2565b600080856001600160a01b0316856040516106f29190610cb7565b600060405180830381855af49150503d806000811461072d576040519150601f19603f3d011682016040523d82523d6000602084013e610732565b606091505b509150915061074282828661087d565b9695505050505050565b6060824710156107ad5760405162461bcd60e51b815260206004820152602660248201527f416464726573733a20696e73756666696369656e742062616c616e636520666f6044820152651c8818d85b1b60d21b60648201526084016101d2565b6001600160a01b0385163b6108045760405162461bcd60e51b815260206004820152601d60248201527f416464726573733a2063616c6c20746f206e6f6e2d636f6e747261637400000060448201526064016101d2565b600080866001600160a01b031685876040516108209190610cb7565b60006040518083038185875af1925050503d806000811461085d576040519150601f19603f3d011682016040523d82523d6000602084013e610862565b606091505b509150915061087282828661087d565b979650505050505050565b6060831561088c5750816105c3565b82511561089c5782518084602001fd5b8160405162461bcd60e51b81526004016101d29190610cd3565b80356108c181610d5c565b919050565b600082601f8301126108d6578081fd5b813560206001600160401b038211156108f1576108f1610d46565b8160051b610900828201610ce6565b83815282810190868401838801850189101561091a578687fd5b8693505b8584101561093c57803583526001939093019291840191840161091e565b50979650505050505050565b80356108c181610d74565b600082601f830112610963578081fd5b81356001600160401b0381111561097c5761097c610d46565b61098f601f8201601f1916602001610ce6565b8181528460208386010111156109a3578283fd5b816020850160208301379081016020019190915292915050565b6000602082840312156109ce578081fd5b81516105c381610d5c565b600080600080600060a086880312156109f0578081fd5b85356109fb81610d5c565b94506020860135610a0b81610d5c565b935060408601356001600160401b0380821115610a26578283fd5b610a3289838a016108c6565b94506060880135915080821115610a47578283fd5b610a5389838a016108c6565b93506080880135915080821115610a68578283fd5b50610a7588828901610953565b9150509295509295909350565b60008060008060808587031215610a97578384fd5b8435610aa281610d5c565b93506020850135610ab281610d5c565b92506040850135915060608501356001600160401b03811115610ad3578182fd5b610adf87828801610953565b91505092959194509250565b600080600080600060a08688031215610b02578081fd5b8535610b0d81610d5c565b94506020860135610b1d81610d5c565b9350604086013592506060860135915060808601356001600160401b03811115610b45578182fd5b610a7588828901610953565b60008060008060008060008060008060006101408c8e031215610b72578586fd5b8b35610b7d81610d5c565b9a5060208c0135995060408c0135610b9481610d5c565b985060608c0135610ba481610d5c565b975060808c01356001600160401b0380821115610bbf578788fd5b818e0191508e601f830112610bd2578788fd5b813581811115610be0578889fd5b8f6020828501011115610bf1578889fd5b602083019950809850505050610c0960a08d016108b6565b945060c08c01359350610c1e60e08d01610948565b92506101008c01359150610c356101208d016108b6565b90509295989b509295989b9093969950565b600060208284031215610c58578081fd5b81516105c381610d74565b600060208284031215610c74578081fd5b81356001600160e01b0319811681146105c3578182fd5b60008151808452610ca3816020860160208601610d16565b601f01601f19169290920160200192915050565b60008251610cc9818460208701610d16565b9190910192915050565b6020815260006105c36020830184610c8b565b604051601f8201601f191681016001600160401b0381118282101715610d0e57610d0e610d46565b604052919050565b60005b83811015610d31578181015183820152602001610d19565b83811115610d40576000848401525b50505050565b634e487b7160e01b600052604160045260246000fd5b6001600160a01b0381168114610d7157600080fd5b50565b8015158114610d7157600080fdfe4e465420776173206e6f74207375636365737366756c6c79207472616e73666572726564a164736f6c6343000804000a",
  "devdoc": {
    "author": "NFTfi",
    "kind": "dev",
    "methods": {
      "onERC721Received(address,address,uint256,bytes)": {
        "details": "See {IERC721Receiver-onERC721Received}. Always returns `IERC721Receiver.onERC721Received.selector`."
      },
      "supportsInterface(bytes4)": {
        "details": "See {IERC165-supportsInterface}."
      }
    },
    "title": "AirdropFlashLoan",
    "version": 1
  },
  "userdoc": {
    "kind": "user",
    "methods": {},
    "version": 1
  },
  "storageLayout": {
    "storage": [
      {
        "astId": 802,
        "contract": "contracts/airdrop/AirdropFlashLoan.sol:AirdropFlashLoan",
        "label": "_status",
        "offset": 0,
        "slot": "0",
        "type": "t_uint256"
      }
    ],
    "types": {
      "t_uint256": {
        "encoding": "inplace",
        "label": "uint256",
        "numberOfBytes": "32"
      }
    }
  }
}