{
  "address": "0xC0691b4bb84f05ec8E2255a50487C8d67BAc7539",
  "abi": [
    {
      "inputs": [],
      "name": "AIRDROP_FACTORY",
      "outputs": [
        {
          "internalType": "bytes32",
          "name": "",
          "type": "bytes32"
        }
      ],
      "stateMutability": "view",
      "type": "function"
    },
    {
      "inputs": [],
      "name": "AIRDROP_FLASH_LOAN",
      "outputs": [
        {
          "internalType": "bytes32",
          "name": "",
          "type": "bytes32"
        }
      ],
      "stateMutability": "view",
      "type": "function"
    },
    {
      "inputs": [],
      "name": "AIRDROP_RECEIVER",
      "outputs": [
        {
          "internalType": "bytes32",
          "name": "",
          "type": "bytes32"
        }
      ],
      "stateMutability": "view",
      "type": "function"
    },
    {
      "inputs": [],
      "name": "AIRDROP_WRAPPER_STRING",
      "outputs": [
        {
          "internalType": "string",
          "name": "",
          "type": "string"
        }
      ],
      "stateMutability": "view",
      "type": "function"
    },
    {
      "inputs": [],
      "name": "LOAN_REGISTRY",
      "outputs": [
        {
          "internalType": "bytes32",
          "name": "",
          "type": "bytes32"
        }
      ],
      "stateMutability": "view",
      "type": "function"
    },
    {
      "inputs": [],
      "name": "NFTFI_BUNDLER",
      "outputs": [
        {
          "internalType": "bytes32",
          "name": "",
          "type": "bytes32"
        }
      ],
      "stateMutability": "view",
      "type": "function"
    },
    {
      "inputs": [],
      "name": "NFT_TYPE_REGISTRY",
      "outputs": [
        {
          "internalType": "bytes32",
          "name": "",
          "type": "bytes32"
        }
      ],
      "stateMutability": "view",
      "type": "function"
    },
    {
      "inputs": [],
      "name": "PERMITTED_AIRDROPS",
      "outputs": [
        {
          "internalType": "bytes32",
          "name": "",
          "type": "bytes32"
        }
      ],
      "stateMutability": "view",
      "type": "function"
    },
    {
      "inputs": [],
      "name": "PERMITTED_BUNDLE_ERC20S",
      "outputs": [
        {
          "internalType": "bytes32",
          "name": "",
          "type": "bytes32"
        }
      ],
      "stateMutability": "view",
      "type": "function"
    },
    {
      "inputs": [],
      "name": "PERMITTED_ERC20S",
      "outputs": [
        {
          "internalType": "bytes32",
          "name": "",
          "type": "bytes32"
        }
      ],
      "stateMutability": "view",
      "type": "function"
    },
    {
      "inputs": [],
      "name": "PERMITTED_NFTS",
      "outputs": [
        {
          "internalType": "bytes32",
          "name": "",
          "type": "bytes32"
        }
      ],
      "stateMutability": "view",
      "type": "function"
    },
    {
      "inputs": [],
      "name": "PERMITTED_PARTNERS",
      "outputs": [
        {
          "internalType": "bytes32",
          "name": "",
          "type": "bytes32"
        }
      ],
      "stateMutability": "view",
      "type": "function"
    },
    {
      "inputs": [],
      "name": "PERMITTED_SNFT_RECEIVER",
      "outputs": [
        {
          "internalType": "bytes32",
          "name": "",
          "type": "bytes32"
        }
      ],
      "stateMutability": "view",
      "type": "function"
    },
    {
      "inputs": [
        {
          "internalType": "string",
          "name": "_key",
          "type": "string"
        }
      ],
      "name": "getIdFromStringKey",
      "outputs": [
        {
          "internalType": "bytes32",
          "name": "id",
          "type": "bytes32"
        }
      ],
      "stateMutability": "pure",
      "type": "function"
    }
  ],
  "transactionHash": "0xb100c854a449e136b3351492525f4049747d7c47f6821a1c8ea66519a1730c74",
  "args": [],
  "numDeployments": 1,
  "solcInputHash": "e960dbb71492b307ed8580de393cc147",
  "bytecode": "0x6103ea61003a600b82828239805160001a60731461002d57634e487b7160e01b600052600060045260246000fd5b30600052607381538281f3fe73000000000000000000000000000000000000000030146080604052600436106100d45760003560e01c80636bfc13bb116100865780636bfc13bb146101c75780639584c8c9146101e3578063992c824014610204578063b2b4901914610220578063bc9412481461023c578063e55e6f5f14610254578063f99a8ffb1461026e57600080fd5b8063025573f7146100d9578063161f07e61461011c57806326a9d63a146101435780632fd0cd8c1461015d57806341be0f971461017e5780634547ea43146101995780636a8155fb146101b0575b600080fd5b6101066040518060400160405280600e81526020016d20b4b9323937b82bb930b83832b960911b81525081565b6040516101139190610374565b60405180910390f35b6101356e41495244524f505f464143544f525960881b81565b604051908152602001610113565b6101356f5045524d49545445445f45524332305360801b81565b610135762822a926a4aa2a22a22fa9a7232a2fa922a1a2a4ab22a960491b81565b610135704e46545f545950455f524547495354525960781b81565b6101356c27232a2324afa12aa7222622a960991b81565b6101356c4c4f414e5f524547495354525960981b81565b610135715045524d49545445445f41495244524f505360701b81565b610135765045524d49545445445f42554e444c455f45524332305360481b81565b6101357120a4a9222927a82fa32620a9a42fa627a0a760711b81565b610135715045524d49545445445f504152544e45525360701b81565b6101356d5045524d49545445445f4e46545360901b81565b6101356f20a4a9222927a82fa922a1a2a4ab22a960811b81565b61013561027c3660046102ca565b60006020825111156102c25760405162461bcd60e51b815260206004820152600b60248201526a696e76616c6964206b657960a81b604482015260640160405180910390fd5b506020015190565b6000602082840312156102db578081fd5b813567ffffffffffffffff808211156102f2578283fd5b818401915084601f830112610305578283fd5b813581811115610317576103176103c7565b604051601f8201601f19908116603f0116810190838211818310171561033f5761033f6103c7565b81604052828152876020848701011115610357578586fd5b826020860160208301379182016020019490945295945050505050565b6000602080835283518082850152825b818110156103a057858101830151858201604001528201610384565b818111156103b15783604083870101525b50601f01601f1916929092016040019392505050565b634e487b7160e01b600052604160045260246000fdfea164736f6c6343000804000a",
  "devdoc": {
    "author": "NFTfi",
    "details": "Common library for contract keys",
    "kind": "dev",
    "methods": {
      "getIdFromStringKey(string)": {
        "params": {
          "_key": "the string key"
        },
        "returns": {
          "id": "bytes32 representation"
        }
      }
    },
    "title": "ContractKeys",
    "version": 1
  },
  "userdoc": {
    "kind": "user",
    "methods": {
      "getIdFromStringKey(string)": {
        "notice": "Returns the bytes32 representation of a string"
      }
    },
    "version": 1
  },
  "storageLayout": {
    "storage": [],
    "types": null
  }
}