{
  "address": "0xf896527c49b44aAb3Cf22aE356Fa3AF8E331F280",
  "abi": [
    {
      "inputs": [
        {
          "internalType": "address",
          "name": "_admin",
          "type": "address"
        },
        {
          "internalType": "address",
          "name": "_nftfiHub",
          "type": "address"
        },
        {
          "internalType": "address[]",
          "name": "_permittedErc20s",
          "type": "address[]"
        }
      ],
      "stateMutability": "nonpayable",
      "type": "constructor"
    },
    {
      "anonymous": false,
      "inputs": [
        {
          "indexed": false,
          "internalType": "uint16",
          "name": "newAdminFee",
          "type": "uint16"
        }
      ],
      "name": "AdminFeeUpdated",
      "type": "event"
    },
    {
      "anonymous": false,
      "inputs": [
        {
          "indexed": true,
          "internalType": "address",
          "name": "erc20Contract",
          "type": "address"
        },
        {
          "indexed": false,
          "internalType": "bool",
          "name": "isPermitted",
          "type": "bool"
        }
      ],
      "name": "ERC20Permit",
      "type": "event"
    },
    {
      "anonymous": false,
      "inputs": [
        {
          "indexed": true,
          "internalType": "uint32",
          "name": "loanId",
          "type": "uint32"
        },
        {
          "indexed": true,
          "internalType": "address",
          "name": "borrower",
          "type": "address"
        },
        {
          "indexed": true,
          "internalType": "address",
          "name": "lender",
          "type": "address"
        },
        {
          "indexed": false,
          "internalType": "uint256",
          "name": "loanPrincipalAmount",
          "type": "uint256"
        },
        {
          "indexed": false,
          "internalType": "uint256",
          "name": "nftCollateralId",
          "type": "uint256"
        },
        {
          "indexed": false,
          "internalType": "uint256",
          "name": "loanMaturityDate",
          "type": "uint256"
        },
        {
          "indexed": false,
          "internalType": "uint256",
          "name": "loanLiquidationDate",
          "type": "uint256"
        },
        {
          "indexed": false,
          "internalType": "address",
          "name": "nftCollateralContract",
          "type": "address"
        }
      ],
      "name": "LoanLiquidated",
      "type": "event"
    },
    {
      "anonymous": false,
      "inputs": [
        {
          "indexed": true,
          "internalType": "uint32",
          "name": "loanId",
          "type": "uint32"
        },
        {
          "indexed": true,
          "internalType": "address",
          "name": "borrower",
          "type": "address"
        },
        {
          "indexed": true,
          "internalType": "address",
          "name": "lender",
          "type": "address"
        },
        {
          "indexed": false,
          "internalType": "uint32",
          "name": "newLoanDuration",
          "type": "uint32"
        },
        {
          "indexed": false,
          "internalType": "uint256",
          "name": "newMaximumRepaymentAmount",
          "type": "uint256"
        },
        {
          "indexed": false,
          "internalType": "uint256",
          "name": "renegotiationFee",
          "type": "uint256"
        },
        {
          "indexed": false,
          "internalType": "uint256",
          "name": "renegotiationAdminFee",
          "type": "uint256"
        }
      ],
      "name": "LoanRenegotiated",
      "type": "event"
    },
    {
      "anonymous": false,
      "inputs": [
        {
          "indexed": true,
          "internalType": "uint32",
          "name": "loanId",
          "type": "uint32"
        },
        {
          "indexed": true,
          "internalType": "address",
          "name": "borrower",
          "type": "address"
        },
        {
          "indexed": true,
          "internalType": "address",
          "name": "lender",
          "type": "address"
        },
        {
          "indexed": false,
          "internalType": "uint256",
          "name": "loanPrincipalAmount",
          "type": "uint256"
        },
        {
          "indexed": false,
          "internalType": "uint256",
          "name": "nftCollateralId",
          "type": "uint256"
        },
        {
          "indexed": false,
          "internalType": "uint256",
          "name": "amountPaidToLender",
          "type": "uint256"
        },
        {
          "indexed": false,
          "internalType": "uint256",
          "name": "adminFee",
          "type": "uint256"
        },
        {
          "indexed": false,
          "internalType": "uint256",
          "name": "revenueShare",
          "type": "uint256"
        },
        {
          "indexed": false,
          "internalType": "address",
          "name": "revenueSharePartner",
          "type": "address"
        },
        {
          "indexed": false,
          "internalType": "address",
          "name": "nftCollateralContract",
          "type": "address"
        },
        {
          "indexed": false,
          "internalType": "address",
          "name": "loanERC20Denomination",
          "type": "address"
        }
      ],
      "name": "LoanRepaid",
      "type": "event"
    },
    {
      "anonymous": false,
      "inputs": [
        {
          "indexed": true,
          "internalType": "uint32",
          "name": "loanId",
          "type": "uint32"
        },
        {
          "indexed": true,
          "internalType": "address",
          "name": "borrower",
          "type": "address"
        },
        {
          "indexed": true,
          "internalType": "address",
          "name": "lender",
          "type": "address"
        },
        {
          "components": [
            {
              "internalType": "uint256",
              "name": "loanPrincipalAmount",
              "type": "uint256"
            },
            {
              "internalType": "uint256",
              "name": "maximumRepaymentAmount",
              "type": "uint256"
            },
            {
              "internalType": "uint256",
              "name": "nftCollateralId",
              "type": "uint256"
            },
            {
              "internalType": "address",
              "name": "loanERC20Denomination",
              "type": "address"
            },
            {
              "internalType": "uint32",
              "name": "loanDuration",
              "type": "uint32"
            },
            {
              "internalType": "uint16",
              "name": "loanInterestRateForDurationInBasisPoints",
              "type": "uint16"
            },
            {
              "internalType": "uint16",
              "name": "loanAdminFeeInBasisPoints",
              "type": "uint16"
            },
            {
              "internalType": "address",
              "name": "nftCollateralWrapper",
              "type": "address"
            },
            {
              "internalType": "uint64",
              "name": "loanStartTime",
              "type": "uint64"
            },
            {
              "internalType": "address",
              "name": "nftCollateralContract",
              "type": "address"
            },
            {
              "internalType": "address",
              "name": "borrower",
              "type": "address"
            }
          ],
          "indexed": false,
          "internalType": "struct LoanData.LoanTerms",
          "name": "loanTerms",
          "type": "tuple"
        },
        {
          "components": [
            {
              "internalType": "address",
              "name": "revenueSharePartner",
              "type": "address"
            },
            {
              "internalType": "uint16",
              "name": "revenueShareInBasisPoints",
              "type": "uint16"
            },
            {
              "internalType": "uint16",
              "name": "referralFeeInBasisPoints",
              "type": "uint16"
            }
          ],
          "indexed": false,
          "internalType": "struct LoanData.LoanExtras",
          "name": "loanExtras",
          "type": "tuple"
        }
      ],
      "name": "LoanStarted",
      "type": "event"
    },
    {
      "anonymous": false,
      "inputs": [
        {
          "indexed": false,
          "internalType": "uint256",
          "name": "newMaximumLoanDuration",
          "type": "uint256"
        }
      ],
      "name": "MaximumLoanDurationUpdated",
      "type": "event"
    },
    {
      "anonymous": false,
      "inputs": [
        {
          "indexed": true,
          "internalType": "address",
          "name": "previousOwner",
          "type": "address"
        },
        {
          "indexed": true,
          "internalType": "address",
          "name": "newOwner",
          "type": "address"
        }
      ],
      "name": "OwnershipTransferred",
      "type": "event"
    },
    {
      "anonymous": false,
      "inputs": [
        {
          "indexed": false,
          "internalType": "address",
          "name": "account",
          "type": "address"
        }
      ],
      "name": "Paused",
      "type": "event"
    },
    {
      "anonymous": false,
      "inputs": [
        {
          "indexed": false,
          "internalType": "address",
          "name": "account",
          "type": "address"
        }
      ],
      "name": "Unpaused",
      "type": "event"
    },
    {
      "inputs": [],
      "name": "HUNDRED_PERCENT",
      "outputs": [
        {
          "internalType": "uint16",
          "name": "",
          "type": "uint16"
        }
      ],
      "stateMutability": "view",
      "type": "function"
    },
    {
      "inputs": [],
      "name": "LOAN_COORDINATOR",
      "outputs": [
        {
          "internalType": "bytes32",
          "name": "",
          "type": "bytes32"
        }
      ],
      "stateMutability": "view",
      "type": "function"
    },
    {
      "inputs": [],
      "name": "LOAN_TYPE",
      "outputs": [
        {
          "internalType": "bytes32",
          "name": "",
          "type": "bytes32"
        }
      ],
      "stateMutability": "view",
      "type": "function"
    },
    {
      "inputs": [
        {
          "components": [
            {
              "internalType": "uint256",
              "name": "loanPrincipalAmount",
              "type": "uint256"
            },
            {
              "internalType": "uint256",
              "name": "maximumRepaymentAmount",
              "type": "uint256"
            },
            {
              "internalType": "uint256",
              "name": "nftCollateralId",
              "type": "uint256"
            },
            {
              "internalType": "address",
              "name": "nftCollateralContract",
              "type": "address"
            },
            {
              "internalType": "uint32",
              "name": "loanDuration",
              "type": "uint32"
            },
            {
              "internalType": "uint16",
              "name": "loanAdminFeeInBasisPoints",
              "type": "uint16"
            },
            {
              "internalType": "address",
              "name": "loanERC20Denomination",
              "type": "address"
            },
            {
              "internalType": "address",
              "name": "referrer",
              "type": "address"
            }
          ],
          "internalType": "struct LoanData.Offer",
          "name": "_offer",
          "type": "tuple"
        },
        {
          "components": [
            {
              "internalType": "uint256",
              "name": "nonce",
              "type": "uint256"
            },
            {
              "internalType": "uint256",
              "name": "expiry",
              "type": "uint256"
            },
            {
              "internalType": "address",
              "name": "signer",
              "type": "address"
            },
            {
              "internalType": "bytes",
              "name": "signature",
              "type": "bytes"
            }
          ],
          "internalType": "struct LoanData.Signature",
          "name": "_signature",
          "type": "tuple"
        },
        {
          "components": [
            {
              "internalType": "address",
              "name": "revenueSharePartner",
              "type": "address"
            },
            {
              "internalType": "uint16",
              "name": "referralFeeInBasisPoints",
              "type": "uint16"
            }
          ],
          "internalType": "struct LoanData.BorrowerSettings",
          "name": "_borrowerSettings",
          "type": "tuple"
        }
      ],
      "name": "acceptOffer",
      "outputs": [],
      "stateMutability": "nonpayable",
      "type": "function"
    },
    {
      "inputs": [],
      "name": "adminFeeInBasisPoints",
      "outputs": [
        {
          "internalType": "uint16",
          "name": "",
          "type": "uint16"
        }
      ],
      "stateMutability": "view",
      "type": "function"
    },
    {
      "inputs": [
        {
          "internalType": "uint256",
          "name": "_nonce",
          "type": "uint256"
        }
      ],
      "name": "cancelLoanCommitmentBeforeLoanHasBegun",
      "outputs": [],
      "stateMutability": "nonpayable",
      "type": "function"
    },
    {
      "inputs": [
        {
          "internalType": "address",
          "name": "_tokenAddress",
          "type": "address"
        },
        {
          "internalType": "uint256",
          "name": "_tokenId",
          "type": "uint256"
        },
        {
          "internalType": "address",
          "name": "_receiver",
          "type": "address"
        }
      ],
      "name": "drainERC1155Airdrop",
      "outputs": [],
      "stateMutability": "nonpayable",
      "type": "function"
    },
    {
      "inputs": [
        {
          "internalType": "address",
          "name": "_tokenAddress",
          "type": "address"
        },
        {
          "internalType": "address",
          "name": "_receiver",
          "type": "address"
        }
      ],
      "name": "drainERC20Airdrop",
      "outputs": [],
      "stateMutability": "nonpayable",
      "type": "function"
    },
    {
      "inputs": [
        {
          "internalType": "address",
          "name": "_tokenAddress",
          "type": "address"
        },
        {
          "internalType": "uint256",
          "name": "_tokenId",
          "type": "uint256"
        },
        {
          "internalType": "address",
          "name": "_receiver",
          "type": "address"
        }
      ],
      "name": "drainERC721Airdrop",
      "outputs": [],
      "stateMutability": "nonpayable",
      "type": "function"
    },
    {
      "inputs": [
        {
          "internalType": "address",
          "name": "_erc20",
          "type": "address"
        }
      ],
      "name": "getERC20Permit",
      "outputs": [
        {
          "internalType": "bool",
          "name": "",
          "type": "bool"
        }
      ],
      "stateMutability": "view",
      "type": "function"
    },
    {
      "inputs": [
        {
          "internalType": "uint32",
          "name": "_loanId",
          "type": "uint32"
        }
      ],
      "name": "getPayoffAmount",
      "outputs": [
        {
          "internalType": "uint256",
          "name": "",
          "type": "uint256"
        }
      ],
      "stateMutability": "view",
      "type": "function"
    },
    {
      "inputs": [
        {
          "internalType": "address",
          "name": "_user",
          "type": "address"
        },
        {
          "internalType": "uint256",
          "name": "_nonce",
          "type": "uint256"
        }
      ],
      "name": "getWhetherNonceHasBeenUsedForUser",
      "outputs": [
        {
          "internalType": "bool",
          "name": "",
          "type": "bool"
        }
      ],
      "stateMutability": "view",
      "type": "function"
    },
    {
      "inputs": [],
      "name": "hub",
      "outputs": [
        {
          "internalType": "contract INftfiHub",
          "name": "",
          "type": "address"
        }
      ],
      "stateMutability": "view",
      "type": "function"
    },
    {
      "inputs": [
        {
          "internalType": "uint32",
          "name": "_loanId",
          "type": "uint32"
        }
      ],
      "name": "liquidateOverdueLoan",
      "outputs": [],
      "stateMutability": "nonpayable",
      "type": "function"
    },
    {
      "inputs": [
        {
          "internalType": "uint32",
          "name": "",
          "type": "uint32"
        }
      ],
      "name": "loanIdToLoan",
      "outputs": [
        {
          "internalType": "uint256",
          "name": "loanPrincipalAmount",
          "type": "uint256"
        },
        {
          "internalType": "uint256",
          "name": "maximumRepaymentAmount",
          "type": "uint256"
        },
        {
          "internalType": "uint256",
          "name": "nftCollateralId",
          "type": "uint256"
        },
        {
          "internalType": "address",
          "name": "loanERC20Denomination",
          "type": "address"
        },
        {
          "internalType": "uint32",
          "name": "loanDuration",
          "type": "uint32"
        },
        {
          "internalType": "uint16",
          "name": "loanInterestRateForDurationInBasisPoints",
          "type": "uint16"
        },
        {
          "internalType": "uint16",
          "name": "loanAdminFeeInBasisPoints",
          "type": "uint16"
        },
        {
          "internalType": "address",
          "name": "nftCollateralWrapper",
          "type": "address"
        },
        {
          "internalType": "uint64",
          "name": "loanStartTime",
          "type": "uint64"
        },
        {
          "internalType": "address",
          "name": "nftCollateralContract",
          "type": "address"
        },
        {
          "internalType": "address",
          "name": "borrower",
          "type": "address"
        }
      ],
      "stateMutability": "view",
      "type": "function"
    },
    {
      "inputs": [
        {
          "internalType": "uint32",
          "name": "",
          "type": "uint32"
        }
      ],
      "name": "loanIdToLoanExtras",
      "outputs": [
        {
          "internalType": "address",
          "name": "revenueSharePartner",
          "type": "address"
        },
        {
          "internalType": "uint16",
          "name": "revenueShareInBasisPoints",
          "type": "uint16"
        },
        {
          "internalType": "uint16",
          "name": "referralFeeInBasisPoints",
          "type": "uint16"
        }
      ],
      "stateMutability": "view",
      "type": "function"
    },
    {
      "inputs": [
        {
          "internalType": "uint32",
          "name": "",
          "type": "uint32"
        }
      ],
      "name": "loanRepaidOrLiquidated",
      "outputs": [
        {
          "internalType": "bool",
          "name": "",
          "type": "bool"
        }
      ],
      "stateMutability": "view",
      "type": "function"
    },
    {
      "inputs": [],
      "name": "maximumLoanDuration",
      "outputs": [
        {
          "internalType": "uint256",
          "name": "",
          "type": "uint256"
        }
      ],
      "stateMutability": "view",
      "type": "function"
    },
    {
      "inputs": [
        {
          "internalType": "uint32",
          "name": "_loanId",
          "type": "uint32"
        }
      ],
      "name": "mintObligationReceipt",
      "outputs": [],
      "stateMutability": "nonpayable",
      "type": "function"
    },
    {
      "inputs": [
        {
          "internalType": "address",
          "name": "",
          "type": "address"
        },
        {
          "internalType": "address",
          "name": "",
          "type": "address"
        },
        {
          "internalType": "uint256[]",
          "name": "",
          "type": "uint256[]"
        },
        {
          "internalType": "uint256[]",
          "name": "",
          "type": "uint256[]"
        },
        {
          "internalType": "bytes",
          "name": "",
          "type": "bytes"
        }
      ],
      "name": "onERC1155BatchReceived",
      "outputs": [
        {
          "internalType": "bytes4",
          "name": "",
          "type": "bytes4"
        }
      ],
      "stateMutability": "nonpayable",
      "type": "function"
    },
    {
      "inputs": [
        {
          "internalType": "address",
          "name": "",
          "type": "address"
        },
        {
          "internalType": "address",
          "name": "",
          "type": "address"
        },
        {
          "internalType": "uint256",
          "name": "",
          "type": "uint256"
        },
        {
          "internalType": "uint256",
          "name": "",
          "type": "uint256"
        },
        {
          "internalType": "bytes",
          "name": "",
          "type": "bytes"
        }
      ],
      "name": "onERC1155Received",
      "outputs": [
        {
          "internalType": "bytes4",
          "name": "",
          "type": "bytes4"
        }
      ],
      "stateMutability": "nonpayable",
      "type": "function"
    },
    {
      "inputs": [
        {
          "internalType": "address",
          "name": "",
          "type": "address"
        },
        {
          "internalType": "address",
          "name": "",
          "type": "address"
        },
        {
          "internalType": "uint256",
          "name": "",
          "type": "uint256"
        },
        {
          "internalType": "bytes",
          "name": "",
          "type": "bytes"
        }
      ],
      "name": "onERC721Received",
      "outputs": [
        {
          "internalType": "bytes4",
          "name": "",
          "type": "bytes4"
        }
      ],
      "stateMutability": "nonpayable",
      "type": "function"
    },
    {
      "inputs": [],
      "name": "owner",
      "outputs": [
        {
          "internalType": "address",
          "name": "",
          "type": "address"
        }
      ],
      "stateMutability": "view",
      "type": "function"
    },
    {
      "inputs": [],
      "name": "pause",
      "outputs": [],
      "stateMutability": "nonpayable",
      "type": "function"
    },
    {
      "inputs": [],
      "name": "paused",
      "outputs": [
        {
          "internalType": "bool",
          "name": "",
          "type": "bool"
        }
      ],
      "stateMutability": "view",
      "type": "function"
    },
    {
      "inputs": [
        {
          "internalType": "uint32",
          "name": "_loanId",
          "type": "uint32"
        }
      ],
      "name": "payBackLoan",
      "outputs": [],
      "stateMutability": "nonpayable",
      "type": "function"
    },
    {
      "inputs": [
        {
          "internalType": "uint32",
          "name": "_loanId",
          "type": "uint32"
        },
        {
          "internalType": "address",
          "name": "_target",
          "type": "address"
        },
        {
          "internalType": "bytes",
          "name": "_data",
          "type": "bytes"
        },
        {
          "internalType": "address",
          "name": "_nftAirdrop",
          "type": "address"
        },
        {
          "internalType": "uint256",
          "name": "_nftAirdropId",
          "type": "uint256"
        },
        {
          "internalType": "bool",
          "name": "_is1155",
          "type": "bool"
        },
        {
          "internalType": "uint256",
          "name": "_nftAirdropAmount",
          "type": "uint256"
        }
      ],
      "name": "pullAirdrop",
      "outputs": [],
      "stateMutability": "nonpayable",
      "type": "function"
    },
    {
      "inputs": [
        {
          "internalType": "uint32",
          "name": "_loanId",
          "type": "uint32"
        },
        {
          "internalType": "uint32",
          "name": "_newLoanDuration",
          "type": "uint32"
        },
        {
          "internalType": "uint256",
          "name": "_newMaximumRepaymentAmount",
          "type": "uint256"
        },
        {
          "internalType": "uint256",
          "name": "_renegotiationFee",
          "type": "uint256"
        },
        {
          "internalType": "uint256",
          "name": "_lenderNonce",
          "type": "uint256"
        },
        {
          "internalType": "uint256",
          "name": "_expiry",
          "type": "uint256"
        },
        {
          "internalType": "bytes",
          "name": "_lenderSignature",
          "type": "bytes"
        }
      ],
      "name": "renegotiateLoan",
      "outputs": [],
      "stateMutability": "nonpayable",
      "type": "function"
    },
    {
      "inputs": [
        {
          "internalType": "address",
          "name": "_erc20",
          "type": "address"
        },
        {
          "internalType": "bool",
          "name": "_permit",
          "type": "bool"
        }
      ],
      "name": "setERC20Permit",
      "outputs": [],
      "stateMutability": "nonpayable",
      "type": "function"
    },
    {
      "inputs": [
        {
          "internalType": "address[]",
          "name": "_erc20s",
          "type": "address[]"
        },
        {
          "internalType": "bool[]",
          "name": "_permits",
          "type": "bool[]"
        }
      ],
      "name": "setERC20Permits",
      "outputs": [],
      "stateMutability": "nonpayable",
      "type": "function"
    },
    {
      "inputs": [
        {
          "internalType": "bytes4",
          "name": "_interfaceId",
          "type": "bytes4"
        }
      ],
      "name": "supportsInterface",
      "outputs": [
        {
          "internalType": "bool",
          "name": "",
          "type": "bool"
        }
      ],
      "stateMutability": "view",
      "type": "function"
    },
    {
      "inputs": [
        {
          "internalType": "address",
          "name": "_newOwner",
          "type": "address"
        }
      ],
      "name": "transferOwnership",
      "outputs": [],
      "stateMutability": "nonpayable",
      "type": "function"
    },
    {
      "inputs": [],
      "name": "unpause",
      "outputs": [],
      "stateMutability": "nonpayable",
      "type": "function"
    },
    {
      "inputs": [
        {
          "internalType": "uint16",
          "name": "_newAdminFeeInBasisPoints",
          "type": "uint16"
        }
      ],
      "name": "updateAdminFee",
      "outputs": [],
      "stateMutability": "nonpayable",
      "type": "function"
    },
    {
      "inputs": [
        {
          "internalType": "uint256",
          "name": "_newMaximumLoanDuration",
          "type": "uint256"
        }
      ],
      "name": "updateMaximumLoanDuration",
      "outputs": [],
      "stateMutability": "nonpayable",
      "type": "function"
    },
    {
      "inputs": [
        {
          "internalType": "uint32",
          "name": "_loanId",
          "type": "uint32"
        }
      ],
      "name": "wrapCollateral",
      "outputs": [],
      "stateMutability": "nonpayable",
      "type": "function"
    }
  ],
  "transactionHash": "0x7768d2231252c8ce18580837eeb19ab80b661a91a927c2d1b37f88afb4b74983",
  "args": [
    "0x214a4bC7C7843918DDbeF45EE47EBEd1688B0ff2",
    "0xd99b8075Cb583FdE8F60A2C3aC84eE37c701a578",
    [
      "0xc02aaa39b223fe8d0a0e5c4f27ead9083c756cc2",
      "0x6b175474e89094c44da98b954eedeac495271d0f"
    ]
  ],
  "numDeployments": 1,
  "solcInputHash": "e960dbb71492b307ed8580de393cc147",
  "bytecode": "0x60c06040526301e91c806002556003805461ffff191660191790553480156200002757600080fd5b5060405162005043380380620050438339810160408190526200004a91620002ca565b60405163f99a8ffb60e01b815260206004820152601760248201527f4449524543545f4c4f414e5f434f4f5244494e41544f5200000000000000000060448201528390839073C0691b4bb84f05ec8E2255a50487C8d67BAc75399063f99a8ffb9060640160206040518083038186803b158015620000c757600080fd5b505af4158015620000dc573d6000803e3d6000fd5b505050506040513d601f19601f82011682018060405250810190620001029190620003c6565b8383806200011081620001a3565b50506000805460ff60a01b19168155600180556001600160601b0319606085901b1660a05260808390525b81518110156200019557620001808282815181106200016a57634e487b7160e01b600052603260045260246000fd5b60200260200101516001620001f360201b60201c565b806200018c81620003df565b9150506200013b565b50505050505050506200041d565b600080546001600160a01b038381166001600160a01b0319831681178455604051919092169283917f8be0079c531659141344cd1fd0a4f28419497f9722a3daafe3b4186f6b6457e09190a35050565b6001600160a01b0382166200024e5760405162461bcd60e51b815260206004820152601560248201527f6572633230206973207a65726f20616464726573730000000000000000000000604482015260640160405180910390fd5b6001600160a01b038216600081815260096020908152604091829020805460ff191685151590811790915591519182527ff100355be652ecc881568750e6a98c0713e4316f75d5314ebc9039e0acb52f24910160405180910390a25050565b80516001600160a01b0381168114620002c557600080fd5b919050565b600080600060608486031215620002df578283fd5b620002ea84620002ad565b92506020620002fb818601620002ad565b60408601519093506001600160401b038082111562000318578384fd5b818701915087601f8301126200032c578384fd5b81518181111562000341576200034162000407565b8060051b604051601f19603f8301168101818110858211171562000369576200036962000407565b604052828152858101935084860182860187018c101562000388578788fd5b8795505b83861015620003b557620003a081620002ad565b8552600195909501949386019386016200038c565b508096505050505050509250925092565b600060208284031215620003d8578081fd5b5051919050565b60006000198214156200040057634e487b7160e01b81526011600452602481fd5b5060010190565b634e487b7160e01b600052604160045260246000fd5b60805160a05160601c614b8d620004b6600039600081816104760152818161092c01528181610a9401528181610c1e0152818161101e01528181611128015281816116ad01528181611a3a01528181611c870152818161233f015281816127cb01528181612a1801528181612ce0015261360901526000818161054301528181611a1101528181611c5e01526135e00152614b8d6000f3fe608060405234801561001057600080fd5b50600436106101dc5760003560e01c8063616693d811610105578063a4441a6f1161009d578063a4441a6f146105da578063ab3b1280146105e8578063ac4e35ea14610611578063b18e777214610624578063b31ec1d414610637578063bc197c811461064a578063bce42e421461065d578063f23a6e6114610670578063f2fde38b1461069057600080fd5b8063616693d8146105015780636ed93dd01461052257806377cfa9911461053e5780637836baf11461056557806379b64040146105785780638456cb591461058b578063872873be146105935780638da5cb5b146105bf5780639658e405146105c757600080fd5b8063318dacd311610178578063318dacd314610425578063328404b014610438578063365a86fc146104715780633f4ba83a146104a557806347948d92146104ad5780635163a1c3146104c057806356efe98c146104d357806359a72734146104e65780635c975abb146104f957600080fd5b806301ffc9a7146101e157806305b406cf146102095780630717f3aa1461021e5780630ff81c3f14610241578063150b7a02146102ab578063192b355d146102e25780631c6caf41146102f9578063227cda181461030c5780632b21802214610412575b600080fd5b6101f46101ef366004614158565b6106a3565b60405190151581526020015b60405180910390f35b61021c610217366004613db2565b6106f5565b005b6101f461022c366004614341565b60066020526000908152604090205460ff1681565b61028161024f366004614341565b6005602052600090815260409020546001600160a01b0381169061ffff600160a01b8204811691600160b01b90041683565b604080516001600160a01b03909416845261ffff9283166020850152911690820152606001610200565b6102c96102b9366004613ed2565b630a85bd0160e11b949350505050565b6040516001600160e01b03199091168152602001610200565b6102eb60025481565b604051908152602001610200565b61021c6103073660046142d9565b61080c565b61039e61031a366004614341565b600460208190526000918252604090912080546001820154600283015460038401549484015460058501546006909501549395929491936001600160a01b0380851694600160a01b80820463ffffffff1695600160c01b830461ffff90811696600160d01b909404169484841694929093046001600160401b03169290821691168b565b604080519b8c5260208c019a909a52988a01979097526001600160a01b0395861660608a015263ffffffff909416608089015261ffff92831660a0890152911660c0870152821660e08601526001600160401b03166101008501529081166101208401521661014082015261016001610200565b61021c610420366004614341565b6108d3565b61021c610433366004614379565b610a3b565b6101f4610446366004613fe1565b6001600160a01b03919091166000908152600860209081526040808320938352929052205460ff1690565b6104987f000000000000000000000000000000000000000000000000000000000000000081565b60405161020091906145f4565b61021c610c83565b61021c6104bb366004614311565b610cbc565b61021c6104ce366004614039565b610d6d565b61021c6104e13660046141fe565b610f07565b61021c6104f4366004614341565b610fc5565b6101f4611208565b6102eb762224a922a1aa2fa627a0a72fa324ac22a22fa7a32322a960491b81565b61052b61271081565b60405161ffff9091168152602001610200565b6102eb7f000000000000000000000000000000000000000000000000000000000000000081565b61021c610573366004613fb4565b611218565b61021c61058636600461407a565b611255565b61021c61136c565b6101f46105a1366004613d7a565b6001600160a01b031660009081526009602052604090205460ff1690565b6104986113a3565b61021c6105d5366004614311565b6113b2565b60035461052b9061ffff1681565b6102eb6105f6366004614341565b63ffffffff1660009081526004602052604090206001015490565b61021c61061f366004614039565b611433565b61021c610632366004614418565b6115eb565b61021c610645366004614341565b611654565b6102c9610658366004613e18565b611922565b61021c61066b366004614341565b61196d565b6102c961067e366004613f3b565b63f23a6e6160e01b9695505050505050565b61021c61069e366004613d7a565b611b4e565b60006001600160e01b03198216630271189760e51b14806106d457506001600160e01b03198216630a85bd0160e11b145b806106ef57506001600160e01b031982166301ffc9a760e01b145b92915050565b336106fe6113a3565b6001600160a01b03161461072d5760405162461bcd60e51b8152600401610724906146b9565b60405180910390fd5b6040516370a0823160e01b815282906000906001600160a01b038316906370a082319061075e9030906004016145f4565b60206040518083038186803b15801561077657600080fd5b505afa15801561078a573d6000803e3d6000fd5b505050506040513d601f19601f820116820180604052508101906107ae9190614329565b9050600081116107f25760405162461bcd60e51b815260206004820152600f60248201526e1b9bc81d1bdad95b9cc81bdddb9959608a1b6044820152606401610724565b6108066001600160a01b0383168483611bee565b50505050565b336108156113a3565b6001600160a01b03161461083b5760405162461bcd60e51b8152600401610724906146b9565b61271061ffff821611156108885760405162461bcd60e51b81526020600482015260146024820152730626173697320706f696e7473203e2031303030360641b6044820152606401610724565b6003805461ffff191661ffff83169081179091556040519081527f03017365bbe16943b524030df07e7689168ab63e854d27417498e6f9dc584dab906020015b60405180910390a150565b600260015414156108f65760405162461bcd60e51b81526004016107249061471b565b600260015560405163364d0abb60e11b8152736048C06d97BA978A203519a0d079AeAFf2B4ADe290636c9a1576906109549084907f000000000000000000000000000000000000000000000000000000000000000090600401614932565b60006040518083038186803b15801561096c57600080fd5b505af4158015610980573d6000803e3d6000fd5b5050505060008060008061099385611c44565b93509350935093506109a785858585612058565b6109b38585848461226e565b5050505063ffffffff1660009081526004602081815260408084208481556001808201869055600282018690556003820180546001600160e01b03199081169091559482018054909516909455600580820180546001600160a01b03199081169091556006909201805490921690915590915290912080546001600160c01b03191690558055565b60026001541415610a5e5760405162461bcd60e51b81526004016107249061471b565b6002600155604051635bfd0fb160e11b8152736048C06d97BA978A203519a0d079AeAFf2B4ADe29063b7fa1f6290610abc908b907f000000000000000000000000000000000000000000000000000000000000000090600401614932565b60006040518083038186803b158015610ad457600080fd5b505af4158015610ae8573d6000803e3d6000fd5b5050505063ffffffff881660009081526006602052604090205460ff1615610b225760405162461bcd60e51b815260040161072490614658565b63ffffffff8881166000908152600460208181526040928390208351610160810185528154815260018201549281019290925260028101548285015260038101546001600160a01b038082166060850152600160a01b8083049097166080850152600160c01b820461ffff90811660a0860152600160d01b90920490911660c08401528184015480821660e0850152959095046001600160401b03166101008301526005810154851661012083015260060154909316610140840152905163491bd44160e11b815273A1D4FD6C256d6eF5661f7C01DD2B95e90C02d35791639237a88291610c44918d9186918e918e918e918e918e918e918e917f00000000000000000000000000000000000000000000000000000000000000009101614951565b60006040518083038186803b158015610c5c57600080fd5b505af4158015610c70573d6000803e3d6000fd5b5050600180555050505050505050505050565b33610c8c6113a3565b6001600160a01b031614610cb25760405162461bcd60e51b8152600401610724906146b9565b610cba612284565b565b33610cc56113a3565b6001600160a01b031614610ceb5760405162461bcd60e51b8152600401610724906146b9565b63ffffffff811115610d385760405162461bcd60e51b81526020600482015260166024820152754c6f616e206475726174696f6e206f766572666c6f7760501b6044820152606401610724565b60028190556040518181527f64f65a4a1a932867ad599da36210fc47c698b3abb2413cfdfd36bf59697a69cb906020016108c8565b33610d766113a3565b6001600160a01b031614610d9c5760405162461bcd60e51b8152600401610724906146b9565b6001600160a01b0383166000908152600760209081526040808320858452909152902054839015610ddf5760405162461bcd60e51b8152600401610724906146ee565b6040516331a9108f60e11b81526004810184905230906001600160a01b03831690636352211e9060240160206040518083038186803b158015610e2157600080fd5b505afa158015610e35573d6000803e3d6000fd5b505050506040513d601f19601f82011682018060405250810190610e599190613d96565b6001600160a01b031614610e9f5760405162461bcd60e51b815260206004820152600d60248201526c1b999d081b9bdd081bdddb9959609a1b6044820152606401610724565b604051632142170760e11b81526001600160a01b038216906342842e0e90610ecf90309086908890600401614608565b600060405180830381600087803b158015610ee957600080fd5b505af1158015610efd573d6000803e3d6000fd5b5050505050505050565b610f0f611208565b15610f2c5760405162461bcd60e51b81526004016107249061468f565b60026001541415610f4f5760405162461bcd60e51b81526004016107249061471b565b60026001556060830151600090610f6590612316565b9050610f71848261243c565b610f7a84612661565b610fbb762224a922a1aa2fa627a0a72fa324ac22a22fa7a32322a960491b610fa286846126cc565b610fb485600001518660200151612780565b878761287e565b5050600180555050565b60026001541415610fe85760405162461bcd60e51b81526004016107249061471b565b6002600155604051635bfd0fb160e11b8152736048C06d97BA978A203519a0d079AeAFf2B4ADe29063b7fa1f62906110469084907f000000000000000000000000000000000000000000000000000000000000000090600401614932565b60006040518083038186803b15801561105e57600080fd5b505af4158015611072573d6000803e3d6000fd5b5050505063ffffffff811660009081526006602052604090205460ff16156110ac5760405162461bcd60e51b815260040161072490614658565b63ffffffff8116600090815260046020908152604080832060058101546001600160a01b0316845260078352818420600282015485529092528220805491926001926110f9908490614ab1565b9091555050604051631276b77d60e11b815263ffffffff83166004820152602481018290526001600160a01b037f0000000000000000000000000000000000000000000000000000000000000000166044820152600090819073A1D4FD6C256d6eF5661f7C01DD2B95e90C02d357906324ed6efa90606401604080518083038186803b15801561118857600080fd5b505af415801561119c573d6000803e3d6000fd5b505050506040513d601f19601f820116820180604052508101906111c0919061400c565b6001600160a01b0382166000908152600760209081526040808320848452909152812080549395509193506001926111f9908490614a99565b90915550506001805550505050565b600054600160a01b900460ff1690565b336112216113a3565b6001600160a01b0316146112475760405162461bcd60e51b8152600401610724906146b9565b6112518282612b7e565b5050565b3361125e6113a3565b6001600160a01b0316146112845760405162461bcd60e51b8152600401610724906146b9565b80518251146112f15760405162461bcd60e51b815260206004820152603360248201527f73657445524332305065726d6974732066756e6374696f6e20696e666f726d616044820152720e8d2dedc40c2e4d2e8f240dad2e6dac2e8c6d606b1b6064820152608401610724565b60005b82518110156113675761135583828151811061132057634e487b7160e01b600052603260045260246000fd5b602002602001015183838151811061134857634e487b7160e01b600052603260045260246000fd5b6020026020010151612b7e565b8061135f81614af4565b9150506112f4565b505050565b336113756113a3565b6001600160a01b03161461139b5760405162461bcd60e51b8152600401610724906146b9565b610cba612c2b565b6000546001600160a01b031690565b33600090815260086020908152604080832084845290915290205460ff161561140d5760405162461bcd60e51b815260206004820152600d60248201526c496e76616c6964206e6f6e636560981b6044820152606401610724565b33600090815260086020908152604080832093835292905220805460ff19166001179055565b3361143c6113a3565b6001600160a01b0316146114625760405162461bcd60e51b8152600401610724906146b9565b604051627eeac760e11b815283906000906001600160a01b0383169062fdd58e90611493903090889060040161462c565b60206040518083038186803b1580156114ab57600080fd5b505afa1580156114bf573d6000803e3d6000fd5b505050506040513d601f19601f820116820180604052508101906114e39190614329565b6001600160a01b0386166000908152600760209081526040808320888452909152902054909150156115275760405162461bcd60e51b8152600401610724906146ee565b600081116115675760405162461bcd60e51b815260206004820152600d60248201526c1b9bc81b999d1cc81bdddb9959609a1b6044820152606401610724565b604051637921219560e11b81523060048201526001600160a01b038481166024830152604482018690526064820183905260a06084830152600060a483015283169063f242432a9060c401600060405180830381600087803b1580156115cc57600080fd5b505af11580156115e0573d6000803e3d6000fd5b505050505050505050565b6115f3611208565b156116105760405162461bcd60e51b81526004016107249061468f565b600260015414156116335760405162461bcd60e51b81526004016107249061471b565b600260015561164787878787878787612c8b565b5050600180555050505050565b600260015414156116775760405162461bcd60e51b81526004016107249061471b565b6002600155604051635bfd0fb160e11b8152736048C06d97BA978A203519a0d079AeAFf2B4ADe29063b7fa1f62906116d59084907f000000000000000000000000000000000000000000000000000000000000000090600401614932565b60006040518083038186803b1580156116ed57600080fd5b505af4158015611701573d6000803e3d6000fd5b5050505063ffffffff811660009081526006602052604090205460ff161561173b5760405162461bcd60e51b815260040161072490614658565b60008060008061174a85611c44565b93509350935093506000826080015163ffffffff168361010001516001600160401b03166117789190614a99565b90508042116117c35760405162461bcd60e51b8152602060048201526017602482015276131bd85b881a5cc81b9bdd081bdd995c991d59481e595d604a1b6044820152606401610724565b336001600160a01b038516146118175760405162461bcd60e51b81526020600482015260196024820152784f6e6c79206c656e6465722063616e206c697175696461746560381b6044820152606401610724565b6118238685858561226e565b8251604080850151610120860151825193845260208401919091529082018390524260608301526001600160a01b039081166080830152808616919087169063ffffffff8916907f4fac0ff43299a330bce57d0579985305af580acf256a6d7977083ede81be13269060a00160405180910390a450505063ffffffff90921660009081526004602081815260408084208481556001808201869055600282018690556003820180546001600160e01b03199081169091559482018054909516909455600580820180546001600160a01b03199081169091556006909201805490921690915590915290912080546001600160c01b031916905580555050565b60405162461bcd60e51b815260206004820152601b60248201527f45524331313535206261746368206e6f7420737570706f7274656400000000006044820152600090606401610724565b600260015414156119905760405162461bcd60e51b81526004016107249061471b565b600260015563ffffffff81166000908152600460205260409020600601546001600160a01b0316338114611a025760405162461bcd60e51b815260206004820152601960248201527839b2b73232b9103430b9903a37903132903137b93937bbb2b960391b6044820152606401610724565b604051631c2d8fb360e31b81527f000000000000000000000000000000000000000000000000000000000000000060048201526000907f00000000000000000000000000000000000000000000000000000000000000006001600160a01b03169063e16c7d989060240160206040518083038186803b158015611a8457600080fd5b505afa158015611a98573d6000803e3d6000fd5b505050506040513d601f19601f82011682018060405250810190611abc9190613d96565b604051631b982cf160e01b81529091506001600160a01b03821690631b982cf190611aed9086908690600401614932565b600060405180830381600087803b158015611b0757600080fd5b505af1158015611b1b573d6000803e3d6000fd5b50505063ffffffff909316600090815260046020526040902060060180546001600160a01b031916905550506001805550565b33611b576113a3565b6001600160a01b031614611b7d5760405162461bcd60e51b8152600401610724906146b9565b6001600160a01b038116611be25760405162461bcd60e51b815260206004820152602660248201527f4f776e61626c653a206e6577206f776e657220697320746865207a65726f206160448201526564647265737360d01b6064820152608401610724565b611beb8161300a565b50565b6113678363a9059cbb60e01b8484604051602401611c0d92919061462c565b60408051601f198184030181529190526020810180516001600160e01b03166001600160e01b03199093169290921790915261305a565b600080611c4f613aa0565b604051631c2d8fb360e31b81527f000000000000000000000000000000000000000000000000000000000000000060048201526000907f00000000000000000000000000000000000000000000000000000000000000006001600160a01b03169063e16c7d989060240160206040518083038186803b158015611cd157600080fd5b505afa158015611ce5573d6000803e3d6000fd5b505050506040513d601f19601f82011682018060405250810190611d099190613d96565b60405163e6c5a54160e01b815263ffffffff871660048201529091506000906001600160a01b0383169063e6c5a5419060240160606040518083038186803b158015611d5457600080fd5b505afa158015611d68573d6000803e3d6000fd5b505050506040513d601f19601f82011682018060405250810190611d8c9190614180565b60208181015163ffffffff898116600090815260048085526040918290208251610160810184528154815260018201549681019690965260028101549286019290925260038201546001600160a01b038082166060880152600160a01b8083049095166080880152600160c01b820461ffff90811660a0890152600160d01b90920490911660c08701529082015480821660e08701526001600160401b03939004831661010086015260058201548116610120860152600690910154166101408401819052929650929350919091169015611e6e578361014001519550611f5f565b826001600160a01b0316638208e76c6040518163ffffffff1660e01b815260040160206040518083038186803b158015611ea757600080fd5b505afa158015611ebb573d6000803e3d6000fd5b505050506040513d601f19601f82011682018060405250810190611edf9190613d96565b6001600160a01b0316636352211e826040518263ffffffff1660e01b8152600401611f0c91815260200190565b60206040518083038186803b158015611f2457600080fd5b505afa158015611f38573d6000803e3d6000fd5b505050506040513d601f19601f82011682018060405250810190611f5c9190613d96565b95505b826001600160a01b0316634fbe68a06040518163ffffffff1660e01b815260040160206040518083038186803b158015611f9857600080fd5b505afa158015611fac573d6000803e3d6000fd5b505050506040513d601f19601f82011682018060405250810190611fd09190613d96565b6001600160a01b0316636352211e826040518263ffffffff1660e01b8152600401611ffd91815260200190565b60206040518083038186803b15801561201557600080fd5b505afa158015612029573d6000803e3d6000fd5b505050506040513d601f19601f8201168201806040525081019061204d9190613d96565b945050509193509193565b63ffffffff84166000908152600560209081526040808320815160608101835290546001600160a01b038116825261ffff600160a01b8204811694830194909452600160b01b90049092169082015290806120b28461312c565b606086015191935091506120d1906001600160a01b03163387846131f5565b6020830151604051637f5e0ed360e01b81526004810184905261ffff9091166024820152600090736048C06d97BA978A203519a0d079AeAFf2B4ADe290637f5e0ed39060440160206040518083038186803b15801561212f57600080fd5b505af4158015612143573d6000803e3d6000fd5b505050506040513d601f19601f820116820180604052508101906121679190614329565b9050600081118015612182575083516001600160a01b031615155b156121b1576121918184614ab1565b845160608701519194506121b1916001600160a01b0316903390846131f5565b6121d3336121bd6113a3565b60608801516001600160a01b03169190866131f5565b845160408087015186516101208901516060808b0151855196875260208701949094528585018890528501889052608085018690526001600160a01b0391821660a0860152811660c085015290811660e0840152905188821692918a169163ffffffff8c16917f3687d64f40b11dd1c102a76882ac1735891c546a96ae27935eb5c7865b9d86fa918190036101000190a45050505050505050565b612279848383613216565b6108068230856132d9565b61228c611208565b6122cf5760405162461bcd60e51b815260206004820152601460248201527314185d5cd8589b194e881b9bdd081c185d5cd95960621b6044820152606401610724565b6000805460ff60a01b191690557f5db9ee0a495bf2e6ff9c91a7834c1ba4fdd244a5e8aa4e537bd38aeae4b073aa335b60405161230c91906145f4565b60405180910390a1565b604051631c2d8fb360e31b81526d5045524d49545445445f4e46545360901b60048201526000907f00000000000000000000000000000000000000000000000000000000000000006001600160a01b03169063e16c7d989060240160206040518083038186803b15801561238957600080fd5b505afa15801561239d573d6000803e3d6000fd5b505050506040513d601f19601f820116820180604052508101906123c19190613d96565b6001600160a01b031663b8c8aff8836040518263ffffffff1660e01b81526004016123ec91906145f4565b60206040518083038186803b15801561240457600080fd5b505afa158015612418573d6000803e3d6000fd5b505050506040513d601f19601f820116820180604052508101906106ef9190613d96565b60c08201516001600160a01b031660009081526009602052604090205460ff166124b75760405162461bcd60e51b815260206004820152602660248201527f43757272656e63792064656e6f6d696e6174696f6e206973206e6f74207065726044820152651b5a5d1d195960d21b6064820152608401610724565b6001600160a01b03811661251e5760405162461bcd60e51b815260206004820152602860248201527f4e465420636f6c6c61746572616c20636f6e7472616374206973206e6f742070604482015267195c9b5a5d1d195960c21b6064820152608401610724565b600254826080015163ffffffff16111561258e5760405162461bcd60e51b815260206004820152602b60248201527f4c6f616e206475726174696f6e2065786365656473206d6178696d756d206c6f60448201526a30b710323ab930ba34b7b760a91b6064820152608401610724565b608082015163ffffffff166125e55760405162461bcd60e51b815260206004820152601c60248201527f4c6f616e206475726174696f6e2063616e6e6f74206265207a65726f000000006044820152606401610724565b60035460a083015161ffff9081169116146112515760405162461bcd60e51b815260206004820152603660248201527f5468652061646d696e2066656520686173206368616e6765642073696e6365206044820152753a3434b99037b93232b9103bb0b99039b4b3b732b21760511b6064820152608401610724565b805160208201511015611beb5760405162461bcd60e51b815260206004820152602d60248201527f4e6567617469766520696e7465726573742072617465206c6f616e732061726560448201526c103737ba1030b63637bbb2b21760991b6064820152608401610724565b6126d4613aa0565b6040518061016001604052808460000151815260200184602001518152602001846040015181526020018460c001516001600160a01b03168152602001846080015163ffffffff168152602001600061ffff1681526020018460a0015161ffff168152602001836001600160a01b03168152602001426001600160401b0316815260200184606001516001600160a01b03168152602001336001600160a01b0316815250905092915050565b6040805160608101825260008082526020820181905291810191909152604080516060810182526001600160a01b0380861680835292516347e332df60e11b815260048101939093527f0000000000000000000000000000000000000000000000000000000000000000166024830152906020820190736048C06d97BA978A203519a0d079AeAFf2B4ADe290638fc665be9060440160206040518083038186803b15801561282d57600080fd5b505af4158015612841573d6000803e3d6000fd5b505050506040513d601f19601f8201168201806040525081019061286591906142f5565b61ffff1681526020018361ffff16815250905092915050565b6040808201516001600160a01b0316600090815260086020908152828220845183529052205460ff16156128eb5760405162461bcd60e51b815260206004820152601460248201527313195b99195c881b9bdb98d9481a5b9d985b1a5960621b6044820152606401610724565b6040808201516001600160a01b0316600090815260086020908152828220845183529052819020805460ff191660011790555163eb2ac63f60e01b81527360Da568b88037d0735715819a37714d28BD563479063eb2ac63f9061295490859085906004016148a3565b60206040518083038186803b15801561296c57600080fd5b505af4158015612980573d6000803e3d6000fd5b505050506040513d601f19601f820116820180604052508101906129a4919061413c565b6129f05760405162461bcd60e51b815260206004820152601b60248201527f4c656e646572207369676e617475726520697320696e76616c696400000000006044820152606401610724565b604051631c2d8fb360e31b81526c27232a2324afa12aa7222622a960991b60048201526000907f00000000000000000000000000000000000000000000000000000000000000006001600160a01b03169063e16c7d989060240160206040518083038186803b158015612a6257600080fd5b505afa158015612a76573d6000803e3d6000fd5b505050506040513d601f19601f82011682018060405250810190612a9a9190613d96565b9050806001600160a01b03168561012001516001600160a01b03161415612b035760405162461bcd60e51b815260206004820152601b60248201527f436f6c6c61746572616c2063616e6e6f742062652062756e646c6500000000006044820152606401610724565b6000612b1b8787873387604001518960e0015161337c565b905082604001516001600160a01b0316336001600160a01b03168263ffffffff167f42cc7f53ef7b494c5dd6f0095175f7d07b5d3d7b2a03f34389fea445ba4a3a8b8989604051612b6d929190614752565b60405180910390a450505050505050565b6001600160a01b038216612bcc5760405162461bcd60e51b81526020600482015260156024820152746572633230206973207a65726f206164647265737360581b6044820152606401610724565b6001600160a01b038216600081815260096020908152604091829020805460ff191685151590811790915591519182527ff100355be652ecc881568750e6a98c0713e4316f75d5314ebc9039e0acb52f24910160405180910390a25050565b612c33611208565b15612c505760405162461bcd60e51b81526004016107249061468f565b6000805460ff60a01b1916600160a01b1790557f62e78cea01bee320cd4e420270b5ea74000d11b0c9f74754ebdbfc544b05a2586122ff3390565b63ffffffff87166000908152600460208190526040808320905163b5ec526360e01b81529092918291736048C06d97BA978A203519a0d079AeAFf2B4ADe29163b5ec526391612d069187918f918f918f918e917f00000000000000000000000000000000000000000000000000000000000000009101614798565b604080518083038186803b158015612d1d57600080fd5b505af4158015612d31573d6000803e3d6000fd5b505050506040513d601f19601f82011682018060405250810190612d559190613dea565b6001600160a01b03811660008181526008602090815260408083208c8452825291829020805460ff1916600117905581516080810183528b81529081018a905280820192909252606082018890525163d06ff74160e01b81529294509092507360Da568b88037d0735715819a37714d28BD563479163d06ff74191612de4918e918e918e918e916004016149e8565b60206040518083038186803b158015612dfc57600080fd5b505af4158015612e10573d6000803e3d6000fd5b505050506040513d601f19601f82011682018060405250810190612e34919061413c565b612e8b5760405162461bcd60e51b815260206004820152602260248201527f52656e65676f74696174696f6e207369676e617475726520697320696e76616c6044820152611a5960f21b6064820152608401610724565b60008715612f75576003840154604051632ad659af60e01b8152600481018a9052600160d01b90910461ffff166024820152736048C06d97BA978A203519a0d079AeAFf2B4ADe290632ad659af9060440160206040518083038186803b158015612ef457600080fd5b505af4158015612f08573d6000803e3d6000fd5b505050506040513d601f19601f82011682018060405250810190612f2c9190614329565b9050612f538383612f3d848c614ab1565b60038801546001600160a01b03169291906131f5565b612f7583612f5f6113a3565b60038701546001600160a01b03169190846131f5565b60038401805463ffffffff60a01b1916600160a01b63ffffffff8d811691820292909217909255600186018b905560408051928352602083018c905282018a9052606082018390526001600160a01b0384811692908616918e16907f37357bed780fda5aed28c32fe9cd762cb2f2f8a70c0d9b342aba59c945943ca09060800160405180910390a45050505050505050505050565b600080546001600160a01b038381166001600160a01b0319831681178455604051919092169283917f8be0079c531659141344cd1fd0a4f28419497f9722a3daafe3b4186f6b6457e09190a35050565b60006130af826040518060400160405280602081526020017f5361666545524332303a206c6f772d6c6576656c2063616c6c206661696c6564815250856001600160a01b03166133a29092919063ffffffff16565b80519091501561136757808060200190518101906130cd919061413c565b6113675760405162461bcd60e51b815260206004820152602a60248201527f5361666545524332303a204552433230206f7065726174696f6e20646964206e6044820152691bdd081cdd58d8d9595960b21b6064820152608401610724565b6000806000836000015184602001516131459190614ab1565b60c0850151604051632ad659af60e01b81526004810183905261ffff9091166024820152909150736048C06d97BA978A203519a0d079AeAFf2B4ADe290632ad659af9060440160206040518083038186803b1580156131a357600080fd5b505af41580156131b7573d6000803e3d6000fd5b505050506040513d601f19601f820116820180604052508101906131db9190614329565b92508284602001516131ed9190614ab1565b915050915091565b610806846323b872dd60e01b858585604051602401611c0d93929190614608565b63ffffffff83166000908152600660209081526040808320805460ff191660019081179091556101208601516001600160a01b03168452600783528184208683015185529092528220805491929091613270908490614ab1565b909155505060405163490b1f5360e11b815263ffffffff841660048201526001600160a01b038216906392163ea690602401600060405180830381600087803b1580156132bc57600080fd5b505af11580156132d0573d6000803e3d6000fd5b50505050505050565b60e083015161012084015160408086015181516001600160a01b038781166024830152868116604483015290931660648401526084808401919091528151808403909101815260a49092018152602080830180516001600160e01b031663b030667160e01b17905281518083019092528082527f4e4654206e6f74207375636365737366756c6c79207472616e73666572726564908201526108069291906133bb565b60006133898685306132d9565b613397878787878787613498565b979650505050505050565b60606133b18484600085613945565b90505b9392505050565b60606001600160a01b0384163b6134235760405162461bcd60e51b815260206004820152602660248201527f416464726573733a2064656c65676174652063616c6c20746f206e6f6e2d636f6044820152651b9d1c9858dd60d21b6064820152608401610724565b600080856001600160a01b03168560405161343e91906145d8565b600060405180830381855af49150503d8060008114613479576040519150601f19603f3d011682016040523d82523d6000602084013e61347e565b606091505b509150915061348e828286613a67565b9695505050505050565b6101208501516001600160a01b03166000908152600760209081526040808320818901518452909152812080546001919083906134d6908490614a99565b909155505085516040868101519051637b2392f160e01b8152600481019290925261ffff1660248201526001600160a01b0383166044820152600090736048C06d97BA978A203519a0d079AeAFf2B4ADe290637b2392f19060640160206040518083038186803b15801561354957600080fd5b505af415801561355d573d6000803e3d6000fd5b505050506040513d601f19601f820116820180604052508101906135819190614329565b905060008188600001516135959190614ab1565b905081156135b75760608801516135b7906001600160a01b03168686856131f5565b60608801516135d1906001600160a01b03168688846131f5565b604051631c2d8fb360e31b81527f000000000000000000000000000000000000000000000000000000000000000060048201526000907f00000000000000000000000000000000000000000000000000000000000000006001600160a01b03169063e16c7d989060240160206040518083038186803b15801561365357600080fd5b505afa158015613667573d6000803e3d6000fd5b505050506040513d601f19601f8201168201806040525081019061368b9190613d96565b60405163d1f7659560e01b81529091506001600160a01b0382169063d1f76595906136bc9089908e9060040161462c565b602060405180830381600087803b1580156136d657600080fd5b505af11580156136ea573d6000803e3d6000fd5b505050506040513d601f19601f8201168201806040525081019061370e919061435d565b935088600460008663ffffffff1663ffffffff16815260200190815260200160002060008201518160000155602082015181600101556040820151816002015560608201518160030160006101000a8154816001600160a01b0302191690836001600160a01b0316021790555060808201518160030160146101000a81548163ffffffff021916908363ffffffff16021790555060a08201518160030160186101000a81548161ffff021916908361ffff16021790555060c082015181600301601a6101000a81548161ffff021916908361ffff16021790555060e08201518160040160006101000a8154816001600160a01b0302191690836001600160a01b031602179055506101008201518160040160146101000a8154816001600160401b0302191690836001600160401b031602179055506101208201518160050160006101000a8154816001600160a01b0302191690836001600160a01b031602179055506101408201518160060160006101000a8154816001600160a01b0302191690836001600160a01b0316021790555090505087600560008663ffffffff1663ffffffff16815260200190815260200160002060008201518160000160006101000a8154816001600160a01b0302191690836001600160a01b0316021790555060208201518160000160146101000a81548161ffff021916908361ffff16021790555060408201518160000160166101000a81548161ffff021916908361ffff1602179055509050505050509695505050505050565b6060824710156139a65760405162461bcd60e51b815260206004820152602660248201527f416464726573733a20696e73756666696369656e742062616c616e636520666f6044820152651c8818d85b1b60d21b6064820152608401610724565b6001600160a01b0385163b6139fd5760405162461bcd60e51b815260206004820152601d60248201527f416464726573733a2063616c6c20746f206e6f6e2d636f6e74726163740000006044820152606401610724565b600080866001600160a01b03168587604051613a1991906145d8565b60006040518083038185875af1925050503d8060008114613a56576040519150601f19603f3d011682016040523d82523d6000602084013e613a5b565b606091505b50915091506133978282865b60608315613a765750816133b4565b825115613a865782518084602001fd5b8160405162461bcd60e51b81526004016107249190614645565b6040805161016081018252600080825260208201819052918101829052606081018290526080810182905260a0810182905260c0810182905260e081018290526101008101829052610120810182905261014081019190915290565b8035613b0781614b3b565b919050565b600082601f830112613b1c578081fd5b81356020613b31613b2c83614a76565b614a46565b80838252828201915082860187848660051b8901011115613b50578586fd5b855b85811015613b77578135613b6581614b50565b84529284019290840190600101613b52565b5090979650505050505050565b60008083601f840112613b95578182fd5b5081356001600160401b03811115613bab578182fd5b6020830191508360208260051b8501011115613bc657600080fd5b9250929050565b60008083601f840112613bde578182fd5b5081356001600160401b03811115613bf4578182fd5b602083019150836020828501011115613bc657600080fd5b600082601f830112613c1c578081fd5b81356001600160401b03811115613c3557613c35614b25565b613c48601f8201601f1916602001614a46565b818152846020838601011115613c5c578283fd5b816020850160208301379081016020019190915292915050565b600060408284031215613c87578081fd5b604051604081018181106001600160401b0382111715613ca957613ca9614b25565b6040529050808235613cba81614b3b565b81526020830135613cca81614b5e565b6020919091015292915050565b600060808284031215613ce8578081fd5b604051608081016001600160401b038282108183111715613d0b57613d0b614b25565b81604052829350843583526020850135602084015260408501359150613d3082614b3b565b8160408401526060850135915080821115613d4a57600080fd5b50613d5785828601613c0c565b6060830152505092915050565b8035613b0781614b5e565b8035613b0781614b6e565b600060208284031215613d8b578081fd5b81356133b481614b3b565b600060208284031215613da7578081fd5b81516133b481614b3b565b60008060408385031215613dc4578081fd5b8235613dcf81614b3b565b91506020830135613ddf81614b3b565b809150509250929050565b60008060408385031215613dfc578182fd5b8251613e0781614b3b565b6020840151909250613ddf81614b3b565b60008060008060008060008060a0898b031215613e33578384fd5b8835613e3e81614b3b565b97506020890135613e4e81614b3b565b965060408901356001600160401b0380821115613e69578586fd5b613e758c838d01613b84565b909850965060608b0135915080821115613e8d578586fd5b613e998c838d01613b84565b909650945060808b0135915080821115613eb1578384fd5b50613ebe8b828c01613bcd565b999c989b5096995094979396929594505050565b60008060008060808587031215613ee7578182fd5b8435613ef281614b3b565b93506020850135613f0281614b3b565b92506040850135915060608501356001600160401b03811115613f23578182fd5b613f2f87828801613c0c565b91505092959194509250565b60008060008060008060a08789031215613f53578384fd5b8635613f5e81614b3b565b95506020870135613f6e81614b3b565b9450604087013593506060870135925060808701356001600160401b03811115613f96578283fd5b613fa289828a01613bcd565b979a9699509497509295939492505050565b60008060408385031215613fc6578182fd5b8235613fd181614b3b565b91506020830135613ddf81614b50565b60008060408385031215613ff3578182fd5b8235613ffe81614b3b565b946020939093013593505050565b6000806040838503121561401e578182fd5b825161402981614b3b565b6020939093015192949293505050565b60008060006060848603121561404d578081fd5b833561405881614b3b565b925060208401359150604084013561406f81614b3b565b809150509250925092565b6000806040838503121561408c578182fd5b82356001600160401b03808211156140a2578384fd5b818501915085601f8301126140b5578384fd5b813560206140c5613b2c83614a76565b8083825282820191508286018a848660051b89010111156140e4578889fd5b8896505b8487101561410f5780356140fb81614b3b565b8352600196909601959183019183016140e8565b5096505086013592505080821115614125578283fd5b5061413285828601613b0c565b9150509250929050565b60006020828403121561414d578081fd5b81516133b481614b50565b600060208284031215614169578081fd5b81356001600160e01b0319811681146133b4578182fd5b600060608284031215614191578081fd5b604051606081016001600160401b0382821081831117156141b4576141b4614b25565b81604052845191506141c582614b3b565b90825260208401519080821682146141db578384fd5b5060208201526040830151600381106141f2578283fd5b60408201529392505050565b6000806000838503610160811215614214578182fd5b61010080821215614223578283fd5b61422b614a1d565b915085358252602086013560208301526040860135604083015261425160608701613afc565b606083015261426260808701613d6f565b608083015261427360a08701613d64565b60a083015261428460c08701613afc565b60c083015261429560e08701613afc565b60e08301529093508401356001600160401b038111156142b3578182fd5b6142bf86828701613cd7565b9250506142d0856101208601613c76565b90509250925092565b6000602082840312156142ea578081fd5b81356133b481614b5e565b600060208284031215614306578081fd5b81516133b481614b5e565b600060208284031215614322578081fd5b5035919050565b60006020828403121561433a578081fd5b5051919050565b600060208284031215614352578081fd5b81356133b481614b6e565b60006020828403121561436e578081fd5b81516133b481614b6e565b60008060008060008060008060e0898b031215614394578182fd5b883561439f81614b6e565b975060208901356143af81614b3b565b965060408901356001600160401b038111156143c9578283fd5b6143d58b828c01613bcd565b90975095505060608901356143e981614b3b565b93506080890135925060a089013561440081614b50565b8092505060c089013590509295985092959890939650565b600080600080600080600060e0888a031215614432578081fd5b873561443d81614b6e565b9650602088013561444d81614b6e565b955060408801359450606088013593506080880135925060a0880135915060c08801356001600160401b03811115614483578182fd5b61448f8a828b01613c0c565b91505092959891949750929550565b6001600160a01b03169052565b600081518084526144c3816020860160208601614ac8565b601f01601f19169290920160200192915050565b8051825260208101516020830152604081015160408301526060810151614501606084018261449e565b506080810151614519608084018263ffffffff169052565b5060a081015161452f60a084018261ffff169052565b5060c081015161454560c084018261ffff169052565b5060e081015161455860e084018261449e565b50610100818101516001600160401b031690830152610120808201516145808285018261449e565b5050610140808201516108068285018261449e565b805182526020810151602083015260018060a01b03604082015116604083015260006060820151608060608501526145d060808501826144ab565b949350505050565b600082516145ea818460208701614ac8565b9190910192915050565b6001600160a01b0391909116815260200190565b6001600160a01b039384168152919092166020820152604081019190915260600190565b6001600160a01b03929092168252602082015260400190565b6020815260006133b460208301846144ab565b6020808252601e908201527f4c6f616e20616c7265616479207265706169642f6c6971756964617465640000604082015260600190565b60208082526010908201526f14185d5cd8589b194e881c185d5cd95960821b604082015260600190565b6020808252818101527f4f776e61626c653a2063616c6c6572206973206e6f7420746865206f776e6572604082015260600190565b6020808252601390820152721d1bdad95b881a5cc818dbdb1b185d195c985b606a1b604082015260600190565b6020808252601f908201527f5265656e7472616e637947756172643a207265656e7472616e742063616c6c00604082015260600190565b6101c0810161476182856144d7565b82516001600160a01b0316610160830152602083015161ffff9081166101808401526040909301519092166101a090910152919050565b86548152600187015460208201526002870154604082015260038701546102008201906001600160a01b036147d26060850182841661449e565b60a082901c63ffffffff16608085015261ffff60c083901c811660a086015261480660c08601828560d01c1661ffff169052565b5060048a0154915061481d60e0850182841661449e565b5060a081901c6001600160401b03166101008401525060058801546001600160a01b031661484f61012084018261449e565b5060068801546001600160a01b031661486c61014084018261449e565b5063ffffffff871661016083015263ffffffff8616610180830152846101a0830152836101c08301526133976101e083018461449e565b600061012084518352602085015160208401526040850151604084015260018060a01b03606086015116606084015263ffffffff608086015116608084015261ffff60a08601511660a084015260c085015161490260c085018261449e565b5060e085015161491560e085018261449e565b508061010084015261492981840185614595565b95945050505050565b63ffffffff9290921682526001600160a01b0316602082015260400190565b600061026063ffffffff8d16835261496c602084018d6144d7565b6001600160a01b038b81166101808501526101a0840182905290830189905261028090898b83860137838a018201929092529087166101c08301526101e082018690528415156102008301526102208201849052601f8801601f19168201016149d961024083018461449e565b9b9a5050505050505050505050565b600063ffffffff808816835280871660208401525084604083015283606083015260a0608083015261339760a0830184614595565b60405161010081016001600160401b0381118282101715614a4057614a40614b25565b60405290565b604051601f8201601f191681016001600160401b0381118282101715614a6e57614a6e614b25565b604052919050565b60006001600160401b03821115614a8f57614a8f614b25565b5060051b60200190565b60008219821115614aac57614aac614b0f565b500190565b600082821015614ac357614ac3614b0f565b500390565b60005b83811015614ae3578181015183820152602001614acb565b838111156108065750506000910152565b6000600019821415614b0857614b08614b0f565b5060010190565b634e487b7160e01b600052601160045260246000fd5b634e487b7160e01b600052604160045260246000fd5b6001600160a01b0381168114611beb57600080fd5b8015158114611beb57600080fd5b61ffff81168114611beb57600080fd5b63ffffffff81168114611beb57600080fdfea164736f6c6343000804000a",
  "deployedBytecode": "0x608060405234801561001057600080fd5b50600436106101dc5760003560e01c8063616693d811610105578063a4441a6f1161009d578063a4441a6f146105da578063ab3b1280146105e8578063ac4e35ea14610611578063b18e777214610624578063b31ec1d414610637578063bc197c811461064a578063bce42e421461065d578063f23a6e6114610670578063f2fde38b1461069057600080fd5b8063616693d8146105015780636ed93dd01461052257806377cfa9911461053e5780637836baf11461056557806379b64040146105785780638456cb591461058b578063872873be146105935780638da5cb5b146105bf5780639658e405146105c757600080fd5b8063318dacd311610178578063318dacd314610425578063328404b014610438578063365a86fc146104715780633f4ba83a146104a557806347948d92146104ad5780635163a1c3146104c057806356efe98c146104d357806359a72734146104e65780635c975abb146104f957600080fd5b806301ffc9a7146101e157806305b406cf146102095780630717f3aa1461021e5780630ff81c3f14610241578063150b7a02146102ab578063192b355d146102e25780631c6caf41146102f9578063227cda181461030c5780632b21802214610412575b600080fd5b6101f46101ef366004614158565b6106a3565b60405190151581526020015b60405180910390f35b61021c610217366004613db2565b6106f5565b005b6101f461022c366004614341565b60066020526000908152604090205460ff1681565b61028161024f366004614341565b6005602052600090815260409020546001600160a01b0381169061ffff600160a01b8204811691600160b01b90041683565b604080516001600160a01b03909416845261ffff9283166020850152911690820152606001610200565b6102c96102b9366004613ed2565b630a85bd0160e11b949350505050565b6040516001600160e01b03199091168152602001610200565b6102eb60025481565b604051908152602001610200565b61021c6103073660046142d9565b61080c565b61039e61031a366004614341565b600460208190526000918252604090912080546001820154600283015460038401549484015460058501546006909501549395929491936001600160a01b0380851694600160a01b80820463ffffffff1695600160c01b830461ffff90811696600160d01b909404169484841694929093046001600160401b03169290821691168b565b604080519b8c5260208c019a909a52988a01979097526001600160a01b0395861660608a015263ffffffff909416608089015261ffff92831660a0890152911660c0870152821660e08601526001600160401b03166101008501529081166101208401521661014082015261016001610200565b61021c610420366004614341565b6108d3565b61021c610433366004614379565b610a3b565b6101f4610446366004613fe1565b6001600160a01b03919091166000908152600860209081526040808320938352929052205460ff1690565b6104987f000000000000000000000000000000000000000000000000000000000000000081565b60405161020091906145f4565b61021c610c83565b61021c6104bb366004614311565b610cbc565b61021c6104ce366004614039565b610d6d565b61021c6104e13660046141fe565b610f07565b61021c6104f4366004614341565b610fc5565b6101f4611208565b6102eb762224a922a1aa2fa627a0a72fa324ac22a22fa7a32322a960491b81565b61052b61271081565b60405161ffff9091168152602001610200565b6102eb7f000000000000000000000000000000000000000000000000000000000000000081565b61021c610573366004613fb4565b611218565b61021c61058636600461407a565b611255565b61021c61136c565b6101f46105a1366004613d7a565b6001600160a01b031660009081526009602052604090205460ff1690565b6104986113a3565b61021c6105d5366004614311565b6113b2565b60035461052b9061ffff1681565b6102eb6105f6366004614341565b63ffffffff1660009081526004602052604090206001015490565b61021c61061f366004614039565b611433565b61021c610632366004614418565b6115eb565b61021c610645366004614341565b611654565b6102c9610658366004613e18565b611922565b61021c61066b366004614341565b61196d565b6102c961067e366004613f3b565b63f23a6e6160e01b9695505050505050565b61021c61069e366004613d7a565b611b4e565b60006001600160e01b03198216630271189760e51b14806106d457506001600160e01b03198216630a85bd0160e11b145b806106ef57506001600160e01b031982166301ffc9a760e01b145b92915050565b336106fe6113a3565b6001600160a01b03161461072d5760405162461bcd60e51b8152600401610724906146b9565b60405180910390fd5b6040516370a0823160e01b815282906000906001600160a01b038316906370a082319061075e9030906004016145f4565b60206040518083038186803b15801561077657600080fd5b505afa15801561078a573d6000803e3d6000fd5b505050506040513d601f19601f820116820180604052508101906107ae9190614329565b9050600081116107f25760405162461bcd60e51b815260206004820152600f60248201526e1b9bc81d1bdad95b9cc81bdddb9959608a1b6044820152606401610724565b6108066001600160a01b0383168483611bee565b50505050565b336108156113a3565b6001600160a01b03161461083b5760405162461bcd60e51b8152600401610724906146b9565b61271061ffff821611156108885760405162461bcd60e51b81526020600482015260146024820152730626173697320706f696e7473203e2031303030360641b6044820152606401610724565b6003805461ffff191661ffff83169081179091556040519081527f03017365bbe16943b524030df07e7689168ab63e854d27417498e6f9dc584dab906020015b60405180910390a150565b600260015414156108f65760405162461bcd60e51b81526004016107249061471b565b600260015560405163364d0abb60e11b815273__$1291e1ff22aea68c4ae26c19e2b9f8f397$__90636c9a1576906109549084907f000000000000000000000000000000000000000000000000000000000000000090600401614932565b60006040518083038186803b15801561096c57600080fd5b505af4158015610980573d6000803e3d6000fd5b5050505060008060008061099385611c44565b93509350935093506109a785858585612058565b6109b38585848461226e565b5050505063ffffffff1660009081526004602081815260408084208481556001808201869055600282018690556003820180546001600160e01b03199081169091559482018054909516909455600580820180546001600160a01b03199081169091556006909201805490921690915590915290912080546001600160c01b03191690558055565b60026001541415610a5e5760405162461bcd60e51b81526004016107249061471b565b6002600155604051635bfd0fb160e11b815273__$1291e1ff22aea68c4ae26c19e2b9f8f397$__9063b7fa1f6290610abc908b907f000000000000000000000000000000000000000000000000000000000000000090600401614932565b60006040518083038186803b158015610ad457600080fd5b505af4158015610ae8573d6000803e3d6000fd5b5050505063ffffffff881660009081526006602052604090205460ff1615610b225760405162461bcd60e51b815260040161072490614658565b63ffffffff8881166000908152600460208181526040928390208351610160810185528154815260018201549281019290925260028101548285015260038101546001600160a01b038082166060850152600160a01b8083049097166080850152600160c01b820461ffff90811660a0860152600160d01b90920490911660c08401528184015480821660e0850152959095046001600160401b03166101008301526005810154851661012083015260060154909316610140840152905163491bd44160e11b815273__$f4648c37a6443643782b15e2e6be9a7811$__91639237a88291610c44918d9186918e918e918e918e918e918e918e917f00000000000000000000000000000000000000000000000000000000000000009101614951565b60006040518083038186803b158015610c5c57600080fd5b505af4158015610c70573d6000803e3d6000fd5b5050600180555050505050505050505050565b33610c8c6113a3565b6001600160a01b031614610cb25760405162461bcd60e51b8152600401610724906146b9565b610cba612284565b565b33610cc56113a3565b6001600160a01b031614610ceb5760405162461bcd60e51b8152600401610724906146b9565b63ffffffff811115610d385760405162461bcd60e51b81526020600482015260166024820152754c6f616e206475726174696f6e206f766572666c6f7760501b6044820152606401610724565b60028190556040518181527f64f65a4a1a932867ad599da36210fc47c698b3abb2413cfdfd36bf59697a69cb906020016108c8565b33610d766113a3565b6001600160a01b031614610d9c5760405162461bcd60e51b8152600401610724906146b9565b6001600160a01b0383166000908152600760209081526040808320858452909152902054839015610ddf5760405162461bcd60e51b8152600401610724906146ee565b6040516331a9108f60e11b81526004810184905230906001600160a01b03831690636352211e9060240160206040518083038186803b158015610e2157600080fd5b505afa158015610e35573d6000803e3d6000fd5b505050506040513d601f19601f82011682018060405250810190610e599190613d96565b6001600160a01b031614610e9f5760405162461bcd60e51b815260206004820152600d60248201526c1b999d081b9bdd081bdddb9959609a1b6044820152606401610724565b604051632142170760e11b81526001600160a01b038216906342842e0e90610ecf90309086908890600401614608565b600060405180830381600087803b158015610ee957600080fd5b505af1158015610efd573d6000803e3d6000fd5b5050505050505050565b610f0f611208565b15610f2c5760405162461bcd60e51b81526004016107249061468f565b60026001541415610f4f5760405162461bcd60e51b81526004016107249061471b565b60026001556060830151600090610f6590612316565b9050610f71848261243c565b610f7a84612661565b610fbb762224a922a1aa2fa627a0a72fa324ac22a22fa7a32322a960491b610fa286846126cc565b610fb485600001518660200151612780565b878761287e565b5050600180555050565b60026001541415610fe85760405162461bcd60e51b81526004016107249061471b565b6002600155604051635bfd0fb160e11b815273__$1291e1ff22aea68c4ae26c19e2b9f8f397$__9063b7fa1f62906110469084907f000000000000000000000000000000000000000000000000000000000000000090600401614932565b60006040518083038186803b15801561105e57600080fd5b505af4158015611072573d6000803e3d6000fd5b5050505063ffffffff811660009081526006602052604090205460ff16156110ac5760405162461bcd60e51b815260040161072490614658565b63ffffffff8116600090815260046020908152604080832060058101546001600160a01b0316845260078352818420600282015485529092528220805491926001926110f9908490614ab1565b9091555050604051631276b77d60e11b815263ffffffff83166004820152602481018290526001600160a01b037f0000000000000000000000000000000000000000000000000000000000000000166044820152600090819073__$f4648c37a6443643782b15e2e6be9a7811$__906324ed6efa90606401604080518083038186803b15801561118857600080fd5b505af415801561119c573d6000803e3d6000fd5b505050506040513d601f19601f820116820180604052508101906111c0919061400c565b6001600160a01b0382166000908152600760209081526040808320848452909152812080549395509193506001926111f9908490614a99565b90915550506001805550505050565b600054600160a01b900460ff1690565b336112216113a3565b6001600160a01b0316146112475760405162461bcd60e51b8152600401610724906146b9565b6112518282612b7e565b5050565b3361125e6113a3565b6001600160a01b0316146112845760405162461bcd60e51b8152600401610724906146b9565b80518251146112f15760405162461bcd60e51b815260206004820152603360248201527f73657445524332305065726d6974732066756e6374696f6e20696e666f726d616044820152720e8d2dedc40c2e4d2e8f240dad2e6dac2e8c6d606b1b6064820152608401610724565b60005b82518110156113675761135583828151811061132057634e487b7160e01b600052603260045260246000fd5b602002602001015183838151811061134857634e487b7160e01b600052603260045260246000fd5b6020026020010151612b7e565b8061135f81614af4565b9150506112f4565b505050565b336113756113a3565b6001600160a01b03161461139b5760405162461bcd60e51b8152600401610724906146b9565b610cba612c2b565b6000546001600160a01b031690565b33600090815260086020908152604080832084845290915290205460ff161561140d5760405162461bcd60e51b815260206004820152600d60248201526c496e76616c6964206e6f6e636560981b6044820152606401610724565b33600090815260086020908152604080832093835292905220805460ff19166001179055565b3361143c6113a3565b6001600160a01b0316146114625760405162461bcd60e51b8152600401610724906146b9565b604051627eeac760e11b815283906000906001600160a01b0383169062fdd58e90611493903090889060040161462c565b60206040518083038186803b1580156114ab57600080fd5b505afa1580156114bf573d6000803e3d6000fd5b505050506040513d601f19601f820116820180604052508101906114e39190614329565b6001600160a01b0386166000908152600760209081526040808320888452909152902054909150156115275760405162461bcd60e51b8152600401610724906146ee565b600081116115675760405162461bcd60e51b815260206004820152600d60248201526c1b9bc81b999d1cc81bdddb9959609a1b6044820152606401610724565b604051637921219560e11b81523060048201526001600160a01b038481166024830152604482018690526064820183905260a06084830152600060a483015283169063f242432a9060c401600060405180830381600087803b1580156115cc57600080fd5b505af11580156115e0573d6000803e3d6000fd5b505050505050505050565b6115f3611208565b156116105760405162461bcd60e51b81526004016107249061468f565b600260015414156116335760405162461bcd60e51b81526004016107249061471b565b600260015561164787878787878787612c8b565b5050600180555050505050565b600260015414156116775760405162461bcd60e51b81526004016107249061471b565b6002600155604051635bfd0fb160e11b815273__$1291e1ff22aea68c4ae26c19e2b9f8f397$__9063b7fa1f62906116d59084907f000000000000000000000000000000000000000000000000000000000000000090600401614932565b60006040518083038186803b1580156116ed57600080fd5b505af4158015611701573d6000803e3d6000fd5b5050505063ffffffff811660009081526006602052604090205460ff161561173b5760405162461bcd60e51b815260040161072490614658565b60008060008061174a85611c44565b93509350935093506000826080015163ffffffff168361010001516001600160401b03166117789190614a99565b90508042116117c35760405162461bcd60e51b8152602060048201526017602482015276131bd85b881a5cc81b9bdd081bdd995c991d59481e595d604a1b6044820152606401610724565b336001600160a01b038516146118175760405162461bcd60e51b81526020600482015260196024820152784f6e6c79206c656e6465722063616e206c697175696461746560381b6044820152606401610724565b6118238685858561226e565b8251604080850151610120860151825193845260208401919091529082018390524260608301526001600160a01b039081166080830152808616919087169063ffffffff8916907f4fac0ff43299a330bce57d0579985305af580acf256a6d7977083ede81be13269060a00160405180910390a450505063ffffffff90921660009081526004602081815260408084208481556001808201869055600282018690556003820180546001600160e01b03199081169091559482018054909516909455600580820180546001600160a01b03199081169091556006909201805490921690915590915290912080546001600160c01b031916905580555050565b60405162461bcd60e51b815260206004820152601b60248201527f45524331313535206261746368206e6f7420737570706f7274656400000000006044820152600090606401610724565b600260015414156119905760405162461bcd60e51b81526004016107249061471b565b600260015563ffffffff81166000908152600460205260409020600601546001600160a01b0316338114611a025760405162461bcd60e51b815260206004820152601960248201527839b2b73232b9103430b9903a37903132903137b93937bbb2b960391b6044820152606401610724565b604051631c2d8fb360e31b81527f000000000000000000000000000000000000000000000000000000000000000060048201526000907f00000000000000000000000000000000000000000000000000000000000000006001600160a01b03169063e16c7d989060240160206040518083038186803b158015611a8457600080fd5b505afa158015611a98573d6000803e3d6000fd5b505050506040513d601f19601f82011682018060405250810190611abc9190613d96565b604051631b982cf160e01b81529091506001600160a01b03821690631b982cf190611aed9086908690600401614932565b600060405180830381600087803b158015611b0757600080fd5b505af1158015611b1b573d6000803e3d6000fd5b50505063ffffffff909316600090815260046020526040902060060180546001600160a01b031916905550506001805550565b33611b576113a3565b6001600160a01b031614611b7d5760405162461bcd60e51b8152600401610724906146b9565b6001600160a01b038116611be25760405162461bcd60e51b815260206004820152602660248201527f4f776e61626c653a206e6577206f776e657220697320746865207a65726f206160448201526564647265737360d01b6064820152608401610724565b611beb8161300a565b50565b6113678363a9059cbb60e01b8484604051602401611c0d92919061462c565b60408051601f198184030181529190526020810180516001600160e01b03166001600160e01b03199093169290921790915261305a565b600080611c4f613aa0565b604051631c2d8fb360e31b81527f000000000000000000000000000000000000000000000000000000000000000060048201526000907f00000000000000000000000000000000000000000000000000000000000000006001600160a01b03169063e16c7d989060240160206040518083038186803b158015611cd157600080fd5b505afa158015611ce5573d6000803e3d6000fd5b505050506040513d601f19601f82011682018060405250810190611d099190613d96565b60405163e6c5a54160e01b815263ffffffff871660048201529091506000906001600160a01b0383169063e6c5a5419060240160606040518083038186803b158015611d5457600080fd5b505afa158015611d68573d6000803e3d6000fd5b505050506040513d601f19601f82011682018060405250810190611d8c9190614180565b60208181015163ffffffff898116600090815260048085526040918290208251610160810184528154815260018201549681019690965260028101549286019290925260038201546001600160a01b038082166060880152600160a01b8083049095166080880152600160c01b820461ffff90811660a0890152600160d01b90920490911660c08701529082015480821660e08701526001600160401b03939004831661010086015260058201548116610120860152600690910154166101408401819052929650929350919091169015611e6e578361014001519550611f5f565b826001600160a01b0316638208e76c6040518163ffffffff1660e01b815260040160206040518083038186803b158015611ea757600080fd5b505afa158015611ebb573d6000803e3d6000fd5b505050506040513d601f19601f82011682018060405250810190611edf9190613d96565b6001600160a01b0316636352211e826040518263ffffffff1660e01b8152600401611f0c91815260200190565b60206040518083038186803b158015611f2457600080fd5b505afa158015611f38573d6000803e3d6000fd5b505050506040513d601f19601f82011682018060405250810190611f5c9190613d96565b95505b826001600160a01b0316634fbe68a06040518163ffffffff1660e01b815260040160206040518083038186803b158015611f9857600080fd5b505afa158015611fac573d6000803e3d6000fd5b505050506040513d601f19601f82011682018060405250810190611fd09190613d96565b6001600160a01b0316636352211e826040518263ffffffff1660e01b8152600401611ffd91815260200190565b60206040518083038186803b15801561201557600080fd5b505afa158015612029573d6000803e3d6000fd5b505050506040513d601f19601f8201168201806040525081019061204d9190613d96565b945050509193509193565b63ffffffff84166000908152600560209081526040808320815160608101835290546001600160a01b038116825261ffff600160a01b8204811694830194909452600160b01b90049092169082015290806120b28461312c565b606086015191935091506120d1906001600160a01b03163387846131f5565b6020830151604051637f5e0ed360e01b81526004810184905261ffff909116602482015260009073__$1291e1ff22aea68c4ae26c19e2b9f8f397$__90637f5e0ed39060440160206040518083038186803b15801561212f57600080fd5b505af4158015612143573d6000803e3d6000fd5b505050506040513d601f19601f820116820180604052508101906121679190614329565b9050600081118015612182575083516001600160a01b031615155b156121b1576121918184614ab1565b845160608701519194506121b1916001600160a01b0316903390846131f5565b6121d3336121bd6113a3565b60608801516001600160a01b03169190866131f5565b845160408087015186516101208901516060808b0151855196875260208701949094528585018890528501889052608085018690526001600160a01b0391821660a0860152811660c085015290811660e0840152905188821692918a169163ffffffff8c16917f3687d64f40b11dd1c102a76882ac1735891c546a96ae27935eb5c7865b9d86fa918190036101000190a45050505050505050565b612279848383613216565b6108068230856132d9565b61228c611208565b6122cf5760405162461bcd60e51b815260206004820152601460248201527314185d5cd8589b194e881b9bdd081c185d5cd95960621b6044820152606401610724565b6000805460ff60a01b191690557f5db9ee0a495bf2e6ff9c91a7834c1ba4fdd244a5e8aa4e537bd38aeae4b073aa335b60405161230c91906145f4565b60405180910390a1565b604051631c2d8fb360e31b81526d5045524d49545445445f4e46545360901b60048201526000907f00000000000000000000000000000000000000000000000000000000000000006001600160a01b03169063e16c7d989060240160206040518083038186803b15801561238957600080fd5b505afa15801561239d573d6000803e3d6000fd5b505050506040513d601f19601f820116820180604052508101906123c19190613d96565b6001600160a01b031663b8c8aff8836040518263ffffffff1660e01b81526004016123ec91906145f4565b60206040518083038186803b15801561240457600080fd5b505afa158015612418573d6000803e3d6000fd5b505050506040513d601f19601f820116820180604052508101906106ef9190613d96565b60c08201516001600160a01b031660009081526009602052604090205460ff166124b75760405162461bcd60e51b815260206004820152602660248201527f43757272656e63792064656e6f6d696e6174696f6e206973206e6f74207065726044820152651b5a5d1d195960d21b6064820152608401610724565b6001600160a01b03811661251e5760405162461bcd60e51b815260206004820152602860248201527f4e465420636f6c6c61746572616c20636f6e7472616374206973206e6f742070604482015267195c9b5a5d1d195960c21b6064820152608401610724565b600254826080015163ffffffff16111561258e5760405162461bcd60e51b815260206004820152602b60248201527f4c6f616e206475726174696f6e2065786365656473206d6178696d756d206c6f60448201526a30b710323ab930ba34b7b760a91b6064820152608401610724565b608082015163ffffffff166125e55760405162461bcd60e51b815260206004820152601c60248201527f4c6f616e206475726174696f6e2063616e6e6f74206265207a65726f000000006044820152606401610724565b60035460a083015161ffff9081169116146112515760405162461bcd60e51b815260206004820152603660248201527f5468652061646d696e2066656520686173206368616e6765642073696e6365206044820152753a3434b99037b93232b9103bb0b99039b4b3b732b21760511b6064820152608401610724565b805160208201511015611beb5760405162461bcd60e51b815260206004820152602d60248201527f4e6567617469766520696e7465726573742072617465206c6f616e732061726560448201526c103737ba1030b63637bbb2b21760991b6064820152608401610724565b6126d4613aa0565b6040518061016001604052808460000151815260200184602001518152602001846040015181526020018460c001516001600160a01b03168152602001846080015163ffffffff168152602001600061ffff1681526020018460a0015161ffff168152602001836001600160a01b03168152602001426001600160401b0316815260200184606001516001600160a01b03168152602001336001600160a01b0316815250905092915050565b6040805160608101825260008082526020820181905291810191909152604080516060810182526001600160a01b0380861680835292516347e332df60e11b815260048101939093527f000000000000000000000000000000000000000000000000000000000000000016602483015290602082019073__$1291e1ff22aea68c4ae26c19e2b9f8f397$__90638fc665be9060440160206040518083038186803b15801561282d57600080fd5b505af4158015612841573d6000803e3d6000fd5b505050506040513d601f19601f8201168201806040525081019061286591906142f5565b61ffff1681526020018361ffff16815250905092915050565b6040808201516001600160a01b0316600090815260086020908152828220845183529052205460ff16156128eb5760405162461bcd60e51b815260206004820152601460248201527313195b99195c881b9bdb98d9481a5b9d985b1a5960621b6044820152606401610724565b6040808201516001600160a01b0316600090815260086020908152828220845183529052819020805460ff191660011790555163eb2ac63f60e01b815273__$07730b9b91c2b41a419f99961f709e7858$__9063eb2ac63f9061295490859085906004016148a3565b60206040518083038186803b15801561296c57600080fd5b505af4158015612980573d6000803e3d6000fd5b505050506040513d601f19601f820116820180604052508101906129a4919061413c565b6129f05760405162461bcd60e51b815260206004820152601b60248201527f4c656e646572207369676e617475726520697320696e76616c696400000000006044820152606401610724565b604051631c2d8fb360e31b81526c27232a2324afa12aa7222622a960991b60048201526000907f00000000000000000000000000000000000000000000000000000000000000006001600160a01b03169063e16c7d989060240160206040518083038186803b158015612a6257600080fd5b505afa158015612a76573d6000803e3d6000fd5b505050506040513d601f19601f82011682018060405250810190612a9a9190613d96565b9050806001600160a01b03168561012001516001600160a01b03161415612b035760405162461bcd60e51b815260206004820152601b60248201527f436f6c6c61746572616c2063616e6e6f742062652062756e646c6500000000006044820152606401610724565b6000612b1b8787873387604001518960e0015161337c565b905082604001516001600160a01b0316336001600160a01b03168263ffffffff167f42cc7f53ef7b494c5dd6f0095175f7d07b5d3d7b2a03f34389fea445ba4a3a8b8989604051612b6d929190614752565b60405180910390a450505050505050565b6001600160a01b038216612bcc5760405162461bcd60e51b81526020600482015260156024820152746572633230206973207a65726f206164647265737360581b6044820152606401610724565b6001600160a01b038216600081815260096020908152604091829020805460ff191685151590811790915591519182527ff100355be652ecc881568750e6a98c0713e4316f75d5314ebc9039e0acb52f24910160405180910390a25050565b612c33611208565b15612c505760405162461bcd60e51b81526004016107249061468f565b6000805460ff60a01b1916600160a01b1790557f62e78cea01bee320cd4e420270b5ea74000d11b0c9f74754ebdbfc544b05a2586122ff3390565b63ffffffff87166000908152600460208190526040808320905163b5ec526360e01b8152909291829173__$1291e1ff22aea68c4ae26c19e2b9f8f397$__9163b5ec526391612d069187918f918f918f918e917f00000000000000000000000000000000000000000000000000000000000000009101614798565b604080518083038186803b158015612d1d57600080fd5b505af4158015612d31573d6000803e3d6000fd5b505050506040513d601f19601f82011682018060405250810190612d559190613dea565b6001600160a01b03811660008181526008602090815260408083208c8452825291829020805460ff1916600117905581516080810183528b81529081018a905280820192909252606082018890525163d06ff74160e01b815292945090925073__$07730b9b91c2b41a419f99961f709e7858$__9163d06ff74191612de4918e918e918e918e916004016149e8565b60206040518083038186803b158015612dfc57600080fd5b505af4158015612e10573d6000803e3d6000fd5b505050506040513d601f19601f82011682018060405250810190612e34919061413c565b612e8b5760405162461bcd60e51b815260206004820152602260248201527f52656e65676f74696174696f6e207369676e617475726520697320696e76616c6044820152611a5960f21b6064820152608401610724565b60008715612f75576003840154604051632ad659af60e01b8152600481018a9052600160d01b90910461ffff16602482015273__$1291e1ff22aea68c4ae26c19e2b9f8f397$__90632ad659af9060440160206040518083038186803b158015612ef457600080fd5b505af4158015612f08573d6000803e3d6000fd5b505050506040513d601f19601f82011682018060405250810190612f2c9190614329565b9050612f538383612f3d848c614ab1565b60038801546001600160a01b03169291906131f5565b612f7583612f5f6113a3565b60038701546001600160a01b03169190846131f5565b60038401805463ffffffff60a01b1916600160a01b63ffffffff8d811691820292909217909255600186018b905560408051928352602083018c905282018a9052606082018390526001600160a01b0384811692908616918e16907f37357bed780fda5aed28c32fe9cd762cb2f2f8a70c0d9b342aba59c945943ca09060800160405180910390a45050505050505050505050565b600080546001600160a01b038381166001600160a01b0319831681178455604051919092169283917f8be0079c531659141344cd1fd0a4f28419497f9722a3daafe3b4186f6b6457e09190a35050565b60006130af826040518060400160405280602081526020017f5361666545524332303a206c6f772d6c6576656c2063616c6c206661696c6564815250856001600160a01b03166133a29092919063ffffffff16565b80519091501561136757808060200190518101906130cd919061413c565b6113675760405162461bcd60e51b815260206004820152602a60248201527f5361666545524332303a204552433230206f7065726174696f6e20646964206e6044820152691bdd081cdd58d8d9595960b21b6064820152608401610724565b6000806000836000015184602001516131459190614ab1565b60c0850151604051632ad659af60e01b81526004810183905261ffff909116602482015290915073__$1291e1ff22aea68c4ae26c19e2b9f8f397$__90632ad659af9060440160206040518083038186803b1580156131a357600080fd5b505af41580156131b7573d6000803e3d6000fd5b505050506040513d601f19601f820116820180604052508101906131db9190614329565b92508284602001516131ed9190614ab1565b915050915091565b610806846323b872dd60e01b858585604051602401611c0d93929190614608565b63ffffffff83166000908152600660209081526040808320805460ff191660019081179091556101208601516001600160a01b03168452600783528184208683015185529092528220805491929091613270908490614ab1565b909155505060405163490b1f5360e11b815263ffffffff841660048201526001600160a01b038216906392163ea690602401600060405180830381600087803b1580156132bc57600080fd5b505af11580156132d0573d6000803e3d6000fd5b50505050505050565b60e083015161012084015160408086015181516001600160a01b038781166024830152868116604483015290931660648401526084808401919091528151808403909101815260a49092018152602080830180516001600160e01b031663b030667160e01b17905281518083019092528082527f4e4654206e6f74207375636365737366756c6c79207472616e73666572726564908201526108069291906133bb565b60006133898685306132d9565b613397878787878787613498565b979650505050505050565b60606133b18484600085613945565b90505b9392505050565b60606001600160a01b0384163b6134235760405162461bcd60e51b815260206004820152602660248201527f416464726573733a2064656c65676174652063616c6c20746f206e6f6e2d636f6044820152651b9d1c9858dd60d21b6064820152608401610724565b600080856001600160a01b03168560405161343e91906145d8565b600060405180830381855af49150503d8060008114613479576040519150601f19603f3d011682016040523d82523d6000602084013e61347e565b606091505b509150915061348e828286613a67565b9695505050505050565b6101208501516001600160a01b03166000908152600760209081526040808320818901518452909152812080546001919083906134d6908490614a99565b909155505085516040868101519051637b2392f160e01b8152600481019290925261ffff1660248201526001600160a01b038316604482015260009073__$1291e1ff22aea68c4ae26c19e2b9f8f397$__90637b2392f19060640160206040518083038186803b15801561354957600080fd5b505af415801561355d573d6000803e3d6000fd5b505050506040513d601f19601f820116820180604052508101906135819190614329565b905060008188600001516135959190614ab1565b905081156135b75760608801516135b7906001600160a01b03168686856131f5565b60608801516135d1906001600160a01b03168688846131f5565b604051631c2d8fb360e31b81527f000000000000000000000000000000000000000000000000000000000000000060048201526000907f00000000000000000000000000000000000000000000000000000000000000006001600160a01b03169063e16c7d989060240160206040518083038186803b15801561365357600080fd5b505afa158015613667573d6000803e3d6000fd5b505050506040513d601f19601f8201168201806040525081019061368b9190613d96565b60405163d1f7659560e01b81529091506001600160a01b0382169063d1f76595906136bc9089908e9060040161462c565b602060405180830381600087803b1580156136d657600080fd5b505af11580156136ea573d6000803e3d6000fd5b505050506040513d601f19601f8201168201806040525081019061370e919061435d565b935088600460008663ffffffff1663ffffffff16815260200190815260200160002060008201518160000155602082015181600101556040820151816002015560608201518160030160006101000a8154816001600160a01b0302191690836001600160a01b0316021790555060808201518160030160146101000a81548163ffffffff021916908363ffffffff16021790555060a08201518160030160186101000a81548161ffff021916908361ffff16021790555060c082015181600301601a6101000a81548161ffff021916908361ffff16021790555060e08201518160040160006101000a8154816001600160a01b0302191690836001600160a01b031602179055506101008201518160040160146101000a8154816001600160401b0302191690836001600160401b031602179055506101208201518160050160006101000a8154816001600160a01b0302191690836001600160a01b031602179055506101408201518160060160006101000a8154816001600160a01b0302191690836001600160a01b0316021790555090505087600560008663ffffffff1663ffffffff16815260200190815260200160002060008201518160000160006101000a8154816001600160a01b0302191690836001600160a01b0316021790555060208201518160000160146101000a81548161ffff021916908361ffff16021790555060408201518160000160166101000a81548161ffff021916908361ffff1602179055509050505050509695505050505050565b6060824710156139a65760405162461bcd60e51b815260206004820152602660248201527f416464726573733a20696e73756666696369656e742062616c616e636520666f6044820152651c8818d85b1b60d21b6064820152608401610724565b6001600160a01b0385163b6139fd5760405162461bcd60e51b815260206004820152601d60248201527f416464726573733a2063616c6c20746f206e6f6e2d636f6e74726163740000006044820152606401610724565b600080866001600160a01b03168587604051613a1991906145d8565b60006040518083038185875af1925050503d8060008114613a56576040519150601f19603f3d011682016040523d82523d6000602084013e613a5b565b606091505b50915091506133978282865b60608315613a765750816133b4565b825115613a865782518084602001fd5b8160405162461bcd60e51b81526004016107249190614645565b6040805161016081018252600080825260208201819052918101829052606081018290526080810182905260a0810182905260c0810182905260e081018290526101008101829052610120810182905261014081019190915290565b8035613b0781614b3b565b919050565b600082601f830112613b1c578081fd5b81356020613b31613b2c83614a76565b614a46565b80838252828201915082860187848660051b8901011115613b50578586fd5b855b85811015613b77578135613b6581614b50565b84529284019290840190600101613b52565b5090979650505050505050565b60008083601f840112613b95578182fd5b5081356001600160401b03811115613bab578182fd5b6020830191508360208260051b8501011115613bc657600080fd5b9250929050565b60008083601f840112613bde578182fd5b5081356001600160401b03811115613bf4578182fd5b602083019150836020828501011115613bc657600080fd5b600082601f830112613c1c578081fd5b81356001600160401b03811115613c3557613c35614b25565b613c48601f8201601f1916602001614a46565b818152846020838601011115613c5c578283fd5b816020850160208301379081016020019190915292915050565b600060408284031215613c87578081fd5b604051604081018181106001600160401b0382111715613ca957613ca9614b25565b6040529050808235613cba81614b3b565b81526020830135613cca81614b5e565b6020919091015292915050565b600060808284031215613ce8578081fd5b604051608081016001600160401b038282108183111715613d0b57613d0b614b25565b81604052829350843583526020850135602084015260408501359150613d3082614b3b565b8160408401526060850135915080821115613d4a57600080fd5b50613d5785828601613c0c565b6060830152505092915050565b8035613b0781614b5e565b8035613b0781614b6e565b600060208284031215613d8b578081fd5b81356133b481614b3b565b600060208284031215613da7578081fd5b81516133b481614b3b565b60008060408385031215613dc4578081fd5b8235613dcf81614b3b565b91506020830135613ddf81614b3b565b809150509250929050565b60008060408385031215613dfc578182fd5b8251613e0781614b3b565b6020840151909250613ddf81614b3b565b60008060008060008060008060a0898b031215613e33578384fd5b8835613e3e81614b3b565b97506020890135613e4e81614b3b565b965060408901356001600160401b0380821115613e69578586fd5b613e758c838d01613b84565b909850965060608b0135915080821115613e8d578586fd5b613e998c838d01613b84565b909650945060808b0135915080821115613eb1578384fd5b50613ebe8b828c01613bcd565b999c989b5096995094979396929594505050565b60008060008060808587031215613ee7578182fd5b8435613ef281614b3b565b93506020850135613f0281614b3b565b92506040850135915060608501356001600160401b03811115613f23578182fd5b613f2f87828801613c0c565b91505092959194509250565b60008060008060008060a08789031215613f53578384fd5b8635613f5e81614b3b565b95506020870135613f6e81614b3b565b9450604087013593506060870135925060808701356001600160401b03811115613f96578283fd5b613fa289828a01613bcd565b979a9699509497509295939492505050565b60008060408385031215613fc6578182fd5b8235613fd181614b3b565b91506020830135613ddf81614b50565b60008060408385031215613ff3578182fd5b8235613ffe81614b3b565b946020939093013593505050565b6000806040838503121561401e578182fd5b825161402981614b3b565b6020939093015192949293505050565b60008060006060848603121561404d578081fd5b833561405881614b3b565b925060208401359150604084013561406f81614b3b565b809150509250925092565b6000806040838503121561408c578182fd5b82356001600160401b03808211156140a2578384fd5b818501915085601f8301126140b5578384fd5b813560206140c5613b2c83614a76565b8083825282820191508286018a848660051b89010111156140e4578889fd5b8896505b8487101561410f5780356140fb81614b3b565b8352600196909601959183019183016140e8565b5096505086013592505080821115614125578283fd5b5061413285828601613b0c565b9150509250929050565b60006020828403121561414d578081fd5b81516133b481614b50565b600060208284031215614169578081fd5b81356001600160e01b0319811681146133b4578182fd5b600060608284031215614191578081fd5b604051606081016001600160401b0382821081831117156141b4576141b4614b25565b81604052845191506141c582614b3b565b90825260208401519080821682146141db578384fd5b5060208201526040830151600381106141f2578283fd5b60408201529392505050565b6000806000838503610160811215614214578182fd5b61010080821215614223578283fd5b61422b614a1d565b915085358252602086013560208301526040860135604083015261425160608701613afc565b606083015261426260808701613d6f565b608083015261427360a08701613d64565b60a083015261428460c08701613afc565b60c083015261429560e08701613afc565b60e08301529093508401356001600160401b038111156142b3578182fd5b6142bf86828701613cd7565b9250506142d0856101208601613c76565b90509250925092565b6000602082840312156142ea578081fd5b81356133b481614b5e565b600060208284031215614306578081fd5b81516133b481614b5e565b600060208284031215614322578081fd5b5035919050565b60006020828403121561433a578081fd5b5051919050565b600060208284031215614352578081fd5b81356133b481614b6e565b60006020828403121561436e578081fd5b81516133b481614b6e565b60008060008060008060008060e0898b031215614394578182fd5b883561439f81614b6e565b975060208901356143af81614b3b565b965060408901356001600160401b038111156143c9578283fd5b6143d58b828c01613bcd565b90975095505060608901356143e981614b3b565b93506080890135925060a089013561440081614b50565b8092505060c089013590509295985092959890939650565b600080600080600080600060e0888a031215614432578081fd5b873561443d81614b6e565b9650602088013561444d81614b6e565b955060408801359450606088013593506080880135925060a0880135915060c08801356001600160401b03811115614483578182fd5b61448f8a828b01613c0c565b91505092959891949750929550565b6001600160a01b03169052565b600081518084526144c3816020860160208601614ac8565b601f01601f19169290920160200192915050565b8051825260208101516020830152604081015160408301526060810151614501606084018261449e565b506080810151614519608084018263ffffffff169052565b5060a081015161452f60a084018261ffff169052565b5060c081015161454560c084018261ffff169052565b5060e081015161455860e084018261449e565b50610100818101516001600160401b031690830152610120808201516145808285018261449e565b5050610140808201516108068285018261449e565b805182526020810151602083015260018060a01b03604082015116604083015260006060820151608060608501526145d060808501826144ab565b949350505050565b600082516145ea818460208701614ac8565b9190910192915050565b6001600160a01b0391909116815260200190565b6001600160a01b039384168152919092166020820152604081019190915260600190565b6001600160a01b03929092168252602082015260400190565b6020815260006133b460208301846144ab565b6020808252601e908201527f4c6f616e20616c7265616479207265706169642f6c6971756964617465640000604082015260600190565b60208082526010908201526f14185d5cd8589b194e881c185d5cd95960821b604082015260600190565b6020808252818101527f4f776e61626c653a2063616c6c6572206973206e6f7420746865206f776e6572604082015260600190565b6020808252601390820152721d1bdad95b881a5cc818dbdb1b185d195c985b606a1b604082015260600190565b6020808252601f908201527f5265656e7472616e637947756172643a207265656e7472616e742063616c6c00604082015260600190565b6101c0810161476182856144d7565b82516001600160a01b0316610160830152602083015161ffff9081166101808401526040909301519092166101a090910152919050565b86548152600187015460208201526002870154604082015260038701546102008201906001600160a01b036147d26060850182841661449e565b60a082901c63ffffffff16608085015261ffff60c083901c811660a086015261480660c08601828560d01c1661ffff169052565b5060048a0154915061481d60e0850182841661449e565b5060a081901c6001600160401b03166101008401525060058801546001600160a01b031661484f61012084018261449e565b5060068801546001600160a01b031661486c61014084018261449e565b5063ffffffff871661016083015263ffffffff8616610180830152846101a0830152836101c08301526133976101e083018461449e565b600061012084518352602085015160208401526040850151604084015260018060a01b03606086015116606084015263ffffffff608086015116608084015261ffff60a08601511660a084015260c085015161490260c085018261449e565b5060e085015161491560e085018261449e565b508061010084015261492981840185614595565b95945050505050565b63ffffffff9290921682526001600160a01b0316602082015260400190565b600061026063ffffffff8d16835261496c602084018d6144d7565b6001600160a01b038b81166101808501526101a0840182905290830189905261028090898b83860137838a018201929092529087166101c08301526101e082018690528415156102008301526102208201849052601f8801601f19168201016149d961024083018461449e565b9b9a5050505050505050505050565b600063ffffffff808816835280871660208401525084604083015283606083015260a0608083015261339760a0830184614595565b60405161010081016001600160401b0381118282101715614a4057614a40614b25565b60405290565b604051601f8201601f191681016001600160401b0381118282101715614a6e57614a6e614b25565b604052919050565b60006001600160401b03821115614a8f57614a8f614b25565b5060051b60200190565b60008219821115614aac57614aac614b0f565b500190565b600082821015614ac357614ac3614b0f565b500390565b60005b83811015614ae3578181015183820152602001614acb565b838111156108065750506000910152565b6000600019821415614b0857614b08614b0f565b5060010190565b634e487b7160e01b600052601160045260246000fd5b634e487b7160e01b600052604160045260246000fd5b6001600160a01b0381168114611beb57600080fd5b8015158114611beb57600080fd5b61ffff81168114611beb57600080fd5b63ffffffff81168114611beb57600080fdfea164736f6c6343000804000a",
  "libraries": {
    "NFTfiSigningUtils": "0x60Da568b88037d0735715819a37714d28BD56347",
    "LoanChecksAndCalculations": "0x6048C06d97BA978A203519a0d079AeAFf2B4ADe2",
    "LoanAirdropUtils": "0xA1D4FD6C256d6eF5661f7C01DD2B95e90C02d357",
    "ContractKeys": "0xC0691b4bb84f05ec8E2255a50487C8d67BAc7539"
  },
  "devdoc": {
    "author": "NFTfi",
    "kind": "dev",
    "methods": {
      "acceptOffer((uint256,uint256,uint256,address,uint32,uint16,address,address),(uint256,uint256,address,bytes),(address,uint16))": {
        "params": {
          "_borrowerSettings": "- Some extra parameters that the borrower needs to set when accepting an offer.",
          "_offer": "- The offer made by the lender.",
          "_signature": "- The components of the lender's signature."
        }
      },
      "cancelLoanCommitmentBeforeLoanHasBegun(uint256)": {
        "params": {
          "_nonce": "- User nonce"
        }
      },
      "constructor": {
        "details": "Sets `hub` and permitted erc20-s",
        "params": {
          "_admin": "- Initial admin of this contract.",
          "_nftfiHub": "- NFTfiHub address",
          "_permittedErc20s": "- list of permitted ERC20 token contract addresses"
        }
      },
      "drainERC1155Airdrop(address,uint256,address)": {
        "params": {
          "_receiver": "- receiver of the token",
          "_tokenAddress": "- address of the token contract for the token to be sent out",
          "_tokenId": "- id token to be sent out"
        }
      },
      "drainERC20Airdrop(address,address)": {
        "params": {
          "_receiver": "- receiver of the token",
          "_tokenAddress": "- address of the token contract for the token to be sent out"
        }
      },
      "drainERC721Airdrop(address,uint256,address)": {
        "params": {
          "_receiver": "- receiver of the token",
          "_tokenAddress": "- address of the token contract for the token to be sent out",
          "_tokenId": "- id token to be sent out"
        }
      },
      "getERC20Permit(address)": {
        "params": {
          "_erc20": "- The address of the erc20 contract."
        },
        "returns": {
          "_0": "Returns whether the erc20 is permitted"
        }
      },
      "getPayoffAmount(uint32)": {
        "params": {
          "_loanId": "A unique identifier for this particular loan, sourced from the Loan Coordinator."
        },
        "returns": {
          "_0": "The amount of the specified ERC20 currency required to pay back this loan, measured in the smallest unit of the specified ERC20 currency."
        }
      },
      "getWhetherNonceHasBeenUsedForUser(address,uint256)": {
        "params": {
          "_nonce": "- The nonce referred to here is not the same as an Ethereum account's nonce. We are referring instead to nonces that are used by both the lender and the borrower when they are first signing off-chain NFTfi orders. These nonces can be any uint256 value that the user has not previously used to sign an off-chain order. Each nonce can be used at most once per user within NFTfi, regardless of whether they are the lender or the borrower in that situation. This serves two purposes: - First, it prevents replay attacks where an attacker would submit a user's off-chain order more than once. - Second, it allows a user to cancel an off-chain order by calling NFTfi.cancelLoanCommitmentBeforeLoanHasBegun() , which marks the nonce as used and prevents any future loan from using the user's off-chain order that contains that nonce.",
          "_user": "- The address of the user. This function works for both lenders and borrowers alike."
        },
        "returns": {
          "_0": "A bool representing whether or not this nonce has been used for this user."
        }
      },
      "liquidateOverdueLoan(uint32)": {
        "params": {
          "_loanId": "A unique identifier for this particular loan, sourced from the Loan Coordinator."
        }
      },
      "onERC1155BatchReceived(address,address,uint256[],uint256[],bytes)": {
        "details": "Handles the receipt of a multiple ERC1155 token types. This function is called at the end of a `safeBatchTransferFrom` after the balances have been updated.",
        "returns": {
          "_0": "`bytes4(keccak256(\"onERC1155BatchReceived(address,address,uint256[],uint256[],bytes)\"))` if allowed"
        }
      },
      "onERC1155Received(address,address,uint256,uint256,bytes)": {
        "details": "Handles the receipt of a single ERC1155 token type. This function is called at the end of a `safeTransferFrom` after the balance has been updated.",
        "returns": {
          "_0": "`bytes4(keccak256(\"onERC1155Received(address,address,uint256,uint256,bytes)\"))` if allowed"
        }
      },
      "onERC721Received(address,address,uint256,bytes)": {
        "details": "See {IERC721Receiver-onERC721Received}. Always returns `IERC721Receiver.onERC721Received.selector`."
      },
      "owner()": {
        "details": "Returns the address of the current owner."
      },
      "pause()": {
        "details": "Triggers stopped state. Requirements: - Only the owner can call this method. - The contract must not be paused."
      },
      "paused()": {
        "details": "Returns true if the contract is paused, and false otherwise."
      },
      "payBackLoan(uint32)": {
        "params": {
          "_loanId": "A unique identifier for this particular loan, sourced from the Loan Coordinator."
        }
      },
      "pullAirdrop(uint32,address,bytes,address,uint256,bool,uint256)": {
        "params": {
          "_data": "- function selector to be called on the airdropping contract",
          "_is1155": "-",
          "_loanId": "-",
          "_nftAirdrop": "- address of the used claiming nft in the drop",
          "_nftAirdropAmount": "- amount in case of 1155",
          "_nftAirdropId": "- id of the used claiming nft in the drop",
          "_target": "- address of the airdropping contract"
        }
      },
      "renegotiateLoan(uint32,uint32,uint256,uint256,uint256,uint256,bytes)": {
        "details": "makes possible to change loan duration and max repayment amount, loan duration even can be extended if loan was expired but not liquidated.",
        "params": {
          "_expiry": "- The date when the renegotiation offer expires",
          "_lenderNonce": "- The nonce referred to here is not the same as an Ethereum account's nonce. We are referring instead to nonces that are used by both the lender and the borrower when they are first signing off-chain NFTfi orders. These nonces can be any uint256 value that the user has not previously used to sign an off-chain order. Each nonce can be used at most once per user within NFTfi, regardless of whether they are the lender or the borrower in that situation. This serves two purposes: - First, it prevents replay attacks where an attacker would submit a user's off-chain order more than once. - Second, it allows a user to cancel an off-chain order by calling NFTfi.cancelLoanCommitmentBeforeLoanHasBegun() , which marks the nonce as used and prevents any future loan from using the user's off-chain order that contains that nonce.",
          "_lenderSignature": "- The ECDSA signature of the lender, obtained off-chain ahead of time, signing the following combination of parameters: - _loanId - _newLoanDuration - _newMaximumRepaymentAmount - _lender - _expiry  - address of this contract - chainId",
          "_loanId": "- The unique identifier for the loan to be renegotiated",
          "_newLoanDuration": "- The new amount of time (measured in seconds) that can elapse before the lender can liquidate the loan and seize the underlying collateral NFT.",
          "_newMaximumRepaymentAmount": "- The new maximum amount of money that the borrower would be required to retrieve their collateral, measured in the smallest units of the ERC20 currency used for the loan. The borrower will always have to pay this amount to retrieve their collateral, regardless of whether they repay early.",
          "_renegotiationFee": "Agreed upon fee in ether that borrower pays for the lender for the renegitiation"
        }
      },
      "setERC20Permit(address,bool)": {
        "params": {
          "_erc20": "- The address of the ERC20 currency whose permit list status changed.",
          "_permit": "- The new status of whether the currency is permitted or not."
        }
      },
      "setERC20Permits(address[],bool[])": {
        "params": {
          "_erc20s": "- The addresses of the ERC20 currencies whose permit list status changed.",
          "_permits": "- The new statuses of whether the currency is permitted or not."
        }
      },
      "supportsInterface(bytes4)": {
        "details": "Checks whether this contract implements the interface defined by `interfaceId`.",
        "params": {
          "_interfaceId": "Id of the interface"
        },
        "returns": {
          "_0": "true if this contract implements the interface"
        }
      },
      "transferOwnership(address)": {
        "details": "Transfers ownership of the contract to a new account (`newOwner`). Can only be called by the current owner."
      },
      "unpause()": {
        "details": "Returns to normal state. Requirements: - Only the owner can call this method. - The contract must be paused."
      },
      "updateAdminFee(uint16)": {
        "params": {
          "_newAdminFeeInBasisPoints": "- The new admin fee measured in basis points. This is a percent of the interest paid upon a loan's completion that go to the contract admins."
        }
      },
      "updateMaximumLoanDuration(uint256)": {
        "params": {
          "_newMaximumLoanDuration": "- The new maximum loan duration, measured in seconds."
        }
      },
      "wrapCollateral(uint32)": {
        "params": {
          "_loanId": "-"
        }
      }
    },
    "title": "DirectLoanFixed",
    "version": 1
  },
  "userdoc": {
    "events": {
      "AdminFeeUpdated(uint16)": {
        "notice": "This event is fired whenever the admins change the percent of interest rates earned that they charge as a fee. Note that newAdminFee can never exceed 10,000, since the fee is measured in basis points."
      },
      "ERC20Permit(address,bool)": {
        "notice": "This event is fired whenever the admin sets a ERC20 permit."
      },
      "LoanLiquidated(uint32,address,address,uint256,uint256,uint256,uint256,address)": {
        "notice": "This event is fired whenever a lender liquidates an outstanding loan that is owned to them that has exceeded its duration. The lender receives the underlying NFT collateral, and the borrower no longer needs to repay the loan principal-plus-interest."
      },
      "LoanRenegotiated(uint32,address,address,uint32,uint256,uint256,uint256)": {
        "notice": "This event is fired when some of the terms of a loan are being renegotiated."
      },
      "LoanRepaid(uint32,address,address,uint256,uint256,uint256,uint256,uint256,address,address,address)": {
        "notice": "This event is fired whenever a borrower successfully repays their loan, paying principal-plus-interest-minus-fee to the lender in loanERC20Denomination, paying fee to owner in loanERC20Denomination, and receiving their NFT collateral back."
      },
      "LoanStarted(uint32,address,address,(uint256,uint256,uint256,address,uint32,uint16,uint16,address,uint64,address,address),(address,uint16,uint16))": {
        "notice": "This event is fired whenever a borrower begins a loan by calling NFTfi.beginLoan(), which can only occur after both the lender and borrower have approved their ERC721 and ERC20 contracts to use NFTfi, and when they both have signed off-chain messages that agree on the terms of the loan."
      },
      "MaximumLoanDurationUpdated(uint256)": {
        "notice": "This event is fired whenever the admins change the maximum duration of any loan started for this loan type."
      }
    },
    "kind": "user",
    "methods": {
      "acceptOffer((uint256,uint256,uint256,address,uint32,uint16,address,address),(uint256,uint256,address,bytes),(address,uint16))": {
        "notice": "This function is called by the borrower when accepting a lender's offer to begin a loan."
      },
      "adminFeeInBasisPoints()": {
        "notice": "The percentage of interest earned by lenders on this platform that is taken by the contract admin's as a fee, measured in basis points (hundreths of a percent). The max allowed value is 10000."
      },
      "cancelLoanCommitmentBeforeLoanHasBegun(uint256)": {
        "notice": "This function can be called by either a lender or a borrower to cancel all off-chain orders that they have signed that contain this nonce. If the off-chain orders were created correctly, there should only be one off-chain order that contains this nonce at all. The nonce referred to here is not the same as an Ethereum account's nonce. We are referring instead to nonces that are used by both the lender and the borrower when they are first signing off-chain NFTfi orders. These nonces can be any uint256 value that the user has not previously used to sign an off-chain order. Each nonce can be used at most once per user within NFTfi, regardless of whether they are the lender or the borrower in that situation. This serves two purposes. First, it prevents replay attacks where an attacker would submit a user's off-chain order more than once. Second, it allows a user to cancel an off-chain order by calling NFTfi.cancelLoanCommitmentBeforeLoanHasBegun(), which marks the nonce as used and prevents any future loan from using the user's off-chain order that contains that nonce."
      },
      "drainERC1155Airdrop(address,uint256,address)": {
        "notice": "used by the owner account to be able to drain ERC1155 tokens received as airdrops for the locked  collateral NFT-s"
      },
      "drainERC20Airdrop(address,address)": {
        "notice": "used by the owner account to be able to drain ERC20 tokens received as airdrops for the locked  collateral NFT-s"
      },
      "drainERC721Airdrop(address,uint256,address)": {
        "notice": "used by the owner account to be able to drain ERC721 tokens received as airdrops for the locked  collateral NFT-s"
      },
      "getERC20Permit(address)": {
        "notice": "This function can be called by anyone to get the permit associated with the erc20 contract."
      },
      "getPayoffAmount(uint32)": {
        "notice": "This function can be used to view the current quantity of the ERC20 currency used in the specified loan required by the borrower to repay their loan, measured in the smallest unit of the ERC20 currency."
      },
      "getWhetherNonceHasBeenUsedForUser(address,uint256)": {
        "notice": "This function can be used to view whether a particular nonce for a particular user has already been used, either from a successful loan or a cancelled off-chain order."
      },
      "liquidateOverdueLoan(uint32)": {
        "notice": "This function is called by a lender once a loan has finished its duration and the borrower still has not repaid. The lender can call this function to seize the underlying NFT collateral, although the lender gives up all rights to the principal-plus-collateral by doing so. This function is purposefully not pausable in order to prevent an attack where the contract admin's pause the contract and hold hostage the NFT's that are still within it. We intentionally allow anybody to call this function, although only the lender will end up receiving the seized collateral. We are exploring the possbility of incentivizing users to call this function by using some of the admin funds."
      },
      "loanIdToLoan(uint32)": {
        "notice": "A mapping from a loan's identifier to the loan's details, represted by the loan struct."
      },
      "loanRepaidOrLiquidated(uint32)": {
        "notice": "A mapping tracking whether a loan has either been repaid or liquidated. This prevents an attacker trying to repay or liquidate the same loan twice."
      },
      "maximumLoanDuration()": {
        "notice": "The maximum duration of any loan started for this loan type, measured in seconds. This is both a sanity-check for borrowers and an upper limit on how long admins will have to support v1 of this contract if they eventually deprecate it, as well as a check to ensure that the loan duration never exceeds the space alotted for it in the loan struct."
      },
      "payBackLoan(uint32)": {
        "notice": "This function is called by a anyone to repay a loan. It can be called at any time after the loan has begun and before loan expiry.. The caller will pay a pro-rata portion of their interest if the loan is paid off early and the loan is pro-rated type, but the complete repayment amount if it is fixed type. The the borrower (current owner of the obligation note) will get the collaterl NFT back. This function is purposefully not pausable in order to prevent an attack where the contract admin's pause the contract and hold hostage the NFT's that are still within it."
      },
      "pullAirdrop(uint32,address,bytes,address,uint256,bool,uint256)": {
        "notice": "this function initiates a flashloan to pull an airdrop from a tartget contract"
      },
      "setERC20Permit(address,bool)": {
        "notice": "This function can be called by admins to change the permitted status of an ERC20 currency. This includes both adding an ERC20 currency to the permitted list and removing it."
      },
      "setERC20Permits(address[],bool[])": {
        "notice": "This function can be called by admins to change the permitted status of a batch of ERC20 currency. This includes both adding an ERC20 currency to the permitted list and removing it."
      },
      "updateAdminFee(uint16)": {
        "notice": "This function can be called by admins to change the percent of interest rates earned that they charge as a fee. Note that newAdminFee can never exceed 10,000, since the fee is measured in basis points."
      },
      "updateMaximumLoanDuration(uint256)": {
        "notice": "This function can be called by admins to change the maximumLoanDuration. Note that they can never change maximumLoanDuration to be greater than UINT32_MAX, since that's the maximum space alotted for the duration in the loan struct."
      },
      "wrapCollateral(uint32)": {
        "notice": "this function creates a proxy contract wrapping the collateral to be able to catch an expected airdrop"
      }
    },
    "notice": "Main contract for NFTfi Direct Loans Fixed Type. This contract manages the ability to create NFT-backed peer-to-peer loans of type Fixed (agreed to be a fixed-repayment loan) where the borrower pays the maximumRepaymentAmount regardless of whether they repay early or not. There are two ways to commence an NFT-backed loan: a. The borrower accepts a lender's offer by calling `acceptOffer`.   1. the borrower calls nftContract.approveAll(NFTfi), approving the NFTfi contract to move their NFT's on their be1alf.   2. the lender calls erc20Contract.approve(NFTfi), allowing NFTfi to move the lender's ERC20 tokens on their behalf.   3. the lender signs an off-chain message, proposing its offer terms.   4. the borrower calls `acceptOffer` to accept these terms and enter into the loan. The NFT is stored in the contract, the borrower receives the loan principal in the specified ERC20 currency, the lender receives an NFTfi promissory note (in ERC721 form) that represents the rights to either the principal-plus-interest, or the underlying NFT collateral if the borrower does not pay back in time, and the borrower receives obligation receipt (in ERC721 form) that gives them the right to pay back the loan and get the collateral back. b. The lender accepts a borrowe's binding terms by calling `acceptListing`.   1. the borrower calls nftContract.approveAll(NFTfi), approving the NFTfi contract to move their NFT's on their be1alf.   2. the lender calls erc20Contract.approve(NFTfi), allowing NFTfi to move the lender's ERC20 tokens on their behalf.   3. the borrower signs an off-chain message, proposing its binding terms.   4. the lender calls `acceptListing` with an offer matching the binding terms and enter into the loan. The NFT is stored in the contract, the borrower receives the loan principal in the specified ERC20 currency, the lender receives an NFTfi promissory note (in ERC721 form) that represents the rights to either the principal-plus-interest, or the underlying NFT collateral if the borrower does not pay back in time, and the borrower receives obligation receipt (in ERC721 form) that gives them the right to pay back the loan and get the collateral back. The lender can freely transfer and trade this ERC721 promissory note as they wish, with the knowledge that transferring the ERC721 promissory note tranfsers the rights to principal-plus-interest and/or collateral, and that they will no longer have a claim on the loan. The ERC721 promissory note itself represents that claim. The borrower can freely transfer and trade this ERC721 obligaiton receipt as they wish, with the knowledge that transferring the ERC721 obligaiton receipt tranfsers the rights right to pay back the loan and get the collateral back. A loan may end in one of two ways: - First, a borrower may call NFTfi.payBackLoan() and pay back the loan plus interest at any time, in which case they receive their NFT back in the same transaction. - Second, if the loan's duration has passed and the loan has not been paid back yet, a lender can call NFTfi.liquidateOverdueLoan(), in which case they receive the underlying NFT collateral and forfeit the rights to the principal-plus-interest, which the borrower now keeps.",
    "version": 1
  },
  "storageLayout": {
    "storage": [
      {
        "astId": 21501,
        "contract": "contracts/loans/direct/loanTypes/DirectLoanFixedOffer.sol:DirectLoanFixedOffer",
        "label": "_owner",
        "offset": 0,
        "slot": "0",
        "type": "t_address"
      },
      {
        "astId": 717,
        "contract": "contracts/loans/direct/loanTypes/DirectLoanFixedOffer.sol:DirectLoanFixedOffer",
        "label": "_paused",
        "offset": 20,
        "slot": "0",
        "type": "t_bool"
      },
      {
        "astId": 802,
        "contract": "contracts/loans/direct/loanTypes/DirectLoanFixedOffer.sol:DirectLoanFixedOffer",
        "label": "_status",
        "offset": 0,
        "slot": "1",
        "type": "t_uint256"
      },
      {
        "astId": 14781,
        "contract": "contracts/loans/direct/loanTypes/DirectLoanFixedOffer.sol:DirectLoanFixedOffer",
        "label": "maximumLoanDuration",
        "offset": 0,
        "slot": "2",
        "type": "t_uint256"
      },
      {
        "astId": 14786,
        "contract": "contracts/loans/direct/loanTypes/DirectLoanFixedOffer.sol:DirectLoanFixedOffer",
        "label": "adminFeeInBasisPoints",
        "offset": 0,
        "slot": "3",
        "type": "t_uint16"
      },
      {
        "astId": 14793,
        "contract": "contracts/loans/direct/loanTypes/DirectLoanFixedOffer.sol:DirectLoanFixedOffer",
        "label": "loanIdToLoan",
        "offset": 0,
        "slot": "4",
        "type": "t_mapping(t_uint32,t_struct(LoanTerms)17625_storage)"
      },
      {
        "astId": 14798,
        "contract": "contracts/loans/direct/loanTypes/DirectLoanFixedOffer.sol:DirectLoanFixedOffer",
        "label": "loanIdToLoanExtras",
        "offset": 0,
        "slot": "5",
        "type": "t_mapping(t_uint32,t_struct(LoanExtras)17632_storage)"
      },
      {
        "astId": 14804,
        "contract": "contracts/loans/direct/loanTypes/DirectLoanFixedOffer.sol:DirectLoanFixedOffer",
        "label": "loanRepaidOrLiquidated",
        "offset": 0,
        "slot": "6",
        "type": "t_mapping(t_uint32,t_bool)"
      },
      {
        "astId": 14811,
        "contract": "contracts/loans/direct/loanTypes/DirectLoanFixedOffer.sol:DirectLoanFixedOffer",
        "label": "_escrowTokens",
        "offset": 0,
        "slot": "7",
        "type": "t_mapping(t_address,t_mapping(t_uint256,t_uint256))"
      },
      {
        "astId": 14818,
        "contract": "contracts/loans/direct/loanTypes/DirectLoanFixedOffer.sol:DirectLoanFixedOffer",
        "label": "_nonceHasBeenUsedForUser",
        "offset": 0,
        "slot": "8",
        "type": "t_mapping(t_address,t_mapping(t_uint256,t_bool))"
      },
      {
        "astId": 14823,
        "contract": "contracts/loans/direct/loanTypes/DirectLoanFixedOffer.sol:DirectLoanFixedOffer",
        "label": "erc20Permits",
        "offset": 0,
        "slot": "9",
        "type": "t_mapping(t_address,t_bool)"
      }
    ],
    "types": {
      "t_address": {
        "encoding": "inplace",
        "label": "address",
        "numberOfBytes": "20"
      },
      "t_bool": {
        "encoding": "inplace",
        "label": "bool",
        "numberOfBytes": "1"
      },
      "t_mapping(t_address,t_bool)": {
        "encoding": "mapping",
        "key": "t_address",
        "label": "mapping(address => bool)",
        "numberOfBytes": "32",
        "value": "t_bool"
      },
      "t_mapping(t_address,t_mapping(t_uint256,t_bool))": {
        "encoding": "mapping",
        "key": "t_address",
        "label": "mapping(address => mapping(uint256 => bool))",
        "numberOfBytes": "32",
        "value": "t_mapping(t_uint256,t_bool)"
      },
      "t_mapping(t_address,t_mapping(t_uint256,t_uint256))": {
        "encoding": "mapping",
        "key": "t_address",
        "label": "mapping(address => mapping(uint256 => uint256))",
        "numberOfBytes": "32",
        "value": "t_mapping(t_uint256,t_uint256)"
      },
      "t_mapping(t_uint256,t_bool)": {
        "encoding": "mapping",
        "key": "t_uint256",
        "label": "mapping(uint256 => bool)",
        "numberOfBytes": "32",
        "value": "t_bool"
      },
      "t_mapping(t_uint256,t_uint256)": {
        "encoding": "mapping",
        "key": "t_uint256",
        "label": "mapping(uint256 => uint256)",
        "numberOfBytes": "32",
        "value": "t_uint256"
      },
      "t_mapping(t_uint32,t_bool)": {
        "encoding": "mapping",
        "key": "t_uint32",
        "label": "mapping(uint32 => bool)",
        "numberOfBytes": "32",
        "value": "t_bool"
      },
      "t_mapping(t_uint32,t_struct(LoanExtras)17632_storage)": {
        "encoding": "mapping",
        "key": "t_uint32",
        "label": "mapping(uint32 => struct LoanData.LoanExtras)",
        "numberOfBytes": "32",
        "value": "t_struct(LoanExtras)17632_storage"
      },
      "t_mapping(t_uint32,t_struct(LoanTerms)17625_storage)": {
        "encoding": "mapping",
        "key": "t_uint32",
        "label": "mapping(uint32 => struct LoanData.LoanTerms)",
        "numberOfBytes": "32",
        "value": "t_struct(LoanTerms)17625_storage"
      },
      "t_struct(LoanExtras)17632_storage": {
        "encoding": "inplace",
        "label": "struct LoanData.LoanExtras",
        "members": [
          {
            "astId": 17627,
            "contract": "contracts/loans/direct/loanTypes/DirectLoanFixedOffer.sol:DirectLoanFixedOffer",
            "label": "revenueSharePartner",
            "offset": 0,
            "slot": "0",
            "type": "t_address"
          },
          {
            "astId": 17629,
            "contract": "contracts/loans/direct/loanTypes/DirectLoanFixedOffer.sol:DirectLoanFixedOffer",
            "label": "revenueShareInBasisPoints",
            "offset": 20,
            "slot": "0",
            "type": "t_uint16"
          },
          {
            "astId": 17631,
            "contract": "contracts/loans/direct/loanTypes/DirectLoanFixedOffer.sol:DirectLoanFixedOffer",
            "label": "referralFeeInBasisPoints",
            "offset": 22,
            "slot": "0",
            "type": "t_uint16"
          }
        ],
        "numberOfBytes": "32"
      },
      "t_struct(LoanTerms)17625_storage": {
        "encoding": "inplace",
        "label": "struct LoanData.LoanTerms",
        "members": [
          {
            "astId": 17604,
            "contract": "contracts/loans/direct/loanTypes/DirectLoanFixedOffer.sol:DirectLoanFixedOffer",
            "label": "loanPrincipalAmount",
            "offset": 0,
            "slot": "0",
            "type": "t_uint256"
          },
          {
            "astId": 17606,
            "contract": "contracts/loans/direct/loanTypes/DirectLoanFixedOffer.sol:DirectLoanFixedOffer",
            "label": "maximumRepaymentAmount",
            "offset": 0,
            "slot": "1",
            "type": "t_uint256"
          },
          {
            "astId": 17608,
            "contract": "contracts/loans/direct/loanTypes/DirectLoanFixedOffer.sol:DirectLoanFixedOffer",
            "label": "nftCollateralId",
            "offset": 0,
            "slot": "2",
            "type": "t_uint256"
          },
          {
            "astId": 17610,
            "contract": "contracts/loans/direct/loanTypes/DirectLoanFixedOffer.sol:DirectLoanFixedOffer",
            "label": "loanERC20Denomination",
            "offset": 0,
            "slot": "3",
            "type": "t_address"
          },
          {
            "astId": 17612,
            "contract": "contracts/loans/direct/loanTypes/DirectLoanFixedOffer.sol:DirectLoanFixedOffer",
            "label": "loanDuration",
            "offset": 20,
            "slot": "3",
            "type": "t_uint32"
          },
          {
            "astId": 17614,
            "contract": "contracts/loans/direct/loanTypes/DirectLoanFixedOffer.sol:DirectLoanFixedOffer",
            "label": "loanInterestRateForDurationInBasisPoints",
            "offset": 24,
            "slot": "3",
            "type": "t_uint16"
          },
          {
            "astId": 17616,
            "contract": "contracts/loans/direct/loanTypes/DirectLoanFixedOffer.sol:DirectLoanFixedOffer",
            "label": "loanAdminFeeInBasisPoints",
            "offset": 26,
            "slot": "3",
            "type": "t_uint16"
          },
          {
            "astId": 17618,
            "contract": "contracts/loans/direct/loanTypes/DirectLoanFixedOffer.sol:DirectLoanFixedOffer",
            "label": "nftCollateralWrapper",
            "offset": 0,
            "slot": "4",
            "type": "t_address"
          },
          {
            "astId": 17620,
            "contract": "contracts/loans/direct/loanTypes/DirectLoanFixedOffer.sol:DirectLoanFixedOffer",
            "label": "loanStartTime",
            "offset": 20,
            "slot": "4",
            "type": "t_uint64"
          },
          {
            "astId": 17622,
            "contract": "contracts/loans/direct/loanTypes/DirectLoanFixedOffer.sol:DirectLoanFixedOffer",
            "label": "nftCollateralContract",
            "offset": 0,
            "slot": "5",
            "type": "t_address"
          },
          {
            "astId": 17624,
            "contract": "contracts/loans/direct/loanTypes/DirectLoanFixedOffer.sol:DirectLoanFixedOffer",
            "label": "borrower",
            "offset": 0,
            "slot": "6",
            "type": "t_address"
          }
        ],
        "numberOfBytes": "224"
      },
      "t_uint16": {
        "encoding": "inplace",
        "label": "uint16",
        "numberOfBytes": "2"
      },
      "t_uint256": {
        "encoding": "inplace",
        "label": "uint256",
        "numberOfBytes": "32"
      },
      "t_uint32": {
        "encoding": "inplace",
        "label": "uint32",
        "numberOfBytes": "4"
      },
      "t_uint64": {
        "encoding": "inplace",
        "label": "uint64",
        "numberOfBytes": "8"
      }
    }
  }
}