{
  "address": "0x0C90C8B4aa8549656851964d5fB787F0e4F54082",
  "abi": [
    {
      "inputs": [
        {
          "internalType": "address",
          "name": "_nftfiHub",
          "type": "address"
        },
        {
          "internalType": "address",
          "name": "_admin",
          "type": "address"
        },
        {
          "internalType": "string[]",
          "name": "_loanTypes",
          "type": "string[]"
        },
        {
          "internalType": "address[]",
          "name": "_loanContracts",
          "type": "address[]"
        }
      ],
      "stateMutability": "nonpayable",
      "type": "constructor"
    },
    {
      "anonymous": false,
      "inputs": [
        {
          "indexed": true,
          "internalType": "address",
          "name": "previousOwner",
          "type": "address"
        },
        {
          "indexed": true,
          "internalType": "address",
          "name": "newOwner",
          "type": "address"
        }
      ],
      "name": "OwnershipTransferred",
      "type": "event"
    },
    {
      "anonymous": false,
      "inputs": [
        {
          "indexed": true,
          "internalType": "bytes32",
          "name": "loanType",
          "type": "bytes32"
        },
        {
          "indexed": true,
          "internalType": "address",
          "name": "loanContract",
          "type": "address"
        }
      ],
      "name": "TypeUpdated",
      "type": "event"
    },
    {
      "anonymous": false,
      "inputs": [
        {
          "indexed": true,
          "internalType": "uint32",
          "name": "loanId",
          "type": "uint32"
        },
        {
          "indexed": true,
          "internalType": "uint64",
          "name": "smartNftId",
          "type": "uint64"
        },
        {
          "indexed": true,
          "internalType": "address",
          "name": "loanContract",
          "type": "address"
        },
        {
          "indexed": false,
          "internalType": "enum IDirectLoanCoordinator.StatusType",
          "name": "newStatus",
          "type": "uint8"
        }
      ],
      "name": "UpdateStatus",
      "type": "event"
    },
    {
      "inputs": [
        {
          "internalType": "bytes32",
          "name": "_loanType",
          "type": "bytes32"
        }
      ],
      "name": "getContractFromType",
      "outputs": [
        {
          "internalType": "address",
          "name": "",
          "type": "address"
        }
      ],
      "stateMutability": "view",
      "type": "function"
    },
    {
      "inputs": [
        {
          "internalType": "uint32",
          "name": "_loanId",
          "type": "uint32"
        }
      ],
      "name": "getLoanData",
      "outputs": [
        {
          "components": [
            {
              "internalType": "address",
              "name": "loanContract",
              "type": "address"
            },
            {
              "internalType": "uint64",
              "name": "smartNftId",
              "type": "uint64"
            },
            {
              "internalType": "enum IDirectLoanCoordinator.StatusType",
              "name": "status",
              "type": "uint8"
            }
          ],
          "internalType": "struct IDirectLoanCoordinator.Loan",
          "name": "",
          "type": "tuple"
        }
      ],
      "stateMutability": "view",
      "type": "function"
    },
    {
      "inputs": [
        {
          "internalType": "address",
          "name": "_loanContract",
          "type": "address"
        }
      ],
      "name": "getTypeFromContract",
      "outputs": [
        {
          "internalType": "bytes32",
          "name": "",
          "type": "bytes32"
        }
      ],
      "stateMutability": "view",
      "type": "function"
    },
    {
      "inputs": [],
      "name": "hub",
      "outputs": [
        {
          "internalType": "contract INftfiHub",
          "name": "",
          "type": "address"
        }
      ],
      "stateMutability": "view",
      "type": "function"
    },
    {
      "inputs": [
        {
          "internalType": "address",
          "name": "_promissoryNoteToken",
          "type": "address"
        },
        {
          "internalType": "address",
          "name": "_obligationReceiptToken",
          "type": "address"
        }
      ],
      "name": "initialize",
      "outputs": [],
      "stateMutability": "nonpayable",
      "type": "function"
    },
    {
      "inputs": [
        {
          "internalType": "uint32",
          "name": "_loanId",
          "type": "uint32"
        },
        {
          "internalType": "address",
          "name": "_loanContract",
          "type": "address"
        }
      ],
      "name": "isValidLoanId",
      "outputs": [
        {
          "internalType": "bool",
          "name": "validity",
          "type": "bool"
        }
      ],
      "stateMutability": "view",
      "type": "function"
    },
    {
      "inputs": [
        {
          "internalType": "uint32",
          "name": "_loanId",
          "type": "uint32"
        },
        {
          "internalType": "address",
          "name": "_borrower",
          "type": "address"
        }
      ],
      "name": "mintObligationReceipt",
      "outputs": [],
      "stateMutability": "nonpayable",
      "type": "function"
    },
    {
      "inputs": [],
      "name": "obligationReceiptToken",
      "outputs": [
        {
          "internalType": "address",
          "name": "",
          "type": "address"
        }
      ],
      "stateMutability": "view",
      "type": "function"
    },
    {
      "inputs": [],
      "name": "owner",
      "outputs": [
        {
          "internalType": "address",
          "name": "",
          "type": "address"
        }
      ],
      "stateMutability": "view",
      "type": "function"
    },
    {
      "inputs": [],
      "name": "promissoryNoteToken",
      "outputs": [
        {
          "internalType": "address",
          "name": "",
          "type": "address"
        }
      ],
      "stateMutability": "view",
      "type": "function"
    },
    {
      "inputs": [
        {
          "internalType": "address",
          "name": "_lender",
          "type": "address"
        },
        {
          "internalType": "bytes32",
          "name": "_loanType",
          "type": "bytes32"
        }
      ],
      "name": "registerLoan",
      "outputs": [
        {
          "internalType": "uint32",
          "name": "",
          "type": "uint32"
        }
      ],
      "stateMutability": "nonpayable",
      "type": "function"
    },
    {
      "inputs": [
        {
          "internalType": "string",
          "name": "_loanType",
          "type": "string"
        },
        {
          "internalType": "address",
          "name": "_loanContract",
          "type": "address"
        }
      ],
      "name": "registerLoanType",
      "outputs": [],
      "stateMutability": "nonpayable",
      "type": "function"
    },
    {
      "inputs": [
        {
          "internalType": "string[]",
          "name": "_loanTypes",
          "type": "string[]"
        },
        {
          "internalType": "address[]",
          "name": "_loanContracts",
          "type": "address[]"
        }
      ],
      "name": "registerLoanTypes",
      "outputs": [],
      "stateMutability": "nonpayable",
      "type": "function"
    },
    {
      "inputs": [
        {
          "internalType": "uint32",
          "name": "_loanId",
          "type": "uint32"
        }
      ],
      "name": "resolveLoan",
      "outputs": [],
      "stateMutability": "nonpayable",
      "type": "function"
    },
    {
      "inputs": [],
      "name": "totalNumLoans",
      "outputs": [
        {
          "internalType": "uint32",
          "name": "",
          "type": "uint32"
        }
      ],
      "stateMutability": "view",
      "type": "function"
    },
    {
      "inputs": [
        {
          "internalType": "address",
          "name": "_newOwner",
          "type": "address"
        }
      ],
      "name": "transferOwnership",
      "outputs": [],
      "stateMutability": "nonpayable",
      "type": "function"
    }
  ],
  "transactionHash": "0x769930ad4b6a0978a63fe74e41c782f4072d53ce8b69915f2b8380e9eb15b4fb",
  "args": [
    "0xd99b8075Cb583FdE8F60A2C3aC84eE37c701a578",
    "0xDcA17eeDc1aa3dbB14361678566b2dA5A1Bb4C31",
    [
      "DIRECT_LOAN_FIXED_OFFER"
    ],
    [
      "0xf896527c49b44aAb3Cf22aE356Fa3AF8E331F280"
    ]
  ],
  "numDeployments": 1,
  "solcInputHash": "e960dbb71492b307ed8580de393cc147",
  "bytecode": "0x60c06040526003805464ffffffffff191690553480156200001f57600080fd5b5060405162001d4f38038062001d4f833981016040819052620000429162000394565b826200004e816200007d565b50606084811b6001600160601b03191660805233901b60a052620000738282620000cd565b5050505062000610565b600080546001600160a01b038381166001600160a01b0319831681178455604051919092169283917f8be0079c531659141344cd1fd0a4f28419497f9722a3daafe3b4186f6b6457e09190a35050565b8051825114620001305760405162461bcd60e51b815260206004820152602360248201527f66756e6374696f6e20696e666f726d6174696f6e206172697479206d69736d616044820152620e8c6d60eb1b60648201526084015b60405180910390fd5b60005b8251811015620001b4576200019f8382815181106200016257634e487b7160e01b600052603260045260246000fd5b60200260200101518383815181106200018b57634e487b7160e01b600052603260045260246000fd5b6020026020010151620001b960201b60201c565b80620001ab81620005d2565b91505062000133565b505050565b8151620001fd5760405162461bcd60e51b81526020600482015260116024820152706c6f616e5479706520697320656d70747960781b604482015260640162000127565b60405163f99a8ffb60e01b815260009073C0691b4bb84f05ec8E2255a50487C8d67BAc75399063f99a8ffb906200023990869060040162000511565b60206040518083038186803b1580156200025257600080fd5b505af415801562000267573d6000803e3d6000fd5b505050506040513d601f19601f820116820180604052508101906200028d9190620004f8565b600081815260016020908152604080832080546001600160a01b0319166001600160a01b0388169081179091558084526002909252808320849055519293509183917f22be69269c1f7d73e73dcb25b710dd88c7aa1cf374c16d945def98df2107c2f891a3505050565b80516001600160a01b03811681146200030f57600080fd5b919050565b600082601f83011262000325578081fd5b815160206200033e620003388362000579565b62000546565b80838252828201915082860187848660051b89010111156200035e578586fd5b855b8581101562000387576200037482620002f7565b8452928401929084019060010162000360565b5090979650505050505050565b60008060008060808587031215620003aa578384fd5b620003b585620002f7565b9350620003c560208601620002f7565b60408601519093506001600160401b0380821115620003e2578384fd5b818701915087601f830112620003f6578384fd5b815162000407620003388262000579565b80828252602082019150602085018b60208560051b88010111156200042a578788fd5b875b84811015620004c2578151868111156200044457898afd5b8701603f81018e136200045557898afd5b6020810151878111156200046d576200046d620005fa565b62000482601f8201601f191660200162000546565b8181528f604083850101111562000497578b8cfd5b620004aa8260208301604086016200059f565b8652505060209384019391909101906001016200042c565b505060608a01519096509350505080821115620004dd578283fd5b50620004ec8782880162000314565b91505092959194509250565b6000602082840312156200050a578081fd5b5051919050565b6020815260008251806020840152620005328160408501602087016200059f565b601f01601f19169190910160400192915050565b604051601f8201601f191681016001600160401b0381118282101715620005715762000571620005fa565b604052919050565b60006001600160401b03821115620005955762000595620005fa565b5060051b60200190565b60005b83811015620005bc578181015183820152602001620005a2565b83811115620005cc576000848401525b50505050565b6000600019821415620005f357634e487b7160e01b81526011600452602481fd5b5060010190565b634e487b7160e01b600052604160045260246000fd5b60805160601c60a05160601c6117136200063c600039600061064b0152600061015801526117136000f3fe608060405234801561001057600080fd5b50600436106100e05760003560e01c80638208e76c116100875780638208e76c1461020b57806386d93f661461021e5780638da5cb5b1461025557806392163ea614610266578063d1f7659514610279578063d5d4d1821461028c578063e6c5a5411461029f578063f2fde38b146102bf57600080fd5b806308abefa9146100e55780631b982cf11461012b5780632604187414610140578063365a86fc14610153578063485cc9551461017a5780634fbe68a01461018d57806352a067e5146101a05780635794fefc146101e6575b600080fd5b61010e6100f3366004611437565b6000908152600160205260409020546001600160a01b031690565b6040516001600160a01b0390911681526020015b60405180910390f35b61013e6101393660046114c3565b6102d2565b005b61013e61014e366004611345565b610608565b61010e7f000000000000000000000000000000000000000000000000000000000000000081565b61013e6101883660046112ea565b610640565b60055461010e906001600160a01b031681565b6101d66101ae3660046114c3565b63ffffffff9091166000908152600460205260409020546001600160a01b0390811691161490565b6040519015158152602001610122565b6003546101f69063ffffffff1681565b60405163ffffffff9091168152602001610122565b60065461010e906001600160a01b031681565b61024761022c3660046112c9565b6001600160a01b031660009081526002602052604090205490565b604051908152602001610122565b6000546001600160a01b031661010e565b61013e6102743660046114a9565b6107e6565b6101f661028736600461131c565b610ae2565b61013e61029a366004611467565b610dcd565b6102b26102ad3660046114a9565b610e01565b6040516101229190611606565b61013e6102cd3660046112c9565b610ec0565b600354600160201b900460ff166103045760405162461bcd60e51b81526004016102fb906115a8565b60405180910390fd5b3360008181526002602052604081205414156103705760405162461bcd60e51b815260206004820152602560248201527f43616c6c6572206d75737420612062652072656769737465726564206c6f616e604482015264207479706560d81b60648201526084016102fb565b63ffffffff8316600090815260046020526040902054600160a01b90046001600160401b0316806103d85760405162461bcd60e51b81526020600482015260126024820152711b1bd85b88191bd95cdb89dd08195e1a5cdd60721b60448201526064016102fb565b600554604051634f558e7960e01b81526001600160401b03831660048201526001600160a01b0390911690634f558e799060240160206040518083038186803b15801561042457600080fd5b505afa158015610438573d6000803e3d6000fd5b505050506040513d601f19601f8201168201806040525081019061045c9190611417565b6104a85760405162461bcd60e51b815260206004820152601c60248201527f50726f6d6973736f7279206e6f74652073686f756c642065786973740000000060448201526064016102fb565b600654604051634f558e7960e01b81526001600160401b03831660048201526001600160a01b0390911690634f558e799060240160206040518083038186803b1580156104f457600080fd5b505afa158015610508573d6000803e3d6000fd5b505050506040513d601f19601f8201168201806040525081019061052c9190611417565b156105795760405162461bcd60e51b815260206004820152601c60248201527f4f626c69676174696f6e20722073686f756c646e27742065786973740000000060448201526064016102fb565b6006546040805163ffffffff871660208201526001600160a01b03909216916394d008ef9186918591016040516020818303038152906040526040518463ffffffff1660e01b81526004016105d09392919061154b565b600060405180830381600087803b1580156105ea57600080fd5b505af11580156105fe573d6000803e3d6000fd5b5050505050505050565b6000546001600160a01b031633146106325760405162461bcd60e51b81526004016102fb906115d1565b61063c8282610f5b565b5050565b336001600160a01b037f000000000000000000000000000000000000000000000000000000000000000016146106a85760405162461bcd60e51b815260206004820152600d60248201526c37b7363c903232b83637bcb2b960991b60448201526064016102fb565b600354600160201b900460ff16156106f85760405162461bcd60e51b8152602060048201526013602482015272185b1c9958591e481a5b9a5d1a585b1a5e9959606a1b60448201526064016102fb565b6001600160a01b03821661074e5760405162461bcd60e51b815260206004820152601b60248201527f70726f6d6973736f72794e6f7465546f6b656e206973207a65726f000000000060448201526064016102fb565b6001600160a01b0381166107a45760405162461bcd60e51b815260206004820152601e60248201527f6f626c69676174696f6e52656365697074546f6b656e206973207a65726f000060448201526064016102fb565b6003805464ff000000001916600160201b179055600580546001600160a01b039384166001600160a01b03199182161790915560068054929093169116179055565b600354600160201b900460ff1661080f5760405162461bcd60e51b81526004016102fb906115a8565b63ffffffff8116600090815260046020526040902060018154600160e01b900460ff16600281111561085157634e487b7160e01b600052602160045260246000fd5b146108985760405162461bcd60e51b81526020600482015260176024820152764c6f616e20737461747573206d757374206265204e657760481b60448201526064016102fb565b80546001600160a01b031633146109045760405162461bcd60e51b815260206004820152602a60248201527f4e6f74207468652073616d6520436f6e747261637420746861742072656769736044820152693a32b932b2102637b0b760b11b60648201526084016102fb565b8054600160e11b60ff60e01b1990911617808255600554604051630852cd8d60e31b81526001600160401b03600160a01b9093049290921660048301526001600160a01b0316906342966c6890602401600060405180830381600087803b15801561096e57600080fd5b505af1158015610982573d6000803e3d6000fd5b50506006548354604051634f558e7960e01b8152600160a01b9091046001600160401b031660048201526001600160a01b039091169250634f558e79915060240160206040518083038186803b1580156109db57600080fd5b505afa1580156109ef573d6000803e3d6000fd5b505050506040513d601f19601f82011682018060405250810190610a139190611417565b15610a88576006548154604051630852cd8d60e31b8152600160a01b9091046001600160401b031660048201526001600160a01b03909116906342966c6890602401600060405180830381600087803b158015610a6f57600080fd5b505af1158015610a83573d6000803e3d6000fd5b505050505b80546040513391600160a01b90046001600160401b03169063ffffffff8516907fed71188e6e889129ea3e58f204838c0d459c617582cbbc6759017f50820edb5c90610ad690600290611587565b60405180910390a45050565b600354600090600160201b900460ff16610b0e5760405162461bcd60e51b81526004016102fb906115a8565b3380610b2f846000908152600160205260409020546001600160a01b031690565b6001600160a01b031614610b955760405162461bcd60e51b815260206004820152602760248201527f43616c6c6572206d757374206265207265676973746572656420666f72206c6f604482015266616e207479706560c81b60648201526084016102fb565b6003805460019190600090610bb190849063ffffffff16611697565b82546101009290920a63ffffffff818102199093169190921691909102179055506003546040513060601b6bffffffffffffffffffffffff1916602082015260e09190911b6001600160e01b031916603482015260009060380160408051808303601f1901815282825280516020918201206060840183526001600160a01b0386811685526001600160401b03821683860152600185850152600554600354855163ffffffff9091169481019490945291955016916394d008ef9189918691016040516020818303038152906040526040518463ffffffff1660e01b8152600401610c9e9392919061154b565b600060405180830381600087803b158015610cb857600080fd5b505af1158015610ccc573d6000803e3d6000fd5b505060035463ffffffff1660009081526004602090815260409182902085518154928701516001600160401b0316600160a01b026001600160e01b03199093166001600160a01b0390911617919091178082559185015185945090925090829060ff60e01b1916600160e01b836002811115610d5857634e487b7160e01b600052602160045260246000fd5b0217905550506003546040516001600160a01b03861692506001600160401b0385169163ffffffff16907fed71188e6e889129ea3e58f204838c0d459c617582cbbc6759017f50820edb5c90610db090600190611587565b60405180910390a4505060035463ffffffff169150505b92915050565b6000546001600160a01b03163314610df75760405162461bcd60e51b81526004016102fb906115d1565b61063c8282611033565b610e2260408051606081018252600080825260208201819052909182015290565b63ffffffff8216600090815260046020908152604091829020825160608101845281546001600160a01b0381168252600160a01b81046001600160401b03169382019390935292909190830190600160e01b900460ff166002811115610e9857634e487b7160e01b600052602160045260246000fd5b6002811115610eb757634e487b7160e01b600052602160045260246000fd5b90525092915050565b6000546001600160a01b03163314610eea5760405162461bcd60e51b81526004016102fb906115d1565b6001600160a01b038116610f4f5760405162461bcd60e51b815260206004820152602660248201527f4f776e61626c653a206e6577206f776e657220697320746865207a65726f206160448201526564647265737360d01b60648201526084016102fb565b610f5881611169565b50565b8051825114610fb85760405162461bcd60e51b815260206004820152602360248201527f66756e6374696f6e20696e666f726d6174696f6e206172697479206d69736d616044820152620e8c6d60eb1b60648201526084016102fb565b60005b825181101561102e5761101c838281518110610fe757634e487b7160e01b600052603260045260246000fd5b602002602001015183838151811061100f57634e487b7160e01b600052603260045260246000fd5b6020026020010151611033565b80611026816116bf565b915050610fbb565b505050565b81516110755760405162461bcd60e51b81526020600482015260116024820152706c6f616e5479706520697320656d70747960781b60448201526064016102fb565b60405163f99a8ffb60e01b815260009073C0691b4bb84f05ec8E2255a50487C8d67BAc75399063f99a8ffb906110af908690600401611595565b60206040518083038186803b1580156110c757600080fd5b505af41580156110db573d6000803e3d6000fd5b505050506040513d601f19601f820116820180604052508101906110ff919061144f565b600081815260016020908152604080832080546001600160a01b0319166001600160a01b0388169081179091558084526002909252808320849055519293509183917f22be69269c1f7d73e73dcb25b710dd88c7aa1cf374c16d945def98df2107c2f891a3505050565b600080546001600160a01b038381166001600160a01b0319831681178455604051919092169283917f8be0079c531659141344cd1fd0a4f28419497f9722a3daafe3b4186f6b6457e09190a35050565b80356001600160a01b03811681146111d057600080fd5b919050565b600082601f8301126111e5578081fd5b813560206111fa6111f583611674565b611644565b80838252828201915082860187848660051b8901011115611219578586fd5b855b8581101561123e5761122c826111b9565b8452928401929084019060010161121b565b5090979650505050505050565b600082601f83011261125b578081fd5b81356001600160401b03811115611274576112746116f0565b611287601f8201601f1916602001611644565b81815284602083860101111561129b578283fd5b816020850160208301379081016020019190915292915050565b803563ffffffff811681146111d057600080fd5b6000602082840312156112da578081fd5b6112e3826111b9565b9392505050565b600080604083850312156112fc578081fd5b611305836111b9565b9150611313602084016111b9565b90509250929050565b6000806040838503121561132e578182fd5b611337836111b9565b946020939093013593505050565b60008060408385031215611357578182fd5b82356001600160401b038082111561136d578384fd5b818501915085601f830112611380578384fd5b813560206113906111f583611674565b8083825282820191508286018a848660051b89010111156113af578889fd5b885b858110156113e8578135878111156113c7578a8bfd5b6113d58d87838c010161124b565b85525092840192908401906001016113b1565b50909750505086013592505080821115611400578283fd5b5061140d858286016111d5565b9150509250929050565b600060208284031215611428578081fd5b815180151581146112e3578182fd5b600060208284031215611448578081fd5b5035919050565b600060208284031215611460578081fd5b5051919050565b60008060408385031215611479578182fd5b82356001600160401b0381111561148e578283fd5b61149a8582860161124b565b925050611313602084016111b9565b6000602082840312156114ba578081fd5b6112e3826112b5565b600080604083850312156114d5578182fd5b611305836112b5565b60008151808452815b81811015611503576020818501810151868301820152016114e7565b818111156115145782602083870101525b50601f01601f19169290920160200192915050565b6003811061154757634e487b7160e01b600052602160045260246000fd5b9052565b6001600160a01b03841681526001600160401b038316602082015260606040820181905260009061157e908301846114de565b95945050505050565b60208101610dc78284611529565b6020815260006112e360208301846114de565b6020808252600f908201526e1b9bdd081a5b9a5d1a585b1a5e9959608a1b604082015260600190565b6020808252818101527f4f776e61626c653a2063616c6c6572206973206e6f7420746865206f776e6572604082015260600190565b81516001600160a01b031681526020808301516001600160401b031690820152604080830151606083019161163d90840182611529565b5092915050565b604051601f8201601f191681016001600160401b038111828210171561166c5761166c6116f0565b604052919050565b60006001600160401b0382111561168d5761168d6116f0565b5060051b60200190565b600063ffffffff8083168185168083038211156116b6576116b66116da565b01949350505050565b60006000198214156116d3576116d36116da565b5060010190565b634e487b7160e01b600052601160045260246000fd5b634e487b7160e01b600052604160045260246000fdfea164736f6c6343000804000a",
  "deployedBytecode": "0x608060405234801561001057600080fd5b50600436106100e05760003560e01c80638208e76c116100875780638208e76c1461020b57806386d93f661461021e5780638da5cb5b1461025557806392163ea614610266578063d1f7659514610279578063d5d4d1821461028c578063e6c5a5411461029f578063f2fde38b146102bf57600080fd5b806308abefa9146100e55780631b982cf11461012b5780632604187414610140578063365a86fc14610153578063485cc9551461017a5780634fbe68a01461018d57806352a067e5146101a05780635794fefc146101e6575b600080fd5b61010e6100f3366004611437565b6000908152600160205260409020546001600160a01b031690565b6040516001600160a01b0390911681526020015b60405180910390f35b61013e6101393660046114c3565b6102d2565b005b61013e61014e366004611345565b610608565b61010e7f000000000000000000000000000000000000000000000000000000000000000081565b61013e6101883660046112ea565b610640565b60055461010e906001600160a01b031681565b6101d66101ae3660046114c3565b63ffffffff9091166000908152600460205260409020546001600160a01b0390811691161490565b6040519015158152602001610122565b6003546101f69063ffffffff1681565b60405163ffffffff9091168152602001610122565b60065461010e906001600160a01b031681565b61024761022c3660046112c9565b6001600160a01b031660009081526002602052604090205490565b604051908152602001610122565b6000546001600160a01b031661010e565b61013e6102743660046114a9565b6107e6565b6101f661028736600461131c565b610ae2565b61013e61029a366004611467565b610dcd565b6102b26102ad3660046114a9565b610e01565b6040516101229190611606565b61013e6102cd3660046112c9565b610ec0565b600354600160201b900460ff166103045760405162461bcd60e51b81526004016102fb906115a8565b60405180910390fd5b3360008181526002602052604081205414156103705760405162461bcd60e51b815260206004820152602560248201527f43616c6c6572206d75737420612062652072656769737465726564206c6f616e604482015264207479706560d81b60648201526084016102fb565b63ffffffff8316600090815260046020526040902054600160a01b90046001600160401b0316806103d85760405162461bcd60e51b81526020600482015260126024820152711b1bd85b88191bd95cdb89dd08195e1a5cdd60721b60448201526064016102fb565b600554604051634f558e7960e01b81526001600160401b03831660048201526001600160a01b0390911690634f558e799060240160206040518083038186803b15801561042457600080fd5b505afa158015610438573d6000803e3d6000fd5b505050506040513d601f19601f8201168201806040525081019061045c9190611417565b6104a85760405162461bcd60e51b815260206004820152601c60248201527f50726f6d6973736f7279206e6f74652073686f756c642065786973740000000060448201526064016102fb565b600654604051634f558e7960e01b81526001600160401b03831660048201526001600160a01b0390911690634f558e799060240160206040518083038186803b1580156104f457600080fd5b505afa158015610508573d6000803e3d6000fd5b505050506040513d601f19601f8201168201806040525081019061052c9190611417565b156105795760405162461bcd60e51b815260206004820152601c60248201527f4f626c69676174696f6e20722073686f756c646e27742065786973740000000060448201526064016102fb565b6006546040805163ffffffff871660208201526001600160a01b03909216916394d008ef9186918591016040516020818303038152906040526040518463ffffffff1660e01b81526004016105d09392919061154b565b600060405180830381600087803b1580156105ea57600080fd5b505af11580156105fe573d6000803e3d6000fd5b5050505050505050565b6000546001600160a01b031633146106325760405162461bcd60e51b81526004016102fb906115d1565b61063c8282610f5b565b5050565b336001600160a01b037f000000000000000000000000000000000000000000000000000000000000000016146106a85760405162461bcd60e51b815260206004820152600d60248201526c37b7363c903232b83637bcb2b960991b60448201526064016102fb565b600354600160201b900460ff16156106f85760405162461bcd60e51b8152602060048201526013602482015272185b1c9958591e481a5b9a5d1a585b1a5e9959606a1b60448201526064016102fb565b6001600160a01b03821661074e5760405162461bcd60e51b815260206004820152601b60248201527f70726f6d6973736f72794e6f7465546f6b656e206973207a65726f000000000060448201526064016102fb565b6001600160a01b0381166107a45760405162461bcd60e51b815260206004820152601e60248201527f6f626c69676174696f6e52656365697074546f6b656e206973207a65726f000060448201526064016102fb565b6003805464ff000000001916600160201b179055600580546001600160a01b039384166001600160a01b03199182161790915560068054929093169116179055565b600354600160201b900460ff1661080f5760405162461bcd60e51b81526004016102fb906115a8565b63ffffffff8116600090815260046020526040902060018154600160e01b900460ff16600281111561085157634e487b7160e01b600052602160045260246000fd5b146108985760405162461bcd60e51b81526020600482015260176024820152764c6f616e20737461747573206d757374206265204e657760481b60448201526064016102fb565b80546001600160a01b031633146109045760405162461bcd60e51b815260206004820152602a60248201527f4e6f74207468652073616d6520436f6e747261637420746861742072656769736044820152693a32b932b2102637b0b760b11b60648201526084016102fb565b8054600160e11b60ff60e01b1990911617808255600554604051630852cd8d60e31b81526001600160401b03600160a01b9093049290921660048301526001600160a01b0316906342966c6890602401600060405180830381600087803b15801561096e57600080fd5b505af1158015610982573d6000803e3d6000fd5b50506006548354604051634f558e7960e01b8152600160a01b9091046001600160401b031660048201526001600160a01b039091169250634f558e79915060240160206040518083038186803b1580156109db57600080fd5b505afa1580156109ef573d6000803e3d6000fd5b505050506040513d601f19601f82011682018060405250810190610a139190611417565b15610a88576006548154604051630852cd8d60e31b8152600160a01b9091046001600160401b031660048201526001600160a01b03909116906342966c6890602401600060405180830381600087803b158015610a6f57600080fd5b505af1158015610a83573d6000803e3d6000fd5b505050505b80546040513391600160a01b90046001600160401b03169063ffffffff8516907fed71188e6e889129ea3e58f204838c0d459c617582cbbc6759017f50820edb5c90610ad690600290611587565b60405180910390a45050565b600354600090600160201b900460ff16610b0e5760405162461bcd60e51b81526004016102fb906115a8565b3380610b2f846000908152600160205260409020546001600160a01b031690565b6001600160a01b031614610b955760405162461bcd60e51b815260206004820152602760248201527f43616c6c6572206d757374206265207265676973746572656420666f72206c6f604482015266616e207479706560c81b60648201526084016102fb565b6003805460019190600090610bb190849063ffffffff16611697565b82546101009290920a63ffffffff818102199093169190921691909102179055506003546040513060601b6bffffffffffffffffffffffff1916602082015260e09190911b6001600160e01b031916603482015260009060380160408051808303601f1901815282825280516020918201206060840183526001600160a01b0386811685526001600160401b03821683860152600185850152600554600354855163ffffffff9091169481019490945291955016916394d008ef9189918691016040516020818303038152906040526040518463ffffffff1660e01b8152600401610c9e9392919061154b565b600060405180830381600087803b158015610cb857600080fd5b505af1158015610ccc573d6000803e3d6000fd5b505060035463ffffffff1660009081526004602090815260409182902085518154928701516001600160401b0316600160a01b026001600160e01b03199093166001600160a01b0390911617919091178082559185015185945090925090829060ff60e01b1916600160e01b836002811115610d5857634e487b7160e01b600052602160045260246000fd5b0217905550506003546040516001600160a01b03861692506001600160401b0385169163ffffffff16907fed71188e6e889129ea3e58f204838c0d459c617582cbbc6759017f50820edb5c90610db090600190611587565b60405180910390a4505060035463ffffffff169150505b92915050565b6000546001600160a01b03163314610df75760405162461bcd60e51b81526004016102fb906115d1565b61063c8282611033565b610e2260408051606081018252600080825260208201819052909182015290565b63ffffffff8216600090815260046020908152604091829020825160608101845281546001600160a01b0381168252600160a01b81046001600160401b03169382019390935292909190830190600160e01b900460ff166002811115610e9857634e487b7160e01b600052602160045260246000fd5b6002811115610eb757634e487b7160e01b600052602160045260246000fd5b90525092915050565b6000546001600160a01b03163314610eea5760405162461bcd60e51b81526004016102fb906115d1565b6001600160a01b038116610f4f5760405162461bcd60e51b815260206004820152602660248201527f4f776e61626c653a206e6577206f776e657220697320746865207a65726f206160448201526564647265737360d01b60648201526084016102fb565b610f5881611169565b50565b8051825114610fb85760405162461bcd60e51b815260206004820152602360248201527f66756e6374696f6e20696e666f726d6174696f6e206172697479206d69736d616044820152620e8c6d60eb1b60648201526084016102fb565b60005b825181101561102e5761101c838281518110610fe757634e487b7160e01b600052603260045260246000fd5b602002602001015183838151811061100f57634e487b7160e01b600052603260045260246000fd5b6020026020010151611033565b80611026816116bf565b915050610fbb565b505050565b81516110755760405162461bcd60e51b81526020600482015260116024820152706c6f616e5479706520697320656d70747960781b60448201526064016102fb565b60405163f99a8ffb60e01b815260009073__$d7e2e0a2db402280e6c36233d590dce656$__9063f99a8ffb906110af908690600401611595565b60206040518083038186803b1580156110c757600080fd5b505af41580156110db573d6000803e3d6000fd5b505050506040513d601f19601f820116820180604052508101906110ff919061144f565b600081815260016020908152604080832080546001600160a01b0319166001600160a01b0388169081179091558084526002909252808320849055519293509183917f22be69269c1f7d73e73dcb25b710dd88c7aa1cf374c16d945def98df2107c2f891a3505050565b600080546001600160a01b038381166001600160a01b0319831681178455604051919092169283917f8be0079c531659141344cd1fd0a4f28419497f9722a3daafe3b4186f6b6457e09190a35050565b80356001600160a01b03811681146111d057600080fd5b919050565b600082601f8301126111e5578081fd5b813560206111fa6111f583611674565b611644565b80838252828201915082860187848660051b8901011115611219578586fd5b855b8581101561123e5761122c826111b9565b8452928401929084019060010161121b565b5090979650505050505050565b600082601f83011261125b578081fd5b81356001600160401b03811115611274576112746116f0565b611287601f8201601f1916602001611644565b81815284602083860101111561129b578283fd5b816020850160208301379081016020019190915292915050565b803563ffffffff811681146111d057600080fd5b6000602082840312156112da578081fd5b6112e3826111b9565b9392505050565b600080604083850312156112fc578081fd5b611305836111b9565b9150611313602084016111b9565b90509250929050565b6000806040838503121561132e578182fd5b611337836111b9565b946020939093013593505050565b60008060408385031215611357578182fd5b82356001600160401b038082111561136d578384fd5b818501915085601f830112611380578384fd5b813560206113906111f583611674565b8083825282820191508286018a848660051b89010111156113af578889fd5b885b858110156113e8578135878111156113c7578a8bfd5b6113d58d87838c010161124b565b85525092840192908401906001016113b1565b50909750505086013592505080821115611400578283fd5b5061140d858286016111d5565b9150509250929050565b600060208284031215611428578081fd5b815180151581146112e3578182fd5b600060208284031215611448578081fd5b5035919050565b600060208284031215611460578081fd5b5051919050565b60008060408385031215611479578182fd5b82356001600160401b0381111561148e578283fd5b61149a8582860161124b565b925050611313602084016111b9565b6000602082840312156114ba578081fd5b6112e3826112b5565b600080604083850312156114d5578182fd5b611305836112b5565b60008151808452815b81811015611503576020818501810151868301820152016114e7565b818111156115145782602083870101525b50601f01601f19169290920160200192915050565b6003811061154757634e487b7160e01b600052602160045260246000fd5b9052565b6001600160a01b03841681526001600160401b038316602082015260606040820181905260009061157e908301846114de565b95945050505050565b60208101610dc78284611529565b6020815260006112e360208301846114de565b6020808252600f908201526e1b9bdd081a5b9a5d1a585b1a5e9959608a1b604082015260600190565b6020808252818101527f4f776e61626c653a2063616c6c6572206973206e6f7420746865206f776e6572604082015260600190565b81516001600160a01b031681526020808301516001600160401b031690820152604080830151606083019161163d90840182611529565b5092915050565b604051601f8201601f191681016001600160401b038111828210171561166c5761166c6116f0565b604052919050565b60006001600160401b0382111561168d5761168d6116f0565b5060051b60200190565b600063ffffffff8083168185168083038211156116b6576116b66116da565b01949350505050565b60006000198214156116d3576116d36116da565b5060010190565b634e487b7160e01b600052601160045260246000fd5b634e487b7160e01b600052604160045260246000fdfea164736f6c6343000804000a",
  "libraries": {
    "ContractKeys": "0xC0691b4bb84f05ec8E2255a50487C8d67BAc7539"
  },
  "devdoc": {
    "author": "NFTfi",
    "events": {
      "TypeUpdated(bytes32,address)": {
        "params": {
          "loanContract": "- Address of the loan type contract.",
          "loanType": "- Loan type represented by keccak256('loan type')."
        }
      }
    },
    "kind": "dev",
    "methods": {
      "constructor": {
        "params": {
          "_admin": "- Initial admin of this contract.",
          "_loanContracts": "- The addresses of each wrapper contract that implements the loan type's behaviour.",
          "_loanTypes": "- Loan types represented by keccak256('loan type').",
          "_nftfiHub": "- Address of the NftfiHub contract"
        }
      },
      "getContractFromType(bytes32)": {
        "params": {
          "_loanType": "- The loan type, e.g. bytes32(\"DIRECT_LOAN_FIXED\"), or bytes32(\"DIRECT_LOAN_PRO_RATED\")."
        }
      },
      "getLoanData(uint32)": {
        "details": "Returns loan's data for a given id.",
        "params": {
          "_loanId": "- Id of the loan"
        }
      },
      "getTypeFromContract(address)": {
        "params": {
          "_loanContract": "- The loan contract"
        }
      },
      "initialize(address,address)": {
        "details": "Sets `promissoryNoteToken` and `obligationReceiptToken`. It can be executed once by the deployer.",
        "params": {
          "_obligationReceiptToken": "- Obligaiton Recipt Token address",
          "_promissoryNoteToken": "- Promissory Note Token address"
        }
      },
      "isValidLoanId(uint32,address)": {
        "details": "checks if the given id is valid for the given loan contract address",
        "params": {
          "_loanContract": "- address og the loan contract",
          "_loanId": "- Id of the loan"
        }
      },
      "owner()": {
        "details": "Returns the address of the current owner."
      },
      "registerLoan(address,bytes32)": {
        "details": "This is called by the LoanType beginning the new loan. It initialize the new loan data, mints both PromissoryNote and ObligationReceipt SmartNft's and returns the new loan id.",
        "params": {
          "_lender": "- Address of the lender",
          "_loanType": "- The type of the loan"
        }
      },
      "registerLoanType(string,address)": {
        "params": {
          "_loanContract": "- The address of the wrapper contract that implements the loan type's behaviour.",
          "_loanType": "- Loan type represented by 'loan type'."
        }
      },
      "registerLoanTypes(string[],address[])": {
        "params": {
          "_loanContracts": "- The addresses of each wrapper contract that implements the loan type's behaviour.",
          "_loanTypes": "- Loan types represented by 'loan type'."
        }
      },
      "resolveLoan(uint32)": {
        "details": "This is called by the LoanType who created the loan, when a loan is resolved whether by paying back or liquidating the loan. It sets the loan as `RESOLVED` and burns both PromossoryNote and ObligationReceipt SmartNft's.",
        "params": {
          "_loanId": "- Id of the loan"
        }
      },
      "transferOwnership(address)": {
        "details": "Transfers ownership of the contract to a new account (`newOwner`). Can only be called by the current owner."
      }
    },
    "stateVariables": {
      "contractTypes": {
        "details": "reverse mapping of loanTypes - for each contract address, records the associated loan type"
      },
      "typeContracts": {
        "details": "For each loan type, records the address of the contract that implements the type"
      }
    },
    "title": "DirectLoanCoordinator",
    "version": 1
  },
  "userdoc": {
    "events": {
      "TypeUpdated(bytes32,address)": {
        "notice": "This event is fired whenever the admins register a loan type."
      }
    },
    "kind": "user",
    "methods": {
      "constructor": {
        "notice": "Sets the admin of the contract. Initializes `contractTypes` with a batch of loan types. Sets `NftfiHub`."
      },
      "getContractFromType(bytes32)": {
        "notice": "This function can be called by anyone to get the contract address that implements the given loan type."
      },
      "getTypeFromContract(address)": {
        "notice": "This function can be called by anyone to get the loan type of the given contract address."
      },
      "registerLoanType(string,address)": {
        "notice": "Set or update the contract address that implements the given Loan Type. Set address(0) for a loan type for un-register such type."
      },
      "registerLoanTypes(string[],address[])": {
        "notice": "Batch set or update the contract addresses that implement the given batch Loan Type. Set address(0) for a loan type for un-register such type."
      },
      "totalNumLoans()": {
        "notice": "A continuously increasing counter that simultaneously allows every loan to have a unique ID and provides a running count of how many loans have been started by this contract."
      }
    },
    "notice": "This contract is in charge of coordinating the creation, disctubution and desctruction of the SmartNfts related to a loan, the Promossory Note and Obligaiton Receipt.",
    "version": 1
  },
  "storageLayout": {
    "storage": [
      {
        "astId": 21501,
        "contract": "contracts/loans/direct/DirectLoanCoordinator.sol:DirectLoanCoordinator",
        "label": "_owner",
        "offset": 0,
        "slot": "0",
        "type": "t_address"
      },
      {
        "astId": 14168,
        "contract": "contracts/loans/direct/DirectLoanCoordinator.sol:DirectLoanCoordinator",
        "label": "typeContracts",
        "offset": 0,
        "slot": "1",
        "type": "t_mapping(t_bytes32,t_address)"
      },
      {
        "astId": 14173,
        "contract": "contracts/loans/direct/DirectLoanCoordinator.sol:DirectLoanCoordinator",
        "label": "contractTypes",
        "offset": 0,
        "slot": "2",
        "type": "t_mapping(t_address,t_bytes32)"
      },
      {
        "astId": 14177,
        "contract": "contracts/loans/direct/DirectLoanCoordinator.sol:DirectLoanCoordinator",
        "label": "totalNumLoans",
        "offset": 0,
        "slot": "3",
        "type": "t_uint32"
      },
      {
        "astId": 14182,
        "contract": "contracts/loans/direct/DirectLoanCoordinator.sol:DirectLoanCoordinator",
        "label": "_initialized",
        "offset": 4,
        "slot": "3",
        "type": "t_bool"
      },
      {
        "astId": 14187,
        "contract": "contracts/loans/direct/DirectLoanCoordinator.sol:DirectLoanCoordinator",
        "label": "loans",
        "offset": 0,
        "slot": "4",
        "type": "t_mapping(t_uint32,t_struct(Loan)13562_storage)"
      },
      {
        "astId": 14190,
        "contract": "contracts/loans/direct/DirectLoanCoordinator.sol:DirectLoanCoordinator",
        "label": "promissoryNoteToken",
        "offset": 0,
        "slot": "5",
        "type": "t_address"
      },
      {
        "astId": 14193,
        "contract": "contracts/loans/direct/DirectLoanCoordinator.sol:DirectLoanCoordinator",
        "label": "obligationReceiptToken",
        "offset": 0,
        "slot": "6",
        "type": "t_address"
      }
    ],
    "types": {
      "t_address": {
        "encoding": "inplace",
        "label": "address",
        "numberOfBytes": "20"
      },
      "t_bool": {
        "encoding": "inplace",
        "label": "bool",
        "numberOfBytes": "1"
      },
      "t_bytes32": {
        "encoding": "inplace",
        "label": "bytes32",
        "numberOfBytes": "32"
      },
      "t_enum(StatusType)13554": {
        "encoding": "inplace",
        "label": "enum IDirectLoanCoordinator.StatusType",
        "numberOfBytes": "1"
      },
      "t_mapping(t_address,t_bytes32)": {
        "encoding": "mapping",
        "key": "t_address",
        "label": "mapping(address => bytes32)",
        "numberOfBytes": "32",
        "value": "t_bytes32"
      },
      "t_mapping(t_bytes32,t_address)": {
        "encoding": "mapping",
        "key": "t_bytes32",
        "label": "mapping(bytes32 => address)",
        "numberOfBytes": "32",
        "value": "t_address"
      },
      "t_mapping(t_uint32,t_struct(Loan)13562_storage)": {
        "encoding": "mapping",
        "key": "t_uint32",
        "label": "mapping(uint32 => struct IDirectLoanCoordinator.Loan)",
        "numberOfBytes": "32",
        "value": "t_struct(Loan)13562_storage"
      },
      "t_struct(Loan)13562_storage": {
        "encoding": "inplace",
        "label": "struct IDirectLoanCoordinator.Loan",
        "members": [
          {
            "astId": 13556,
            "contract": "contracts/loans/direct/DirectLoanCoordinator.sol:DirectLoanCoordinator",
            "label": "loanContract",
            "offset": 0,
            "slot": "0",
            "type": "t_address"
          },
          {
            "astId": 13558,
            "contract": "contracts/loans/direct/DirectLoanCoordinator.sol:DirectLoanCoordinator",
            "label": "smartNftId",
            "offset": 20,
            "slot": "0",
            "type": "t_uint64"
          },
          {
            "astId": 13561,
            "contract": "contracts/loans/direct/DirectLoanCoordinator.sol:DirectLoanCoordinator",
            "label": "status",
            "offset": 28,
            "slot": "0",
            "type": "t_enum(StatusType)13554"
          }
        ],
        "numberOfBytes": "32"
      },
      "t_uint32": {
        "encoding": "inplace",
        "label": "uint32",
        "numberOfBytes": "4"
      },
      "t_uint64": {
        "encoding": "inplace",
        "label": "uint64",
        "numberOfBytes": "8"
      }
    }
  }
}