{
  "address": "0xE3608d172168a1e6c2dc54777554f2FB3a72ac72",
  "abi": [
    {
      "inputs": [
        {
          "internalType": "address",
          "name": "",
          "type": "address"
        },
        {
          "internalType": "address",
          "name": "",
          "type": "address"
        },
        {
          "internalType": "uint256[]",
          "name": "",
          "type": "uint256[]"
        },
        {
          "internalType": "uint256[]",
          "name": "",
          "type": "uint256[]"
        },
        {
          "internalType": "bytes",
          "name": "",
          "type": "bytes"
        }
      ],
      "name": "onERC1155BatchReceived",
      "outputs": [
        {
          "internalType": "bytes4",
          "name": "",
          "type": "bytes4"
        }
      ],
      "stateMutability": "nonpayable",
      "type": "function"
    },
    {
      "inputs": [
        {
          "internalType": "address",
          "name": "",
          "type": "address"
        },
        {
          "internalType": "address",
          "name": "",
          "type": "address"
        },
        {
          "internalType": "uint256",
          "name": "",
          "type": "uint256"
        },
        {
          "internalType": "uint256",
          "name": "",
          "type": "uint256"
        },
        {
          "internalType": "bytes",
          "name": "",
          "type": "bytes"
        }
      ],
      "name": "onERC1155Received",
      "outputs": [
        {
          "internalType": "bytes4",
          "name": "",
          "type": "bytes4"
        }
      ],
      "stateMutability": "nonpayable",
      "type": "function"
    },
    {
      "inputs": [
        {
          "internalType": "address",
          "name": "",
          "type": "address"
        },
        {
          "internalType": "address",
          "name": "",
          "type": "address"
        },
        {
          "internalType": "uint256",
          "name": "",
          "type": "uint256"
        },
        {
          "internalType": "bytes",
          "name": "",
          "type": "bytes"
        }
      ],
      "name": "onERC721Received",
      "outputs": [
        {
          "internalType": "bytes4",
          "name": "",
          "type": "bytes4"
        }
      ],
      "stateMutability": "nonpayable",
      "type": "function"
    },
    {
      "inputs": [
        {
          "internalType": "address",
          "name": "_nftContract",
          "type": "address"
        },
        {
          "internalType": "uint256",
          "name": "_nftId",
          "type": "uint256"
        },
        {
          "internalType": "address",
          "name": "_target",
          "type": "address"
        },
        {
          "internalType": "bytes",
          "name": "_data",
          "type": "bytes"
        },
        {
          "internalType": "address",
          "name": "_nftAirdrop",
          "type": "address"
        },
        {
          "internalType": "uint256",
          "name": "_nftAirdropId",
          "type": "uint256"
        },
        {
          "internalType": "bool",
          "name": "_is1155",
          "type": "bool"
        },
        {
          "internalType": "uint256",
          "name": "_nftAirdropAmount",
          "type": "uint256"
        },
        {
          "internalType": "address",
          "name": "_beneficiary",
          "type": "address"
        }
      ],
      "name": "pullAirdrop",
      "outputs": [],
      "stateMutability": "nonpayable",
      "type": "function"
    },
    {
      "inputs": [
        {
          "internalType": "bytes4",
          "name": "_interfaceId",
          "type": "bytes4"
        }
      ],
      "name": "supportsInterface",
      "outputs": [
        {
          "internalType": "bool",
          "name": "",
          "type": "bool"
        }
      ],
      "stateMutability": "view",
      "type": "function"
    }
  ],
  "transactionHash": "0x3e41c1709bea07073fcec5dfbfbcdda3447a39638439ba09bf9b2db6cf8008cf",
  "args": [],
  "solcInputHash": "4d2fe29bb9bcc7b729a2a79c750939bf",
  "bytecode": "0x608060405234801561001057600080fd5b5060016000556109c3806100256000396000f3fe608060405234801561001057600080fd5b50600436106100575760003560e01c806301ffc9a71461005c578063150b7a02146100845780637eef0896146100bb578063bc197c81146100d0578063f23a6e61146100ef575b600080fd5b61006f61006a366004610566565b61010e565b60405190151581526020015b60405180910390f35b6100a2610092366004610663565b630a85bd0160e11b949350505050565b6040516001600160e01b0319909116815260200161007b565b6100ce6100c93660046106db565b610139565b005b6100a26100de366004610834565b63bc197c8160e01b95945050505050565b6100a26100fd3660046108de565b63f23a6e6160e01b95945050505050565b60006001600160e01b03198216630a85bd0160e11b1480610133575061013382610370565b92915050565b6002600054036101905760405162461bcd60e51b815260206004820152601f60248201527f5265656e7472616e637947756172643a207265656e7472616e742063616c6c0060448201526064015b60405180910390fd5b6002600055604080516020601f89018190048102820181019092528781526101dd918990899081908401838280828437600092019190915250506001600160a01b038c16929150506103a5565b5060405163095ea7b360e01b8152336004820152602481018a90526001600160a01b038b169063095ea7b390604401600060405180830381600087803b15801561022657600080fd5b505af115801561023a573d6000803e3d6000fd5b505050506001600160a01b0385161580159061025e57506001600160a01b03811615155b1561035f5782156102f657604051637921219560e11b81523060048201526001600160a01b038281166024830152604482018690526064820184905260a06084830152600260a483015261060f60f31b60c483015286169063f242432a9060e401600060405180830381600087803b1580156102d957600080fd5b505af11580156102ed573d6000803e3d6000fd5b5050505061035f565b604051632142170760e11b81523060048201526001600160a01b038281166024830152604482018690528616906342842e0e90606401600060405180830381600087803b15801561034657600080fd5b505af115801561035a573d6000803e3d6000fd5b505050505b505060016000555050505050505050565b60006001600160e01b03198216630271189760e51b148061013357506301ffc9a760e01b6001600160e01b0319831614610133565b60606103e783836040518060400160405280601e81526020017f416464726573733a206c6f772d6c6576656c2063616c6c206661696c656400008152506103ee565b9392505050565b60606103fd8484600085610405565b949350505050565b6060824710156104665760405162461bcd60e51b815260206004820152602660248201527f416464726573733a20696e73756666696369656e742062616c616e636520666f6044820152651c8818d85b1b60d21b6064820152608401610187565b843b6104b45760405162461bcd60e51b815260206004820152601d60248201527f416464726573733a2063616c6c20746f206e6f6e2d636f6e74726163740000006044820152606401610187565b600080866001600160a01b031685876040516104d09190610967565b60006040518083038185875af1925050503d806000811461050d576040519150601f19603f3d011682016040523d82523d6000602084013e610512565b606091505b509150915061052282828661052d565b979650505050505050565b6060831561053c5750816103e7565b82511561054c5782518084602001fd5b8160405162461bcd60e51b81526004016101879190610983565b60006020828403121561057857600080fd5b81356001600160e01b0319811681146103e757600080fd5b80356001600160a01b03811681146105a757600080fd5b919050565b634e487b7160e01b600052604160045260246000fd5b604051601f8201601f1916810167ffffffffffffffff811182821017156105eb576105eb6105ac565b604052919050565b600082601f83011261060457600080fd5b813567ffffffffffffffff81111561061e5761061e6105ac565b610631601f8201601f19166020016105c2565b81815284602083860101111561064657600080fd5b816020850160208301376000918101602001919091529392505050565b6000806000806080858703121561067957600080fd5b61068285610590565b935061069060208601610590565b925060408501359150606085013567ffffffffffffffff8111156106b357600080fd5b6106bf878288016105f3565b91505092959194509250565b803580151581146105a757600080fd5b6000806000806000806000806000806101208b8d0312156106fb57600080fd5b6107048b610590565b995060208b0135985061071960408c01610590565b975060608b013567ffffffffffffffff8082111561073657600080fd5b818d0191508d601f83011261074a57600080fd5b81358181111561075957600080fd5b8e602082850101111561076b57600080fd5b60208301995080985050505061078360808c01610590565b945060a08b0135935061079860c08c016106cb565b925060e08b013591506107ae6101008c01610590565b90509295989b9194979a5092959850565b600082601f8301126107d057600080fd5b8135602067ffffffffffffffff8211156107ec576107ec6105ac565b8160051b6107fb8282016105c2565b928352848101820192828101908785111561081557600080fd5b83870192505b848310156105225782358252918301919083019061081b565b600080600080600060a0868803121561084c57600080fd5b61085586610590565b945061086360208701610590565b9350604086013567ffffffffffffffff8082111561088057600080fd5b61088c89838a016107bf565b945060608801359150808211156108a257600080fd5b6108ae89838a016107bf565b935060808801359150808211156108c457600080fd5b506108d1888289016105f3565b9150509295509295909350565b600080600080600060a086880312156108f657600080fd5b6108ff86610590565b945061090d60208701610590565b93506040860135925060608601359150608086013567ffffffffffffffff81111561093757600080fd5b6108d1888289016105f3565b60005b8381101561095e578181015183820152602001610946565b50506000910152565b60008251610979818460208701610943565b9190910192915050565b60208152600082518060208401526109a2816040850160208701610943565b601f01601f1916919091016040019291505056fea164736f6c6343000811000a",
  "devdoc": {
    "author": "NFTfi",
    "kind": "dev",
    "methods": {
      "onERC721Received(address,address,uint256,bytes)": {
        "details": "See {IERC721Receiver-onERC721Received}. Always returns `IERC721Receiver.onERC721Received.selector`."
      },
      "pullAirdrop(address,uint256,address,bytes,address,uint256,bool,uint256,address)": {
        "params": {
          "_beneficiary": "- address receiving the drop",
          "_data": "- function selector to be called on the airdropping contract",
          "_is1155": "-",
          "_nftAirdrop": "- address of the used claiming nft in the drop",
          "_nftAirdropAmount": "- amount in case of 1155",
          "_nftAirdropId": "- id of the used claiming nft in the drop",
          "_nftContract": "- contract address of the target nft of the drop",
          "_nftId": "- id of the target nft of the drop",
          "_target": "- address of the airdropping contract"
        }
      },
      "supportsInterface(bytes4)": {
        "details": "See {IERC165-supportsInterface}."
      }
    },
    "title": "AirdropFlashLoan",
    "version": 1
  },
  "userdoc": {
    "kind": "user",
    "methods": {
      "pullAirdrop(address,uint256,address,bytes,address,uint256,bool,uint256,address)": {
        "notice": "this function initiates a flashloan to pull an airdrop from a tartget contract"
      }
    },
    "version": 1
  },
  "storageLayout": {
    "storage": [
      {
        "astId": 890,
        "contract": "contracts/airdrop/AirdropFlashLoan.sol:AirdropFlashLoan",
        "label": "_status",
        "offset": 0,
        "slot": "0",
        "type": "t_uint256"
      }
    ],
    "types": {
      "t_uint256": {
        "encoding": "inplace",
        "label": "uint256",
        "numberOfBytes": "32"
      }
    }
  }
}