{
  "address": "0x0488791b0FD38157e0bE1a4cb3D27502E30df139",
  "abi": [
    {
      "inputs": [
        {
          "internalType": "address",
          "name": "_admin",
          "type": "address"
        },
        {
          "internalType": "address",
          "name": "_bundler",
          "type": "address"
        },
        {
          "internalType": "address",
          "name": "_personalBundlerFactory",
          "type": "address"
        },
        {
          "internalType": "string",
          "name": "_name",
          "type": "string"
        },
        {
          "internalType": "string",
          "name": "_symbol",
          "type": "string"
        },
        {
          "internalType": "string",
          "name": "_customBaseURI",
          "type": "string"
        }
      ],
      "stateMutability": "nonpayable",
      "type": "constructor"
    },
    {
      "anonymous": false,
      "inputs": [
        {
          "indexed": true,
          "internalType": "address",
          "name": "owner",
          "type": "address"
        },
        {
          "indexed": true,
          "internalType": "address",
          "name": "approved",
          "type": "address"
        },
        {
          "indexed": true,
          "internalType": "uint256",
          "name": "tokenId",
          "type": "uint256"
        }
      ],
      "name": "Approval",
      "type": "event"
    },
    {
      "anonymous": false,
      "inputs": [
        {
          "indexed": true,
          "internalType": "address",
          "name": "owner",
          "type": "address"
        },
        {
          "indexed": true,
          "internalType": "address",
          "name": "operator",
          "type": "address"
        },
        {
          "indexed": false,
          "internalType": "bool",
          "name": "approved",
          "type": "bool"
        }
      ],
      "name": "ApprovalForAll",
      "type": "event"
    },
    {
      "anonymous": false,
      "inputs": [
        {
          "indexed": true,
          "internalType": "uint256",
          "name": "immutableId",
          "type": "uint256"
        },
        {
          "indexed": true,
          "internalType": "uint256",
          "name": "bundleId",
          "type": "uint256"
        },
        {
          "indexed": true,
          "internalType": "address",
          "name": "personalBundler",
          "type": "address"
        }
      ],
      "name": "ConvertedToPersonalBundler",
      "type": "event"
    },
    {
      "anonymous": false,
      "inputs": [
        {
          "indexed": true,
          "internalType": "uint256",
          "name": "immutableId",
          "type": "uint256"
        },
        {
          "indexed": true,
          "internalType": "uint256",
          "name": "bundleId",
          "type": "uint256"
        },
        {
          "indexed": true,
          "internalType": "address",
          "name": "personalBundler",
          "type": "address"
        }
      ],
      "name": "ImmutableMinted",
      "type": "event"
    },
    {
      "anonymous": false,
      "inputs": [
        {
          "indexed": true,
          "internalType": "address",
          "name": "previousOwner",
          "type": "address"
        },
        {
          "indexed": true,
          "internalType": "address",
          "name": "newOwner",
          "type": "address"
        }
      ],
      "name": "OwnershipTransferred",
      "type": "event"
    },
    {
      "anonymous": false,
      "inputs": [
        {
          "indexed": false,
          "internalType": "address",
          "name": "account",
          "type": "address"
        }
      ],
      "name": "Paused",
      "type": "event"
    },
    {
      "anonymous": false,
      "inputs": [
        {
          "indexed": true,
          "internalType": "address",
          "name": "from",
          "type": "address"
        },
        {
          "indexed": true,
          "internalType": "address",
          "name": "to",
          "type": "address"
        },
        {
          "indexed": true,
          "internalType": "uint256",
          "name": "tokenId",
          "type": "uint256"
        }
      ],
      "name": "Transfer",
      "type": "event"
    },
    {
      "anonymous": false,
      "inputs": [
        {
          "indexed": false,
          "internalType": "address",
          "name": "account",
          "type": "address"
        }
      ],
      "name": "Unpaused",
      "type": "event"
    },
    {
      "inputs": [],
      "name": "acceptTransferOwnership",
      "outputs": [],
      "stateMutability": "nonpayable",
      "type": "function"
    },
    {
      "inputs": [
        {
          "internalType": "address",
          "name": "to",
          "type": "address"
        },
        {
          "internalType": "uint256",
          "name": "tokenId",
          "type": "uint256"
        }
      ],
      "name": "approve",
      "outputs": [],
      "stateMutability": "nonpayable",
      "type": "function"
    },
    {
      "inputs": [
        {
          "internalType": "address",
          "name": "owner",
          "type": "address"
        }
      ],
      "name": "balanceOf",
      "outputs": [
        {
          "internalType": "uint256",
          "name": "",
          "type": "uint256"
        }
      ],
      "stateMutability": "view",
      "type": "function"
    },
    {
      "inputs": [],
      "name": "baseURI",
      "outputs": [
        {
          "internalType": "string",
          "name": "",
          "type": "string"
        }
      ],
      "stateMutability": "view",
      "type": "function"
    },
    {
      "inputs": [
        {
          "internalType": "uint256",
          "name": "",
          "type": "uint256"
        }
      ],
      "name": "bundleOfImmutable",
      "outputs": [
        {
          "internalType": "uint256",
          "name": "",
          "type": "uint256"
        }
      ],
      "stateMutability": "view",
      "type": "function"
    },
    {
      "inputs": [],
      "name": "bundler",
      "outputs": [
        {
          "internalType": "contract NftfiBundler",
          "name": "",
          "type": "address"
        }
      ],
      "stateMutability": "view",
      "type": "function"
    },
    {
      "inputs": [],
      "name": "cancelTransferOwnership",
      "outputs": [],
      "stateMutability": "nonpayable",
      "type": "function"
    },
    {
      "inputs": [
        {
          "internalType": "uint256",
          "name": "_immutableId",
          "type": "uint256"
        },
        {
          "internalType": "address",
          "name": "_personalBundler",
          "type": "address"
        }
      ],
      "name": "convertToPersonalBundler",
      "outputs": [],
      "stateMutability": "nonpayable",
      "type": "function"
    },
    {
      "inputs": [
        {
          "internalType": "uint256",
          "name": "_immutableId",
          "type": "uint256"
        }
      ],
      "name": "createAndConvertToPersonalBundler",
      "outputs": [],
      "stateMutability": "nonpayable",
      "type": "function"
    },
    {
      "inputs": [
        {
          "internalType": "uint256",
          "name": "tokenId",
          "type": "uint256"
        }
      ],
      "name": "getApproved",
      "outputs": [
        {
          "internalType": "address",
          "name": "",
          "type": "address"
        }
      ],
      "stateMutability": "view",
      "type": "function"
    },
    {
      "inputs": [
        {
          "internalType": "uint256",
          "name": "",
          "type": "uint256"
        }
      ],
      "name": "immutableOfBundle",
      "outputs": [
        {
          "internalType": "uint256",
          "name": "",
          "type": "uint256"
        }
      ],
      "stateMutability": "view",
      "type": "function"
    },
    {
      "inputs": [
        {
          "internalType": "address",
          "name": "",
          "type": "address"
        }
      ],
      "name": "immutableOfPersonalBundler",
      "outputs": [
        {
          "internalType": "uint256",
          "name": "",
          "type": "uint256"
        }
      ],
      "stateMutability": "view",
      "type": "function"
    },
    {
      "inputs": [
        {
          "internalType": "address",
          "name": "owner",
          "type": "address"
        },
        {
          "internalType": "address",
          "name": "operator",
          "type": "address"
        }
      ],
      "name": "isApprovedForAll",
      "outputs": [
        {
          "internalType": "bool",
          "name": "",
          "type": "bool"
        }
      ],
      "stateMutability": "view",
      "type": "function"
    },
    {
      "inputs": [
        {
          "internalType": "address",
          "name": "_to",
          "type": "address"
        }
      ],
      "name": "mintBundle",
      "outputs": [
        {
          "internalType": "uint256",
          "name": "",
          "type": "uint256"
        }
      ],
      "stateMutability": "nonpayable",
      "type": "function"
    },
    {
      "inputs": [],
      "name": "name",
      "outputs": [
        {
          "internalType": "string",
          "name": "",
          "type": "string"
        }
      ],
      "stateMutability": "view",
      "type": "function"
    },
    {
      "inputs": [
        {
          "internalType": "address",
          "name": "",
          "type": "address"
        },
        {
          "internalType": "address",
          "name": "_from",
          "type": "address"
        },
        {
          "internalType": "uint256",
          "name": "_bundleId",
          "type": "uint256"
        },
        {
          "internalType": "bytes",
          "name": "",
          "type": "bytes"
        }
      ],
      "name": "onERC721Received",
      "outputs": [
        {
          "internalType": "bytes4",
          "name": "",
          "type": "bytes4"
        }
      ],
      "stateMutability": "nonpayable",
      "type": "function"
    },
    {
      "inputs": [],
      "name": "owner",
      "outputs": [
        {
          "internalType": "address",
          "name": "",
          "type": "address"
        }
      ],
      "stateMutability": "view",
      "type": "function"
    },
    {
      "inputs": [
        {
          "internalType": "uint256",
          "name": "tokenId",
          "type": "uint256"
        }
      ],
      "name": "ownerOf",
      "outputs": [
        {
          "internalType": "address",
          "name": "",
          "type": "address"
        }
      ],
      "stateMutability": "view",
      "type": "function"
    },
    {
      "inputs": [],
      "name": "pause",
      "outputs": [],
      "stateMutability": "nonpayable",
      "type": "function"
    },
    {
      "inputs": [],
      "name": "paused",
      "outputs": [
        {
          "internalType": "bool",
          "name": "",
          "type": "bool"
        }
      ],
      "stateMutability": "view",
      "type": "function"
    },
    {
      "inputs": [],
      "name": "personalBundleId",
      "outputs": [
        {
          "internalType": "uint8",
          "name": "",
          "type": "uint8"
        }
      ],
      "stateMutability": "view",
      "type": "function"
    },
    {
      "inputs": [],
      "name": "personalBundlerFactory",
      "outputs": [
        {
          "internalType": "address",
          "name": "",
          "type": "address"
        }
      ],
      "stateMutability": "view",
      "type": "function"
    },
    {
      "inputs": [
        {
          "internalType": "uint256",
          "name": "",
          "type": "uint256"
        }
      ],
      "name": "personalBundlerOfImmutable",
      "outputs": [
        {
          "internalType": "address",
          "name": "",
          "type": "address"
        }
      ],
      "stateMutability": "view",
      "type": "function"
    },
    {
      "inputs": [
        {
          "internalType": "uint256",
          "name": "_immutableId",
          "type": "uint256"
        },
        {
          "internalType": "address",
          "name": "_nftContract",
          "type": "address"
        },
        {
          "internalType": "uint256",
          "name": "_nftId",
          "type": "uint256"
        },
        {
          "internalType": "address",
          "name": "_target",
          "type": "address"
        },
        {
          "internalType": "bytes",
          "name": "_data",
          "type": "bytes"
        },
        {
          "internalType": "address",
          "name": "_nftAirdrop",
          "type": "address"
        },
        {
          "internalType": "uint256",
          "name": "_nftAirdropId",
          "type": "uint256"
        },
        {
          "internalType": "bool",
          "name": "_is1155",
          "type": "bool"
        },
        {
          "internalType": "uint256",
          "name": "_nftAirdropAmount",
          "type": "uint256"
        }
      ],
      "name": "pullAirdrop",
      "outputs": [],
      "stateMutability": "nonpayable",
      "type": "function"
    },
    {
      "inputs": [],
      "name": "rejectTransferOwnership",
      "outputs": [],
      "stateMutability": "nonpayable",
      "type": "function"
    },
    {
      "inputs": [
        {
          "internalType": "address",
          "name": "_newOwnerCandidate",
          "type": "address"
        }
      ],
      "name": "requestTransferOwnership",
      "outputs": [],
      "stateMutability": "nonpayable",
      "type": "function"
    },
    {
      "inputs": [
        {
          "internalType": "address",
          "name": "_tokenAddress",
          "type": "address"
        },
        {
          "internalType": "address",
          "name": "_receiver",
          "type": "address"
        }
      ],
      "name": "rescueERC20",
      "outputs": [],
      "stateMutability": "nonpayable",
      "type": "function"
    },
    {
      "inputs": [
        {
          "internalType": "address",
          "name": "_tokenAddress",
          "type": "address"
        },
        {
          "internalType": "uint256",
          "name": "_tokenId",
          "type": "uint256"
        },
        {
          "internalType": "address",
          "name": "_receiver",
          "type": "address"
        }
      ],
      "name": "rescueERC721",
      "outputs": [],
      "stateMutability": "nonpayable",
      "type": "function"
    },
    {
      "inputs": [
        {
          "internalType": "address",
          "name": "from",
          "type": "address"
        },
        {
          "internalType": "address",
          "name": "to",
          "type": "address"
        },
        {
          "internalType": "uint256",
          "name": "tokenId",
          "type": "uint256"
        }
      ],
      "name": "safeTransferFrom",
      "outputs": [],
      "stateMutability": "nonpayable",
      "type": "function"
    },
    {
      "inputs": [
        {
          "internalType": "address",
          "name": "from",
          "type": "address"
        },
        {
          "internalType": "address",
          "name": "to",
          "type": "address"
        },
        {
          "internalType": "uint256",
          "name": "tokenId",
          "type": "uint256"
        },
        {
          "internalType": "bytes",
          "name": "_data",
          "type": "bytes"
        }
      ],
      "name": "safeTransferFrom",
      "outputs": [],
      "stateMutability": "nonpayable",
      "type": "function"
    },
    {
      "inputs": [
        {
          "internalType": "address",
          "name": "operator",
          "type": "address"
        },
        {
          "internalType": "bool",
          "name": "approved",
          "type": "bool"
        }
      ],
      "name": "setApprovalForAll",
      "outputs": [],
      "stateMutability": "nonpayable",
      "type": "function"
    },
    {
      "inputs": [
        {
          "internalType": "string",
          "name": "_customBaseURI",
          "type": "string"
        }
      ],
      "name": "setBaseURI",
      "outputs": [],
      "stateMutability": "nonpayable",
      "type": "function"
    },
    {
      "inputs": [
        {
          "internalType": "bytes4",
          "name": "_interfaceId",
          "type": "bytes4"
        }
      ],
      "name": "supportsInterface",
      "outputs": [
        {
          "internalType": "bool",
          "name": "",
          "type": "bool"
        }
      ],
      "stateMutability": "view",
      "type": "function"
    },
    {
      "inputs": [],
      "name": "symbol",
      "outputs": [
        {
          "internalType": "string",
          "name": "",
          "type": "string"
        }
      ],
      "stateMutability": "view",
      "type": "function"
    },
    {
      "inputs": [
        {
          "internalType": "uint256",
          "name": "index",
          "type": "uint256"
        }
      ],
      "name": "tokenByIndex",
      "outputs": [
        {
          "internalType": "uint256",
          "name": "",
          "type": "uint256"
        }
      ],
      "stateMutability": "view",
      "type": "function"
    },
    {
      "inputs": [],
      "name": "tokenCount",
      "outputs": [
        {
          "internalType": "uint256",
          "name": "",
          "type": "uint256"
        }
      ],
      "stateMutability": "view",
      "type": "function"
    },
    {
      "inputs": [
        {
          "internalType": "address",
          "name": "owner",
          "type": "address"
        },
        {
          "internalType": "uint256",
          "name": "index",
          "type": "uint256"
        }
      ],
      "name": "tokenOfOwnerByIndex",
      "outputs": [
        {
          "internalType": "uint256",
          "name": "",
          "type": "uint256"
        }
      ],
      "stateMutability": "view",
      "type": "function"
    },
    {
      "inputs": [
        {
          "internalType": "uint256",
          "name": "tokenId",
          "type": "uint256"
        }
      ],
      "name": "tokenURI",
      "outputs": [
        {
          "internalType": "string",
          "name": "",
          "type": "string"
        }
      ],
      "stateMutability": "view",
      "type": "function"
    },
    {
      "inputs": [],
      "name": "totalSupply",
      "outputs": [
        {
          "internalType": "uint256",
          "name": "",
          "type": "uint256"
        }
      ],
      "stateMutability": "view",
      "type": "function"
    },
    {
      "inputs": [
        {
          "internalType": "address",
          "name": "from",
          "type": "address"
        },
        {
          "internalType": "address",
          "name": "to",
          "type": "address"
        },
        {
          "internalType": "uint256",
          "name": "tokenId",
          "type": "uint256"
        }
      ],
      "name": "transferFrom",
      "outputs": [],
      "stateMutability": "nonpayable",
      "type": "function"
    },
    {
      "inputs": [],
      "name": "unpause",
      "outputs": [],
      "stateMutability": "nonpayable",
      "type": "function"
    },
    {
      "inputs": [
        {
          "internalType": "uint256",
          "name": "_immutableId",
          "type": "uint256"
        },
        {
          "internalType": "address",
          "name": "_to",
          "type": "address"
        }
      ],
      "name": "withdraw",
      "outputs": [],
      "stateMutability": "nonpayable",
      "type": "function"
    },
    {
      "inputs": [
        {
          "internalType": "uint256",
          "name": "_immutableId",
          "type": "uint256"
        },
        {
          "internalType": "address",
          "name": "_to",
          "type": "address"
        }
      ],
      "name": "withdrawAndDecompose",
      "outputs": [],
      "stateMutability": "nonpayable",
      "type": "function"
    }
  ],
  "transactionHash": "0xfac1a141583f01482750252fa95c5c9039762a2f258d5d82bdff236c1f362b34",
  "args": [
    "0x42e0911810C50FF07B12305365495aeb0b2b4f93",
    "0xEF0c4BE966a94623224dBc5aFfdeB6a98804C9E8",
    "0x8b3519652d36f94bB9513852E75eD5060E7C1ed3",
    "NFTFi Immutable Bundler",
    "IBNFI",
    "https://metadata.nftfi.com/bundles/v1/immutable/"
  ],
  "solcInputHash": "4d2fe29bb9bcc7b729a2a79c750939bf",
  "bytecode": "0x60c06040526000600c553480156200001657600080fd5b506040516200415b3803806200415b83398101604081905262000039916200036e565b85838360006200004a8382620004c6565b506001620000598282620004c6565b5050506200006d81620000a560201b60201c565b50600b805460ff60a01b191690556001600160a01b03808616608052841660a0526200009981620000f7565b5050505050506200068f565b600a80546001600160a01b038381166001600160a01b0319831681179093556040519116919082907f8be0079c531659141344cd1fd0a4f28419497f9722a3daafe3b4186f6b6457e090600090a35050565b600081511162000117576040518060200160405280600081525062000151565b806200012e466200016460201b6200201a1760201c565b6040516020016200014192919062000592565b6040516020818303038152906040525b600d90620001609082620004c6565b5050565b6060816000036200018c5750506040805180820190915260018152600360fc1b602082015290565b8160005b8115620001bc5780620001a381620005e7565b9150620001b49050600a8362000619565b915062000190565b6000816001600160401b03811115620001d957620001d9620002a1565b6040519080825280601f01601f19166020018201604052801562000204576020820181803683370190505b5090505b84156200027c576200021c60018362000630565b91506200022b600a866200064c565b6200023890603062000663565b60f81b81838151811062000250576200025062000679565b60200101906001600160f81b031916908160001a90535062000274600a8662000619565b945062000208565b949350505050565b80516001600160a01b03811681146200029c57600080fd5b919050565b634e487b7160e01b600052604160045260246000fd5b60005b83811015620002d4578181015183820152602001620002ba565b50506000910152565b600082601f830112620002ef57600080fd5b81516001600160401b03808211156200030c576200030c620002a1565b604051601f8301601f19908116603f01168101908282118183101715620003375762000337620002a1565b816040528381528660208588010111156200035157600080fd5b62000364846020830160208901620002b7565b9695505050505050565b60008060008060008060c087890312156200038857600080fd5b620003938762000284565b9550620003a36020880162000284565b9450620003b36040880162000284565b60608801519094506001600160401b0380821115620003d157600080fd5b620003df8a838b01620002dd565b94506080890151915080821115620003f657600080fd5b620004048a838b01620002dd565b935060a08901519150808211156200041b57600080fd5b506200042a89828a01620002dd565b9150509295509295509295565b600181811c908216806200044c57607f821691505b6020821081036200046d57634e487b7160e01b600052602260045260246000fd5b50919050565b601f821115620004c157600081815260208120601f850160051c810160208610156200049c5750805b601f850160051c820191505b81811015620004bd57828155600101620004a8565b5050505b505050565b81516001600160401b03811115620004e257620004e2620002a1565b620004fa81620004f3845462000437565b8462000473565b602080601f831160018114620005325760008415620005195750858301515b600019600386901b1c1916600185901b178555620004bd565b600085815260208120601f198616915b82811015620005635788860151825594840194600190910190840162000542565b5085821015620005825787850151600019600388901b60f8161c191681555b5050505050600190811b01905550565b60008351620005a6818460208801620002b7565b835190830190620005bc818360208801620002b7565b602f60f81b9101908152600101949350505050565b634e487b7160e01b600052601160045260246000fd5b600060018201620005fc57620005fc620005d1565b5060010190565b634e487b7160e01b600052601260045260246000fd5b6000826200062b576200062b62000603565b500490565b81810381811115620006465762000646620005d1565b92915050565b6000826200065e576200065e62000603565b500690565b80820180821115620006465762000646620005d1565b634e487b7160e01b600052603260045260246000fd5b60805160a051613a4462000717600039600081816105b401528181610a4801528181610c9c015281816118810152611e600152600081816105470152818161069601528181610a0c01528181610b16015281816111bb01528181611299015281816114a001528181611526015281816116da01528181611a3b0152611dbf0152613a446000f3fe608060405234801561001057600080fd5b50600436106102675760003560e01c8063647bec33116101515780639a48b5eb116100c3578063b860fabb11610087578063b860fabb14610569578063b88d4fde14610589578063c87b56dd1461059c578063d90c739d146105af578063e985e9c5146105d6578063fa3e47051461061257600080fd5b80639a48b5eb146104ea5780639d6fa618146105135780639f181b5e14610526578063a22cb4651461052f578063ad0ffd8b1461054257600080fd5b80638456cb59116101155780638456cb591461049b5780638da5cb5b146104a35780638ee1f07a146104b457806392fede00146104c757806395d89b41146104cf5780639993b010146104d757600080fd5b8063647bec33146104525780636c0360eb1461046557806370a082311461046d5780637a82e93c146104805780637b3711071461049357600080fd5b80632f745c59116101ea578063542c4a13116101ae578063542c4a13146103e557806355f804b3146103ff5780635c975abb146104125780635d799f87146104245780635f992fdd146104375780636352211e1461043f57600080fd5b80632f745c59146103915780633f4ba83a146103a457806342842e0e146103ac57806349a931f2146103bf5780634f6ccce7146103d257600080fd5b8063095ea7b311610231578063095ea7b314610317578063098867441461032a578063150b7a021461034a57806318160ddd1461037657806323b872dd1461037e57600080fd5b8062296cd81461026c578062f714ce1461029f57806301ffc9a7146102b457806306fdde03146102d7578063081812fc146102ec575b600080fd5b61028c61027a3660046130ff565b60116020526000908152604090205481565b6040519081526020015b60405180910390f35b6102b26102ad36600461311c565b610625565b005b6102c76102c2366004613162565b610768565b6040519015158152602001610296565b6102df610793565b60405161029691906131cf565b6102ff6102fa3660046131e2565b610825565b6040516001600160a01b039091168152602001610296565b6102b26103253660046131fb565b6108bf565b61028c6103383660046131e2565b600f6020526000908152604090205481565b61035d6103583660046132b3565b6109d4565b6040516001600160e01b03199091168152602001610296565b60085461028c565b6102b261038c366004613333565b610b6e565b61028c61039f3660046131fb565b610b9f565b6102b2610c35565b6102b26103ba366004613333565b610c69565b6102b26103cd3660046131e2565b610c84565b61028c6103e03660046131e2565b610d21565b6103ed600181565b60405160ff9091168152602001610296565b6102b261040d366004613374565b610db4565b600b54600160a01b900460ff166102c7565b6102b26104323660046133bd565b610dea565b6102b2610ed9565b6102ff61044d3660046131e2565b610f45565b6102b2610460366004613404565b610fbc565b6102df611320565b61028c61047b3660046130ff565b6113ae565b6102b261048e36600461311c565b611435565b6102b26115f4565b6102b2611663565b600a546001600160a01b03166102ff565b61028c6104c23660046130ff565b611695565b6102b2611764565b6102df61178e565b6102b26104e536600461311c565b61179d565b6102ff6104f83660046131e2565b6010602052600090815260409020546001600160a01b031681565b6102b26105213660046130ff565b611b09565b61028c600c5481565b6102b261053d3660046134e5565b611bba565b6102ff7f000000000000000000000000000000000000000000000000000000000000000081565b61028c6105773660046131e2565b600e6020526000908152604090205481565b6102b26105973660046132b3565b611c7e565b6102df6105aa3660046131e2565b611cb0565b6102ff7f000000000000000000000000000000000000000000000000000000000000000081565b6102c76105e43660046133bd565b6001600160a01b03918216600090815260056020908152604080832093909416825291909152205460ff1690565b6102b2610620366004613513565b611d8a565b61062f828261211b565b6000828152600e60209081526040808320546010909252909120546001600160a01b031661065c846121c7565b6001600160a01b0381166106f857604051632142170760e11b81523060048201526001600160a01b038481166024830152604482018490527f000000000000000000000000000000000000000000000000000000000000000016906342842e0e906064015b600060405180830381600087803b1580156106db57600080fd5b505af11580156106ef573d6000803e3d6000fd5b50505050610762565b604051632142170760e11b81523060048201526001600160a01b038481166024830152600160448301528216906342842e0e906064015b600060405180830381600087803b15801561074957600080fd5b505af115801561075d573d6000803e3d6000fd5b505050505b50505050565b60006001600160e01b03198216630a85bd0160e11b148061078d575061078d82612246565b92915050565b6060600080546107a290613555565b80601f01602080910402602001604051908101604052809291908181526020018280546107ce90613555565b801561081b5780601f106107f05761010080835404028352916020019161081b565b820191906000526020600020905b8154815290600101906020018083116107fe57829003601f168201915b5050505050905090565b6000818152600260205260408120546001600160a01b03166108a35760405162461bcd60e51b815260206004820152602c60248201527f4552433732313a20617070726f76656420717565727920666f72206e6f6e657860448201526b34b9ba32b73a103a37b5b2b760a11b60648201526084015b60405180910390fd5b506000908152600460205260409020546001600160a01b031690565b60006108ca82610f45565b9050806001600160a01b0316836001600160a01b0316036109375760405162461bcd60e51b815260206004820152602160248201527f4552433732313a20617070726f76616c20746f2063757272656e74206f776e656044820152603960f91b606482015260840161089a565b336001600160a01b0382161480610953575061095381336105e4565b6109c55760405162461bcd60e51b815260206004820152603860248201527f4552433732313a20617070726f76652063616c6c6572206973206e6f74206f7760448201527f6e6572206e6f7220617070726f76656420666f7220616c6c0000000000000000606482015260840161089a565b6109cf838361226b565b505050565b600b54600090600160a01b900460ff1615610a015760405162461bcd60e51b815260040161089a9061358f565b336001600160a01b037f0000000000000000000000000000000000000000000000000000000000000000161480610abb575060405163397140fd60e21b81523360048201527f00000000000000000000000000000000000000000000000000000000000000006001600160a01b03169063e5c503f490602401602060405180830381865afa158015610a97573d6000803e3d6000fd5b505050506040513d601f19601f82011682018060405250810190610abb91906135b9565b610afb5760405162461bcd60e51b8152602060048201526011602482015270185cdcd95d081b9bdd08185b1b1bddd959607a1b604482015260640161089a565b6001600160a01b03841615610b5c5760006001600160a01b037f0000000000000000000000000000000000000000000000000000000000000000163303610b4d57610b4685856122d9565b9050610b5a565b610b57853361234f565b90505b505b50630a85bd0160e11b5b949350505050565b610b7833826123df565b610b945760405162461bcd60e51b815260040161089a906135d6565b6109cf8383836124d2565b6000610baa836113ae565b8210610c0c5760405162461bcd60e51b815260206004820152602b60248201527f455243373231456e756d657261626c653a206f776e657220696e646578206f7560448201526a74206f6620626f756e647360a81b606482015260840161089a565b506001600160a01b03919091166000908152600660209081526040808320938352929052205490565b600a546001600160a01b03163314610c5f5760405162461bcd60e51b815260040161089a90613627565b610c6761267d565b565b6109cf83838360405180602001604052806000815250611c7e565b60405163464b8be160e11b81523060048201526000907f00000000000000000000000000000000000000000000000000000000000000006001600160a01b031690638c9717c2906024016020604051808303816000875af1158015610ced573d6000803e3d6000fd5b505050506040513d601f19601f82011682018060405250810190610d11919061365c565b9050610d1d828261179d565b5050565b6000610d2c60085490565b8210610d8f5760405162461bcd60e51b815260206004820152602c60248201527f455243373231456e756d657261626c653a20676c6f62616c20696e646578206f60448201526b7574206f6620626f756e647360a01b606482015260840161089a565b60088281548110610da257610da2613679565b90600052602060002001549050919050565b600a546001600160a01b03163314610dde5760405162461bcd60e51b815260040161089a90613627565b610de78161271a565b50565b600a546001600160a01b03163314610e145760405162461bcd60e51b815260040161089a90613627565b6040516370a0823160e01b815230600482015282906000906001600160a01b038316906370a0823190602401602060405180830381865afa158015610e5d573d6000803e3d6000fd5b505050506040513d601f19601f82011682018060405250810190610e81919061368f565b905060008111610ec55760405162461bcd60e51b815260206004820152600f60248201526e1b9bc81d1bdad95b9cc81bdddb9959608a1b604482015260640161089a565b6107626001600160a01b0383168483612770565b600b546001600160a01b03163314610f335760405162461bcd60e51b815260206004820152601c60248201527f4f776e61626c653a206e6f74206f776e65722063616e64696461746500000000604482015260640161089a565b600b80546001600160a01b0319169055565b6000818152600260205260408120546001600160a01b03168061078d5760405162461bcd60e51b815260206004820152602960248201527f4552433732313a206f776e657220717565727920666f72206e6f6e657869737460448201526832b73a103a37b5b2b760b91b606482015260840161089a565b33610fc68b610f45565b6001600160a01b0316146110285760405162461bcd60e51b815260206004820152602360248201527f70756c6c41697264726f70206d73672e73656e646572206e6f7420656c696769604482015262626c6560e81b606482015260840161089a565b60008a8152601060205260409020546001600160a01b0316156111925760008a81526010602052604090819020549051635680a3ad60e01b81526001600160a01b038b81166004830152602482018b905290911690635680a3ad90604401602060405180830381865afa1580156110a3573d6000803e3d6000fd5b505050506040513d601f19601f820116820180604052508101906110c791906135b9565b61110c5760405162461bcd60e51b81526020600482015260166024820152750d2dadaeae8c2c4d8ca5adccce840dad2e6dac2e8c6d60531b604482015260640161089a565b60008a81526010602052604090819020549051633f77844b60e11b81526001600160a01b0390911690637eef08969061115b908c908c908c908c908c908c908c908c908c9033906004016136a8565b600060405180830381600087803b15801561117557600080fd5b505af1158015611189573d6000803e3d6000fd5b50505050611314565b604051631d5b701760e31b81526001600160a01b038a81166004830152602482018a90526000917f00000000000000000000000000000000000000000000000000000000000000009091169063eadb80b8906044016040805180830381865afa158015611203573d6000803e3d6000fd5b505050506040513d601f19601f82011682018060405250810190611227919061372a565b60008d8152600e6020526040902054909250821490506112825760405162461bcd60e51b81526020600482015260166024820152750d2dadaeae8c2c4d8ca5adccce840dad2e6dac2e8c6d60531b604482015260640161089a565b604051633f77844b60e11b81526001600160a01b037f00000000000000000000000000000000000000000000000000000000000000001690637eef0896906112e0908d908d908d908d908d908d908d908d908d9033906004016136a8565b600060405180830381600087803b1580156112fa57600080fd5b505af115801561130e573d6000803e3d6000fd5b50505050505b50505050505050505050565b600d805461132d90613555565b80601f016020809104026020016040519081016040528092919081815260200182805461135990613555565b80156113a65780601f1061137b576101008083540402835291602001916113a6565b820191906000526020600020905b81548152906001019060200180831161138957829003601f168201915b505050505081565b60006001600160a01b0382166114195760405162461bcd60e51b815260206004820152602a60248201527f4552433732313a2062616c616e636520717565727920666f7220746865207a65604482015269726f206164647265737360b01b606482015260840161089a565b506001600160a01b031660009081526003602052604090205490565b61143f828261211b565b6000828152600e60209081526040808320546010909252909120546001600160a01b031661146c846121c7565b6001600160a01b03811661155757604051636fba484360e11b8152600481018390526001600160a01b0384811660248301527f0000000000000000000000000000000000000000000000000000000000000000169063df74908690604401600060405180830381600087803b1580156114e457600080fd5b505af11580156114f8573d6000803e3d6000fd5b5050604051632142170760e11b81523060048201526001600160a01b038681166024830152604482018690527f00000000000000000000000000000000000000000000000000000000000000001692506342842e0e91506064016106c1565b604051636fba484360e11b8152600160048201526001600160a01b03848116602483015282169063df74908690604401600060405180830381600087803b1580156115a157600080fd5b505af11580156115b5573d6000803e3d6000fd5b5050604051632142170760e11b81523060048201526001600160a01b03868116602483015260016044830152841692506342842e0e915060640161072f565b600b546001600160a01b0316331461164e5760405162461bcd60e51b815260206004820152601c60248201527f4f776e61626c653a206e6f74206f776e65722063616e64696461746500000000604482015260640161089a565b600b54610f33906001600160a01b03166127c2565b600a546001600160a01b0316331461168d5760405162461bcd60e51b815260040161089a90613627565b610c67612814565b600b54600090600160a01b900460ff16156116c25760405162461bcd60e51b815260040161089a9061358f565b6040516340d097c360e01b81523060048201526000907f00000000000000000000000000000000000000000000000000000000000000006001600160a01b0316906340d097c3906024016020604051808303816000875af115801561172b573d6000803e3d6000fd5b505050506040513d601f19601f8201168201806040525081019061174f919061368f565b905061175b83826122d9565b9150505b919050565b600a546001600160a01b03163314610f335760405162461bcd60e51b815260040161089a90613627565b6060600180546107a290613555565b336117a783610f45565b6001600160a01b0316146117fd5760405162461bcd60e51b815260206004820152601760248201527f6d73672e73656e646572206e6f7420656c696769626c65000000000000000000604482015260640161089a565b6000828152601060205260409020546001600160a01b0316156118625760405162461bcd60e51b815260206004820152601860248201527f616c726561647920706572736f6e616c2062756e646c65720000000000000000604482015260640161089a565b60405163397140fd60e21b81526001600160a01b0382811660048301527f0000000000000000000000000000000000000000000000000000000000000000169063e5c503f490602401602060405180830381865afa1580156118c8573d6000803e3d6000fd5b505050506040513d601f19601f820116820180604052508101906118ec91906135b9565b61192f5760405162461bcd60e51b81526020600482015260146024820152733737ba103832b939b7b730b610313ab7323632b960611b604482015260640161089a565b6040516331a9108f60e11b81526001600482015230906001600160a01b03831690636352211e90602401602060405180830381865afa158015611976573d6000803e3d6000fd5b505050506040513d601f19601f8201168201806040525081019061199a919061365c565b6001600160a01b0316146119f05760405162461bcd60e51b815260206004820152601d60248201527f6f776e65722068617320746f206265207468697320636f6e7472616374000000604482015260640161089a565b6000828152600e60209081526040808320805490849055808452600f909252808320929092559051638daf2d6160e01b8152600481018290526001600160a01b0383811660248301527f00000000000000000000000000000000000000000000000000000000000000001690638daf2d6190604401600060405180830381600087803b158015611a7f57600080fd5b505af1158015611a93573d6000803e3d6000fd5b50505050816001600160a01b031681847f52ac19043c7718796c5d11822f560e2526c7b5d6f6eea1066befb6d03e82a80560405160405180910390a450600082815260106020908152604080832080546001600160a01b039095166001600160a01b031990951685179055928252601190522055565b600a546001600160a01b03163314611b335760405162461bcd60e51b815260040161089a90613627565b6001600160a01b038116611b985760405162461bcd60e51b815260206004820152602660248201527f4f776e61626c653a206e6577206f776e657220697320746865207a65726f206160448201526564647265737360d01b606482015260840161089a565b600b80546001600160a01b0319166001600160a01b0392909216919091179055565b336001600160a01b03831603611c125760405162461bcd60e51b815260206004820152601960248201527f4552433732313a20617070726f766520746f2063616c6c657200000000000000604482015260640161089a565b3360008181526005602090815260408083206001600160a01b03871680855290835292819020805460ff191686151590811790915590519081529192917f17307eab39ab6107e8899845ad3d59bd9653f200f220920489ca2b5937696c31910160405180910390a35050565b611c8833836123df565b611ca45760405162461bcd60e51b815260040161089a906135d6565b61076284848484612879565b6000818152600260205260409020546060906001600160a01b0316611d2f5760405162461bcd60e51b815260206004820152602f60248201527f4552433732314d657461646174613a2055524920717565727920666f72206e6f60448201526e3732bc34b9ba32b73a103a37b5b2b760891b606482015260840161089a565b6000611d396128ac565b90506000815111611d59576040518060200160405280600081525061175b565b80611d638461201a565b604051602001611d7492919061374e565b6040516020818303038152906040529392505050565b600a546001600160a01b03163314611db45760405162461bcd60e51b815260040161089a90613627565b826001600160a01b037f0000000000000000000000000000000000000000000000000000000000000000811690821603611e41576000838152600f602052604090205415611e3c5760405162461bcd60e51b8152602060048201526015602482015274746f6b656e20697320696e20696d6d757461626c6560581b604482015260640161089a565b611f2e565b60405163397140fd60e21b81526001600160a01b0385811660048301527f0000000000000000000000000000000000000000000000000000000000000000169063e5c503f490602401602060405180830381865afa158015611ea7573d6000803e3d6000fd5b505050506040513d601f19601f82011682018060405250810190611ecb91906135b9565b15611f2e576001600160a01b03841660009081526011602052604090205415611f2e5760405162461bcd60e51b8152602060048201526015602482015274746f6b656e20697320696e20696d6d757461626c6560581b604482015260640161089a565b6040516331a9108f60e11b81526004810184905230906001600160a01b03831690636352211e90602401602060405180830381865afa158015611f75573d6000803e3d6000fd5b505050506040513d601f19601f82011682018060405250810190611f99919061365c565b6001600160a01b031614611fdf5760405162461bcd60e51b815260206004820152600d60248201526c1b999d081b9bdd081bdddb9959609a1b604482015260640161089a565b604051632142170760e11b81523060048201526001600160a01b038381166024830152604482018590528216906342842e0e9060640161072f565b6060816000036120415750506040805180820190915260018152600360fc1b602082015290565b8160005b811561206b578061205581613793565b91506120649050600a836137c2565b9150612045565b60008167ffffffffffffffff81111561208657612086613227565b6040519080825280601f01601f1916602001820160405280156120b0576020820181803683370190505b5090505b8415610b66576120c56001836137d6565b91506120d2600a866137e9565b6120dd9060306137fd565b60f81b8183815181106120f2576120f2613679565b60200101906001600160f81b031916908160001a905350612114600a866137c2565b94506120b4565b3361212583610f45565b6001600160a01b0316146121715760405162461bcd60e51b815260206004820152601360248201527231b0b63632b91034b9903737ba1037bbb732b960691b604482015260640161089a565b6001600160a01b038116610d1d5760405162461bcd60e51b815260206004820152601860248201527f7472616e7366657220746f207a65726f20616464726573730000000000000000604482015260640161089a565b6121d0816128bb565b6000818152601060205260409020546001600160a01b03161561222357600090815260106020908152604080832080546001600160a01b031981169091556001600160a01b031683526011909152812055565b6000908152600e602090815260408083208054908490558352600f909152812055565b60006001600160e01b0319821663780e9d6360e01b148061078d575061078d82612962565b600081815260046020526040902080546001600160a01b0319166001600160a01b03841690811790915581906122a082610f45565b6001600160a01b03167f8c5be1e5ebec7d5bd14f71427d1e84f3dd0314c0f7b2291e5b200ac8c7c3b92560405160405180910390a45050565b600080600c600081546122eb90613793565b918290555090506122fc84826129b2565b6000818152600e60209081526040808320869055858352600f90915280822083905551849083907f3d29d48d72f16f3d1e30b1064f89960da7256796039bcb7cf0e613029188922b908490a49392505050565b600080600c6000815461236190613793565b9182905550905061237284826129b2565b600081815260106020908152604080832080546001600160a01b0319166001600160a01b03881690811790915580845260119092528083208490555190919083907f3d29d48d72f16f3d1e30b1064f89960da7256796039bcb7cf0e613029188922b908390a49392505050565b6000818152600260205260408120546001600160a01b03166124585760405162461bcd60e51b815260206004820152602c60248201527f4552433732313a206f70657261746f7220717565727920666f72206e6f6e657860448201526b34b9ba32b73a103a37b5b2b760a11b606482015260840161089a565b600061246383610f45565b9050806001600160a01b0316846001600160a01b0316148061249e5750836001600160a01b031661249384610825565b6001600160a01b0316145b80610b6657506001600160a01b0380821660009081526005602090815260408083209388168352929052205460ff16610b66565b826001600160a01b03166124e582610f45565b6001600160a01b03161461254d5760405162461bcd60e51b815260206004820152602960248201527f4552433732313a207472616e73666572206f6620746f6b656e2074686174206960448201526839903737ba1037bbb760b91b606482015260840161089a565b6001600160a01b0382166125af5760405162461bcd60e51b8152602060048201526024808201527f4552433732313a207472616e7366657220746f20746865207a65726f206164646044820152637265737360e01b606482015260840161089a565b6125ba8383836129cc565b6125c560008261226b565b6001600160a01b03831660009081526003602052604081208054600192906125ee9084906137d6565b90915550506001600160a01b038216600090815260036020526040812080546001929061261c9084906137fd565b909155505060008181526002602052604080822080546001600160a01b0319166001600160a01b0386811691821790925591518493918716917fddf252ad1be2c89b69c2b068fc378daa952ba7f163c4a11628f55a4df523b3ef91a4505050565b600b54600160a01b900460ff166126cd5760405162461bcd60e51b815260206004820152601460248201527314185d5cd8589b194e881b9bdd081c185d5cd95960621b604482015260640161089a565b600b805460ff60a01b191690557f5db9ee0a495bf2e6ff9c91a7834c1ba4fdd244a5e8aa4e537bd38aeae4b073aa335b6040516001600160a01b03909116815260200160405180910390a1565b60008151116127385760405180602001604052806000815250612763565b806127424661201a565b604051602001612753929190613810565b6040516020818303038152906040525b600d90610d1d9082613899565b604080516001600160a01b038416602482015260448082018490528251808303909101815260649091019091526020810180516001600160e01b031663a9059cbb60e01b1790526109cf908490612a84565b600a80546001600160a01b038381166001600160a01b0319831681179093556040519116919082907f8be0079c531659141344cd1fd0a4f28419497f9722a3daafe3b4186f6b6457e090600090a35050565b600b54600160a01b900460ff161561283e5760405162461bcd60e51b815260040161089a9061358f565b600b805460ff60a01b1916600160a01b1790557f62e78cea01bee320cd4e420270b5ea74000d11b0c9f74754ebdbfc544b05a2586126fd3390565b6128848484846124d2565b61289084848484612b56565b6107625760405162461bcd60e51b815260040161089a90613959565b6060600d80546107a290613555565b60006128c682610f45565b90506128d4816000846129cc565b6128df60008361226b565b6001600160a01b03811660009081526003602052604081208054600192906129089084906137d6565b909155505060008281526002602052604080822080546001600160a01b0319169055518391906001600160a01b038416907fddf252ad1be2c89b69c2b068fc378daa952ba7f163c4a11628f55a4df523b3ef908390a45050565b60006001600160e01b031982166380ac58cd60e01b148061299357506001600160e01b03198216635b5e139f60e01b145b8061078d57506301ffc9a760e01b6001600160e01b031983161461078d565b610d1d828260405180602001604052806000815250612c54565b6001600160a01b038316612a2757612a2281600880546000838152600960205260408120829055600182018355919091527ff3f7a9fe364faab93b216da50a3214154f22a0a2b415b23a84c8169e8b636ee30155565b612a4a565b816001600160a01b0316836001600160a01b031614612a4a57612a4a8382612c87565b6001600160a01b038216612a61576109cf81612d24565b826001600160a01b0316826001600160a01b0316146109cf576109cf8282612dd3565b6000612ad9826040518060400160405280602081526020017f5361666545524332303a206c6f772d6c6576656c2063616c6c206661696c6564815250856001600160a01b0316612e179092919063ffffffff16565b8051909150156109cf5780806020019051810190612af791906135b9565b6109cf5760405162461bcd60e51b815260206004820152602a60248201527f5361666545524332303a204552433230206f7065726174696f6e20646964206e6044820152691bdd081cdd58d8d9595960b21b606482015260840161089a565b60006001600160a01b0384163b15612c4c57604051630a85bd0160e11b81526001600160a01b0385169063150b7a0290612b9a9033908990889088906004016139ab565b6020604051808303816000875af1925050508015612bd5575060408051601f3d908101601f19168201909252612bd2918101906139e8565b60015b612c32573d808015612c03576040519150601f19603f3d011682016040523d82523d6000602084013e612c08565b606091505b508051600003612c2a5760405162461bcd60e51b815260040161089a90613959565b805181602001fd5b6001600160e01b031916630a85bd0160e11b149050610b66565b506001610b66565b612c5e8383612e30565b612c6b6000848484612b56565b6109cf5760405162461bcd60e51b815260040161089a90613959565b60006001612c94846113ae565b612c9e91906137d6565b600083815260076020526040902054909150808214612cf1576001600160a01b03841660009081526006602090815260408083208584528252808320548484528184208190558352600790915290208190555b5060009182526007602090815260408084208490556001600160a01b039094168352600681528383209183525290812055565b600854600090612d36906001906137d6565b60008381526009602052604081205460088054939450909284908110612d5e57612d5e613679565b906000526020600020015490508060088381548110612d7f57612d7f613679565b6000918252602080832090910192909255828152600990915260408082208490558582528120556008805480612db757612db7613a05565b6001900381819060005260206000200160009055905550505050565b6000612dde836113ae565b6001600160a01b039093166000908152600660209081526040808320868452825280832085905593825260079052919091209190915550565b6060612e268484600085612f7e565b90505b9392505050565b6001600160a01b038216612e865760405162461bcd60e51b815260206004820181905260248201527f4552433732313a206d696e7420746f20746865207a65726f2061646472657373604482015260640161089a565b6000818152600260205260409020546001600160a01b031615612eeb5760405162461bcd60e51b815260206004820152601c60248201527f4552433732313a20746f6b656e20616c7265616479206d696e74656400000000604482015260640161089a565b612ef7600083836129cc565b6001600160a01b0382166000908152600360205260408120805460019290612f209084906137fd565b909155505060008181526002602052604080822080546001600160a01b0319166001600160a01b03861690811790915590518392907fddf252ad1be2c89b69c2b068fc378daa952ba7f163c4a11628f55a4df523b3ef908290a45050565b606082471015612fdf5760405162461bcd60e51b815260206004820152602660248201527f416464726573733a20696e73756666696369656e742062616c616e636520666f6044820152651c8818d85b1b60d21b606482015260840161089a565b843b61302d5760405162461bcd60e51b815260206004820152601d60248201527f416464726573733a2063616c6c20746f206e6f6e2d636f6e7472616374000000604482015260640161089a565b600080866001600160a01b031685876040516130499190613a1b565b60006040518083038185875af1925050503d8060008114613086576040519150601f19603f3d011682016040523d82523d6000602084013e61308b565b606091505b509150915061309b8282866130a6565b979650505050505050565b606083156130b5575081612e29565b8251156130c55782518084602001fd5b8160405162461bcd60e51b815260040161089a91906131cf565b6001600160a01b0381168114610de757600080fd5b803561175f816130df565b60006020828403121561311157600080fd5b8135612e29816130df565b6000806040838503121561312f57600080fd5b823591506020830135613141816130df565b809150509250929050565b6001600160e01b031981168114610de757600080fd5b60006020828403121561317457600080fd5b8135612e298161314c565b60005b8381101561319a578181015183820152602001613182565b50506000910152565b600081518084526131bb81602086016020860161317f565b601f01601f19169290920160200192915050565b602081526000612e2960208301846131a3565b6000602082840312156131f457600080fd5b5035919050565b6000806040838503121561320e57600080fd5b8235613219816130df565b946020939093013593505050565b634e487b7160e01b600052604160045260246000fd5b600067ffffffffffffffff8084111561325857613258613227565b604051601f8501601f19908116603f0116810190828211818310171561328057613280613227565b8160405280935085815286868601111561329957600080fd5b858560208301376000602087830101525050509392505050565b600080600080608085870312156132c957600080fd5b84356132d4816130df565b935060208501356132e4816130df565b925060408501359150606085013567ffffffffffffffff81111561330757600080fd5b8501601f8101871361331857600080fd5b6133278782356020840161323d565b91505092959194509250565b60008060006060848603121561334857600080fd5b8335613353816130df565b92506020840135613363816130df565b929592945050506040919091013590565b60006020828403121561338657600080fd5b813567ffffffffffffffff81111561339d57600080fd5b8201601f810184136133ae57600080fd5b610b668482356020840161323d565b600080604083850312156133d057600080fd5b82356133db816130df565b91506020830135613141816130df565b8015158114610de757600080fd5b803561175f816133eb565b6000806000806000806000806000806101208b8d03121561342457600080fd5b8a35995060208b0135613436816130df565b985060408b0135975060608b013561344d816130df565b965060808b013567ffffffffffffffff8082111561346a57600080fd5b818d0191508d601f83011261347e57600080fd5b81358181111561348d57600080fd5b8e602082850101111561349f57600080fd5b6020830198508097505050506134b760a08c016130f4565b935060c08b013592506134cc60e08c016133f9565b91506101008b013590509295989b9194979a5092959850565b600080604083850312156134f857600080fd5b8235613503816130df565b91506020830135613141816133eb565b60008060006060848603121561352857600080fd5b8335613533816130df565b925060208401359150604084013561354a816130df565b809150509250925092565b600181811c9082168061356957607f821691505b60208210810361358957634e487b7160e01b600052602260045260246000fd5b50919050565b60208082526010908201526f14185d5cd8589b194e881c185d5cd95960821b604082015260600190565b6000602082840312156135cb57600080fd5b8151612e29816133eb565b60208082526031908201527f4552433732313a207472616e736665722063616c6c6572206973206e6f74206f6040820152701ddb995c881b9bdc88185c1c1c9bdd9959607a1b606082015260800190565b6020808252818101527f4f776e61626c653a2063616c6c6572206973206e6f7420746865206f776e6572604082015260600190565b60006020828403121561366e57600080fd5b8151612e29816130df565b634e487b7160e01b600052603260045260246000fd5b6000602082840312156136a157600080fd5b5051919050565b6001600160a01b038b81168252602082018b9052898116604083015261012060608301819052820188905260009061014090898b838601376000848b0183015290971660808301525060a081019490945291151560c084015260e08301526001600160a01b0316610100820152601f909201601f191690910101949350505050565b6000806040838503121561373d57600080fd5b505080516020909101519092909150565b6000835161376081846020880161317f565b83519083019061377481836020880161317f565b01949350505050565b634e487b7160e01b600052601160045260246000fd5b6000600182016137a5576137a561377d565b5060010190565b634e487b7160e01b600052601260045260246000fd5b6000826137d1576137d16137ac565b500490565b8181038181111561078d5761078d61377d565b6000826137f8576137f86137ac565b500690565b8082018082111561078d5761078d61377d565b6000835161382281846020880161317f565b83519083019061383681836020880161317f565b602f60f81b9101908152600101949350505050565b601f8211156109cf57600081815260208120601f850160051c810160208610156138725750805b601f850160051c820191505b818110156138915782815560010161387e565b505050505050565b815167ffffffffffffffff8111156138b3576138b3613227565b6138c7816138c18454613555565b8461384b565b602080601f8311600181146138fc57600084156138e45750858301515b600019600386901b1c1916600185901b178555613891565b600085815260208120601f198616915b8281101561392b5788860151825594840194600190910190840161390c565b50858210156139495787850151600019600388901b60f8161c191681555b5050505050600190811b01905550565b60208082526032908201527f4552433732313a207472616e7366657220746f206e6f6e20455243373231526560408201527131b2b4bb32b91034b6b83632b6b2b73a32b960711b606082015260800190565b6001600160a01b03858116825284166020820152604081018390526080606082018190526000906139de908301846131a3565b9695505050505050565b6000602082840312156139fa57600080fd5b8151612e298161314c565b634e487b7160e01b600052603160045260246000fd5b60008251613a2d81846020870161317f565b919091019291505056fea164736f6c6343000811000a",
  "devdoc": {
    "author": "NFTfi",
    "details": "This contract prevents owners of the bundles to remove any child, but they can still receive new children.      Solves the problem of bundles being emptied by their owner between they are listed and the loan begins.",
    "kind": "dev",
    "methods": {
      "approve(address,uint256)": {
        "details": "See {IERC721-approve}."
      },
      "balanceOf(address)": {
        "details": "See {IERC721-balanceOf}."
      },
      "constructor": {
        "details": "Stores the bundler, name and symbol",
        "params": {
          "_bundler": "Address of the bundler contract",
          "_name": "name of the token contract",
          "_symbol": "symbol of the token contract"
        }
      },
      "convertToPersonalBundler(uint256,address)": {
        "params": {
          "_immutableId": "the id of the immutable bundle",
          "_personalBundler": "the address of the personal bundler conract"
        }
      },
      "createAndConvertToPersonalBundler(uint256)": {
        "params": {
          "_immutableId": "the id of the immutable bundle"
        }
      },
      "getApproved(uint256)": {
        "details": "See {IERC721-getApproved}."
      },
      "isApprovedForAll(address,address)": {
        "details": "See {IERC721-isApprovedForAll}."
      },
      "mintBundle(address)": {
        "params": {
          "_to": "The address that owns the new immutable bundle"
        },
        "returns": {
          "_0": "The id of the new created immutable bundle"
        }
      },
      "name()": {
        "details": "See {IERC721Metadata-name}."
      },
      "onERC721Received(address,address,uint256,bytes)": {
        "params": {
          "_bundleId": "The bundle that is being transferred param _data Arbitrary data",
          "_from": "The previous owner of the token"
        },
        "returns": {
          "_0": "the selector of this method"
        }
      },
      "owner()": {
        "details": "Returns the address of the current owner."
      },
      "ownerOf(uint256)": {
        "details": "See {IERC721-ownerOf}."
      },
      "pause()": {
        "details": "Triggers stopped state. Requirements: - Only the owner can call this method. - The contract must not be paused."
      },
      "paused()": {
        "details": "Returns true if the contract is paused, and false otherwise."
      },
      "pullAirdrop(uint256,address,uint256,address,bytes,address,uint256,bool,uint256)": {
        "params": {
          "_data": "- function selector to be called on the airdropping contract",
          "_immutableId": "- the id of the immutable bundle",
          "_is1155": "-",
          "_nftAirdrop": "- address of the used claiming nft in the drop",
          "_nftAirdropAmount": "- amount in case of 1155",
          "_nftAirdropId": "- id of the used claiming nft in the drop",
          "_nftContract": "- contract address of the target nft of the drop",
          "_nftId": "- id of the target nft of the drop",
          "_target": "- address of the airdropping contract"
        }
      },
      "requestTransferOwnership(address)": {
        "details": "Requests transferring ownership of the contract to a new account (`_newOwnerCandidate`). Can only be called by the current owner."
      },
      "rescueERC20(address,address)": {
        "params": {
          "_receiver": "- receiver of the token",
          "_tokenAddress": "- address of the token contract for the token to be sent out"
        }
      },
      "rescueERC721(address,uint256,address)": {
        "params": {
          "_receiver": "- receiver of the token",
          "_tokenAddress": "- address of the token contract for the token to be sent out",
          "_tokenId": "- id token to be sent out"
        }
      },
      "safeTransferFrom(address,address,uint256)": {
        "details": "See {IERC721-safeTransferFrom}."
      },
      "safeTransferFrom(address,address,uint256,bytes)": {
        "details": "See {IERC721-safeTransferFrom}."
      },
      "setApprovalForAll(address,bool)": {
        "details": "See {IERC721-setApprovalForAll}."
      },
      "setBaseURI(string)": {
        "details": "Sets baseURI.",
        "params": {
          "_customBaseURI": "- Base URI"
        }
      },
      "supportsInterface(bytes4)": {
        "details": "See {IERC165-supportsInterface}."
      },
      "symbol()": {
        "details": "See {IERC721Metadata-symbol}."
      },
      "tokenByIndex(uint256)": {
        "details": "See {IERC721Enumerable-tokenByIndex}."
      },
      "tokenOfOwnerByIndex(address,uint256)": {
        "details": "See {IERC721Enumerable-tokenOfOwnerByIndex}."
      },
      "tokenURI(uint256)": {
        "details": "See {IERC721Metadata-tokenURI}."
      },
      "totalSupply()": {
        "details": "See {IERC721Enumerable-totalSupply}."
      },
      "transferFrom(address,address,uint256)": {
        "details": "See {IERC721-transferFrom}."
      },
      "unpause()": {
        "details": "Returns to normal state. Requirements: - Only the owner can call this method. - The contract must be paused."
      },
      "withdraw(uint256,address)": {
        "params": {
          "_immutableId": "the id of the immutable bundle",
          "_to": "the address of the receiver of the bundle"
        }
      },
      "withdrawAndDecompose(uint256,address)": {
        "params": {
          "_immutableId": "the id of the immutable bundle",
          "_to": "the address of the receiver of the bundle"
        }
      }
    },
    "title": "ImmutableBundle",
    "version": 1
  },
  "userdoc": {
    "kind": "user",
    "methods": {
      "convertToPersonalBundler(uint256,address)": {
        "notice": "Takes an existing immutable regular bundle and converts it to a personal bundle, has to be provided with a personal bundler contract address"
      },
      "createAndConvertToPersonalBundler(uint256)": {
        "notice": "Takes an existing immutable regular bundle and converts it to a personal bundle, creates the personal bundler contract implicitly."
      },
      "mintBundle(address)": {
        "notice": "Mints a new bundle storing it as immutable bundle.         The bundle can receive children but there is no way to remove a child, unless withdrawing the bundle."
      },
      "onERC721Received(address,address,uint256,bytes)": {
        "notice": "Method invoked when a bundle is received param The address that caused the transfer"
      },
      "pullAirdrop(uint256,address,uint256,address,bytes,address,uint256,bool,uint256)": {
        "notice": "this function initiates a flashloan to pull an airdrop from a tartget contract"
      },
      "rescueERC20(address,address)": {
        "notice": "used by the owner account to be able to drain ERC20 tokens received as airdrops for the locked  collateral NFT-s"
      },
      "rescueERC721(address,uint256,address)": {
        "notice": "used by the owner account to be able to drain ERC721 tokens received as airdrops for the locked  collateral NFT-s"
      },
      "withdraw(uint256,address)": {
        "notice": "Withdraw a bundle"
      },
      "withdrawAndDecompose(uint256,address)": {
        "notice": "Withdraw a bundle and remove all the children from the bundle"
      }
    },
    "notice": "Bundle wrapper that allows users to lock bundles so they can be used for loans.",
    "version": 1
  },
  "storageLayout": {
    "storage": [
      {
        "astId": 3606,
        "contract": "contracts/ImmutableBundle.sol:ImmutableBundle",
        "label": "_name",
        "offset": 0,
        "slot": "0",
        "type": "t_string_storage"
      },
      {
        "astId": 3608,
        "contract": "contracts/ImmutableBundle.sol:ImmutableBundle",
        "label": "_symbol",
        "offset": 0,
        "slot": "1",
        "type": "t_string_storage"
      },
      {
        "astId": 3612,
        "contract": "contracts/ImmutableBundle.sol:ImmutableBundle",
        "label": "_owners",
        "offset": 0,
        "slot": "2",
        "type": "t_mapping(t_uint256,t_address)"
      },
      {
        "astId": 3616,
        "contract": "contracts/ImmutableBundle.sol:ImmutableBundle",
        "label": "_balances",
        "offset": 0,
        "slot": "3",
        "type": "t_mapping(t_address,t_uint256)"
      },
      {
        "astId": 3620,
        "contract": "contracts/ImmutableBundle.sol:ImmutableBundle",
        "label": "_tokenApprovals",
        "offset": 0,
        "slot": "4",
        "type": "t_mapping(t_uint256,t_address)"
      },
      {
        "astId": 3626,
        "contract": "contracts/ImmutableBundle.sol:ImmutableBundle",
        "label": "_operatorApprovals",
        "offset": 0,
        "slot": "5",
        "type": "t_mapping(t_address,t_mapping(t_address,t_bool))"
      },
      {
        "astId": 4577,
        "contract": "contracts/ImmutableBundle.sol:ImmutableBundle",
        "label": "_ownedTokens",
        "offset": 0,
        "slot": "6",
        "type": "t_mapping(t_address,t_mapping(t_uint256,t_uint256))"
      },
      {
        "astId": 4581,
        "contract": "contracts/ImmutableBundle.sol:ImmutableBundle",
        "label": "_ownedTokensIndex",
        "offset": 0,
        "slot": "7",
        "type": "t_mapping(t_uint256,t_uint256)"
      },
      {
        "astId": 4584,
        "contract": "contracts/ImmutableBundle.sol:ImmutableBundle",
        "label": "_allTokens",
        "offset": 0,
        "slot": "8",
        "type": "t_array(t_uint256)dyn_storage"
      },
      {
        "astId": 4588,
        "contract": "contracts/ImmutableBundle.sol:ImmutableBundle",
        "label": "_allTokensIndex",
        "offset": 0,
        "slot": "9",
        "type": "t_mapping(t_uint256,t_uint256)"
      },
      {
        "astId": 12135,
        "contract": "contracts/ImmutableBundle.sol:ImmutableBundle",
        "label": "_owner",
        "offset": 0,
        "slot": "10",
        "type": "t_address"
      },
      {
        "astId": 12137,
        "contract": "contracts/ImmutableBundle.sol:ImmutableBundle",
        "label": "_ownerCandidate",
        "offset": 0,
        "slot": "11",
        "type": "t_address"
      },
      {
        "astId": 805,
        "contract": "contracts/ImmutableBundle.sol:ImmutableBundle",
        "label": "_paused",
        "offset": 20,
        "slot": "11",
        "type": "t_bool"
      },
      {
        "astId": 7896,
        "contract": "contracts/ImmutableBundle.sol:ImmutableBundle",
        "label": "tokenCount",
        "offset": 0,
        "slot": "12",
        "type": "t_uint256"
      },
      {
        "astId": 7906,
        "contract": "contracts/ImmutableBundle.sol:ImmutableBundle",
        "label": "baseURI",
        "offset": 0,
        "slot": "13",
        "type": "t_string_storage"
      },
      {
        "astId": 7910,
        "contract": "contracts/ImmutableBundle.sol:ImmutableBundle",
        "label": "bundleOfImmutable",
        "offset": 0,
        "slot": "14",
        "type": "t_mapping(t_uint256,t_uint256)"
      },
      {
        "astId": 7914,
        "contract": "contracts/ImmutableBundle.sol:ImmutableBundle",
        "label": "immutableOfBundle",
        "offset": 0,
        "slot": "15",
        "type": "t_mapping(t_uint256,t_uint256)"
      },
      {
        "astId": 7918,
        "contract": "contracts/ImmutableBundle.sol:ImmutableBundle",
        "label": "personalBundlerOfImmutable",
        "offset": 0,
        "slot": "16",
        "type": "t_mapping(t_uint256,t_address)"
      },
      {
        "astId": 7922,
        "contract": "contracts/ImmutableBundle.sol:ImmutableBundle",
        "label": "immutableOfPersonalBundler",
        "offset": 0,
        "slot": "17",
        "type": "t_mapping(t_address,t_uint256)"
      }
    ],
    "types": {
      "t_address": {
        "encoding": "inplace",
        "label": "address",
        "numberOfBytes": "20"
      },
      "t_array(t_uint256)dyn_storage": {
        "base": "t_uint256",
        "encoding": "dynamic_array",
        "label": "uint256[]",
        "numberOfBytes": "32"
      },
      "t_bool": {
        "encoding": "inplace",
        "label": "bool",
        "numberOfBytes": "1"
      },
      "t_mapping(t_address,t_bool)": {
        "encoding": "mapping",
        "key": "t_address",
        "label": "mapping(address => bool)",
        "numberOfBytes": "32",
        "value": "t_bool"
      },
      "t_mapping(t_address,t_mapping(t_address,t_bool))": {
        "encoding": "mapping",
        "key": "t_address",
        "label": "mapping(address => mapping(address => bool))",
        "numberOfBytes": "32",
        "value": "t_mapping(t_address,t_bool)"
      },
      "t_mapping(t_address,t_mapping(t_uint256,t_uint256))": {
        "encoding": "mapping",
        "key": "t_address",
        "label": "mapping(address => mapping(uint256 => uint256))",
        "numberOfBytes": "32",
        "value": "t_mapping(t_uint256,t_uint256)"
      },
      "t_mapping(t_address,t_uint256)": {
        "encoding": "mapping",
        "key": "t_address",
        "label": "mapping(address => uint256)",
        "numberOfBytes": "32",
        "value": "t_uint256"
      },
      "t_mapping(t_uint256,t_address)": {
        "encoding": "mapping",
        "key": "t_uint256",
        "label": "mapping(uint256 => address)",
        "numberOfBytes": "32",
        "value": "t_address"
      },
      "t_mapping(t_uint256,t_uint256)": {
        "encoding": "mapping",
        "key": "t_uint256",
        "label": "mapping(uint256 => uint256)",
        "numberOfBytes": "32",
        "value": "t_uint256"
      },
      "t_string_storage": {
        "encoding": "bytes",
        "label": "string",
        "numberOfBytes": "32"
      },
      "t_uint256": {
        "encoding": "inplace",
        "label": "uint256",
        "numberOfBytes": "32"
      }
    }
  }
}