{
  "address": "0xEF0c4BE966a94623224dBc5aFfdeB6a98804C9E8",
  "abi": [
    {
      "inputs": [
        {
          "internalType": "address",
          "name": "_admin",
          "type": "address"
        },
        {
          "internalType": "string",
          "name": "_name",
          "type": "string"
        },
        {
          "internalType": "string",
          "name": "_symbol",
          "type": "string"
        },
        {
          "internalType": "string",
          "name": "_customBaseURI",
          "type": "string"
        },
        {
          "internalType": "address",
          "name": "_permittedNfts",
          "type": "address"
        },
        {
          "internalType": "address",
          "name": "_airdropFlashLoan",
          "type": "address"
        }
      ],
      "stateMutability": "nonpayable",
      "type": "constructor"
    },
    {
      "anonymous": false,
      "inputs": [
        {
          "indexed": true,
          "internalType": "uint256",
          "name": "_tokenId",
          "type": "uint256"
        },
        {
          "components": [
            {
              "internalType": "address",
              "name": "tokenContract",
              "type": "address"
            },
            {
              "internalType": "uint256[]",
              "name": "ids",
              "type": "uint256[]"
            },
            {
              "internalType": "bool",
              "name": "safeTransferable",
              "type": "bool"
            }
          ],
          "indexed": false,
          "internalType": "struct IBundleBuilder.BundleElementERC721[]",
          "name": "_bundleElements",
          "type": "tuple[]"
        }
      ],
      "name": "AddBundleElements",
      "type": "event"
    },
    {
      "anonymous": false,
      "inputs": [
        {
          "indexed": true,
          "internalType": "address",
          "name": "owner",
          "type": "address"
        },
        {
          "indexed": true,
          "internalType": "address",
          "name": "approved",
          "type": "address"
        },
        {
          "indexed": true,
          "internalType": "uint256",
          "name": "tokenId",
          "type": "uint256"
        }
      ],
      "name": "Approval",
      "type": "event"
    },
    {
      "anonymous": false,
      "inputs": [
        {
          "indexed": true,
          "internalType": "address",
          "name": "owner",
          "type": "address"
        },
        {
          "indexed": true,
          "internalType": "address",
          "name": "operator",
          "type": "address"
        },
        {
          "indexed": false,
          "internalType": "bool",
          "name": "approved",
          "type": "bool"
        }
      ],
      "name": "ApprovalForAll",
      "type": "event"
    },
    {
      "anonymous": false,
      "inputs": [
        {
          "indexed": true,
          "internalType": "address",
          "name": "previousOwner",
          "type": "address"
        },
        {
          "indexed": true,
          "internalType": "address",
          "name": "newOwner",
          "type": "address"
        }
      ],
      "name": "OwnershipTransferred",
      "type": "event"
    },
    {
      "anonymous": false,
      "inputs": [
        {
          "indexed": true,
          "internalType": "address",
          "name": "_from",
          "type": "address"
        },
        {
          "indexed": true,
          "internalType": "uint256",
          "name": "_tokenId",
          "type": "uint256"
        },
        {
          "indexed": true,
          "internalType": "address",
          "name": "_childContract",
          "type": "address"
        },
        {
          "indexed": false,
          "internalType": "uint256",
          "name": "_childTokenId",
          "type": "uint256"
        }
      ],
      "name": "ReceivedChild",
      "type": "event"
    },
    {
      "anonymous": false,
      "inputs": [
        {
          "indexed": true,
          "internalType": "uint256",
          "name": "_tokenId",
          "type": "uint256"
        },
        {
          "components": [
            {
              "internalType": "address",
              "name": "tokenContract",
              "type": "address"
            },
            {
              "internalType": "uint256[]",
              "name": "ids",
              "type": "uint256[]"
            },
            {
              "internalType": "bool",
              "name": "safeTransferable",
              "type": "bool"
            }
          ],
          "indexed": false,
          "internalType": "struct IBundleBuilder.BundleElementERC721[]",
          "name": "_bundleElements",
          "type": "tuple[]"
        }
      ],
      "name": "RemoveBundleElements",
      "type": "event"
    },
    {
      "anonymous": false,
      "inputs": [
        {
          "indexed": true,
          "internalType": "address",
          "name": "from",
          "type": "address"
        },
        {
          "indexed": true,
          "internalType": "address",
          "name": "to",
          "type": "address"
        },
        {
          "indexed": true,
          "internalType": "uint256",
          "name": "tokenId",
          "type": "uint256"
        }
      ],
      "name": "Transfer",
      "type": "event"
    },
    {
      "anonymous": false,
      "inputs": [
        {
          "indexed": true,
          "internalType": "uint256",
          "name": "tokenId",
          "type": "uint256"
        },
        {
          "indexed": true,
          "internalType": "address",
          "name": "_to",
          "type": "address"
        },
        {
          "indexed": true,
          "internalType": "address",
          "name": "_childContract",
          "type": "address"
        },
        {
          "indexed": false,
          "internalType": "uint256",
          "name": "_childTokenId",
          "type": "uint256"
        }
      ],
      "name": "TransferChild",
      "type": "event"
    },
    {
      "inputs": [],
      "name": "ERC998_MAGIC_VALUE",
      "outputs": [
        {
          "internalType": "bytes32",
          "name": "",
          "type": "bytes32"
        }
      ],
      "stateMutability": "view",
      "type": "function"
    },
    {
      "inputs": [],
      "name": "acceptTransferOwnership",
      "outputs": [],
      "stateMutability": "nonpayable",
      "type": "function"
    },
    {
      "inputs": [
        {
          "internalType": "uint256",
          "name": "_tokenId",
          "type": "uint256"
        },
        {
          "components": [
            {
              "internalType": "address",
              "name": "tokenContract",
              "type": "address"
            },
            {
              "internalType": "uint256[]",
              "name": "ids",
              "type": "uint256[]"
            },
            {
              "internalType": "bool",
              "name": "safeTransferable",
              "type": "bool"
            }
          ],
          "internalType": "struct IBundleBuilder.BundleElementERC721[]",
          "name": "_toAdd",
          "type": "tuple[]"
        },
        {
          "components": [
            {
              "internalType": "address",
              "name": "tokenContract",
              "type": "address"
            },
            {
              "internalType": "uint256[]",
              "name": "ids",
              "type": "uint256[]"
            },
            {
              "internalType": "bool",
              "name": "safeTransferable",
              "type": "bool"
            }
          ],
          "internalType": "struct IBundleBuilder.BundleElementERC721[]",
          "name": "_toRemove",
          "type": "tuple[]"
        }
      ],
      "name": "addAndRemoveBundleElements",
      "outputs": [],
      "stateMutability": "nonpayable",
      "type": "function"
    },
    {
      "inputs": [
        {
          "internalType": "uint256",
          "name": "_tokenId",
          "type": "uint256"
        },
        {
          "components": [
            {
              "internalType": "address",
              "name": "tokenContract",
              "type": "address"
            },
            {
              "internalType": "uint256[]",
              "name": "ids",
              "type": "uint256[]"
            },
            {
              "internalType": "bool",
              "name": "safeTransferable",
              "type": "bool"
            }
          ],
          "internalType": "struct IBundleBuilder.BundleElementERC721[]",
          "name": "_bundleElements",
          "type": "tuple[]"
        }
      ],
      "name": "addBundleElements",
      "outputs": [],
      "stateMutability": "nonpayable",
      "type": "function"
    },
    {
      "inputs": [],
      "name": "airdropFlashLoan",
      "outputs": [
        {
          "internalType": "address",
          "name": "",
          "type": "address"
        }
      ],
      "stateMutability": "view",
      "type": "function"
    },
    {
      "inputs": [
        {
          "internalType": "address",
          "name": "to",
          "type": "address"
        },
        {
          "internalType": "uint256",
          "name": "tokenId",
          "type": "uint256"
        }
      ],
      "name": "approve",
      "outputs": [],
      "stateMutability": "nonpayable",
      "type": "function"
    },
    {
      "inputs": [
        {
          "internalType": "address",
          "name": "owner",
          "type": "address"
        }
      ],
      "name": "balanceOf",
      "outputs": [
        {
          "internalType": "uint256",
          "name": "",
          "type": "uint256"
        }
      ],
      "stateMutability": "view",
      "type": "function"
    },
    {
      "inputs": [],
      "name": "baseURI",
      "outputs": [
        {
          "internalType": "string",
          "name": "",
          "type": "string"
        }
      ],
      "stateMutability": "view",
      "type": "function"
    },
    {
      "inputs": [
        {
          "components": [
            {
              "internalType": "address",
              "name": "tokenContract",
              "type": "address"
            },
            {
              "internalType": "uint256[]",
              "name": "ids",
              "type": "uint256[]"
            },
            {
              "internalType": "bool",
              "name": "safeTransferable",
              "type": "bool"
            }
          ],
          "internalType": "struct IBundleBuilder.BundleElementERC721[]",
          "name": "_bundleElements",
          "type": "tuple[]"
        }
      ],
      "name": "buildBundle",
      "outputs": [
        {
          "internalType": "uint256",
          "name": "",
          "type": "uint256"
        }
      ],
      "stateMutability": "nonpayable",
      "type": "function"
    },
    {
      "inputs": [],
      "name": "cancelTransferOwnership",
      "outputs": [],
      "stateMutability": "nonpayable",
      "type": "function"
    },
    {
      "inputs": [
        {
          "internalType": "uint256",
          "name": "_tokenId",
          "type": "uint256"
        },
        {
          "internalType": "uint256",
          "name": "_index",
          "type": "uint256"
        }
      ],
      "name": "childContractByIndex",
      "outputs": [
        {
          "internalType": "address",
          "name": "childContract",
          "type": "address"
        }
      ],
      "stateMutability": "view",
      "type": "function"
    },
    {
      "inputs": [
        {
          "internalType": "address",
          "name": "_childContract",
          "type": "address"
        },
        {
          "internalType": "uint256",
          "name": "_childTokenId",
          "type": "uint256"
        }
      ],
      "name": "childExists",
      "outputs": [
        {
          "internalType": "bool",
          "name": "",
          "type": "bool"
        }
      ],
      "stateMutability": "view",
      "type": "function"
    },
    {
      "inputs": [
        {
          "internalType": "uint256",
          "name": "_tokenId",
          "type": "uint256"
        },
        {
          "internalType": "address",
          "name": "_childContract",
          "type": "address"
        },
        {
          "internalType": "uint256",
          "name": "_index",
          "type": "uint256"
        }
      ],
      "name": "childTokenByIndex",
      "outputs": [
        {
          "internalType": "uint256",
          "name": "childTokenId",
          "type": "uint256"
        }
      ],
      "stateMutability": "view",
      "type": "function"
    },
    {
      "inputs": [
        {
          "internalType": "uint256",
          "name": "_tokenId",
          "type": "uint256"
        },
        {
          "internalType": "address",
          "name": "_receiver",
          "type": "address"
        }
      ],
      "name": "decomposeBundle",
      "outputs": [],
      "stateMutability": "nonpayable",
      "type": "function"
    },
    {
      "inputs": [
        {
          "internalType": "uint256",
          "name": "tokenId",
          "type": "uint256"
        }
      ],
      "name": "getApproved",
      "outputs": [
        {
          "internalType": "address",
          "name": "",
          "type": "address"
        }
      ],
      "stateMutability": "view",
      "type": "function"
    },
    {
      "inputs": [
        {
          "internalType": "address",
          "name": "_from",
          "type": "address"
        },
        {
          "internalType": "uint256",
          "name": "_tokenId",
          "type": "uint256"
        },
        {
          "internalType": "address",
          "name": "_childContract",
          "type": "address"
        },
        {
          "internalType": "uint256",
          "name": "_childTokenId",
          "type": "uint256"
        }
      ],
      "name": "getChild",
      "outputs": [],
      "stateMutability": "nonpayable",
      "type": "function"
    },
    {
      "inputs": [
        {
          "internalType": "address",
          "name": "owner",
          "type": "address"
        },
        {
          "internalType": "address",
          "name": "operator",
          "type": "address"
        }
      ],
      "name": "isApprovedForAll",
      "outputs": [
        {
          "internalType": "bool",
          "name": "",
          "type": "bool"
        }
      ],
      "stateMutability": "view",
      "type": "function"
    },
    {
      "inputs": [],
      "name": "name",
      "outputs": [
        {
          "internalType": "string",
          "name": "",
          "type": "string"
        }
      ],
      "stateMutability": "view",
      "type": "function"
    },
    {
      "inputs": [
        {
          "internalType": "address",
          "name": "",
          "type": "address"
        },
        {
          "internalType": "address",
          "name": "_from",
          "type": "address"
        },
        {
          "internalType": "uint256",
          "name": "_childTokenId",
          "type": "uint256"
        },
        {
          "internalType": "bytes",
          "name": "_data",
          "type": "bytes"
        }
      ],
      "name": "onERC721Received",
      "outputs": [
        {
          "internalType": "bytes4",
          "name": "",
          "type": "bytes4"
        }
      ],
      "stateMutability": "nonpayable",
      "type": "function"
    },
    {
      "inputs": [],
      "name": "owner",
      "outputs": [
        {
          "internalType": "address",
          "name": "",
          "type": "address"
        }
      ],
      "stateMutability": "view",
      "type": "function"
    },
    {
      "inputs": [
        {
          "internalType": "uint256",
          "name": "tokenId",
          "type": "uint256"
        }
      ],
      "name": "ownerOf",
      "outputs": [
        {
          "internalType": "address",
          "name": "",
          "type": "address"
        }
      ],
      "stateMutability": "view",
      "type": "function"
    },
    {
      "inputs": [
        {
          "internalType": "address",
          "name": "_childContract",
          "type": "address"
        },
        {
          "internalType": "uint256",
          "name": "_childTokenId",
          "type": "uint256"
        }
      ],
      "name": "ownerOfChild",
      "outputs": [
        {
          "internalType": "bytes32",
          "name": "parentTokenOwner",
          "type": "bytes32"
        },
        {
          "internalType": "uint256",
          "name": "parentTokenId",
          "type": "uint256"
        }
      ],
      "stateMutability": "view",
      "type": "function"
    },
    {
      "inputs": [
        {
          "internalType": "address",
          "name": "_asset",
          "type": "address"
        }
      ],
      "name": "permittedAsset",
      "outputs": [
        {
          "internalType": "bool",
          "name": "",
          "type": "bool"
        }
      ],
      "stateMutability": "view",
      "type": "function"
    },
    {
      "inputs": [],
      "name": "permittedNfts",
      "outputs": [
        {
          "internalType": "address",
          "name": "",
          "type": "address"
        }
      ],
      "stateMutability": "view",
      "type": "function"
    },
    {
      "inputs": [
        {
          "internalType": "address",
          "name": "_nftContract",
          "type": "address"
        },
        {
          "internalType": "uint256",
          "name": "_nftId",
          "type": "uint256"
        },
        {
          "internalType": "address",
          "name": "_target",
          "type": "address"
        },
        {
          "internalType": "bytes",
          "name": "_data",
          "type": "bytes"
        },
        {
          "internalType": "address",
          "name": "_nftAirdrop",
          "type": "address"
        },
        {
          "internalType": "uint256",
          "name": "_nftAirdropId",
          "type": "uint256"
        },
        {
          "internalType": "bool",
          "name": "_is1155",
          "type": "bool"
        },
        {
          "internalType": "uint256",
          "name": "_nftAirdropAmount",
          "type": "uint256"
        },
        {
          "internalType": "address",
          "name": "_beneficiary",
          "type": "address"
        }
      ],
      "name": "pullAirdrop",
      "outputs": [],
      "stateMutability": "nonpayable",
      "type": "function"
    },
    {
      "inputs": [],
      "name": "rejectTransferOwnership",
      "outputs": [],
      "stateMutability": "nonpayable",
      "type": "function"
    },
    {
      "inputs": [
        {
          "internalType": "uint256",
          "name": "_tokenId",
          "type": "uint256"
        },
        {
          "components": [
            {
              "internalType": "address",
              "name": "tokenContract",
              "type": "address"
            },
            {
              "internalType": "uint256[]",
              "name": "ids",
              "type": "uint256[]"
            },
            {
              "internalType": "bool",
              "name": "safeTransferable",
              "type": "bool"
            }
          ],
          "internalType": "struct IBundleBuilder.BundleElementERC721[]",
          "name": "_bundleElements",
          "type": "tuple[]"
        }
      ],
      "name": "removeBundleElements",
      "outputs": [],
      "stateMutability": "nonpayable",
      "type": "function"
    },
    {
      "inputs": [
        {
          "internalType": "address",
          "name": "_newOwnerCandidate",
          "type": "address"
        }
      ],
      "name": "requestTransferOwnership",
      "outputs": [],
      "stateMutability": "nonpayable",
      "type": "function"
    },
    {
      "inputs": [
        {
          "internalType": "address",
          "name": "_tokenAddress",
          "type": "address"
        },
        {
          "internalType": "address",
          "name": "_receiver",
          "type": "address"
        }
      ],
      "name": "rescueERC20",
      "outputs": [],
      "stateMutability": "nonpayable",
      "type": "function"
    },
    {
      "inputs": [
        {
          "internalType": "address",
          "name": "_tokenAddress",
          "type": "address"
        },
        {
          "internalType": "uint256",
          "name": "_tokenId",
          "type": "uint256"
        },
        {
          "internalType": "address",
          "name": "_receiver",
          "type": "address"
        }
      ],
      "name": "rescueERC721",
      "outputs": [],
      "stateMutability": "nonpayable",
      "type": "function"
    },
    {
      "inputs": [
        {
          "internalType": "uint256",
          "name": "_tokenId",
          "type": "uint256"
        }
      ],
      "name": "rootOwnerOf",
      "outputs": [
        {
          "internalType": "bytes32",
          "name": "rootOwner",
          "type": "bytes32"
        }
      ],
      "stateMutability": "view",
      "type": "function"
    },
    {
      "inputs": [
        {
          "internalType": "address",
          "name": "_childContract",
          "type": "address"
        },
        {
          "internalType": "uint256",
          "name": "_childTokenId",
          "type": "uint256"
        }
      ],
      "name": "rootOwnerOfChild",
      "outputs": [
        {
          "internalType": "bytes32",
          "name": "rootOwner",
          "type": "bytes32"
        }
      ],
      "stateMutability": "view",
      "type": "function"
    },
    {
      "inputs": [
        {
          "internalType": "address",
          "name": "_to",
          "type": "address"
        }
      ],
      "name": "safeMint",
      "outputs": [
        {
          "internalType": "uint256",
          "name": "",
          "type": "uint256"
        }
      ],
      "stateMutability": "nonpayable",
      "type": "function"
    },
    {
      "inputs": [
        {
          "internalType": "uint256",
          "name": "_fromTokenId",
          "type": "uint256"
        },
        {
          "internalType": "address",
          "name": "_to",
          "type": "address"
        },
        {
          "internalType": "address",
          "name": "_childContract",
          "type": "address"
        },
        {
          "internalType": "uint256",
          "name": "_childTokenId",
          "type": "uint256"
        }
      ],
      "name": "safeTransferChild",
      "outputs": [],
      "stateMutability": "nonpayable",
      "type": "function"
    },
    {
      "inputs": [
        {
          "internalType": "uint256",
          "name": "_fromTokenId",
          "type": "uint256"
        },
        {
          "internalType": "address",
          "name": "_to",
          "type": "address"
        },
        {
          "internalType": "address",
          "name": "_childContract",
          "type": "address"
        },
        {
          "internalType": "uint256",
          "name": "_childTokenId",
          "type": "uint256"
        },
        {
          "internalType": "bytes",
          "name": "_data",
          "type": "bytes"
        }
      ],
      "name": "safeTransferChild",
      "outputs": [],
      "stateMutability": "nonpayable",
      "type": "function"
    },
    {
      "inputs": [
        {
          "internalType": "address",
          "name": "from",
          "type": "address"
        },
        {
          "internalType": "address",
          "name": "to",
          "type": "address"
        },
        {
          "internalType": "uint256",
          "name": "tokenId",
          "type": "uint256"
        }
      ],
      "name": "safeTransferFrom",
      "outputs": [],
      "stateMutability": "nonpayable",
      "type": "function"
    },
    {
      "inputs": [
        {
          "internalType": "address",
          "name": "from",
          "type": "address"
        },
        {
          "internalType": "address",
          "name": "to",
          "type": "address"
        },
        {
          "internalType": "uint256",
          "name": "tokenId",
          "type": "uint256"
        },
        {
          "internalType": "bytes",
          "name": "_data",
          "type": "bytes"
        }
      ],
      "name": "safeTransferFrom",
      "outputs": [],
      "stateMutability": "nonpayable",
      "type": "function"
    },
    {
      "inputs": [
        {
          "internalType": "uint256",
          "name": "_tokenId",
          "type": "uint256"
        },
        {
          "internalType": "address",
          "name": "_personalBundler",
          "type": "address"
        }
      ],
      "name": "sendElementsToPersonalBundler",
      "outputs": [],
      "stateMutability": "nonpayable",
      "type": "function"
    },
    {
      "inputs": [
        {
          "internalType": "address",
          "name": "operator",
          "type": "address"
        },
        {
          "internalType": "bool",
          "name": "approved",
          "type": "bool"
        }
      ],
      "name": "setApprovalForAll",
      "outputs": [],
      "stateMutability": "nonpayable",
      "type": "function"
    },
    {
      "inputs": [
        {
          "internalType": "string",
          "name": "_customBaseURI",
          "type": "string"
        }
      ],
      "name": "setBaseURI",
      "outputs": [],
      "stateMutability": "nonpayable",
      "type": "function"
    },
    {
      "inputs": [
        {
          "internalType": "bytes4",
          "name": "_interfaceId",
          "type": "bytes4"
        }
      ],
      "name": "supportsInterface",
      "outputs": [
        {
          "internalType": "bool",
          "name": "",
          "type": "bool"
        }
      ],
      "stateMutability": "view",
      "type": "function"
    },
    {
      "inputs": [],
      "name": "symbol",
      "outputs": [
        {
          "internalType": "string",
          "name": "",
          "type": "string"
        }
      ],
      "stateMutability": "view",
      "type": "function"
    },
    {
      "inputs": [
        {
          "internalType": "uint256",
          "name": "index",
          "type": "uint256"
        }
      ],
      "name": "tokenByIndex",
      "outputs": [
        {
          "internalType": "uint256",
          "name": "",
          "type": "uint256"
        }
      ],
      "stateMutability": "view",
      "type": "function"
    },
    {
      "inputs": [],
      "name": "tokenCount",
      "outputs": [
        {
          "internalType": "uint256",
          "name": "",
          "type": "uint256"
        }
      ],
      "stateMutability": "view",
      "type": "function"
    },
    {
      "inputs": [
        {
          "internalType": "address",
          "name": "owner",
          "type": "address"
        },
        {
          "internalType": "uint256",
          "name": "index",
          "type": "uint256"
        }
      ],
      "name": "tokenOfOwnerByIndex",
      "outputs": [
        {
          "internalType": "uint256",
          "name": "",
          "type": "uint256"
        }
      ],
      "stateMutability": "view",
      "type": "function"
    },
    {
      "inputs": [
        {
          "internalType": "uint256",
          "name": "tokenId",
          "type": "uint256"
        }
      ],
      "name": "tokenURI",
      "outputs": [
        {
          "internalType": "string",
          "name": "",
          "type": "string"
        }
      ],
      "stateMutability": "view",
      "type": "function"
    },
    {
      "inputs": [
        {
          "internalType": "uint256",
          "name": "_tokenId",
          "type": "uint256"
        }
      ],
      "name": "totalChildContracts",
      "outputs": [
        {
          "internalType": "uint256",
          "name": "",
          "type": "uint256"
        }
      ],
      "stateMutability": "view",
      "type": "function"
    },
    {
      "inputs": [
        {
          "internalType": "uint256",
          "name": "_tokenId",
          "type": "uint256"
        },
        {
          "internalType": "address",
          "name": "_childContract",
          "type": "address"
        }
      ],
      "name": "totalChildTokens",
      "outputs": [
        {
          "internalType": "uint256",
          "name": "",
          "type": "uint256"
        }
      ],
      "stateMutability": "view",
      "type": "function"
    },
    {
      "inputs": [],
      "name": "totalSupply",
      "outputs": [
        {
          "internalType": "uint256",
          "name": "",
          "type": "uint256"
        }
      ],
      "stateMutability": "view",
      "type": "function"
    },
    {
      "inputs": [
        {
          "internalType": "uint256",
          "name": "_fromTokenId",
          "type": "uint256"
        },
        {
          "internalType": "address",
          "name": "_to",
          "type": "address"
        },
        {
          "internalType": "address",
          "name": "_childContract",
          "type": "address"
        },
        {
          "internalType": "uint256",
          "name": "_childTokenId",
          "type": "uint256"
        }
      ],
      "name": "transferChild",
      "outputs": [],
      "stateMutability": "nonpayable",
      "type": "function"
    },
    {
      "inputs": [
        {
          "internalType": "uint256",
          "name": "",
          "type": "uint256"
        },
        {
          "internalType": "address",
          "name": "",
          "type": "address"
        },
        {
          "internalType": "uint256",
          "name": "",
          "type": "uint256"
        },
        {
          "internalType": "address",
          "name": "",
          "type": "address"
        },
        {
          "internalType": "uint256",
          "name": "",
          "type": "uint256"
        },
        {
          "internalType": "bytes",
          "name": "",
          "type": "bytes"
        }
      ],
      "name": "transferChildToParent",
      "outputs": [],
      "stateMutability": "nonpayable",
      "type": "function"
    },
    {
      "inputs": [
        {
          "internalType": "address",
          "name": "from",
          "type": "address"
        },
        {
          "internalType": "address",
          "name": "to",
          "type": "address"
        },
        {
          "internalType": "uint256",
          "name": "tokenId",
          "type": "uint256"
        }
      ],
      "name": "transferFrom",
      "outputs": [],
      "stateMutability": "nonpayable",
      "type": "function"
    }
  ],
  "transactionHash": "0xfe5cf6c1fcd046c811f3131d776edfa1fa85e5feecce83b31f78d36993f0c16a",
  "args": [
    "0x42e0911810C50FF07B12305365495aeb0b2b4f93",
    "NFTFi Bundler",
    "BNFI",
    "https://metadata.nftfi.com/bundles/v1/shared/",
    "0x78A911794A51A65cA9be8F94032331F3e8b4F1C2",
    "0xE3608d172168a1e6c2dc54777554f2FB3a72ac72"
  ],
  "solcInputHash": "4d2fe29bb9bcc7b729a2a79c750939bf",
  "bytecode": "0x60c06040526000600b553480156200001657600080fd5b506040516200525a3803806200525a833981016040819052620000399162000360565b85858560006200004a8382620004b8565b506001620000598282620004b8565b50506001600a55506200006c8162000097565b506001600160a01b03808316608052811660a0526200008b83620000e9565b50505050505062000681565b600f80546001600160a01b038381166001600160a01b0319831681179093556040519116919082907f8be0079c531659141344cd1fd0a4f28419497f9722a3daafe3b4186f6b6457e090600090a35050565b600081511162000109576040518060200160405280600081525062000143565b8062000120466200015660201b620021d01760201c565b6040516020016200013392919062000584565b6040516020818303038152906040525b601190620001529082620004b8565b5050565b6060816000036200017e5750506040805180820190915260018152600360fc1b602082015290565b8160005b8115620001ae57806200019581620005d9565b9150620001a69050600a836200060b565b915062000182565b6000816001600160401b03811115620001cb57620001cb62000293565b6040519080825280601f01601f191660200182016040528015620001f6576020820181803683370190505b5090505b84156200026e576200020e60018362000622565b91506200021d600a866200063e565b6200022a90603062000655565b60f81b8183815181106200024257620002426200066b565b60200101906001600160f81b031916908160001a90535062000266600a866200060b565b9450620001fa565b949350505050565b80516001600160a01b03811681146200028e57600080fd5b919050565b634e487b7160e01b600052604160045260246000fd5b60005b83811015620002c6578181015183820152602001620002ac565b50506000910152565b600082601f830112620002e157600080fd5b81516001600160401b0380821115620002fe57620002fe62000293565b604051601f8301601f19908116603f0116810190828211818310171562000329576200032962000293565b816040528381528660208588010111156200034357600080fd5b62000356846020830160208901620002a9565b9695505050505050565b60008060008060008060c087890312156200037a57600080fd5b620003858762000276565b60208801519096506001600160401b0380821115620003a357600080fd5b620003b18a838b01620002cf565b96506040890151915080821115620003c857600080fd5b620003d68a838b01620002cf565b95506060890151915080821115620003ed57600080fd5b50620003fc89828a01620002cf565b9350506200040d6080880162000276565b91506200041d60a0880162000276565b90509295509295509295565b600181811c908216806200043e57607f821691505b6020821081036200045f57634e487b7160e01b600052602260045260246000fd5b50919050565b601f821115620004b357600081815260208120601f850160051c810160208610156200048e5750805b601f850160051c820191505b81811015620004af578281556001016200049a565b5050505b505050565b81516001600160401b03811115620004d457620004d462000293565b620004ec81620004e5845462000429565b8462000465565b602080601f8311600181146200052457600084156200050b5750858301515b600019600386901b1c1916600185901b178555620004af565b600085815260208120601f198616915b82811015620005555788860151825594840194600190910190840162000534565b5085821015620005745787850151600019600388901b60f8161c191681555b5050505050600190811b01905550565b6000835162000598818460208801620002a9565b835190830190620005ae818360208801620002a9565b602f60f81b9101908152600101949350505050565b634e487b7160e01b600052601160045260246000fd5b600060018201620005ee57620005ee620005c3565b5060010190565b634e487b7160e01b600052601260045260246000fd5b6000826200061d576200061d620005f5565b500490565b81810381811115620006385762000638620005c3565b92915050565b600082620006505762000650620005f5565b500690565b80820180821115620006385762000638620005c3565b634e487b7160e01b600052603260045260246000fd5b60805160a051614b90620006ca600039600081816105b00152818161129101528181611316015281816113a201526123a70152600081816103160152610fef0152614b906000f3fe608060405234801561001057600080fd5b506004361061030c5760003560e01c80636c0360eb1161019d578063a22cb465116100e9578063bff86757116100a2578063e985e9c51161007c578063e985e9c5146106f3578063eadb80b814610706578063ed81cdda1461072e578063fa3e47051461074157600080fd5b8063bff86757146106ba578063c87b56dd146106cd578063df749086146106e057600080fd5b8063a22cb46514610648578063a57a63b21461065b578063a7103afa1461066e578063b88d4fde14610681578063ba6b5f9614610694578063bef44f18146106a757600080fd5b80638da5cb5b1161015657806392fede001161013057806392fede001461061c57806395d89b41146106245780639d6fa6181461062c5780639f181b5e1461063f57600080fd5b80638da5cb5b146105e55780638da7d0b5146105f65780638daf2d611461060957600080fd5b80636c0360eb1461057557806370a082311461057d5780637b371107146105905780637eef089614610598578063804f3fb2146105ab5780638d81f51e146105d257600080fd5b80632f745c591161025c5780634f6ccce7116102155780635d799f87116101ef5780635d799f87146105345780635f992fdd146105475780636352211e1461054f578063676a196a1461056257600080fd5b80634f6ccce7146104d657806355f804b3146104e95780635680a3ad146104fc57600080fd5b80632f745c591461046457806334854fda1461047757806335b21ceb1461048a57806340d097c31461049d57806342842e0e146104b057806343a61a8e146104c357600080fd5b80630d5a621b116102c957806318160ddd116102a357806318160ddd146104285780631d98f3c51461043057806322ab2e6f1461044357806323b872dd1461045157600080fd5b80630d5a621b146103c8578063150b7a02146103db578063160b01a11461040757600080fd5b806301cf69021461031157806301ffc9a71461035557806306fdde0314610378578063081812fc1461038d57806308937f62146103a0578063095ea7b3146103b5575b600080fd5b6103387f000000000000000000000000000000000000000000000000000000000000000081565b6040516001600160a01b0390911681526020015b60405180910390f35b610368610363366004613c8c565b610754565b604051901515815260200161034c565b61038061079a565b60405161034c9190613cf9565b61033861039b366004613d0c565b61082c565b6103b36103ae366004613e1f565b6108c6565b005b6103b36103c3366004613e9c565b61090e565b6103386103d6366004613ec8565b610a23565b6103ee6103e9366004613f2b565b610a42565b6040516001600160e01b0319909116815260200161034c565b61041a610415366004613f9d565b610ac7565b60405190815260200161034c565b60085461041a565b6103b361043e366004613fd5565b610afb565b61041a63cd740db560e01b81565b6103b361045f36600461401d565b610bd7565b61041a610472366004613e9c565b610c08565b61041a6104853660046141cf565b610c9e565b61041a610498366004614203565b610cb6565b61041a6104ab366004614233565b610ce1565b6103b36104be36600461401d565b610d04565b61041a6104d1366004613d0c565b610d1f565b61041a6104e4366004613d0c565b610d2c565b6103b36104f7366004614250565b610dbf565b61036861050a366004613e9c565b6001600160a01b03919091166000908152600e602090815260408083209383529290522054151590565b6103b3610542366004614298565b610df5565b6103b3610eea565b61033861055d366004613d0c565b610f56565b610368610570366004614233565b610fcd565b610380611067565b61041a61058b366004614233565b6110f5565b6103b361117c565b6103b36105a63660046142c6565b6111eb565b6103387f000000000000000000000000000000000000000000000000000000000000000081565b6103b36105e0366004614385565b611421565b600f546001600160a01b0316610338565b61041a610604366004613d0c565b611522565b6103b3610617366004614203565b611539565b6103b36118cf565b6103806118f9565b6103b361063a366004614233565b611908565b61041a600b5481565b6103b36106563660046143fa565b6119b9565b6103b3610669366004614428565b611a7d565b6103b361067c366004614428565b611a8b565b6103b361068f36600461446e565b611a95565b6103b36106a23660046144d9565b611ac7565b6103b36106b5366004613fd5565b611bbf565b6103b36106c8366004614511565b611c31565b6103806106db366004613d0c565b611c45565b6103b36106ee366004614203565b611d1f565b610368610701366004614298565b611e85565b610719610714366004613e9c565b611eb3565b6040805192835260208301919091520161034c565b61041a61073c366004613e9c565b611f45565b6103b361074f36600461457d565b612025565b60006001600160e01b03198216630a85bd0160e11b148061078557506001600160e01b03198216639fa4074560e01b145b806107945750610794826122d0565b92915050565b6060600080546107a9906145bf565b80601f01602080910402602001604051908101604052809291908181526020018280546107d5906145bf565b80156108225780601f106107f757610100808354040283529160200191610822565b820191906000526020600020905b81548152906001019060200180831161080557829003601f168201915b5050505050905090565b6000818152600260205260408120546001600160a01b03166108aa5760405162461bcd60e51b815260206004820152602c60248201527f4552433732313a20617070726f76656420717565727920666f72206e6f6e657860448201526b34b9ba32b73a103a37b5b2b760a11b60648201526084015b60405180910390fd5b506000908152600460205260409020546001600160a01b031690565b60405162461bcd60e51b815260206004820152601d60248201527f424f54544f4d5f55505f4348494c445f4e4f545f535550504f5254454400000060448201526064016108a1565b600061091982610f56565b9050806001600160a01b0316836001600160a01b0316036109865760405162461bcd60e51b815260206004820152602160248201527f4552433732313a20617070726f76616c20746f2063757272656e74206f776e656044820152603960f91b60648201526084016108a1565b336001600160a01b03821614806109a257506109a28133611e85565b610a145760405162461bcd60e51b815260206004820152603860248201527f4552433732313a20617070726f76652063616c6c6572206973206e6f74206f7760448201527f6e6572206e6f7220617070726f76656420666f7220616c6c000000000000000060648201526084016108a1565b610a1e838361232b565b505050565b6000828152600c60205260408120610a3b9083612399565b9392505050565b60006002600a5403610a665760405162461bcd60e51b81526004016108a1906145f9565b6002600a81905550610ab085338686868080601f0160208091040260200160405190810160405280939291908181526020018383808284376000920191909152506123a592505050565b50630a85bd0160e11b6001600a5595945050505050565b6000838152600d602090815260408083206001600160a01b03861684529091528120610af39083612399565b949350505050565b6002600a5403610b1d5760405162461bcd60e51b81526004016108a1906145f9565b6002600a55610b2e848484846123eb565b604051632142170760e11b81526001600160a01b038316906342842e0e90610b5e90309087908690600401614630565b600060405180830381600087803b158015610b7857600080fd5b505af1158015610b8c573d6000803e3d6000fd5b50505050816001600160a01b0316836001600160a01b031685600080516020614b6483398151915284604051610bc491815260200190565b60405180910390a450506001600a555050565b610be1338261240a565b610bfd5760405162461bcd60e51b81526004016108a190614654565b610a1e8383836124d9565b6000610c13836110f5565b8210610c755760405162461bcd60e51b815260206004820152602b60248201527f455243373231456e756d657261626c653a206f776e657220696e646578206f7560448201526a74206f6620626f756e647360a81b60648201526084016108a1565b506001600160a01b03919091166000908152600660209081526040808320938352929052205490565b600080610caa33610ce1565b90506107948184612684565b6000828152600d602090815260408083206001600160a01b03851684529091528120610a3b90612969565b600080600b60008154610cf3906146bb565b918290555090506107948382612973565b610a1e83838360405180602001604052806000815250611a95565b6000610794600083611f45565b6000610d3760085490565b8210610d9a5760405162461bcd60e51b815260206004820152602c60248201527f455243373231456e756d657261626c653a20676c6f62616c20696e646578206f60448201526b7574206f6620626f756e647360a01b60648201526084016108a1565b60088281548110610dad57610dad6146d4565b90600052602060002001549050919050565b600f546001600160a01b03163314610de95760405162461bcd60e51b81526004016108a1906146ea565b610df28161298d565b50565b600f546001600160a01b03163314610e1f5760405162461bcd60e51b81526004016108a1906146ea565b6040516370a0823160e01b815230600482015282906000906001600160a01b038316906370a0823190602401602060405180830381865afa158015610e68573d6000803e3d6000fd5b505050506040513d601f19601f82011682018060405250810190610e8c919061471f565b905060008111610ed05760405162461bcd60e51b815260206004820152600f60248201526e1b9bc81d1bdad95b9cc81bdddb9959608a1b60448201526064016108a1565b610ee46001600160a01b03831684836129e3565b50505050565b6010546001600160a01b03163314610f445760405162461bcd60e51b815260206004820152601c60248201527f4f776e61626c653a206e6f74206f776e65722063616e6469646174650000000060448201526064016108a1565b601080546001600160a01b0319169055565b6000818152600260205260408120546001600160a01b0316806107945760405162461bcd60e51b815260206004820152602960248201527f4552433732313a206f776e657220717565727920666f72206e6f6e657869737460448201526832b73a103a37b5b2b760b91b60648201526084016108a1565b604051636651f11d60e01b81526001600160a01b0382811660048301526000917f000000000000000000000000000000000000000000000000000000000000000091839190831690636651f11d90602401602060405180830381865afa15801561103b573d6000803e3d6000fd5b505050506040513d601f19601f8201168201806040525081019061105f919061471f565b119392505050565b60118054611074906145bf565b80601f01602080910402602001604051908101604052809291908181526020018280546110a0906145bf565b80156110ed5780601f106110c2576101008083540402835291602001916110ed565b820191906000526020600020905b8154815290600101906020018083116110d057829003601f168201915b505050505081565b60006001600160a01b0382166111605760405162461bcd60e51b815260206004820152602a60248201527f4552433732313a2062616c616e636520717565727920666f7220746865207a65604482015269726f206164647265737360b01b60648201526084016108a1565b506001600160a01b031660009081526003602052604090205490565b6010546001600160a01b031633146111d65760405162461bcd60e51b815260206004820152601c60248201527f4f776e61626c653a206e6f74206f776e65722063616e6469646174650000000060448201526064016108a1565b601054610f44906001600160a01b0316612a35565b6001600160a01b038a166000908152600e602090815260408083208c84529091528120549061121982610d1f565b90506001600160a01b038116331461127f5760405162461bcd60e51b815260206004820152602360248201527f70756c6c41697264726f70206d73672e73656e646572206e6f7420656c696769604482015262626c6560e81b60648201526084016108a1565b8b6001600160a01b03166342842e0e307f00000000000000000000000000000000000000000000000000000000000000008e6040518463ffffffff1660e01b81526004016112cf93929190614630565b600060405180830381600087803b1580156112e957600080fd5b505af11580156112fd573d6000803e3d6000fd5b5050604051633f77844b60e11b81526001600160a01b037f0000000000000000000000000000000000000000000000000000000000000000169250637eef0896915061135f908f908f908f908f908f908f908f908f908f908f90600401614738565b600060405180830381600087803b15801561137957600080fd5b505af115801561138d573d6000803e3d6000fd5b505050508b6001600160a01b03166342842e0e7f0000000000000000000000000000000000000000000000000000000000000000308e6040518463ffffffff1660e01b81526004016113e193929190614630565b600060405180830381600087803b1580156113fb57600080fd5b505af115801561140f573d6000803e3d6000fd5b50505050505050505050505050505050565b6002600a54036114435760405162461bcd60e51b81526004016108a1906145f9565b6002600a55611454858585856123eb565b306001600160a01b0385160361147557611470338484846123a5565b611516565b604051635c46a7ef60e11b81526001600160a01b0384169063b88d4fde906114a79030908890879087906004016147ba565b600060405180830381600087803b1580156114c157600080fd5b505af11580156114d5573d6000803e3d6000fd5b50505050826001600160a01b0316846001600160a01b031686600080516020614b648339815191528560405161150d91815260200190565b60405180910390a45b50506001600a55505050565b6000818152600c6020526040812061079490612969565b61154281612a87565b61154b82612add565b306001600160a01b038216036115995760405162461bcd60e51b815260206004820152601360248201527231b0b73737ba1039b2b732103a379039b2b63360691b60448201526064016108a1565b6040516301ffc9a760e01b815263cde244d960e01b60048201526001600160a01b038216906301ffc9a790602401602060405180830381865afa1580156115e4573d6000803e3d6000fd5b505050506040513d601f19601f8201168201806040525081019061160891906147f7565b6116625760405162461bcd60e51b815260206004820152602560248201527f68617320746f20696d706c656d656e742049455243393938455243373231546f604482015264382237bbb760d91b60648201526084016108a1565b6040516331a9108f60e11b81526001600482018190529033906001600160a01b03841690636352211e90602401602060405180830381865afa1580156116ac573d6000803e3d6000fd5b505050506040513d601f19601f820116820180604052508101906116d09190614814565b6001600160a01b0316146117265760405162461bcd60e51b815260206004820181905260248201527f68617320746f206f776e20706572736f6e616c2062756e646c6520746f6b656e60448201526064016108a1565b6000838152600c6020526040812061173d90612969565b1115610a1e576000838152600c6020526040812061175b9082612399565b90505b6000848152600d602090815260408083206001600160a01b0385168452909152812061178990612969565b11156118c9576000848152600d602090815260408083206001600160a01b038516845290915281206117bb9082612399565b90506117c8858383612b7b565b816001600160a01b031663b88d4fde308684876040516020016117ed91815260200190565b6040516020818303038152906040526040518563ffffffff1660e01b815260040161181b94939291906147ba565b600060405180830381600087803b15801561183557600080fd5b505af1925050508015611846575060015b6118875760405162461bcd60e51b815260206004820152601260248201527137b7363c9039b0b332903a3930b739b332b960711b60448201526064016108a1565b816001600160a01b0316846001600160a01b031686600080516020614b64833981519152846040516118bb91815260200190565b60405180910390a45061175e565b50611726565b600f546001600160a01b03163314610f445760405162461bcd60e51b81526004016108a1906146ea565b6060600180546107a9906145bf565b600f546001600160a01b031633146119325760405162461bcd60e51b81526004016108a1906146ea565b6001600160a01b0381166119975760405162461bcd60e51b815260206004820152602660248201527f4f776e61626c653a206e6577206f776e657220697320746865207a65726f206160448201526564647265737360d01b60648201526084016108a1565b601080546001600160a01b0319166001600160a01b0392909216919091179055565b336001600160a01b03831603611a115760405162461bcd60e51b815260206004820152601960248201527f4552433732313a20617070726f766520746f2063616c6c65720000000000000060448201526064016108a1565b3360008181526005602090815260408083206001600160a01b03871680855290835292819020805460ff191686151590811790915590519081529192917f17307eab39ab6107e8899845ad3d59bd9653f200f220920489ca2b5937696c31910160405180910390a35050565b611a878282612684565b5050565b611a878282612c07565b611a9f338361240a565b611abb5760405162461bcd60e51b81526004016108a190614654565b610ee484848484612e1b565b6002600a5403611ae95760405162461bcd60e51b81526004016108a1906145f9565b6002600a556001600160a01b0384163314611b465760405162461bcd60e51b815260206004820152601a60248201527f5f66726f6d2073686f756c64206265206d73672e73656e64657200000000000060448201526064016108a1565b611b5284848484612e4e565b6040516323b872dd60e01b81526001600160a01b038316906323b872dd90611b8290879030908690600401614630565b600060405180830381600087803b158015611b9c57600080fd5b505af1158015611bb0573d6000803e3d6000fd5b50506001600a55505050505050565b6002600a5403611be15760405162461bcd60e51b81526004016108a1906145f9565b6002600a55611bf2848484846123eb565b611bfd838383612ea6565b816001600160a01b0316836001600160a01b031685600080516020614b6483398151915284604051610bc491815260200190565b611c3b8383612684565b610a1e8382612c07565b6000818152600260205260409020546060906001600160a01b0316611cc45760405162461bcd60e51b815260206004820152602f60248201527f4552433732314d657461646174613a2055524920717565727920666f72206e6f60448201526e3732bc34b9ba32b73a103a37b5b2b760891b60648201526084016108a1565b6000611cce612f67565b90506000815111611cee5760405180602001604052806000815250610a3b565b80611cf8846121d0565b604051602001611d09929190614831565b6040516020818303038152906040529392505050565b611d2881612a87565b611d3182612add565b6000828152600c60205260408120611d4890612969565b1115611a87576000828152600c60205260408120611d669082612399565b90505b6000838152600d602090815260408083206001600160a01b03851684529091528120611d9490612969565b1115611e7f576000838152600d602090815260408083206001600160a01b03851684529091528120611dc69082612399565b9050611dd3848383612b7b565b604051632142170760e11b81526001600160a01b038316906342842e0e90611e0390309087908690600401614630565b600060405180830381600087803b158015611e1d57600080fd5b505af1925050508015611e2e575060015b611e3d57611e3d838383612ea6565b816001600160a01b0316836001600160a01b031685600080516020614b6483398151915284604051611e7191815260200190565b60405180910390a450611d69565b50611d31565b6001600160a01b03918216600090815260056020908152604080832093909416825291909152205460ff1690565b6001600160a01b0382166000908152600e60209081526040808320848452909152812054808203611f265760405162461bcd60e51b815260206004820152601a60248201527f6368696c6420746f6b656e20646f6573206e6f7420657869737400000000000060448201526064016108a1565b6000611f3182610f56565b63cd740db560e01b17959194509092505050565b6000806001600160a01b03841615611f6a57611f618484612f76565b93509050611f76565b611f7383610f56565b90505b6001600160a01b0381163b15612015576040516376c0e6ed60e11b8152306004820152602481018490526001600160a01b0382169063ed81cdda90604401602060405180830381865afa925050508015611fed575060408051601f3d908101601f19168201909252611fea9181019061471f565b60015b156120155763328bf24b60e01b6001600160e01b03198216016120135791506107949050565b505b63cd740db560e01b179392505050565b600f546001600160a01b0316331461204f5760405162461bcd60e51b81526004016108a1906146ea565b6001600160a01b0383166000908152600e602090815260408083208584529091529020548390156120b75760405162461bcd60e51b8152602060048201526012602482015271746f6b656e20697320696e2062756e646c6560701b60448201526064016108a1565b6040516331a9108f60e11b81526004810184905230906001600160a01b03831690636352211e90602401602060405180830381865afa1580156120fe573d6000803e3d6000fd5b505050506040513d601f19601f820116820180604052508101906121229190614814565b6001600160a01b0316146121685760405162461bcd60e51b815260206004820152600d60248201526c1b999d081b9bdd081bdddb9959609a1b60448201526064016108a1565b604051632142170760e11b81526001600160a01b038216906342842e0e9061219890309086908890600401614630565b600060405180830381600087803b1580156121b257600080fd5b505af11580156121c6573d6000803e3d6000fd5b5050505050505050565b6060816000036121f75750506040805180820190915260018152600360fc1b602082015290565b8160005b8115612221578061220b816146bb565b915061221a9050600a83614876565b91506121fb565b6000816001600160401b0381111561223b5761223b613d3a565b6040519080825280601f01601f191660200182016040528015612265576020820181803683370190505b5090505b8415610af35761227a60018361488a565b9150612287600a8661489d565b6122929060306148b1565b60f81b8183815181106122a7576122a76146d4565b60200101906001600160f81b031916908160001a9053506122c9600a86614876565b9450612269565b60006001600160e01b0319821663cde244d960e01b148061230157506001600160e01b031982166328d12bf960e21b145b8061231c5750630f7ef9b560e11b6001600160e01b03198316145b80610794575061079482612ffc565b600081815260046020526040902080546001600160a01b0319166001600160a01b038416908117909155819061236082610f56565b6001600160a01b03167f8c5be1e5ebec7d5bd14f71427d1e84f3dd0314c0f7b2291e5b200ac8c7c3b92560405160405180910390a45050565b6000610a3b8383613021565b7f00000000000000000000000000000000000000000000000000000000000000006001600160a01b0316846001600160a01b03160315610ee457610ee48484848461304b565b6123f483612a87565b6123ff8483836130e4565b610ee4848383612b7b565b6000818152600260205260408120546001600160a01b03166124835760405162461bcd60e51b815260206004820152602c60248201527f4552433732313a206f70657261746f7220717565727920666f72206e6f6e657860448201526b34b9ba32b73a103a37b5b2b760a11b60648201526084016108a1565b600061248e83610f56565b9050806001600160a01b0316846001600160a01b031614806124c95750836001600160a01b03166124be8461082c565b6001600160a01b0316145b80610af35750610af38185611e85565b826001600160a01b03166124ec82610f56565b6001600160a01b0316146125545760405162461bcd60e51b815260206004820152602960248201527f4552433732313a207472616e73666572206f6620746f6b656e2074686174206960448201526839903737ba1037bbb760b91b60648201526084016108a1565b6001600160a01b0382166125b65760405162461bcd60e51b8152602060048201526024808201527f4552433732313a207472616e7366657220746f20746865207a65726f206164646044820152637265737360e01b60648201526084016108a1565b6125c18383836131ec565b6125cc60008261232b565b6001600160a01b03831660009081526003602052604081208054600192906125f590849061488a565b90915550506001600160a01b03821660009081526003602052604081208054600192906126239084906148b1565b909155505060008181526002602052604080822080546001600160a01b0319166001600160a01b0386811691821790925591518493918716917fddf252ad1be2c89b69c2b068fc378daa952ba7f163c4a11628f55a4df523b3ef91a4505050565b60008151116126c75760405162461bcd60e51b815260206004820152600f60248201526e62756e646c6520697320656d70747960881b60448201526064016108a1565b805160005b81811461292b576126f98382815181106126e8576126e86146d4565b602002602001015160000151610fcd565b61273c5760405162461bcd60e51b8152602060048201526014602482015273195c98cdcc8c481b9bdd081c195c9b5a5d1d195960621b60448201526064016108a1565b82818151811061274e5761274e6146d4565b6020026020010151604001511561287c576000838281518110612773576127736146d4565b60200260200101516020015151905060005b8181146128755784838151811061279e5761279e6146d4565b6020026020010151600001516001600160a01b031663b88d4fde33308887815181106127cc576127cc6146d4565b60200260200101516020015185815181106127e9576127e96146d4565b60200260200101518a60405160200161280491815260200190565b6040516020818303038152906040526040518563ffffffff1660e01b815260040161283294939291906147ba565b600060405180830381600087803b15801561284c57600080fd5b505af1158015612860573d6000803e3d6000fd5b505050508061286e906146bb565b9050612785565b505061291b565b6000838281518110612890576128906146d4565b60200260200101516020015151905060005b8181146129185761290833878786815181106128c0576128c06146d4565b6020026020010151600001518887815181106128de576128de6146d4565b60200260200101516020015185815181106128fb576128fb6146d4565b6020026020010151611ac7565b612911816146bb565b90506128a2565b50505b612924816146bb565b90506126cc565b50827faeecfeb34aeb11fe7449e04fbc8fc80d3ddd8eeb67b35e6c1b8e1b7e3d8f02578360405161295c91906148c4565b60405180910390a2505050565b6000610794825490565b611a8782826040518060200160405280600081525061324f565b60008151116129ab57604051806020016040528060008152506129d6565b806129b5466121d0565b6040516020016129c692919061497a565b6040516020818303038152906040525b601190611a879082614a03565b604080516001600160a01b038416602482015260448082018490528251808303909101815260649091019091526020810180516001600160e01b031663a9059cbb60e01b179052610a1e908490613282565b600f80546001600160a01b038381166001600160a01b0319831681179093556040519116919082907f8be0079c531659141344cd1fd0a4f28419497f9722a3daafe3b4186f6b6457e090600090a35050565b6001600160a01b038116610df25760405162461bcd60e51b815260206004820152601e60248201527f6368696c64207472616e7366657220746f207a65726f2061646472657373000060448201526064016108a1565b6000612ae882610d1f565b90506001600160a01b038116331480612b11575033612b068361082c565b6001600160a01b0316145b80612b215750612b218133611e85565b611a875760405162461bcd60e51b815260206004820152602560248201527f7472616e736665724368696c64206d73672e73656e646572206e6f7420656c696044820152646769626c6560d81b60648201526084016108a1565b6000838152600d602090815260408083206001600160a01b03861684529091529020612ba79082613354565b506001600160a01b0382166000818152600e602090815260408083208584528252808320839055868352600d825280832093835292905220612be890612969565b600003610a1e576000838152600c60205260409020610ee49083613360565b612c1082612add565b6000815111612c535760405162461bcd60e51b815260206004820152600f60248201526e62756e646c6520697320656d70747960881b60448201526064016108a1565b805160005b818114612dea576000838281518110612c7357612c736146d4565b60200260200101516000015190506000848381518110612c9557612c956146d4565b60200260200101516020015151905060005b818114612dd6576000868581518110612cc257612cc26146d4565b6020026020010151602001518281518110612cdf57612cdf6146d4565b60200260200101519050612cf4888583612b7b565b868581518110612d0657612d066146d4565b60200260200101516040015115612d7e57604051632142170760e11b81526001600160a01b038516906342842e0e90612d4790309033908690600401614630565b600060405180830381600087803b158015612d6157600080fd5b505af1158015612d75573d6000803e3d6000fd5b50505050612d89565b612d89338583612ea6565b836001600160a01b0316336001600160a01b031689600080516020614b6483398151915284604051612dbd91815260200190565b60405180910390a450612dcf816146bb565b9050612ca7565b50505080612de3906146bb565b9050612c58565b50827ff60c055f56c20fcc9ca127b02b3958fad33fb25c41c195093e037d94fcc270088360405161295c91906148c4565b612e268484846124d9565b612e3284848484613375565b610ee45760405162461bcd60e51b81526004016108a190614ac2565b612e5782610fcd565b612e9a5760405162461bcd60e51b8152602060048201526014602482015273195c98cdcc8c481b9bdd081c195c9b5a5d1d195960621b60448201526064016108a1565b610ee484848484613476565b60405163095ea7b360e01b8152306004820152602481018290526001600160a01b0383169063095ea7b390604401600060405180830381600087803b158015612eee57600080fd5b505af1925050508015612eff575060015b506040516323b872dd60e01b81526001600160a01b038316906323b872dd90612f3090309087908690600401614630565b600060405180830381600087803b158015612f4a57600080fd5b505af1158015612f5e573d6000803e3d6000fd5b50505050505050565b6060601180546107a9906145bf565b6001600160a01b0382166000908152600e60209081526040808320848452909152812054808203612fe95760405162461bcd60e51b815260206004820152601a60248201527f6368696c6420746f6b656e20646f6573206e6f7420657869737400000000000060448201526064016108a1565b612ff281610f56565b91505b9250929050565b60006001600160e01b0319821663780e9d6360e01b14806107945750610794826135bd565b6000826000018281548110613038576130386146d4565b9060005260206000200154905092915050565b60008151116130c25760405162461bcd60e51b815260206004820152603860248201527f64617461206d75737420636f6e7461696e20746f6b656e496420746f2074726160448201527f6e7366657220746865206368696c6420746f6b656e20746f000000000000000060648201526084016108a1565b60006130cf826020015190565b90506130dd85828686612e4e565b5050505050565b6001600160a01b0382166000908152600e60209081526040808320848452909152812054908190036131765760405162461bcd60e51b815260206004820152603560248201527f5f7472616e736665724368696c64205f6368696c64436f6e7472616374205f636044820152741a1a5b19151bdad95b9259081b9bdd08199bdd5b99605a1b60648201526084016108a1565b8381146131e35760405162461bcd60e51b815260206004820152603560248201527f436f6d706f7361626c65546f70446f776e3a205f7472616e736665724368696c60448201527419081ddc9bdb99c81d1bdad95b925908199bdd5b99605a1b60648201526084016108a1565b610ee481612add565b306001600160a01b038316036132445760405162461bcd60e51b815260206004820152601a60248201527f6e65737465642062756e646c6573206e6f7420616c6c6f77656400000000000060448201526064016108a1565b610a1e83838361360d565b61325983836136c5565b6132666000848484613375565b610a1e5760405162461bcd60e51b81526004016108a190614ac2565b60006132d7826040518060400160405280602081526020017f5361666545524332303a206c6f772d6c6576656c2063616c6c206661696c6564815250856001600160a01b03166138139092919063ffffffff16565b805190915015610a1e57808060200190518101906132f591906147f7565b610a1e5760405162461bcd60e51b815260206004820152602a60248201527f5361666545524332303a204552433230206f7065726174696f6e20646964206e6044820152691bdd081cdd58d8d9595960b21b60648201526084016108a1565b6000610a3b8383613822565b6000610a3b836001600160a01b038416613822565b60006001600160a01b0384163b1561346b57604051630a85bd0160e11b81526001600160a01b0385169063150b7a02906133b99033908990889088906004016147ba565b6020604051808303816000875af19250505080156133f4575060408051601f3d908101601f191682019092526133f191810190614b14565b60015b613451573d808015613422576040519150601f19603f3d011682016040523d82523d6000602084013e613427565b606091505b5080516000036134495760405162461bcd60e51b81526004016108a190614ac2565b805181602001fd5b6001600160e01b031916630a85bd0160e11b149050610af3565b506001949350505050565b6000838152600260205260409020546001600160a01b03166134da5760405162461bcd60e51b815260206004820152601d60248201527f62756e646c6520746f6b656e496420646f6573206e6f7420657869737400000060448201526064016108a1565b6000838152600d602090815260408083206001600160a01b0386168452909152812061350590612969565b905080600003613529576000848152600c602052604090206135279084613915565b505b6000848152600d602090815260408083206001600160a01b03871684529091529020613555908361392a565b506001600160a01b038381166000818152600e60209081526040808320878452825291829020889055905185815291928792908916917f0371ddf2288ad1ba92626a7e31c86a9d006e592cfe57d7d946ef08b13457c08b910160405180910390a45050505050565b60006001600160e01b031982166380ac58cd60e01b14806135ee57506001600160e01b03198216635b5e139f60e01b145b8061079457506301ffc9a760e01b6001600160e01b0319831614610794565b6001600160a01b0383166136685761366381600880546000838152600960205260408120829055600182018355919091527ff3f7a9fe364faab93b216da50a3214154f22a0a2b415b23a84c8169e8b636ee30155565b61368b565b816001600160a01b0316836001600160a01b03161461368b5761368b8382613936565b6001600160a01b0382166136a257610a1e816139d3565b826001600160a01b0316826001600160a01b031614610a1e57610a1e8282613a82565b6001600160a01b03821661371b5760405162461bcd60e51b815260206004820181905260248201527f4552433732313a206d696e7420746f20746865207a65726f206164647265737360448201526064016108a1565b6000818152600260205260409020546001600160a01b0316156137805760405162461bcd60e51b815260206004820152601c60248201527f4552433732313a20746f6b656e20616c7265616479206d696e7465640000000060448201526064016108a1565b61378c600083836131ec565b6001600160a01b03821660009081526003602052604081208054600192906137b59084906148b1565b909155505060008181526002602052604080822080546001600160a01b0319166001600160a01b03861690811790915590518392907fddf252ad1be2c89b69c2b068fc378daa952ba7f163c4a11628f55a4df523b3ef908290a45050565b6060610af38484600085613ac6565b6000818152600183016020526040812054801561390b57600061384660018361488a565b855490915060009061385a9060019061488a565b90508181146138bf57600086600001828154811061387a5761387a6146d4565b906000526020600020015490508087600001848154811061389d5761389d6146d4565b6000918252602080832090910192909255918252600188019052604090208390555b85548690806138d0576138d0614b31565b600190038181906000526020600020016000905590558560010160008681526020019081526020016000206000905560019350505050610794565b6000915050610794565b6000610a3b836001600160a01b038416613bee565b6000610a3b8383613bee565b60006001613943846110f5565b61394d919061488a565b6000838152600760205260409020549091508082146139a0576001600160a01b03841660009081526006602090815260408083208584528252808320548484528184208190558352600790915290208190555b5060009182526007602090815260408084208490556001600160a01b039094168352600681528383209183525290812055565b6008546000906139e59060019061488a565b60008381526009602052604081205460088054939450909284908110613a0d57613a0d6146d4565b906000526020600020015490508060088381548110613a2e57613a2e6146d4565b6000918252602080832090910192909255828152600990915260408082208490558582528120556008805480613a6657613a66614b31565b6001900381819060005260206000200160009055905550505050565b6000613a8d836110f5565b6001600160a01b039093166000908152600660209081526040808320868452825280832085905593825260079052919091209190915550565b606082471015613b275760405162461bcd60e51b815260206004820152602660248201527f416464726573733a20696e73756666696369656e742062616c616e636520666f6044820152651c8818d85b1b60d21b60648201526084016108a1565b843b613b755760405162461bcd60e51b815260206004820152601d60248201527f416464726573733a2063616c6c20746f206e6f6e2d636f6e747261637400000060448201526064016108a1565b600080866001600160a01b03168587604051613b919190614b47565b60006040518083038185875af1925050503d8060008114613bce576040519150601f19603f3d011682016040523d82523d6000602084013e613bd3565b606091505b5091509150613be3828286613c3d565b979650505050505050565b6000818152600183016020526040812054613c3557508154600181810184556000848152602080822090930184905584548482528286019093526040902091909155610794565b506000610794565b60608315613c4c575081610a3b565b825115613c5c5782518084602001fd5b8160405162461bcd60e51b81526004016108a19190613cf9565b6001600160e01b031981168114610df257600080fd5b600060208284031215613c9e57600080fd5b8135610a3b81613c76565b60005b83811015613cc4578181015183820152602001613cac565b50506000910152565b60008151808452613ce5816020860160208601613ca9565b601f01601f19169290920160200192915050565b602081526000610a3b6020830184613ccd565b600060208284031215613d1e57600080fd5b5035919050565b6001600160a01b0381168114610df257600080fd5b634e487b7160e01b600052604160045260246000fd5b604051606081016001600160401b0381118282101715613d7257613d72613d3a565b60405290565b604051601f8201601f191681016001600160401b0381118282101715613da057613da0613d3a565b604052919050565b60006001600160401b03831115613dc157613dc1613d3a565b613dd4601f8401601f1916602001613d78565b9050828152838383011115613de857600080fd5b828260208301376000602084830101529392505050565b600082601f830112613e1057600080fd5b610a3b83833560208501613da8565b60008060008060008060c08789031215613e3857600080fd5b863595506020870135613e4a81613d25565b9450604087013593506060870135613e6181613d25565b92506080870135915060a08701356001600160401b03811115613e8357600080fd5b613e8f89828a01613dff565b9150509295509295509295565b60008060408385031215613eaf57600080fd5b8235613eba81613d25565b946020939093013593505050565b60008060408385031215613edb57600080fd5b50508035926020909101359150565b60008083601f840112613efc57600080fd5b5081356001600160401b03811115613f1357600080fd5b602083019150836020828501011115612ff557600080fd5b600080600080600060808688031215613f4357600080fd5b8535613f4e81613d25565b94506020860135613f5e81613d25565b93506040860135925060608601356001600160401b03811115613f8057600080fd5b613f8c88828901613eea565b969995985093965092949392505050565b600080600060608486031215613fb257600080fd5b833592506020840135613fc481613d25565b929592945050506040919091013590565b60008060008060808587031215613feb57600080fd5b843593506020850135613ffd81613d25565b9250604085013561400d81613d25565b9396929550929360600135925050565b60008060006060848603121561403257600080fd5b833561403d81613d25565b92506020840135613fc481613d25565b60006001600160401b0382111561406657614066613d3a565b5060051b60200190565b8015158114610df257600080fd5b803561408981614070565b919050565b600082601f83011261409f57600080fd5b813560206140b46140af8361404d565b613d78565b82815260059290921b840181019181810190868411156140d357600080fd5b8286015b848110156141c45780356001600160401b03808211156140f75760008081fd5b908801906060828b03601f19018113156141115760008081fd5b614119613d50565b8784013561412681613d25565b81526040848101358481111561413c5760008081fd5b85019350603f84018d136141505760008081fd5b888401356141606140af8261404d565b81815260059190911b85018201908a8101908f8311156141805760008081fd5b958301955b8287101561419e5786358252958b0195908b0190614185565b848c0152506141b0905085840161407e565b9082015286525050509183019183016140d7565b509695505050505050565b6000602082840312156141e157600080fd5b81356001600160401b038111156141f757600080fd5b610af38482850161408e565b6000806040838503121561421657600080fd5b82359150602083013561422881613d25565b809150509250929050565b60006020828403121561424557600080fd5b8135610a3b81613d25565b60006020828403121561426257600080fd5b81356001600160401b0381111561427857600080fd5b8201601f8101841361428957600080fd5b610af384823560208401613da8565b600080604083850312156142ab57600080fd5b82356142b681613d25565b9150602083013561422881613d25565b6000806000806000806000806000806101208b8d0312156142e657600080fd5b8a356142f181613d25565b995060208b0135985060408b013561430881613d25565b975060608b01356001600160401b0381111561432357600080fd5b61432f8d828e01613eea565b90985096505060808b013561434381613d25565b945060a08b0135935060c08b013561435a81614070565b925060e08b013591506101008b013561437281613d25565b809150509295989b9194979a5092959850565b600080600080600060a0868803121561439d57600080fd5b8535945060208601356143af81613d25565b935060408601356143bf81613d25565b92506060860135915060808601356001600160401b038111156143e157600080fd5b6143ed88828901613dff565b9150509295509295909350565b6000806040838503121561440d57600080fd5b823561441881613d25565b9150602083013561422881614070565b6000806040838503121561443b57600080fd5b8235915060208301356001600160401b0381111561445857600080fd5b6144648582860161408e565b9150509250929050565b6000806000806080858703121561448457600080fd5b843561448f81613d25565b9350602085013561449f81613d25565b92506040850135915060608501356001600160401b038111156144c157600080fd5b6144cd87828801613dff565b91505092959194509250565b600080600080608085870312156144ef57600080fd5b84356144fa81613d25565b935060208501359250604085013561400d81613d25565b60008060006060848603121561452657600080fd5b8335925060208401356001600160401b038082111561454457600080fd5b6145508783880161408e565b9350604086013591508082111561456657600080fd5b506145738682870161408e565b9150509250925092565b60008060006060848603121561459257600080fd5b833561459d81613d25565b92506020840135915060408401356145b481613d25565b809150509250925092565b600181811c908216806145d357607f821691505b6020821081036145f357634e487b7160e01b600052602260045260246000fd5b50919050565b6020808252601f908201527f5265656e7472616e637947756172643a207265656e7472616e742063616c6c00604082015260600190565b6001600160a01b039384168152919092166020820152604081019190915260600190565b60208082526031908201527f4552433732313a207472616e736665722063616c6c6572206973206e6f74206f6040820152701ddb995c881b9bdc88185c1c1c9bdd9959607a1b606082015260800190565b634e487b7160e01b600052601160045260246000fd5b6000600182016146cd576146cd6146a5565b5060010190565b634e487b7160e01b600052603260045260246000fd5b6020808252818101527f4f776e61626c653a2063616c6c6572206973206e6f7420746865206f776e6572604082015260600190565b60006020828403121561473157600080fd5b5051919050565b6001600160a01b038b81168252602082018b9052898116604083015261012060608301819052820188905260009061014090898b838601376000848b0183015290971660808301525060a081019490945291151560c084015260e08301526001600160a01b0316610100820152601f909201601f191690910101949350505050565b6001600160a01b03858116825284166020820152604081018390526080606082018190526000906147ed90830184613ccd565b9695505050505050565b60006020828403121561480957600080fd5b8151610a3b81614070565b60006020828403121561482657600080fd5b8151610a3b81613d25565b60008351614843818460208801613ca9565b835190830190614857818360208801613ca9565b01949350505050565b634e487b7160e01b600052601260045260246000fd5b60008261488557614885614860565b500490565b81810381811115610794576107946146a5565b6000826148ac576148ac614860565b500690565b80820180821115610794576107946146a5565b60006020808301818452808551808352604092508286019150828160051b8701018488016000805b8481101561496b57898403603f19018652825180516001600160a01b031685528881015160608a8701819052815190870181905260808701918b019085905b8082101561494b5782518452928c0192918c01916001919091019061492b565b5050509088015115159488019490945294870194918701916001016148ec565b50919998505050505050505050565b6000835161498c818460208801613ca9565b8351908301906149a0818360208801613ca9565b602f60f81b9101908152600101949350505050565b601f821115610a1e57600081815260208120601f850160051c810160208610156149dc5750805b601f850160051c820191505b818110156149fb578281556001016149e8565b505050505050565b81516001600160401b03811115614a1c57614a1c613d3a565b614a3081614a2a84546145bf565b846149b5565b602080601f831160018114614a655760008415614a4d5750858301515b600019600386901b1c1916600185901b1785556149fb565b600085815260208120601f198616915b82811015614a9457888601518255948401946001909101908401614a75565b5085821015614ab25787850151600019600388901b60f8161c191681555b5050505050600190811b01905550565b60208082526032908201527f4552433732313a207472616e7366657220746f206e6f6e20455243373231526560408201527131b2b4bb32b91034b6b83632b6b2b73a32b960711b606082015260800190565b600060208284031215614b2657600080fd5b8151610a3b81613c76565b634e487b7160e01b600052603160045260246000fd5b60008251614b59818460208701613ca9565b919091019291505056fe0ef52e516fb5aec15a5d3587e5480481b702b26db93c8430eca78b61990fd3f6a164736f6c6343000811000a",
  "devdoc": {
    "author": "NFTfi",
    "details": "ERC998 Top-Down Composable Non-Fungible Token that supports ERC721 children.",
    "kind": "dev",
    "methods": {
      "addAndRemoveBundleElements(uint256,(address,uint256[],bool)[],(address,uint256[],bool)[])": {
        "details": "Adds and removes a set of BundleElementERC721 objects from the specified token ID.",
        "params": {
          "_toAdd": "The array of BundleElementERC721 objects to add.",
          "_toRemove": "The array of BundleElementERC721 objects to remove.",
          "_tokenId": "The ID of the token to add and remove the bundle elements from."
        }
      },
      "addBundleElements(uint256,(address,uint256[],bool)[])": {
        "details": "Adds a set of BundleElementERC721 objects to the specified token ID.",
        "params": {
          "_bundleElements": "The array of BundleElementERC721 objects to add.",
          "_tokenId": "The ID of the token to add the bundle elements to."
        }
      },
      "approve(address,uint256)": {
        "details": "See {IERC721-approve}."
      },
      "balanceOf(address)": {
        "details": "See {IERC721-balanceOf}."
      },
      "buildBundle((address,uint256[],bool)[])": {
        "details": "used to build a bundle from the BundleElements struct, returns the id of the created bundle",
        "params": {
          "_bundleElements": "- the lists of erc721 tokens that are to be bundled"
        }
      },
      "childContractByIndex(uint256,uint256)": {
        "params": {
          "_index": "The index position of the child contract",
          "_tokenId": "The parent token of child tokens in child contract"
        },
        "returns": {
          "childContract": "The contract found at the _tokenId and index"
        }
      },
      "childExists(address,uint256)": {
        "params": {
          "_childContract": "The contract address of the child token",
          "_childTokenId": "The tokenId of the child"
        },
        "returns": {
          "_0": "True if the child exists, false otherwise"
        }
      },
      "childTokenByIndex(uint256,address,uint256)": {
        "params": {
          "_childContract": "The child contract of the child token",
          "_index": "The index position of the child token",
          "_tokenId": "The parent token of the child token"
        },
        "returns": {
          "childTokenId": "The child tokenId for the parent token, child token and index"
        }
      },
      "constructor": {
        "details": "Stores name and symbol",
        "params": {
          "_admin": "- Initial admin of this contract.",
          "_name": "name of the token contract",
          "_symbol": "symbol of the token contract"
        }
      },
      "decomposeBundle(uint256,address)": {
        "details": "This method may run out of gas if the list of children is too big. In that case, children can be removed      individually.",
        "params": {
          "_receiver": "address of the receiver of the children",
          "_tokenId": "the id of the bundle"
        }
      },
      "getApproved(uint256)": {
        "details": "See {IERC721-getApproved}."
      },
      "getChild(address,uint256,address,uint256)": {
        "details": "This contract has to be approved first in _childContract",
        "params": {
          "_childContract": "The ERC721 contract of the child token",
          "_childTokenId": "The tokenId of the child token",
          "_from": "The address that owns the child token.",
          "_tokenId": "The token that becomes the parent owner"
        }
      },
      "isApprovedForAll(address,address)": {
        "details": "See {IERC721-isApprovedForAll}."
      },
      "name()": {
        "details": "See {IERC721Metadata-name}."
      },
      "onERC721Received(address,address,uint256,bytes)": {
        "params": {
          "_childTokenId": "The token that is being transferred to the parent",
          "_data": "Up to the first 32 bytes contains an integer which is the receiving parent tokenId",
          "_from": "The owner of the child token"
        },
        "returns": {
          "_0": "the selector of this method"
        }
      },
      "owner()": {
        "details": "Returns the address of the current owner."
      },
      "ownerOf(uint256)": {
        "details": "See {IERC721-ownerOf}."
      },
      "ownerOfChild(address,uint256)": {
        "params": {
          "_childContract": "The contract address of the child token",
          "_childTokenId": "The tokenId of the child"
        },
        "returns": {
          "parentTokenId": "The parent tokenId of _childTokenId",
          "parentTokenOwner": "The parent address of the parent token and ERC998 magic value"
        }
      },
      "permittedAsset(address)": {
        "params": {
          "_asset": "address of the asset"
        },
        "returns": {
          "_0": "true if permitted, false otherwise"
        }
      },
      "pullAirdrop(address,uint256,address,bytes,address,uint256,bool,uint256,address)": {
        "params": {
          "_data": "- function selector to be called on the airdropping contract",
          "_is1155": "-",
          "_nftAirdrop": "- address of the used claiming nft in the drop",
          "_nftAirdropAmount": "- amount in case of 1155",
          "_nftAirdropId": "- id of the used claiming nft in the drop",
          "_nftContract": "- contract address of the target nft of the drop",
          "_nftId": "- id of the target nft of the drop",
          "_target": "- address of the airdropping contract"
        }
      },
      "removeBundleElements(uint256,(address,uint256[],bool)[])": {
        "details": "Removes a set of BundleElementERC721 objects to the specified token ID.",
        "params": {
          "_bundleElements": "The array of BundleElementERC721 objects to remove.",
          "_tokenId": "The ID of the token to remove the bundle elements from."
        }
      },
      "requestTransferOwnership(address)": {
        "details": "Requests transferring ownership of the contract to a new account (`_newOwnerCandidate`). Can only be called by the current owner."
      },
      "rescueERC20(address,address)": {
        "params": {
          "_receiver": "- receiver of the token",
          "_tokenAddress": "- address of the token contract for the token to be sent out"
        }
      },
      "rescueERC721(address,uint256,address)": {
        "params": {
          "_receiver": "- receiver of the token",
          "_tokenAddress": "- address of the token contract for the token to be sent out",
          "_tokenId": "- id token to be sent out"
        }
      },
      "rootOwnerOf(uint256)": {
        "params": {
          "_tokenId": "The token to query for a root owner address"
        },
        "returns": {
          "rootOwner": "The root owner at the top of tree of tokens and ERC998 magic value."
        }
      },
      "rootOwnerOfChild(address,uint256)": {
        "details": "Returns the owner at the top of the tree of composables Use Cases handled: - Case 1: Token owner is this contract and token. - Case 2: Token owner is other external top-down composable - Case 3: Token owner is other contract - Case 4: Token owner is user",
        "params": {
          "_childContract": "The contract address of the child token",
          "_childTokenId": "The tokenId of the child"
        },
        "returns": {
          "rootOwner": "The root owner at the top of tree of tokens and ERC998 magic value"
        }
      },
      "safeMint(address)": {
        "params": {
          "_to": "The address that owns the new bundle"
        },
        "returns": {
          "_0": "The id of the new bundle"
        }
      },
      "safeTransferChild(uint256,address,address,uint256)": {
        "params": {
          "_childContract": "The ERC721 contract of the child token",
          "_childTokenId": "The tokenId of the token that is being transferred",
          "_fromTokenId": "The owning token to transfer from",
          "_to": "The address that receives the child token"
        }
      },
      "safeTransferChild(uint256,address,address,uint256,bytes)": {
        "params": {
          "_childContract": "The ERC721 contract of the child token",
          "_childTokenId": "The tokenId of the token that is being transferred",
          "_data": "Additional data with no specified format",
          "_fromTokenId": "The owning token to transfer from",
          "_to": "The address that receives the child token"
        }
      },
      "safeTransferFrom(address,address,uint256)": {
        "details": "See {IERC721-safeTransferFrom}."
      },
      "safeTransferFrom(address,address,uint256,bytes)": {
        "details": "See {IERC721-safeTransferFrom}."
      },
      "sendElementsToPersonalBundler(uint256,address)": {
        "details": "This method may run out of gas if the list of children is too big. In that case, children can be removed      individually.",
        "params": {
          "_personalBundler": "address of the receiver of the children",
          "_tokenId": "the id of the bundle"
        }
      },
      "setApprovalForAll(address,bool)": {
        "details": "See {IERC721-setApprovalForAll}."
      },
      "setBaseURI(string)": {
        "details": "Sets baseURI.",
        "params": {
          "_customBaseURI": "- Base URI"
        }
      },
      "supportsInterface(bytes4)": {
        "details": "See {IERC165-supportsInterface}."
      },
      "symbol()": {
        "details": "See {IERC721Metadata-symbol}."
      },
      "tokenByIndex(uint256)": {
        "details": "See {IERC721Enumerable-tokenByIndex}."
      },
      "tokenOfOwnerByIndex(address,uint256)": {
        "details": "See {IERC721Enumerable-tokenOfOwnerByIndex}."
      },
      "tokenURI(uint256)": {
        "details": "See {IERC721Metadata-tokenURI}."
      },
      "totalChildContracts(uint256)": {
        "params": {
          "_tokenId": "The parent token of child tokens in child contracts"
        },
        "returns": {
          "_0": "uint256 The total number of child contracts with tokens owned by _tokenId"
        }
      },
      "totalChildTokens(uint256,address)": {
        "params": {
          "_childContract": "The child contract containing the child tokens",
          "_tokenId": "The parent token of child tokens"
        },
        "returns": {
          "_0": "uint256 The total number of child tokens found in child contract that are owned by _tokenId"
        }
      },
      "totalSupply()": {
        "details": "See {IERC721Enumerable-totalSupply}."
      },
      "transferChild(uint256,address,address,uint256)": {
        "details": "Transfer child token from top-down composable to address",
        "params": {
          "_childContract": "The ERC721 contract of the child token",
          "_childTokenId": "The tokenId of the token that is being transferred",
          "_fromTokenId": "The owning token to transfer from",
          "_to": "The address that receives the child token"
        }
      },
      "transferFrom(address,address,uint256)": {
        "details": "See {IERC721-transferFrom}."
      }
    },
    "title": "NftfiBundler",
    "version": 1
  },
  "userdoc": {
    "kind": "user",
    "methods": {
      "childContractByIndex(uint256,uint256)": {
        "notice": "Get child contract by tokenId and index"
      },
      "childExists(address,uint256)": {
        "notice": "Tells whether the ERC721 type child exists or not"
      },
      "childTokenByIndex(uint256,address,uint256)": {
        "notice": "Get child token owned by _tokenId, in child contract, at index position"
      },
      "decomposeBundle(uint256,address)": {
        "notice": "Remove all the children from the bundle"
      },
      "getChild(address,uint256,address,uint256)": {
        "notice": "Transfer a child token from an ERC721 contract to a composable. Used for old tokens that does not have a safeTransferFrom method like cryptokitties"
      },
      "onERC721Received(address,address,uint256,bytes)": {
        "notice": "A token receives a child token param The address that caused the transfer"
      },
      "ownerOfChild(address,uint256)": {
        "notice": "Get the parent tokenId and its owner of a ERC721 child token"
      },
      "permittedAsset(address)": {
        "notice": "Tells if an asset is permitted or not"
      },
      "pullAirdrop(address,uint256,address,bytes,address,uint256,bool,uint256,address)": {
        "notice": "this function initiates a flashloan to pull an airdrop from a tartget contract"
      },
      "rescueERC20(address,address)": {
        "notice": "used by the owner account to be able to drain ERC20 tokens received as airdrops for the locked  collateral NFT-s"
      },
      "rescueERC721(address,uint256,address)": {
        "notice": "used by the owner account to be able to drain ERC721 tokens received as airdrops for the locked  collateral NFT-s"
      },
      "rootOwnerOf(uint256)": {
        "notice": "Get the root owner of tokenId"
      },
      "rootOwnerOfChild(address,uint256)": {
        "notice": "Get the root owner of a child token"
      },
      "safeMint(address)": {
        "notice": "Mints a new bundle"
      },
      "safeTransferChild(uint256,address,address,uint256)": {
        "notice": "Transfer child token from top-down composable to address"
      },
      "safeTransferChild(uint256,address,address,uint256,bytes)": {
        "notice": "Transfer child token from top-down composable to address or other top-down composable"
      },
      "sendElementsToPersonalBundler(uint256,address)": {
        "notice": "Remove all the children from the bundle and send to personla bundler. If bundle contains a legacy ERC721 element, this will not work."
      },
      "totalChildContracts(uint256)": {
        "notice": "Get the total number of child contracts with tokens that are owned by _tokenId"
      },
      "totalChildTokens(uint256,address)": {
        "notice": "Get the total number of child tokens owned by tokenId that exist in a child contract"
      },
      "transferChildToParent(uint256,address,uint256,address,uint256,bytes)": {
        "notice": "NOT SUPPORTED Intended to transfer bottom-up composable child token from top-down composable to other ERC721 token."
      }
    },
    "version": 1
  },
  "storageLayout": {
    "storage": [
      {
        "astId": 3606,
        "contract": "contracts/NftfiBundler.sol:NftfiBundler",
        "label": "_name",
        "offset": 0,
        "slot": "0",
        "type": "t_string_storage"
      },
      {
        "astId": 3608,
        "contract": "contracts/NftfiBundler.sol:NftfiBundler",
        "label": "_symbol",
        "offset": 0,
        "slot": "1",
        "type": "t_string_storage"
      },
      {
        "astId": 3612,
        "contract": "contracts/NftfiBundler.sol:NftfiBundler",
        "label": "_owners",
        "offset": 0,
        "slot": "2",
        "type": "t_mapping(t_uint256,t_address)"
      },
      {
        "astId": 3616,
        "contract": "contracts/NftfiBundler.sol:NftfiBundler",
        "label": "_balances",
        "offset": 0,
        "slot": "3",
        "type": "t_mapping(t_address,t_uint256)"
      },
      {
        "astId": 3620,
        "contract": "contracts/NftfiBundler.sol:NftfiBundler",
        "label": "_tokenApprovals",
        "offset": 0,
        "slot": "4",
        "type": "t_mapping(t_uint256,t_address)"
      },
      {
        "astId": 3626,
        "contract": "contracts/NftfiBundler.sol:NftfiBundler",
        "label": "_operatorApprovals",
        "offset": 0,
        "slot": "5",
        "type": "t_mapping(t_address,t_mapping(t_address,t_bool))"
      },
      {
        "astId": 4577,
        "contract": "contracts/NftfiBundler.sol:NftfiBundler",
        "label": "_ownedTokens",
        "offset": 0,
        "slot": "6",
        "type": "t_mapping(t_address,t_mapping(t_uint256,t_uint256))"
      },
      {
        "astId": 4581,
        "contract": "contracts/NftfiBundler.sol:NftfiBundler",
        "label": "_ownedTokensIndex",
        "offset": 0,
        "slot": "7",
        "type": "t_mapping(t_uint256,t_uint256)"
      },
      {
        "astId": 4584,
        "contract": "contracts/NftfiBundler.sol:NftfiBundler",
        "label": "_allTokens",
        "offset": 0,
        "slot": "8",
        "type": "t_array(t_uint256)dyn_storage"
      },
      {
        "astId": 4588,
        "contract": "contracts/NftfiBundler.sol:NftfiBundler",
        "label": "_allTokensIndex",
        "offset": 0,
        "slot": "9",
        "type": "t_mapping(t_uint256,t_uint256)"
      },
      {
        "astId": 890,
        "contract": "contracts/NftfiBundler.sol:NftfiBundler",
        "label": "_status",
        "offset": 0,
        "slot": "10",
        "type": "t_uint256"
      },
      {
        "astId": 6708,
        "contract": "contracts/NftfiBundler.sol:NftfiBundler",
        "label": "tokenCount",
        "offset": 0,
        "slot": "11",
        "type": "t_uint256"
      },
      {
        "astId": 6713,
        "contract": "contracts/NftfiBundler.sol:NftfiBundler",
        "label": "childContracts",
        "offset": 0,
        "slot": "12",
        "type": "t_mapping(t_uint256,t_struct(AddressSet)6443_storage)"
      },
      {
        "astId": 6720,
        "contract": "contracts/NftfiBundler.sol:NftfiBundler",
        "label": "childTokens",
        "offset": 0,
        "slot": "13",
        "type": "t_mapping(t_uint256,t_mapping(t_address,t_struct(UintSet)6570_storage))"
      },
      {
        "astId": 6726,
        "contract": "contracts/NftfiBundler.sol:NftfiBundler",
        "label": "childTokenOwner",
        "offset": 0,
        "slot": "14",
        "type": "t_mapping(t_address,t_mapping(t_uint256,t_uint256))"
      },
      {
        "astId": 12135,
        "contract": "contracts/NftfiBundler.sol:NftfiBundler",
        "label": "_owner",
        "offset": 0,
        "slot": "15",
        "type": "t_address"
      },
      {
        "astId": 12137,
        "contract": "contracts/NftfiBundler.sol:NftfiBundler",
        "label": "_ownerCandidate",
        "offset": 0,
        "slot": "16",
        "type": "t_address"
      },
      {
        "astId": 8884,
        "contract": "contracts/NftfiBundler.sol:NftfiBundler",
        "label": "baseURI",
        "offset": 0,
        "slot": "17",
        "type": "t_string_storage"
      }
    ],
    "types": {
      "t_address": {
        "encoding": "inplace",
        "label": "address",
        "numberOfBytes": "20"
      },
      "t_array(t_bytes32)dyn_storage": {
        "base": "t_bytes32",
        "encoding": "dynamic_array",
        "label": "bytes32[]",
        "numberOfBytes": "32"
      },
      "t_array(t_uint256)dyn_storage": {
        "base": "t_uint256",
        "encoding": "dynamic_array",
        "label": "uint256[]",
        "numberOfBytes": "32"
      },
      "t_bool": {
        "encoding": "inplace",
        "label": "bool",
        "numberOfBytes": "1"
      },
      "t_bytes32": {
        "encoding": "inplace",
        "label": "bytes32",
        "numberOfBytes": "32"
      },
      "t_mapping(t_address,t_bool)": {
        "encoding": "mapping",
        "key": "t_address",
        "label": "mapping(address => bool)",
        "numberOfBytes": "32",
        "value": "t_bool"
      },
      "t_mapping(t_address,t_mapping(t_address,t_bool))": {
        "encoding": "mapping",
        "key": "t_address",
        "label": "mapping(address => mapping(address => bool))",
        "numberOfBytes": "32",
        "value": "t_mapping(t_address,t_bool)"
      },
      "t_mapping(t_address,t_mapping(t_uint256,t_uint256))": {
        "encoding": "mapping",
        "key": "t_address",
        "label": "mapping(address => mapping(uint256 => uint256))",
        "numberOfBytes": "32",
        "value": "t_mapping(t_uint256,t_uint256)"
      },
      "t_mapping(t_address,t_struct(UintSet)6570_storage)": {
        "encoding": "mapping",
        "key": "t_address",
        "label": "mapping(address => struct EnumerableSet.UintSet)",
        "numberOfBytes": "32",
        "value": "t_struct(UintSet)6570_storage"
      },
      "t_mapping(t_address,t_uint256)": {
        "encoding": "mapping",
        "key": "t_address",
        "label": "mapping(address => uint256)",
        "numberOfBytes": "32",
        "value": "t_uint256"
      },
      "t_mapping(t_bytes32,t_uint256)": {
        "encoding": "mapping",
        "key": "t_bytes32",
        "label": "mapping(bytes32 => uint256)",
        "numberOfBytes": "32",
        "value": "t_uint256"
      },
      "t_mapping(t_uint256,t_address)": {
        "encoding": "mapping",
        "key": "t_uint256",
        "label": "mapping(uint256 => address)",
        "numberOfBytes": "32",
        "value": "t_address"
      },
      "t_mapping(t_uint256,t_mapping(t_address,t_struct(UintSet)6570_storage))": {
        "encoding": "mapping",
        "key": "t_uint256",
        "label": "mapping(uint256 => mapping(address => struct EnumerableSet.UintSet))",
        "numberOfBytes": "32",
        "value": "t_mapping(t_address,t_struct(UintSet)6570_storage)"
      },
      "t_mapping(t_uint256,t_struct(AddressSet)6443_storage)": {
        "encoding": "mapping",
        "key": "t_uint256",
        "label": "mapping(uint256 => struct EnumerableSet.AddressSet)",
        "numberOfBytes": "32",
        "value": "t_struct(AddressSet)6443_storage"
      },
      "t_mapping(t_uint256,t_uint256)": {
        "encoding": "mapping",
        "key": "t_uint256",
        "label": "mapping(uint256 => uint256)",
        "numberOfBytes": "32",
        "value": "t_uint256"
      },
      "t_string_storage": {
        "encoding": "bytes",
        "label": "string",
        "numberOfBytes": "32"
      },
      "t_struct(AddressSet)6443_storage": {
        "encoding": "inplace",
        "label": "struct EnumerableSet.AddressSet",
        "members": [
          {
            "astId": 6442,
            "contract": "contracts/NftfiBundler.sol:NftfiBundler",
            "label": "_inner",
            "offset": 0,
            "slot": "0",
            "type": "t_struct(Set)6172_storage"
          }
        ],
        "numberOfBytes": "64"
      },
      "t_struct(Set)6172_storage": {
        "encoding": "inplace",
        "label": "struct EnumerableSet.Set",
        "members": [
          {
            "astId": 6167,
            "contract": "contracts/NftfiBundler.sol:NftfiBundler",
            "label": "_values",
            "offset": 0,
            "slot": "0",
            "type": "t_array(t_bytes32)dyn_storage"
          },
          {
            "astId": 6171,
            "contract": "contracts/NftfiBundler.sol:NftfiBundler",
            "label": "_indexes",
            "offset": 0,
            "slot": "1",
            "type": "t_mapping(t_bytes32,t_uint256)"
          }
        ],
        "numberOfBytes": "64"
      },
      "t_struct(UintSet)6570_storage": {
        "encoding": "inplace",
        "label": "struct EnumerableSet.UintSet",
        "members": [
          {
            "astId": 6569,
            "contract": "contracts/NftfiBundler.sol:NftfiBundler",
            "label": "_inner",
            "offset": 0,
            "slot": "0",
            "type": "t_struct(Set)6172_storage"
          }
        ],
        "numberOfBytes": "64"
      },
      "t_uint256": {
        "encoding": "inplace",
        "label": "uint256",
        "numberOfBytes": "32"
      }
    }
  }
}