{
  "address": "0x92881963dE60D878a3e3AD1f14472DE80B6Ef6fe",
  "abi": [
    {
      "inputs": [
        {
          "internalType": "address",
          "name": "_admin",
          "type": "address"
        },
        {
          "internalType": "address",
          "name": "_permittedNfts",
          "type": "address"
        },
        {
          "internalType": "address",
          "name": "_airdropFlashLoan",
          "type": "address"
        }
      ],
      "stateMutability": "nonpayable",
      "type": "constructor"
    },
    {
      "anonymous": false,
      "inputs": [
        {
          "indexed": true,
          "internalType": "uint256",
          "name": "_tokenId",
          "type": "uint256"
        },
        {
          "components": [
            {
              "internalType": "address",
              "name": "tokenContract",
              "type": "address"
            },
            {
              "internalType": "uint256[]",
              "name": "ids",
              "type": "uint256[]"
            },
            {
              "internalType": "bool",
              "name": "safeTransferable",
              "type": "bool"
            }
          ],
          "indexed": false,
          "internalType": "struct IBundleBuilder.BundleElementERC721[]",
          "name": "_bundleElements",
          "type": "tuple[]"
        }
      ],
      "name": "AddBundleElements",
      "type": "event"
    },
    {
      "anonymous": false,
      "inputs": [
        {
          "indexed": true,
          "internalType": "address",
          "name": "owner",
          "type": "address"
        },
        {
          "indexed": true,
          "internalType": "address",
          "name": "approved",
          "type": "address"
        },
        {
          "indexed": true,
          "internalType": "uint256",
          "name": "tokenId",
          "type": "uint256"
        }
      ],
      "name": "Approval",
      "type": "event"
    },
    {
      "anonymous": false,
      "inputs": [
        {
          "indexed": true,
          "internalType": "address",
          "name": "owner",
          "type": "address"
        },
        {
          "indexed": true,
          "internalType": "address",
          "name": "operator",
          "type": "address"
        },
        {
          "indexed": false,
          "internalType": "bool",
          "name": "approved",
          "type": "bool"
        }
      ],
      "name": "ApprovalForAll",
      "type": "event"
    },
    {
      "anonymous": false,
      "inputs": [
        {
          "indexed": false,
          "internalType": "address",
          "name": "owner",
          "type": "address"
        }
      ],
      "name": "Initialized",
      "type": "event"
    },
    {
      "anonymous": false,
      "inputs": [
        {
          "indexed": true,
          "internalType": "address",
          "name": "previousOwner",
          "type": "address"
        },
        {
          "indexed": true,
          "internalType": "address",
          "name": "newOwner",
          "type": "address"
        }
      ],
      "name": "OwnershipTransferred",
      "type": "event"
    },
    {
      "anonymous": false,
      "inputs": [
        {
          "indexed": true,
          "internalType": "address",
          "name": "_from",
          "type": "address"
        },
        {
          "indexed": true,
          "internalType": "uint256",
          "name": "_tokenId",
          "type": "uint256"
        },
        {
          "indexed": true,
          "internalType": "address",
          "name": "_childContract",
          "type": "address"
        },
        {
          "indexed": false,
          "internalType": "uint256",
          "name": "_childTokenId",
          "type": "uint256"
        }
      ],
      "name": "ReceivedChild",
      "type": "event"
    },
    {
      "anonymous": false,
      "inputs": [
        {
          "indexed": true,
          "internalType": "uint256",
          "name": "_tokenId",
          "type": "uint256"
        },
        {
          "components": [
            {
              "internalType": "address",
              "name": "tokenContract",
              "type": "address"
            },
            {
              "internalType": "uint256[]",
              "name": "ids",
              "type": "uint256[]"
            },
            {
              "internalType": "bool",
              "name": "safeTransferable",
              "type": "bool"
            }
          ],
          "indexed": false,
          "internalType": "struct IBundleBuilder.BundleElementERC721[]",
          "name": "_bundleElements",
          "type": "tuple[]"
        }
      ],
      "name": "RemoveBundleElements",
      "type": "event"
    },
    {
      "anonymous": false,
      "inputs": [
        {
          "indexed": true,
          "internalType": "address",
          "name": "from",
          "type": "address"
        },
        {
          "indexed": true,
          "internalType": "address",
          "name": "to",
          "type": "address"
        },
        {
          "indexed": true,
          "internalType": "uint256",
          "name": "tokenId",
          "type": "uint256"
        }
      ],
      "name": "Transfer",
      "type": "event"
    },
    {
      "anonymous": false,
      "inputs": [
        {
          "indexed": true,
          "internalType": "uint256",
          "name": "tokenId",
          "type": "uint256"
        },
        {
          "indexed": true,
          "internalType": "address",
          "name": "_to",
          "type": "address"
        },
        {
          "indexed": true,
          "internalType": "address",
          "name": "_childContract",
          "type": "address"
        },
        {
          "indexed": false,
          "internalType": "uint256",
          "name": "_childTokenId",
          "type": "uint256"
        }
      ],
      "name": "TransferChild",
      "type": "event"
    },
    {
      "inputs": [],
      "name": "ERC998_MAGIC_VALUE",
      "outputs": [
        {
          "internalType": "bytes32",
          "name": "",
          "type": "bytes32"
        }
      ],
      "stateMutability": "view",
      "type": "function"
    },
    {
      "inputs": [],
      "name": "acceptTransferOwnership",
      "outputs": [],
      "stateMutability": "nonpayable",
      "type": "function"
    },
    {
      "inputs": [
        {
          "internalType": "uint256",
          "name": "_tokenId",
          "type": "uint256"
        },
        {
          "components": [
            {
              "internalType": "address",
              "name": "tokenContract",
              "type": "address"
            },
            {
              "internalType": "uint256[]",
              "name": "ids",
              "type": "uint256[]"
            },
            {
              "internalType": "bool",
              "name": "safeTransferable",
              "type": "bool"
            }
          ],
          "internalType": "struct IBundleBuilder.BundleElementERC721[]",
          "name": "_toAdd",
          "type": "tuple[]"
        },
        {
          "components": [
            {
              "internalType": "address",
              "name": "tokenContract",
              "type": "address"
            },
            {
              "internalType": "uint256[]",
              "name": "ids",
              "type": "uint256[]"
            },
            {
              "internalType": "bool",
              "name": "safeTransferable",
              "type": "bool"
            }
          ],
          "internalType": "struct IBundleBuilder.BundleElementERC721[]",
          "name": "_toRemove",
          "type": "tuple[]"
        }
      ],
      "name": "addAndRemoveBundleElements",
      "outputs": [],
      "stateMutability": "nonpayable",
      "type": "function"
    },
    {
      "inputs": [
        {
          "internalType": "uint256",
          "name": "_tokenId",
          "type": "uint256"
        },
        {
          "components": [
            {
              "internalType": "address",
              "name": "tokenContract",
              "type": "address"
            },
            {
              "internalType": "uint256[]",
              "name": "ids",
              "type": "uint256[]"
            },
            {
              "internalType": "bool",
              "name": "safeTransferable",
              "type": "bool"
            }
          ],
          "internalType": "struct IBundleBuilder.BundleElementERC721[]",
          "name": "_bundleElements",
          "type": "tuple[]"
        }
      ],
      "name": "addBundleElements",
      "outputs": [],
      "stateMutability": "nonpayable",
      "type": "function"
    },
    {
      "inputs": [],
      "name": "airdropFlashLoan",
      "outputs": [
        {
          "internalType": "address",
          "name": "",
          "type": "address"
        }
      ],
      "stateMutability": "view",
      "type": "function"
    },
    {
      "inputs": [
        {
          "internalType": "address",
          "name": "to",
          "type": "address"
        },
        {
          "internalType": "uint256",
          "name": "tokenId",
          "type": "uint256"
        }
      ],
      "name": "approve",
      "outputs": [],
      "stateMutability": "nonpayable",
      "type": "function"
    },
    {
      "inputs": [
        {
          "internalType": "address",
          "name": "owner",
          "type": "address"
        }
      ],
      "name": "balanceOf",
      "outputs": [
        {
          "internalType": "uint256",
          "name": "",
          "type": "uint256"
        }
      ],
      "stateMutability": "view",
      "type": "function"
    },
    {
      "inputs": [],
      "name": "baseURI",
      "outputs": [
        {
          "internalType": "string",
          "name": "",
          "type": "string"
        }
      ],
      "stateMutability": "view",
      "type": "function"
    },
    {
      "inputs": [
        {
          "components": [
            {
              "internalType": "address",
              "name": "tokenContract",
              "type": "address"
            },
            {
              "internalType": "uint256[]",
              "name": "ids",
              "type": "uint256[]"
            },
            {
              "internalType": "bool",
              "name": "safeTransferable",
              "type": "bool"
            }
          ],
          "internalType": "struct IBundleBuilder.BundleElementERC721[]",
          "name": "_bundleElements",
          "type": "tuple[]"
        }
      ],
      "name": "buildBundle",
      "outputs": [
        {
          "internalType": "uint256",
          "name": "",
          "type": "uint256"
        }
      ],
      "stateMutability": "nonpayable",
      "type": "function"
    },
    {
      "inputs": [],
      "name": "bundleId",
      "outputs": [
        {
          "internalType": "uint8",
          "name": "",
          "type": "uint8"
        }
      ],
      "stateMutability": "view",
      "type": "function"
    },
    {
      "inputs": [],
      "name": "burn",
      "outputs": [],
      "stateMutability": "nonpayable",
      "type": "function"
    },
    {
      "inputs": [],
      "name": "cancelTransferOwnership",
      "outputs": [],
      "stateMutability": "nonpayable",
      "type": "function"
    },
    {
      "inputs": [
        {
          "internalType": "uint256",
          "name": "_tokenId",
          "type": "uint256"
        },
        {
          "internalType": "uint256",
          "name": "_index",
          "type": "uint256"
        }
      ],
      "name": "childContractByIndex",
      "outputs": [
        {
          "internalType": "address",
          "name": "childContract",
          "type": "address"
        }
      ],
      "stateMutability": "view",
      "type": "function"
    },
    {
      "inputs": [
        {
          "internalType": "address",
          "name": "_childContract",
          "type": "address"
        },
        {
          "internalType": "uint256",
          "name": "_childTokenId",
          "type": "uint256"
        }
      ],
      "name": "childExists",
      "outputs": [
        {
          "internalType": "bool",
          "name": "",
          "type": "bool"
        }
      ],
      "stateMutability": "view",
      "type": "function"
    },
    {
      "inputs": [
        {
          "internalType": "uint256",
          "name": "_tokenId",
          "type": "uint256"
        },
        {
          "internalType": "address",
          "name": "_childContract",
          "type": "address"
        },
        {
          "internalType": "uint256",
          "name": "_index",
          "type": "uint256"
        }
      ],
      "name": "childTokenByIndex",
      "outputs": [
        {
          "internalType": "uint256",
          "name": "childTokenId",
          "type": "uint256"
        }
      ],
      "stateMutability": "view",
      "type": "function"
    },
    {
      "inputs": [
        {
          "internalType": "uint256",
          "name": "_tokenId",
          "type": "uint256"
        },
        {
          "internalType": "address",
          "name": "_receiver",
          "type": "address"
        }
      ],
      "name": "decomposeBundle",
      "outputs": [],
      "stateMutability": "nonpayable",
      "type": "function"
    },
    {
      "inputs": [
        {
          "internalType": "address",
          "name": "_tokenAddress",
          "type": "address"
        },
        {
          "internalType": "uint256",
          "name": "_tokenId",
          "type": "uint256"
        },
        {
          "internalType": "address",
          "name": "_receiver",
          "type": "address"
        }
      ],
      "name": "drainERC1155Airdrop",
      "outputs": [],
      "stateMutability": "nonpayable",
      "type": "function"
    },
    {
      "inputs": [
        {
          "internalType": "address",
          "name": "_tokenAddress",
          "type": "address"
        },
        {
          "internalType": "address",
          "name": "_receiver",
          "type": "address"
        }
      ],
      "name": "drainERC20Airdrop",
      "outputs": [],
      "stateMutability": "nonpayable",
      "type": "function"
    },
    {
      "inputs": [
        {
          "internalType": "address",
          "name": "_tokenAddress",
          "type": "address"
        },
        {
          "internalType": "uint256",
          "name": "_tokenId",
          "type": "uint256"
        },
        {
          "internalType": "address",
          "name": "_receiver",
          "type": "address"
        }
      ],
      "name": "drainERC721Airdrop",
      "outputs": [],
      "stateMutability": "nonpayable",
      "type": "function"
    },
    {
      "inputs": [
        {
          "internalType": "uint256",
          "name": "tokenId",
          "type": "uint256"
        }
      ],
      "name": "getApproved",
      "outputs": [
        {
          "internalType": "address",
          "name": "",
          "type": "address"
        }
      ],
      "stateMutability": "view",
      "type": "function"
    },
    {
      "inputs": [
        {
          "internalType": "address",
          "name": "_from",
          "type": "address"
        },
        {
          "internalType": "uint256",
          "name": "_tokenId",
          "type": "uint256"
        },
        {
          "internalType": "address",
          "name": "_childContract",
          "type": "address"
        },
        {
          "internalType": "uint256",
          "name": "_childTokenId",
          "type": "uint256"
        }
      ],
      "name": "getChild",
      "outputs": [],
      "stateMutability": "nonpayable",
      "type": "function"
    },
    {
      "inputs": [
        {
          "internalType": "address",
          "name": "_admin",
          "type": "address"
        },
        {
          "internalType": "address",
          "name": "_owner",
          "type": "address"
        },
        {
          "internalType": "string",
          "name": "_customBaseURI",
          "type": "string"
        }
      ],
      "name": "initialize",
      "outputs": [],
      "stateMutability": "nonpayable",
      "type": "function"
    },
    {
      "inputs": [
        {
          "internalType": "address",
          "name": "owner",
          "type": "address"
        },
        {
          "internalType": "address",
          "name": "operator",
          "type": "address"
        }
      ],
      "name": "isApprovedForAll",
      "outputs": [
        {
          "internalType": "bool",
          "name": "",
          "type": "bool"
        }
      ],
      "stateMutability": "view",
      "type": "function"
    },
    {
      "inputs": [],
      "name": "lastBundleOwner",
      "outputs": [
        {
          "internalType": "address",
          "name": "",
          "type": "address"
        }
      ],
      "stateMutability": "view",
      "type": "function"
    },
    {
      "inputs": [],
      "name": "name",
      "outputs": [
        {
          "internalType": "string",
          "name": "",
          "type": "string"
        }
      ],
      "stateMutability": "view",
      "type": "function"
    },
    {
      "inputs": [
        {
          "internalType": "address",
          "name": "",
          "type": "address"
        },
        {
          "internalType": "address",
          "name": "",
          "type": "address"
        },
        {
          "internalType": "uint256[]",
          "name": "",
          "type": "uint256[]"
        },
        {
          "internalType": "uint256[]",
          "name": "",
          "type": "uint256[]"
        },
        {
          "internalType": "bytes",
          "name": "",
          "type": "bytes"
        }
      ],
      "name": "onERC1155BatchReceived",
      "outputs": [
        {
          "internalType": "bytes4",
          "name": "",
          "type": "bytes4"
        }
      ],
      "stateMutability": "nonpayable",
      "type": "function"
    },
    {
      "inputs": [
        {
          "internalType": "address",
          "name": "",
          "type": "address"
        },
        {
          "internalType": "address",
          "name": "",
          "type": "address"
        },
        {
          "internalType": "uint256",
          "name": "",
          "type": "uint256"
        },
        {
          "internalType": "uint256",
          "name": "",
          "type": "uint256"
        },
        {
          "internalType": "bytes",
          "name": "",
          "type": "bytes"
        }
      ],
      "name": "onERC1155Received",
      "outputs": [
        {
          "internalType": "bytes4",
          "name": "",
          "type": "bytes4"
        }
      ],
      "stateMutability": "nonpayable",
      "type": "function"
    },
    {
      "inputs": [
        {
          "internalType": "address",
          "name": "",
          "type": "address"
        },
        {
          "internalType": "address",
          "name": "_from",
          "type": "address"
        },
        {
          "internalType": "uint256",
          "name": "_childTokenId",
          "type": "uint256"
        },
        {
          "internalType": "bytes",
          "name": "_data",
          "type": "bytes"
        }
      ],
      "name": "onERC721Received",
      "outputs": [
        {
          "internalType": "bytes4",
          "name": "",
          "type": "bytes4"
        }
      ],
      "stateMutability": "nonpayable",
      "type": "function"
    },
    {
      "inputs": [],
      "name": "owner",
      "outputs": [
        {
          "internalType": "address",
          "name": "",
          "type": "address"
        }
      ],
      "stateMutability": "view",
      "type": "function"
    },
    {
      "inputs": [
        {
          "internalType": "uint256",
          "name": "tokenId",
          "type": "uint256"
        }
      ],
      "name": "ownerOf",
      "outputs": [
        {
          "internalType": "address",
          "name": "",
          "type": "address"
        }
      ],
      "stateMutability": "view",
      "type": "function"
    },
    {
      "inputs": [
        {
          "internalType": "address",
          "name": "_childContract",
          "type": "address"
        },
        {
          "internalType": "uint256",
          "name": "_childTokenId",
          "type": "uint256"
        }
      ],
      "name": "ownerOfChild",
      "outputs": [
        {
          "internalType": "bytes32",
          "name": "parentTokenOwner",
          "type": "bytes32"
        },
        {
          "internalType": "uint256",
          "name": "parentTokenId",
          "type": "uint256"
        }
      ],
      "stateMutability": "view",
      "type": "function"
    },
    {
      "inputs": [
        {
          "internalType": "address",
          "name": "_asset",
          "type": "address"
        }
      ],
      "name": "permittedAsset",
      "outputs": [
        {
          "internalType": "bool",
          "name": "",
          "type": "bool"
        }
      ],
      "stateMutability": "view",
      "type": "function"
    },
    {
      "inputs": [],
      "name": "permittedNfts",
      "outputs": [
        {
          "internalType": "address",
          "name": "",
          "type": "address"
        }
      ],
      "stateMutability": "view",
      "type": "function"
    },
    {
      "inputs": [
        {
          "internalType": "address",
          "name": "_nftContract",
          "type": "address"
        },
        {
          "internalType": "uint256",
          "name": "_nftId",
          "type": "uint256"
        },
        {
          "internalType": "address",
          "name": "_target",
          "type": "address"
        },
        {
          "internalType": "bytes",
          "name": "_data",
          "type": "bytes"
        },
        {
          "internalType": "address",
          "name": "_nftAirdrop",
          "type": "address"
        },
        {
          "internalType": "uint256",
          "name": "_nftAirdropId",
          "type": "uint256"
        },
        {
          "internalType": "bool",
          "name": "_is1155",
          "type": "bool"
        },
        {
          "internalType": "uint256",
          "name": "_nftAirdropAmount",
          "type": "uint256"
        },
        {
          "internalType": "address",
          "name": "_beneficiary",
          "type": "address"
        }
      ],
      "name": "pullAirdrop",
      "outputs": [],
      "stateMutability": "nonpayable",
      "type": "function"
    },
    {
      "inputs": [],
      "name": "rejectTransferOwnership",
      "outputs": [],
      "stateMutability": "nonpayable",
      "type": "function"
    },
    {
      "inputs": [
        {
          "internalType": "uint256",
          "name": "_tokenId",
          "type": "uint256"
        },
        {
          "components": [
            {
              "internalType": "address",
              "name": "tokenContract",
              "type": "address"
            },
            {
              "internalType": "uint256[]",
              "name": "ids",
              "type": "uint256[]"
            },
            {
              "internalType": "bool",
              "name": "safeTransferable",
              "type": "bool"
            }
          ],
          "internalType": "struct IBundleBuilder.BundleElementERC721[]",
          "name": "_bundleElements",
          "type": "tuple[]"
        }
      ],
      "name": "removeBundleElements",
      "outputs": [],
      "stateMutability": "nonpayable",
      "type": "function"
    },
    {
      "inputs": [
        {
          "internalType": "address",
          "name": "_newOwnerCandidate",
          "type": "address"
        }
      ],
      "name": "requestTransferOwnership",
      "outputs": [],
      "stateMutability": "nonpayable",
      "type": "function"
    },
    {
      "inputs": [
        {
          "internalType": "address",
          "name": "_tokenAddress",
          "type": "address"
        },
        {
          "internalType": "address",
          "name": "_receiver",
          "type": "address"
        }
      ],
      "name": "rescueERC20",
      "outputs": [],
      "stateMutability": "nonpayable",
      "type": "function"
    },
    {
      "inputs": [
        {
          "internalType": "address",
          "name": "_tokenAddress",
          "type": "address"
        },
        {
          "internalType": "uint256",
          "name": "_tokenId",
          "type": "uint256"
        },
        {
          "internalType": "address",
          "name": "_receiver",
          "type": "address"
        }
      ],
      "name": "rescueERC721",
      "outputs": [],
      "stateMutability": "nonpayable",
      "type": "function"
    },
    {
      "inputs": [
        {
          "internalType": "uint256",
          "name": "_tokenId",
          "type": "uint256"
        }
      ],
      "name": "rootOwnerOf",
      "outputs": [
        {
          "internalType": "bytes32",
          "name": "rootOwner",
          "type": "bytes32"
        }
      ],
      "stateMutability": "view",
      "type": "function"
    },
    {
      "inputs": [
        {
          "internalType": "address",
          "name": "_childContract",
          "type": "address"
        },
        {
          "internalType": "uint256",
          "name": "_childTokenId",
          "type": "uint256"
        }
      ],
      "name": "rootOwnerOfChild",
      "outputs": [
        {
          "internalType": "bytes32",
          "name": "rootOwner",
          "type": "bytes32"
        }
      ],
      "stateMutability": "view",
      "type": "function"
    },
    {
      "inputs": [
        {
          "internalType": "address",
          "name": "_to",
          "type": "address"
        }
      ],
      "name": "safeMint",
      "outputs": [
        {
          "internalType": "uint256",
          "name": "",
          "type": "uint256"
        }
      ],
      "stateMutability": "nonpayable",
      "type": "function"
    },
    {
      "inputs": [
        {
          "internalType": "uint256",
          "name": "_fromTokenId",
          "type": "uint256"
        },
        {
          "internalType": "address",
          "name": "_to",
          "type": "address"
        },
        {
          "internalType": "address",
          "name": "_childContract",
          "type": "address"
        },
        {
          "internalType": "uint256",
          "name": "_childTokenId",
          "type": "uint256"
        }
      ],
      "name": "safeTransferChild",
      "outputs": [],
      "stateMutability": "nonpayable",
      "type": "function"
    },
    {
      "inputs": [
        {
          "internalType": "uint256",
          "name": "_fromTokenId",
          "type": "uint256"
        },
        {
          "internalType": "address",
          "name": "_to",
          "type": "address"
        },
        {
          "internalType": "address",
          "name": "_childContract",
          "type": "address"
        },
        {
          "internalType": "uint256",
          "name": "_childTokenId",
          "type": "uint256"
        },
        {
          "internalType": "bytes",
          "name": "_data",
          "type": "bytes"
        }
      ],
      "name": "safeTransferChild",
      "outputs": [],
      "stateMutability": "nonpayable",
      "type": "function"
    },
    {
      "inputs": [
        {
          "internalType": "address",
          "name": "from",
          "type": "address"
        },
        {
          "internalType": "address",
          "name": "to",
          "type": "address"
        },
        {
          "internalType": "uint256",
          "name": "tokenId",
          "type": "uint256"
        }
      ],
      "name": "safeTransferFrom",
      "outputs": [],
      "stateMutability": "nonpayable",
      "type": "function"
    },
    {
      "inputs": [
        {
          "internalType": "address",
          "name": "from",
          "type": "address"
        },
        {
          "internalType": "address",
          "name": "to",
          "type": "address"
        },
        {
          "internalType": "uint256",
          "name": "tokenId",
          "type": "uint256"
        },
        {
          "internalType": "bytes",
          "name": "_data",
          "type": "bytes"
        }
      ],
      "name": "safeTransferFrom",
      "outputs": [],
      "stateMutability": "nonpayable",
      "type": "function"
    },
    {
      "inputs": [
        {
          "internalType": "uint256",
          "name": "",
          "type": "uint256"
        },
        {
          "internalType": "address",
          "name": "",
          "type": "address"
        }
      ],
      "name": "sendElementsToPersonalBundler",
      "outputs": [],
      "stateMutability": "nonpayable",
      "type": "function"
    },
    {
      "inputs": [
        {
          "internalType": "address",
          "name": "operator",
          "type": "address"
        },
        {
          "internalType": "bool",
          "name": "approved",
          "type": "bool"
        }
      ],
      "name": "setApprovalForAll",
      "outputs": [],
      "stateMutability": "nonpayable",
      "type": "function"
    },
    {
      "inputs": [
        {
          "internalType": "string",
          "name": "_customBaseURI",
          "type": "string"
        }
      ],
      "name": "setBaseURI",
      "outputs": [],
      "stateMutability": "nonpayable",
      "type": "function"
    },
    {
      "inputs": [
        {
          "internalType": "bytes4",
          "name": "_interfaceId",
          "type": "bytes4"
        }
      ],
      "name": "supportsInterface",
      "outputs": [
        {
          "internalType": "bool",
          "name": "",
          "type": "bool"
        }
      ],
      "stateMutability": "view",
      "type": "function"
    },
    {
      "inputs": [],
      "name": "symbol",
      "outputs": [
        {
          "internalType": "string",
          "name": "",
          "type": "string"
        }
      ],
      "stateMutability": "view",
      "type": "function"
    },
    {
      "inputs": [
        {
          "internalType": "uint256",
          "name": "index",
          "type": "uint256"
        }
      ],
      "name": "tokenByIndex",
      "outputs": [
        {
          "internalType": "uint256",
          "name": "",
          "type": "uint256"
        }
      ],
      "stateMutability": "view",
      "type": "function"
    },
    {
      "inputs": [],
      "name": "tokenCount",
      "outputs": [
        {
          "internalType": "uint256",
          "name": "",
          "type": "uint256"
        }
      ],
      "stateMutability": "view",
      "type": "function"
    },
    {
      "inputs": [
        {
          "internalType": "address",
          "name": "owner",
          "type": "address"
        },
        {
          "internalType": "uint256",
          "name": "index",
          "type": "uint256"
        }
      ],
      "name": "tokenOfOwnerByIndex",
      "outputs": [
        {
          "internalType": "uint256",
          "name": "",
          "type": "uint256"
        }
      ],
      "stateMutability": "view",
      "type": "function"
    },
    {
      "inputs": [
        {
          "internalType": "uint256",
          "name": "tokenId",
          "type": "uint256"
        }
      ],
      "name": "tokenURI",
      "outputs": [
        {
          "internalType": "string",
          "name": "",
          "type": "string"
        }
      ],
      "stateMutability": "view",
      "type": "function"
    },
    {
      "inputs": [
        {
          "internalType": "uint256",
          "name": "_tokenId",
          "type": "uint256"
        }
      ],
      "name": "totalChildContracts",
      "outputs": [
        {
          "internalType": "uint256",
          "name": "",
          "type": "uint256"
        }
      ],
      "stateMutability": "view",
      "type": "function"
    },
    {
      "inputs": [
        {
          "internalType": "uint256",
          "name": "_tokenId",
          "type": "uint256"
        },
        {
          "internalType": "address",
          "name": "_childContract",
          "type": "address"
        }
      ],
      "name": "totalChildTokens",
      "outputs": [
        {
          "internalType": "uint256",
          "name": "",
          "type": "uint256"
        }
      ],
      "stateMutability": "view",
      "type": "function"
    },
    {
      "inputs": [],
      "name": "totalSupply",
      "outputs": [
        {
          "internalType": "uint256",
          "name": "",
          "type": "uint256"
        }
      ],
      "stateMutability": "view",
      "type": "function"
    },
    {
      "inputs": [
        {
          "internalType": "uint256",
          "name": "_fromTokenId",
          "type": "uint256"
        },
        {
          "internalType": "address",
          "name": "_to",
          "type": "address"
        },
        {
          "internalType": "address",
          "name": "_childContract",
          "type": "address"
        },
        {
          "internalType": "uint256",
          "name": "_childTokenId",
          "type": "uint256"
        }
      ],
      "name": "transferChild",
      "outputs": [],
      "stateMutability": "nonpayable",
      "type": "function"
    },
    {
      "inputs": [
        {
          "internalType": "uint256",
          "name": "",
          "type": "uint256"
        },
        {
          "internalType": "address",
          "name": "",
          "type": "address"
        },
        {
          "internalType": "uint256",
          "name": "",
          "type": "uint256"
        },
        {
          "internalType": "address",
          "name": "",
          "type": "address"
        },
        {
          "internalType": "uint256",
          "name": "",
          "type": "uint256"
        },
        {
          "internalType": "bytes",
          "name": "",
          "type": "bytes"
        }
      ],
      "name": "transferChildToParent",
      "outputs": [],
      "stateMutability": "nonpayable",
      "type": "function"
    },
    {
      "inputs": [
        {
          "internalType": "address",
          "name": "from",
          "type": "address"
        },
        {
          "internalType": "address",
          "name": "to",
          "type": "address"
        },
        {
          "internalType": "uint256",
          "name": "tokenId",
          "type": "uint256"
        }
      ],
      "name": "transferFrom",
      "outputs": [],
      "stateMutability": "nonpayable",
      "type": "function"
    }
  ],
  "transactionHash": "0x66cd58cf9ea911facee552f33a1e826106427c6468badae7a4c1546eba4902f2",
  "args": [
    "0x42e0911810C50FF07B12305365495aeb0b2b4f93",
    "0x78A911794A51A65cA9be8F94032331F3e8b4F1C2",
    "0xE3608d172168a1e6c2dc54777554f2FB3a72ac72"
  ],
  "solcInputHash": "4d2fe29bb9bcc7b729a2a79c750939bf",
  "bytecode": "0x60c06040526000600b553480156200001657600080fd5b5060405162005e7838038062005e78833981016040819052620000399162000ac1565b826040518060200160405280600081525060405180602001604052806000815250604051806020016040528060008152508585858585816000908162000080919062000baf565b5060016200008f828262000baf565b50506001600a5550620000a281620000e2565b506001600160a01b03808316608052811660a052620000c18362000134565b505050505050620000d883620001a160201b60201c565b5050505062000e37565b600f80546001600160a01b038381166001600160a01b0319831681179093556040519116919082907f8be0079c531659141344cd1fd0a4f28419497f9722a3daafe3b4186f6b6457e090600090a35050565b60008151116200015457604051806020016040528060008152506200018e565b806200016b466200028360201b6200232c1760201c565b6040516020016200017e92919062000ca1565b6040516020818303038152906040525b6011906200019d908262000baf565b5050565b6012546000906201000090046001600160a01b03161580620001d357506012546201000090046001600160a01b031633145b620002255760405162461bcd60e51b815260206004820152601660248201527f6f6e6c79206c6173742062756e646c65206f776e65720000000000000000000060448201526064015b60405180910390fd5b600b5415620002675760405162461bcd60e51b815260206004820152600d60248201526c6f6e6c7920312062756e646c6560981b60448201526064016200021c565b6200027d82620003a360201b6200242c1760201c565b92915050565b606081600003620002ab5750506040805180820190915260018152600360fc1b602082015290565b8160005b8115620002db5780620002c28162000cf6565b9150620002d39050600a8362000d28565b9150620002af565b6000816001600160401b03811115620002f857620002f862000b0b565b6040519080825280601f01601f19166020018201604052801562000323576020820181803683370190505b5090505b84156200039b576200033b60018362000d3f565b91506200034a600a8662000d55565b6200035790603062000d6c565b60f81b8183815181106200036f576200036f62000d82565b60200101906001600160f81b031916908160001a90535062000393600a8662000d28565b945062000327565b949350505050565b600080600b60008154620003b79062000cf6565b918290555090506200027d83826200019d828260405180602001604052806000815250620003e660201b60201c565b620003f283836200045e565b620004016000848484620005b4565b620004595760405162461bcd60e51b8152602060048201526032602482015260008051602062005e5883398151915260448201527131b2b4bb32b91034b6b83632b6b2b73a32b960711b60648201526084016200021c565b505050565b6001600160a01b038216620004b65760405162461bcd60e51b815260206004820181905260248201527f4552433732313a206d696e7420746f20746865207a65726f206164647265737360448201526064016200021c565b6000818152600260205260409020546001600160a01b0316156200051d5760405162461bcd60e51b815260206004820152601c60248201527f4552433732313a20746f6b656e20616c7265616479206d696e7465640000000060448201526064016200021c565b6200052b600083836200070f565b6001600160a01b03821660009081526003602052604081208054600192906200055690849062000d6c565b909155505060008181526002602052604080822080546001600160a01b0319166001600160a01b03861690811790915590518392907fddf252ad1be2c89b69c2b068fc378daa952ba7f163c4a11628f55a4df523b3ef908290a45050565b6000620005d5846001600160a01b03166200078160201b6200244f1760201c565b156200070457604051630a85bd0160e11b81526001600160a01b0385169063150b7a02906200060f90339089908890889060040162000d98565b6020604051808303816000875af19250505080156200064d575060408051601f3d908101601f191682019092526200064a9181019062000dee565b60015b620006e9573d8080156200067e576040519150601f19603f3d011682016040523d82523d6000602084013e62000683565b606091505b508051600003620006e15760405162461bcd60e51b8152602060048201526032602482015260008051602062005e5883398151915260448201527131b2b4bb32b91034b6b83632b6b2b73a32b960711b60648201526084016200021c565b805181602001fd5b6001600160e01b031916630a85bd0160e11b1490506200039b565b506001949350505050565b306001600160a01b03831603620007695760405162461bcd60e51b815260206004820152601a60248201527f6e65737465642062756e646c6573206e6f7420616c6c6f77656400000000000060448201526064016200021c565b620004598383836200078760201b620024551760201c565b3b151590565b6200079f8383836200045960201b62000bef1760201c565b6001600160a01b038316620007fd57620007f781600880546000838152600960205260408120829055600182018355919091527ff3f7a9fe364faab93b216da50a3214154f22a0a2b415b23a84c8169e8b636ee30155565b62000823565b816001600160a01b0316836001600160a01b031614620008235762000823838262000863565b6001600160a01b0382166200083d57620004598162000910565b826001600160a01b0316826001600160a01b0316146200045957620004598282620009ca565b600060016200087d8462000a1b60201b620015ef1760201c565b62000889919062000d3f565b600083815260076020526040902054909150808214620008dd576001600160a01b03841660009081526006602090815260408083208584528252808320548484528184208190558352600790915290208190555b5060009182526007602090815260408084208490556001600160a01b039094168352600681528383209183525290812055565b600854600090620009249060019062000d3f565b600083815260096020526040812054600880549394509092849081106200094f576200094f62000d82565b90600052602060002001549050806008838154811062000973576200097362000d82565b6000918252602080832090910192909255828152600990915260408082208490558582528120556008805480620009ae57620009ae62000e21565b6001900381819060005260206000200160009055905550505050565b6000620009e28362000a1b60201b620015ef1760201c565b6001600160a01b039093166000908152600660209081526040808320868452825280832085905593825260079052919091209190915550565b60006001600160a01b03821662000a885760405162461bcd60e51b815260206004820152602a60248201527f4552433732313a2062616c616e636520717565727920666f7220746865207a65604482015269726f206164647265737360b01b60648201526084016200021c565b506001600160a01b031660009081526003602052604090205490565b80516001600160a01b038116811462000abc57600080fd5b919050565b60008060006060848603121562000ad757600080fd5b62000ae28462000aa4565b925062000af26020850162000aa4565b915062000b026040850162000aa4565b90509250925092565b634e487b7160e01b600052604160045260246000fd5b600181811c9082168062000b3657607f821691505b60208210810362000b5757634e487b7160e01b600052602260045260246000fd5b50919050565b601f8211156200045957600081815260208120601f850160051c8101602086101562000b865750805b601f850160051c820191505b8181101562000ba75782815560010162000b92565b505050505050565b81516001600160401b0381111562000bcb5762000bcb62000b0b565b62000be38162000bdc845462000b21565b8462000b5d565b602080601f83116001811462000c1b576000841562000c025750858301515b600019600386901b1c1916600185901b17855562000ba7565b600085815260208120601f198616915b8281101562000c4c5788860151825594840194600190910190840162000c2b565b508582101562000c6b5787850151600019600388901b60f8161c191681555b5050505050600190811b01905550565b60005b8381101562000c9857818101518382015260200162000c7e565b50506000910152565b6000835162000cb581846020880162000c7b565b83519083019062000ccb81836020880162000c7b565b602f60f81b9101908152600101949350505050565b634e487b7160e01b600052601160045260246000fd5b60006001820162000d0b5762000d0b62000ce0565b5060010190565b634e487b7160e01b600052601260045260246000fd5b60008262000d3a5762000d3a62000d12565b500490565b818103818111156200027d576200027d62000ce0565b60008262000d675762000d6762000d12565b500690565b808201808211156200027d576200027d62000ce0565b634e487b7160e01b600052603260045260246000fd5b600060018060a01b03808716835280861660208401525083604083015260806060830152825180608084015262000dd78160a085016020870162000c7b565b601f01601f19169190910160a00195945050505050565b60006020828403121562000e0157600080fd5b81516001600160e01b03198116811462000e1a57600080fd5b9392505050565b634e487b7160e01b600052603160045260246000fd5b60805160a051614fdf62000e79600039600081816106d30152818161178b01528181611810015261189c0152600081816103b901526114e90152614fdf6000f3fe608060405234801561001057600080fd5b50600436106103af5760003560e01c8063676a196a116101f4578063a57a63b21161011a578063bff86757116100ad578063eadb80b81161007c578063eadb80b814610891578063ed81cdda146108b9578063f23a6e61146108cc578063fa3e4705146108ec57600080fd5b8063bff8675714610845578063c87b56dd14610858578063df7490861461086b578063e985e9c51461087e57600080fd5b8063b88d4fde116100e9578063b88d4fde146107ea578063ba6b5f96146107fd578063bc197c8114610810578063bef44f181461083257600080fd5b8063a57a63b214610797578063a7103afa146107aa578063aa8062ef146107bd578063ac4e35ea146107d757600080fd5b80638da5cb5b1161019257806395d89b411161016157806395d89b41146107475780639d6fa618146107685780639f181b5e1461077b578063a22cb4651461078457600080fd5b80638da5cb5b146107085780638da7d0b5146107195780638daf2d611461072c57806392fede001461073f57600080fd5b80637b371107116101ce5780637b371107146106b35780637eef0896146106bb578063804f3fb2146106ce5780638d81f51e146106f557600080fd5b8063676a196a146106855780636c0360eb1461069857806370a08231146106a057600080fd5b806334854fda116102d95780634f6ccce7116102775780635680a3ad116102465780635680a3ad1461061f5780635d799f87146106575780635f992fdd1461066a5780636352211e1461067257600080fd5b80634f6ccce7146105cd5780635163a1c3146105e0578063518ebfb9146105f357806355f804b31461060c57600080fd5b806342842e0e116102b357806342842e0e1461058c57806343a61a8e1461059f57806344df8e70146105b25780634571e3a6146105ba57600080fd5b806334854fda1461055357806335b21ceb1461056657806340d097c31461057957600080fd5b80630d5a621b116103515780631d98f3c5116103205780631d98f3c51461050c57806322ab2e6f1461051f57806323b872dd1461052d5780632f745c591461054057600080fd5b80630d5a621b146104a4578063150b7a02146104b7578063160b01a1146104e357806318160ddd1461050457600080fd5b806306fdde031161038d57806306fdde0314610430578063081812fc1461046b57806308937f621461047e578063095ea7b31461049157600080fd5b806301cf6902146103b457806301ffc9a7146103f857806305b406cf1461041b575b600080fd5b6103db7f000000000000000000000000000000000000000000000000000000000000000081565b6040516001600160a01b0390911681526020015b60405180910390f35b61040b610406366004613f23565b6108ff565b60405190151581526020016103ef565b61042e610429366004613f55565b61092a565b005b60408051808201909152601681527527232a2334902832b939b7b730b610213ab7323632b960511b60208201525b6040516103ef9190613fde565b6103db610479366004613ff1565b610a02565b61042e61048c3660046140e7565b610a97565b61042e61049f366004614164565b610adf565b6103db6104b2366004614190565b610bf4565b6104ca6104c53660046141f3565b610c13565b6040516001600160e01b031990911681526020016103ef565b6104f66104f1366004614265565b610c98565b6040519081526020016103ef565b6008546104f6565b61042e61051a36600461429d565b610ccc565b6104f663cd740db560e01b81565b61042e61053b3660046142e5565b610da8565b6104f661054e366004614164565b610dd9565b6104f6610561366004614497565b610e6f565b6104f66105743660046144cb565b610e87565b6104f66105873660046144f0565b610eb2565b61042e61059a3660046142e5565b610f71565b6104f66105ad366004613ff1565b610f8c565b61042e610f99565b61042e6105c836600461450d565b61102f565b6104f66105db366004613ff1565b611168565b61042e6105ee36600461456e565b6111fb565b6012546103db906201000090046001600160a01b031681565b61042e61061a3660046145b0565b611384565b61040b61062d366004614164565b6001600160a01b03919091166000908152600e602090815260408083209383529290522054151590565b61042e610665366004613f55565b6113ba565b61042e6113e4565b6103db610680366004613ff1565b611450565b61040b6106933660046144f0565b6114c7565b61045e611561565b6104f66106ae3660046144f0565b6115ef565b61042e611676565b61042e6106c93660046145e4565b6116e5565b6103db7f000000000000000000000000000000000000000000000000000000000000000081565b61042e6107033660046146a3565b61191b565b600f546001600160a01b03166103db565b6104f6610727366004613ff1565b611a1c565b61042e61073a3660046144cb565b611a33565b61042e611a7b565b60408051808201909152600581526450424e464960d81b602082015261045e565b61042e6107763660046144f0565b611aa5565b6104f6600b5481565b61042e610792366004614718565b611b56565b61042e6107a5366004614746565b611c1a565b61042e6107b8366004614746565b611c28565b6107c5600181565b60405160ff90911681526020016103ef565b61042e6107e536600461456e565b611c32565b61042e6107f836600461478c565b611d72565b61042e61080b3660046147f7565b611da4565b6104ca61081e366004614873565b63bc197c8160e01b98975050505050505050565b61042e61084036600461429d565b611e9c565b61042e610853366004614931565b611f0e565b61045e610866366004613ff1565b611f22565b61042e6108793660046144cb565b611ffc565b61040b61088c366004613f55565b612162565b6108a461089f366004614164565b612190565b604080519283526020830191909152016103ef565b6104f66108c7366004614164565b612222565b6104ca6108da366004614993565b63f23a6e6160e01b9695505050505050565b61042e6108fa36600461456e565b612302565b60006001600160e01b03198216630271189760e51b148061092457506109248261250d565b92915050565b61093261254d565b6040516370a0823160e01b815230600482015282906000906001600160a01b038316906370a0823190602401602060405180830381865afa15801561097b573d6000803e3d6000fd5b505050506040513d601f19601f8201168201806040525081019061099f9190614a0e565b9050600081116109e85760405162461bcd60e51b815260206004820152600f60248201526e1b9bc81d1bdad95b9cc81bdddb9959608a1b60448201526064015b60405180910390fd5b6109fc6001600160a01b03831684836125a2565b50505050565b6000818152600260205260408120546001600160a01b0316610a7b5760405162461bcd60e51b815260206004820152602c60248201527f4552433732313a20617070726f76656420717565727920666f72206e6f6e657860448201526b34b9ba32b73a103a37b5b2b760a11b60648201526084016109df565b506000908152600460205260409020546001600160a01b031690565b60405162461bcd60e51b815260206004820152601d60248201527f424f54544f4d5f55505f4348494c445f4e4f545f535550504f5254454400000060448201526064016109df565b6000610aea82611450565b9050806001600160a01b0316836001600160a01b031603610b575760405162461bcd60e51b815260206004820152602160248201527f4552433732313a20617070726f76616c20746f2063757272656e74206f776e656044820152603960f91b60648201526084016109df565b336001600160a01b0382161480610b735750610b738133612162565b610be55760405162461bcd60e51b815260206004820152603860248201527f4552433732313a20617070726f76652063616c6c6572206973206e6f74206f7760448201527f6e6572206e6f7220617070726f76656420666f7220616c6c000000000000000060648201526084016109df565b610bef83836125f4565b505050565b6000828152600c60205260408120610c0c9083612662565b9392505050565b60006002600a5403610c375760405162461bcd60e51b81526004016109df90614a27565b6002600a81905550610c8185338686868080601f01602080910402602001604051908101604052809392919081815260200183838082843760009201919091525061266e92505050565b50630a85bd0160e11b6001600a5595945050505050565b6000838152600d602090815260408083206001600160a01b03861684529091528120610cc49083612662565b949350505050565b6002600a5403610cee5760405162461bcd60e51b81526004016109df90614a27565b6002600a55610cff848484846126a0565b604051632142170760e11b81526001600160a01b038316906342842e0e90610d2f90309087908690600401614a5e565b600060405180830381600087803b158015610d4957600080fd5b505af1158015610d5d573d6000803e3d6000fd5b50505050816001600160a01b0316836001600160a01b031685600080516020614fb383398151915284604051610d9591815260200190565b60405180910390a450506001600a555050565b610db233826126bf565b610dce5760405162461bcd60e51b81526004016109df90614a82565b610bef83838361278e565b6000610de4836115ef565b8210610e465760405162461bcd60e51b815260206004820152602b60248201527f455243373231456e756d657261626c653a206f776e657220696e646578206f7560448201526a74206f6620626f756e647360a81b60648201526084016109df565b506001600160a01b03919091166000908152600660209081526040808320938352929052205490565b600080610e7b33610eb2565b90506109248184612939565b6000828152600d602090815260408083206001600160a01b03851684529091528120610c0c90612c1e565b6012546000906201000090046001600160a01b03161580610ee357506012546201000090046001600160a01b031633145b610f285760405162461bcd60e51b815260206004820152601660248201527537b7363c903630b9ba10313ab73236329037bbb732b960511b60448201526064016109df565b600b5415610f685760405162461bcd60e51b815260206004820152600d60248201526c6f6e6c7920312062756e646c6560981b60448201526064016109df565b6109248261242c565b610bef83838360405180602001604052806000815250611d72565b6000610924600083612222565b610fa161254d565b6012805462010000600160b01b031916336201000002179055610fc46001611a1c565b1561100a5760405162461bcd60e51b815260206004820152601660248201527562756e646c652068617320746f20626520656d70747960501b60448201526064016109df565b6001600b600082825461101d9190614ae9565b9091555061102d90506001612c28565b565b601254610100900460ff1680611048575060125460ff16155b6110ab5760405162461bcd60e51b815260206004820152602e60248201527f496e697469616c697a61626c653a20636f6e747261637420697320616c72656160448201526d191e481a5b9a5d1a585b1a5e995960921b60648201526084016109df565b601254610100900460ff161580156110cd576012805461ffff19166101011790555b6002600a54036110ef5760405162461bcd60e51b81526004016109df90614a27565b6002600a556110fd84612ccf565b61110682612d21565b61110f83610eb2565b506040516001600160a01b03841681527f908408e307fc569b417f6cbec5d5a06f44a0a505ac0479b47d421a4b2fd6a1e69060200160405180910390a16001600a5580156109fc576012805461ff001916905550505050565b600061117360085490565b82106111d65760405162461bcd60e51b815260206004820152602c60248201527f455243373231456e756d657261626c653a20676c6f62616c20696e646578206f60448201526b7574206f6620626f756e647360a01b60648201526084016109df565b600882815481106111e9576111e9614afc565b90600052602060002001549050919050565b61120361254d565b6001600160a01b0383166000908152600e6020908152604080832085845290915290205483901561126b5760405162461bcd60e51b8152602060048201526012602482015271746f6b656e20697320696e2062756e646c6560701b60448201526064016109df565b6040516331a9108f60e11b81526004810184905230906001600160a01b03831690636352211e90602401602060405180830381865afa1580156112b2573d6000803e3d6000fd5b505050506040513d601f19601f820116820180604052508101906112d69190614b12565b6001600160a01b03161461131c5760405162461bcd60e51b815260206004820152600d60248201526c1b999d081b9bdd081bdddb9959609a1b60448201526064016109df565b604051632142170760e11b81526001600160a01b038216906342842e0e9061134c90309086908890600401614a5e565b600060405180830381600087803b15801561136657600080fd5b505af115801561137a573d6000803e3d6000fd5b5050505050505050565b600f546001600160a01b031633146113ae5760405162461bcd60e51b81526004016109df90614b2f565b6113b781612d21565b50565b600f546001600160a01b031633146109325760405162461bcd60e51b81526004016109df90614b2f565b6010546001600160a01b0316331461143e5760405162461bcd60e51b815260206004820152601c60248201527f4f776e61626c653a206e6f74206f776e65722063616e6469646174650000000060448201526064016109df565b601080546001600160a01b0319169055565b6000818152600260205260408120546001600160a01b0316806109245760405162461bcd60e51b815260206004820152602960248201527f4552433732313a206f776e657220717565727920666f72206e6f6e657869737460448201526832b73a103a37b5b2b760b91b60648201526084016109df565b604051636651f11d60e01b81526001600160a01b0382811660048301526000917f000000000000000000000000000000000000000000000000000000000000000091839190831690636651f11d90602401602060405180830381865afa158015611535573d6000803e3d6000fd5b505050506040513d601f19601f820116820180604052508101906115599190614a0e565b119392505050565b6011805461156e90614b64565b80601f016020809104026020016040519081016040528092919081815260200182805461159a90614b64565b80156115e75780601f106115bc576101008083540402835291602001916115e7565b820191906000526020600020905b8154815290600101906020018083116115ca57829003601f168201915b505050505081565b60006001600160a01b03821661165a5760405162461bcd60e51b815260206004820152602a60248201527f4552433732313a2062616c616e636520717565727920666f7220746865207a65604482015269726f206164647265737360b01b60648201526084016109df565b506001600160a01b031660009081526003602052604090205490565b6010546001600160a01b031633146116d05760405162461bcd60e51b815260206004820152601c60248201527f4f776e61626c653a206e6f74206f776e65722063616e6469646174650000000060448201526064016109df565b60105461143e906001600160a01b0316612ccf565b6001600160a01b038a166000908152600e602090815260408083208c84529091528120549061171382610f8c565b90506001600160a01b03811633146117795760405162461bcd60e51b815260206004820152602360248201527f70756c6c41697264726f70206d73672e73656e646572206e6f7420656c696769604482015262626c6560e81b60648201526084016109df565b8b6001600160a01b03166342842e0e307f00000000000000000000000000000000000000000000000000000000000000008e6040518463ffffffff1660e01b81526004016117c993929190614a5e565b600060405180830381600087803b1580156117e357600080fd5b505af11580156117f7573d6000803e3d6000fd5b5050604051633f77844b60e11b81526001600160a01b037f0000000000000000000000000000000000000000000000000000000000000000169250637eef08969150611859908f908f908f908f908f908f908f908f908f908f90600401614b9e565b600060405180830381600087803b15801561187357600080fd5b505af1158015611887573d6000803e3d6000fd5b505050508b6001600160a01b03166342842e0e7f0000000000000000000000000000000000000000000000000000000000000000308e6040518463ffffffff1660e01b81526004016118db93929190614a5e565b600060405180830381600087803b1580156118f557600080fd5b505af1158015611909573d6000803e3d6000fd5b50505050505050505050505050505050565b6002600a540361193d5760405162461bcd60e51b81526004016109df90614a27565b6002600a5561194e858585856126a0565b306001600160a01b0385160361196f5761196a3384848461266e565b611a10565b604051635c46a7ef60e11b81526001600160a01b0384169063b88d4fde906119a1903090889087908790600401614c20565b600060405180830381600087803b1580156119bb57600080fd5b505af11580156119cf573d6000803e3d6000fd5b50505050826001600160a01b0316846001600160a01b031686600080516020614fb383398151915285604051611a0791815260200190565b60405180910390a45b50506001600a55505050565b6000818152600c6020526040812061092490612c1e565b60405162461bcd60e51b815260206004820152601860248201527f616c726561647920706572736f6e616c2062756e646c6572000000000000000060448201526064016109df565b600f546001600160a01b0316331461143e5760405162461bcd60e51b81526004016109df90614b2f565b600f546001600160a01b03163314611acf5760405162461bcd60e51b81526004016109df90614b2f565b6001600160a01b038116611b345760405162461bcd60e51b815260206004820152602660248201527f4f776e61626c653a206e6577206f776e657220697320746865207a65726f206160448201526564647265737360d01b60648201526084016109df565b601080546001600160a01b0319166001600160a01b0392909216919091179055565b336001600160a01b03831603611bae5760405162461bcd60e51b815260206004820152601960248201527f4552433732313a20617070726f766520746f2063616c6c65720000000000000060448201526064016109df565b3360008181526005602090815260408083206001600160a01b03871680855290835292819020805460ff191686151590811790915590519081529192917f17307eab39ab6107e8899845ad3d59bd9653f200f220920489ca2b5937696c31910160405180910390a35050565b611c248282612939565b5050565b611c248282612d77565b611c3a61254d565b604051627eeac760e11b81523060048201526024810183905283906000906001600160a01b0383169062fdd58e90604401602060405180830381865afa158015611c88573d6000803e3d6000fd5b505050506040513d601f19601f82011682018060405250810190611cac9190614a0e565b905060008111611cee5760405162461bcd60e51b815260206004820152600d60248201526c1b9bc81b999d1cc81bdddb9959609a1b60448201526064016109df565b604051637921219560e11b81523060048201526001600160a01b038481166024830152604482018690526064820183905260a06084830152600060a483015283169063f242432a9060c401600060405180830381600087803b158015611d5357600080fd5b505af1158015611d67573d6000803e3d6000fd5b505050505050505050565b611d7c33836126bf565b611d985760405162461bcd60e51b81526004016109df90614a82565b6109fc84848484612f8b565b6002600a5403611dc65760405162461bcd60e51b81526004016109df90614a27565b6002600a556001600160a01b0384163314611e235760405162461bcd60e51b815260206004820152601a60248201527f5f66726f6d2073686f756c64206265206d73672e73656e64657200000000000060448201526064016109df565b611e2f84848484612fbe565b6040516323b872dd60e01b81526001600160a01b038316906323b872dd90611e5f90879030908690600401614a5e565b600060405180830381600087803b158015611e7957600080fd5b505af1158015611e8d573d6000803e3d6000fd5b50506001600a55505050505050565b6002600a5403611ebe5760405162461bcd60e51b81526004016109df90614a27565b6002600a55611ecf848484846126a0565b611eda838383613016565b816001600160a01b0316836001600160a01b031685600080516020614fb383398151915284604051610d9591815260200190565b611f188383612939565b610bef8382612d77565b6000818152600260205260409020546060906001600160a01b0316611fa15760405162461bcd60e51b815260206004820152602f60248201527f4552433732314d657461646174613a2055524920717565727920666f72206e6f60448201526e3732bc34b9ba32b73a103a37b5b2b760891b60648201526084016109df565b6000611fab6130d7565b90506000815111611fcb5760405180602001604052806000815250610c0c565b80611fd58461232c565b604051602001611fe6929190614c5d565b6040516020818303038152906040529392505050565b61200581613169565b61200e826131bf565b6000828152600c6020526040812061202590612c1e565b1115611c24576000828152600c602052604081206120439082612662565b90505b6000838152600d602090815260408083206001600160a01b0385168452909152812061207190612c1e565b111561215c576000838152600d602090815260408083206001600160a01b038516845290915281206120a39082612662565b90506120b084838361325d565b604051632142170760e11b81526001600160a01b038316906342842e0e906120e090309087908690600401614a5e565b600060405180830381600087803b1580156120fa57600080fd5b505af192505050801561210b575060015b61211a5761211a838383613016565b816001600160a01b0316836001600160a01b031685600080516020614fb38339815191528460405161214e91815260200190565b60405180910390a450612046565b5061200e565b6001600160a01b03918216600090815260056020908152604080832093909416825291909152205460ff1690565b6001600160a01b0382166000908152600e602090815260408083208484529091528120548082036122035760405162461bcd60e51b815260206004820152601a60248201527f6368696c6420746f6b656e20646f6573206e6f7420657869737400000000000060448201526064016109df565b600061220e82611450565b63cd740db560e01b17959194509092505050565b6000806001600160a01b038416156122475761223e84846132e9565b93509050612253565b61225083611450565b90505b6001600160a01b0381163b156122f2576040516376c0e6ed60e11b8152306004820152602481018490526001600160a01b0382169063ed81cdda90604401602060405180830381865afa9250505080156122ca575060408051601f3d908101601f191682019092526122c791810190614a0e565b60015b156122f25763328bf24b60e01b6001600160e01b03198216016122f05791506109249050565b505b63cd740db560e01b179392505050565b600f546001600160a01b031633146112035760405162461bcd60e51b81526004016109df90614b2f565b6060816000036123535750506040805180820190915260018152600360fc1b602082015290565b8160005b811561237d578061236781614c8c565b91506123769050600a83614cbb565b9150612357565b6000816001600160401b038111156123975761239761400a565b6040519080825280601f01601f1916602001820160405280156123c1576020820181803683370190505b5090505b8415610cc4576123d6600183614ae9565b91506123e3600a86614ccf565b6123ee906030614ce3565b60f81b81838151811061240357612403614afc565b60200101906001600160f81b031916908160001a905350612425600a86614cbb565b94506123c5565b600080600b6000815461243e90614c8c565b91829055509050610924838261336f565b3b151590565b6001600160a01b0383166124b0576124ab81600880546000838152600960205260408120829055600182018355919091527ff3f7a9fe364faab93b216da50a3214154f22a0a2b415b23a84c8169e8b636ee30155565b6124d3565b816001600160a01b0316836001600160a01b0316146124d3576124d38382613389565b6001600160a01b0382166124ea57610bef81613426565b826001600160a01b0316826001600160a01b031614610bef57610bef82826134d5565b60006001600160e01b03198216630a85bd0160e11b148061253e57506001600160e01b03198216639fa4074560e01b145b80610924575061092482613519565b336125586001611450565b6001600160a01b03161461102d5760405162461bcd60e51b815260206004820152601160248201527027b7363c90313ab73236329037bbb732b960791b60448201526064016109df565b604080516001600160a01b038416602482015260448082018490528251808303909101815260649091019091526020810180516001600160e01b031663a9059cbb60e01b179052610bef908490613574565b600081815260046020526040902080546001600160a01b0319166001600160a01b038416908117909155819061262982611450565b6001600160a01b03167f8c5be1e5ebec7d5bd14f71427d1e84f3dd0314c0f7b2291e5b200ac8c7c3b92560405160405180910390a45050565b6000610c0c8383613646565b8051156109fc576000612682826020015190565b905060001981016126995761269985828686612fbe565b5050505050565b6126a983613169565b6126b4848383613670565b6109fc84838361325d565b6000818152600260205260408120546001600160a01b03166127385760405162461bcd60e51b815260206004820152602c60248201527f4552433732313a206f70657261746f7220717565727920666f72206e6f6e657860448201526b34b9ba32b73a103a37b5b2b760a11b60648201526084016109df565b600061274383611450565b9050806001600160a01b0316846001600160a01b0316148061277e5750836001600160a01b031661277384610a02565b6001600160a01b0316145b80610cc45750610cc48185612162565b826001600160a01b03166127a182611450565b6001600160a01b0316146128095760405162461bcd60e51b815260206004820152602960248201527f4552433732313a207472616e73666572206f6620746f6b656e2074686174206960448201526839903737ba1037bbb760b91b60648201526084016109df565b6001600160a01b03821661286b5760405162461bcd60e51b8152602060048201526024808201527f4552433732313a207472616e7366657220746f20746865207a65726f206164646044820152637265737360e01b60648201526084016109df565b612876838383613778565b6128816000826125f4565b6001600160a01b03831660009081526003602052604081208054600192906128aa908490614ae9565b90915550506001600160a01b03821660009081526003602052604081208054600192906128d8908490614ce3565b909155505060008181526002602052604080822080546001600160a01b0319166001600160a01b0386811691821790925591518493918716917fddf252ad1be2c89b69c2b068fc378daa952ba7f163c4a11628f55a4df523b3ef91a4505050565b600081511161297c5760405162461bcd60e51b815260206004820152600f60248201526e62756e646c6520697320656d70747960881b60448201526064016109df565b805160005b818114612be0576129ae83828151811061299d5761299d614afc565b6020026020010151600001516114c7565b6129f15760405162461bcd60e51b8152602060048201526014602482015273195c98cdcc8c481b9bdd081c195c9b5a5d1d195960621b60448201526064016109df565b828181518110612a0357612a03614afc565b60200260200101516040015115612b31576000838281518110612a2857612a28614afc565b60200260200101516020015151905060005b818114612b2a57848381518110612a5357612a53614afc565b6020026020010151600001516001600160a01b031663b88d4fde3330888781518110612a8157612a81614afc565b6020026020010151602001518581518110612a9e57612a9e614afc565b60200260200101518a604051602001612ab991815260200190565b6040516020818303038152906040526040518563ffffffff1660e01b8152600401612ae79493929190614c20565b600060405180830381600087803b158015612b0157600080fd5b505af1158015612b15573d6000803e3d6000fd5b5050505080612b2390614c8c565b9050612a3a565b5050612bd0565b6000838281518110612b4557612b45614afc565b60200260200101516020015151905060005b818114612bcd57612bbd3387878681518110612b7557612b75614afc565b602002602001015160000151888781518110612b9357612b93614afc565b6020026020010151602001518581518110612bb057612bb0614afc565b6020026020010151611da4565b612bc681614c8c565b9050612b57565b50505b612bd981614c8c565b9050612981565b50827faeecfeb34aeb11fe7449e04fbc8fc80d3ddd8eeb67b35e6c1b8e1b7e3d8f025783604051612c119190614cf6565b60405180910390a2505050565b6000610924825490565b6000612c3382611450565b9050612c4181600084613778565b612c4c6000836125f4565b6001600160a01b0381166000908152600360205260408120805460019290612c75908490614ae9565b909155505060008281526002602052604080822080546001600160a01b0319169055518391906001600160a01b038416907fddf252ad1be2c89b69c2b068fc378daa952ba7f163c4a11628f55a4df523b3ef908390a45050565b600f80546001600160a01b038381166001600160a01b0319831681179093556040519116919082907f8be0079c531659141344cd1fd0a4f28419497f9722a3daafe3b4186f6b6457e090600090a35050565b6000815111612d3f5760405180602001604052806000815250612d6a565b80612d494661232c565b604051602001612d5a929190614dac565b6040516020818303038152906040525b601190611c249082614e35565b612d80826131bf565b6000815111612dc35760405162461bcd60e51b815260206004820152600f60248201526e62756e646c6520697320656d70747960881b60448201526064016109df565b805160005b818114612f5a576000838281518110612de357612de3614afc565b60200260200101516000015190506000848381518110612e0557612e05614afc565b60200260200101516020015151905060005b818114612f46576000868581518110612e3257612e32614afc565b6020026020010151602001518281518110612e4f57612e4f614afc565b60200260200101519050612e6488858361325d565b868581518110612e7657612e76614afc565b60200260200101516040015115612eee57604051632142170760e11b81526001600160a01b038516906342842e0e90612eb790309033908690600401614a5e565b600060405180830381600087803b158015612ed157600080fd5b505af1158015612ee5573d6000803e3d6000fd5b50505050612ef9565b612ef9338583613016565b836001600160a01b0316336001600160a01b031689600080516020614fb383398151915284604051612f2d91815260200190565b60405180910390a450612f3f81614c8c565b9050612e17565b50505080612f5390614c8c565b9050612dc8565b50827ff60c055f56c20fcc9ca127b02b3958fad33fb25c41c195093e037d94fcc2700883604051612c119190614cf6565b612f9684848461278e565b612fa2848484846137db565b6109fc5760405162461bcd60e51b81526004016109df90614ef4565b612fc7826114c7565b61300a5760405162461bcd60e51b8152602060048201526014602482015273195c98cdcc8c481b9bdd081c195c9b5a5d1d195960621b60448201526064016109df565b6109fc848484846138dc565b60405163095ea7b360e01b8152306004820152602481018290526001600160a01b0383169063095ea7b390604401600060405180830381600087803b15801561305e57600080fd5b505af192505050801561306f575060015b506040516323b872dd60e01b81526001600160a01b038316906323b872dd906130a090309087908690600401614a5e565b600060405180830381600087803b1580156130ba57600080fd5b505af11580156130ce573d6000803e3d6000fd5b50505050505050565b6060601180546130e690614b64565b80601f016020809104026020016040519081016040528092919081815260200182805461311290614b64565b801561315f5780601f106131345761010080835404028352916020019161315f565b820191906000526020600020905b81548152906001019060200180831161314257829003601f168201915b5050505050905090565b6001600160a01b0381166113b75760405162461bcd60e51b815260206004820152601e60248201527f6368696c64207472616e7366657220746f207a65726f2061646472657373000060448201526064016109df565b60006131ca82610f8c565b90506001600160a01b0381163314806131f35750336131e883610a02565b6001600160a01b0316145b8061320357506132038133612162565b611c245760405162461bcd60e51b815260206004820152602560248201527f7472616e736665724368696c64206d73672e73656e646572206e6f7420656c696044820152646769626c6560d81b60648201526084016109df565b6000838152600d602090815260408083206001600160a01b038616845290915290206132899082613a23565b506001600160a01b0382166000818152600e602090815260408083208584528252808320839055868352600d8252808320938352929052206132ca90612c1e565b600003610bef576000838152600c602052604090206109fc9083613a2f565b6001600160a01b0382166000908152600e6020908152604080832084845290915281205480820361335c5760405162461bcd60e51b815260206004820152601a60248201527f6368696c6420746f6b656e20646f6573206e6f7420657869737400000000000060448201526064016109df565b61336581611450565b91505b9250929050565b611c24828260405180602001604052806000815250613a44565b60006001613396846115ef565b6133a09190614ae9565b6000838152600760205260409020549091508082146133f3576001600160a01b03841660009081526006602090815260408083208584528252808320548484528184208190558352600790915290208190555b5060009182526007602090815260408084208490556001600160a01b039094168352600681528383209183525290812055565b60085460009061343890600190614ae9565b6000838152600960205260408120546008805493945090928490811061346057613460614afc565b90600052602060002001549050806008838154811061348157613481614afc565b60009182526020808320909101929092558281526009909152604080822084905585825281205560088054806134b9576134b9614f46565b6001900381819060005260206000200160009055905550505050565b60006134e0836115ef565b6001600160a01b039093166000908152600660209081526040808320868452825280832085905593825260079052919091209190915550565b60006001600160e01b0319821663cde244d960e01b148061354a57506001600160e01b031982166328d12bf960e21b145b806135655750630f7ef9b560e11b6001600160e01b03198316145b80610924575061092482613a77565b60006135c9826040518060400160405280602081526020017f5361666545524332303a206c6f772d6c6576656c2063616c6c206661696c6564815250856001600160a01b0316613a9c9092919063ffffffff16565b805190915015610bef57808060200190518101906135e79190614f5c565b610bef5760405162461bcd60e51b815260206004820152602a60248201527f5361666545524332303a204552433230206f7065726174696f6e20646964206e6044820152691bdd081cdd58d8d9595960b21b60648201526084016109df565b600082600001828154811061365d5761365d614afc565b9060005260206000200154905092915050565b6001600160a01b0382166000908152600e60209081526040808320848452909152812054908190036137025760405162461bcd60e51b815260206004820152603560248201527f5f7472616e736665724368696c64205f6368696c64436f6e7472616374205f636044820152741a1a5b19151bdad95b9259081b9bdd08199bdd5b99605a1b60648201526084016109df565b83811461376f5760405162461bcd60e51b815260206004820152603560248201527f436f6d706f7361626c65546f70446f776e3a205f7472616e736665724368696c60448201527419081ddc9bdb99c81d1bdad95b925908199bdd5b99605a1b60648201526084016109df565b6109fc816131bf565b306001600160a01b038316036137d05760405162461bcd60e51b815260206004820152601a60248201527f6e65737465642062756e646c6573206e6f7420616c6c6f77656400000000000060448201526064016109df565b610bef838383612455565b60006001600160a01b0384163b156138d157604051630a85bd0160e11b81526001600160a01b0385169063150b7a029061381f903390899088908890600401614c20565b6020604051808303816000875af192505050801561385a575060408051601f3d908101601f1916820190925261385791810190614f79565b60015b6138b7573d808015613888576040519150601f19603f3d011682016040523d82523d6000602084013e61388d565b606091505b5080516000036138af5760405162461bcd60e51b81526004016109df90614ef4565b805181602001fd5b6001600160e01b031916630a85bd0160e11b149050610cc4565b506001949350505050565b6000838152600260205260409020546001600160a01b03166139405760405162461bcd60e51b815260206004820152601d60248201527f62756e646c6520746f6b656e496420646f6573206e6f7420657869737400000060448201526064016109df565b6000838152600d602090815260408083206001600160a01b0386168452909152812061396b90612c1e565b90508060000361398f576000848152600c6020526040902061398d9084613aab565b505b6000848152600d602090815260408083206001600160a01b038716845290915290206139bb9083613ac0565b506001600160a01b038381166000818152600e60209081526040808320878452825291829020889055905185815291928792908916917f0371ddf2288ad1ba92626a7e31c86a9d006e592cfe57d7d946ef08b13457c08b910160405180910390a45050505050565b6000610c0c8383613acc565b6000610c0c836001600160a01b038416613acc565b613a4e8383613bbf565b613a5b60008484846137db565b610bef5760405162461bcd60e51b81526004016109df90614ef4565b60006001600160e01b0319821663780e9d6360e01b1480610924575061092482613d0d565b6060610cc48484600085613d5d565b6000610c0c836001600160a01b038416613e85565b6000610c0c8383613e85565b60008181526001830160205260408120548015613bb5576000613af0600183614ae9565b8554909150600090613b0490600190614ae9565b9050818114613b69576000866000018281548110613b2457613b24614afc565b9060005260206000200154905080876000018481548110613b4757613b47614afc565b6000918252602080832090910192909255918252600188019052604090208390555b8554869080613b7a57613b7a614f46565b600190038181906000526020600020016000905590558560010160008681526020019081526020016000206000905560019350505050610924565b6000915050610924565b6001600160a01b038216613c155760405162461bcd60e51b815260206004820181905260248201527f4552433732313a206d696e7420746f20746865207a65726f206164647265737360448201526064016109df565b6000818152600260205260409020546001600160a01b031615613c7a5760405162461bcd60e51b815260206004820152601c60248201527f4552433732313a20746f6b656e20616c7265616479206d696e7465640000000060448201526064016109df565b613c8660008383613778565b6001600160a01b0382166000908152600360205260408120805460019290613caf908490614ce3565b909155505060008181526002602052604080822080546001600160a01b0319166001600160a01b03861690811790915590518392907fddf252ad1be2c89b69c2b068fc378daa952ba7f163c4a11628f55a4df523b3ef908290a45050565b60006001600160e01b031982166380ac58cd60e01b1480613d3e57506001600160e01b03198216635b5e139f60e01b145b8061092457506301ffc9a760e01b6001600160e01b0319831614610924565b606082471015613dbe5760405162461bcd60e51b815260206004820152602660248201527f416464726573733a20696e73756666696369656e742062616c616e636520666f6044820152651c8818d85b1b60d21b60648201526084016109df565b843b613e0c5760405162461bcd60e51b815260206004820152601d60248201527f416464726573733a2063616c6c20746f206e6f6e2d636f6e747261637400000060448201526064016109df565b600080866001600160a01b03168587604051613e289190614f96565b60006040518083038185875af1925050503d8060008114613e65576040519150601f19603f3d011682016040523d82523d6000602084013e613e6a565b606091505b5091509150613e7a828286613ed4565b979650505050505050565b6000818152600183016020526040812054613ecc57508154600181810184556000848152602080822090930184905584548482528286019093526040902091909155610924565b506000610924565b60608315613ee3575081610c0c565b825115613ef35782518084602001fd5b8160405162461bcd60e51b81526004016109df9190613fde565b6001600160e01b0319811681146113b757600080fd5b600060208284031215613f3557600080fd5b8135610c0c81613f0d565b6001600160a01b03811681146113b757600080fd5b60008060408385031215613f6857600080fd5b8235613f7381613f40565b91506020830135613f8381613f40565b809150509250929050565b60005b83811015613fa9578181015183820152602001613f91565b50506000910152565b60008151808452613fca816020860160208601613f8e565b601f01601f19169290920160200192915050565b602081526000610c0c6020830184613fb2565b60006020828403121561400357600080fd5b5035919050565b634e487b7160e01b600052604160045260246000fd5b604051606081016001600160401b03811182821017156140425761404261400a565b60405290565b604051601f8201601f191681016001600160401b03811182821017156140705761407061400a565b604052919050565b600082601f83011261408957600080fd5b81356001600160401b038111156140a2576140a261400a565b6140b5601f8201601f1916602001614048565b8181528460208386010111156140ca57600080fd5b816020850160208301376000918101602001919091529392505050565b60008060008060008060c0878903121561410057600080fd5b86359550602087013561411281613f40565b945060408701359350606087013561412981613f40565b92506080870135915060a08701356001600160401b0381111561414b57600080fd5b61415789828a01614078565b9150509295509295509295565b6000806040838503121561417757600080fd5b823561418281613f40565b946020939093013593505050565b600080604083850312156141a357600080fd5b50508035926020909101359150565b60008083601f8401126141c457600080fd5b5081356001600160401b038111156141db57600080fd5b60208301915083602082850101111561336857600080fd5b60008060008060006080868803121561420b57600080fd5b853561421681613f40565b9450602086013561422681613f40565b93506040860135925060608601356001600160401b0381111561424857600080fd5b614254888289016141b2565b969995985093965092949392505050565b60008060006060848603121561427a57600080fd5b83359250602084013561428c81613f40565b929592945050506040919091013590565b600080600080608085870312156142b357600080fd5b8435935060208501356142c581613f40565b925060408501356142d581613f40565b9396929550929360600135925050565b6000806000606084860312156142fa57600080fd5b833561430581613f40565b9250602084013561428c81613f40565b60006001600160401b0382111561432e5761432e61400a565b5060051b60200190565b80151581146113b757600080fd5b803561435181614338565b919050565b600082601f83011261436757600080fd5b8135602061437c61437783614315565b614048565b82815260059290921b8401810191818101908684111561439b57600080fd5b8286015b8481101561448c5780356001600160401b03808211156143bf5760008081fd5b908801906060828b03601f19018113156143d95760008081fd5b6143e1614020565b878401356143ee81613f40565b8152604084810135848111156144045760008081fd5b85019350603f84018d136144185760008081fd5b8884013561442861437782614315565b81815260059190911b85018201908a8101908f8311156144485760008081fd5b958301955b828710156144665786358252958b0195908b019061444d565b848c0152506144789050858401614346565b90820152865250505091830191830161439f565b509695505050505050565b6000602082840312156144a957600080fd5b81356001600160401b038111156144bf57600080fd5b610cc484828501614356565b600080604083850312156144de57600080fd5b823591506020830135613f8381613f40565b60006020828403121561450257600080fd5b8135610c0c81613f40565b60008060006060848603121561452257600080fd5b833561452d81613f40565b9250602084013561453d81613f40565b915060408401356001600160401b0381111561455857600080fd5b61456486828701614078565b9150509250925092565b60008060006060848603121561458357600080fd5b833561458e81613f40565b92506020840135915060408401356145a581613f40565b809150509250925092565b6000602082840312156145c257600080fd5b81356001600160401b038111156145d857600080fd5b610cc484828501614078565b6000806000806000806000806000806101208b8d03121561460457600080fd5b8a3561460f81613f40565b995060208b0135985060408b013561462681613f40565b975060608b01356001600160401b0381111561464157600080fd5b61464d8d828e016141b2565b90985096505060808b013561466181613f40565b945060a08b0135935060c08b013561467881614338565b925060e08b013591506101008b013561469081613f40565b809150509295989b9194979a5092959850565b600080600080600060a086880312156146bb57600080fd5b8535945060208601356146cd81613f40565b935060408601356146dd81613f40565b92506060860135915060808601356001600160401b038111156146ff57600080fd5b61470b88828901614078565b9150509295509295909350565b6000806040838503121561472b57600080fd5b823561473681613f40565b91506020830135613f8381614338565b6000806040838503121561475957600080fd5b8235915060208301356001600160401b0381111561477657600080fd5b61478285828601614356565b9150509250929050565b600080600080608085870312156147a257600080fd5b84356147ad81613f40565b935060208501356147bd81613f40565b92506040850135915060608501356001600160401b038111156147df57600080fd5b6147eb87828801614078565b91505092959194509250565b6000806000806080858703121561480d57600080fd5b843561481881613f40565b93506020850135925060408501356142d581613f40565b60008083601f84011261484157600080fd5b5081356001600160401b0381111561485857600080fd5b6020830191508360208260051b850101111561336857600080fd5b60008060008060008060008060a0898b03121561488f57600080fd5b883561489a81613f40565b975060208901356148aa81613f40565b965060408901356001600160401b03808211156148c657600080fd5b6148d28c838d0161482f565b909850965060608b01359150808211156148eb57600080fd5b6148f78c838d0161482f565b909650945060808b013591508082111561491057600080fd5b5061491d8b828c016141b2565b999c989b5096995094979396929594505050565b60008060006060848603121561494657600080fd5b8335925060208401356001600160401b038082111561496457600080fd5b61497087838801614356565b9350604086013591508082111561498657600080fd5b5061456486828701614356565b60008060008060008060a087890312156149ac57600080fd5b86356149b781613f40565b955060208701356149c781613f40565b9450604087013593506060870135925060808701356001600160401b038111156149f057600080fd5b6149fc89828a016141b2565b979a9699509497509295939492505050565b600060208284031215614a2057600080fd5b5051919050565b6020808252601f908201527f5265656e7472616e637947756172643a207265656e7472616e742063616c6c00604082015260600190565b6001600160a01b039384168152919092166020820152604081019190915260600190565b60208082526031908201527f4552433732313a207472616e736665722063616c6c6572206973206e6f74206f6040820152701ddb995c881b9bdc88185c1c1c9bdd9959607a1b606082015260800190565b634e487b7160e01b600052601160045260246000fd5b8181038181111561092457610924614ad3565b634e487b7160e01b600052603260045260246000fd5b600060208284031215614b2457600080fd5b8151610c0c81613f40565b6020808252818101527f4f776e61626c653a2063616c6c6572206973206e6f7420746865206f776e6572604082015260600190565b600181811c90821680614b7857607f821691505b602082108103614b9857634e487b7160e01b600052602260045260246000fd5b50919050565b6001600160a01b038b81168252602082018b9052898116604083015261012060608301819052820188905260009061014090898b838601376000848b0183015290971660808301525060a081019490945291151560c084015260e08301526001600160a01b0316610100820152601f909201601f191690910101949350505050565b6001600160a01b0385811682528416602082015260408101839052608060608201819052600090614c5390830184613fb2565b9695505050505050565b60008351614c6f818460208801613f8e565b835190830190614c83818360208801613f8e565b01949350505050565b600060018201614c9e57614c9e614ad3565b5060010190565b634e487b7160e01b600052601260045260246000fd5b600082614cca57614cca614ca5565b500490565b600082614cde57614cde614ca5565b500690565b8082018082111561092457610924614ad3565b60006020808301818452808551808352604092508286019150828160051b8701018488016000805b84811015614d9d57898403603f19018652825180516001600160a01b031685528881015160608a8701819052815190870181905260808701918b019085905b80821015614d7d5782518452928c0192918c019160019190910190614d5d565b505050908801511515948801949094529487019491870191600101614d1e565b50919998505050505050505050565b60008351614dbe818460208801613f8e565b835190830190614dd2818360208801613f8e565b602f60f81b9101908152600101949350505050565b601f821115610bef57600081815260208120601f850160051c81016020861015614e0e5750805b601f850160051c820191505b81811015614e2d57828155600101614e1a565b505050505050565b81516001600160401b03811115614e4e57614e4e61400a565b614e6281614e5c8454614b64565b84614de7565b602080601f831160018114614e975760008415614e7f5750858301515b600019600386901b1c1916600185901b178555614e2d565b600085815260208120601f198616915b82811015614ec657888601518255948401946001909101908401614ea7565b5085821015614ee45787850151600019600388901b60f8161c191681555b5050505050600190811b01905550565b60208082526032908201527f4552433732313a207472616e7366657220746f206e6f6e20455243373231526560408201527131b2b4bb32b91034b6b83632b6b2b73a32b960711b606082015260800190565b634e487b7160e01b600052603160045260246000fd5b600060208284031215614f6e57600080fd5b8151610c0c81614338565b600060208284031215614f8b57600080fd5b8151610c0c81613f0d565b60008251614fa8818460208701613f8e565b919091019291505056fe0ef52e516fb5aec15a5d3587e5480481b702b26db93c8430eca78b61990fd3f6a164736f6c6343000811000a4552433732313a207472616e7366657220746f206e6f6e204552433732315265",
  "devdoc": {
    "author": "NFTfi",
    "details": "ERC998 Top-Down Composable Non-Fungible Token that supports ERC721 children.",
    "kind": "dev",
    "methods": {
      "addAndRemoveBundleElements(uint256,(address,uint256[],bool)[],(address,uint256[],bool)[])": {
        "details": "Adds and removes a set of BundleElementERC721 objects from the specified token ID.",
        "params": {
          "_toAdd": "The array of BundleElementERC721 objects to add.",
          "_toRemove": "The array of BundleElementERC721 objects to remove.",
          "_tokenId": "The ID of the token to add and remove the bundle elements from."
        }
      },
      "addBundleElements(uint256,(address,uint256[],bool)[])": {
        "details": "Adds a set of BundleElementERC721 objects to the specified token ID.",
        "params": {
          "_bundleElements": "The array of BundleElementERC721 objects to add.",
          "_tokenId": "The ID of the token to add the bundle elements to."
        }
      },
      "approve(address,uint256)": {
        "details": "See {IERC721-approve}."
      },
      "balanceOf(address)": {
        "details": "See {IERC721-balanceOf}."
      },
      "buildBundle((address,uint256[],bool)[])": {
        "details": "used to build a bundle from the BundleElements struct, returns the id of the created bundle",
        "params": {
          "_bundleElements": "- the lists of erc721 tokens that are to be bundled"
        }
      },
      "childContractByIndex(uint256,uint256)": {
        "params": {
          "_index": "The index position of the child contract",
          "_tokenId": "The parent token of child tokens in child contract"
        },
        "returns": {
          "childContract": "The contract found at the _tokenId and index"
        }
      },
      "childExists(address,uint256)": {
        "params": {
          "_childContract": "The contract address of the child token",
          "_childTokenId": "The tokenId of the child"
        },
        "returns": {
          "_0": "True if the child exists, false otherwise"
        }
      },
      "childTokenByIndex(uint256,address,uint256)": {
        "params": {
          "_childContract": "The child contract of the child token",
          "_index": "The index position of the child token",
          "_tokenId": "The parent token of the child token"
        },
        "returns": {
          "childTokenId": "The child tokenId for the parent token, child token and index"
        }
      },
      "constructor": {
        "details": "only runs when the master copy is deplyoed, when cloned then initializer is ran",
        "params": {
          "_admin": "admin address capable of setting URI-s and pausing",
          "_airdropFlashLoan": "airdrop flashloan contract deplyoed alongside",
          "_permittedNfts": "permitted nft-s contract of the loan system"
        }
      },
      "decomposeBundle(uint256,address)": {
        "details": "This method may run out of gas if the list of children is too big. In that case, children can be removed      individually.",
        "params": {
          "_receiver": "address of the receiver of the children",
          "_tokenId": "the id of the bundle"
        }
      },
      "drainERC1155Airdrop(address,uint256,address)": {
        "params": {
          "_receiver": "- receiver of the token",
          "_tokenAddress": "- address of the token contract for the token to be sent out",
          "_tokenId": "- id token to be sent out"
        }
      },
      "drainERC20Airdrop(address,address)": {
        "params": {
          "_receiver": "- receiver of the token",
          "_tokenAddress": "- address of the token contract for the token to be sent out"
        }
      },
      "drainERC721Airdrop(address,uint256,address)": {
        "params": {
          "_receiver": "- receiver of the token",
          "_tokenAddress": "- address of the token contract for the token to be sent out",
          "_tokenId": "- id token to be sent out"
        }
      },
      "getApproved(uint256)": {
        "details": "See {IERC721-getApproved}."
      },
      "getChild(address,uint256,address,uint256)": {
        "details": "This contract has to be approved first in _childContract",
        "params": {
          "_childContract": "The ERC721 contract of the child token",
          "_childTokenId": "The tokenId of the child token",
          "_from": "The address that owns the child token.",
          "_tokenId": "The token that becomes the parent owner"
        }
      },
      "initialize(address,address,string)": {
        "details": "sets up initial parameters after cloning",
        "params": {
          "_admin": "admin address capable of setting URI-s and pausing",
          "_customBaseURI": "- Base URI",
          "_owner": "of the personal bundler"
        }
      },
      "isApprovedForAll(address,address)": {
        "details": "See {IERC721-isApprovedForAll}."
      },
      "name()": {
        "details": "See {IERC721Metadata-name}. have to override, because cloning doesn't work for it"
      },
      "onERC1155BatchReceived(address,address,uint256[],uint256[],bytes)": {
        "details": "Handles the receipt of a multiple ERC1155 token types. This function is called at the end of a `safeBatchTransferFrom` after the balances have been updated.",
        "returns": {
          "_0": "`bytes4(keccak256(\"onERC1155BatchReceived(address,address,uint256[],uint256[],bytes)\"))` if allowed"
        }
      },
      "onERC1155Received(address,address,uint256,uint256,bytes)": {
        "details": "Handles the receipt of a single ERC1155 token type. This function is called at the end of a `safeTransferFrom` after the balance has been updated.",
        "returns": {
          "_0": "`bytes4(keccak256(\"onERC1155Received(address,address,uint256,uint256,bytes)\"))` if allowed"
        }
      },
      "onERC721Received(address,address,uint256,bytes)": {
        "params": {
          "_childTokenId": "The token that is being transferred to the parent",
          "_data": "Up to the first 32 bytes contains an integer which is the receiving parent tokenId",
          "_from": "The owner of the child token"
        },
        "returns": {
          "_0": "the selector of this method"
        }
      },
      "owner()": {
        "details": "Returns the address of the current owner."
      },
      "ownerOf(uint256)": {
        "details": "See {IERC721-ownerOf}."
      },
      "ownerOfChild(address,uint256)": {
        "params": {
          "_childContract": "The contract address of the child token",
          "_childTokenId": "The tokenId of the child"
        },
        "returns": {
          "parentTokenId": "The parent tokenId of _childTokenId",
          "parentTokenOwner": "The parent address of the parent token and ERC998 magic value"
        }
      },
      "permittedAsset(address)": {
        "params": {
          "_asset": "address of the asset"
        },
        "returns": {
          "_0": "true if permitted, false otherwise"
        }
      },
      "pullAirdrop(address,uint256,address,bytes,address,uint256,bool,uint256,address)": {
        "params": {
          "_data": "- function selector to be called on the airdropping contract",
          "_is1155": "-",
          "_nftAirdrop": "- address of the used claiming nft in the drop",
          "_nftAirdropAmount": "- amount in case of 1155",
          "_nftAirdropId": "- id of the used claiming nft in the drop",
          "_nftContract": "- contract address of the target nft of the drop",
          "_nftId": "- id of the target nft of the drop",
          "_target": "- address of the airdropping contract"
        }
      },
      "removeBundleElements(uint256,(address,uint256[],bool)[])": {
        "details": "Removes a set of BundleElementERC721 objects to the specified token ID.",
        "params": {
          "_bundleElements": "The array of BundleElementERC721 objects to remove.",
          "_tokenId": "The ID of the token to remove the bundle elements from."
        }
      },
      "requestTransferOwnership(address)": {
        "details": "Requests transferring ownership of the contract to a new account (`_newOwnerCandidate`). Can only be called by the current owner."
      },
      "rescueERC20(address,address)": {
        "params": {
          "_receiver": "- receiver of the token",
          "_tokenAddress": "- address of the token contract for the token to be sent out"
        }
      },
      "rescueERC721(address,uint256,address)": {
        "params": {
          "_receiver": "- receiver of the token",
          "_tokenAddress": "- address of the token contract for the token to be sent out",
          "_tokenId": "- id token to be sent out"
        }
      },
      "rootOwnerOf(uint256)": {
        "params": {
          "_tokenId": "The token to query for a root owner address"
        },
        "returns": {
          "rootOwner": "The root owner at the top of tree of tokens and ERC998 magic value."
        }
      },
      "rootOwnerOfChild(address,uint256)": {
        "details": "Returns the owner at the top of the tree of composables Use Cases handled: - Case 1: Token owner is this contract and token. - Case 2: Token owner is other external top-down composable - Case 3: Token owner is other contract - Case 4: Token owner is user",
        "params": {
          "_childContract": "The contract address of the child token",
          "_childTokenId": "The tokenId of the child"
        },
        "returns": {
          "rootOwner": "The root owner at the top of tree of tokens and ERC998 magic value"
        }
      },
      "safeMint(address)": {
        "params": {
          "_to": "The address that owns the new bundle"
        },
        "returns": {
          "_0": "The id of the new bundle"
        }
      },
      "safeTransferChild(uint256,address,address,uint256)": {
        "params": {
          "_childContract": "The ERC721 contract of the child token",
          "_childTokenId": "The tokenId of the token that is being transferred",
          "_fromTokenId": "The owning token to transfer from",
          "_to": "The address that receives the child token"
        }
      },
      "safeTransferChild(uint256,address,address,uint256,bytes)": {
        "params": {
          "_childContract": "The ERC721 contract of the child token",
          "_childTokenId": "The tokenId of the token that is being transferred",
          "_data": "Additional data with no specified format",
          "_fromTokenId": "The owning token to transfer from",
          "_to": "The address that receives the child token"
        }
      },
      "safeTransferFrom(address,address,uint256)": {
        "details": "See {IERC721-safeTransferFrom}."
      },
      "safeTransferFrom(address,address,uint256,bytes)": {
        "details": "See {IERC721-safeTransferFrom}."
      },
      "setApprovalForAll(address,bool)": {
        "details": "See {IERC721-setApprovalForAll}."
      },
      "setBaseURI(string)": {
        "details": "Sets baseURI.",
        "params": {
          "_customBaseURI": "- Base URI"
        }
      },
      "supportsInterface(bytes4)": {
        "details": "See {IERC165-supportsInterface}."
      },
      "symbol()": {
        "details": "See {IERC721Metadata-symbol}. have to override, because cloning doesn't work for it"
      },
      "tokenByIndex(uint256)": {
        "details": "See {IERC721Enumerable-tokenByIndex}."
      },
      "tokenOfOwnerByIndex(address,uint256)": {
        "details": "See {IERC721Enumerable-tokenOfOwnerByIndex}."
      },
      "tokenURI(uint256)": {
        "details": "See {IERC721Metadata-tokenURI}."
      },
      "totalChildContracts(uint256)": {
        "params": {
          "_tokenId": "The parent token of child tokens in child contracts"
        },
        "returns": {
          "_0": "uint256 The total number of child contracts with tokens owned by _tokenId"
        }
      },
      "totalChildTokens(uint256,address)": {
        "params": {
          "_childContract": "The child contract containing the child tokens",
          "_tokenId": "The parent token of child tokens"
        },
        "returns": {
          "_0": "uint256 The total number of child tokens found in child contract that are owned by _tokenId"
        }
      },
      "totalSupply()": {
        "details": "See {IERC721Enumerable-totalSupply}."
      },
      "transferChild(uint256,address,address,uint256)": {
        "details": "Transfer child token from top-down composable to address",
        "params": {
          "_childContract": "The ERC721 contract of the child token",
          "_childTokenId": "The tokenId of the token that is being transferred",
          "_fromTokenId": "The owning token to transfer from",
          "_to": "The address that receives the child token"
        }
      },
      "transferFrom(address,address,uint256)": {
        "details": "See {IERC721-transferFrom}."
      }
    },
    "title": "PersonalBundler",
    "version": 1
  },
  "userdoc": {
    "kind": "user",
    "methods": {
      "childContractByIndex(uint256,uint256)": {
        "notice": "Get child contract by tokenId and index"
      },
      "childExists(address,uint256)": {
        "notice": "Tells whether the ERC721 type child exists or not"
      },
      "childTokenByIndex(uint256,address,uint256)": {
        "notice": "Get child token owned by _tokenId, in child contract, at index position"
      },
      "decomposeBundle(uint256,address)": {
        "notice": "Remove all the children from the bundle"
      },
      "drainERC1155Airdrop(address,uint256,address)": {
        "notice": "used by the owner account to be able to drain ERC1155 tokens received as airdrops for the locked  collateral NFT-s"
      },
      "drainERC20Airdrop(address,address)": {
        "notice": "used by the owner account to be able to drain ERC20 tokens received as airdrops for the locked  collateral NFT-s"
      },
      "drainERC721Airdrop(address,uint256,address)": {
        "notice": "used by the owner account to be able to drain ERC721 tokens received as airdrops for the locked  collateral NFT-s"
      },
      "getChild(address,uint256,address,uint256)": {
        "notice": "Transfer a child token from an ERC721 contract to a composable. Used for old tokens that does not have a safeTransferFrom method like cryptokitties"
      },
      "onERC721Received(address,address,uint256,bytes)": {
        "notice": "A token receives a child token param The address that caused the transfer"
      },
      "ownerOfChild(address,uint256)": {
        "notice": "Get the parent tokenId and its owner of a ERC721 child token"
      },
      "permittedAsset(address)": {
        "notice": "Tells if an asset is permitted or not"
      },
      "pullAirdrop(address,uint256,address,bytes,address,uint256,bool,uint256,address)": {
        "notice": "this function initiates a flashloan to pull an airdrop from a tartget contract"
      },
      "rescueERC20(address,address)": {
        "notice": "used by the owner account to be able to drain ERC20 tokens received as airdrops for the locked  collateral NFT-s"
      },
      "rescueERC721(address,uint256,address)": {
        "notice": "used by the owner account to be able to drain ERC721 tokens received as airdrops for the locked  collateral NFT-s"
      },
      "rootOwnerOf(uint256)": {
        "notice": "Get the root owner of tokenId"
      },
      "rootOwnerOfChild(address,uint256)": {
        "notice": "Get the root owner of a child token"
      },
      "safeMint(address)": {
        "notice": "Mints a new bundle"
      },
      "safeTransferChild(uint256,address,address,uint256)": {
        "notice": "Transfer child token from top-down composable to address"
      },
      "safeTransferChild(uint256,address,address,uint256,bytes)": {
        "notice": "Transfer child token from top-down composable to address or other top-down composable"
      },
      "sendElementsToPersonalBundler(uint256,address)": {
        "notice": "disabled here"
      },
      "totalChildContracts(uint256)": {
        "notice": "Get the total number of child contracts with tokens that are owned by _tokenId"
      },
      "totalChildTokens(uint256,address)": {
        "notice": "Get the total number of child tokens owned by tokenId that exist in a child contract"
      },
      "transferChildToParent(uint256,address,uint256,address,uint256,bytes)": {
        "notice": "NOT SUPPORTED Intended to transfer bottom-up composable child token from top-down composable to other ERC721 token."
      }
    },
    "version": 1
  },
  "storageLayout": {
    "storage": [
      {
        "astId": 3606,
        "contract": "contracts/PersonalBundler.sol:PersonalBundler",
        "label": "_name",
        "offset": 0,
        "slot": "0",
        "type": "t_string_storage"
      },
      {
        "astId": 3608,
        "contract": "contracts/PersonalBundler.sol:PersonalBundler",
        "label": "_symbol",
        "offset": 0,
        "slot": "1",
        "type": "t_string_storage"
      },
      {
        "astId": 3612,
        "contract": "contracts/PersonalBundler.sol:PersonalBundler",
        "label": "_owners",
        "offset": 0,
        "slot": "2",
        "type": "t_mapping(t_uint256,t_address)"
      },
      {
        "astId": 3616,
        "contract": "contracts/PersonalBundler.sol:PersonalBundler",
        "label": "_balances",
        "offset": 0,
        "slot": "3",
        "type": "t_mapping(t_address,t_uint256)"
      },
      {
        "astId": 3620,
        "contract": "contracts/PersonalBundler.sol:PersonalBundler",
        "label": "_tokenApprovals",
        "offset": 0,
        "slot": "4",
        "type": "t_mapping(t_uint256,t_address)"
      },
      {
        "astId": 3626,
        "contract": "contracts/PersonalBundler.sol:PersonalBundler",
        "label": "_operatorApprovals",
        "offset": 0,
        "slot": "5",
        "type": "t_mapping(t_address,t_mapping(t_address,t_bool))"
      },
      {
        "astId": 4577,
        "contract": "contracts/PersonalBundler.sol:PersonalBundler",
        "label": "_ownedTokens",
        "offset": 0,
        "slot": "6",
        "type": "t_mapping(t_address,t_mapping(t_uint256,t_uint256))"
      },
      {
        "astId": 4581,
        "contract": "contracts/PersonalBundler.sol:PersonalBundler",
        "label": "_ownedTokensIndex",
        "offset": 0,
        "slot": "7",
        "type": "t_mapping(t_uint256,t_uint256)"
      },
      {
        "astId": 4584,
        "contract": "contracts/PersonalBundler.sol:PersonalBundler",
        "label": "_allTokens",
        "offset": 0,
        "slot": "8",
        "type": "t_array(t_uint256)dyn_storage"
      },
      {
        "astId": 4588,
        "contract": "contracts/PersonalBundler.sol:PersonalBundler",
        "label": "_allTokensIndex",
        "offset": 0,
        "slot": "9",
        "type": "t_mapping(t_uint256,t_uint256)"
      },
      {
        "astId": 890,
        "contract": "contracts/PersonalBundler.sol:PersonalBundler",
        "label": "_status",
        "offset": 0,
        "slot": "10",
        "type": "t_uint256"
      },
      {
        "astId": 6708,
        "contract": "contracts/PersonalBundler.sol:PersonalBundler",
        "label": "tokenCount",
        "offset": 0,
        "slot": "11",
        "type": "t_uint256"
      },
      {
        "astId": 6713,
        "contract": "contracts/PersonalBundler.sol:PersonalBundler",
        "label": "childContracts",
        "offset": 0,
        "slot": "12",
        "type": "t_mapping(t_uint256,t_struct(AddressSet)6443_storage)"
      },
      {
        "astId": 6720,
        "contract": "contracts/PersonalBundler.sol:PersonalBundler",
        "label": "childTokens",
        "offset": 0,
        "slot": "13",
        "type": "t_mapping(t_uint256,t_mapping(t_address,t_struct(UintSet)6570_storage))"
      },
      {
        "astId": 6726,
        "contract": "contracts/PersonalBundler.sol:PersonalBundler",
        "label": "childTokenOwner",
        "offset": 0,
        "slot": "14",
        "type": "t_mapping(t_address,t_mapping(t_uint256,t_uint256))"
      },
      {
        "astId": 12135,
        "contract": "contracts/PersonalBundler.sol:PersonalBundler",
        "label": "_owner",
        "offset": 0,
        "slot": "15",
        "type": "t_address"
      },
      {
        "astId": 12137,
        "contract": "contracts/PersonalBundler.sol:PersonalBundler",
        "label": "_ownerCandidate",
        "offset": 0,
        "slot": "16",
        "type": "t_address"
      },
      {
        "astId": 8884,
        "contract": "contracts/PersonalBundler.sol:PersonalBundler",
        "label": "baseURI",
        "offset": 0,
        "slot": "17",
        "type": "t_string_storage"
      },
      {
        "astId": 747,
        "contract": "contracts/PersonalBundler.sol:PersonalBundler",
        "label": "_initialized",
        "offset": 0,
        "slot": "18",
        "type": "t_bool"
      },
      {
        "astId": 750,
        "contract": "contracts/PersonalBundler.sol:PersonalBundler",
        "label": "_initializing",
        "offset": 1,
        "slot": "18",
        "type": "t_bool"
      },
      {
        "astId": 9877,
        "contract": "contracts/PersonalBundler.sol:PersonalBundler",
        "label": "lastBundleOwner",
        "offset": 2,
        "slot": "18",
        "type": "t_address"
      }
    ],
    "types": {
      "t_address": {
        "encoding": "inplace",
        "label": "address",
        "numberOfBytes": "20"
      },
      "t_array(t_bytes32)dyn_storage": {
        "base": "t_bytes32",
        "encoding": "dynamic_array",
        "label": "bytes32[]",
        "numberOfBytes": "32"
      },
      "t_array(t_uint256)dyn_storage": {
        "base": "t_uint256",
        "encoding": "dynamic_array",
        "label": "uint256[]",
        "numberOfBytes": "32"
      },
      "t_bool": {
        "encoding": "inplace",
        "label": "bool",
        "numberOfBytes": "1"
      },
      "t_bytes32": {
        "encoding": "inplace",
        "label": "bytes32",
        "numberOfBytes": "32"
      },
      "t_mapping(t_address,t_bool)": {
        "encoding": "mapping",
        "key": "t_address",
        "label": "mapping(address => bool)",
        "numberOfBytes": "32",
        "value": "t_bool"
      },
      "t_mapping(t_address,t_mapping(t_address,t_bool))": {
        "encoding": "mapping",
        "key": "t_address",
        "label": "mapping(address => mapping(address => bool))",
        "numberOfBytes": "32",
        "value": "t_mapping(t_address,t_bool)"
      },
      "t_mapping(t_address,t_mapping(t_uint256,t_uint256))": {
        "encoding": "mapping",
        "key": "t_address",
        "label": "mapping(address => mapping(uint256 => uint256))",
        "numberOfBytes": "32",
        "value": "t_mapping(t_uint256,t_uint256)"
      },
      "t_mapping(t_address,t_struct(UintSet)6570_storage)": {
        "encoding": "mapping",
        "key": "t_address",
        "label": "mapping(address => struct EnumerableSet.UintSet)",
        "numberOfBytes": "32",
        "value": "t_struct(UintSet)6570_storage"
      },
      "t_mapping(t_address,t_uint256)": {
        "encoding": "mapping",
        "key": "t_address",
        "label": "mapping(address => uint256)",
        "numberOfBytes": "32",
        "value": "t_uint256"
      },
      "t_mapping(t_bytes32,t_uint256)": {
        "encoding": "mapping",
        "key": "t_bytes32",
        "label": "mapping(bytes32 => uint256)",
        "numberOfBytes": "32",
        "value": "t_uint256"
      },
      "t_mapping(t_uint256,t_address)": {
        "encoding": "mapping",
        "key": "t_uint256",
        "label": "mapping(uint256 => address)",
        "numberOfBytes": "32",
        "value": "t_address"
      },
      "t_mapping(t_uint256,t_mapping(t_address,t_struct(UintSet)6570_storage))": {
        "encoding": "mapping",
        "key": "t_uint256",
        "label": "mapping(uint256 => mapping(address => struct EnumerableSet.UintSet))",
        "numberOfBytes": "32",
        "value": "t_mapping(t_address,t_struct(UintSet)6570_storage)"
      },
      "t_mapping(t_uint256,t_struct(AddressSet)6443_storage)": {
        "encoding": "mapping",
        "key": "t_uint256",
        "label": "mapping(uint256 => struct EnumerableSet.AddressSet)",
        "numberOfBytes": "32",
        "value": "t_struct(AddressSet)6443_storage"
      },
      "t_mapping(t_uint256,t_uint256)": {
        "encoding": "mapping",
        "key": "t_uint256",
        "label": "mapping(uint256 => uint256)",
        "numberOfBytes": "32",
        "value": "t_uint256"
      },
      "t_string_storage": {
        "encoding": "bytes",
        "label": "string",
        "numberOfBytes": "32"
      },
      "t_struct(AddressSet)6443_storage": {
        "encoding": "inplace",
        "label": "struct EnumerableSet.AddressSet",
        "members": [
          {
            "astId": 6442,
            "contract": "contracts/PersonalBundler.sol:PersonalBundler",
            "label": "_inner",
            "offset": 0,
            "slot": "0",
            "type": "t_struct(Set)6172_storage"
          }
        ],
        "numberOfBytes": "64"
      },
      "t_struct(Set)6172_storage": {
        "encoding": "inplace",
        "label": "struct EnumerableSet.Set",
        "members": [
          {
            "astId": 6167,
            "contract": "contracts/PersonalBundler.sol:PersonalBundler",
            "label": "_values",
            "offset": 0,
            "slot": "0",
            "type": "t_array(t_bytes32)dyn_storage"
          },
          {
            "astId": 6171,
            "contract": "contracts/PersonalBundler.sol:PersonalBundler",
            "label": "_indexes",
            "offset": 0,
            "slot": "1",
            "type": "t_mapping(t_bytes32,t_uint256)"
          }
        ],
        "numberOfBytes": "64"
      },
      "t_struct(UintSet)6570_storage": {
        "encoding": "inplace",
        "label": "struct EnumerableSet.UintSet",
        "members": [
          {
            "astId": 6569,
            "contract": "contracts/PersonalBundler.sol:PersonalBundler",
            "label": "_inner",
            "offset": 0,
            "slot": "0",
            "type": "t_struct(Set)6172_storage"
          }
        ],
        "numberOfBytes": "64"
      },
      "t_uint256": {
        "encoding": "inplace",
        "label": "uint256",
        "numberOfBytes": "32"
      }
    }
  }
}