{
  "address": "0x8b3519652d36f94bB9513852E75eD5060E7C1ed3",
  "abi": [
    {
      "inputs": [
        {
          "internalType": "address",
          "name": "_admin",
          "type": "address"
        },
        {
          "internalType": "string",
          "name": "_customBaseURI",
          "type": "string"
        },
        {
          "internalType": "address",
          "name": "_personalBundlerImplementation",
          "type": "address"
        }
      ],
      "stateMutability": "nonpayable",
      "type": "constructor"
    },
    {
      "anonymous": false,
      "inputs": [
        {
          "indexed": true,
          "internalType": "address",
          "name": "previousOwner",
          "type": "address"
        },
        {
          "indexed": true,
          "internalType": "address",
          "name": "newOwner",
          "type": "address"
        }
      ],
      "name": "OwnershipTransferred",
      "type": "event"
    },
    {
      "anonymous": false,
      "inputs": [
        {
          "indexed": true,
          "internalType": "address",
          "name": "instance",
          "type": "address"
        },
        {
          "indexed": true,
          "internalType": "address",
          "name": "owner",
          "type": "address"
        },
        {
          "indexed": false,
          "internalType": "address",
          "name": "creator",
          "type": "address"
        }
      ],
      "name": "PersonalBundlerCreated",
      "type": "event"
    },
    {
      "inputs": [],
      "name": "acceptTransferOwnership",
      "outputs": [],
      "stateMutability": "nonpayable",
      "type": "function"
    },
    {
      "inputs": [],
      "name": "baseURI",
      "outputs": [
        {
          "internalType": "string",
          "name": "",
          "type": "string"
        }
      ],
      "stateMutability": "view",
      "type": "function"
    },
    {
      "inputs": [],
      "name": "cancelTransferOwnership",
      "outputs": [],
      "stateMutability": "nonpayable",
      "type": "function"
    },
    {
      "inputs": [
        {
          "internalType": "address",
          "name": "_to",
          "type": "address"
        }
      ],
      "name": "createPersonalBundler",
      "outputs": [
        {
          "internalType": "address",
          "name": "",
          "type": "address"
        }
      ],
      "stateMutability": "nonpayable",
      "type": "function"
    },
    {
      "inputs": [],
      "name": "owner",
      "outputs": [
        {
          "internalType": "address",
          "name": "",
          "type": "address"
        }
      ],
      "stateMutability": "view",
      "type": "function"
    },
    {
      "inputs": [
        {
          "internalType": "address",
          "name": "",
          "type": "address"
        }
      ],
      "name": "personalBundlerExists",
      "outputs": [
        {
          "internalType": "bool",
          "name": "",
          "type": "bool"
        }
      ],
      "stateMutability": "view",
      "type": "function"
    },
    {
      "inputs": [],
      "name": "personalBundlerImplementation",
      "outputs": [
        {
          "internalType": "address",
          "name": "",
          "type": "address"
        }
      ],
      "stateMutability": "view",
      "type": "function"
    },
    {
      "inputs": [],
      "name": "rejectTransferOwnership",
      "outputs": [],
      "stateMutability": "nonpayable",
      "type": "function"
    },
    {
      "inputs": [
        {
          "internalType": "address",
          "name": "_newOwnerCandidate",
          "type": "address"
        }
      ],
      "name": "requestTransferOwnership",
      "outputs": [],
      "stateMutability": "nonpayable",
      "type": "function"
    },
    {
      "inputs": [
        {
          "internalType": "string",
          "name": "_customBaseURI",
          "type": "string"
        }
      ],
      "name": "setBaseURI",
      "outputs": [],
      "stateMutability": "nonpayable",
      "type": "function"
    }
  ],
  "transactionHash": "0x4c1929a1badc8122d805aff1d8a8e0af601fe85291f27172df34fa7845ef48ce",
  "args": [
    "0x42e0911810C50FF07B12305365495aeb0b2b4f93",
    "https://metadata.nftfi.com/bundles/v1/personal/",
    "0x92881963dE60D878a3e3AD1f14472DE80B6Ef6fe"
  ],
  "solcInputHash": "4d2fe29bb9bcc7b729a2a79c750939bf",
  "bytecode": "0x60a06040523480156200001157600080fd5b5060405162000ce938038062000ce98339810160408190526200003491620000e8565b82620000408162000065565b5060026200004f838262000272565b506001600160a01b0316608052506200033e9050565b600080546001600160a01b038381166001600160a01b0319831681178455604051919092169283917f8be0079c531659141344cd1fd0a4f28419497f9722a3daafe3b4186f6b6457e09190a35050565b80516001600160a01b0381168114620000cd57600080fd5b919050565b634e487b7160e01b600052604160045260246000fd5b600080600060608486031215620000fe57600080fd5b6200010984620000b5565b602085810151919450906001600160401b03808211156200012957600080fd5b818701915087601f8301126200013e57600080fd5b815181811115620001535762000153620000d2565b604051601f8201601f19908116603f011681019083821181831017156200017e576200017e620000d2565b816040528281528a868487010111156200019757600080fd5b600093505b82841015620001bb57848401860151818501870152928501926200019c565b6000868483010152809750505050505050620001da60408501620000b5565b90509250925092565b600181811c90821680620001f857607f821691505b6020821081036200021957634e487b7160e01b600052602260045260246000fd5b50919050565b601f8211156200026d57600081815260208120601f850160051c81016020861015620002485750805b601f850160051c820191505b81811015620002695782815560010162000254565b5050505b505050565b81516001600160401b038111156200028e576200028e620000d2565b620002a6816200029f8454620001e3565b846200021f565b602080601f831160018114620002de5760008415620002c55750858301515b600019600386901b1c1916600185901b17855562000269565b600085815260208120601f198616915b828110156200030f57888601518255948401946001909101908401620002ee565b50858210156200032e5787850151600019600388901b60f8161c191681555b5050505050600190811b01905550565b6080516109886200036160003960008181610142015261034b01526109886000f3fe608060405234801561001057600080fd5b506004361061009e5760003560e01c80638da5cb5b116100665780638da5cb5b1461011157806392fede00146101225780639d6fa6181461012a578063a8846d6b1461013d578063e5c503f41461016457600080fd5b806355f804b3146100a35780635f992fdd146100b85780636c0360eb146100c05780637b371107146100de5780638c9717c2146100e6575b600080fd5b6100b66100b1366004610625565b610197565b005b6100b66101da565b6100c8610246565b6040516100d591906106d6565b60405180910390f35b6100b66102d4565b6100f96100f4366004610724565b610343565b6040516001600160a01b0390911681526020016100d5565b6000546001600160a01b03166100f9565b6100b6610447565b6100b6610138366004610724565b610471565b6100f97f000000000000000000000000000000000000000000000000000000000000000081565b610187610172366004610724565b60036020526000908152604090205460ff1681565b60405190151581526020016100d5565b6000546001600160a01b031633146101ca5760405162461bcd60e51b81526004016101c190610754565b60405180910390fd5b60026101d68282610812565b5050565b6001546001600160a01b031633146102345760405162461bcd60e51b815260206004820152601c60248201527f4f776e61626c653a206e6f74206f776e65722063616e6469646174650000000060448201526064016101c1565b600180546001600160a01b0319169055565b6002805461025390610789565b80601f016020809104026020016040519081016040528092919081815260200182805461027f90610789565b80156102cc5780601f106102a1576101008083540402835291602001916102cc565b820191906000526020600020905b8154815290600101906020018083116102af57829003601f168201915b505050505081565b6001546001600160a01b0316331461032e5760405162461bcd60e51b815260206004820152601c60248201527f4f776e61626c653a206e6f74206f776e65722063616e6469646174650000000060448201526064016101c1565b600154610234906001600160a01b0316610522565b60008061036f7f0000000000000000000000000000000000000000000000000000000000000000610572565b6001600160a01b0381166000818152600360205260409020805460ff19166001179055909150634571e3a66103ac6000546001600160a01b031690565b8560026040518463ffffffff1660e01b81526004016103cd939291906108d2565b600060405180830381600087803b1580156103e757600080fd5b505af11580156103fb573d6000803e3d6000fd5b50506040513381526001600160a01b038087169350841691507f7c9e0678503cac9ed63e63dd2effe06f3fe89e2a8bb7afad8aea5559f7c8481f9060200160405180910390a392915050565b6000546001600160a01b031633146102345760405162461bcd60e51b81526004016101c190610754565b6000546001600160a01b0316331461049b5760405162461bcd60e51b81526004016101c190610754565b6001600160a01b0381166105005760405162461bcd60e51b815260206004820152602660248201527f4f776e61626c653a206e6577206f776e657220697320746865207a65726f206160448201526564647265737360d01b60648201526084016101c1565b600180546001600160a01b0319166001600160a01b0392909216919091179055565b600080546001600160a01b038381166001600160a01b0319831681178455604051919092169283917f8be0079c531659141344cd1fd0a4f28419497f9722a3daafe3b4186f6b6457e09190a35050565b6000604051733d602d80600a3d3981f3363d3d373d3d3d363d7360601b81528260601b60148201526e5af43d82803e903d91602b57fd5bf360881b60288201526037816000f09150506001600160a01b03811661060a5760405162461bcd60e51b8152602060048201526016602482015275115490cc4c4d8dce8818dc99585d194819985a5b195960521b60448201526064016101c1565b919050565b634e487b7160e01b600052604160045260246000fd5b60006020828403121561063757600080fd5b813567ffffffffffffffff8082111561064f57600080fd5b818401915084601f83011261066357600080fd5b8135818111156106755761067561060f565b604051601f8201601f19908116603f0116810190838211818310171561069d5761069d61060f565b816040528281528760208487010111156106b657600080fd5b826020860160208301376000928101602001929092525095945050505050565b600060208083528351808285015260005b81811015610703578581018301518582016040015282016106e7565b506000604082860101526040601f19601f8301168501019250505092915050565b60006020828403121561073657600080fd5b81356001600160a01b038116811461074d57600080fd5b9392505050565b6020808252818101527f4f776e61626c653a2063616c6c6572206973206e6f7420746865206f776e6572604082015260600190565b600181811c9082168061079d57607f821691505b6020821081036107bd57634e487b7160e01b600052602260045260246000fd5b50919050565b601f82111561080d57600081815260208120601f850160051c810160208610156107ea5750805b601f850160051c820191505b81811015610809578281556001016107f6565b5050505b505050565b815167ffffffffffffffff81111561082c5761082c61060f565b6108408161083a8454610789565b846107c3565b602080601f831160018114610875576000841561085d5750858301515b600019600386901b1c1916600185901b178555610809565b600085815260208120601f198616915b828110156108a457888601518255948401946001909101908401610885565b50858210156108c25787850151600019600388901b60f8161c191681555b5050505050600190811b01905550565b6001600160a01b0384811682528316602080830191909152606060408301528254600091829161090181610789565b8060608701526080600180841660008114610923576001811461093d5761096b565b60ff1985168984015283151560051b89018301965061096b565b896000528560002060005b858110156109635781548b8201860152908301908701610948565b8a0184019750505b50949a995050505050505050505056fea164736f6c6343000811000a",
  "devdoc": {
    "author": "NFTfi",
    "kind": "dev",
    "methods": {
      "constructor": {
        "params": {
          "_admin": "admin address capable of setting URI",
          "_customBaseURI": "- Base URI",
          "_personalBundlerImplementation": "- deployed master copy of the personal bundler contract"
        }
      },
      "createPersonalBundler(address)": {
        "details": "clones a new personal bundler contract",
        "params": {
          "_to": "- owner of the personal bundler"
        }
      },
      "owner()": {
        "details": "Returns the address of the current owner."
      },
      "requestTransferOwnership(address)": {
        "details": "Requests transferring ownership of the contract to a new account (`_newOwnerCandidate`). Can only be called by the current owner."
      },
      "setBaseURI(string)": {
        "details": "Sets baseURI.",
        "params": {
          "_customBaseURI": "- Base URI"
        }
      }
    },
    "title": "PersonalBundlerFactory",
    "version": 1
  },
  "userdoc": {
    "kind": "user",
    "methods": {},
    "version": 1
  },
  "storageLayout": {
    "storage": [
      {
        "astId": 12135,
        "contract": "contracts/PersonalBundlerFactory.sol:PersonalBundlerFactory",
        "label": "_owner",
        "offset": 0,
        "slot": "0",
        "type": "t_address"
      },
      {
        "astId": 12137,
        "contract": "contracts/PersonalBundlerFactory.sol:PersonalBundlerFactory",
        "label": "_ownerCandidate",
        "offset": 0,
        "slot": "1",
        "type": "t_address"
      },
      {
        "astId": 10321,
        "contract": "contracts/PersonalBundlerFactory.sol:PersonalBundlerFactory",
        "label": "baseURI",
        "offset": 0,
        "slot": "2",
        "type": "t_string_storage"
      },
      {
        "astId": 10325,
        "contract": "contracts/PersonalBundlerFactory.sol:PersonalBundlerFactory",
        "label": "personalBundlerExists",
        "offset": 0,
        "slot": "3",
        "type": "t_mapping(t_address,t_bool)"
      }
    ],
    "types": {
      "t_address": {
        "encoding": "inplace",
        "label": "address",
        "numberOfBytes": "20"
      },
      "t_bool": {
        "encoding": "inplace",
        "label": "bool",
        "numberOfBytes": "1"
      },
      "t_mapping(t_address,t_bool)": {
        "encoding": "mapping",
        "key": "t_address",
        "label": "mapping(address => bool)",
        "numberOfBytes": "32",
        "value": "t_bool"
      },
      "t_string_storage": {
        "encoding": "bytes",
        "label": "string",
        "numberOfBytes": "32"
      }
    }
  }
}