{
  "address": "0x3af62B67B38B90E75E2fDFeE8038CAA87780DC2E",
  "abi": [
    {
      "inputs": [],
      "stateMutability": "nonpayable",
      "type": "constructor"
    },
    {
      "inputs": [],
      "name": "erc1155",
      "outputs": [
        {
          "internalType": "contract TestnetAirdropERC1155",
          "name": "",
          "type": "address"
        }
      ],
      "stateMutability": "view",
      "type": "function"
    },
    {
      "inputs": [],
      "name": "erc20",
      "outputs": [
        {
          "internalType": "contract TestnetAirdropERC20",
          "name": "",
          "type": "address"
        }
      ],
      "stateMutability": "view",
      "type": "function"
    },
    {
      "inputs": [],
      "name": "erc721",
      "outputs": [
        {
          "internalType": "contract TestnetAirdropERC721",
          "name": "",
          "type": "address"
        }
      ],
      "stateMutability": "view",
      "type": "function"
    },
    {
      "inputs": [],
      "name": "getErc1155",
      "outputs": [],
      "stateMutability": "nonpayable",
      "type": "function"
    },
    {
      "inputs": [],
      "name": "getErc20",
      "outputs": [],
      "stateMutability": "nonpayable",
      "type": "function"
    },
    {
      "inputs": [
        {
          "internalType": "address",
          "name": "_to",
          "type": "address"
        }
      ],
      "name": "getErc721",
      "outputs": [],
      "stateMutability": "nonpayable",
      "type": "function"
    },
    {
      "inputs": [],
      "name": "getErc721",
      "outputs": [],
      "stateMutability": "nonpayable",
      "type": "function"
    },
    {
      "inputs": [],
      "name": "getErc721Check",
      "outputs": [],
      "stateMutability": "nonpayable",
      "type": "function"
    },
    {
      "inputs": [],
      "name": "getLegacyErc721",
      "outputs": [],
      "stateMutability": "nonpayable",
      "type": "function"
    },
    {
      "inputs": [],
      "name": "legacyErc721",
      "outputs": [
        {
          "internalType": "contract TestnetAirdropLegacyERC721",
          "name": "",
          "type": "address"
        }
      ],
      "stateMutability": "view",
      "type": "function"
    },
    {
      "inputs": [],
      "name": "targetCollection",
      "outputs": [
        {
          "internalType": "address",
          "name": "",
          "type": "address"
        }
      ],
      "stateMutability": "view",
      "type": "function"
    },
    {
      "inputs": [],
      "name": "targetId",
      "outputs": [
        {
          "internalType": "uint256",
          "name": "",
          "type": "uint256"
        }
      ],
      "stateMutability": "view",
      "type": "function"
    },
    {
      "inputs": [
        {
          "internalType": "address",
          "name": "collection",
          "type": "address"
        },
        {
          "internalType": "uint256",
          "name": "id",
          "type": "uint256"
        }
      ],
      "name": "updateTargetAsset",
      "outputs": [],
      "stateMutability": "nonpayable",
      "type": "function"
    }
  ],
  "transactionHash": "0xbe7ee38686627bac9bae2f0be1991fab96796db496ada69ebde7377d831a56fb",
  "args": [],
  "solcInputHash": "4d2fe29bb9bcc7b729a2a79c750939bf",
  "bytecode": "0x608060405234801561001057600080fd5b5060405161001d9061013a565b604051809103906000f080158015610039573d6000803e3d6000fd5b50600280546001600160a01b0319166001600160a01b039290921691909117905560405161006690610147565b604051809103906000f080158015610082573d6000803e3d6000fd5b50600380546001600160a01b0319166001600160a01b03929092169190911790556040516100af90610154565b604051809103906000f0801580156100cb573d6000803e3d6000fd5b50600480546001600160a01b0319166001600160a01b03929092169190911790556040516100f890610161565b604051809103906000f080158015610114573d6000803e3d6000fd5b50600580546001600160a01b0319166001600160a01b039290921691909117905561016e565b6117ea8061062583390190565b6118f980611e0f83390190565b610dda8061370883390190565b61110b806144e283390190565b6104a88061017d6000396000f3fe608060405234801561001057600080fd5b50600436106100cf5760003560e01c80637f279bfb1161008c578063bca6ce6411610066578063bca6ce6414610197578063d4fcd345146101aa578063d56022d7146101bd578063e3376dc6146101d057600080fd5b80637f279bfb146101655780637ffa49221461017857806387fc5e061461018057600080fd5b80631b63e971146100d45780631dd2df29146100de57806334f875b61461010e5780633653cbbd14610142578063785e9e861461014a5780637af148c01461015d575b600080fd5b6100dc6101d8565b005b6000546100f1906001600160a01b031681565b6040516001600160a01b0390911681526020015b60405180910390f35b6100dc61011c36600461042e565b600080546001600160a01b0319166001600160a01b039390931692909217909155600155565b6100dc610241565b6004546100f1906001600160a01b031681565b6100dc610278565b6005546100f1906001600160a01b031681565b6100dc6102b7565b61018960015481565b604051908152602001610105565b6002546100f1906001600160a01b031681565b6100dc6101b836600461045a565b6102e7565b6003546100f1906001600160a01b031681565b6100dc6101e1565b6101e133610349565b6002546040516335313c2160e11b81523360048201526001600160a01b0390911690636a627842906024015b600060405180830381600087803b15801561022757600080fd5b505af115801561023b573d6000803e3d6000fd5b50505050565b6003546040516340c10f1960e01b8152336004820152600560248201526001600160a01b03909116906340c10f199060440161020d565b600480546040516340c10f1960e01b81523392810192909252670de0b6b3a764000060248301526001600160a01b0316906340c10f199060440161020d565b6005546040516335313c2160e11b81523360048201526001600160a01b0390911690636a6278429060240161020d565b6002546040516335313c2160e11b81526001600160a01b03838116600483015290911690636a62784290602401600060405180830381600087803b15801561032e57600080fd5b505af1158015610342573d6000803e3d6000fd5b5050505050565b6000546001546040516331a9108f60e11b815260048101919091526001600160a01b03838116921690636352211e90602401602060405180830381865afa158015610398573d6000803e3d6000fd5b505050506040513d601f19601f820116820180604052508101906103bc919061047e565b6001600160a01b0316146104165760405162461bcd60e51b815260206004820152601960248201527f646f6573206e6f74206f776e2074617267657420617373657400000000000000604482015260640160405180910390fd5b50565b6001600160a01b038116811461041657600080fd5b6000806040838503121561044157600080fd5b823561044c81610419565b946020939093013593505050565b60006020828403121561046c57600080fd5b813561047781610419565b9392505050565b60006020828403121561049057600080fd5b81516104778161041956fea164736f6c6343000811000a60806040523480156200001157600080fd5b5060408051602080820183526000808352835191820190935282815290916200003b838262000168565b5060016200004a828262000168565b50505062000067620000616200006d60201b60201c565b62000071565b62000234565b3390565b600680546001600160a01b038381166001600160a01b0319831681179093556040519116919082907f8be0079c531659141344cd1fd0a4f28419497f9722a3daafe3b4186f6b6457e090600090a35050565b634e487b7160e01b600052604160045260246000fd5b600181811c90821680620000ee57607f821691505b6020821081036200010f57634e487b7160e01b600052602260045260246000fd5b50919050565b601f8211156200016357600081815260208120601f850160051c810160208610156200013e5750805b601f850160051c820191505b818110156200015f578281556001016200014a565b5050505b505050565b81516001600160401b03811115620001845762000184620000c3565b6200019c81620001958454620000d9565b8462000115565b602080601f831160018114620001d45760008415620001bb5750858301515b600019600386901b1c1916600185901b1785556200015f565b600085815260208120601f198616915b828110156200020557888601518255948401946001909101908401620001e4565b5085821015620002245787850151600019600388901b60f8161c191681555b5050505050600190811b01905550565b6115a680620002446000396000f3fe608060405234801561001057600080fd5b50600436106101165760003560e01c8063715018a6116100a2578063b88d4fde11610071578063b88d4fde14610239578063c87b56dd1461024c578063e985e9c51461025f578063eb08ab2814610272578063f2fde38b1461027b57600080fd5b8063715018a6146102055780638da5cb5b1461020d57806395d89b411461021e578063a22cb4651461022657600080fd5b806323b872dd116100e957806323b872dd1461019857806342842e0e146101ab5780636352211e146101be5780636a627842146101d157806370a08231146101e457600080fd5b806301ffc9a71461011b57806306fdde0314610143578063081812fc14610158578063095ea7b314610183575b600080fd5b61012e6101293660046110be565b61028e565b60405190151581526020015b60405180910390f35b61014b6102e0565b60405161013a919061112b565b61016b61016636600461113e565b610372565b6040516001600160a01b03909116815260200161013a565b610196610191366004611173565b61040c565b005b6101966101a636600461119d565b610521565b6101966101b936600461119d565b610552565b61016b6101cc36600461113e565b61056d565b6101966101df3660046111d9565b6105e4565b6101f76101f23660046111d9565b610630565b60405190815260200161013a565b6101966106b7565b6006546001600160a01b031661016b565b61014b6106ed565b6101966102343660046111f4565b6106fc565b610196610247366004611246565b6107c0565b61014b61025a36600461113e565b6107f8565b61012e61026d366004611322565b6108e0565b6101f760075481565b6101966102893660046111d9565b61090e565b60006001600160e01b031982166380ac58cd60e01b14806102bf57506001600160e01b03198216635b5e139f60e01b145b806102da57506301ffc9a760e01b6001600160e01b03198316145b92915050565b6060600080546102ef90611355565b80601f016020809104026020016040519081016040528092919081815260200182805461031b90611355565b80156103685780601f1061033d57610100808354040283529160200191610368565b820191906000526020600020905b81548152906001019060200180831161034b57829003601f168201915b5050505050905090565b6000818152600260205260408120546001600160a01b03166103f05760405162461bcd60e51b815260206004820152602c60248201527f4552433732313a20617070726f76656420717565727920666f72206e6f6e657860448201526b34b9ba32b73a103a37b5b2b760a11b60648201526084015b60405180910390fd5b506000908152600460205260409020546001600160a01b031690565b60006104178261056d565b9050806001600160a01b0316836001600160a01b0316036104845760405162461bcd60e51b815260206004820152602160248201527f4552433732313a20617070726f76616c20746f2063757272656e74206f776e656044820152603960f91b60648201526084016103e7565b336001600160a01b03821614806104a057506104a081336108e0565b6105125760405162461bcd60e51b815260206004820152603860248201527f4552433732313a20617070726f76652063616c6c6572206973206e6f74206f7760448201527f6e6572206e6f7220617070726f76656420666f7220616c6c000000000000000060648201526084016103e7565b61051c83836109a9565b505050565b61052b3382610a17565b6105475760405162461bcd60e51b81526004016103e79061138f565b61051c838383610aee565b61051c838383604051806020016040528060008152506107c0565b6000818152600260205260408120546001600160a01b0316806102da5760405162461bcd60e51b815260206004820152602960248201527f4552433732313a206f776e657220717565727920666f72206e6f6e657869737460448201526832b73a103a37b5b2b760b91b60648201526084016103e7565b6006546001600160a01b0316331461060e5760405162461bcd60e51b81526004016103e7906113e0565b61061a81600754610c8e565b6007600081546106299061142b565b9091555050565b60006001600160a01b03821661069b5760405162461bcd60e51b815260206004820152602a60248201527f4552433732313a2062616c616e636520717565727920666f7220746865207a65604482015269726f206164647265737360b01b60648201526084016103e7565b506001600160a01b031660009081526003602052604090205490565b6006546001600160a01b031633146106e15760405162461bcd60e51b81526004016103e7906113e0565b6106eb6000610cac565b565b6060600180546102ef90611355565b336001600160a01b038316036107545760405162461bcd60e51b815260206004820152601960248201527f4552433732313a20617070726f766520746f2063616c6c65720000000000000060448201526064016103e7565b3360008181526005602090815260408083206001600160a01b03871680855290835292819020805460ff191686151590811790915590519081529192917f17307eab39ab6107e8899845ad3d59bd9653f200f220920489ca2b5937696c31910160405180910390a35050565b6107ca3383610a17565b6107e65760405162461bcd60e51b81526004016103e79061138f565b6107f284848484610cfe565b50505050565b6000818152600260205260409020546060906001600160a01b03166108775760405162461bcd60e51b815260206004820152602f60248201527f4552433732314d657461646174613a2055524920717565727920666f72206e6f60448201526e3732bc34b9ba32b73a103a37b5b2b760891b60648201526084016103e7565b600061088e60408051602081019091526000815290565b905060008151116108ae57604051806020016040528060008152506108d9565b806108b884610d31565b6040516020016108c9929190611444565b6040516020818303038152906040525b9392505050565b6001600160a01b03918216600090815260056020908152604080832093909416825291909152205460ff1690565b6006546001600160a01b031633146109385760405162461bcd60e51b81526004016103e7906113e0565b6001600160a01b03811661099d5760405162461bcd60e51b815260206004820152602660248201527f4f776e61626c653a206e6577206f776e657220697320746865207a65726f206160448201526564647265737360d01b60648201526084016103e7565b6109a681610cac565b50565b600081815260046020526040902080546001600160a01b0319166001600160a01b03841690811790915581906109de8261056d565b6001600160a01b03167f8c5be1e5ebec7d5bd14f71427d1e84f3dd0314c0f7b2291e5b200ac8c7c3b92560405160405180910390a45050565b6000818152600260205260408120546001600160a01b0316610a905760405162461bcd60e51b815260206004820152602c60248201527f4552433732313a206f70657261746f7220717565727920666f72206e6f6e657860448201526b34b9ba32b73a103a37b5b2b760a11b60648201526084016103e7565b6000610a9b8361056d565b9050806001600160a01b0316846001600160a01b03161480610ad65750836001600160a01b0316610acb84610372565b6001600160a01b0316145b80610ae65750610ae681856108e0565b949350505050565b826001600160a01b0316610b018261056d565b6001600160a01b031614610b695760405162461bcd60e51b815260206004820152602960248201527f4552433732313a207472616e73666572206f6620746f6b656e2074686174206960448201526839903737ba1037bbb760b91b60648201526084016103e7565b6001600160a01b038216610bcb5760405162461bcd60e51b8152602060048201526024808201527f4552433732313a207472616e7366657220746f20746865207a65726f206164646044820152637265737360e01b60648201526084016103e7565b610bd66000826109a9565b6001600160a01b0383166000908152600360205260408120805460019290610bff908490611473565b90915550506001600160a01b0382166000908152600360205260408120805460019290610c2d908490611486565b909155505060008181526002602052604080822080546001600160a01b0319166001600160a01b0386811691821790925591518493918716917fddf252ad1be2c89b69c2b068fc378daa952ba7f163c4a11628f55a4df523b3ef91a4505050565b610ca8828260405180602001604052806000815250610e32565b5050565b600680546001600160a01b038381166001600160a01b0319831681179093556040519116919082907f8be0079c531659141344cd1fd0a4f28419497f9722a3daafe3b4186f6b6457e090600090a35050565b610d09848484610aee565b610d1584848484610e65565b6107f25760405162461bcd60e51b81526004016103e790611499565b606081600003610d585750506040805180820190915260018152600360fc1b602082015290565b8160005b8115610d825780610d6c8161142b565b9150610d7b9050600a83611501565b9150610d5c565b60008167ffffffffffffffff811115610d9d57610d9d611230565b6040519080825280601f01601f191660200182016040528015610dc7576020820181803683370190505b5090505b8415610ae657610ddc600183611473565b9150610de9600a86611515565b610df4906030611486565b60f81b818381518110610e0957610e09611529565b60200101906001600160f81b031916908160001a905350610e2b600a86611501565b9450610dcb565b610e3c8383610f66565b610e496000848484610e65565b61051c5760405162461bcd60e51b81526004016103e790611499565b60006001600160a01b0384163b15610f5b57604051630a85bd0160e11b81526001600160a01b0385169063150b7a0290610ea990339089908890889060040161153f565b6020604051808303816000875af1925050508015610ee4575060408051601f3d908101601f19168201909252610ee19181019061157c565b60015b610f41573d808015610f12576040519150601f19603f3d011682016040523d82523d6000602084013e610f17565b606091505b508051600003610f395760405162461bcd60e51b81526004016103e790611499565b805181602001fd5b6001600160e01b031916630a85bd0160e11b149050610ae6565b506001949350505050565b6001600160a01b038216610fbc5760405162461bcd60e51b815260206004820181905260248201527f4552433732313a206d696e7420746f20746865207a65726f206164647265737360448201526064016103e7565b6000818152600260205260409020546001600160a01b0316156110215760405162461bcd60e51b815260206004820152601c60248201527f4552433732313a20746f6b656e20616c7265616479206d696e7465640000000060448201526064016103e7565b6001600160a01b038216600090815260036020526040812080546001929061104a908490611486565b909155505060008181526002602052604080822080546001600160a01b0319166001600160a01b03861690811790915590518392907fddf252ad1be2c89b69c2b068fc378daa952ba7f163c4a11628f55a4df523b3ef908290a45050565b6001600160e01b0319811681146109a657600080fd5b6000602082840312156110d057600080fd5b81356108d9816110a8565b60005b838110156110f65781810151838201526020016110de565b50506000910152565b600081518084526111178160208601602086016110db565b601f01601f19169290920160200192915050565b6020815260006108d960208301846110ff565b60006020828403121561115057600080fd5b5035919050565b80356001600160a01b038116811461116e57600080fd5b919050565b6000806040838503121561118657600080fd5b61118f83611157565b946020939093013593505050565b6000806000606084860312156111b257600080fd5b6111bb84611157565b92506111c960208501611157565b9150604084013590509250925092565b6000602082840312156111eb57600080fd5b6108d982611157565b6000806040838503121561120757600080fd5b61121083611157565b91506020830135801515811461122557600080fd5b809150509250929050565b634e487b7160e01b600052604160045260246000fd5b6000806000806080858703121561125c57600080fd5b61126585611157565b935061127360208601611157565b925060408501359150606085013567ffffffffffffffff8082111561129757600080fd5b818701915087601f8301126112ab57600080fd5b8135818111156112bd576112bd611230565b604051601f8201601f19908116603f011681019083821181831017156112e5576112e5611230565b816040528281528a60208487010111156112fe57600080fd5b82602086016020830137600060208483010152809550505050505092959194509250565b6000806040838503121561133557600080fd5b61133e83611157565b915061134c60208401611157565b90509250929050565b600181811c9082168061136957607f821691505b60208210810361138957634e487b7160e01b600052602260045260246000fd5b50919050565b60208082526031908201527f4552433732313a207472616e736665722063616c6c6572206973206e6f74206f6040820152701ddb995c881b9bdc88185c1c1c9bdd9959607a1b606082015260800190565b6020808252818101527f4f776e61626c653a2063616c6c6572206973206e6f7420746865206f776e6572604082015260600190565b634e487b7160e01b600052601160045260246000fd5b60006001820161143d5761143d611415565b5060010190565b600083516114568184602088016110db565b83519083019061146a8183602088016110db565b01949350505050565b818103818111156102da576102da611415565b808201808211156102da576102da611415565b60208082526032908201527f4552433732313a207472616e7366657220746f206e6f6e20455243373231526560408201527131b2b4bb32b91034b6b83632b6b2b73a32b960711b606082015260800190565b634e487b7160e01b600052601260045260246000fd5b600082611510576115106114eb565b500490565b600082611524576115246114eb565b500690565b634e487b7160e01b600052603260045260246000fd5b6001600160a01b0385811682528416602082015260408101839052608060608201819052600090611572908301846110ff565b9695505050505050565b60006020828403121561158e57600080fd5b81516108d9816110a856fea164736f6c6343000811000a60806040523480156200001157600080fd5b506040805160208101909152600081526200002c816200003e565b50620000383362000050565b62000213565b60026200004c828262000147565b5050565b600380546001600160a01b038381166001600160a01b0319831681179093556040519116919082907f8be0079c531659141344cd1fd0a4f28419497f9722a3daafe3b4186f6b6457e090600090a35050565b634e487b7160e01b600052604160045260246000fd5b600181811c90821680620000cd57607f821691505b602082108103620000ee57634e487b7160e01b600052602260045260246000fd5b50919050565b601f8211156200014257600081815260208120601f850160051c810160208610156200011d5750805b601f850160051c820191505b818110156200013e5782815560010162000129565b5050505b505050565b81516001600160401b03811115620001635762000163620000a2565b6200017b81620001748454620000b8565b84620000f4565b602080601f831160018114620001b357600084156200019a5750858301515b600019600386901b1c1916600185901b1785556200013e565b600085815260208120601f198616915b82811015620001e457888601518255948401946001909101908401620001c3565b5085821015620002035787850151600019600388901b60f8161c191681555b5050505050600190811b01905550565b6116d680620002236000396000f3fe608060405234801561001057600080fd5b50600436106100ce5760003560e01c8063715018a61161008c578063e985e9c511610066578063e985e9c5146101ba578063eb08ab28146101f6578063f242432a146101ff578063f2fde38b1461021257600080fd5b8063715018a6146101845780638da5cb5b1461018c578063a22cb465146101a757600080fd5b8062fdd58e146100d357806301ffc9a7146100f95780630e89341c1461011c5780632eb2c2d61461013c57806340c10f19146101515780634e1273f414610164575b600080fd5b6100e66100e1366004610ec3565b610225565b6040519081526020015b60405180910390f35b61010c610107366004610f03565b6102bf565b60405190151581526020016100f0565b61012f61012a366004610f27565b61030f565b6040516100f09190610f86565b61014f61014a3660046110e5565b6103a3565b005b61014f61015f366004610ec3565b61043a565b61017761017236600461118f565b610498565b6040516100f09190611295565b61014f6105c2565b6003546040516001600160a01b0390911681526020016100f0565b61014f6101b53660046112a8565b6105f8565b61010c6101c83660046112e4565b6001600160a01b03918216600090815260016020908152604080832093909416825291909152205460ff1690565b6100e660045481565b61014f61020d366004611317565b6106ce565b61014f61022036600461137c565b610755565b60006001600160a01b0383166102965760405162461bcd60e51b815260206004820152602b60248201527f455243313135353a2062616c616e636520717565727920666f7220746865207a60448201526a65726f206164647265737360a81b60648201526084015b60405180910390fd5b506000818152602081815260408083206001600160a01b03861684529091529020545b92915050565b60006001600160e01b03198216636cdb3d1360e11b14806102f057506001600160e01b031982166303a24d0760e21b145b806102b957506301ffc9a760e01b6001600160e01b03198316146102b9565b60606002805461031e90611397565b80601f016020809104026020016040519081016040528092919081815260200182805461034a90611397565b80156103975780601f1061036c57610100808354040283529160200191610397565b820191906000526020600020905b81548152906001019060200180831161037a57829003601f168201915b50505050509050919050565b6001600160a01b0385163314806103bf57506103bf85336101c8565b6104265760405162461bcd60e51b815260206004820152603260248201527f455243313135353a207472616e736665722063616c6c6572206973206e6f74206044820152711bdddb995c881b9bdc88185c1c1c9bdd995960721b606482015260840161028d565b61043385858585856107f0565b5050505050565b6003546001600160a01b031633146104645760405162461bcd60e51b815260040161028d906113d1565b6104818260045483604051806020016040528060008152506109cd565b6004600081546104909061141c565b909155505050565b606081518351146104fd5760405162461bcd60e51b815260206004820152602960248201527f455243313135353a206163636f756e747320616e6420696473206c656e677468604482015268040dad2e6dac2e8c6d60bb1b606482015260840161028d565b6000835167ffffffffffffffff81111561051957610519610f99565b604051908082528060200260200182016040528015610542578160200160208202803683370190505b50905060005b84518110156105ba5761058d85828151811061056657610566611435565b602002602001015185838151811061058057610580611435565b6020026020010151610225565b82828151811061059f5761059f611435565b60209081029190910101526105b38161141c565b9050610548565b509392505050565b6003546001600160a01b031633146105ec5760405162461bcd60e51b815260040161028d906113d1565b6105f66000610ad7565b565b6001600160a01b03821633036106625760405162461bcd60e51b815260206004820152602960248201527f455243313135353a2073657474696e6720617070726f76616c20737461747573604482015268103337b91039b2b63360b91b606482015260840161028d565b3360008181526001602090815260408083206001600160a01b03871680855290835292819020805460ff191686151590811790915590519081529192917f17307eab39ab6107e8899845ad3d59bd9653f200f220920489ca2b5937696c31910160405180910390a35050565b6001600160a01b0385163314806106ea57506106ea85336101c8565b6107485760405162461bcd60e51b815260206004820152602960248201527f455243313135353a2063616c6c6572206973206e6f74206f776e6572206e6f7260448201526808185c1c1c9bdd995960ba1b606482015260840161028d565b6104338585858585610b29565b6003546001600160a01b0316331461077f5760405162461bcd60e51b815260040161028d906113d1565b6001600160a01b0381166107e45760405162461bcd60e51b815260206004820152602660248201527f4f776e61626c653a206e6577206f776e657220697320746865207a65726f206160448201526564647265737360d01b606482015260840161028d565b6107ed81610ad7565b50565b81518351146108525760405162461bcd60e51b815260206004820152602860248201527f455243313135353a2069647320616e6420616d6f756e7473206c656e677468206044820152670dad2e6dac2e8c6d60c31b606482015260840161028d565b6001600160a01b0384166108785760405162461bcd60e51b815260040161028d9061144b565b3360005b845181101561095f57600085828151811061089957610899611435565b6020026020010151905060008583815181106108b7576108b7611435565b602090810291909101810151600084815280835260408082206001600160a01b038e1683529093529190912054909150818110156109075760405162461bcd60e51b815260040161028d90611490565b6000838152602081815260408083206001600160a01b038e8116855292528083208585039055908b168252812080548492906109449084906114da565b92505081905550505050806109589061141c565b905061087c565b50846001600160a01b0316866001600160a01b0316826001600160a01b03167f4a39dc06d4c0dbc64b70af90fd698a233a518aa5d07e595d983b8c0526c8f7fb87876040516109af9291906114ed565b60405180910390a46109c5818787878787610c46565b505050505050565b6001600160a01b038416610a2d5760405162461bcd60e51b815260206004820152602160248201527f455243313135353a206d696e7420746f20746865207a65726f206164647265736044820152607360f81b606482015260840161028d565b33610a4781600087610a3e88610da1565b61043388610da1565b6000848152602081815260408083206001600160a01b038916845290915281208054859290610a779084906114da565b909155505060408051858152602081018590526001600160a01b0380881692600092918516917fc3d58168c5ae7397731d063d5bbf3d657854427343f4c083240f7aacaa2d0f62910160405180910390a461043381600087878787610dec565b600380546001600160a01b038381166001600160a01b0319831681179093556040519116919082907f8be0079c531659141344cd1fd0a4f28419497f9722a3daafe3b4186f6b6457e090600090a35050565b6001600160a01b038416610b4f5760405162461bcd60e51b815260040161028d9061144b565b33610b5f818787610a3e88610da1565b6000848152602081815260408083206001600160a01b038a16845290915290205483811015610ba05760405162461bcd60e51b815260040161028d90611490565b6000858152602081815260408083206001600160a01b038b8116855292528083208785039055908816825281208054869290610bdd9084906114da565b909155505060408051868152602081018690526001600160a01b03808916928a821692918616917fc3d58168c5ae7397731d063d5bbf3d657854427343f4c083240f7aacaa2d0f62910160405180910390a4610c3d828888888888610dec565b50505050505050565b6001600160a01b0384163b156109c55760405163bc197c8160e01b81526001600160a01b0385169063bc197c8190610c8a908990899088908890889060040161151b565b6020604051808303816000875af1925050508015610cc5575060408051601f3d908101601f19168201909252610cc291810190611579565b60015b610d7157610cd1611596565b806308c379a003610d0a5750610ce56115b2565b80610cf05750610d0c565b8060405162461bcd60e51b815260040161028d9190610f86565b505b60405162461bcd60e51b815260206004820152603460248201527f455243313135353a207472616e7366657220746f206e6f6e20455243313135356044820152732932b1b2b4bb32b91034b6b83632b6b2b73a32b960611b606482015260840161028d565b6001600160e01b0319811663bc197c8160e01b14610c3d5760405162461bcd60e51b815260040161028d9061163c565b60408051600180825281830190925260609160009190602080830190803683370190505090508281600081518110610ddb57610ddb611435565b602090810291909101015292915050565b6001600160a01b0384163b156109c55760405163f23a6e6160e01b81526001600160a01b0385169063f23a6e6190610e309089908990889088908890600401611684565b6020604051808303816000875af1925050508015610e6b575060408051601f3d908101601f19168201909252610e6891810190611579565b60015b610e7757610cd1611596565b6001600160e01b0319811663f23a6e6160e01b14610c3d5760405162461bcd60e51b815260040161028d9061163c565b80356001600160a01b0381168114610ebe57600080fd5b919050565b60008060408385031215610ed657600080fd5b610edf83610ea7565b946020939093013593505050565b6001600160e01b0319811681146107ed57600080fd5b600060208284031215610f1557600080fd5b8135610f2081610eed565b9392505050565b600060208284031215610f3957600080fd5b5035919050565b6000815180845260005b81811015610f6657602081850181015186830182015201610f4a565b506000602082860101526020601f19601f83011685010191505092915050565b602081526000610f206020830184610f40565b634e487b7160e01b600052604160045260246000fd5b601f8201601f1916810167ffffffffffffffff81118282101715610fd557610fd5610f99565b6040525050565b600067ffffffffffffffff821115610ff657610ff6610f99565b5060051b60200190565b600082601f83011261101157600080fd5b8135602061101e82610fdc565b60405161102b8282610faf565b83815260059390931b850182019282810191508684111561104b57600080fd5b8286015b84811015611066578035835291830191830161104f565b509695505050505050565b600082601f83011261108257600080fd5b813567ffffffffffffffff81111561109c5761109c610f99565b6040516110b3601f8301601f191660200182610faf565b8181528460208386010111156110c857600080fd5b816020850160208301376000918101602001919091529392505050565b600080600080600060a086880312156110fd57600080fd5b61110686610ea7565b945061111460208701610ea7565b9350604086013567ffffffffffffffff8082111561113157600080fd5b61113d89838a01611000565b9450606088013591508082111561115357600080fd5b61115f89838a01611000565b9350608088013591508082111561117557600080fd5b5061118288828901611071565b9150509295509295909350565b600080604083850312156111a257600080fd5b823567ffffffffffffffff808211156111ba57600080fd5b818501915085601f8301126111ce57600080fd5b813560206111db82610fdc565b6040516111e88282610faf565b83815260059390931b850182019282810191508984111561120857600080fd5b948201945b8386101561122d5761121e86610ea7565b8252948201949082019061120d565b9650508601359250508082111561124357600080fd5b5061125085828601611000565b9150509250929050565b600081518084526020808501945080840160005b8381101561128a5781518752958201959082019060010161126e565b509495945050505050565b602081526000610f20602083018461125a565b600080604083850312156112bb57600080fd5b6112c483610ea7565b9150602083013580151581146112d957600080fd5b809150509250929050565b600080604083850312156112f757600080fd5b61130083610ea7565b915061130e60208401610ea7565b90509250929050565b600080600080600060a0868803121561132f57600080fd5b61133886610ea7565b945061134660208701610ea7565b93506040860135925060608601359150608086013567ffffffffffffffff81111561137057600080fd5b61118288828901611071565b60006020828403121561138e57600080fd5b610f2082610ea7565b600181811c908216806113ab57607f821691505b6020821081036113cb57634e487b7160e01b600052602260045260246000fd5b50919050565b6020808252818101527f4f776e61626c653a2063616c6c6572206973206e6f7420746865206f776e6572604082015260600190565b634e487b7160e01b600052601160045260246000fd5b60006001820161142e5761142e611406565b5060010190565b634e487b7160e01b600052603260045260246000fd5b60208082526025908201527f455243313135353a207472616e7366657220746f20746865207a65726f206164604082015264647265737360d81b606082015260800190565b6020808252602a908201527f455243313135353a20696e73756666696369656e742062616c616e636520666f60408201526939103a3930b739b332b960b11b606082015260800190565b808201808211156102b9576102b9611406565b604081526000611500604083018561125a565b8281036020840152611512818561125a565b95945050505050565b6001600160a01b0386811682528516602082015260a0604082018190526000906115479083018661125a565b8281036060840152611559818661125a565b9050828103608084015261156d8185610f40565b98975050505050505050565b60006020828403121561158b57600080fd5b8151610f2081610eed565b600060033d11156115af5760046000803e5060005160e01c5b90565b600060443d10156115c05790565b6040516003193d81016004833e81513d67ffffffffffffffff81602484011181841117156115f057505050505090565b82850191508151818111156116085750505050505090565b843d87010160208285010111156116225750505050505090565b61163160208286010187610faf565b509095945050505050565b60208082526028908201527f455243313135353a204552433131353552656365697665722072656a656374656040820152676420746f6b656e7360c01b606082015260800190565b6001600160a01b03868116825285166020820152604081018490526060810183905260a0608082018190526000906116be90830184610f40565b97965050505050505056fea164736f6c6343000811000a60806040523480156200001157600080fd5b506040805160208082018352600080835283519182019093529182529060036200003c838262000169565b5060046200004b828262000169565b50505062000068620000626200006e60201b60201c565b62000072565b62000235565b3390565b600580546001600160a01b038381166001600160a01b0319831681179093556040519116919082907f8be0079c531659141344cd1fd0a4f28419497f9722a3daafe3b4186f6b6457e090600090a35050565b634e487b7160e01b600052604160045260246000fd5b600181811c90821680620000ef57607f821691505b6020821081036200011057634e487b7160e01b600052602260045260246000fd5b50919050565b601f8211156200016457600081815260208120601f850160051c810160208610156200013f5750805b601f850160051c820191505b8181101562000160578281556001016200014b565b5050505b505050565b81516001600160401b03811115620001855762000185620000c4565b6200019d81620001968454620000da565b8462000116565b602080601f831160018114620001d55760008415620001bc5750858301515b600019600386901b1c1916600185901b17855562000160565b600085815260208120601f198616915b828110156200020657888601518255948401946001909101908401620001e5565b5085821015620002255787850151600019600388901b60f8161c191681555b5050505050600190811b01905550565b610b9580620002456000396000f3fe608060405234801561001057600080fd5b50600436106100f55760003560e01c806370a0823111610097578063a457c2d711610066578063a457c2d7146101eb578063a9059cbb146101fe578063dd62ed3e14610211578063f2fde38b1461024a57600080fd5b806370a0823114610197578063715018a6146101c05780638da5cb5b146101c857806395d89b41146101e357600080fd5b806323b872dd116100d357806323b872dd1461014d578063313ce56714610160578063395093511461016f57806340c10f191461018257600080fd5b806306fdde03146100fa578063095ea7b31461011857806318160ddd1461013b575b600080fd5b61010261025d565b60405161010f91906109d3565b60405180910390f35b61012b610126366004610a3d565b6102ef565b604051901515815260200161010f565b6002545b60405190815260200161010f565b61012b61015b366004610a67565b610306565b6040516012815260200161010f565b61012b61017d366004610a3d565b6103b5565b610195610190366004610a3d565b6103f1565b005b61013f6101a5366004610aa3565b6001600160a01b031660009081526020819052604090205490565b610195610429565b6005546040516001600160a01b03909116815260200161010f565b61010261045f565b61012b6101f9366004610a3d565b61046e565b61012b61020c366004610a3d565b610507565b61013f61021f366004610ac5565b6001600160a01b03918216600090815260016020908152604080832093909416825291909152205490565b610195610258366004610aa3565b610514565b60606003805461026c90610af8565b80601f016020809104026020016040519081016040528092919081815260200182805461029890610af8565b80156102e55780601f106102ba576101008083540402835291602001916102e5565b820191906000526020600020905b8154815290600101906020018083116102c857829003601f168201915b5050505050905090565b60006102fc3384846105af565b5060015b92915050565b60006103138484846106d3565b6001600160a01b03841660009081526001602090815260408083203384529091529020548281101561039d5760405162461bcd60e51b815260206004820152602860248201527f45524332303a207472616e7366657220616d6f756e74206578636565647320616044820152676c6c6f77616e636560c01b60648201526084015b60405180910390fd5b6103aa85338584036105af565b506001949350505050565b3360008181526001602090815260408083206001600160a01b038716845290915281205490916102fc9185906103ec908690610b32565b6105af565b6005546001600160a01b0316331461041b5760405162461bcd60e51b815260040161039490610b53565b61042582826108a2565b5050565b6005546001600160a01b031633146104535760405162461bcd60e51b815260040161039490610b53565b61045d6000610981565b565b60606004805461026c90610af8565b3360009081526001602090815260408083206001600160a01b0386168452909152812054828110156104f05760405162461bcd60e51b815260206004820152602560248201527f45524332303a2064656372656173656420616c6c6f77616e63652062656c6f77604482015264207a65726f60d81b6064820152608401610394565b6104fd33858584036105af565b5060019392505050565b60006102fc3384846106d3565b6005546001600160a01b0316331461053e5760405162461bcd60e51b815260040161039490610b53565b6001600160a01b0381166105a35760405162461bcd60e51b815260206004820152602660248201527f4f776e61626c653a206e6577206f776e657220697320746865207a65726f206160448201526564647265737360d01b6064820152608401610394565b6105ac81610981565b50565b6001600160a01b0383166106115760405162461bcd60e51b8152602060048201526024808201527f45524332303a20617070726f76652066726f6d20746865207a65726f206164646044820152637265737360e01b6064820152608401610394565b6001600160a01b0382166106725760405162461bcd60e51b815260206004820152602260248201527f45524332303a20617070726f766520746f20746865207a65726f206164647265604482015261737360f01b6064820152608401610394565b6001600160a01b0383811660008181526001602090815260408083209487168084529482529182902085905590518481527f8c5be1e5ebec7d5bd14f71427d1e84f3dd0314c0f7b2291e5b200ac8c7c3b925910160405180910390a3505050565b6001600160a01b0383166107375760405162461bcd60e51b815260206004820152602560248201527f45524332303a207472616e736665722066726f6d20746865207a65726f206164604482015264647265737360d81b6064820152608401610394565b6001600160a01b0382166107995760405162461bcd60e51b815260206004820152602360248201527f45524332303a207472616e7366657220746f20746865207a65726f206164647260448201526265737360e81b6064820152608401610394565b6001600160a01b038316600090815260208190526040902054818110156108115760405162461bcd60e51b815260206004820152602660248201527f45524332303a207472616e7366657220616d6f756e7420657863656564732062604482015265616c616e636560d01b6064820152608401610394565b6001600160a01b03808516600090815260208190526040808220858503905591851681529081208054849290610848908490610b32565b92505081905550826001600160a01b0316846001600160a01b03167fddf252ad1be2c89b69c2b068fc378daa952ba7f163c4a11628f55a4df523b3ef8460405161089491815260200190565b60405180910390a350505050565b6001600160a01b0382166108f85760405162461bcd60e51b815260206004820152601f60248201527f45524332303a206d696e7420746f20746865207a65726f2061646472657373006044820152606401610394565b806002600082825461090a9190610b32565b90915550506001600160a01b03821660009081526020819052604081208054839290610937908490610b32565b90915550506040518181526001600160a01b038316906000907fddf252ad1be2c89b69c2b068fc378daa952ba7f163c4a11628f55a4df523b3ef9060200160405180910390a35050565b600580546001600160a01b038381166001600160a01b0319831681179093556040519116919082907f8be0079c531659141344cd1fd0a4f28419497f9722a3daafe3b4186f6b6457e090600090a35050565b600060208083528351808285015260005b81811015610a00578581018301518582016040015282016109e4565b506000604082860101526040601f19601f8301168501019250505092915050565b80356001600160a01b0381168114610a3857600080fd5b919050565b60008060408385031215610a5057600080fd5b610a5983610a21565b946020939093013593505050565b600080600060608486031215610a7c57600080fd5b610a8584610a21565b9250610a9360208501610a21565b9150604084013590509250925092565b600060208284031215610ab557600080fd5b610abe82610a21565b9392505050565b60008060408385031215610ad857600080fd5b610ae183610a21565b9150610aef60208401610a21565b90509250929050565b600181811c90821680610b0c57607f821691505b602082108103610b2c57634e487b7160e01b600052602260045260246000fd5b50919050565b8082018082111561030057634e487b7160e01b600052601160045260246000fd5b6020808252818101527f4f776e61626c653a2063616c6c6572206973206e6f7420746865206f776e657260408201526060019056fea164736f6c6343000811000a608060405234801561001057600080fd5b5061001a3361001f565b610071565b600480546001600160a01b038381166001600160a01b0319831681179093556040519116919082907f8be0079c531659141344cd1fd0a4f28419497f9722a3daafe3b4186f6b6457e090600090a35050565b61108b806100806000396000f3fe608060405234801561001057600080fd5b50600436106101005760003560e01c8063715018a611610097578063e985e9c511610066578063e985e9c514610247578063eb08ab281461025a578063ecc98ce414610263578063f2fde38b1461028a57600080fd5b8063715018a6146102085780638da5cb5b14610210578063a22cb46514610221578063b88d4fde1461023457600080fd5b80634f558e79116100d35780634f558e79146101865780636352211e146101c15780636a627842146101d457806370a08231146101e757600080fd5b8063081812fc14610105578063095ea7b31461014b57806323b872dd1461016057806342842e0e14610173575b600080fd5b61012e610113366004610d13565b6000908152600160205260409020546001600160a01b031690565b6040516001600160a01b0390911681526020015b60405180910390f35b61015e610159366004610d48565b61029d565b005b61015e61016e366004610d72565b6103f3565b61015e610181366004610d72565b610517565b6101b1610194366004610d13565b6000908152602081905260409020546001600160a01b0316151590565b6040519015158152602001610142565b61012e6101cf366004610d13565b61055f565b61015e6101e2366004610dae565b6105b6565b6101fa6101f5366004610dae565b610604565b604051908152602001610142565b61015e610664565b6004546001600160a01b031661012e565b61015e61022f366004610dc9565b61069a565b61015e610242366004610e1b565b61074b565b6101b1610255366004610ef7565b6107d3565b6101fa60055481565b61027163785cf2dd60e11b81565b6040516001600160e01b03199091168152602001610142565b61015e610298366004610dae565b610801565b60006102a88261055f565b9050806001600160a01b0316836001600160a01b0316036102fd5760405162461bcd60e51b815260206004820152600a60248201526939b0b6b29037bbb732b960b11b60448201526064015b60405180910390fd5b336001600160a01b0382161480610319575061031981336107d3565b6103585760405162461bcd60e51b815260206004820152601060248201526f39b2b73232b9103737ba1037bbb732b960811b60448201526064016102f4565b6000828152600160205260409020546001600160a01b031615158061038557506001600160a01b03831615155b156103ee5760008281526001602090815260409182902080546001600160a01b0319166001600160a01b038781169182179092559251858152908416917f8c5be1e5ebec7d5bd14f71427d1e84f3dd0314c0f7b2291e5b200ac8c7c3b925910160405180910390a35b505050565b806103fe338261089c565b61041a5760405162461bcd60e51b81526004016102f490610f2a565b6001600160a01b0384166104615760405162461bcd60e51b815260206004820152600e60248201526d66726f6d2030206164647265737360901b60448201526064016102f4565b6001600160a01b0383166104a65760405162461bcd60e51b815260206004820152600c60248201526b746f2030206164647265737360a01b60448201526064016102f4565b6104b084836108fb565b6104ba84836109cf565b6104c48383610a88565b826001600160a01b0316846001600160a01b03167fddf252ad1be2c89b69c2b068fc378daa952ba7f163c4a11628f55a4df523b3ef8460405161050991815260200190565b60405180910390a350505050565b80610522338261089c565b61053e5760405162461bcd60e51b81526004016102f490610f2a565b6105598484846040518060200160405280600081525061074b565b50505050565b6000818152602081905260408120546001600160a01b0316806105b05760405162461bcd60e51b815260206004820152600960248201526830206164647265737360b81b60448201526064016102f4565b92915050565b6004546001600160a01b031633146105e05760405162461bcd60e51b81526004016102f490610f4f565b6105ec81600554610b46565b600580549060006105fc83610f9a565b919050555050565b60006001600160a01b0382166106485760405162461bcd60e51b815260206004820152600960248201526830206164647265737360b81b60448201526064016102f4565b506001600160a01b031660009081526002602052604090205490565b6004546001600160a01b0316331461068e5760405162461bcd60e51b81526004016102f490610f4f565b6106986000610bd3565b565b336001600160a01b038316036106de5760405162461bcd60e51b81526020600482015260096024820152683a379039b2b73232b960b91b60448201526064016102f4565b3360008181526003602090815260408083206001600160a01b03871680855290835292819020805460ff191686151590811790915590519081529192917f17307eab39ab6107e8899845ad3d59bd9653f200f220920489ca2b5937696c3191015b60405180910390a35050565b81610756338261089c565b6107725760405162461bcd60e51b81526004016102f490610f2a565b61077d8585856103f3565b61078985858585610c25565b6107cc5760405162461bcd60e51b81526020600482015260146024820152731cd85999481d1c985b9cd9995c8819985a5b195960621b60448201526064016102f4565b5050505050565b6001600160a01b03918216600090815260036020908152604080832093909416825291909152205460ff1690565b6004546001600160a01b0316331461082b5760405162461bcd60e51b81526004016102f490610f4f565b6001600160a01b0381166108905760405162461bcd60e51b815260206004820152602660248201527f4f776e61626c653a206e6577206f776e657220697320746865207a65726f206160448201526564647265737360d01b60648201526084016102f4565b61089981610bd3565b50565b6000806108a88361055f565b9050806001600160a01b0316846001600160a01b031614806108e357506000838152600160205260409020546001600160a01b038581169116145b806108f357506108f381856107d3565b949350505050565b816001600160a01b031661090e8261055f565b6001600160a01b0316146109585760405162461bcd60e51b815260206004820152601160248201527030b2323932b9b9903737ba1037bbb732b960791b60448201526064016102f4565b6000818152600160205260409020546001600160a01b0316156109cb57600081815260016020908152604080832080546001600160a01b0319169055518381526001600160a01b038516917f8c5be1e5ebec7d5bd14f71427d1e84f3dd0314c0f7b2291e5b200ac8c7c3b925910161073f565b5050565b816001600160a01b03166109e28261055f565b6001600160a01b031614610a2c5760405162461bcd60e51b815260206004820152601160248201527030b2323932b9b9903737ba1037bbb732b960791b60448201526064016102f4565b6001600160a01b038216600090815260026020526040902054610a50906001610cd2565b6001600160a01b03909216600090815260026020908152604080832094909455918152908190522080546001600160a01b0319169055565b6000818152602081905260409020546001600160a01b031615610ae65760405162461bcd60e51b815260206004820152601660248201527530b63932b0b23c9037bbb732b91037b3103a37b5b2b760511b60448201526064016102f4565b60008181526020818152604080832080546001600160a01b0319166001600160a01b03871690811790915583526002909152902054610b26906001610cf5565b6001600160a01b0390921660009081526002602052604090209190915550565b6001600160a01b038216610b8b5760405162461bcd60e51b815260206004820152600c60248201526b746f2030206164647265737360a01b60448201526064016102f4565b610b958282610a88565b6040518181526001600160a01b038316906000907fddf252ad1be2c89b69c2b068fc378daa952ba7f163c4a11628f55a4df523b3ef9060200161073f565b600480546001600160a01b038381166001600160a01b0319831681179093556040519116919082907f8be0079c531659141344cd1fd0a4f28419497f9722a3daafe3b4186f6b6457e090600090a35050565b60006001600160a01b0384163b610c3e575060016108f3565b60405163785cf2dd60e11b81526000906001600160a01b0386169063f0b9e5ba90610c7190899088908890600401610fb3565b6020604051808303816000875af1158015610c90573d6000803e3d6000fd5b505050506040513d601f19601f82011682018060405250810190610cb49190611018565b6001600160e01b03191663785cf2dd60e11b14915050949350505050565b600082821115610ce457610ce4611042565b610cee8284611058565b9392505050565b6000610d01828461106b565b9050828110156105b0576105b0611042565b600060208284031215610d2557600080fd5b5035919050565b80356001600160a01b0381168114610d4357600080fd5b919050565b60008060408385031215610d5b57600080fd5b610d6483610d2c565b946020939093013593505050565b600080600060608486031215610d8757600080fd5b610d9084610d2c565b9250610d9e60208501610d2c565b9150604084013590509250925092565b600060208284031215610dc057600080fd5b610cee82610d2c565b60008060408385031215610ddc57600080fd5b610de583610d2c565b915060208301358015158114610dfa57600080fd5b809150509250929050565b634e487b7160e01b600052604160045260246000fd5b60008060008060808587031215610e3157600080fd5b610e3a85610d2c565b9350610e4860208601610d2c565b925060408501359150606085013567ffffffffffffffff80821115610e6c57600080fd5b818701915087601f830112610e8057600080fd5b813581811115610e9257610e92610e05565b604051601f8201601f19908116603f01168101908382118183101715610eba57610eba610e05565b816040528281528a6020848701011115610ed357600080fd5b82602086016020830137600060208483010152809550505050505092959194509250565b60008060408385031215610f0a57600080fd5b610f1383610d2c565b9150610f2160208401610d2c565b90509250929050565b6020808252600b908201526a31b0b72a3930b739b332b960a91b604082015260600190565b6020808252818101527f4f776e61626c653a2063616c6c6572206973206e6f7420746865206f776e6572604082015260600190565b634e487b7160e01b600052601160045260246000fd5b600060018201610fac57610fac610f84565b5060010190565b60018060a01b038416815260006020848184015260606040840152835180606085015260005b81811015610ff557858101830151858201608001528201610fd9565b506000608082860101526080601f19601f83011685010192505050949350505050565b60006020828403121561102a57600080fd5b81516001600160e01b031981168114610cee57600080fd5b634e487b7160e01b600052600160045260246000fd5b818103818111156105b0576105b0610f84565b808201808211156105b0576105b0610f8456fea164736f6c6343000811000a",
  "devdoc": {
    "kind": "dev",
    "methods": {},
    "version": 1
  },
  "userdoc": {
    "kind": "user",
    "methods": {},
    "version": 1
  },
  "storageLayout": {
    "storage": [
      {
        "astId": 11856,
        "contract": "contracts/test/TestnetAirdrops.sol:TestnetAirdrops",
        "label": "targetCollection",
        "offset": 0,
        "slot": "0",
        "type": "t_address"
      },
      {
        "astId": 11858,
        "contract": "contracts/test/TestnetAirdrops.sol:TestnetAirdrops",
        "label": "targetId",
        "offset": 0,
        "slot": "1",
        "type": "t_uint256"
      },
      {
        "astId": 11861,
        "contract": "contracts/test/TestnetAirdrops.sol:TestnetAirdrops",
        "label": "erc721",
        "offset": 0,
        "slot": "2",
        "type": "t_contract(TestnetAirdropERC721)12042"
      },
      {
        "astId": 11864,
        "contract": "contracts/test/TestnetAirdrops.sol:TestnetAirdrops",
        "label": "erc1155",
        "offset": 0,
        "slot": "3",
        "type": "t_contract(TestnetAirdropERC1155)12076"
      },
      {
        "astId": 11867,
        "contract": "contracts/test/TestnetAirdrops.sol:TestnetAirdrops",
        "label": "erc20",
        "offset": 0,
        "slot": "4",
        "type": "t_contract(TestnetAirdropERC20)12104"
      },
      {
        "astId": 11870,
        "contract": "contracts/test/TestnetAirdrops.sol:TestnetAirdrops",
        "label": "legacyErc721",
        "offset": 0,
        "slot": "5",
        "type": "t_contract(TestnetAirdropLegacyERC721)12127"
      }
    ],
    "types": {
      "t_address": {
        "encoding": "inplace",
        "label": "address",
        "numberOfBytes": "20"
      },
      "t_contract(TestnetAirdropERC1155)12076": {
        "encoding": "inplace",
        "label": "contract TestnetAirdropERC1155",
        "numberOfBytes": "20"
      },
      "t_contract(TestnetAirdropERC20)12104": {
        "encoding": "inplace",
        "label": "contract TestnetAirdropERC20",
        "numberOfBytes": "20"
      },
      "t_contract(TestnetAirdropERC721)12042": {
        "encoding": "inplace",
        "label": "contract TestnetAirdropERC721",
        "numberOfBytes": "20"
      },
      "t_contract(TestnetAirdropLegacyERC721)12127": {
        "encoding": "inplace",
        "label": "contract TestnetAirdropLegacyERC721",
        "numberOfBytes": "20"
      },
      "t_uint256": {
        "encoding": "inplace",
        "label": "uint256",
        "numberOfBytes": "32"
      }
    }
  }
}