{
  "address": "0xdA1FfB0Bf2cE637FF12CA31C841Ced04b6483CfD",
  "abi": [
    {
      "inputs": [
        {
          "internalType": "address",
          "name": "_admin",
          "type": "address"
        },
        {
          "internalType": "address",
          "name": "_nftfiHub",
          "type": "address"
        },
        {
          "internalType": "address[]",
          "name": "_permittedErc20s",
          "type": "address[]"
        }
      ],
      "stateMutability": "nonpayable",
      "type": "constructor"
    },
    {
      "inputs": [],
      "name": "AdminFeeChanged",
      "type": "error"
    },
    {
      "inputs": [],
      "name": "BasisPointsTooHigh",
      "type": "error"
    },
    {
      "inputs": [],
      "name": "CollateralIdNotInRange",
      "type": "error"
    },
    {
      "inputs": [],
      "name": "CurrencyDenominationNotPermitted",
      "type": "error"
    },
    {
      "inputs": [],
      "name": "ERC20ZeroAddress",
      "type": "error"
    },
    {
      "inputs": [],
      "name": "FunctionInformationArityMismatch",
      "type": "error"
    },
    {
      "inputs": [],
      "name": "InvalidLenderSignature",
      "type": "error"
    },
    {
      "inputs": [],
      "name": "InvalidNonce",
      "type": "error"
    },
    {
      "inputs": [],
      "name": "LoanAlreadyRepaidOrLiquidated",
      "type": "error"
    },
    {
      "inputs": [],
      "name": "LoanDurationCannotBeZero",
      "type": "error"
    },
    {
      "inputs": [],
      "name": "LoanDurationExceedsMaximum",
      "type": "error"
    },
    {
      "inputs": [],
      "name": "LoanDurationOverflow",
      "type": "error"
    },
    {
      "inputs": [],
      "name": "LoanNotOverdueYet",
      "type": "error"
    },
    {
      "inputs": [],
      "name": "MinIdGreaterThanMaxId",
      "type": "error"
    },
    {
      "inputs": [],
      "name": "NFTCollateralContractNotPermitted",
      "type": "error"
    },
    {
      "inputs": [],
      "name": "NFTNotOwned",
      "type": "error"
    },
    {
      "inputs": [],
      "name": "NegativeInterestRate",
      "type": "error"
    },
    {
      "inputs": [],
      "name": "NoNFTsOwned",
      "type": "error"
    },
    {
      "inputs": [],
      "name": "NoTokensInEscrow",
      "type": "error"
    },
    {
      "inputs": [],
      "name": "NoTokensOwned",
      "type": "error"
    },
    {
      "inputs": [],
      "name": "OnlyLenderCanLiquidate",
      "type": "error"
    },
    {
      "inputs": [],
      "name": "OriginalAcceptOfferDisabled",
      "type": "error"
    },
    {
      "inputs": [],
      "name": "RenegotiationSignatureInvalid",
      "type": "error"
    },
    {
      "inputs": [],
      "name": "SenderNotBorrower",
      "type": "error"
    },
    {
      "inputs": [],
      "name": "TokenIsCollateral",
      "type": "error"
    },
    {
      "inputs": [],
      "name": "TokensInEscrow",
      "type": "error"
    },
    {
      "anonymous": false,
      "inputs": [
        {
          "indexed": false,
          "internalType": "uint16",
          "name": "newAdminFee",
          "type": "uint16"
        }
      ],
      "name": "AdminFeeUpdated",
      "type": "event"
    },
    {
      "anonymous": false,
      "inputs": [
        {
          "indexed": true,
          "internalType": "address",
          "name": "erc20Contract",
          "type": "address"
        },
        {
          "indexed": false,
          "internalType": "bool",
          "name": "isPermitted",
          "type": "bool"
        }
      ],
      "name": "ERC20Permit",
      "type": "event"
    },
    {
      "anonymous": false,
      "inputs": [
        {
          "indexed": true,
          "internalType": "uint32",
          "name": "loanId",
          "type": "uint32"
        }
      ],
      "name": "EscrowRepay",
      "type": "event"
    },
    {
      "anonymous": false,
      "inputs": [
        {
          "indexed": true,
          "internalType": "uint32",
          "name": "loanId",
          "type": "uint32"
        },
        {
          "indexed": true,
          "internalType": "address",
          "name": "borrower",
          "type": "address"
        },
        {
          "indexed": true,
          "internalType": "address",
          "name": "lender",
          "type": "address"
        },
        {
          "indexed": false,
          "internalType": "uint256",
          "name": "loanPrincipalAmount",
          "type": "uint256"
        },
        {
          "indexed": false,
          "internalType": "uint256",
          "name": "nftCollateralId",
          "type": "uint256"
        },
        {
          "indexed": false,
          "internalType": "uint256",
          "name": "loanMaturityDate",
          "type": "uint256"
        },
        {
          "indexed": false,
          "internalType": "uint256",
          "name": "loanLiquidationDate",
          "type": "uint256"
        },
        {
          "indexed": false,
          "internalType": "address",
          "name": "nftCollateralContract",
          "type": "address"
        }
      ],
      "name": "LoanLiquidated",
      "type": "event"
    },
    {
      "anonymous": false,
      "inputs": [
        {
          "indexed": true,
          "internalType": "uint32",
          "name": "loanId",
          "type": "uint32"
        },
        {
          "indexed": true,
          "internalType": "address",
          "name": "borrower",
          "type": "address"
        },
        {
          "indexed": true,
          "internalType": "address",
          "name": "lender",
          "type": "address"
        },
        {
          "indexed": false,
          "internalType": "uint32",
          "name": "newLoanDuration",
          "type": "uint32"
        },
        {
          "indexed": false,
          "internalType": "uint256",
          "name": "newMaximumRepaymentAmount",
          "type": "uint256"
        },
        {
          "indexed": false,
          "internalType": "uint256",
          "name": "renegotiationFee",
          "type": "uint256"
        },
        {
          "indexed": false,
          "internalType": "uint256",
          "name": "renegotiationAdminFee",
          "type": "uint256"
        }
      ],
      "name": "LoanRenegotiated",
      "type": "event"
    },
    {
      "anonymous": false,
      "inputs": [
        {
          "indexed": true,
          "internalType": "uint32",
          "name": "loanId",
          "type": "uint32"
        },
        {
          "indexed": true,
          "internalType": "address",
          "name": "borrower",
          "type": "address"
        },
        {
          "indexed": true,
          "internalType": "address",
          "name": "lender",
          "type": "address"
        },
        {
          "indexed": false,
          "internalType": "uint256",
          "name": "loanPrincipalAmount",
          "type": "uint256"
        },
        {
          "indexed": false,
          "internalType": "uint256",
          "name": "nftCollateralId",
          "type": "uint256"
        },
        {
          "indexed": false,
          "internalType": "uint256",
          "name": "amountPaidToLender",
          "type": "uint256"
        },
        {
          "indexed": false,
          "internalType": "uint256",
          "name": "adminFee",
          "type": "uint256"
        },
        {
          "indexed": false,
          "internalType": "uint256",
          "name": "revenueShare",
          "type": "uint256"
        },
        {
          "indexed": false,
          "internalType": "address",
          "name": "revenueSharePartner",
          "type": "address"
        },
        {
          "indexed": false,
          "internalType": "address",
          "name": "nftCollateralContract",
          "type": "address"
        },
        {
          "indexed": false,
          "internalType": "address",
          "name": "loanERC20Denomination",
          "type": "address"
        }
      ],
      "name": "LoanRepaid",
      "type": "event"
    },
    {
      "anonymous": false,
      "inputs": [
        {
          "indexed": true,
          "internalType": "uint32",
          "name": "loanId",
          "type": "uint32"
        },
        {
          "indexed": true,
          "internalType": "address",
          "name": "borrower",
          "type": "address"
        },
        {
          "indexed": true,
          "internalType": "address",
          "name": "lender",
          "type": "address"
        },
        {
          "components": [
            {
              "internalType": "uint256",
              "name": "loanPrincipalAmount",
              "type": "uint256"
            },
            {
              "internalType": "uint256",
              "name": "maximumRepaymentAmount",
              "type": "uint256"
            },
            {
              "internalType": "uint256",
              "name": "nftCollateralId",
              "type": "uint256"
            },
            {
              "internalType": "address",
              "name": "loanERC20Denomination",
              "type": "address"
            },
            {
              "internalType": "uint32",
              "name": "loanDuration",
              "type": "uint32"
            },
            {
              "internalType": "uint16",
              "name": "loanInterestRateForDurationInBasisPoints",
              "type": "uint16"
            },
            {
              "internalType": "uint16",
              "name": "loanAdminFeeInBasisPoints",
              "type": "uint16"
            },
            {
              "internalType": "address",
              "name": "nftCollateralWrapper",
              "type": "address"
            },
            {
              "internalType": "uint64",
              "name": "loanStartTime",
              "type": "uint64"
            },
            {
              "internalType": "address",
              "name": "nftCollateralContract",
              "type": "address"
            },
            {
              "internalType": "address",
              "name": "borrower",
              "type": "address"
            }
          ],
          "indexed": false,
          "internalType": "struct LoanData.LoanTerms",
          "name": "loanTerms",
          "type": "tuple"
        },
        {
          "components": [
            {
              "internalType": "address",
              "name": "revenueSharePartner",
              "type": "address"
            },
            {
              "internalType": "uint16",
              "name": "revenueShareInBasisPoints",
              "type": "uint16"
            },
            {
              "internalType": "uint16",
              "name": "referralFeeInBasisPoints",
              "type": "uint16"
            }
          ],
          "indexed": false,
          "internalType": "struct LoanData.LoanExtras",
          "name": "loanExtras",
          "type": "tuple"
        }
      ],
      "name": "LoanStarted",
      "type": "event"
    },
    {
      "anonymous": false,
      "inputs": [
        {
          "indexed": false,
          "internalType": "uint256",
          "name": "newMaximumLoanDuration",
          "type": "uint256"
        }
      ],
      "name": "MaximumLoanDurationUpdated",
      "type": "event"
    },
    {
      "anonymous": false,
      "inputs": [
        {
          "indexed": true,
          "internalType": "address",
          "name": "previousOwner",
          "type": "address"
        },
        {
          "indexed": true,
          "internalType": "address",
          "name": "newOwner",
          "type": "address"
        }
      ],
      "name": "OwnershipTransferred",
      "type": "event"
    },
    {
      "anonymous": false,
      "inputs": [
        {
          "indexed": false,
          "internalType": "address",
          "name": "account",
          "type": "address"
        }
      ],
      "name": "Paused",
      "type": "event"
    },
    {
      "anonymous": false,
      "inputs": [
        {
          "indexed": false,
          "internalType": "address",
          "name": "account",
          "type": "address"
        }
      ],
      "name": "Unpaused",
      "type": "event"
    },
    {
      "inputs": [],
      "name": "HUNDRED_PERCENT",
      "outputs": [
        {
          "internalType": "uint16",
          "name": "",
          "type": "uint16"
        }
      ],
      "stateMutability": "view",
      "type": "function"
    },
    {
      "inputs": [],
      "name": "LOAN_COORDINATOR",
      "outputs": [
        {
          "internalType": "bytes32",
          "name": "",
          "type": "bytes32"
        }
      ],
      "stateMutability": "view",
      "type": "function"
    },
    {
      "inputs": [],
      "name": "LOAN_TYPE",
      "outputs": [
        {
          "internalType": "bytes32",
          "name": "",
          "type": "bytes32"
        }
      ],
      "stateMutability": "pure",
      "type": "function"
    },
    {
      "inputs": [
        {
          "components": [
            {
              "internalType": "uint256",
              "name": "loanPrincipalAmount",
              "type": "uint256"
            },
            {
              "internalType": "uint256",
              "name": "maximumRepaymentAmount",
              "type": "uint256"
            },
            {
              "internalType": "uint256",
              "name": "nftCollateralId",
              "type": "uint256"
            },
            {
              "internalType": "address",
              "name": "nftCollateralContract",
              "type": "address"
            },
            {
              "internalType": "uint32",
              "name": "loanDuration",
              "type": "uint32"
            },
            {
              "internalType": "uint16",
              "name": "loanAdminFeeInBasisPoints",
              "type": "uint16"
            },
            {
              "internalType": "address",
              "name": "loanERC20Denomination",
              "type": "address"
            },
            {
              "internalType": "address",
              "name": "referrer",
              "type": "address"
            }
          ],
          "internalType": "struct LoanData.Offer",
          "name": "_offer",
          "type": "tuple"
        },
        {
          "components": [
            {
              "internalType": "uint256",
              "name": "nonce",
              "type": "uint256"
            },
            {
              "internalType": "uint256",
              "name": "expiry",
              "type": "uint256"
            },
            {
              "internalType": "address",
              "name": "signer",
              "type": "address"
            },
            {
              "internalType": "bytes",
              "name": "signature",
              "type": "bytes"
            }
          ],
          "internalType": "struct LoanData.Signature",
          "name": "_signature",
          "type": "tuple"
        },
        {
          "components": [
            {
              "internalType": "address",
              "name": "revenueSharePartner",
              "type": "address"
            },
            {
              "internalType": "uint16",
              "name": "referralFeeInBasisPoints",
              "type": "uint16"
            }
          ],
          "internalType": "struct LoanData.BorrowerSettings",
          "name": "_borrowerSettings",
          "type": "tuple"
        }
      ],
      "name": "acceptCollectionOffer",
      "outputs": [],
      "stateMutability": "nonpayable",
      "type": "function"
    },
    {
      "inputs": [
        {
          "components": [
            {
              "internalType": "uint256",
              "name": "loanPrincipalAmount",
              "type": "uint256"
            },
            {
              "internalType": "uint256",
              "name": "maximumRepaymentAmount",
              "type": "uint256"
            },
            {
              "internalType": "uint256",
              "name": "nftCollateralId",
              "type": "uint256"
            },
            {
              "internalType": "address",
              "name": "nftCollateralContract",
              "type": "address"
            },
            {
              "internalType": "uint32",
              "name": "loanDuration",
              "type": "uint32"
            },
            {
              "internalType": "uint16",
              "name": "loanAdminFeeInBasisPoints",
              "type": "uint16"
            },
            {
              "internalType": "address",
              "name": "loanERC20Denomination",
              "type": "address"
            },
            {
              "internalType": "address",
              "name": "referrer",
              "type": "address"
            }
          ],
          "internalType": "struct LoanData.Offer",
          "name": "_offer",
          "type": "tuple"
        },
        {
          "components": [
            {
              "internalType": "uint256",
              "name": "minId",
              "type": "uint256"
            },
            {
              "internalType": "uint256",
              "name": "maxId",
              "type": "uint256"
            }
          ],
          "internalType": "struct LoanData.CollectionIdRange",
          "name": "_idRange",
          "type": "tuple"
        },
        {
          "components": [
            {
              "internalType": "uint256",
              "name": "nonce",
              "type": "uint256"
            },
            {
              "internalType": "uint256",
              "name": "expiry",
              "type": "uint256"
            },
            {
              "internalType": "address",
              "name": "signer",
              "type": "address"
            },
            {
              "internalType": "bytes",
              "name": "signature",
              "type": "bytes"
            }
          ],
          "internalType": "struct LoanData.Signature",
          "name": "_signature",
          "type": "tuple"
        },
        {
          "components": [
            {
              "internalType": "address",
              "name": "revenueSharePartner",
              "type": "address"
            },
            {
              "internalType": "uint16",
              "name": "referralFeeInBasisPoints",
              "type": "uint16"
            }
          ],
          "internalType": "struct LoanData.BorrowerSettings",
          "name": "_borrowerSettings",
          "type": "tuple"
        }
      ],
      "name": "acceptCollectionOfferWithIdRange",
      "outputs": [],
      "stateMutability": "nonpayable",
      "type": "function"
    },
    {
      "inputs": [
        {
          "components": [
            {
              "internalType": "uint256",
              "name": "loanPrincipalAmount",
              "type": "uint256"
            },
            {
              "internalType": "uint256",
              "name": "maximumRepaymentAmount",
              "type": "uint256"
            },
            {
              "internalType": "uint256",
              "name": "nftCollateralId",
              "type": "uint256"
            },
            {
              "internalType": "address",
              "name": "nftCollateralContract",
              "type": "address"
            },
            {
              "internalType": "uint32",
              "name": "loanDuration",
              "type": "uint32"
            },
            {
              "internalType": "uint16",
              "name": "loanAdminFeeInBasisPoints",
              "type": "uint16"
            },
            {
              "internalType": "address",
              "name": "loanERC20Denomination",
              "type": "address"
            },
            {
              "internalType": "address",
              "name": "referrer",
              "type": "address"
            }
          ],
          "internalType": "struct LoanData.Offer",
          "name": "",
          "type": "tuple"
        },
        {
          "components": [
            {
              "internalType": "uint256",
              "name": "nonce",
              "type": "uint256"
            },
            {
              "internalType": "uint256",
              "name": "expiry",
              "type": "uint256"
            },
            {
              "internalType": "address",
              "name": "signer",
              "type": "address"
            },
            {
              "internalType": "bytes",
              "name": "signature",
              "type": "bytes"
            }
          ],
          "internalType": "struct LoanData.Signature",
          "name": "",
          "type": "tuple"
        },
        {
          "components": [
            {
              "internalType": "address",
              "name": "revenueSharePartner",
              "type": "address"
            },
            {
              "internalType": "uint16",
              "name": "referralFeeInBasisPoints",
              "type": "uint16"
            }
          ],
          "internalType": "struct LoanData.BorrowerSettings",
          "name": "",
          "type": "tuple"
        }
      ],
      "name": "acceptOffer",
      "outputs": [
        {
          "internalType": "uint32",
          "name": "",
          "type": "uint32"
        }
      ],
      "stateMutability": "nonpayable",
      "type": "function"
    },
    {
      "inputs": [],
      "name": "acceptTransferOwnership",
      "outputs": [],
      "stateMutability": "nonpayable",
      "type": "function"
    },
    {
      "inputs": [],
      "name": "adminFeeInBasisPoints",
      "outputs": [
        {
          "internalType": "uint16",
          "name": "",
          "type": "uint16"
        }
      ],
      "stateMutability": "view",
      "type": "function"
    },
    {
      "inputs": [
        {
          "internalType": "uint256",
          "name": "_nonce",
          "type": "uint256"
        }
      ],
      "name": "cancelLoanCommitmentBeforeLoanHasBegun",
      "outputs": [],
      "stateMutability": "nonpayable",
      "type": "function"
    },
    {
      "inputs": [],
      "name": "cancelTransferOwnership",
      "outputs": [],
      "stateMutability": "nonpayable",
      "type": "function"
    },
    {
      "inputs": [
        {
          "internalType": "address",
          "name": "_tokenAddress",
          "type": "address"
        },
        {
          "internalType": "uint256",
          "name": "_tokenId",
          "type": "uint256"
        },
        {
          "internalType": "address",
          "name": "_receiver",
          "type": "address"
        }
      ],
      "name": "drainERC1155Airdrop",
      "outputs": [],
      "stateMutability": "nonpayable",
      "type": "function"
    },
    {
      "inputs": [
        {
          "internalType": "address",
          "name": "_tokenAddress",
          "type": "address"
        },
        {
          "internalType": "uint256",
          "name": "amount",
          "type": "uint256"
        },
        {
          "internalType": "address",
          "name": "_receiver",
          "type": "address"
        }
      ],
      "name": "drainERC20Airdrop",
      "outputs": [],
      "stateMutability": "nonpayable",
      "type": "function"
    },
    {
      "inputs": [
        {
          "internalType": "address",
          "name": "_tokenAddress",
          "type": "address"
        },
        {
          "internalType": "uint256",
          "name": "_tokenId",
          "type": "uint256"
        },
        {
          "internalType": "address",
          "name": "_receiver",
          "type": "address"
        }
      ],
      "name": "drainERC721Airdrop",
      "outputs": [],
      "stateMutability": "nonpayable",
      "type": "function"
    },
    {
      "inputs": [
        {
          "internalType": "address",
          "name": "_erc20",
          "type": "address"
        }
      ],
      "name": "getERC20Permit",
      "outputs": [
        {
          "internalType": "bool",
          "name": "",
          "type": "bool"
        }
      ],
      "stateMutability": "view",
      "type": "function"
    },
    {
      "inputs": [
        {
          "internalType": "address",
          "name": "_token",
          "type": "address"
        }
      ],
      "name": "getEscrowedPayBack",
      "outputs": [],
      "stateMutability": "nonpayable",
      "type": "function"
    },
    {
      "inputs": [
        {
          "internalType": "uint32",
          "name": "_loanId",
          "type": "uint32"
        }
      ],
      "name": "getPayoffAmount",
      "outputs": [
        {
          "internalType": "uint256",
          "name": "",
          "type": "uint256"
        }
      ],
      "stateMutability": "view",
      "type": "function"
    },
    {
      "inputs": [
        {
          "internalType": "address",
          "name": "_user",
          "type": "address"
        },
        {
          "internalType": "uint256",
          "name": "_nonce",
          "type": "uint256"
        }
      ],
      "name": "getWhetherNonceHasBeenUsedForUser",
      "outputs": [
        {
          "internalType": "bool",
          "name": "",
          "type": "bool"
        }
      ],
      "stateMutability": "view",
      "type": "function"
    },
    {
      "inputs": [],
      "name": "hub",
      "outputs": [
        {
          "internalType": "contract INftfiHub",
          "name": "",
          "type": "address"
        }
      ],
      "stateMutability": "view",
      "type": "function"
    },
    {
      "inputs": [
        {
          "internalType": "uint32",
          "name": "_loanId",
          "type": "uint32"
        }
      ],
      "name": "liquidateOverdueLoan",
      "outputs": [],
      "stateMutability": "nonpayable",
      "type": "function"
    },
    {
      "inputs": [
        {
          "internalType": "uint32",
          "name": "",
          "type": "uint32"
        }
      ],
      "name": "loanIdToLoan",
      "outputs": [
        {
          "internalType": "uint256",
          "name": "loanPrincipalAmount",
          "type": "uint256"
        },
        {
          "internalType": "uint256",
          "name": "maximumRepaymentAmount",
          "type": "uint256"
        },
        {
          "internalType": "uint256",
          "name": "nftCollateralId",
          "type": "uint256"
        },
        {
          "internalType": "address",
          "name": "loanERC20Denomination",
          "type": "address"
        },
        {
          "internalType": "uint32",
          "name": "loanDuration",
          "type": "uint32"
        },
        {
          "internalType": "uint16",
          "name": "loanInterestRateForDurationInBasisPoints",
          "type": "uint16"
        },
        {
          "internalType": "uint16",
          "name": "loanAdminFeeInBasisPoints",
          "type": "uint16"
        },
        {
          "internalType": "address",
          "name": "nftCollateralWrapper",
          "type": "address"
        },
        {
          "internalType": "uint64",
          "name": "loanStartTime",
          "type": "uint64"
        },
        {
          "internalType": "address",
          "name": "nftCollateralContract",
          "type": "address"
        },
        {
          "internalType": "address",
          "name": "borrower",
          "type": "address"
        }
      ],
      "stateMutability": "view",
      "type": "function"
    },
    {
      "inputs": [
        {
          "internalType": "uint32",
          "name": "",
          "type": "uint32"
        }
      ],
      "name": "loanIdToLoanExtras",
      "outputs": [
        {
          "internalType": "address",
          "name": "revenueSharePartner",
          "type": "address"
        },
        {
          "internalType": "uint16",
          "name": "revenueShareInBasisPoints",
          "type": "uint16"
        },
        {
          "internalType": "uint16",
          "name": "referralFeeInBasisPoints",
          "type": "uint16"
        }
      ],
      "stateMutability": "view",
      "type": "function"
    },
    {
      "inputs": [
        {
          "internalType": "uint32",
          "name": "",
          "type": "uint32"
        }
      ],
      "name": "loanRepaidOrLiquidated",
      "outputs": [
        {
          "internalType": "bool",
          "name": "",
          "type": "bool"
        }
      ],
      "stateMutability": "view",
      "type": "function"
    },
    {
      "inputs": [],
      "name": "maximumLoanDuration",
      "outputs": [
        {
          "internalType": "uint256",
          "name": "",
          "type": "uint256"
        }
      ],
      "stateMutability": "view",
      "type": "function"
    },
    {
      "inputs": [
        {
          "internalType": "uint32",
          "name": "_loanId",
          "type": "uint32"
        }
      ],
      "name": "mintObligationReceipt",
      "outputs": [],
      "stateMutability": "nonpayable",
      "type": "function"
    },
    {
      "inputs": [
        {
          "internalType": "address",
          "name": "",
          "type": "address"
        },
        {
          "internalType": "address",
          "name": "",
          "type": "address"
        },
        {
          "internalType": "uint256[]",
          "name": "",
          "type": "uint256[]"
        },
        {
          "internalType": "uint256[]",
          "name": "",
          "type": "uint256[]"
        },
        {
          "internalType": "bytes",
          "name": "",
          "type": "bytes"
        }
      ],
      "name": "onERC1155BatchReceived",
      "outputs": [
        {
          "internalType": "bytes4",
          "name": "",
          "type": "bytes4"
        }
      ],
      "stateMutability": "nonpayable",
      "type": "function"
    },
    {
      "inputs": [
        {
          "internalType": "address",
          "name": "",
          "type": "address"
        },
        {
          "internalType": "address",
          "name": "",
          "type": "address"
        },
        {
          "internalType": "uint256",
          "name": "",
          "type": "uint256"
        },
        {
          "internalType": "uint256",
          "name": "",
          "type": "uint256"
        },
        {
          "internalType": "bytes",
          "name": "",
          "type": "bytes"
        }
      ],
      "name": "onERC1155Received",
      "outputs": [
        {
          "internalType": "bytes4",
          "name": "",
          "type": "bytes4"
        }
      ],
      "stateMutability": "nonpayable",
      "type": "function"
    },
    {
      "inputs": [
        {
          "internalType": "address",
          "name": "",
          "type": "address"
        },
        {
          "internalType": "address",
          "name": "",
          "type": "address"
        },
        {
          "internalType": "uint256",
          "name": "",
          "type": "uint256"
        },
        {
          "internalType": "bytes",
          "name": "",
          "type": "bytes"
        }
      ],
      "name": "onERC721Received",
      "outputs": [
        {
          "internalType": "bytes4",
          "name": "",
          "type": "bytes4"
        }
      ],
      "stateMutability": "nonpayable",
      "type": "function"
    },
    {
      "inputs": [],
      "name": "owner",
      "outputs": [
        {
          "internalType": "address",
          "name": "",
          "type": "address"
        }
      ],
      "stateMutability": "view",
      "type": "function"
    },
    {
      "inputs": [],
      "name": "pause",
      "outputs": [],
      "stateMutability": "nonpayable",
      "type": "function"
    },
    {
      "inputs": [],
      "name": "paused",
      "outputs": [
        {
          "internalType": "bool",
          "name": "",
          "type": "bool"
        }
      ],
      "stateMutability": "view",
      "type": "function"
    },
    {
      "inputs": [
        {
          "internalType": "uint32",
          "name": "_loanId",
          "type": "uint32"
        }
      ],
      "name": "payBackLoan",
      "outputs": [],
      "stateMutability": "nonpayable",
      "type": "function"
    },
    {
      "inputs": [
        {
          "internalType": "uint32",
          "name": "_loanId",
          "type": "uint32"
        }
      ],
      "name": "payBackLoanSafe",
      "outputs": [],
      "stateMutability": "nonpayable",
      "type": "function"
    },
    {
      "inputs": [],
      "name": "rejectTransferOwnership",
      "outputs": [],
      "stateMutability": "nonpayable",
      "type": "function"
    },
    {
      "inputs": [
        {
          "internalType": "uint32",
          "name": "_loanId",
          "type": "uint32"
        },
        {
          "internalType": "uint32",
          "name": "_newLoanDuration",
          "type": "uint32"
        },
        {
          "internalType": "uint256",
          "name": "_newMaximumRepaymentAmount",
          "type": "uint256"
        },
        {
          "internalType": "uint256",
          "name": "_renegotiationFee",
          "type": "uint256"
        },
        {
          "internalType": "uint256",
          "name": "_lenderNonce",
          "type": "uint256"
        },
        {
          "internalType": "uint256",
          "name": "_expiry",
          "type": "uint256"
        },
        {
          "internalType": "bytes",
          "name": "_lenderSignature",
          "type": "bytes"
        }
      ],
      "name": "renegotiateLoan",
      "outputs": [],
      "stateMutability": "nonpayable",
      "type": "function"
    },
    {
      "inputs": [
        {
          "internalType": "address",
          "name": "_newOwnerCandidate",
          "type": "address"
        }
      ],
      "name": "requestTransferOwnership",
      "outputs": [],
      "stateMutability": "nonpayable",
      "type": "function"
    },
    {
      "inputs": [
        {
          "internalType": "address",
          "name": "_erc20",
          "type": "address"
        },
        {
          "internalType": "bool",
          "name": "_permit",
          "type": "bool"
        }
      ],
      "name": "setERC20Permit",
      "outputs": [],
      "stateMutability": "nonpayable",
      "type": "function"
    },
    {
      "inputs": [
        {
          "internalType": "address[]",
          "name": "_erc20s",
          "type": "address[]"
        },
        {
          "internalType": "bool[]",
          "name": "_permits",
          "type": "bool[]"
        }
      ],
      "name": "setERC20Permits",
      "outputs": [],
      "stateMutability": "nonpayable",
      "type": "function"
    },
    {
      "inputs": [
        {
          "internalType": "bytes4",
          "name": "_interfaceId",
          "type": "bytes4"
        }
      ],
      "name": "supportsInterface",
      "outputs": [
        {
          "internalType": "bool",
          "name": "",
          "type": "bool"
        }
      ],
      "stateMutability": "view",
      "type": "function"
    },
    {
      "inputs": [],
      "name": "unpause",
      "outputs": [],
      "stateMutability": "nonpayable",
      "type": "function"
    },
    {
      "inputs": [
        {
          "internalType": "uint16",
          "name": "_newAdminFeeInBasisPoints",
          "type": "uint16"
        }
      ],
      "name": "updateAdminFee",
      "outputs": [],
      "stateMutability": "nonpayable",
      "type": "function"
    },
    {
      "inputs": [
        {
          "internalType": "uint256",
          "name": "_newMaximumLoanDuration",
          "type": "uint256"
        }
      ],
      "name": "updateMaximumLoanDuration",
      "outputs": [],
      "stateMutability": "nonpayable",
      "type": "function"
    }
  ],
  "transactionHash": "0xaddbca33aabc260a763b5d7b772057a35341de9b53cd6d6cee7b1cc5a46d6e83",
  "args": [
    "0x02e037F56728E947e92Af2c05baF7FeF387Ddd06",
    "0x4308664397Fa0E7A0eC8f96deFfa0E59D27683eF",
    []
  ],
  "numDeployments": 1,
  "solcInputHash": "103c7252f85cc80233118bf16e4e3c05",
  "bytecode": "0x60c06040526301e91c806003556004805461ffff19166101f41790553480156200002857600080fd5b50604051620051ce380380620051ce8339810160408190526200004b9162000298565b8282828282732e372AeD29b34982e73446a0FE3F0FFB9d87468b63f99a8ffb6040518163ffffffff1660e01b8152600401620000b89060208082526017908201527f4449524543545f4c4f414e5f434f4f5244494e41544f52000000000000000000604082015260600190565b602060405180830381865af4158015620000d6573d6000803e3d6000fd5b505050506040513d601f19601f82011682018060405250810190620000fc919062000392565b8383806200010a816200018e565b50506001805460ff60a01b191681556002556001600160a01b03831660a052608082905260005b81518110156200017d576200016a828281518110620001545762000154620003ac565b60200260200101516001620001de60201b60201c565b6200017581620003c2565b905062000131565b5050505050505050505050620003ea565b600080546001600160a01b038381166001600160a01b0319831681178455604051919092169283917f8be0079c531659141344cd1fd0a4f28419497f9722a3daafe3b4186f6b6457e09190a35050565b6001600160a01b0382166200020657604051636e8ab17b60e11b815260040160405180910390fd5b6001600160a01b0382166000818152600c6020908152604091829020805460ff191685151590811790915591519182527ff100355be652ecc881568750e6a98c0713e4316f75d5314ebc9039e0acb52f24910160405180910390a25050565b80516001600160a01b03811681146200027d57600080fd5b919050565b634e487b7160e01b600052604160045260246000fd5b600080600060608486031215620002ae57600080fd5b620002b98462000265565b92506020620002ca81860162000265565b60408601519093506001600160401b0380821115620002e857600080fd5b818701915087601f830112620002fd57600080fd5b81518181111562000312576200031262000282565b8060051b604051601f19603f830116810181811085821117156200033a576200033a62000282565b60405291825284820192508381018501918a8311156200035957600080fd5b938501935b828510156200038257620003728562000265565b845293850193928501926200035e565b8096505050505050509250925092565b600060208284031215620003a557600080fd5b5051919050565b634e487b7160e01b600052603260045260246000fd5b600060018201620003e357634e487b7160e01b600052601160045260246000fd5b5060010190565b60805160a051614d5c62000472600039600081816104e1015281816109030152818161123f015281816114b6015281816117070152818161184a01528181611b5e01528181611d7601528181612500015281816127bc015261349d01526000818161059f0152818161148d01528181611d4d0152818161279601526134740152614d5c6000f3fe608060405234801561001057600080fd5b50600436106102535760003560e01c806377cfa99111610146578063a4441a6f116100c3578063bc197c8111610087578063bc197c81146106c9578063bce42e42146106dc578063c192f4e5146106ef578063ddfddad614610702578063eda928ab14610715578063f23a6e611461072857600080fd5b8063a4441a6f14610659578063ab3b128014610667578063ac4e35ea14610690578063b18e7772146106a3578063b31ec1d4146106b657600080fd5b8063872873be1161010a578063872873be146105f75780638da5cb5b1461062357806392fede001461062b5780639658e405146106335780639d6fa6181461064657600080fd5b806377cfa9911461059a5780637836baf1146105c157806379b64040146105d45780637b371107146105e75780638456cb59146105ef57600080fd5b8063328404b0116101d457806356efe98c1161019857806356efe98c1461053e5780635c975abb146105665780635f992fdd1461056e578063616693d8146105765780636ed93dd01461057e57600080fd5b8063328404b0146104a3578063365a86fc146104dc5780633f4ba83a1461051057806347948d92146105185780635163a1c31461052b57600080fd5b80631c6caf411161021b5780631c6caf41146103505780631f908a1c14610365578063227cda18146103785780632b2180221461047d5780632c1d4ec21461049057600080fd5b806301ffc9a7146102585780630717f3aa146102805780630ff81c3f146102a3578063150b7a021461030d578063192b355d14610339575b600080fd5b61026b610266366004613d55565b610748565b60405190151581526020015b60405180910390f35b61026b61028e366004613da1565b60076020526000908152604090205460ff1681565b6102e36102b1366004613da1565b6006602052600090815260409020546001600160a01b0381169061ffff600160a01b8204811691600160b01b90041683565b604080516001600160a01b03909416845261ffff9283166020850152911690820152606001610277565b61032061031b366004613ec8565b61079a565b6040516001600160e01b03199091168152602001610277565b61034260035481565b604051908152602001610277565b61036361035e366004613f4e565b6107ab565b005b6103636103733660046140f2565b610855565b610409610386366004613da1565b600560208190526000918252604090912080546001820154600283015460038401546004850154958501546006909501549395929491936001600160a01b0380831694600160a01b80850463ffffffff1695600160c01b860461ffff90811696600160d01b9004169484841694929093046001600160401b03169290821691168b565b604080519b8c5260208c019a909a52988a01979097526001600160a01b0395861660608a015263ffffffff909416608089015261ffff92831660a0890152911660c0870152821660e08601526001600160401b03166101008501529081166101208401521661014082015261016001610277565b61036361048b366004613da1565b6108ca565b61036361049e366004614188565b61099f565b61026b6104b13660046141ca565b6001600160a01b03919091166000908152600b60209081526040808320938352929052205460ff1690565b6105037f000000000000000000000000000000000000000000000000000000000000000081565b60405161027791906141f6565b610363610ac2565b61036361052636600461420a565b610afb565b610363610539366004614188565b610b84565b61055161054c366004614223565b610cf1565b60405163ffffffff9091168152602001610277565b61026b610d23565b610363610d33565b610342610d6f565b61058761271081565b60405161ffff9091168152602001610277565b6103427f000000000000000000000000000000000000000000000000000000000000000081565b6103636105cf366004614293565b610d93565b6103636105e2366004614363565b610dd0565b610363610e7d565b610363610ebc565b61026b610605366004614424565b6001600160a01b03166000908152600c602052604090205460ff1690565b610503610ef3565b610363610f02565b61036361064136600461420a565b610f31565b610363610654366004614424565b610f93565b6004546105879061ffff1681565b610342610675366004613da1565b63ffffffff1660009081526005602052604090206001015490565b61036361069e366004614188565b611049565b6103636106b1366004614441565b6111d4565b6103636106c4366004613da1565b611206565b6103206106d736600461454e565b6113e9565b6103636106ea366004613da1565b611434565b6103636106fd366004614223565b6115bc565b610363610710366004614424565b611622565b610363610723366004613da1565b6116ce565b61032061073636600461460c565b63f23a6e6160e01b9695505050505050565b60006001600160e01b03198216630271189760e51b148061077957506001600160e01b03198216630a85bd0160e11b145b8061079457506001600160e01b031982166301ffc9a760e01b145b92915050565b630a85bd0160e11b5b949350505050565b336107b4610ef3565b6001600160a01b0316146107e35760405162461bcd60e51b81526004016107da90614687565b60405180910390fd5b61271061ffff8216111561080a576040516314004bcf60e21b815260040160405180910390fd5b6004805461ffff191661ffff83169081179091556040519081527f03017365bbe16943b524030df07e7689168ab63e854d27417498e6f9dc584dab906020015b60405180910390a150565b61085d611782565b6108656117ca565b60006108748560600151611821565b90506108808582611929565b61088985611a13565b61089284611a39565b6108b961089f8683611a5f565b6108b184600001518560200151611b13565b878787611c02565b506108c46001600255565b50505050565b6108d26117ca565b60405163364d0abb60e11b8152734Eef77380D49eB645f3A78a1e5Ec78efCCeaBF6490636c9a15769061092b9084907f0000000000000000000000000000000000000000000000000000000000000000906004016146bc565b60006040518083038186803b15801561094357600080fd5b505af4158015610957573d6000803e3d6000fd5b5050505060008060008061096a85611d33565b935093509350935061097e858585856120ed565b600161098d86868585856122d8565b505050505061099c6001600255565b50565b336109a8610ef3565b6001600160a01b0316146109ce5760405162461bcd60e51b81526004016107da90614687565b6040516370a0823160e01b815283906000906001600160a01b038316906370a08231906109ff9030906004016141f6565b602060405180830381865afa158015610a1c573d6000803e3d6000fd5b505050506040513d601f19601f82011682018060405250810190610a4091906146db565b905080600003610a63576040516334b5d06d60e21b815260040160405180910390fd5b6001600160a01b0385166000908152600960205260409020548490610a88908361470a565b1015610aa75760405163368e910d60e21b815260040160405180910390fd5b610abb6001600160a01b03831684866122ef565b5050505050565b33610acb610ef3565b6001600160a01b031614610af15760405162461bcd60e51b81526004016107da90614687565b610af9612345565b565b33610b04610ef3565b6001600160a01b031614610b2a5760405162461bcd60e51b81526004016107da90614687565b63ffffffff811115610b4f57604051630737847960e51b815260040160405180910390fd5b60038190556040518181527f64f65a4a1a932867ad599da36210fc47c698b3abb2413cfdfd36bf59697a69cb9060200161084a565b33610b8d610ef3565b6001600160a01b031614610bb35760405162461bcd60e51b81526004016107da90614687565b6001600160a01b0383166000908152600860209081526040808320858452909152902054839015610bf757604051636a32439f60e01b815260040160405180910390fd5b6040516331a9108f60e11b81526004810184905230906001600160a01b03831690636352211e90602401602060405180830381865afa158015610c3e573d6000803e3d6000fd5b505050506040513d601f19601f82011682018060405250810190610c62919061471d565b6001600160a01b031614610c895760405163ca5ae8a360e01b815260040160405180910390fd5b604051632142170760e11b81526001600160a01b038216906342842e0e90610cb99030908690889060040161473a565b600060405180830381600087803b158015610cd357600080fd5b505af1158015610ce7573d6000803e3d6000fd5b5050505050505050565b6000610cfb611782565b610d036117ca565b60405163160b89f160e31b815260040160405180910390fd5b9392505050565b600154600160a01b900460ff1690565b6001546001600160a01b03163314610d5d5760405162461bcd60e51b81526004016107da9061475e565b600180546001600160a01b0319169055565b7f4449524543545f4c4f414e5f46495845445f434f4c4c454354494f4e0000000090565b33610d9c610ef3565b6001600160a01b031614610dc25760405162461bcd60e51b81526004016107da90614687565b610dcc8282612394565b5050565b33610dd9610ef3565b6001600160a01b031614610dff5760405162461bcd60e51b81526004016107da90614687565b8051825114610e2057604051621dbe8b60e81b815260040160405180910390fd5b60005b8251811015610e7857610e68838281518110610e4157610e41614795565b6020026020010151838381518110610e5b57610e5b614795565b6020026020010151612394565b610e71816147ab565b9050610e23565b505050565b6001546001600160a01b03163314610ea75760405162461bcd60e51b81526004016107da9061475e565b600154610d5d906001600160a01b031661241a565b33610ec5610ef3565b6001600160a01b031614610eeb5760405162461bcd60e51b81526004016107da90614687565b610af961246a565b6000546001600160a01b031690565b33610f0b610ef3565b6001600160a01b031614610d5d5760405162461bcd60e51b81526004016107da90614687565b336000908152600b6020908152604080832084845290915290205460ff1615610f6d57604051633ab3447f60e11b815260040160405180910390fd5b336000908152600b6020908152604080832093835292905220805460ff19166001179055565b33610f9c610ef3565b6001600160a01b031614610fc25760405162461bcd60e51b81526004016107da90614687565b6001600160a01b0381166110275760405162461bcd60e51b815260206004820152602660248201527f4f776e61626c653a206e6577206f776e657220697320746865207a65726f206160448201526564647265737360d01b60648201526084016107da565b600180546001600160a01b0319166001600160a01b0392909216919091179055565b33611052610ef3565b6001600160a01b0316146110785760405162461bcd60e51b81526004016107da90614687565b604051627eeac760e11b815283906000906001600160a01b0383169062fdd58e906110a990309088906004016147c4565b602060405180830381865afa1580156110c6573d6000803e3d6000fd5b505050506040513d601f19601f820116820180604052508101906110ea91906146db565b6001600160a01b03861660009081526008602090815260408083208884529091529020549091501561112f57604051636a32439f60e01b815260040160405180910390fd5b806000036111505760405163f266c3ab60e01b815260040160405180910390fd5b604051637921219560e11b81523060048201526001600160a01b038481166024830152604482018690526064820183905260a06084830152600060a483015283169063f242432a9060c401600060405180830381600087803b1580156111b557600080fd5b505af11580156111c9573d6000803e3d6000fd5b505050505050505050565b6111dc611782565b6111e46117ca565b6111f3878787878787876124ad565b6111fd6001600255565b50505050505050565b61120e6117ca565b604051635bfd0fb160e11b8152734Eef77380D49eB645f3A78a1e5Ec78efCCeaBF649063b7fa1f62906112679084907f0000000000000000000000000000000000000000000000000000000000000000906004016146bc565b60006040518083038186803b15801561127f57600080fd5b505af4158015611293573d6000803e3d6000fd5b5050505063ffffffff811660009081526007602052604090205460ff16156112ce57604051633db5ad0160e11b815260040160405180910390fd5b6000806000806112dd85611d33565b93509350935093506000826080015163ffffffff168361010001516001600160401b031661130b91906147dd565b905080421161132d5760405163477e47f960e11b815260040160405180910390fd5b336001600160a01b0385161461135657604051633c35984560e11b815260040160405180910390fd5b600061136587868686856122d8565b8351604080860151610120870151825193845260208401919091529082018490524260608301526001600160a01b039081166080830152808716919088169063ffffffff8a16907f4fac0ff43299a330bce57d0579985305af580acf256a6d7977083ede81be13269060a00160405180910390a450505050505061099c6001600255565b60405162461bcd60e51b815260206004820152601b60248201527f45524331313535206261746368206e6f7420737570706f72746564000000000060448201526000906064016107da565b61143c6117ca565b63ffffffff81166000908152600560205260409020600601546001600160a01b031633811461147e576040516348c5194760e11b815260040160405180910390fd5b604051631c2d8fb360e31b81527f000000000000000000000000000000000000000000000000000000000000000060048201526000907f00000000000000000000000000000000000000000000000000000000000000006001600160a01b03169063e16c7d9890602401602060405180830381865afa158015611505573d6000803e3d6000fd5b505050506040513d601f19601f82011682018060405250810190611529919061471d565b604051631b982cf160e01b81529091506001600160a01b03821690631b982cf19061155a90869086906004016146bc565b600060405180830381600087803b15801561157457600080fd5b505af1158015611588573d6000803e3d6000fd5b5050505063ffffffff8316600090815260056020526040902060060180546001600160a01b03191690555050600160025550565b6115c4611782565b6115cc6117ca565b60006115db8460600151611821565b90506115e78482611929565b6115f084611a13565b6116166115fd8583611a5f565b61160f84600001518560200151611b13565b86866128fd565b5050610e786001600255565b61162a6117ca565b336000908152600a602090815260408083206001600160a01b03851684529091528120549081900361166f5760405163073ad17560e51b815260040160405180910390fd5b6116836001600160a01b03831633836122ef565b336000908152600a602090815260408083206001600160a01b038616845282528083208390556009909152812080548392906116c090849061470a565b909155505060016002555050565b6116d66117ca565b60405163364d0abb60e11b8152734Eef77380D49eB645f3A78a1e5Ec78efCCeaBF6490636c9a15769061172f9084907f0000000000000000000000000000000000000000000000000000000000000000906004016146bc565b60006040518083038186803b15801561174757600080fd5b505af415801561175b573d6000803e3d6000fd5b5050505060008060008061176e85611d33565b935093509350935061097e85858585612a6b565b61178a610d23565b15610af95760405162461bcd60e51b815260206004820152601060248201526f14185d5cd8589b194e881c185d5cd95960821b60448201526064016107da565b600280540361181b5760405162461bcd60e51b815260206004820152601f60248201527f5265656e7472616e637947756172643a207265656e7472616e742063616c6c0060448201526064016107da565b60028055565b604051631c2d8fb360e31b81526d5045524d49545445445f4e46545360901b60048201526000907f00000000000000000000000000000000000000000000000000000000000000006001600160a01b03169063e16c7d9890602401602060405180830381865afa158015611899573d6000803e3d6000fd5b505050506040513d601f19601f820116820180604052508101906118bd919061471d565b6001600160a01b031663b8c8aff8836040518263ffffffff1660e01b81526004016118e891906141f6565b602060405180830381865afa158015611905573d6000803e3d6000fd5b505050506040513d601f19601f82011682018060405250810190610794919061471d565b60c08201516001600160a01b03166000908152600c602052604090205460ff1661196657604051633bf6dbbd60e11b815260040160405180910390fd5b6001600160a01b03811661198d57604051634499a26b60e01b815260040160405180910390fd5b600354826080015163ffffffff1611156119ba57604051631c71337360e11b815260040160405180910390fd5b816080015163ffffffff166000036119e55760405163f883f39d60e01b815260040160405180910390fd5b60045460a083015161ffff908116911614610dcc57604051635b5e710360e01b815260040160405180910390fd5b80516020820151101561099c57604051635169219960e01b815260040160405180910390fd5b60208101518151111561099c5760405163813d0b5b60e01b815260040160405180910390fd5b611a67613cf9565b6040518061016001604052808460000151815260200184602001518152602001846040015181526020018460c001516001600160a01b03168152602001846080015163ffffffff168152602001600061ffff1681526020018460a0015161ffff168152602001836001600160a01b03168152602001426001600160401b0316815260200184606001516001600160a01b03168152602001336001600160a01b0316815250905092915050565b6040805160608101825260008082526020820181905291810191909152604080516060810182526001600160a01b0380861680835292516347e332df60e11b815260048101939093527f0000000000000000000000000000000000000000000000000000000000000000166024830152906020820190734Eef77380D49eB645f3A78a1e5Ec78efCCeaBF6490638fc665be90604401602060405180830381865af4158015611bc5573d6000803e3d6000fd5b505050506040513d601f19601f82011682018060405250810190611be991906147f0565b61ffff1681526020018361ffff16815250905092915050565b6040808201516001600160a01b03166000908152600b6020908152828220845183529052205460ff1615611c4957604051633ab3447f60e11b815260040160405180910390fd5b815160408601511080611c63575081602001518560400151115b15611c815760405163227d1a9160e11b815260040160405180910390fd5b6000604084015282611c94818484612e52565b611cb157604051636d2a03cf60e01b815260040160405180910390fd5b6000611cd0611cbe610d6f565b88883387604001518a60e00151612e60565b905082604001516001600160a01b0316336001600160a01b03168263ffffffff167f42cc7f53ef7b494c5dd6f0095175f7d07b5d3d7b2a03f34389fea445ba4a3a8b8a8a604051611d2292919061480d565b60405180910390a450505050505050565b600080611d3e613cf9565b604051631c2d8fb360e31b81527f000000000000000000000000000000000000000000000000000000000000000060048201526000907f00000000000000000000000000000000000000000000000000000000000000006001600160a01b03169063e16c7d9890602401602060405180830381865afa158015611dc5573d6000803e3d6000fd5b505050506040513d601f19601f82011682018060405250810190611de9919061471d565b60405163e6c5a54160e01b815263ffffffff871660048201529091506000906001600160a01b0383169063e6c5a54190602401606060405180830381865afa158015611e39573d6000803e3d6000fd5b505050506040513d601f19601f82011682018060405250810190611e5d9190614909565b60208181015163ffffffff898116600090815260058085526040918290208251610160810184528154815260018201549681019690965260028101549286019290925260038201546001600160a01b038082166060880152600160a01b8083049095166080880152600160c01b820461ffff90811660a0890152600160d01b90920490911660c0870152600483015480821660e08801526001600160401b039490048416610100870152908201548116610120860152600690910154166101408401819052929650929350919091169015611f3f578361014001519550612012565b826001600160a01b0316638208e76c6040518163ffffffff1660e01b8152600401602060405180830381865afa158015611f7d573d6000803e3d6000fd5b505050506040513d601f19601f82011682018060405250810190611fa1919061471d565b6001600160a01b0316636352211e826040518263ffffffff1660e01b8152600401611fce91815260200190565b602060405180830381865afa158015611feb573d6000803e3d6000fd5b505050506040513d601f19601f8201168201806040525081019061200f919061471d565b95505b826001600160a01b0316634fbe68a06040518163ffffffff1660e01b8152600401602060405180830381865afa158015612050573d6000803e3d6000fd5b505050506040513d601f19601f82011682018060405250810190612074919061471d565b6001600160a01b0316636352211e826040518263ffffffff1660e01b81526004016120a191815260200190565b602060405180830381865afa1580156120be573d6000803e3d6000fd5b505050506040513d601f19601f820116820180604052508101906120e2919061471d565b945050509193509193565b63ffffffff84166000908152600660209081526040808320815160608101835290546001600160a01b038116825261ffff600160a01b8204811694830194909452600160b01b900490921690820152908061214784612e86565b60608601519193509150612166906001600160a01b0316338784612f40565b6020830151604051637f5e0ed360e01b81526004810184905261ffff9091166024820152600090734Eef77380D49eB645f3A78a1e5Ec78efCCeaBF6490637f5e0ed390604401602060405180830381865af41580156121c9573d6000803e3d6000fd5b505050506040513d601f19601f820116820180604052508101906121ed91906146db565b9050600081118015612208575083516001600160a01b031615155b1561223757612217818461470a565b84516060870151919450612237916001600160a01b031690339084612f40565b61225933612243610ef3565b60608801516001600160a01b0316919086612f40565b856001600160a01b0316876001600160a01b03168963ffffffff167f3687d64f40b11dd1c102a76882ac1735891c546a96ae27935eb5c7865b9d86fa886000015189604001518789888c600001518e61012001518f606001516040516122c698979695949392919061498a565b60405180910390a45050505050505050565b6122e485848484612f61565b610abb833086612ffa565b610e788363a9059cbb60e01b848460405160240161230e9291906147c4565b60408051601f198184030181529190526020810180516001600160e01b03166001600160e01b03199093169290921790915261309d565b61234d613172565b6001805460ff60a01b191690557f5db9ee0a495bf2e6ff9c91a7834c1ba4fdd244a5e8aa4e537bd38aeae4b073aa335b60405161238a91906141f6565b60405180910390a1565b6001600160a01b0382166123bb57604051636e8ab17b60e11b815260040160405180910390fd5b6001600160a01b0382166000818152600c6020908152604091829020805460ff191685151590811790915591519182527ff100355be652ecc881568750e6a98c0713e4316f75d5314ebc9039e0acb52f24910160405180910390a25050565b600080546001600160a01b038381166001600160a01b0319831681178455604051919092169283917f8be0079c531659141344cd1fd0a4f28419497f9722a3daafe3b4186f6b6457e09190a35050565b612472611782565b6001805460ff60a01b1916600160a01b1790557f62e78cea01bee320cd4e420270b5ea74000d11b0c9f74754ebdbfc544b05a25861237d3390565b63ffffffff8716600090815260056020526040808220905163b5ec526360e01b81529091908190734Eef77380D49eB645f3A78a1e5Ec78efCCeaBF649063b5ec5263906125289086908e908e908e908d907f0000000000000000000000000000000000000000000000000000000000000000906004016149cf565b6040805180830381865af4158015612544573d6000803e3d6000fd5b505050506040513d601f19601f820116820180604052508101906125689190614ada565b6001600160a01b0381166000818152600b602090815260408083208c8452825291829020805460ff1916600117905581516080810183528b81529081018a905280820192909252606082018890525163d06ff74160e01b81529294509092507369890a5B92C8a21EF3539622Cd2881Ea65b8b8fB9163d06ff741916125f7918e918e918e918e91600401614b94565b602060405180830381865af4158015612614573d6000803e3d6000fd5b505050506040513d601f19601f820116820180604052508101906126389190614bc9565b6126555760405163e83dc84b60e01b815260040160405180910390fd5b60008715612730576003840154604051632ad659af60e01b8152600481018a9052600160d01b90910461ffff166024820152734Eef77380D49eB645f3A78a1e5Ec78efCCeaBF6490632ad659af90604401602060405180830381865af41580156126c3573d6000803e3d6000fd5b505050506040513d601f19601f820116820180604052508101906126e791906146db565b905061270e83836126f8848c61470a565b60038801546001600160a01b0316929190612f40565b6127308361271a610ef3565b60038701546001600160a01b0316919084612f40565b60038401805463ffffffff60a01b1916600160a01b63ffffffff8d16021790556001840189905560068401546001600160a01b0316612787576006840180546001600160a01b0319166001600160a01b0385161790555b604051631c2d8fb360e31b81527f000000000000000000000000000000000000000000000000000000000000000060048201527f00000000000000000000000000000000000000000000000000000000000000006001600160a01b03169063e16c7d9890602401602060405180830381865afa15801561280b573d6000803e3d6000fd5b505050506040513d601f19601f8201168201806040525081019061282f919061471d565b6001600160a01b031663072db1478c846040518363ffffffff1660e01b815260040161285c9291906146bc565b600060405180830381600087803b15801561287657600080fd5b505af115801561288a573d6000803e3d6000fd5b50506040805163ffffffff8e81168252602082018e90529181018c9052606081018590526001600160a01b03808716945087169250908e16907f37357bed780fda5aed28c32fe9cd762cb2f2f8a70c0d9b342aba59c945943ca09060800160405180910390a45050505050505050505050565b6040808201516001600160a01b03166000908152600b60209081528282208451835290529081205460ff161561294657604051633ab3447f60e11b815260040160405180910390fd5b60006040808501919091525163eb2ac63f60e01b815283907369890a5B92C8a21EF3539622Cd2881Ea65b8b8fB9063eb2ac63f9061298a9084908790600401614be6565b602060405180830381865af41580156129a7573d6000803e3d6000fd5b505050506040513d601f19601f820116820180604052508101906129cb9190614bc9565b6129e857604051636d2a03cf60e01b815260040160405180910390fd5b6000612a076129f5610d6f565b88883388604001518a60e00151612e60565b905083604001516001600160a01b0316336001600160a01b03168263ffffffff167f42cc7f53ef7b494c5dd6f0095175f7d07b5d3d7b2a03f34389fea445ba4a3a8b8a8a604051612a5992919061480d565b60405180910390a49695505050505050565b63ffffffff84166000908152600660209081526040808320815160608101835290546001600160a01b038116825261ffff600160a01b8204811694830194909452600160b01b9004909216908201529080612ac584612e86565b9150915083606001516001600160a01b03166323b872dd3387846040518463ffffffff1660e01b8152600401612afd9392919061473a565b6020604051808303816000875af1925050508015612b38575060408051601f3d908101601f19168201909252612b3591810190614bc9565b60015b612bfe576060840151612b56906001600160a01b0316333084612f40565b6001600160a01b038086166000908152600a60209081526040808320606089015190941683529290529081208054839290612b929084906147dd565b909155505060608401516001600160a01b031660009081526009602052604081208054839290612bc39084906147dd565b909155505060405163ffffffff8816907fe6dfda7486ec1e06f754c28be83c676af29b18143765a2843361313cdab2712590600090a2612c00565b505b6020830151604051637f5e0ed360e01b81526004810184905261ffff9091166024820152600090734Eef77380D49eB645f3A78a1e5Ec78efCCeaBF6490637f5e0ed390604401602060405180830381865af4158015612c63573d6000803e3d6000fd5b505050506040513d601f19601f82011682018060405250810190612c8791906146db565b9050600081118015612ca2575083516001600160a01b031615155b15612d4b57612cb1818461470a565b606086015185516040516323b872dd60e01b81529295506001600160a01b03909116916323b872dd91612ceb91339190869060040161473a565b6020604051808303816000875af1925050508015612d26575060408051601f3d908101601f19168201909252612d2391810190614bc9565b60015b612d49576060850151612d44906001600160a01b0316333084612f40565b612d4b565b505b84606001516001600160a01b03166323b872dd33612d67610ef3565b866040518463ffffffff1660e01b8152600401612d869392919061473a565b6020604051808303816000875af1925050508015612dc1575060408051601f3d908101601f19168201909252612dbe91810190614bc9565b60015b612de4576060850151612ddf906001600160a01b0316333086612f40565b612259565b50856001600160a01b0316876001600160a01b03168963ffffffff167f3687d64f40b11dd1c102a76882ac1735891c546a96ae27935eb5c7865b9d86fa886000015189604001518789888c600001518e61012001518f606001516040516122c698979695949392919061498a565b60006107a3848484306131bd565b6000612e6d868530612ffa565b612e7b87878787878761333b565b979650505050505050565b600080600083600001518460200151612e9f919061470a565b60c0850151604051632ad659af60e01b81526004810183905261ffff9091166024820152909150734Eef77380D49eB645f3A78a1e5Ec78efCCeaBF6490632ad659af90604401602060405180830381865af4158015612f02573d6000803e3d6000fd5b505050506040513d601f19601f82011682018060405250810190612f2691906146db565b9250828460200151612f38919061470a565b915050915091565b6108c4846323b872dd60e01b85858560405160240161230e9392919061473a565b63ffffffff84166000908152600760209081526040808320805460ff191660019081179091556101208701516001600160a01b03168452600883528184208783015185529092528220805491929091612fbb90849061470a565b909155505060405163a4d0845d60e01b815263ffffffff8516600482015281151560248201526001600160a01b0383169063a4d0845d90604401610cb9565b60e083015161012084015160408086015181516001600160a01b038781166024830152868116604483015290931660648401526084808401919091528151808403909101815260a49092018152602080830180516001600160e01b031663b030667160e01b17905281518083019092528082527f4e4654206e6f74207375636365737366756c6c79207472616e73666572726564908201526108c49291906137bb565b60006130f2826040518060400160405280602081526020017f5361666545524332303a206c6f772d6c6576656c2063616c6c206661696c6564815250856001600160a01b03166138339092919063ffffffff16565b90508051600014806131135750808060200190518101906131139190614bc9565b610e785760405162461bcd60e51b815260206004820152602a60248201527f5361666545524332303a204552433230206f7065726174696f6e20646964206e6044820152691bdd081cdd58d8d9595960b21b60648201526084016107da565b61317a610d23565b610af95760405162461bcd60e51b815260206004820152601460248201527314185d5cd8589b194e881b9bdd081c185d5cd95960621b60448201526064016107da565b600082602001514211156132135760405162461bcd60e51b815260206004820152601c60248201527f4c656e646572205369676e61747572652068617320657870697265640000000060448201526064016107da565b6001600160a01b0382166132605760405162461bcd60e51b81526020600482015260146024820152734c6f616e206973207a65726f206164647265737360601b60448201526064016107da565b60408301516001600160a01b031661327a575060006107a3565b600061328586613842565b85516020808801516040516132a4939201918252602082015260400190565b6040516020818303038152906040526132bc86613901565b85466040516020016132d2959493929190614c75565b6040516020818303038152906040528051906020012090506133338460400151613329837f19457468657265756d205369676e6564204d6573736167653a0a3332000000006000908152601c91909152603c902090565b8660600151613944565b9150506107a3565b6101208501516001600160a01b03166000908152600860209081526040808320818901518452909152812080546001919083906133799084906147dd565b909155505085516040868101519051637b2392f160e01b8152600481019290925261ffff1660248201526001600160a01b0383166044820152600090734Eef77380D49eB645f3A78a1e5Ec78efCCeaBF6490637b2392f190606401602060405180830381865af41580156133f1573d6000803e3d6000fd5b505050506040513d601f19601f8201168201806040525081019061341591906146db565b90506000818860000151613429919061470a565b9050811561344b57606088015161344b906001600160a01b0316868685612f40565b6060880151613465906001600160a01b0316868884612f40565b604051631c2d8fb360e31b81527f000000000000000000000000000000000000000000000000000000000000000060048201526000907f00000000000000000000000000000000000000000000000000000000000000006001600160a01b03169063e16c7d9890602401602060405180830381865afa1580156134ec573d6000803e3d6000fd5b505050506040513d601f19601f82011682018060405250810190613510919061471d565b60405163d1f7659560e01b81529091506001600160a01b0382169063d1f76595906135419089908e906004016147c4565b6020604051808303816000875af1158015613560573d6000803e3d6000fd5b505050506040513d601f19601f820116820180604052508101906135849190614cd4565b935088600560008663ffffffff1663ffffffff16815260200190815260200160002060008201518160000155602082015181600101556040820151816002015560608201518160030160006101000a8154816001600160a01b0302191690836001600160a01b0316021790555060808201518160030160146101000a81548163ffffffff021916908363ffffffff16021790555060a08201518160030160186101000a81548161ffff021916908361ffff16021790555060c082015181600301601a6101000a81548161ffff021916908361ffff16021790555060e08201518160040160006101000a8154816001600160a01b0302191690836001600160a01b031602179055506101008201518160040160146101000a8154816001600160401b0302191690836001600160401b031602179055506101208201518160050160006101000a8154816001600160a01b0302191690836001600160a01b031602179055506101408201518160060160006101000a8154816001600160a01b0302191690836001600160a01b0316021790555090505087600660008663ffffffff1663ffffffff16815260200190815260200160002060008201518160000160006101000a8154816001600160a01b0302191690836001600160a01b0316021790555060208201518160000160146101000a81548161ffff021916908361ffff16021790555060408201518160000160166101000a81548161ffff021916908361ffff1602179055509050505050509695505050505050565b6060600080856001600160a01b0316856040516137d89190614cf1565b600060405180830381855af49150503d8060008114613813576040519150601f19603f3d011682016040523d82523d6000602084013e613818565b606091505b50915091506138298683838761399b565b9695505050505050565b60606107a38484600085613a14565b60608160c0015182600001518360200151846060015185604001518660e0015187608001518860a001516040516020016138eb989796959493929190606098891b6001600160601b031990811682526014820198909852603481019690965293871b86166054860152606885019290925290941b909216608882015260e09290921b6001600160e01b031916609c83015260f01b6001600160f01b03191660a082015260a20190565b6040516020818303038152906040529050919050565b60608160400151826000015183602001516040516020016138eb9392919060609390931b6001600160601b03191683526014830191909152603482015260540190565b60008060006139538585613ae4565b9092509050600081600481111561396c5761396c614d0d565b14801561398a5750856001600160a01b0316826001600160a01b0316145b806138295750613829868686613b29565b60608315613a0a578251600003613a03576001600160a01b0385163b613a035760405162461bcd60e51b815260206004820152601d60248201527f416464726573733a2063616c6c20746f206e6f6e2d636f6e747261637400000060448201526064016107da565b50816107a3565b6107a38383613c15565b606082471015613a755760405162461bcd60e51b815260206004820152602660248201527f416464726573733a20696e73756666696369656e742062616c616e636520666f6044820152651c8818d85b1b60d21b60648201526084016107da565b600080866001600160a01b03168587604051613a919190614cf1565b60006040518083038185875af1925050503d8060008114613ace576040519150601f19603f3d011682016040523d82523d6000602084013e613ad3565b606091505b5091509150612e7b8783838761399b565b6000808251604103613b1a5760208301516040840151606085015160001a613b0e87828585613c3f565b94509450505050613b22565b506000905060025b9250929050565b6000806000856001600160a01b0316631626ba7e60e01b8686604051602401613b53929190614d23565b60408051601f198184030181529181526020820180516001600160e01b03166001600160e01b0319909416939093179092529051613b919190614cf1565b600060405180830381855afa9150503d8060008114613bcc576040519150601f19603f3d011682016040523d82523d6000602084013e613bd1565b606091505b5091509150818015613be557506020815110155b801561382957508051630b135d3f60e11b90613c0a90830160209081019084016146db565b149695505050505050565b815115613c255781518083602001fd5b8060405162461bcd60e51b81526004016107da9190614d3c565b6000806fa2a8918ca85bafe22016d0b997e4df60600160ff1b03831115613c6c5750600090506003613cf0565b6040805160008082526020820180845289905260ff881692820192909252606081018690526080810185905260019060a0016020604051602081039080840390855afa158015613cc0573d6000803e3d6000fd5b5050604051601f1901519150506001600160a01b038116613ce957600060019250925050613cf0565b9150600090505b94509492505050565b6040805161016081018252600080825260208201819052918101829052606081018290526080810182905260a0810182905260c0810182905260e081018290526101008101829052610120810182905261014081019190915290565b600060208284031215613d6757600080fd5b81356001600160e01b031981168114610d1c57600080fd5b63ffffffff8116811461099c57600080fd5b8035613d9c81613d7f565b919050565b600060208284031215613db357600080fd5b8135610d1c81613d7f565b6001600160a01b03169052565b6001600160a01b038116811461099c57600080fd5b8035613d9c81613dcb565b634e487b7160e01b600052604160045260246000fd5b604080519081016001600160401b0381118282101715613e2357613e23613deb565b60405290565b604051601f8201601f191681016001600160401b0381118282101715613e5157613e51613deb565b604052919050565b600082601f830112613e6a57600080fd5b81356001600160401b03811115613e8357613e83613deb565b613e96601f8201601f1916602001613e29565b818152846020838601011115613eab57600080fd5b816020850160208301376000918101602001919091529392505050565b60008060008060808587031215613ede57600080fd5b8435613ee981613dcb565b93506020850135613ef981613dcb565b92506040850135915060608501356001600160401b03811115613f1b57600080fd5b613f2787828801613e59565b91505092959194509250565b61ffff8116811461099c57600080fd5b8035613d9c81613f33565b600060208284031215613f6057600080fd5b8135610d1c81613f33565b6000610100808385031215613f7f57600080fd5b604051908101906001600160401b0382118183101715613fa157613fa1613deb565b8160405280925083358152602084013560208201526040840135604082015260608401359150613fd082613dcb565b816060820152613fe260808501613d91565b6080820152613ff360a08501613f43565b60a082015261400460c08501613de0565b60c082015261401560e08501613de0565b60e0820152505092915050565b60006080828403121561403457600080fd5b604051608081016001600160401b03828210818311171561405757614057613deb565b8160405282935084358352602085013560208401526040850135915061407c82613dcb565b816040840152606085013591508082111561409657600080fd5b506140a385828601613e59565b6060830152505092915050565b6000604082840312156140c257600080fd5b6140ca613e01565b905081356140d781613dcb565b815260208201356140e781613f33565b602082015292915050565b6000806000808486036101a081121561410a57600080fd5b6141148787613f6b565b9450604060ff198201121561412857600080fd5b50614131613e01565b6101008601358152610120860135602082015292506101408501356001600160401b0381111561416057600080fd5b61416c87828801614022565b92505061417d8661016087016140b0565b905092959194509250565b60008060006060848603121561419d57600080fd5b83356141a881613dcb565b92506020840135915060408401356141bf81613dcb565b809150509250925092565b600080604083850312156141dd57600080fd5b82356141e881613dcb565b946020939093013593505050565b6001600160a01b0391909116815260200190565b60006020828403121561421c57600080fd5b5035919050565b6000806000610160848603121561423957600080fd5b6142438585613f6b565b92506101008401356001600160401b0381111561425f57600080fd5b61426b86828701614022565b92505061427c8561012086016140b0565b90509250925092565b801515811461099c57600080fd5b600080604083850312156142a657600080fd5b82356142b181613dcb565b915060208301356142c181614285565b809150509250929050565b60006001600160401b038211156142e5576142e5613deb565b5060051b60200190565b600082601f83011261430057600080fd5b81356020614315614310836142cc565b613e29565b82815260059290921b8401810191818101908684111561433457600080fd5b8286015b8481101561435857803561434b81614285565b8352918301918301614338565b509695505050505050565b6000806040838503121561437657600080fd5b82356001600160401b038082111561438d57600080fd5b818501915085601f8301126143a157600080fd5b813560206143b1614310836142cc565b82815260059290921b840181019181810190898411156143d057600080fd5b948201945b838610156143f75785356143e881613dcb565b825294820194908201906143d5565b9650508601359250508082111561440d57600080fd5b5061441a858286016142ef565b9150509250929050565b60006020828403121561443657600080fd5b8135610d1c81613dcb565b600080600080600080600060e0888a03121561445c57600080fd5b873561446781613d7f565b9650602088013561447781613d7f565b955060408801359450606088013593506080880135925060a0880135915060c08801356001600160401b038111156144ae57600080fd5b6144ba8a828b01613e59565b91505092959891949750929550565b60008083601f8401126144db57600080fd5b5081356001600160401b038111156144f257600080fd5b6020830191508360208260051b8501011115613b2257600080fd5b60008083601f84011261451f57600080fd5b5081356001600160401b0381111561453657600080fd5b602083019150836020828501011115613b2257600080fd5b60008060008060008060008060a0898b03121561456a57600080fd5b883561457581613dcb565b9750602089013561458581613dcb565b965060408901356001600160401b03808211156145a157600080fd5b6145ad8c838d016144c9565b909850965060608b01359150808211156145c657600080fd5b6145d28c838d016144c9565b909650945060808b01359150808211156145eb57600080fd5b506145f88b828c0161450d565b999c989b5096995094979396929594505050565b60008060008060008060a0878903121561462557600080fd5b863561463081613dcb565b9550602087013561464081613dcb565b9450604087013593506060870135925060808701356001600160401b0381111561466957600080fd5b61467589828a0161450d565b979a9699509497509295939492505050565b6020808252818101527f4f776e61626c653a2063616c6c6572206973206e6f7420746865206f776e6572604082015260600190565b63ffffffff9290921682526001600160a01b0316602082015260400190565b6000602082840312156146ed57600080fd5b5051919050565b634e487b7160e01b600052601160045260246000fd5b81810381811115610794576107946146f4565b60006020828403121561472f57600080fd5b8151610d1c81613dcb565b6001600160a01b039384168152919092166020820152604081019190915260600190565b6020808252601c908201527f4f776e61626c653a206e6f74206f776e65722063616e64696461746500000000604082015260600190565b634e487b7160e01b600052603260045260246000fd5b6000600182016147bd576147bd6146f4565b5060010190565b6001600160a01b03929092168252602082015260400190565b80820180821115610794576107946146f4565b60006020828403121561480257600080fd5b8151610d1c81613f33565b60006101c08201905083518252602084015160208301526040840151604083015260608401516148406060840182613dbe565b506080840151614858608084018263ffffffff169052565b5060a084015161486e60a084018261ffff169052565b5060c084015161488460c084018261ffff169052565b5060e084015161489760e0840182613dbe565b50610100848101516001600160401b031690830152610120808501516148bf82850182613dbe565b5050610140808501516148d482850182613dbe565b505082516001600160a01b0316610160830152602083015161ffff9081166101808401526040840151166101a0830152610d1c565b60006060828403121561491b57600080fd5b604051606081016001600160401b03828210818311171561493e5761493e613deb565b816040528451915061494f82613dcb565b908252602084015190808216821461496657600080fd5b50602082015260408301516004811061497e57600080fd5b60408201529392505050565b97885260208801969096526040870194909452606086019290925260808501526001600160a01b0390811660a085015290811660c08401521660e08201526101000190565b86548152600187015460208201526002870154604082015260038701546102008201906001600160a01b03614a0960608501828416613dbe565b60a082901c63ffffffff16608085015261ffff60c083901c811660a0860152614a3d60c08601828560d01c1661ffff169052565b5060048a01549150614a5460e08501828416613dbe565b5060a081901c6001600160401b03166101008401525060058801546001600160a01b0316614a86610120840182613dbe565b5060068801546001600160a01b0316614aa3610140840182613dbe565b5063ffffffff871661016083015263ffffffff8616610180830152846101a0830152836101c0830152612e7b6101e0830184613dbe565b60008060408385031215614aed57600080fd5b8251614af881613dcb565b60208401519092506142c181613dcb565b60005b83811015614b24578181015183820152602001614b0c565b50506000910152565b60008151808452614b45816020860160208601614b09565b601f01601f19169290920160200192915050565b805182526020810151602083015260018060a01b03604082015116604083015260006060820151608060608501526107a36080850182614b2d565b600063ffffffff808816835280871660208401525084604083015283606083015260a06080830152612e7b60a0830184614b59565b600060208284031215614bdb57600080fd5b8151610d1c81614285565b600061012084518352602085015160208401526040850151604084015260018060a01b03606086015116606084015263ffffffff608086015116608084015261ffff60a08601511660a084015260c0850151614c4560c0850182613dbe565b5060e0850151614c5860e0850182613dbe565b5080610100840152614c6c81840185614b59565b95945050505050565b60008651614c87818460208b01614b09565b865190830190614c9b818360208b01614b09565b8651910190614cae818360208a01614b09565b60609590951b6001600160601b0319169401938452505060148201526034019392505050565b600060208284031215614ce657600080fd5b8151610d1c81613d7f565b60008251614d03818460208701614b09565b9190910192915050565b634e487b7160e01b600052602160045260246000fd5b8281526040602082015260006107a36040830184614b2d565b602081526000610d1c6020830184614b2d56fea164736f6c6343000813000a",
  "deployedBytecode": "0x608060405234801561001057600080fd5b50600436106102535760003560e01c806377cfa99111610146578063a4441a6f116100c3578063bc197c8111610087578063bc197c81146106c9578063bce42e42146106dc578063c192f4e5146106ef578063ddfddad614610702578063eda928ab14610715578063f23a6e611461072857600080fd5b8063a4441a6f14610659578063ab3b128014610667578063ac4e35ea14610690578063b18e7772146106a3578063b31ec1d4146106b657600080fd5b8063872873be1161010a578063872873be146105f75780638da5cb5b1461062357806392fede001461062b5780639658e405146106335780639d6fa6181461064657600080fd5b806377cfa9911461059a5780637836baf1146105c157806379b64040146105d45780637b371107146105e75780638456cb59146105ef57600080fd5b8063328404b0116101d457806356efe98c1161019857806356efe98c1461053e5780635c975abb146105665780635f992fdd1461056e578063616693d8146105765780636ed93dd01461057e57600080fd5b8063328404b0146104a3578063365a86fc146104dc5780633f4ba83a1461051057806347948d92146105185780635163a1c31461052b57600080fd5b80631c6caf411161021b5780631c6caf41146103505780631f908a1c14610365578063227cda18146103785780632b2180221461047d5780632c1d4ec21461049057600080fd5b806301ffc9a7146102585780630717f3aa146102805780630ff81c3f146102a3578063150b7a021461030d578063192b355d14610339575b600080fd5b61026b610266366004613d55565b610748565b60405190151581526020015b60405180910390f35b61026b61028e366004613da1565b60076020526000908152604090205460ff1681565b6102e36102b1366004613da1565b6006602052600090815260409020546001600160a01b0381169061ffff600160a01b8204811691600160b01b90041683565b604080516001600160a01b03909416845261ffff9283166020850152911690820152606001610277565b61032061031b366004613ec8565b61079a565b6040516001600160e01b03199091168152602001610277565b61034260035481565b604051908152602001610277565b61036361035e366004613f4e565b6107ab565b005b6103636103733660046140f2565b610855565b610409610386366004613da1565b600560208190526000918252604090912080546001820154600283015460038401546004850154958501546006909501549395929491936001600160a01b0380831694600160a01b80850463ffffffff1695600160c01b860461ffff90811696600160d01b9004169484841694929093046001600160401b03169290821691168b565b604080519b8c5260208c019a909a52988a01979097526001600160a01b0395861660608a015263ffffffff909416608089015261ffff92831660a0890152911660c0870152821660e08601526001600160401b03166101008501529081166101208401521661014082015261016001610277565b61036361048b366004613da1565b6108ca565b61036361049e366004614188565b61099f565b61026b6104b13660046141ca565b6001600160a01b03919091166000908152600b60209081526040808320938352929052205460ff1690565b6105037f000000000000000000000000000000000000000000000000000000000000000081565b60405161027791906141f6565b610363610ac2565b61036361052636600461420a565b610afb565b610363610539366004614188565b610b84565b61055161054c366004614223565b610cf1565b60405163ffffffff9091168152602001610277565b61026b610d23565b610363610d33565b610342610d6f565b61058761271081565b60405161ffff9091168152602001610277565b6103427f000000000000000000000000000000000000000000000000000000000000000081565b6103636105cf366004614293565b610d93565b6103636105e2366004614363565b610dd0565b610363610e7d565b610363610ebc565b61026b610605366004614424565b6001600160a01b03166000908152600c602052604090205460ff1690565b610503610ef3565b610363610f02565b61036361064136600461420a565b610f31565b610363610654366004614424565b610f93565b6004546105879061ffff1681565b610342610675366004613da1565b63ffffffff1660009081526005602052604090206001015490565b61036361069e366004614188565b611049565b6103636106b1366004614441565b6111d4565b6103636106c4366004613da1565b611206565b6103206106d736600461454e565b6113e9565b6103636106ea366004613da1565b611434565b6103636106fd366004614223565b6115bc565b610363610710366004614424565b611622565b610363610723366004613da1565b6116ce565b61032061073636600461460c565b63f23a6e6160e01b9695505050505050565b60006001600160e01b03198216630271189760e51b148061077957506001600160e01b03198216630a85bd0160e11b145b8061079457506001600160e01b031982166301ffc9a760e01b145b92915050565b630a85bd0160e11b5b949350505050565b336107b4610ef3565b6001600160a01b0316146107e35760405162461bcd60e51b81526004016107da90614687565b60405180910390fd5b61271061ffff8216111561080a576040516314004bcf60e21b815260040160405180910390fd5b6004805461ffff191661ffff83169081179091556040519081527f03017365bbe16943b524030df07e7689168ab63e854d27417498e6f9dc584dab906020015b60405180910390a150565b61085d611782565b6108656117ca565b60006108748560600151611821565b90506108808582611929565b61088985611a13565b61089284611a39565b6108b961089f8683611a5f565b6108b184600001518560200151611b13565b878787611c02565b506108c46001600255565b50505050565b6108d26117ca565b60405163364d0abb60e11b815273__$1291e1ff22aea68c4ae26c19e2b9f8f397$__90636c9a15769061092b9084907f0000000000000000000000000000000000000000000000000000000000000000906004016146bc565b60006040518083038186803b15801561094357600080fd5b505af4158015610957573d6000803e3d6000fd5b5050505060008060008061096a85611d33565b935093509350935061097e858585856120ed565b600161098d86868585856122d8565b505050505061099c6001600255565b50565b336109a8610ef3565b6001600160a01b0316146109ce5760405162461bcd60e51b81526004016107da90614687565b6040516370a0823160e01b815283906000906001600160a01b038316906370a08231906109ff9030906004016141f6565b602060405180830381865afa158015610a1c573d6000803e3d6000fd5b505050506040513d601f19601f82011682018060405250810190610a4091906146db565b905080600003610a63576040516334b5d06d60e21b815260040160405180910390fd5b6001600160a01b0385166000908152600960205260409020548490610a88908361470a565b1015610aa75760405163368e910d60e21b815260040160405180910390fd5b610abb6001600160a01b03831684866122ef565b5050505050565b33610acb610ef3565b6001600160a01b031614610af15760405162461bcd60e51b81526004016107da90614687565b610af9612345565b565b33610b04610ef3565b6001600160a01b031614610b2a5760405162461bcd60e51b81526004016107da90614687565b63ffffffff811115610b4f57604051630737847960e51b815260040160405180910390fd5b60038190556040518181527f64f65a4a1a932867ad599da36210fc47c698b3abb2413cfdfd36bf59697a69cb9060200161084a565b33610b8d610ef3565b6001600160a01b031614610bb35760405162461bcd60e51b81526004016107da90614687565b6001600160a01b0383166000908152600860209081526040808320858452909152902054839015610bf757604051636a32439f60e01b815260040160405180910390fd5b6040516331a9108f60e11b81526004810184905230906001600160a01b03831690636352211e90602401602060405180830381865afa158015610c3e573d6000803e3d6000fd5b505050506040513d601f19601f82011682018060405250810190610c62919061471d565b6001600160a01b031614610c895760405163ca5ae8a360e01b815260040160405180910390fd5b604051632142170760e11b81526001600160a01b038216906342842e0e90610cb99030908690889060040161473a565b600060405180830381600087803b158015610cd357600080fd5b505af1158015610ce7573d6000803e3d6000fd5b5050505050505050565b6000610cfb611782565b610d036117ca565b60405163160b89f160e31b815260040160405180910390fd5b9392505050565b600154600160a01b900460ff1690565b6001546001600160a01b03163314610d5d5760405162461bcd60e51b81526004016107da9061475e565b600180546001600160a01b0319169055565b7f4449524543545f4c4f414e5f46495845445f434f4c4c454354494f4e0000000090565b33610d9c610ef3565b6001600160a01b031614610dc25760405162461bcd60e51b81526004016107da90614687565b610dcc8282612394565b5050565b33610dd9610ef3565b6001600160a01b031614610dff5760405162461bcd60e51b81526004016107da90614687565b8051825114610e2057604051621dbe8b60e81b815260040160405180910390fd5b60005b8251811015610e7857610e68838281518110610e4157610e41614795565b6020026020010151838381518110610e5b57610e5b614795565b6020026020010151612394565b610e71816147ab565b9050610e23565b505050565b6001546001600160a01b03163314610ea75760405162461bcd60e51b81526004016107da9061475e565b600154610d5d906001600160a01b031661241a565b33610ec5610ef3565b6001600160a01b031614610eeb5760405162461bcd60e51b81526004016107da90614687565b610af961246a565b6000546001600160a01b031690565b33610f0b610ef3565b6001600160a01b031614610d5d5760405162461bcd60e51b81526004016107da90614687565b336000908152600b6020908152604080832084845290915290205460ff1615610f6d57604051633ab3447f60e11b815260040160405180910390fd5b336000908152600b6020908152604080832093835292905220805460ff19166001179055565b33610f9c610ef3565b6001600160a01b031614610fc25760405162461bcd60e51b81526004016107da90614687565b6001600160a01b0381166110275760405162461bcd60e51b815260206004820152602660248201527f4f776e61626c653a206e6577206f776e657220697320746865207a65726f206160448201526564647265737360d01b60648201526084016107da565b600180546001600160a01b0319166001600160a01b0392909216919091179055565b33611052610ef3565b6001600160a01b0316146110785760405162461bcd60e51b81526004016107da90614687565b604051627eeac760e11b815283906000906001600160a01b0383169062fdd58e906110a990309088906004016147c4565b602060405180830381865afa1580156110c6573d6000803e3d6000fd5b505050506040513d601f19601f820116820180604052508101906110ea91906146db565b6001600160a01b03861660009081526008602090815260408083208884529091529020549091501561112f57604051636a32439f60e01b815260040160405180910390fd5b806000036111505760405163f266c3ab60e01b815260040160405180910390fd5b604051637921219560e11b81523060048201526001600160a01b038481166024830152604482018690526064820183905260a06084830152600060a483015283169063f242432a9060c401600060405180830381600087803b1580156111b557600080fd5b505af11580156111c9573d6000803e3d6000fd5b505050505050505050565b6111dc611782565b6111e46117ca565b6111f3878787878787876124ad565b6111fd6001600255565b50505050505050565b61120e6117ca565b604051635bfd0fb160e11b815273__$1291e1ff22aea68c4ae26c19e2b9f8f397$__9063b7fa1f62906112679084907f0000000000000000000000000000000000000000000000000000000000000000906004016146bc565b60006040518083038186803b15801561127f57600080fd5b505af4158015611293573d6000803e3d6000fd5b5050505063ffffffff811660009081526007602052604090205460ff16156112ce57604051633db5ad0160e11b815260040160405180910390fd5b6000806000806112dd85611d33565b93509350935093506000826080015163ffffffff168361010001516001600160401b031661130b91906147dd565b905080421161132d5760405163477e47f960e11b815260040160405180910390fd5b336001600160a01b0385161461135657604051633c35984560e11b815260040160405180910390fd5b600061136587868686856122d8565b8351604080860151610120870151825193845260208401919091529082018490524260608301526001600160a01b039081166080830152808716919088169063ffffffff8a16907f4fac0ff43299a330bce57d0579985305af580acf256a6d7977083ede81be13269060a00160405180910390a450505050505061099c6001600255565b60405162461bcd60e51b815260206004820152601b60248201527f45524331313535206261746368206e6f7420737570706f72746564000000000060448201526000906064016107da565b61143c6117ca565b63ffffffff81166000908152600560205260409020600601546001600160a01b031633811461147e576040516348c5194760e11b815260040160405180910390fd5b604051631c2d8fb360e31b81527f000000000000000000000000000000000000000000000000000000000000000060048201526000907f00000000000000000000000000000000000000000000000000000000000000006001600160a01b03169063e16c7d9890602401602060405180830381865afa158015611505573d6000803e3d6000fd5b505050506040513d601f19601f82011682018060405250810190611529919061471d565b604051631b982cf160e01b81529091506001600160a01b03821690631b982cf19061155a90869086906004016146bc565b600060405180830381600087803b15801561157457600080fd5b505af1158015611588573d6000803e3d6000fd5b5050505063ffffffff8316600090815260056020526040902060060180546001600160a01b03191690555050600160025550565b6115c4611782565b6115cc6117ca565b60006115db8460600151611821565b90506115e78482611929565b6115f084611a13565b6116166115fd8583611a5f565b61160f84600001518560200151611b13565b86866128fd565b5050610e786001600255565b61162a6117ca565b336000908152600a602090815260408083206001600160a01b03851684529091528120549081900361166f5760405163073ad17560e51b815260040160405180910390fd5b6116836001600160a01b03831633836122ef565b336000908152600a602090815260408083206001600160a01b038616845282528083208390556009909152812080548392906116c090849061470a565b909155505060016002555050565b6116d66117ca565b60405163364d0abb60e11b815273__$1291e1ff22aea68c4ae26c19e2b9f8f397$__90636c9a15769061172f9084907f0000000000000000000000000000000000000000000000000000000000000000906004016146bc565b60006040518083038186803b15801561174757600080fd5b505af415801561175b573d6000803e3d6000fd5b5050505060008060008061176e85611d33565b935093509350935061097e85858585612a6b565b61178a610d23565b15610af95760405162461bcd60e51b815260206004820152601060248201526f14185d5cd8589b194e881c185d5cd95960821b60448201526064016107da565b600280540361181b5760405162461bcd60e51b815260206004820152601f60248201527f5265656e7472616e637947756172643a207265656e7472616e742063616c6c0060448201526064016107da565b60028055565b604051631c2d8fb360e31b81526d5045524d49545445445f4e46545360901b60048201526000907f00000000000000000000000000000000000000000000000000000000000000006001600160a01b03169063e16c7d9890602401602060405180830381865afa158015611899573d6000803e3d6000fd5b505050506040513d601f19601f820116820180604052508101906118bd919061471d565b6001600160a01b031663b8c8aff8836040518263ffffffff1660e01b81526004016118e891906141f6565b602060405180830381865afa158015611905573d6000803e3d6000fd5b505050506040513d601f19601f82011682018060405250810190610794919061471d565b60c08201516001600160a01b03166000908152600c602052604090205460ff1661196657604051633bf6dbbd60e11b815260040160405180910390fd5b6001600160a01b03811661198d57604051634499a26b60e01b815260040160405180910390fd5b600354826080015163ffffffff1611156119ba57604051631c71337360e11b815260040160405180910390fd5b816080015163ffffffff166000036119e55760405163f883f39d60e01b815260040160405180910390fd5b60045460a083015161ffff908116911614610dcc57604051635b5e710360e01b815260040160405180910390fd5b80516020820151101561099c57604051635169219960e01b815260040160405180910390fd5b60208101518151111561099c5760405163813d0b5b60e01b815260040160405180910390fd5b611a67613cf9565b6040518061016001604052808460000151815260200184602001518152602001846040015181526020018460c001516001600160a01b03168152602001846080015163ffffffff168152602001600061ffff1681526020018460a0015161ffff168152602001836001600160a01b03168152602001426001600160401b0316815260200184606001516001600160a01b03168152602001336001600160a01b0316815250905092915050565b6040805160608101825260008082526020820181905291810191909152604080516060810182526001600160a01b0380861680835292516347e332df60e11b815260048101939093527f000000000000000000000000000000000000000000000000000000000000000016602483015290602082019073__$1291e1ff22aea68c4ae26c19e2b9f8f397$__90638fc665be90604401602060405180830381865af4158015611bc5573d6000803e3d6000fd5b505050506040513d601f19601f82011682018060405250810190611be991906147f0565b61ffff1681526020018361ffff16815250905092915050565b6040808201516001600160a01b03166000908152600b6020908152828220845183529052205460ff1615611c4957604051633ab3447f60e11b815260040160405180910390fd5b815160408601511080611c63575081602001518560400151115b15611c815760405163227d1a9160e11b815260040160405180910390fd5b6000604084015282611c94818484612e52565b611cb157604051636d2a03cf60e01b815260040160405180910390fd5b6000611cd0611cbe610d6f565b88883387604001518a60e00151612e60565b905082604001516001600160a01b0316336001600160a01b03168263ffffffff167f42cc7f53ef7b494c5dd6f0095175f7d07b5d3d7b2a03f34389fea445ba4a3a8b8a8a604051611d2292919061480d565b60405180910390a450505050505050565b600080611d3e613cf9565b604051631c2d8fb360e31b81527f000000000000000000000000000000000000000000000000000000000000000060048201526000907f00000000000000000000000000000000000000000000000000000000000000006001600160a01b03169063e16c7d9890602401602060405180830381865afa158015611dc5573d6000803e3d6000fd5b505050506040513d601f19601f82011682018060405250810190611de9919061471d565b60405163e6c5a54160e01b815263ffffffff871660048201529091506000906001600160a01b0383169063e6c5a54190602401606060405180830381865afa158015611e39573d6000803e3d6000fd5b505050506040513d601f19601f82011682018060405250810190611e5d9190614909565b60208181015163ffffffff898116600090815260058085526040918290208251610160810184528154815260018201549681019690965260028101549286019290925260038201546001600160a01b038082166060880152600160a01b8083049095166080880152600160c01b820461ffff90811660a0890152600160d01b90920490911660c0870152600483015480821660e08801526001600160401b039490048416610100870152908201548116610120860152600690910154166101408401819052929650929350919091169015611f3f578361014001519550612012565b826001600160a01b0316638208e76c6040518163ffffffff1660e01b8152600401602060405180830381865afa158015611f7d573d6000803e3d6000fd5b505050506040513d601f19601f82011682018060405250810190611fa1919061471d565b6001600160a01b0316636352211e826040518263ffffffff1660e01b8152600401611fce91815260200190565b602060405180830381865afa158015611feb573d6000803e3d6000fd5b505050506040513d601f19601f8201168201806040525081019061200f919061471d565b95505b826001600160a01b0316634fbe68a06040518163ffffffff1660e01b8152600401602060405180830381865afa158015612050573d6000803e3d6000fd5b505050506040513d601f19601f82011682018060405250810190612074919061471d565b6001600160a01b0316636352211e826040518263ffffffff1660e01b81526004016120a191815260200190565b602060405180830381865afa1580156120be573d6000803e3d6000fd5b505050506040513d601f19601f820116820180604052508101906120e2919061471d565b945050509193509193565b63ffffffff84166000908152600660209081526040808320815160608101835290546001600160a01b038116825261ffff600160a01b8204811694830194909452600160b01b900490921690820152908061214784612e86565b60608601519193509150612166906001600160a01b0316338784612f40565b6020830151604051637f5e0ed360e01b81526004810184905261ffff909116602482015260009073__$1291e1ff22aea68c4ae26c19e2b9f8f397$__90637f5e0ed390604401602060405180830381865af41580156121c9573d6000803e3d6000fd5b505050506040513d601f19601f820116820180604052508101906121ed91906146db565b9050600081118015612208575083516001600160a01b031615155b1561223757612217818461470a565b84516060870151919450612237916001600160a01b031690339084612f40565b61225933612243610ef3565b60608801516001600160a01b0316919086612f40565b856001600160a01b0316876001600160a01b03168963ffffffff167f3687d64f40b11dd1c102a76882ac1735891c546a96ae27935eb5c7865b9d86fa886000015189604001518789888c600001518e61012001518f606001516040516122c698979695949392919061498a565b60405180910390a45050505050505050565b6122e485848484612f61565b610abb833086612ffa565b610e788363a9059cbb60e01b848460405160240161230e9291906147c4565b60408051601f198184030181529190526020810180516001600160e01b03166001600160e01b03199093169290921790915261309d565b61234d613172565b6001805460ff60a01b191690557f5db9ee0a495bf2e6ff9c91a7834c1ba4fdd244a5e8aa4e537bd38aeae4b073aa335b60405161238a91906141f6565b60405180910390a1565b6001600160a01b0382166123bb57604051636e8ab17b60e11b815260040160405180910390fd5b6001600160a01b0382166000818152600c6020908152604091829020805460ff191685151590811790915591519182527ff100355be652ecc881568750e6a98c0713e4316f75d5314ebc9039e0acb52f24910160405180910390a25050565b600080546001600160a01b038381166001600160a01b0319831681178455604051919092169283917f8be0079c531659141344cd1fd0a4f28419497f9722a3daafe3b4186f6b6457e09190a35050565b612472611782565b6001805460ff60a01b1916600160a01b1790557f62e78cea01bee320cd4e420270b5ea74000d11b0c9f74754ebdbfc544b05a25861237d3390565b63ffffffff8716600090815260056020526040808220905163b5ec526360e01b8152909190819073__$1291e1ff22aea68c4ae26c19e2b9f8f397$__9063b5ec5263906125289086908e908e908e908d907f0000000000000000000000000000000000000000000000000000000000000000906004016149cf565b6040805180830381865af4158015612544573d6000803e3d6000fd5b505050506040513d601f19601f820116820180604052508101906125689190614ada565b6001600160a01b0381166000818152600b602090815260408083208c8452825291829020805460ff1916600117905581516080810183528b81529081018a905280820192909252606082018890525163d06ff74160e01b815292945090925073__$07730b9b91c2b41a419f99961f709e7858$__9163d06ff741916125f7918e918e918e918e91600401614b94565b602060405180830381865af4158015612614573d6000803e3d6000fd5b505050506040513d601f19601f820116820180604052508101906126389190614bc9565b6126555760405163e83dc84b60e01b815260040160405180910390fd5b60008715612730576003840154604051632ad659af60e01b8152600481018a9052600160d01b90910461ffff16602482015273__$1291e1ff22aea68c4ae26c19e2b9f8f397$__90632ad659af90604401602060405180830381865af41580156126c3573d6000803e3d6000fd5b505050506040513d601f19601f820116820180604052508101906126e791906146db565b905061270e83836126f8848c61470a565b60038801546001600160a01b0316929190612f40565b6127308361271a610ef3565b60038701546001600160a01b0316919084612f40565b60038401805463ffffffff60a01b1916600160a01b63ffffffff8d16021790556001840189905560068401546001600160a01b0316612787576006840180546001600160a01b0319166001600160a01b0385161790555b604051631c2d8fb360e31b81527f000000000000000000000000000000000000000000000000000000000000000060048201527f00000000000000000000000000000000000000000000000000000000000000006001600160a01b03169063e16c7d9890602401602060405180830381865afa15801561280b573d6000803e3d6000fd5b505050506040513d601f19601f8201168201806040525081019061282f919061471d565b6001600160a01b031663072db1478c846040518363ffffffff1660e01b815260040161285c9291906146bc565b600060405180830381600087803b15801561287657600080fd5b505af115801561288a573d6000803e3d6000fd5b50506040805163ffffffff8e81168252602082018e90529181018c9052606081018590526001600160a01b03808716945087169250908e16907f37357bed780fda5aed28c32fe9cd762cb2f2f8a70c0d9b342aba59c945943ca09060800160405180910390a45050505050505050505050565b6040808201516001600160a01b03166000908152600b60209081528282208451835290529081205460ff161561294657604051633ab3447f60e11b815260040160405180910390fd5b60006040808501919091525163eb2ac63f60e01b8152839073__$07730b9b91c2b41a419f99961f709e7858$__9063eb2ac63f9061298a9084908790600401614be6565b602060405180830381865af41580156129a7573d6000803e3d6000fd5b505050506040513d601f19601f820116820180604052508101906129cb9190614bc9565b6129e857604051636d2a03cf60e01b815260040160405180910390fd5b6000612a076129f5610d6f565b88883388604001518a60e00151612e60565b905083604001516001600160a01b0316336001600160a01b03168263ffffffff167f42cc7f53ef7b494c5dd6f0095175f7d07b5d3d7b2a03f34389fea445ba4a3a8b8a8a604051612a5992919061480d565b60405180910390a49695505050505050565b63ffffffff84166000908152600660209081526040808320815160608101835290546001600160a01b038116825261ffff600160a01b8204811694830194909452600160b01b9004909216908201529080612ac584612e86565b9150915083606001516001600160a01b03166323b872dd3387846040518463ffffffff1660e01b8152600401612afd9392919061473a565b6020604051808303816000875af1925050508015612b38575060408051601f3d908101601f19168201909252612b3591810190614bc9565b60015b612bfe576060840151612b56906001600160a01b0316333084612f40565b6001600160a01b038086166000908152600a60209081526040808320606089015190941683529290529081208054839290612b929084906147dd565b909155505060608401516001600160a01b031660009081526009602052604081208054839290612bc39084906147dd565b909155505060405163ffffffff8816907fe6dfda7486ec1e06f754c28be83c676af29b18143765a2843361313cdab2712590600090a2612c00565b505b6020830151604051637f5e0ed360e01b81526004810184905261ffff909116602482015260009073__$1291e1ff22aea68c4ae26c19e2b9f8f397$__90637f5e0ed390604401602060405180830381865af4158015612c63573d6000803e3d6000fd5b505050506040513d601f19601f82011682018060405250810190612c8791906146db565b9050600081118015612ca2575083516001600160a01b031615155b15612d4b57612cb1818461470a565b606086015185516040516323b872dd60e01b81529295506001600160a01b03909116916323b872dd91612ceb91339190869060040161473a565b6020604051808303816000875af1925050508015612d26575060408051601f3d908101601f19168201909252612d2391810190614bc9565b60015b612d49576060850151612d44906001600160a01b0316333084612f40565b612d4b565b505b84606001516001600160a01b03166323b872dd33612d67610ef3565b866040518463ffffffff1660e01b8152600401612d869392919061473a565b6020604051808303816000875af1925050508015612dc1575060408051601f3d908101601f19168201909252612dbe91810190614bc9565b60015b612de4576060850151612ddf906001600160a01b0316333086612f40565b612259565b50856001600160a01b0316876001600160a01b03168963ffffffff167f3687d64f40b11dd1c102a76882ac1735891c546a96ae27935eb5c7865b9d86fa886000015189604001518789888c600001518e61012001518f606001516040516122c698979695949392919061498a565b60006107a3848484306131bd565b6000612e6d868530612ffa565b612e7b87878787878761333b565b979650505050505050565b600080600083600001518460200151612e9f919061470a565b60c0850151604051632ad659af60e01b81526004810183905261ffff909116602482015290915073__$1291e1ff22aea68c4ae26c19e2b9f8f397$__90632ad659af90604401602060405180830381865af4158015612f02573d6000803e3d6000fd5b505050506040513d601f19601f82011682018060405250810190612f2691906146db565b9250828460200151612f38919061470a565b915050915091565b6108c4846323b872dd60e01b85858560405160240161230e9392919061473a565b63ffffffff84166000908152600760209081526040808320805460ff191660019081179091556101208701516001600160a01b03168452600883528184208783015185529092528220805491929091612fbb90849061470a565b909155505060405163a4d0845d60e01b815263ffffffff8516600482015281151560248201526001600160a01b0383169063a4d0845d90604401610cb9565b60e083015161012084015160408086015181516001600160a01b038781166024830152868116604483015290931660648401526084808401919091528151808403909101815260a49092018152602080830180516001600160e01b031663b030667160e01b17905281518083019092528082527f4e4654206e6f74207375636365737366756c6c79207472616e73666572726564908201526108c49291906137bb565b60006130f2826040518060400160405280602081526020017f5361666545524332303a206c6f772d6c6576656c2063616c6c206661696c6564815250856001600160a01b03166138339092919063ffffffff16565b90508051600014806131135750808060200190518101906131139190614bc9565b610e785760405162461bcd60e51b815260206004820152602a60248201527f5361666545524332303a204552433230206f7065726174696f6e20646964206e6044820152691bdd081cdd58d8d9595960b21b60648201526084016107da565b61317a610d23565b610af95760405162461bcd60e51b815260206004820152601460248201527314185d5cd8589b194e881b9bdd081c185d5cd95960621b60448201526064016107da565b600082602001514211156132135760405162461bcd60e51b815260206004820152601c60248201527f4c656e646572205369676e61747572652068617320657870697265640000000060448201526064016107da565b6001600160a01b0382166132605760405162461bcd60e51b81526020600482015260146024820152734c6f616e206973207a65726f206164647265737360601b60448201526064016107da565b60408301516001600160a01b031661327a575060006107a3565b600061328586613842565b85516020808801516040516132a4939201918252602082015260400190565b6040516020818303038152906040526132bc86613901565b85466040516020016132d2959493929190614c75565b6040516020818303038152906040528051906020012090506133338460400151613329837f19457468657265756d205369676e6564204d6573736167653a0a3332000000006000908152601c91909152603c902090565b8660600151613944565b9150506107a3565b6101208501516001600160a01b03166000908152600860209081526040808320818901518452909152812080546001919083906133799084906147dd565b909155505085516040868101519051637b2392f160e01b8152600481019290925261ffff1660248201526001600160a01b038316604482015260009073__$1291e1ff22aea68c4ae26c19e2b9f8f397$__90637b2392f190606401602060405180830381865af41580156133f1573d6000803e3d6000fd5b505050506040513d601f19601f8201168201806040525081019061341591906146db565b90506000818860000151613429919061470a565b9050811561344b57606088015161344b906001600160a01b0316868685612f40565b6060880151613465906001600160a01b0316868884612f40565b604051631c2d8fb360e31b81527f000000000000000000000000000000000000000000000000000000000000000060048201526000907f00000000000000000000000000000000000000000000000000000000000000006001600160a01b03169063e16c7d9890602401602060405180830381865afa1580156134ec573d6000803e3d6000fd5b505050506040513d601f19601f82011682018060405250810190613510919061471d565b60405163d1f7659560e01b81529091506001600160a01b0382169063d1f76595906135419089908e906004016147c4565b6020604051808303816000875af1158015613560573d6000803e3d6000fd5b505050506040513d601f19601f820116820180604052508101906135849190614cd4565b935088600560008663ffffffff1663ffffffff16815260200190815260200160002060008201518160000155602082015181600101556040820151816002015560608201518160030160006101000a8154816001600160a01b0302191690836001600160a01b0316021790555060808201518160030160146101000a81548163ffffffff021916908363ffffffff16021790555060a08201518160030160186101000a81548161ffff021916908361ffff16021790555060c082015181600301601a6101000a81548161ffff021916908361ffff16021790555060e08201518160040160006101000a8154816001600160a01b0302191690836001600160a01b031602179055506101008201518160040160146101000a8154816001600160401b0302191690836001600160401b031602179055506101208201518160050160006101000a8154816001600160a01b0302191690836001600160a01b031602179055506101408201518160060160006101000a8154816001600160a01b0302191690836001600160a01b0316021790555090505087600660008663ffffffff1663ffffffff16815260200190815260200160002060008201518160000160006101000a8154816001600160a01b0302191690836001600160a01b0316021790555060208201518160000160146101000a81548161ffff021916908361ffff16021790555060408201518160000160166101000a81548161ffff021916908361ffff1602179055509050505050509695505050505050565b6060600080856001600160a01b0316856040516137d89190614cf1565b600060405180830381855af49150503d8060008114613813576040519150601f19603f3d011682016040523d82523d6000602084013e613818565b606091505b50915091506138298683838761399b565b9695505050505050565b60606107a38484600085613a14565b60608160c0015182600001518360200151846060015185604001518660e0015187608001518860a001516040516020016138eb989796959493929190606098891b6001600160601b031990811682526014820198909852603481019690965293871b86166054860152606885019290925290941b909216608882015260e09290921b6001600160e01b031916609c83015260f01b6001600160f01b03191660a082015260a20190565b6040516020818303038152906040529050919050565b60608160400151826000015183602001516040516020016138eb9392919060609390931b6001600160601b03191683526014830191909152603482015260540190565b60008060006139538585613ae4565b9092509050600081600481111561396c5761396c614d0d565b14801561398a5750856001600160a01b0316826001600160a01b0316145b806138295750613829868686613b29565b60608315613a0a578251600003613a03576001600160a01b0385163b613a035760405162461bcd60e51b815260206004820152601d60248201527f416464726573733a2063616c6c20746f206e6f6e2d636f6e747261637400000060448201526064016107da565b50816107a3565b6107a38383613c15565b606082471015613a755760405162461bcd60e51b815260206004820152602660248201527f416464726573733a20696e73756666696369656e742062616c616e636520666f6044820152651c8818d85b1b60d21b60648201526084016107da565b600080866001600160a01b03168587604051613a919190614cf1565b60006040518083038185875af1925050503d8060008114613ace576040519150601f19603f3d011682016040523d82523d6000602084013e613ad3565b606091505b5091509150612e7b8783838761399b565b6000808251604103613b1a5760208301516040840151606085015160001a613b0e87828585613c3f565b94509450505050613b22565b506000905060025b9250929050565b6000806000856001600160a01b0316631626ba7e60e01b8686604051602401613b53929190614d23565b60408051601f198184030181529181526020820180516001600160e01b03166001600160e01b0319909416939093179092529051613b919190614cf1565b600060405180830381855afa9150503d8060008114613bcc576040519150601f19603f3d011682016040523d82523d6000602084013e613bd1565b606091505b5091509150818015613be557506020815110155b801561382957508051630b135d3f60e11b90613c0a90830160209081019084016146db565b149695505050505050565b815115613c255781518083602001fd5b8060405162461bcd60e51b81526004016107da9190614d3c565b6000806fa2a8918ca85bafe22016d0b997e4df60600160ff1b03831115613c6c5750600090506003613cf0565b6040805160008082526020820180845289905260ff881692820192909252606081018690526080810185905260019060a0016020604051602081039080840390855afa158015613cc0573d6000803e3d6000fd5b5050604051601f1901519150506001600160a01b038116613ce957600060019250925050613cf0565b9150600090505b94509492505050565b6040805161016081018252600080825260208201819052918101829052606081018290526080810182905260a0810182905260c0810182905260e081018290526101008101829052610120810182905261014081019190915290565b600060208284031215613d6757600080fd5b81356001600160e01b031981168114610d1c57600080fd5b63ffffffff8116811461099c57600080fd5b8035613d9c81613d7f565b919050565b600060208284031215613db357600080fd5b8135610d1c81613d7f565b6001600160a01b03169052565b6001600160a01b038116811461099c57600080fd5b8035613d9c81613dcb565b634e487b7160e01b600052604160045260246000fd5b604080519081016001600160401b0381118282101715613e2357613e23613deb565b60405290565b604051601f8201601f191681016001600160401b0381118282101715613e5157613e51613deb565b604052919050565b600082601f830112613e6a57600080fd5b81356001600160401b03811115613e8357613e83613deb565b613e96601f8201601f1916602001613e29565b818152846020838601011115613eab57600080fd5b816020850160208301376000918101602001919091529392505050565b60008060008060808587031215613ede57600080fd5b8435613ee981613dcb565b93506020850135613ef981613dcb565b92506040850135915060608501356001600160401b03811115613f1b57600080fd5b613f2787828801613e59565b91505092959194509250565b61ffff8116811461099c57600080fd5b8035613d9c81613f33565b600060208284031215613f6057600080fd5b8135610d1c81613f33565b6000610100808385031215613f7f57600080fd5b604051908101906001600160401b0382118183101715613fa157613fa1613deb565b8160405280925083358152602084013560208201526040840135604082015260608401359150613fd082613dcb565b816060820152613fe260808501613d91565b6080820152613ff360a08501613f43565b60a082015261400460c08501613de0565b60c082015261401560e08501613de0565b60e0820152505092915050565b60006080828403121561403457600080fd5b604051608081016001600160401b03828210818311171561405757614057613deb565b8160405282935084358352602085013560208401526040850135915061407c82613dcb565b816040840152606085013591508082111561409657600080fd5b506140a385828601613e59565b6060830152505092915050565b6000604082840312156140c257600080fd5b6140ca613e01565b905081356140d781613dcb565b815260208201356140e781613f33565b602082015292915050565b6000806000808486036101a081121561410a57600080fd5b6141148787613f6b565b9450604060ff198201121561412857600080fd5b50614131613e01565b6101008601358152610120860135602082015292506101408501356001600160401b0381111561416057600080fd5b61416c87828801614022565b92505061417d8661016087016140b0565b905092959194509250565b60008060006060848603121561419d57600080fd5b83356141a881613dcb565b92506020840135915060408401356141bf81613dcb565b809150509250925092565b600080604083850312156141dd57600080fd5b82356141e881613dcb565b946020939093013593505050565b6001600160a01b0391909116815260200190565b60006020828403121561421c57600080fd5b5035919050565b6000806000610160848603121561423957600080fd5b6142438585613f6b565b92506101008401356001600160401b0381111561425f57600080fd5b61426b86828701614022565b92505061427c8561012086016140b0565b90509250925092565b801515811461099c57600080fd5b600080604083850312156142a657600080fd5b82356142b181613dcb565b915060208301356142c181614285565b809150509250929050565b60006001600160401b038211156142e5576142e5613deb565b5060051b60200190565b600082601f83011261430057600080fd5b81356020614315614310836142cc565b613e29565b82815260059290921b8401810191818101908684111561433457600080fd5b8286015b8481101561435857803561434b81614285565b8352918301918301614338565b509695505050505050565b6000806040838503121561437657600080fd5b82356001600160401b038082111561438d57600080fd5b818501915085601f8301126143a157600080fd5b813560206143b1614310836142cc565b82815260059290921b840181019181810190898411156143d057600080fd5b948201945b838610156143f75785356143e881613dcb565b825294820194908201906143d5565b9650508601359250508082111561440d57600080fd5b5061441a858286016142ef565b9150509250929050565b60006020828403121561443657600080fd5b8135610d1c81613dcb565b600080600080600080600060e0888a03121561445c57600080fd5b873561446781613d7f565b9650602088013561447781613d7f565b955060408801359450606088013593506080880135925060a0880135915060c08801356001600160401b038111156144ae57600080fd5b6144ba8a828b01613e59565b91505092959891949750929550565b60008083601f8401126144db57600080fd5b5081356001600160401b038111156144f257600080fd5b6020830191508360208260051b8501011115613b2257600080fd5b60008083601f84011261451f57600080fd5b5081356001600160401b0381111561453657600080fd5b602083019150836020828501011115613b2257600080fd5b60008060008060008060008060a0898b03121561456a57600080fd5b883561457581613dcb565b9750602089013561458581613dcb565b965060408901356001600160401b03808211156145a157600080fd5b6145ad8c838d016144c9565b909850965060608b01359150808211156145c657600080fd5b6145d28c838d016144c9565b909650945060808b01359150808211156145eb57600080fd5b506145f88b828c0161450d565b999c989b5096995094979396929594505050565b60008060008060008060a0878903121561462557600080fd5b863561463081613dcb565b9550602087013561464081613dcb565b9450604087013593506060870135925060808701356001600160401b0381111561466957600080fd5b61467589828a0161450d565b979a9699509497509295939492505050565b6020808252818101527f4f776e61626c653a2063616c6c6572206973206e6f7420746865206f776e6572604082015260600190565b63ffffffff9290921682526001600160a01b0316602082015260400190565b6000602082840312156146ed57600080fd5b5051919050565b634e487b7160e01b600052601160045260246000fd5b81810381811115610794576107946146f4565b60006020828403121561472f57600080fd5b8151610d1c81613dcb565b6001600160a01b039384168152919092166020820152604081019190915260600190565b6020808252601c908201527f4f776e61626c653a206e6f74206f776e65722063616e64696461746500000000604082015260600190565b634e487b7160e01b600052603260045260246000fd5b6000600182016147bd576147bd6146f4565b5060010190565b6001600160a01b03929092168252602082015260400190565b80820180821115610794576107946146f4565b60006020828403121561480257600080fd5b8151610d1c81613f33565b60006101c08201905083518252602084015160208301526040840151604083015260608401516148406060840182613dbe565b506080840151614858608084018263ffffffff169052565b5060a084015161486e60a084018261ffff169052565b5060c084015161488460c084018261ffff169052565b5060e084015161489760e0840182613dbe565b50610100848101516001600160401b031690830152610120808501516148bf82850182613dbe565b5050610140808501516148d482850182613dbe565b505082516001600160a01b0316610160830152602083015161ffff9081166101808401526040840151166101a0830152610d1c565b60006060828403121561491b57600080fd5b604051606081016001600160401b03828210818311171561493e5761493e613deb565b816040528451915061494f82613dcb565b908252602084015190808216821461496657600080fd5b50602082015260408301516004811061497e57600080fd5b60408201529392505050565b97885260208801969096526040870194909452606086019290925260808501526001600160a01b0390811660a085015290811660c08401521660e08201526101000190565b86548152600187015460208201526002870154604082015260038701546102008201906001600160a01b03614a0960608501828416613dbe565b60a082901c63ffffffff16608085015261ffff60c083901c811660a0860152614a3d60c08601828560d01c1661ffff169052565b5060048a01549150614a5460e08501828416613dbe565b5060a081901c6001600160401b03166101008401525060058801546001600160a01b0316614a86610120840182613dbe565b5060068801546001600160a01b0316614aa3610140840182613dbe565b5063ffffffff871661016083015263ffffffff8616610180830152846101a0830152836101c0830152612e7b6101e0830184613dbe565b60008060408385031215614aed57600080fd5b8251614af881613dcb565b60208401519092506142c181613dcb565b60005b83811015614b24578181015183820152602001614b0c565b50506000910152565b60008151808452614b45816020860160208601614b09565b601f01601f19169290920160200192915050565b805182526020810151602083015260018060a01b03604082015116604083015260006060820151608060608501526107a36080850182614b2d565b600063ffffffff808816835280871660208401525084604083015283606083015260a06080830152612e7b60a0830184614b59565b600060208284031215614bdb57600080fd5b8151610d1c81614285565b600061012084518352602085015160208401526040850151604084015260018060a01b03606086015116606084015263ffffffff608086015116608084015261ffff60a08601511660a084015260c0850151614c4560c0850182613dbe565b5060e0850151614c5860e0850182613dbe565b5080610100840152614c6c81840185614b59565b95945050505050565b60008651614c87818460208b01614b09565b865190830190614c9b818360208b01614b09565b8651910190614cae818360208a01614b09565b60609590951b6001600160601b0319169401938452505060148201526034019392505050565b600060208284031215614ce657600080fd5b8151610d1c81613d7f565b60008251614d03818460208701614b09565b9190910192915050565b634e487b7160e01b600052602160045260246000fd5b8281526040602082015260006107a36040830184614b2d565b602081526000610d1c6020830184614b2d56fea164736f6c6343000813000a",
  "libraries": {
    "NFTfiSigningUtils": "0x69890a5B92C8a21EF3539622Cd2881Ea65b8b8fB",
    "LoanChecksAndCalculations": "0x4Eef77380D49eB645f3A78a1e5Ec78efCCeaBF64",
    "ContractKeys": "0x2e372AeD29b34982e73446a0FE3F0FFB9d87468b"
  },
  "devdoc": {
    "author": "NFTfi",
    "events": {
      "AdminFeeUpdated(uint16)": {
        "params": {
          "newAdminFee": "- The new admin fee measured in basis points. This is a percent of the interest paid upon a loan's completion that go to the contract admins."
        }
      },
      "ERC20Permit(address,bool)": {
        "params": {
          "erc20Contract": "- Address of the ERC20 contract.",
          "isPermitted": "- Signals ERC20 permit."
        }
      },
      "EscrowRepay(uint32)": {
        "params": {
          "loanId": "- A unique identifier for this particular loan, sourced from the Loan Coordinator."
        }
      },
      "LoanLiquidated(uint32,address,address,uint256,uint256,uint256,uint256,address)": {
        "params": {
          "borrower": "- The address of the borrower.",
          "lender": "- The address of the lender. The lender can change their address by transferring the NFTfi ERC721 token that they received when the loan began.",
          "loanId": "- A unique identifier for this particular loan, sourced from the Loan Coordinator.",
          "loanLiquidationDate": "- The unix time (measured in seconds) that liquidation occurred.",
          "loanMaturityDate": "- The unix time (measured in seconds) that the loan became due and was eligible for liquidation.",
          "loanPrincipalAmount": "- The original sum of money transferred from lender to borrower at the beginning of the loan, measured in loanERC20Denomination's smallest units.",
          "nftCollateralContract": "- The ERC721 contract of the NFT collateral",
          "nftCollateralId": "- The ID within the NFTCollateralContract for the NFT being used as collateral for this loan. The NFT is stored within this contract during the duration of the loan."
        }
      },
      "LoanRenegotiated(uint32,address,address,uint32,uint256,uint256,uint256)": {
        "params": {
          "loanId": "- The unique identifier for the loan to be renegotiated",
          "newLoanDuration": "- The new amount of time (measured in seconds) that can elapse before the lender can liquidate the loan and seize the underlying collateral NFT.",
          "newMaximumRepaymentAmount": "- The new maximum amount of money that the borrower would be required to retrieve their collateral, measured in the smallest units of the ERC20 currency used for the loan. The borrower will always have to pay this amount to retrieve their collateral, regardless of whether they repay early.",
          "renegotiationAdminFee": "renegotiationFee admin portion based on determined by adminFeeInBasisPoints",
          "renegotiationFee": "Agreed upon fee in loan denomination that borrower pays for the lender for the renegotiation, has to be paid with an ERC20 transfer loanERC20Denomination token, uses transfer from, frontend will have to propmt an erc20 approve for this from the borrower to the lender"
        }
      },
      "LoanRepaid(uint32,address,address,uint256,uint256,uint256,uint256,uint256,address,address,address)": {
        "params": {
          "adminFee": "The amount of interest paid to the contract admins, measured in the smalled units of loanERC20Denomination and determined by adminFeeInBasisPoints. This amount never exceeds the amount of interest earned.",
          "amountPaidToLender": "The amount of ERC20 that the borrower paid to the lender, measured in the smalled units of loanERC20Denomination.",
          "borrower": "- The address of the borrower.",
          "lender": "- The address of the lender. The lender can change their address by transferring the NFTfi ERC721 token that they received when the loan began.",
          "loanERC20Denomination": "- The ERC20 contract of the currency being used as principal/interest for this loan.",
          "loanId": "- A unique identifier for this particular loan, sourced from the Loan Coordinator.",
          "loanPrincipalAmount": "- The original sum of money transferred from lender to borrower at the beginning of the loan, measured in loanERC20Denomination's smallest units.",
          "nftCollateralContract": "- The ERC721 contract of the NFT collateral",
          "nftCollateralId": "- The ID within the NFTCollateralContract for the NFT being used as collateral for this loan. The NFT is stored within this contract during the duration of the loan.",
          "revenueShare": "The amount taken from admin fee amount shared with the partner.",
          "revenueSharePartner": "- The address of the partner that will receive the revenue share."
        }
      },
      "LoanStarted(uint32,address,address,(uint256,uint256,uint256,address,uint32,uint16,uint16,address,uint64,address,address),(address,uint16,uint16))": {
        "params": {
          "borrower": "- The address of the borrower.",
          "lender": "- The address of the lender. The lender can change their address by transferring the NFTfi ERC721 token that they received when the loan began.",
          "loanId": "- A unique identifier for this particular loan, sourced from the Loan Coordinator."
        }
      },
      "MaximumLoanDurationUpdated(uint256)": {
        "params": {
          "newMaximumLoanDuration": "- The new maximum duration."
        }
      },
      "Paused(address)": {
        "details": "Emitted when the pause is triggered by `account`."
      },
      "Unpaused(address)": {
        "details": "Emitted when the pause is lifted by `account`."
      }
    },
    "kind": "dev",
    "methods": {
      "acceptCollectionOffer((uint256,uint256,uint256,address,uint32,uint16,address,address),(uint256,uint256,address,bytes),(address,uint16))": {
        "params": {
          "_borrowerSettings": "- Some extra parameters that the borrower needs to set when accepting an offer.",
          "_offer": "- The offer made by the lender.",
          "_signature": "- The components of the lender's signature. stolen or otherwise unwanted items"
        }
      },
      "acceptCollectionOfferWithIdRange((uint256,uint256,uint256,address,uint32,uint16,address,address),(uint256,uint256),(uint256,uint256,address,bytes),(address,uint16))": {
        "params": {
          "_borrowerSettings": "- Some extra parameters that the borrower needs to set when accepting an offer.",
          "_idRange": "- min and max (inclusive) Id ranges for collection offers on collections, like ArtBlocks, where multiple collections are defined on one contract differentiated by id-ranges",
          "_offer": "- The offer made by the lender.",
          "_signature": "- The components of the lender's signature. stolen or otherwise unwanted items"
        }
      },
      "cancelLoanCommitmentBeforeLoanHasBegun(uint256)": {
        "params": {
          "_nonce": "- User nonce"
        }
      },
      "constructor": {
        "details": "Sets `hub` and permitted erc20-s",
        "params": {
          "_admin": "- Initial admin of this contract.",
          "_nftfiHub": "- NFTfiHub address",
          "_permittedErc20s": "- list of permitted ERC20 token contract addresses"
        }
      },
      "drainERC1155Airdrop(address,uint256,address)": {
        "params": {
          "_receiver": "- receiver of the token",
          "_tokenAddress": "- address of the token contract for the token to be sent out",
          "_tokenId": "- id token to be sent out"
        }
      },
      "drainERC20Airdrop(address,uint256,address)": {
        "params": {
          "_receiver": "- receiver of the token",
          "_tokenAddress": "- address of the token contract for the token to be sent out"
        }
      },
      "drainERC721Airdrop(address,uint256,address)": {
        "params": {
          "_receiver": "- receiver of the token",
          "_tokenAddress": "- address of the token contract for the token to be sent out",
          "_tokenId": "- id token to be sent out"
        }
      },
      "getERC20Permit(address)": {
        "params": {
          "_erc20": "- The address of the erc20 contract."
        },
        "returns": {
          "_0": "Returns whether the erc20 is permitted"
        }
      },
      "getEscrowedPayBack(address)": {
        "params": {
          "_token": "ERC20 token conract address"
        }
      },
      "getPayoffAmount(uint32)": {
        "params": {
          "_loanId": "A unique identifier for this particular loan, sourced from the Loan Coordinator."
        },
        "returns": {
          "_0": "The amount of the specified ERC20 currency required to pay back this loan, measured in the smallest unit of the specified ERC20 currency."
        }
      },
      "getWhetherNonceHasBeenUsedForUser(address,uint256)": {
        "params": {
          "_nonce": "- The nonce referred to here is not the same as an Ethereum account's nonce. We are referring instead to nonces that are used by both the lender and the borrower when they are first signing off-chain NFTfi orders. These nonces can be any uint256 value that the user has not previously used to sign an off-chain order. Each nonce can be used at most once per user within NFTfi, regardless of whether they are the lender or the borrower in that situation. This serves two purposes: - First, it prevents replay attacks where an attacker would submit a user's off-chain order more than once. - Second, it allows a user to cancel an off-chain order by calling NFTfi.cancelLoanCommitmentBeforeLoanHasBegun() , which marks the nonce as used and prevents any future loan from using the user's off-chain order that contains that nonce.",
          "_user": "- The address of the user. This function works for both lenders and borrowers alike."
        },
        "returns": {
          "_0": "A bool representing whether or not this nonce has been used for this user."
        }
      },
      "liquidateOverdueLoan(uint32)": {
        "params": {
          "_loanId": "A unique identifier for this particular loan, sourced from the Loan Coordinator."
        }
      },
      "onERC1155BatchReceived(address,address,uint256[],uint256[],bytes)": {
        "details": "Handles the receipt of a multiple ERC1155 token types. This function is called at the end of a `safeBatchTransferFrom` after the balances have been updated.",
        "returns": {
          "_0": "`bytes4(keccak256(\"onERC1155BatchReceived(address,address,uint256[],uint256[],bytes)\"))` if allowed"
        }
      },
      "onERC1155Received(address,address,uint256,uint256,bytes)": {
        "details": "Handles the receipt of a single ERC1155 token type. This function is called at the end of a `safeTransferFrom` after the balance has been updated.",
        "returns": {
          "_0": "`bytes4(keccak256(\"onERC1155Received(address,address,uint256,uint256,bytes)\"))` if allowed"
        }
      },
      "onERC721Received(address,address,uint256,bytes)": {
        "details": "See {IERC721Receiver-onERC721Received}. Always returns `IERC721Receiver.onERC721Received.selector`."
      },
      "owner()": {
        "details": "Returns the address of the current owner."
      },
      "pause()": {
        "details": "Triggers stopped state. Requirements: - Only the owner can call this method. - The contract must not be paused."
      },
      "paused()": {
        "details": "Returns true if the contract is paused, and false otherwise."
      },
      "payBackLoan(uint32)": {
        "params": {
          "_loanId": "A unique identifier for this particular loan, sourced from the Loan Coordinator."
        }
      },
      "payBackLoanSafe(uint32)": {
        "params": {
          "_loanId": "A unique identifier for this particular loan, sourced from the Loan Coordinator."
        }
      },
      "renegotiateLoan(uint32,uint32,uint256,uint256,uint256,uint256,bytes)": {
        "details": "makes possible to change loan duration and max repayment amount, loan duration even can be extended if loan was expired but not liquidated.",
        "params": {
          "_expiry": "- The date when the renegotiation offer expires",
          "_lenderNonce": "- The nonce referred to here is not the same as an Ethereum account's nonce. We are referring instead to nonces that are used by both the lender and the borrower when they are first signing off-chain NFTfi orders. These nonces can be any uint256 value that the user has not previously used to sign an off-chain order. Each nonce can be used at most once per user within NFTfi, regardless of whether they are the lender or the borrower in that situation. This serves two purposes: - First, it prevents replay attacks where an attacker would submit a user's off-chain order more than once. - Second, it allows a user to cancel an off-chain order by calling NFTfi.cancelLoanCommitmentBeforeLoanHasBegun() , which marks the nonce as used and prevents any future loan from using the user's off-chain order that contains that nonce.",
          "_lenderSignature": "- The ECDSA signature of the lender, obtained off-chain ahead of time, signing the following combination of parameters: - _loanId - _newLoanDuration - _newMaximumRepaymentAmount - _lender - _expiry  - address of this contract - chainId",
          "_loanId": "- The unique identifier for the loan to be renegotiated",
          "_newLoanDuration": "- The new amount of time (measured in seconds) that can elapse before the lender can liquidate the loan and seize the underlying collateral NFT.",
          "_newMaximumRepaymentAmount": "- The new maximum amount of money that the borrower would be required to retrieve their collateral, measured in the smallest units of the ERC20 currency used for the loan. The borrower will always have to pay this amount to retrieve their collateral, regardless of whether they repay early.",
          "_renegotiationFee": "Agreed upon fee in ether that borrower pays for the lender for the renegitiation"
        }
      },
      "requestTransferOwnership(address)": {
        "details": "Requests transferring ownership of the contract to a new account (`_newOwnerCandidate`). Can only be called by the current owner."
      },
      "setERC20Permit(address,bool)": {
        "params": {
          "_erc20": "- The address of the ERC20 currency whose permit list status changed.",
          "_permit": "- The new status of whether the currency is permitted or not."
        }
      },
      "setERC20Permits(address[],bool[])": {
        "params": {
          "_erc20s": "- The addresses of the ERC20 currencies whose permit list status changed.",
          "_permits": "- The new statuses of whether the currency is permitted or not."
        }
      },
      "supportsInterface(bytes4)": {
        "details": "Checks whether this contract implements the interface defined by `interfaceId`.",
        "params": {
          "_interfaceId": "Id of the interface"
        },
        "returns": {
          "_0": "true if this contract implements the interface"
        }
      },
      "unpause()": {
        "details": "Returns to normal state. Requirements: - Only the owner can call this method. - The contract must be paused."
      },
      "updateAdminFee(uint16)": {
        "params": {
          "_newAdminFeeInBasisPoints": "- The new admin fee measured in basis points. This is a percent of the interest paid upon a loan's completion that go to the contract admins."
        }
      },
      "updateMaximumLoanDuration(uint256)": {
        "params": {
          "_newMaximumLoanDuration": "- The new maximum loan duration, measured in seconds."
        }
      }
    },
    "title": "DirectLoanFixedCollectionOffer",
    "version": 1
  },
  "userdoc": {
    "events": {
      "AdminFeeUpdated(uint16)": {
        "notice": "This event is fired whenever the admins change the percent of interest rates earned that they charge as a fee. Note that newAdminFee can never exceed 10,000, since the fee is measured in basis points."
      },
      "ERC20Permit(address,bool)": {
        "notice": "This event is fired whenever the admin sets a ERC20 permit."
      },
      "EscrowRepay(uint32)": {
        "notice": "This event is fired whenever a loan is repaid into escrow"
      },
      "LoanLiquidated(uint32,address,address,uint256,uint256,uint256,uint256,address)": {
        "notice": "This event is fired whenever a lender liquidates an outstanding loan that is owned to them that has exceeded its duration. The lender receives the underlying NFT collateral, and the borrower no longer needs to repay the loan principal-plus-interest."
      },
      "LoanRenegotiated(uint32,address,address,uint32,uint256,uint256,uint256)": {
        "notice": "This event is fired when some of the terms of a loan are being renegotiated."
      },
      "LoanRepaid(uint32,address,address,uint256,uint256,uint256,uint256,uint256,address,address,address)": {
        "notice": "This event is fired whenever a borrower successfully repays their loan, paying principal-plus-interest-minus-fee to the lender in loanERC20Denomination, paying fee to owner in loanERC20Denomination, and receiving their NFT collateral back."
      },
      "LoanStarted(uint32,address,address,(uint256,uint256,uint256,address,uint32,uint16,uint16,address,uint64,address,address),(address,uint16,uint16))": {
        "notice": "This event is fired whenever a borrower begins a loan by calling NFTfi.beginLoan(), which can only occur after both the lender and borrower have approved their ERC721 and ERC20 contracts to use NFTfi, and when they both have signed off-chain messages that agree on the terms of the loan."
      },
      "MaximumLoanDurationUpdated(uint256)": {
        "notice": "This event is fired whenever the admins change the maximum duration of any loan started for this loan type."
      }
    },
    "kind": "user",
    "methods": {
      "LOAN_TYPE()": {
        "notice": "This function returns a bytes32 value identifying the loan type for the coordinator"
      },
      "acceptCollectionOffer((uint256,uint256,uint256,address,uint32,uint16,address,address),(uint256,uint256,address,bytes),(address,uint16))": {
        "notice": "This function is called by the borrower when accepting a lender's collection offer to begin a loan."
      },
      "acceptCollectionOfferWithIdRange((uint256,uint256,uint256,address,uint32,uint16,address,address),(uint256,uint256),(uint256,uint256,address,bytes),(address,uint16))": {
        "notice": "This function is called by the borrower when accepting a lender's collection offer with a given id range to begin a loan"
      },
      "acceptOffer((uint256,uint256,uint256,address,uint32,uint16,address,address),(uint256,uint256,address,bytes),(address,uint16))": {
        "notice": "overriding to make it impossible to create a regular offer on this contract (only collection offers)"
      },
      "adminFeeInBasisPoints()": {
        "notice": "The percentage of interest earned by lenders on this platform that is taken by the contract admin's as a fee, measured in basis points (hundreths of a percent). The max allowed value is 10000."
      },
      "cancelLoanCommitmentBeforeLoanHasBegun(uint256)": {
        "notice": "This function can be called by either a lender or a borrower to cancel all off-chain orders that they have signed that contain this nonce. If the off-chain orders were created correctly, there should only be one off-chain order that contains this nonce at all. The nonce referred to here is not the same as an Ethereum account's nonce. We are referring instead to nonces that are used by both the lender and the borrower when they are first signing off-chain NFTfi orders. These nonces can be any uint256 value that the user has not previously used to sign an off-chain order. Each nonce can be used at most once per user within NFTfi, regardless of whether they are the lender or the borrower in that situation. This serves two purposes. First, it prevents replay attacks where an attacker would submit a user's off-chain order more than once. Second, it allows a user to cancel an off-chain order by calling NFTfi.cancelLoanCommitmentBeforeLoanHasBegun(), which marks the nonce as used and prevents any future loan from using the user's off-chain order that contains that nonce."
      },
      "drainERC1155Airdrop(address,uint256,address)": {
        "notice": "used by the owner account to be able to drain ERC1155 tokens received as airdrops for the locked  collateral NFT-s"
      },
      "drainERC20Airdrop(address,uint256,address)": {
        "notice": "used by the owner account to be able to drain ERC20 tokens received as airdrops for the locked  collateral NFT-s"
      },
      "drainERC721Airdrop(address,uint256,address)": {
        "notice": "used by the owner account to be able to drain ERC721 tokens received as airdrops for the locked  collateral NFT-s"
      },
      "getERC20Permit(address)": {
        "notice": "This function can be called by anyone to get the permit associated with the erc20 contract."
      },
      "getEscrowedPayBack(address)": {
        "notice": "Used for lenders to get their payback from escrow, in case the direct loan payback didn't work, because it caused a revert."
      },
      "getPayoffAmount(uint32)": {
        "notice": "This function can be used to view the current quantity of the ERC20 currency used in the specified loan required by the borrower to repay their loan, measured in the smallest unit of the ERC20 currency."
      },
      "getWhetherNonceHasBeenUsedForUser(address,uint256)": {
        "notice": "This function can be used to view whether a particular nonce for a particular user has already been used, either from a successful loan or a cancelled off-chain order."
      },
      "liquidateOverdueLoan(uint32)": {
        "notice": "This function is called by a lender once a loan has finished its duration and the borrower still has not repaid. The lender can call this function to seize the underlying NFT collateral, although the lender gives up all rights to the principal-plus-collateral by doing so. This function is purposefully not pausable in order to prevent an attack where the contract admin's pause the contract and hold hostage the NFT's that are still within it. We intentionally allow anybody to call this function, although only the lender will end up receiving the seized collateral. We are exploring the possbility of incentivizing users to call this function by using some of the admin funds."
      },
      "loanIdToLoan(uint32)": {
        "notice": "A mapping from a loan's identifier to the loan's details, represted by the loan struct."
      },
      "loanRepaidOrLiquidated(uint32)": {
        "notice": "A mapping tracking whether a loan has either been repaid or liquidated. This prevents an attacker trying to repay or liquidate the same loan twice."
      },
      "maximumLoanDuration()": {
        "notice": "The maximum duration of any loan started for this loan type, measured in seconds. This is both a sanity-check for borrowers and an upper limit on how long admins will have to support v1 of this contract if they eventually deprecate it, as well as a check to ensure that the loan duration never exceeds the space alotted for it in the loan struct."
      },
      "payBackLoan(uint32)": {
        "notice": "This function is called by a anyone to repay a loan. It can be called at any time after the loan has begun and before loan expiry.. The caller will pay a pro-rata portion of their interest if the loan is paid off early and the loan is pro-rated type, but the complete repayment amount if it is fixed type. The the borrower (current owner of the obligation note) will get the collaterl NFT back. This function is purposefully not pausable in order to prevent an attack where the contract admin's pause the contract and hold hostage the NFT's that are still within it."
      },
      "payBackLoanSafe(uint32)": {
        "notice": "This function is called by a anyone to repay a loan. It can be called at any time after the loan has begun and before loan expiry.. The caller will pay a pro-rata portion of their interest if the loan is paid off early and the loan is pro-rated type, but the complete repayment amount if it is fixed type. The the borrower (current owner of the obligation note) will get the collaterl NFT back. This function is purposefully not pausable in order to prevent an attack where the contract admin's pause the contract and hold hostage the NFT's that are still within it."
      },
      "setERC20Permit(address,bool)": {
        "notice": "This function can be called by admins to change the permitted status of an ERC20 currency. This includes both adding an ERC20 currency to the permitted list and removing it."
      },
      "setERC20Permits(address[],bool[])": {
        "notice": "This function can be called by admins to change the permitted status of a batch of ERC20 currency. This includes both adding an ERC20 currency to the permitted list and removing it."
      },
      "updateAdminFee(uint16)": {
        "notice": "This function can be called by admins to change the percent of interest rates earned that they charge as a fee. Note that newAdminFee can never exceed 10,000, since the fee is measured in basis points."
      },
      "updateMaximumLoanDuration(uint256)": {
        "notice": "This function can be called by admins to change the maximumLoanDuration. Note that they can never change maximumLoanDuration to be greater than UINT32_MAX, since that's the maximum space alotted for the duration in the loan struct."
      }
    },
    "notice": "Main contract for NFTfi Direct Loans Fixed Collection Type. This contract manages the ability to create reoccurring NFT-backed peer-to-peer loans of type Fixed (agreed to be a fixed-repayment loan) where the borrower pays the maximumRepaymentAmount regardless of whether they repay early or not. In collection offer type loans the collateral can be any one item (id) of a given NFT collection (contract). To commence an NFT-backed loan: The borrower accepts a lender's offer by calling `acceptOffer`.   1. the borrower calls nftContract.approveAll(NFTfi), approving the NFTfi contract to move their NFT's on their be1alf.   2. the lender calls erc20Contract.approve(NFTfi), allowing NFTfi to move the lender's ERC20 tokens on their behalf.   3. the lender signs a reusable off-chain message, proposing its collection offer terms.   4. the borrower calls `acceptOffer` to accept these terms and enter into the loan. The NFT is stored in the contract, the borrower receives the loan principal in the specified ERC20 currency, the lender receives an NFTfi promissory note (in ERC721 form) that represents the rights to either the principal-plus-interest, or the underlying NFT collateral if the borrower does not pay back in time, and the borrower receives obligation receipt (in ERC721 form) that gives them the right to pay back the loan and get the collateral back.  5. another borrower can also repeat step 4 until the original lender cancels or their wallet runs out of funds with allowance to the contract The lender can freely transfer and trade this ERC721 promissory note as they wish, with the knowledge that transferring the ERC721 promissory note tranfsers the rights to principal-plus-interest and/or collateral, and that they will no longer have a claim on the loan. The ERC721 promissory note itself represents that claim. The borrower can freely transfer and trade this ERC721 obligaiton receipt as they wish, with the knowledge that transferring the ERC721 obligaiton receipt tranfsers the rights right to pay back the loan and get the collateral back. A loan may end in one of two ways: - First, a borrower may call NFTfi.payBackLoan() and pay back the loan plus interest at any time, in which case they receive their NFT back in the same transaction. - Second, if the loan's duration has passed and the loan has not been paid back yet, a lender can call NFTfi.liquidateOverdueLoan(), in which case they receive the underlying NFT collateral and forfeit the rights to the principal-plus-interest, which the borrower now keeps.",
    "version": 1
  },
  "storageLayout": {
    "storage": [
      {
        "astId": 20389,
        "contract": "contracts/loans/direct/loanTypes/DirectLoanFixedCollectionOffer.sol:DirectLoanFixedCollectionOffer",
        "label": "_owner",
        "offset": 0,
        "slot": "0",
        "type": "t_address"
      },
      {
        "astId": 20391,
        "contract": "contracts/loans/direct/loanTypes/DirectLoanFixedCollectionOffer.sol:DirectLoanFixedCollectionOffer",
        "label": "_ownerCandidate",
        "offset": 0,
        "slot": "1",
        "type": "t_address"
      },
      {
        "astId": 595,
        "contract": "contracts/loans/direct/loanTypes/DirectLoanFixedCollectionOffer.sol:DirectLoanFixedCollectionOffer",
        "label": "_paused",
        "offset": 20,
        "slot": "1",
        "type": "t_bool"
      },
      {
        "astId": 696,
        "contract": "contracts/loans/direct/loanTypes/DirectLoanFixedCollectionOffer.sol:DirectLoanFixedCollectionOffer",
        "label": "_status",
        "offset": 0,
        "slot": "2",
        "type": "t_uint256"
      },
      {
        "astId": 10283,
        "contract": "contracts/loans/direct/loanTypes/DirectLoanFixedCollectionOffer.sol:DirectLoanFixedCollectionOffer",
        "label": "maximumLoanDuration",
        "offset": 0,
        "slot": "3",
        "type": "t_uint256"
      },
      {
        "astId": 10288,
        "contract": "contracts/loans/direct/loanTypes/DirectLoanFixedCollectionOffer.sol:DirectLoanFixedCollectionOffer",
        "label": "adminFeeInBasisPoints",
        "offset": 0,
        "slot": "4",
        "type": "t_uint16"
      },
      {
        "astId": 10295,
        "contract": "contracts/loans/direct/loanTypes/DirectLoanFixedCollectionOffer.sol:DirectLoanFixedCollectionOffer",
        "label": "loanIdToLoan",
        "offset": 0,
        "slot": "5",
        "type": "t_mapping(t_uint32,t_struct(LoanTerms)13733_storage)"
      },
      {
        "astId": 10300,
        "contract": "contracts/loans/direct/loanTypes/DirectLoanFixedCollectionOffer.sol:DirectLoanFixedCollectionOffer",
        "label": "loanIdToLoanExtras",
        "offset": 0,
        "slot": "6",
        "type": "t_mapping(t_uint32,t_struct(LoanExtras)13740_storage)"
      },
      {
        "astId": 10306,
        "contract": "contracts/loans/direct/loanTypes/DirectLoanFixedCollectionOffer.sol:DirectLoanFixedCollectionOffer",
        "label": "loanRepaidOrLiquidated",
        "offset": 0,
        "slot": "7",
        "type": "t_mapping(t_uint32,t_bool)"
      },
      {
        "astId": 10313,
        "contract": "contracts/loans/direct/loanTypes/DirectLoanFixedCollectionOffer.sol:DirectLoanFixedCollectionOffer",
        "label": "_escrowTokens",
        "offset": 0,
        "slot": "8",
        "type": "t_mapping(t_address,t_mapping(t_uint256,t_uint256))"
      },
      {
        "astId": 10318,
        "contract": "contracts/loans/direct/loanTypes/DirectLoanFixedCollectionOffer.sol:DirectLoanFixedCollectionOffer",
        "label": "_escrowErc20Tokens",
        "offset": 0,
        "slot": "9",
        "type": "t_mapping(t_address,t_uint256)"
      },
      {
        "astId": 10325,
        "contract": "contracts/loans/direct/loanTypes/DirectLoanFixedCollectionOffer.sol:DirectLoanFixedCollectionOffer",
        "label": "_payBackEscrow",
        "offset": 0,
        "slot": "10",
        "type": "t_mapping(t_address,t_mapping(t_address,t_uint256))"
      },
      {
        "astId": 10332,
        "contract": "contracts/loans/direct/loanTypes/DirectLoanFixedCollectionOffer.sol:DirectLoanFixedCollectionOffer",
        "label": "_nonceHasBeenUsedForUser",
        "offset": 0,
        "slot": "11",
        "type": "t_mapping(t_address,t_mapping(t_uint256,t_bool))"
      },
      {
        "astId": 10337,
        "contract": "contracts/loans/direct/loanTypes/DirectLoanFixedCollectionOffer.sol:DirectLoanFixedCollectionOffer",
        "label": "erc20Permits",
        "offset": 0,
        "slot": "12",
        "type": "t_mapping(t_address,t_bool)"
      }
    ],
    "types": {
      "t_address": {
        "encoding": "inplace",
        "label": "address",
        "numberOfBytes": "20"
      },
      "t_bool": {
        "encoding": "inplace",
        "label": "bool",
        "numberOfBytes": "1"
      },
      "t_mapping(t_address,t_bool)": {
        "encoding": "mapping",
        "key": "t_address",
        "label": "mapping(address => bool)",
        "numberOfBytes": "32",
        "value": "t_bool"
      },
      "t_mapping(t_address,t_mapping(t_address,t_uint256))": {
        "encoding": "mapping",
        "key": "t_address",
        "label": "mapping(address => mapping(address => uint256))",
        "numberOfBytes": "32",
        "value": "t_mapping(t_address,t_uint256)"
      },
      "t_mapping(t_address,t_mapping(t_uint256,t_bool))": {
        "encoding": "mapping",
        "key": "t_address",
        "label": "mapping(address => mapping(uint256 => bool))",
        "numberOfBytes": "32",
        "value": "t_mapping(t_uint256,t_bool)"
      },
      "t_mapping(t_address,t_mapping(t_uint256,t_uint256))": {
        "encoding": "mapping",
        "key": "t_address",
        "label": "mapping(address => mapping(uint256 => uint256))",
        "numberOfBytes": "32",
        "value": "t_mapping(t_uint256,t_uint256)"
      },
      "t_mapping(t_address,t_uint256)": {
        "encoding": "mapping",
        "key": "t_address",
        "label": "mapping(address => uint256)",
        "numberOfBytes": "32",
        "value": "t_uint256"
      },
      "t_mapping(t_uint256,t_bool)": {
        "encoding": "mapping",
        "key": "t_uint256",
        "label": "mapping(uint256 => bool)",
        "numberOfBytes": "32",
        "value": "t_bool"
      },
      "t_mapping(t_uint256,t_uint256)": {
        "encoding": "mapping",
        "key": "t_uint256",
        "label": "mapping(uint256 => uint256)",
        "numberOfBytes": "32",
        "value": "t_uint256"
      },
      "t_mapping(t_uint32,t_bool)": {
        "encoding": "mapping",
        "key": "t_uint32",
        "label": "mapping(uint32 => bool)",
        "numberOfBytes": "32",
        "value": "t_bool"
      },
      "t_mapping(t_uint32,t_struct(LoanExtras)13740_storage)": {
        "encoding": "mapping",
        "key": "t_uint32",
        "label": "mapping(uint32 => struct LoanData.LoanExtras)",
        "numberOfBytes": "32",
        "value": "t_struct(LoanExtras)13740_storage"
      },
      "t_mapping(t_uint32,t_struct(LoanTerms)13733_storage)": {
        "encoding": "mapping",
        "key": "t_uint32",
        "label": "mapping(uint32 => struct LoanData.LoanTerms)",
        "numberOfBytes": "32",
        "value": "t_struct(LoanTerms)13733_storage"
      },
      "t_struct(LoanExtras)13740_storage": {
        "encoding": "inplace",
        "label": "struct LoanData.LoanExtras",
        "members": [
          {
            "astId": 13735,
            "contract": "contracts/loans/direct/loanTypes/DirectLoanFixedCollectionOffer.sol:DirectLoanFixedCollectionOffer",
            "label": "revenueSharePartner",
            "offset": 0,
            "slot": "0",
            "type": "t_address"
          },
          {
            "astId": 13737,
            "contract": "contracts/loans/direct/loanTypes/DirectLoanFixedCollectionOffer.sol:DirectLoanFixedCollectionOffer",
            "label": "revenueShareInBasisPoints",
            "offset": 20,
            "slot": "0",
            "type": "t_uint16"
          },
          {
            "astId": 13739,
            "contract": "contracts/loans/direct/loanTypes/DirectLoanFixedCollectionOffer.sol:DirectLoanFixedCollectionOffer",
            "label": "referralFeeInBasisPoints",
            "offset": 22,
            "slot": "0",
            "type": "t_uint16"
          }
        ],
        "numberOfBytes": "32"
      },
      "t_struct(LoanTerms)13733_storage": {
        "encoding": "inplace",
        "label": "struct LoanData.LoanTerms",
        "members": [
          {
            "astId": 13712,
            "contract": "contracts/loans/direct/loanTypes/DirectLoanFixedCollectionOffer.sol:DirectLoanFixedCollectionOffer",
            "label": "loanPrincipalAmount",
            "offset": 0,
            "slot": "0",
            "type": "t_uint256"
          },
          {
            "astId": 13714,
            "contract": "contracts/loans/direct/loanTypes/DirectLoanFixedCollectionOffer.sol:DirectLoanFixedCollectionOffer",
            "label": "maximumRepaymentAmount",
            "offset": 0,
            "slot": "1",
            "type": "t_uint256"
          },
          {
            "astId": 13716,
            "contract": "contracts/loans/direct/loanTypes/DirectLoanFixedCollectionOffer.sol:DirectLoanFixedCollectionOffer",
            "label": "nftCollateralId",
            "offset": 0,
            "slot": "2",
            "type": "t_uint256"
          },
          {
            "astId": 13718,
            "contract": "contracts/loans/direct/loanTypes/DirectLoanFixedCollectionOffer.sol:DirectLoanFixedCollectionOffer",
            "label": "loanERC20Denomination",
            "offset": 0,
            "slot": "3",
            "type": "t_address"
          },
          {
            "astId": 13720,
            "contract": "contracts/loans/direct/loanTypes/DirectLoanFixedCollectionOffer.sol:DirectLoanFixedCollectionOffer",
            "label": "loanDuration",
            "offset": 20,
            "slot": "3",
            "type": "t_uint32"
          },
          {
            "astId": 13722,
            "contract": "contracts/loans/direct/loanTypes/DirectLoanFixedCollectionOffer.sol:DirectLoanFixedCollectionOffer",
            "label": "loanInterestRateForDurationInBasisPoints",
            "offset": 24,
            "slot": "3",
            "type": "t_uint16"
          },
          {
            "astId": 13724,
            "contract": "contracts/loans/direct/loanTypes/DirectLoanFixedCollectionOffer.sol:DirectLoanFixedCollectionOffer",
            "label": "loanAdminFeeInBasisPoints",
            "offset": 26,
            "slot": "3",
            "type": "t_uint16"
          },
          {
            "astId": 13726,
            "contract": "contracts/loans/direct/loanTypes/DirectLoanFixedCollectionOffer.sol:DirectLoanFixedCollectionOffer",
            "label": "nftCollateralWrapper",
            "offset": 0,
            "slot": "4",
            "type": "t_address"
          },
          {
            "astId": 13728,
            "contract": "contracts/loans/direct/loanTypes/DirectLoanFixedCollectionOffer.sol:DirectLoanFixedCollectionOffer",
            "label": "loanStartTime",
            "offset": 20,
            "slot": "4",
            "type": "t_uint64"
          },
          {
            "astId": 13730,
            "contract": "contracts/loans/direct/loanTypes/DirectLoanFixedCollectionOffer.sol:DirectLoanFixedCollectionOffer",
            "label": "nftCollateralContract",
            "offset": 0,
            "slot": "5",
            "type": "t_address"
          },
          {
            "astId": 13732,
            "contract": "contracts/loans/direct/loanTypes/DirectLoanFixedCollectionOffer.sol:DirectLoanFixedCollectionOffer",
            "label": "borrower",
            "offset": 0,
            "slot": "6",
            "type": "t_address"
          }
        ],
        "numberOfBytes": "224"
      },
      "t_uint16": {
        "encoding": "inplace",
        "label": "uint16",
        "numberOfBytes": "2"
      },
      "t_uint256": {
        "encoding": "inplace",
        "label": "uint256",
        "numberOfBytes": "32"
      },
      "t_uint32": {
        "encoding": "inplace",
        "label": "uint32",
        "numberOfBytes": "4"
      },
      "t_uint64": {
        "encoding": "inplace",
        "label": "uint64",
        "numberOfBytes": "8"
      }
    }
  }
}