{
  "address": "0xe7F7e7Fe7Dd47322693C415fEdd003Ac12c43f70",
  "abi": [
    {
      "inputs": [
        {
          "internalType": "address",
          "name": "to",
          "type": "address"
        },
        {
          "internalType": "address",
          "name": "nftContract",
          "type": "address"
        },
        {
          "internalType": "uint256",
          "name": "tokenId",
          "type": "uint256"
        }
      ],
      "name": "approveNFT",
      "outputs": [
        {
          "internalType": "bool",
          "name": "",
          "type": "bool"
        }
      ],
      "stateMutability": "nonpayable",
      "type": "function"
    },
    {
      "inputs": [
        {
          "internalType": "address",
          "name": "_owner",
          "type": "address"
        },
        {
          "internalType": "address",
          "name": "_nftContract",
          "type": "address"
        },
        {
          "internalType": "uint256",
          "name": "_tokenId",
          "type": "uint256"
        }
      ],
      "name": "isOwner",
      "outputs": [
        {
          "internalType": "bool",
          "name": "",
          "type": "bool"
        }
      ],
      "stateMutability": "view",
      "type": "function"
    },
    {
      "inputs": [
        {
          "internalType": "address",
          "name": "_sender",
          "type": "address"
        },
        {
          "internalType": "address",
          "name": "_recipient",
          "type": "address"
        },
        {
          "internalType": "address",
          "name": "_nftContract",
          "type": "address"
        },
        {
          "internalType": "uint256",
          "name": "_nftId",
          "type": "uint256"
        }
      ],
      "name": "transferNFT",
      "outputs": [
        {
          "internalType": "bool",
          "name": "",
          "type": "bool"
        }
      ],
      "stateMutability": "nonpayable",
      "type": "function"
    }
  ],
  "transactionHash": "0xee144e02f05e8c496a0e28106ebdf85e6df8d3c233f8ff66cced732b70d419e2",
  "args": [],
  "numDeployments": 2,
  "solcInputHash": "6a433a122138320e8af0b7baaa609789",
  "bytecode": "0x608060405234801561001057600080fd5b506102e4806100206000396000f3fe608060405234801561001057600080fd5b50600436106100415760003560e01c80637336aaf014610046578063b03066711461006d578063f370e8c514610080575b600080fd5b610059610054366004610221565b610093565b604051901515815260200160405180910390f35b61005961007b366004610262565b610103565b61005961008e366004610221565b61017c565b60405163095ea7b360e01b81526001600160a01b038481166004830152602482018390526000919084169063095ea7b390604401600060405180830381600087803b1580156100e157600080fd5b505af11580156100f5573d6000803e3d6000fd5b506001979650505050505050565b6040516323b872dd60e01b81526001600160a01b038581166004830152848116602483015260448201839052600091908416906323b872dd90606401600060405180830381600087803b15801561015957600080fd5b505af115801561016d573d6000803e3d6000fd5b50600198975050505050505050565b6000836001600160a01b0316836001600160a01b0316636352211e846040518263ffffffff1660e01b81526004016101b691815260200190565b602060405180830381865afa1580156101d3573d6000803e3d6000fd5b505050506040513d601f19601f820116820180604052508101906101f791906102b3565b6001600160a01b031614949350505050565b6001600160a01b038116811461021e57600080fd5b50565b60008060006060848603121561023657600080fd5b833561024181610209565b9250602084013561025181610209565b929592945050506040919091013590565b6000806000806080858703121561027857600080fd5b843561028381610209565b9350602085013561029381610209565b925060408501356102a381610209565b9396929550929360600135925050565b6000602082840312156102c557600080fd5b81516102d081610209565b939250505056fea164736f6c6343000813000a",
  "devdoc": {
    "author": "NFTfi",
    "details": "Provides logic to transfer ERC721, uses regular transferFrom instead of safe",
    "kind": "dev",
    "methods": {
      "transferNFT(address,address,address,uint256)": {
        "details": "Transfers ERC721 `_nftId` handled by the contract `_nftContract` from `_sender` to `_recipient`",
        "params": {
          "_nftContract": "- ERC721 contract",
          "_nftId": "- ERC721 id",
          "_recipient": "- The new owner of the ERC721",
          "_sender": "- The current owner of the ERC721"
        },
        "returns": {
          "_0": "true if successfully transferred, false otherwise"
        }
      }
    },
    "title": "ERC721LegacyWrapper",
    "version": 1
  },
  "userdoc": {
    "kind": "user",
    "methods": {},
    "version": 1
  },
  "storageLayout": {
    "storage": [],
    "types": null
  }
}