{
  "address": "0xDeE9b6E2f1aa9c14214d87d2911f3550ef1A87bB",
  "abi": [
    {
      "inputs": [
        {
          "internalType": "address",
          "name": "_admin",
          "type": "address"
        },
        {
          "internalType": "address",
          "name": "_nftfiHub",
          "type": "address"
        },
        {
          "internalType": "address",
          "name": "_loanCoordinator",
          "type": "address"
        },
        {
          "internalType": "string",
          "name": "_name",
          "type": "string"
        },
        {
          "internalType": "string",
          "name": "_symbol",
          "type": "string"
        },
        {
          "internalType": "string",
          "name": "_customBaseURI",
          "type": "string"
        }
      ],
      "stateMutability": "nonpayable",
      "type": "constructor"
    },
    {
      "anonymous": false,
      "inputs": [
        {
          "indexed": true,
          "internalType": "address",
          "name": "owner",
          "type": "address"
        },
        {
          "indexed": true,
          "internalType": "address",
          "name": "approved",
          "type": "address"
        },
        {
          "indexed": true,
          "internalType": "uint256",
          "name": "tokenId",
          "type": "uint256"
        }
      ],
      "name": "Approval",
      "type": "event"
    },
    {
      "anonymous": false,
      "inputs": [
        {
          "indexed": true,
          "internalType": "address",
          "name": "owner",
          "type": "address"
        },
        {
          "indexed": true,
          "internalType": "address",
          "name": "operator",
          "type": "address"
        },
        {
          "indexed": false,
          "internalType": "bool",
          "name": "approved",
          "type": "bool"
        }
      ],
      "name": "ApprovalForAll",
      "type": "event"
    },
    {
      "anonymous": false,
      "inputs": [
        {
          "indexed": true,
          "internalType": "bytes32",
          "name": "role",
          "type": "bytes32"
        },
        {
          "indexed": true,
          "internalType": "bytes32",
          "name": "previousAdminRole",
          "type": "bytes32"
        },
        {
          "indexed": true,
          "internalType": "bytes32",
          "name": "newAdminRole",
          "type": "bytes32"
        }
      ],
      "name": "RoleAdminChanged",
      "type": "event"
    },
    {
      "anonymous": false,
      "inputs": [
        {
          "indexed": true,
          "internalType": "bytes32",
          "name": "role",
          "type": "bytes32"
        },
        {
          "indexed": true,
          "internalType": "address",
          "name": "account",
          "type": "address"
        },
        {
          "indexed": true,
          "internalType": "address",
          "name": "sender",
          "type": "address"
        }
      ],
      "name": "RoleGranted",
      "type": "event"
    },
    {
      "anonymous": false,
      "inputs": [
        {
          "indexed": true,
          "internalType": "bytes32",
          "name": "role",
          "type": "bytes32"
        },
        {
          "indexed": true,
          "internalType": "address",
          "name": "account",
          "type": "address"
        },
        {
          "indexed": true,
          "internalType": "address",
          "name": "sender",
          "type": "address"
        }
      ],
      "name": "RoleRevoked",
      "type": "event"
    },
    {
      "anonymous": false,
      "inputs": [
        {
          "indexed": true,
          "internalType": "address",
          "name": "from",
          "type": "address"
        },
        {
          "indexed": true,
          "internalType": "address",
          "name": "to",
          "type": "address"
        },
        {
          "indexed": true,
          "internalType": "uint256",
          "name": "tokenId",
          "type": "uint256"
        }
      ],
      "name": "Transfer",
      "type": "event"
    },
    {
      "inputs": [],
      "name": "BASE_URI_ROLE",
      "outputs": [
        {
          "internalType": "bytes32",
          "name": "",
          "type": "bytes32"
        }
      ],
      "stateMutability": "view",
      "type": "function"
    },
    {
      "inputs": [],
      "name": "DEFAULT_ADMIN_ROLE",
      "outputs": [
        {
          "internalType": "bytes32",
          "name": "",
          "type": "bytes32"
        }
      ],
      "stateMutability": "view",
      "type": "function"
    },
    {
      "inputs": [],
      "name": "LOAN_COORDINATOR_ROLE",
      "outputs": [
        {
          "internalType": "bytes32",
          "name": "",
          "type": "bytes32"
        }
      ],
      "stateMutability": "view",
      "type": "function"
    },
    {
      "inputs": [
        {
          "internalType": "address",
          "name": "to",
          "type": "address"
        },
        {
          "internalType": "uint256",
          "name": "tokenId",
          "type": "uint256"
        }
      ],
      "name": "approve",
      "outputs": [],
      "stateMutability": "nonpayable",
      "type": "function"
    },
    {
      "inputs": [
        {
          "internalType": "address",
          "name": "owner",
          "type": "address"
        }
      ],
      "name": "balanceOf",
      "outputs": [
        {
          "internalType": "uint256",
          "name": "",
          "type": "uint256"
        }
      ],
      "stateMutability": "view",
      "type": "function"
    },
    {
      "inputs": [],
      "name": "baseURI",
      "outputs": [
        {
          "internalType": "string",
          "name": "",
          "type": "string"
        }
      ],
      "stateMutability": "view",
      "type": "function"
    },
    {
      "inputs": [
        {
          "internalType": "uint256",
          "name": "_tokenId",
          "type": "uint256"
        }
      ],
      "name": "burn",
      "outputs": [],
      "stateMutability": "nonpayable",
      "type": "function"
    },
    {
      "inputs": [
        {
          "internalType": "uint256",
          "name": "_tokenId",
          "type": "uint256"
        }
      ],
      "name": "exists",
      "outputs": [
        {
          "internalType": "bool",
          "name": "",
          "type": "bool"
        }
      ],
      "stateMutability": "view",
      "type": "function"
    },
    {
      "inputs": [
        {
          "internalType": "uint256",
          "name": "tokenId",
          "type": "uint256"
        }
      ],
      "name": "getApproved",
      "outputs": [
        {
          "internalType": "address",
          "name": "",
          "type": "address"
        }
      ],
      "stateMutability": "view",
      "type": "function"
    },
    {
      "inputs": [
        {
          "internalType": "bytes32",
          "name": "role",
          "type": "bytes32"
        }
      ],
      "name": "getRoleAdmin",
      "outputs": [
        {
          "internalType": "bytes32",
          "name": "",
          "type": "bytes32"
        }
      ],
      "stateMutability": "view",
      "type": "function"
    },
    {
      "inputs": [
        {
          "internalType": "bytes32",
          "name": "role",
          "type": "bytes32"
        },
        {
          "internalType": "address",
          "name": "account",
          "type": "address"
        }
      ],
      "name": "grantRole",
      "outputs": [],
      "stateMutability": "nonpayable",
      "type": "function"
    },
    {
      "inputs": [
        {
          "internalType": "bytes32",
          "name": "role",
          "type": "bytes32"
        },
        {
          "internalType": "address",
          "name": "account",
          "type": "address"
        }
      ],
      "name": "hasRole",
      "outputs": [
        {
          "internalType": "bool",
          "name": "",
          "type": "bool"
        }
      ],
      "stateMutability": "view",
      "type": "function"
    },
    {
      "inputs": [],
      "name": "hub",
      "outputs": [
        {
          "internalType": "contract INftfiHub",
          "name": "",
          "type": "address"
        }
      ],
      "stateMutability": "view",
      "type": "function"
    },
    {
      "inputs": [
        {
          "internalType": "address",
          "name": "owner",
          "type": "address"
        },
        {
          "internalType": "address",
          "name": "operator",
          "type": "address"
        }
      ],
      "name": "isApprovedForAll",
      "outputs": [
        {
          "internalType": "bool",
          "name": "",
          "type": "bool"
        }
      ],
      "stateMutability": "view",
      "type": "function"
    },
    {
      "inputs": [
        {
          "internalType": "uint256",
          "name": "",
          "type": "uint256"
        }
      ],
      "name": "loans",
      "outputs": [
        {
          "internalType": "address",
          "name": "loanCoordinator",
          "type": "address"
        },
        {
          "internalType": "uint256",
          "name": "loanId",
          "type": "uint256"
        }
      ],
      "stateMutability": "view",
      "type": "function"
    },
    {
      "inputs": [
        {
          "internalType": "address",
          "name": "_to",
          "type": "address"
        },
        {
          "internalType": "uint256",
          "name": "_tokenId",
          "type": "uint256"
        },
        {
          "internalType": "bytes",
          "name": "_data",
          "type": "bytes"
        }
      ],
      "name": "mint",
      "outputs": [],
      "stateMutability": "nonpayable",
      "type": "function"
    },
    {
      "inputs": [],
      "name": "name",
      "outputs": [
        {
          "internalType": "string",
          "name": "",
          "type": "string"
        }
      ],
      "stateMutability": "view",
      "type": "function"
    },
    {
      "inputs": [
        {
          "internalType": "uint256",
          "name": "tokenId",
          "type": "uint256"
        }
      ],
      "name": "ownerOf",
      "outputs": [
        {
          "internalType": "address",
          "name": "",
          "type": "address"
        }
      ],
      "stateMutability": "view",
      "type": "function"
    },
    {
      "inputs": [
        {
          "internalType": "bytes32",
          "name": "role",
          "type": "bytes32"
        },
        {
          "internalType": "address",
          "name": "account",
          "type": "address"
        }
      ],
      "name": "renounceRole",
      "outputs": [],
      "stateMutability": "nonpayable",
      "type": "function"
    },
    {
      "inputs": [
        {
          "internalType": "bytes32",
          "name": "role",
          "type": "bytes32"
        },
        {
          "internalType": "address",
          "name": "account",
          "type": "address"
        }
      ],
      "name": "revokeRole",
      "outputs": [],
      "stateMutability": "nonpayable",
      "type": "function"
    },
    {
      "inputs": [
        {
          "internalType": "address",
          "name": "from",
          "type": "address"
        },
        {
          "internalType": "address",
          "name": "to",
          "type": "address"
        },
        {
          "internalType": "uint256",
          "name": "tokenId",
          "type": "uint256"
        }
      ],
      "name": "safeTransferFrom",
      "outputs": [],
      "stateMutability": "nonpayable",
      "type": "function"
    },
    {
      "inputs": [
        {
          "internalType": "address",
          "name": "from",
          "type": "address"
        },
        {
          "internalType": "address",
          "name": "to",
          "type": "address"
        },
        {
          "internalType": "uint256",
          "name": "tokenId",
          "type": "uint256"
        },
        {
          "internalType": "bytes",
          "name": "data",
          "type": "bytes"
        }
      ],
      "name": "safeTransferFrom",
      "outputs": [],
      "stateMutability": "nonpayable",
      "type": "function"
    },
    {
      "inputs": [
        {
          "internalType": "address",
          "name": "operator",
          "type": "address"
        },
        {
          "internalType": "bool",
          "name": "approved",
          "type": "bool"
        }
      ],
      "name": "setApprovalForAll",
      "outputs": [],
      "stateMutability": "nonpayable",
      "type": "function"
    },
    {
      "inputs": [
        {
          "internalType": "string",
          "name": "_customBaseURI",
          "type": "string"
        }
      ],
      "name": "setBaseURI",
      "outputs": [],
      "stateMutability": "nonpayable",
      "type": "function"
    },
    {
      "inputs": [
        {
          "internalType": "address",
          "name": "_account",
          "type": "address"
        }
      ],
      "name": "setLoanCoordinator",
      "outputs": [],
      "stateMutability": "nonpayable",
      "type": "function"
    },
    {
      "inputs": [
        {
          "internalType": "bytes4",
          "name": "_interfaceId",
          "type": "bytes4"
        }
      ],
      "name": "supportsInterface",
      "outputs": [
        {
          "internalType": "bool",
          "name": "",
          "type": "bool"
        }
      ],
      "stateMutability": "view",
      "type": "function"
    },
    {
      "inputs": [],
      "name": "symbol",
      "outputs": [
        {
          "internalType": "string",
          "name": "",
          "type": "string"
        }
      ],
      "stateMutability": "view",
      "type": "function"
    },
    {
      "inputs": [
        {
          "internalType": "uint256",
          "name": "tokenId",
          "type": "uint256"
        }
      ],
      "name": "tokenURI",
      "outputs": [
        {
          "internalType": "string",
          "name": "",
          "type": "string"
        }
      ],
      "stateMutability": "view",
      "type": "function"
    },
    {
      "inputs": [
        {
          "internalType": "address",
          "name": "from",
          "type": "address"
        },
        {
          "internalType": "address",
          "name": "to",
          "type": "address"
        },
        {
          "internalType": "uint256",
          "name": "tokenId",
          "type": "uint256"
        }
      ],
      "name": "transferFrom",
      "outputs": [],
      "stateMutability": "nonpayable",
      "type": "function"
    }
  ],
  "transactionHash": "0x13fe995761b936e9606b7eafa41cc8ddb4b9d8a199620fef9307a25833f74b3e",
  "args": [
    "0x42e0911810C50FF07B12305365495aeb0b2b4f93",
    "0x4308664397Fa0E7A0eC8f96deFfa0E59D27683eF",
    "0x19579eA6C8164Ff6E7699FC6e9D81Af80761d2f9",
    "NFTfi Obligation Receipt",
    "ORNFI",
    "https://metadata.nftfi.com/loans/v2/obligation/"
  ],
  "numDeployments": 1,
  "solcInputHash": "103c7252f85cc80233118bf16e4e3c05",
  "bytecode": "0x60a06040523480156200001157600080fd5b50604051620025743803806200257483398101604081905262000034916200045e565b82826000620000448382620005b6565b506001620000538282620005b6565b506200006591506000905087620000df565b620000917ff372640890c51dda497431936a65d3bb1ddf67b1c27cd6cdf578ce883c4f5c3687620000df565b620000bd7f0152ff3abcd076e5909dae88c15988bc9c69e3f026f3af132517ce02b1e7920e85620000df565b620000c881620000ef565b505050506001600160a01b031660805250620006c1565b620000eb82826200014d565b5050565b60008151116200010f57604051806020016040528060008152506200013e565b806200011b46620001f1565b6040516020016200012e92919062000682565b6040516020818303038152906040525b600890620000eb9082620005b6565b60008281526006602090815260408083206001600160a01b038516845290915290205460ff16620000eb5760008281526006602090815260408083206001600160a01b03851684529091529020805460ff19166001179055620001ad3390565b6001600160a01b0316816001600160a01b0316837f2f8788117e7eff1d82e926ec794901d17c78024a50270940304540a733656f0d60405160405180910390a45050565b6060600062000200836200028a565b60010190506000816001600160401b0381111562000222576200022262000391565b6040519080825280601f01601f1916602001820160405280156200024d576020820181803683370190505b5090508181016020015b600019016f181899199a1a9b1b9c1cb0b131b232b360811b600a86061a8153600a85049450846200025757509392505050565b6000807a184f03e93ff9f4daa797ed6e38ed64bf6a1f0100000000000000008310620002d4577a184f03e93ff9f4daa797ed6e38ed64bf6a1f010000000000000000830492506040015b6d04ee2d6d415b85acef8100000000831062000301576d04ee2d6d415b85acef8100000000830492506020015b662386f26fc1000083106200032057662386f26fc10000830492506010015b6305f5e100831062000339576305f5e100830492506008015b61271083106200034e57612710830492506004015b6064831062000361576064830492506002015b600a83106200036e576001015b92915050565b80516001600160a01b03811681146200038c57600080fd5b919050565b634e487b7160e01b600052604160045260246000fd5b60005b83811015620003c4578181015183820152602001620003aa565b50506000910152565b600082601f830112620003df57600080fd5b81516001600160401b0380821115620003fc57620003fc62000391565b604051601f8301601f19908116603f0116810190828211818310171562000427576200042762000391565b816040528381528660208588010111156200044157600080fd5b62000454846020830160208901620003a7565b9695505050505050565b60008060008060008060c087890312156200047857600080fd5b620004838762000374565b9550620004936020880162000374565b9450620004a36040880162000374565b60608801519094506001600160401b0380821115620004c157600080fd5b620004cf8a838b01620003cd565b94506080890151915080821115620004e657600080fd5b620004f48a838b01620003cd565b935060a08901519150808211156200050b57600080fd5b506200051a89828a01620003cd565b9150509295509295509295565b600181811c908216806200053c57607f821691505b6020821081036200055d57634e487b7160e01b600052602260045260246000fd5b50919050565b601f821115620005b157600081815260208120601f850160051c810160208610156200058c5750805b601f850160051c820191505b81811015620005ad5782815560010162000598565b5050505b505050565b81516001600160401b03811115620005d257620005d262000391565b620005ea81620005e3845462000527565b8462000563565b602080601f831160018114620006225760008415620006095750858301515b600019600386901b1c1916600185901b178555620005ad565b600085815260208120601f198616915b82811015620006535788860151825594840194600190910190840162000632565b5085821015620006725787850151600019600388901b60f8161c191681555b5050505050600190811b01905550565b6000835162000696818460208801620003a7565b835190830190620006ac818360208801620003a7565b602f60f81b9101908152600101949350505050565b608051611e97620006dd60003960006102800152611e976000f3fe608060405234801561001057600080fd5b506004361061018f5760003560e01c80636c0360eb116100e4578063b88d4fde11610092578063b88d4fde14610365578063bdadce3c14610378578063c87b56dd1461039f578063c9836cdb146103b2578063d2710e2c146103c7578063d547741f146103da578063e1ec3c68146103ed578063e985e9c51461043f57600080fd5b80636c0360eb1461030157806370a082311461030957806391d148541461031c57806394d008ef1461032f57806395d89b4114610342578063a217fddf1461034a578063a22cb4651461035257600080fd5b806336568abe1161014157806336568abe14610268578063365a86fc1461027b57806342842e0e146102a257806342966c68146102b55780634f558e79146102c857806355f804b3146102db5780636352211e146102ee57600080fd5b806301ffc9a71461019457806306fdde03146101bc578063081812fc146101d1578063095ea7b3146101fc57806323b872dd14610211578063248a9ca3146102245780632f2ff15d14610255575b600080fd5b6101a76101a2366004611682565b610452565b60405190151581526020015b60405180910390f35b6101c4610463565b6040516101b391906116ef565b6101e46101df366004611702565b6104f5565b6040516001600160a01b0390911681526020016101b3565b61020f61020a366004611737565b61051c565b005b61020f61021f366004611761565b610636565b610247610232366004611702565b60009081526006602052604090206001015490565b6040519081526020016101b3565b61020f61026336600461179d565b610667565b61020f61027636600461179d565b61068c565b6101e47f000000000000000000000000000000000000000000000000000000000000000081565b61020f6102b0366004611761565b61070a565b61020f6102c3366004611702565b610725565b6101a76102d6366004611702565b610746565b61020f6102e9366004611854565b610751565b6101e46102fc366004611702565b610784565b6101c46107b9565b61024761031736600461189c565b610847565b6101a761032a36600461179d565b6108cd565b61020f61033d3660046118b7565b6108f8565b6101c46109f4565b610247600081565b61020f61036036600461193d565b610a03565b61020f610373366004611979565b610a0e565b6102477ff372640890c51dda497431936a65d3bb1ddf67b1c27cd6cdf578ce883c4f5c3681565b6101c46103ad366004611702565b610a46565b610247600080516020611e6b83398151915281565b61020f6103d536600461189c565b610aad565b61020f6103e836600461179d565b610ac8565b6104206103fb366004611702565b600760205260009081526040902080546001909101546001600160a01b039091169082565b604080516001600160a01b0390931683526020830191909152016101b3565b6101a761044d3660046119f4565b610aed565b600061045d82610b1b565b92915050565b60606000805461047290611a1e565b80601f016020809104026020016040519081016040528092919081815260200182805461049e90611a1e565b80156104eb5780601f106104c0576101008083540402835291602001916104eb565b820191906000526020600020905b8154815290600101906020018083116104ce57829003601f168201915b5050505050905090565b600061050082610b40565b506000908152600460205260409020546001600160a01b031690565b600061052782610784565b9050806001600160a01b0316836001600160a01b0316036105995760405162461bcd60e51b815260206004820152602160248201527f4552433732313a20617070726f76616c20746f2063757272656e74206f776e656044820152603960f91b60648201526084015b60405180910390fd5b336001600160a01b03821614806105b557506105b58133610aed565b6106275760405162461bcd60e51b815260206004820152603d60248201527f4552433732313a20617070726f76652063616c6c6572206973206e6f7420746f60448201527f6b656e206f776e6572206f7220617070726f76656420666f7220616c6c0000006064820152608401610590565b6106318383610b65565b505050565b6106403382610bd3565b61065c5760405162461bcd60e51b815260040161059090611a58565b610631838383610c32565b60008281526006602052604090206001015461068281610d84565b6106318383610d8e565b6001600160a01b03811633146106fc5760405162461bcd60e51b815260206004820152602f60248201527f416363657373436f6e74726f6c3a2063616e206f6e6c792072656e6f756e636560448201526e103937b632b9903337b91039b2b63360891b6064820152608401610590565b6107068282610e14565b5050565b61063183838360405180602001604052806000815250610a0e565b600080516020611e6b83398151915261073d81610d84565b61070682610e7b565b600061045d82610efe565b7ff372640890c51dda497431936a65d3bb1ddf67b1c27cd6cdf578ce883c4f5c3661077b81610d84565b61070682610f1b565b6000818152600260205260408120546001600160a01b03168061045d5760405162461bcd60e51b815260040161059090611aa5565b600880546107c690611a1e565b80601f01602080910402602001604051908101604052809291908181526020018280546107f290611a1e565b801561083f5780601f106108145761010080835404028352916020019161083f565b820191906000526020600020905b81548152906001019060200180831161082257829003601f168201915b505050505081565b60006001600160a01b0382166108b15760405162461bcd60e51b815260206004820152602960248201527f4552433732313a2061646472657373207a65726f206973206e6f7420612076616044820152683634b21037bbb732b960b91b6064820152608401610590565b506001600160a01b031660009081526003602052604090205490565b60009182526006602090815260408084206001600160a01b0393909316845291905290205460ff1690565b600080516020611e6b83398151915261091081610d84565b816109585760405162461bcd60e51b815260206004820152601860248201527719185d18481b5d5cdd0818dbdb9d185a5b881b1bd85b925960421b6044820152606401610590565b600061096683850185611702565b604080518082018252338152602080820184815260008a815260078352849020925183546001600160a01b0319166001600160a01b03909116178355516001909201919091558151601f87018290048202810182019092528582529192506109ec91889188918890889081908401838280828437600092019190915250610f7192505050565b505050505050565b60606001805461047290611a1e565b610706338383610fa4565b610a183383610bd3565b610a345760405162461bcd60e51b815260040161059090611a58565b610a408484848461106e565b50505050565b6060610a5182610b40565b6000610a5b6110a1565b90506000815111610a7b5760405180602001604052806000815250610aa6565b80610a85846110b0565b604051602001610a96929190611ad7565b6040516020818303038152906040525b9392505050565b610ac5600080516020611e6b83398151915282610667565b50565b600082815260066020526040902060010154610ae381610d84565b6106318383610e14565b6001600160a01b03918216600090815260056020908152604080832093909416825291909152205460ff1690565b60006001600160e01b03198216637965db0b60e01b148061045d575061045d82611142565b610b4981610efe565b610ac55760405162461bcd60e51b815260040161059090611aa5565b600081815260046020526040902080546001600160a01b0319166001600160a01b0384169081179091558190610b9a82610784565b6001600160a01b03167f8c5be1e5ebec7d5bd14f71427d1e84f3dd0314c0f7b2291e5b200ac8c7c3b92560405160405180910390a45050565b600080610bdf83610784565b9050806001600160a01b0316846001600160a01b03161480610c065750610c068185610aed565b80610c2a5750836001600160a01b0316610c1f846104f5565b6001600160a01b0316145b949350505050565b826001600160a01b0316610c4582610784565b6001600160a01b031614610c6b5760405162461bcd60e51b815260040161059090611b06565b6001600160a01b038216610ccd5760405162461bcd60e51b8152602060048201526024808201527f4552433732313a207472616e7366657220746f20746865207a65726f206164646044820152637265737360e01b6064820152608401610590565b826001600160a01b0316610ce082610784565b6001600160a01b031614610d065760405162461bcd60e51b815260040161059090611b06565b600081815260046020908152604080832080546001600160a01b03199081169091556001600160a01b038781168086526003855283862080546000190190559087168086528386208054600101905586865260029094528285208054909216841790915590518493600080516020611e4b83398151915291a4505050565b610ac58133611192565b610d9882826108cd565b6107065760008281526006602090815260408083206001600160a01b03851684529091529020805460ff19166001179055610dd03390565b6001600160a01b0316816001600160a01b0316837f2f8788117e7eff1d82e926ec794901d17c78024a50270940304540a733656f0d60405160405180910390a45050565b610e1e82826108cd565b156107065760008281526006602090815260408083206001600160a01b0385168085529252808320805460ff1916905551339285917ff6391f5c32d9c69d2a47ea670b442974b53935d1edc7fd64eb21e047a839171b9190a45050565b6000610e8682610784565b9050610e9182610784565b600083815260046020908152604080832080546001600160a01b03199081169091556001600160a01b038516808552600384528285208054600019019055878552600290935281842080549091169055519293508492600080516020611e4b833981519152908390a45050565b6000908152600260205260409020546001600160a01b0316151590565b6000815111610f395760405180602001604052806000815250610f64565b80610f43466110b0565b604051602001610f54929190611b4b565b6040516020818303038152906040525b6008906107069082611bcc565b610f7b83836111eb565b610f8860008484846112e6565b6106315760405162461bcd60e51b815260040161059090611c8b565b816001600160a01b0316836001600160a01b0316036110015760405162461bcd60e51b815260206004820152601960248201527822a9219b99189d1030b8383937bb32903a379031b0b63632b960391b6044820152606401610590565b6001600160a01b03838116600081815260056020908152604080832094871680845294825291829020805460ff191686151590811790915591519182527f17307eab39ab6107e8899845ad3d59bd9653f200f220920489ca2b5937696c31910160405180910390a3505050565b611079848484610c32565b611085848484846112e6565b610a405760405162461bcd60e51b815260040161059090611c8b565b60606008805461047290611a1e565b606060006110bd836113e7565b60010190506000816001600160401b038111156110dc576110dc6117c9565b6040519080825280601f01601f191660200182016040528015611106576020820181803683370190505b5090508181016020015b600019016f181899199a1a9b1b9c1cb0b131b232b360811b600a86061a8153600a850494508461111057509392505050565b60006001600160e01b031982166380ac58cd60e01b148061117357506001600160e01b03198216635b5e139f60e01b145b8061045d57506301ffc9a760e01b6001600160e01b031983161461045d565b61119c82826108cd565b610706576111a9816114bf565b6111b48360206114d1565b6040516020016111c5929190611cdd565b60408051601f198184030181529082905262461bcd60e51b8252610590916004016116ef565b6001600160a01b0382166112415760405162461bcd60e51b815260206004820181905260248201527f4552433732313a206d696e7420746f20746865207a65726f20616464726573736044820152606401610590565b61124a81610efe565b156112675760405162461bcd60e51b815260040161059090611d4c565b61127081610efe565b1561128d5760405162461bcd60e51b815260040161059090611d4c565b6001600160a01b038216600081815260036020908152604080832080546001019055848352600290915280822080546001600160a01b031916841790555183929190600080516020611e4b833981519152908290a45050565b60006001600160a01b0384163b156113dc57604051630a85bd0160e11b81526001600160a01b0385169063150b7a029061132a903390899088908890600401611d83565b6020604051808303816000875af1925050508015611365575060408051601f3d908101601f1916820190925261136291810190611dc0565b60015b6113c2573d808015611393576040519150601f19603f3d011682016040523d82523d6000602084013e611398565b606091505b5080516000036113ba5760405162461bcd60e51b815260040161059090611c8b565b805181602001fd5b6001600160e01b031916630a85bd0160e11b149050610c2a565b506001949350505050565b60008072184f03e93ff9f4daa797ed6e38ed64bf6a1f0160401b83106114265772184f03e93ff9f4daa797ed6e38ed64bf6a1f0160401b830492506040015b6d04ee2d6d415b85acef81000000008310611452576d04ee2d6d415b85acef8100000000830492506020015b662386f26fc10000831061147057662386f26fc10000830492506010015b6305f5e1008310611488576305f5e100830492506008015b612710831061149c57612710830492506004015b606483106114ae576064830492506002015b600a831061045d5760010192915050565b606061045d6001600160a01b03831660145b606060006114e0836002611df3565b6114eb906002611e0a565b6001600160401b03811115611502576115026117c9565b6040519080825280601f01601f19166020018201604052801561152c576020820181803683370190505b509050600360fc1b8160008151811061154757611547611e1d565b60200101906001600160f81b031916908160001a905350600f60fb1b8160018151811061157657611576611e1d565b60200101906001600160f81b031916908160001a905350600061159a846002611df3565b6115a5906001611e0a565b90505b600181111561161d576f181899199a1a9b1b9c1cb0b131b232b360811b85600f16601081106115d9576115d9611e1d565b1a60f81b8282815181106115ef576115ef611e1d565b60200101906001600160f81b031916908160001a90535060049490941c9361161681611e33565b90506115a8565b508315610aa65760405162461bcd60e51b815260206004820181905260248201527f537472696e67733a20686578206c656e67746820696e73756666696369656e746044820152606401610590565b6001600160e01b031981168114610ac557600080fd5b60006020828403121561169457600080fd5b8135610aa68161166c565b60005b838110156116ba5781810151838201526020016116a2565b50506000910152565b600081518084526116db81602086016020860161169f565b601f01601f19169290920160200192915050565b602081526000610aa660208301846116c3565b60006020828403121561171457600080fd5b5035919050565b80356001600160a01b038116811461173257600080fd5b919050565b6000806040838503121561174a57600080fd5b6117538361171b565b946020939093013593505050565b60008060006060848603121561177657600080fd5b61177f8461171b565b925061178d6020850161171b565b9150604084013590509250925092565b600080604083850312156117b057600080fd5b823591506117c06020840161171b565b90509250929050565b634e487b7160e01b600052604160045260246000fd5b60006001600160401b03808411156117f9576117f96117c9565b604051601f8501601f19908116603f01168101908282118183101715611821576118216117c9565b8160405280935085815286868601111561183a57600080fd5b858560208301376000602087830101525050509392505050565b60006020828403121561186657600080fd5b81356001600160401b0381111561187c57600080fd5b8201601f8101841361188d57600080fd5b610c2a848235602084016117df565b6000602082840312156118ae57600080fd5b610aa68261171b565b600080600080606085870312156118cd57600080fd5b6118d68561171b565b93506020850135925060408501356001600160401b03808211156118f957600080fd5b818701915087601f83011261190d57600080fd5b81358181111561191c57600080fd5b88602082850101111561192e57600080fd5b95989497505060200194505050565b6000806040838503121561195057600080fd5b6119598361171b565b91506020830135801515811461196e57600080fd5b809150509250929050565b6000806000806080858703121561198f57600080fd5b6119988561171b565b93506119a66020860161171b565b92506040850135915060608501356001600160401b038111156119c857600080fd5b8501601f810187136119d957600080fd5b6119e8878235602084016117df565b91505092959194509250565b60008060408385031215611a0757600080fd5b611a108361171b565b91506117c06020840161171b565b600181811c90821680611a3257607f821691505b602082108103611a5257634e487b7160e01b600052602260045260246000fd5b50919050565b6020808252602d908201527f4552433732313a2063616c6c6572206973206e6f7420746f6b656e206f776e6560408201526c1c881bdc88185c1c1c9bdd9959609a1b606082015260800190565b602080825260189082015277115490cdcc8c4e881a5b9d985b1a59081d1bdad95b88125160421b604082015260600190565b60008351611ae981846020880161169f565b835190830190611afd81836020880161169f565b01949350505050565b60208082526025908201527f4552433732313a207472616e736665722066726f6d20696e636f72726563742060408201526437bbb732b960d91b606082015260800190565b60008351611b5d81846020880161169f565b835190830190611b7181836020880161169f565b602f60f81b9101908152600101949350505050565b601f82111561063157600081815260208120601f850160051c81016020861015611bad5750805b601f850160051c820191505b818110156109ec57828155600101611bb9565b81516001600160401b03811115611be557611be56117c9565b611bf981611bf38454611a1e565b84611b86565b602080601f831160018114611c2e5760008415611c165750858301515b600019600386901b1c1916600185901b1785556109ec565b600085815260208120601f198616915b82811015611c5d57888601518255948401946001909101908401611c3e565b5085821015611c7b5787850151600019600388901b60f8161c191681555b5050505050600190811b01905550565b60208082526032908201527f4552433732313a207472616e7366657220746f206e6f6e20455243373231526560408201527131b2b4bb32b91034b6b83632b6b2b73a32b960711b606082015260800190565b76020b1b1b2b9b9a1b7b73a3937b61d1030b1b1b7bab73a1604d1b815260008351611d0f81601785016020880161169f565b7001034b99036b4b9b9b4b733903937b6329607d1b6017918401918201528351611d4081602884016020880161169f565b01602801949350505050565b6020808252601c908201527f4552433732313a20746f6b656e20616c7265616479206d696e74656400000000604082015260600190565b6001600160a01b0385811682528416602082015260408101839052608060608201819052600090611db6908301846116c3565b9695505050505050565b600060208284031215611dd257600080fd5b8151610aa68161166c565b634e487b7160e01b600052601160045260246000fd5b808202811582820484141761045d5761045d611ddd565b8082018082111561045d5761045d611ddd565b634e487b7160e01b600052603260045260246000fd5b600081611e4257611e42611ddd565b50600019019056feddf252ad1be2c89b69c2b068fc378daa952ba7f163c4a11628f55a4df523b3ef0152ff3abcd076e5909dae88c15988bc9c69e3f026f3af132517ce02b1e7920ea164736f6c6343000813000a",
  "devdoc": {
    "author": "NFTfi",
    "details": "An ERC721 token which represents a very basic implementation of the NFTfi V2 SmartNFT.",
    "events": {
      "Approval(address,address,uint256)": {
        "details": "Emitted when `owner` enables `approved` to manage the `tokenId` token."
      },
      "ApprovalForAll(address,address,bool)": {
        "details": "Emitted when `owner` enables or disables (`approved`) `operator` to manage all of its assets."
      },
      "RoleAdminChanged(bytes32,bytes32,bytes32)": {
        "details": "Emitted when `newAdminRole` is set as ``role``'s admin role, replacing `previousAdminRole` `DEFAULT_ADMIN_ROLE` is the starting admin for all roles, despite {RoleAdminChanged} not being emitted signaling this. _Available since v3.1._"
      },
      "RoleGranted(bytes32,address,address)": {
        "details": "Emitted when `account` is granted `role`. `sender` is the account that originated the contract call, an admin role bearer except when using {AccessControl-_setupRole}."
      },
      "RoleRevoked(bytes32,address,address)": {
        "details": "Emitted when `account` is revoked `role`. `sender` is the account that originated the contract call:   - if using `revokeRole`, it is the admin role bearer   - if using `renounceRole`, it is the role bearer (i.e. `account`)"
      },
      "Transfer(address,address,uint256)": {
        "details": "Emitted when `tokenId` token is transferred from `from` to `to`."
      }
    },
    "kind": "dev",
    "methods": {
      "approve(address,uint256)": {
        "details": "See {IERC721-approve}."
      },
      "balanceOf(address)": {
        "details": "See {IERC721-balanceOf}."
      },
      "burn(uint256)": {
        "details": "Burns `_tokenId` token. Requirements: - the caller must have `LOAN_COORDINATOR_ROLE` role."
      },
      "constructor": {
        "details": "Grants the contract the default admin role to `_admin`. Grants LOAN_COORDINATOR_ROLE to `_loanCoordinator`.",
        "params": {
          "_admin": "- Account to set as the admin of roles",
          "_customBaseURI": "- Base URI for the SmarNFT",
          "_loanCoordinator": "- Initial loan coordinator",
          "_name": "- Name for the SmarNFT",
          "_nftfiHub": "- Address of the NftfiHub contract",
          "_symbol": "- Symbol for the SmarNFT"
        }
      },
      "getApproved(uint256)": {
        "details": "See {IERC721-getApproved}."
      },
      "getRoleAdmin(bytes32)": {
        "details": "Returns the admin role that controls `role`. See {grantRole} and {revokeRole}. To change a role's admin, use {_setRoleAdmin}."
      },
      "grantRole(bytes32,address)": {
        "details": "Grants `role` to `account`. If `account` had not been already granted `role`, emits a {RoleGranted} event. Requirements: - the caller must have ``role``'s admin role. May emit a {RoleGranted} event."
      },
      "hasRole(bytes32,address)": {
        "details": "Returns `true` if `account` has been granted `role`."
      },
      "isApprovedForAll(address,address)": {
        "details": "See {IERC721-isApprovedForAll}."
      },
      "mint(address,uint256,bytes)": {
        "details": "Mints a new token with `_tokenId` and assigne to `_to`. Requirements: - the caller must have `LOAN_COORDINATOR_ROLE` role.",
        "params": {
          "_data": "Up to the first 32 bytes contains an integer which represents the loanId linked to the SmartNft",
          "_to": "The address reciving the SmartNft",
          "_tokenId": "The id of the new SmartNft"
        }
      },
      "name()": {
        "details": "See {IERC721Metadata-name}."
      },
      "ownerOf(uint256)": {
        "details": "See {IERC721-ownerOf}."
      },
      "renounceRole(bytes32,address)": {
        "details": "Revokes `role` from the calling account. Roles are often managed via {grantRole} and {revokeRole}: this function's purpose is to provide a mechanism for accounts to lose their privileges if they are compromised (such as when a trusted device is misplaced). If the calling account had been revoked `role`, emits a {RoleRevoked} event. Requirements: - the caller must be `account`. May emit a {RoleRevoked} event."
      },
      "revokeRole(bytes32,address)": {
        "details": "Revokes `role` from `account`. If `account` had been granted `role`, emits a {RoleRevoked} event. Requirements: - the caller must have ``role``'s admin role. May emit a {RoleRevoked} event."
      },
      "safeTransferFrom(address,address,uint256)": {
        "details": "See {IERC721-safeTransferFrom}."
      },
      "safeTransferFrom(address,address,uint256,bytes)": {
        "details": "See {IERC721-safeTransferFrom}."
      },
      "setApprovalForAll(address,bool)": {
        "details": "See {IERC721-setApprovalForAll}."
      },
      "setBaseURI(string)": {
        "details": "Sets baseURI.",
        "params": {
          "_customBaseURI": "- Base URI for the SmarNFT"
        }
      },
      "setLoanCoordinator(address)": {
        "details": "Grants LOAN_COORDINATOR_ROLE to `_account`. Requirements: - the caller must have ``role``'s admin role."
      },
      "supportsInterface(bytes4)": {
        "details": "See {IERC165-supportsInterface}."
      },
      "symbol()": {
        "details": "See {IERC721Metadata-symbol}."
      },
      "tokenURI(uint256)": {
        "details": "See {IERC721Metadata-tokenURI}."
      },
      "transferFrom(address,address,uint256)": {
        "details": "See {IERC721-transferFrom}."
      }
    },
    "title": "SmartNft",
    "version": 1
  },
  "userdoc": {
    "kind": "user",
    "methods": {},
    "version": 1
  },
  "storageLayout": {
    "storage": [
      {
        "astId": 3671,
        "contract": "contracts/smartNft/SmartNft.sol:SmartNft",
        "label": "_name",
        "offset": 0,
        "slot": "0",
        "type": "t_string_storage"
      },
      {
        "astId": 3673,
        "contract": "contracts/smartNft/SmartNft.sol:SmartNft",
        "label": "_symbol",
        "offset": 0,
        "slot": "1",
        "type": "t_string_storage"
      },
      {
        "astId": 3677,
        "contract": "contracts/smartNft/SmartNft.sol:SmartNft",
        "label": "_owners",
        "offset": 0,
        "slot": "2",
        "type": "t_mapping(t_uint256,t_address)"
      },
      {
        "astId": 3681,
        "contract": "contracts/smartNft/SmartNft.sol:SmartNft",
        "label": "_balances",
        "offset": 0,
        "slot": "3",
        "type": "t_mapping(t_address,t_uint256)"
      },
      {
        "astId": 3685,
        "contract": "contracts/smartNft/SmartNft.sol:SmartNft",
        "label": "_tokenApprovals",
        "offset": 0,
        "slot": "4",
        "type": "t_mapping(t_uint256,t_address)"
      },
      {
        "astId": 3691,
        "contract": "contracts/smartNft/SmartNft.sol:SmartNft",
        "label": "_operatorApprovals",
        "offset": 0,
        "slot": "5",
        "type": "t_mapping(t_address,t_mapping(t_address,t_bool))"
      },
      {
        "astId": 24,
        "contract": "contracts/smartNft/SmartNft.sol:SmartNft",
        "label": "_roles",
        "offset": 0,
        "slot": "6",
        "type": "t_mapping(t_bytes32,t_struct(RoleData)19_storage)"
      },
      {
        "astId": 16507,
        "contract": "contracts/smartNft/SmartNft.sol:SmartNft",
        "label": "loans",
        "offset": 0,
        "slot": "7",
        "type": "t_mapping(t_uint256,t_struct(Loan)16489_storage)"
      },
      {
        "astId": 16509,
        "contract": "contracts/smartNft/SmartNft.sol:SmartNft",
        "label": "baseURI",
        "offset": 0,
        "slot": "8",
        "type": "t_string_storage"
      }
    ],
    "types": {
      "t_address": {
        "encoding": "inplace",
        "label": "address",
        "numberOfBytes": "20"
      },
      "t_bool": {
        "encoding": "inplace",
        "label": "bool",
        "numberOfBytes": "1"
      },
      "t_bytes32": {
        "encoding": "inplace",
        "label": "bytes32",
        "numberOfBytes": "32"
      },
      "t_mapping(t_address,t_bool)": {
        "encoding": "mapping",
        "key": "t_address",
        "label": "mapping(address => bool)",
        "numberOfBytes": "32",
        "value": "t_bool"
      },
      "t_mapping(t_address,t_mapping(t_address,t_bool))": {
        "encoding": "mapping",
        "key": "t_address",
        "label": "mapping(address => mapping(address => bool))",
        "numberOfBytes": "32",
        "value": "t_mapping(t_address,t_bool)"
      },
      "t_mapping(t_address,t_uint256)": {
        "encoding": "mapping",
        "key": "t_address",
        "label": "mapping(address => uint256)",
        "numberOfBytes": "32",
        "value": "t_uint256"
      },
      "t_mapping(t_bytes32,t_struct(RoleData)19_storage)": {
        "encoding": "mapping",
        "key": "t_bytes32",
        "label": "mapping(bytes32 => struct AccessControl.RoleData)",
        "numberOfBytes": "32",
        "value": "t_struct(RoleData)19_storage"
      },
      "t_mapping(t_uint256,t_address)": {
        "encoding": "mapping",
        "key": "t_uint256",
        "label": "mapping(uint256 => address)",
        "numberOfBytes": "32",
        "value": "t_address"
      },
      "t_mapping(t_uint256,t_struct(Loan)16489_storage)": {
        "encoding": "mapping",
        "key": "t_uint256",
        "label": "mapping(uint256 => struct SmartNft.Loan)",
        "numberOfBytes": "32",
        "value": "t_struct(Loan)16489_storage"
      },
      "t_string_storage": {
        "encoding": "bytes",
        "label": "string",
        "numberOfBytes": "32"
      },
      "t_struct(Loan)16489_storage": {
        "encoding": "inplace",
        "label": "struct SmartNft.Loan",
        "members": [
          {
            "astId": 16486,
            "contract": "contracts/smartNft/SmartNft.sol:SmartNft",
            "label": "loanCoordinator",
            "offset": 0,
            "slot": "0",
            "type": "t_address"
          },
          {
            "astId": 16488,
            "contract": "contracts/smartNft/SmartNft.sol:SmartNft",
            "label": "loanId",
            "offset": 0,
            "slot": "1",
            "type": "t_uint256"
          }
        ],
        "numberOfBytes": "64"
      },
      "t_struct(RoleData)19_storage": {
        "encoding": "inplace",
        "label": "struct AccessControl.RoleData",
        "members": [
          {
            "astId": 16,
            "contract": "contracts/smartNft/SmartNft.sol:SmartNft",
            "label": "members",
            "offset": 0,
            "slot": "0",
            "type": "t_mapping(t_address,t_bool)"
          },
          {
            "astId": 18,
            "contract": "contracts/smartNft/SmartNft.sol:SmartNft",
            "label": "adminRole",
            "offset": 0,
            "slot": "1",
            "type": "t_bytes32"
          }
        ],
        "numberOfBytes": "64"
      },
      "t_uint256": {
        "encoding": "inplace",
        "label": "uint256",
        "numberOfBytes": "32"
      }
    }
  }
}