{
  "address": "0x0B7A95f1Af8d31bFAA3244544f88868b70845586",
  "abi": [
    {
      "inputs": [
        {
          "internalType": "address",
          "name": "to",
          "type": "address"
        },
        {
          "internalType": "address",
          "name": "nftContract",
          "type": "address"
        },
        {
          "internalType": "uint256",
          "name": "",
          "type": "uint256"
        }
      ],
      "name": "approveNFT",
      "outputs": [
        {
          "internalType": "bool",
          "name": "",
          "type": "bool"
        }
      ],
      "stateMutability": "nonpayable",
      "type": "function"
    },
    {
      "inputs": [
        {
          "internalType": "address",
          "name": "_owner",
          "type": "address"
        },
        {
          "internalType": "address",
          "name": "_nftContract",
          "type": "address"
        },
        {
          "internalType": "uint256",
          "name": "_tokenId",
          "type": "uint256"
        }
      ],
      "name": "isOwner",
      "outputs": [
        {
          "internalType": "bool",
          "name": "",
          "type": "bool"
        }
      ],
      "stateMutability": "view",
      "type": "function"
    },
    {
      "inputs": [
        {
          "internalType": "address",
          "name": "_sender",
          "type": "address"
        },
        {
          "internalType": "address",
          "name": "_recipient",
          "type": "address"
        },
        {
          "internalType": "address",
          "name": "_nftContract",
          "type": "address"
        },
        {
          "internalType": "uint256",
          "name": "_nftId",
          "type": "uint256"
        }
      ],
      "name": "transferNFT",
      "outputs": [
        {
          "internalType": "bool",
          "name": "",
          "type": "bool"
        }
      ],
      "stateMutability": "nonpayable",
      "type": "function"
    }
  ],
  "transactionHash": "0x423f84b7ecf5e3ec9e1cde9bee7275389ad3368fa16b401a059ab3cc68b5a515",
  "args": [],
  "numDeployments": 1,
  "solcInputHash": "1a8fa01f7869bdb20e0c3fb0bc984936",
  "bytecode": "0x608060405234801561001057600080fd5b506102d7806100206000396000f3fe608060405234801561001057600080fd5b50600436106100415760003560e01c80637336aaf014610046578063b03066711461006d578063f370e8c514610080575b600080fd5b61005961005436600461022a565b610093565b604051901515815260200160405180910390f35b61005961007b366004610266565b610103565b61005961008e36600461022a565b610191565b60405163a22cb46560e01b81526001600160a01b038481166004830152600160248301526000919084169063a22cb46590604401600060405180830381600087803b1580156100e157600080fd5b505af11580156100f5573d6000803e3d6000fd5b506001979650505050505050565b604051637921219560e11b81526001600160a01b0385811660048301528481166024830152604482018390526001606483015260a06084830152600060a48301819052919084169063f242432a9060c401600060405180830381600087803b15801561016e57600080fd5b505af1158015610182573d6000803e3d6000fd5b50600198975050505050505050565b604051627eeac760e11b81526001600160a01b03848116600483015260248201839052600091829185169062fdd58e90604401602060405180830381865afa1580156101e1573d6000803e3d6000fd5b505050506040513d601f19601f8201168201806040525081019061020591906102b1565b11949350505050565b80356001600160a01b038116811461022557600080fd5b919050565b60008060006060848603121561023f57600080fd5b6102488461020e565b92506102566020850161020e565b9150604084013590509250925092565b6000806000806080858703121561027c57600080fd5b6102858561020e565b93506102936020860161020e565b92506102a16040860161020e565b9396929550929360600135925050565b6000602082840312156102c357600080fd5b505191905056fea164736f6c6343000813000a",
  "devdoc": {
    "details": "Provides logic to transfer ERC1155 tokens",
    "kind": "dev",
    "methods": {
      "transferNFT(address,address,address,uint256)": {
        "details": "Transfer the nft to the `recipient`",
        "params": {
          "_nftContract": "Address of the nft contract",
          "_nftId": "Id of the nft",
          "_recipient": "Address that will receive the nft",
          "_sender": "Address of the current owner of the nft"
        },
        "returns": {
          "_0": "true if successfully transferred, false otherwise"
        }
      }
    },
    "title": "ERC1155Wrapper",
    "version": 1
  },
  "userdoc": {
    "kind": "user",
    "methods": {},
    "version": 1
  },
  "storageLayout": {
    "storage": [],
    "types": null
  }
}