{
  "address": "0xa12E49d6fD2994d8606daca8963C84bB699962b7",
  "abi": [
    {
      "inputs": [
        {
          "internalType": "address",
          "name": "_admin",
          "type": "address"
        },
        {
          "internalType": "string[]",
          "name": "_contractKeys",
          "type": "string[]"
        },
        {
          "internalType": "address[]",
          "name": "_contractAddresses",
          "type": "address[]"
        }
      ],
      "stateMutability": "nonpayable",
      "type": "constructor"
    },
    {
      "anonymous": false,
      "inputs": [
        {
          "indexed": true,
          "internalType": "bytes32",
          "name": "contractKey",
          "type": "bytes32"
        },
        {
          "indexed": true,
          "internalType": "address",
          "name": "contractAddress",
          "type": "address"
        }
      ],
      "name": "ContractUpdated",
      "type": "event"
    },
    {
      "anonymous": false,
      "inputs": [
        {
          "indexed": true,
          "internalType": "address",
          "name": "previousOwner",
          "type": "address"
        },
        {
          "indexed": true,
          "internalType": "address",
          "name": "newOwner",
          "type": "address"
        }
      ],
      "name": "OwnershipTransferred",
      "type": "event"
    },
    {
      "anonymous": false,
      "inputs": [
        {
          "indexed": false,
          "internalType": "address",
          "name": "account",
          "type": "address"
        }
      ],
      "name": "Paused",
      "type": "event"
    },
    {
      "anonymous": false,
      "inputs": [
        {
          "indexed": false,
          "internalType": "address",
          "name": "account",
          "type": "address"
        }
      ],
      "name": "Unpaused",
      "type": "event"
    },
    {
      "inputs": [],
      "name": "acceptTransferOwnership",
      "outputs": [],
      "stateMutability": "nonpayable",
      "type": "function"
    },
    {
      "inputs": [],
      "name": "cancelTransferOwnership",
      "outputs": [],
      "stateMutability": "nonpayable",
      "type": "function"
    },
    {
      "inputs": [
        {
          "internalType": "bytes32",
          "name": "_contractKey",
          "type": "bytes32"
        }
      ],
      "name": "getContract",
      "outputs": [
        {
          "internalType": "address",
          "name": "",
          "type": "address"
        }
      ],
      "stateMutability": "view",
      "type": "function"
    },
    {
      "inputs": [],
      "name": "owner",
      "outputs": [
        {
          "internalType": "address",
          "name": "",
          "type": "address"
        }
      ],
      "stateMutability": "view",
      "type": "function"
    },
    {
      "inputs": [],
      "name": "paused",
      "outputs": [
        {
          "internalType": "bool",
          "name": "",
          "type": "bool"
        }
      ],
      "stateMutability": "view",
      "type": "function"
    },
    {
      "inputs": [],
      "name": "rejectTransferOwnership",
      "outputs": [],
      "stateMutability": "nonpayable",
      "type": "function"
    },
    {
      "inputs": [
        {
          "internalType": "address",
          "name": "_newOwnerCandidate",
          "type": "address"
        }
      ],
      "name": "requestTransferOwnership",
      "outputs": [],
      "stateMutability": "nonpayable",
      "type": "function"
    },
    {
      "inputs": [
        {
          "internalType": "string",
          "name": "_contractKey",
          "type": "string"
        },
        {
          "internalType": "address",
          "name": "_contractAddress",
          "type": "address"
        }
      ],
      "name": "setContract",
      "outputs": [],
      "stateMutability": "nonpayable",
      "type": "function"
    },
    {
      "inputs": [
        {
          "internalType": "string[]",
          "name": "_contractKeys",
          "type": "string[]"
        },
        {
          "internalType": "address[]",
          "name": "_contractAddresses",
          "type": "address[]"
        }
      ],
      "name": "setContracts",
      "outputs": [],
      "stateMutability": "nonpayable",
      "type": "function"
    }
  ],
  "transactionHash": "0xbcba26e489e67b2cd3aa78066a9d012d2bf7c65c9e835e06a18a172ed56d19ba",
  "args": [
    "0x02e037F56728E947e92Af2c05baF7FeF387Ddd06",
    [],
    []
  ],
  "numDeployments": 1,
  "solcInputHash": "1a8fa01f7869bdb20e0c3fb0bc984936",
  "bytecode": "0x60806040523480156200001157600080fd5b5060405162000edf38038062000edf83398101604081905262000034916200039d565b82620000408162000066565b506001805460ff60a01b191681556002556200005d8282620000b6565b5050506200057c565b600080546001600160a01b038381166001600160a01b0319831681178455604051919092169283917f8be0079c531659141344cd1fd0a4f28419497f9722a3daafe3b4186f6b6457e09190a35050565b8051825114620001255760405162461bcd60e51b815260206004820152603060248201527f736574436f6e7472616374732066756e6374696f6e20696e666f726d6174696f60448201526f0dc40c2e4d2e8f240dad2e6dac2e8c6d60831b606482015260840160405180910390fd5b60005b82518110156200018f576200017c8382815181106200014b576200014b620004ef565b6020026020010151838381518110620001685762000168620004ef565b60200260200101516200019460201b60201c565b620001878162000505565b905062000128565b505050565b60405163f99a8ffb60e01b8152600090736910bE31b0674C03C23beD7665E2344E5Fd0F42B9063f99a8ffb90620001d09086906004016200052d565b602060405180830381865af4158015620001ee573d6000803e3d6000fd5b505050506040513d601f19601f8201168201806040525081019062000214919062000562565b60008181526003602052604080822080546001600160a01b0319166001600160a01b03871690811790915590519293509183917fd45de243cd15102b320d0d75eb12a34864595b07f8853b6b7d487946b292463091a3505050565b80516001600160a01b03811681146200028757600080fd5b919050565b634e487b7160e01b600052604160045260246000fd5b604051601f8201601f191681016001600160401b0381118282101715620002cd57620002cd6200028c565b604052919050565b60006001600160401b03821115620002f157620002f16200028c565b5060051b60200190565b60005b8381101562000318578181015183820152602001620002fe565b50506000910152565b600082601f8301126200033357600080fd5b815160206200034c6200034683620002d5565b620002a2565b82815260059290921b840181019181810190868411156200036c57600080fd5b8286015b84811015620003925762000384816200026f565b835291830191830162000370565b509695505050505050565b600080600060608486031215620003b357600080fd5b620003be846200026f565b602085810151919450906001600160401b0380821115620003de57600080fd5b818701915087601f830112620003f357600080fd5b8151620004046200034682620002d5565b81815260059190911b8301840190848101908a8311156200042457600080fd5b8585015b83811015620004ba57805185811115620004425760008081fd5b8601603f81018d13620004555760008081fd5b878101516040878211156200046e576200046e6200028c565b62000482601f8301601f19168b01620002a2565b8281528f82848601011115620004985760008081fd5b620004a9838c8301848701620002fb565b865250505091860191860162000428565b5060408a01519097509450505080831115620004d557600080fd5b5050620004e58682870162000321565b9150509250925092565b634e487b7160e01b600052603260045260246000fd5b6000600182016200052657634e487b7160e01b600052601160045260246000fd5b5060010190565b60208152600082518060208401526200054e816040850160208701620002fb565b601f01601f19169190910160400192915050565b6000602082840312156200057557600080fd5b5051919050565b610953806200058c6000396000f3fe608060405234801561001057600080fd5b50600436106100835760003560e01c80633f0ed0df146100885780635c975abb1461009d5780635f992fdd146100bf5780637b371107146100c75780637ca9e0c4146100cf5780638da5cb5b146100e257806392fede00146101025780639d6fa6181461010a578063e16c7d981461011d575b600080fd5b61009b610096366004610574565b610146565b005b600154600160a01b900460ff1660405190151581526020015b60405180910390f35b61009b6101c4565b61009b610200565b61009b6100dd3660046106d2565b61023f565b6100ea61027c565b6040516001600160a01b0390911681526020016100b6565b61009b61028b565b61009b6101183660046107fb565b6102ba565b6100ea61012b36600461081d565b6000908152600360205260409020546001600160a01b031690565b3361014f61027c565b6001600160a01b03161461017e5760405162461bcd60e51b815260040161017590610836565b60405180910390fd5b6101bf83838080601f016020809104026020016040519081016040528093929190818152602001838380828437600092019190915250859250610370915050565b505050565b6001546001600160a01b031633146101ee5760405162461bcd60e51b81526004016101759061086b565b600180546001600160a01b0319169055565b6001546001600160a01b0316331461022a5760405162461bcd60e51b81526004016101759061086b565b6001546101ee906001600160a01b0316610446565b3361024861027c565b6001600160a01b03161461026e5760405162461bcd60e51b815260040161017590610836565b6102788282610496565b5050565b6000546001600160a01b031690565b3361029461027c565b6001600160a01b0316146101ee5760405162461bcd60e51b815260040161017590610836565b336102c361027c565b6001600160a01b0316146102e95760405162461bcd60e51b815260040161017590610836565b6001600160a01b03811661034e5760405162461bcd60e51b815260206004820152602660248201527f4f776e61626c653a206e6577206f776e657220697320746865207a65726f206160448201526564647265737360d01b6064820152608401610175565b600180546001600160a01b0319166001600160a01b0392909216919091179055565b60405163f99a8ffb60e01b8152600090736910bE31b0674C03C23beD7665E2344E5Fd0F42B9063f99a8ffb906103aa9086906004016108a2565b602060405180830381865af41580156103c7573d6000803e3d6000fd5b505050506040513d601f19601f820116820180604052508101906103eb91906108f0565b60008181526003602052604080822080546001600160a01b0319166001600160a01b03871690811790915590519293509183917fd45de243cd15102b320d0d75eb12a34864595b07f8853b6b7d487946b292463091a3505050565b600080546001600160a01b038381166001600160a01b0319831681178455604051919092169283917f8be0079c531659141344cd1fd0a4f28419497f9722a3daafe3b4186f6b6457e09190a35050565b80518251146105005760405162461bcd60e51b815260206004820152603060248201527f736574436f6e7472616374732066756e6374696f6e20696e666f726d6174696f60448201526f0dc40c2e4d2e8f240dad2e6dac2e8c6d60831b6064820152608401610175565b60005b82518110156101bf5761054883828151811061052157610521610909565b602002602001015183838151811061053b5761053b610909565b6020026020010151610370565b6105518161091f565b9050610503565b80356001600160a01b038116811461056f57600080fd5b919050565b60008060006040848603121561058957600080fd5b833567ffffffffffffffff808211156105a157600080fd5b818601915086601f8301126105b557600080fd5b8135818111156105c457600080fd5b8760208285010111156105d657600080fd5b6020928301955093506105ec9186019050610558565b90509250925092565b634e487b7160e01b600052604160045260246000fd5b604051601f8201601f1916810167ffffffffffffffff81118282101715610634576106346105f5565b604052919050565b600067ffffffffffffffff821115610656576106566105f5565b5060051b60200190565b600082601f83011261067157600080fd5b813560206106866106818361063c565b61060b565b82815260059290921b840181019181810190868411156106a557600080fd5b8286015b848110156106c7576106ba81610558565b83529183019183016106a9565b509695505050505050565b60008060408084860312156106e657600080fd5b833567ffffffffffffffff808211156106fe57600080fd5b8186019150601f878184011261071357600080fd5b823560206107236106818361063c565b82815260059290921b8501810191818101908b84111561074257600080fd5b8287015b848110156107cb5780358781111561075e5760008081fd5b8801603f81018e136107705760008081fd5b8481013588811115610784576107846105f5565b610795818901601f1916870161060b565b8181528f8c8385010111156107aa5760008081fd5b818c8401888301376000918101870191909152845250918301918301610746565b5098505088013594505050808311156107e357600080fd5b50506107f185828601610660565b9150509250929050565b60006020828403121561080d57600080fd5b61081682610558565b9392505050565b60006020828403121561082f57600080fd5b5035919050565b6020808252818101527f4f776e61626c653a2063616c6c6572206973206e6f7420746865206f776e6572604082015260600190565b6020808252601c908201527f4f776e61626c653a206e6f74206f776e65722063616e64696461746500000000604082015260600190565b600060208083528351808285015260005b818110156108cf578581018301518582016040015282016108b3565b506000604082860101526040601f19601f8301168501019250505092915050565b60006020828403121561090257600080fd5b5051919050565b634e487b7160e01b600052603260045260246000fd5b60006001820161093f57634e487b7160e01b600052601160045260246000fd5b506001019056fea164736f6c6343000813000a",
  "deployedBytecode": "0x608060405234801561001057600080fd5b50600436106100835760003560e01c80633f0ed0df146100885780635c975abb1461009d5780635f992fdd146100bf5780637b371107146100c75780637ca9e0c4146100cf5780638da5cb5b146100e257806392fede00146101025780639d6fa6181461010a578063e16c7d981461011d575b600080fd5b61009b610096366004610574565b610146565b005b600154600160a01b900460ff1660405190151581526020015b60405180910390f35b61009b6101c4565b61009b610200565b61009b6100dd3660046106d2565b61023f565b6100ea61027c565b6040516001600160a01b0390911681526020016100b6565b61009b61028b565b61009b6101183660046107fb565b6102ba565b6100ea61012b36600461081d565b6000908152600360205260409020546001600160a01b031690565b3361014f61027c565b6001600160a01b03161461017e5760405162461bcd60e51b815260040161017590610836565b60405180910390fd5b6101bf83838080601f016020809104026020016040519081016040528093929190818152602001838380828437600092019190915250859250610370915050565b505050565b6001546001600160a01b031633146101ee5760405162461bcd60e51b81526004016101759061086b565b600180546001600160a01b0319169055565b6001546001600160a01b0316331461022a5760405162461bcd60e51b81526004016101759061086b565b6001546101ee906001600160a01b0316610446565b3361024861027c565b6001600160a01b03161461026e5760405162461bcd60e51b815260040161017590610836565b6102788282610496565b5050565b6000546001600160a01b031690565b3361029461027c565b6001600160a01b0316146101ee5760405162461bcd60e51b815260040161017590610836565b336102c361027c565b6001600160a01b0316146102e95760405162461bcd60e51b815260040161017590610836565b6001600160a01b03811661034e5760405162461bcd60e51b815260206004820152602660248201527f4f776e61626c653a206e6577206f776e657220697320746865207a65726f206160448201526564647265737360d01b6064820152608401610175565b600180546001600160a01b0319166001600160a01b0392909216919091179055565b60405163f99a8ffb60e01b815260009073__$d7e2e0a2db402280e6c36233d590dce656$__9063f99a8ffb906103aa9086906004016108a2565b602060405180830381865af41580156103c7573d6000803e3d6000fd5b505050506040513d601f19601f820116820180604052508101906103eb91906108f0565b60008181526003602052604080822080546001600160a01b0319166001600160a01b03871690811790915590519293509183917fd45de243cd15102b320d0d75eb12a34864595b07f8853b6b7d487946b292463091a3505050565b600080546001600160a01b038381166001600160a01b0319831681178455604051919092169283917f8be0079c531659141344cd1fd0a4f28419497f9722a3daafe3b4186f6b6457e09190a35050565b80518251146105005760405162461bcd60e51b815260206004820152603060248201527f736574436f6e7472616374732066756e6374696f6e20696e666f726d6174696f60448201526f0dc40c2e4d2e8f240dad2e6dac2e8c6d60831b6064820152608401610175565b60005b82518110156101bf5761054883828151811061052157610521610909565b602002602001015183838151811061053b5761053b610909565b6020026020010151610370565b6105518161091f565b9050610503565b80356001600160a01b038116811461056f57600080fd5b919050565b60008060006040848603121561058957600080fd5b833567ffffffffffffffff808211156105a157600080fd5b818601915086601f8301126105b557600080fd5b8135818111156105c457600080fd5b8760208285010111156105d657600080fd5b6020928301955093506105ec9186019050610558565b90509250925092565b634e487b7160e01b600052604160045260246000fd5b604051601f8201601f1916810167ffffffffffffffff81118282101715610634576106346105f5565b604052919050565b600067ffffffffffffffff821115610656576106566105f5565b5060051b60200190565b600082601f83011261067157600080fd5b813560206106866106818361063c565b61060b565b82815260059290921b840181019181810190868411156106a557600080fd5b8286015b848110156106c7576106ba81610558565b83529183019183016106a9565b509695505050505050565b60008060408084860312156106e657600080fd5b833567ffffffffffffffff808211156106fe57600080fd5b8186019150601f878184011261071357600080fd5b823560206107236106818361063c565b82815260059290921b8501810191818101908b84111561074257600080fd5b8287015b848110156107cb5780358781111561075e5760008081fd5b8801603f81018e136107705760008081fd5b8481013588811115610784576107846105f5565b610795818901601f1916870161060b565b8181528f8c8385010111156107aa5760008081fd5b818c8401888301376000918101870191909152845250918301918301610746565b5098505088013594505050808311156107e357600080fd5b50506107f185828601610660565b9150509250929050565b60006020828403121561080d57600080fd5b61081682610558565b9392505050565b60006020828403121561082f57600080fd5b5035919050565b6020808252818101527f4f776e61626c653a2063616c6c6572206973206e6f7420746865206f776e6572604082015260600190565b6020808252601c908201527f4f776e61626c653a206e6f74206f776e65722063616e64696461746500000000604082015260600190565b600060208083528351808285015260005b818110156108cf578581018301518582016040015282016108b3565b506000604082860101526040601f19601f8301168501019250505092915050565b60006020828403121561090257600080fd5b5051919050565b634e487b7160e01b600052603260045260246000fd5b60006001820161093f57634e487b7160e01b600052601160045260246000fd5b506001019056fea164736f6c6343000813000a",
  "libraries": {
    "ContractKeys": "0x6910bE31b0674C03C23beD7665E2344E5Fd0F42B"
  },
  "devdoc": {
    "author": "NFTfi",
    "details": "Registry for the contracts supported by NFTfi protocol.",
    "events": {
      "ContractUpdated(bytes32,address)": {
        "params": {
          "contractAddress": "- Address of the contract.",
          "contractKey": "- Contract key e.g. bytes32('PERMITTED_NFTS')."
        }
      },
      "Paused(address)": {
        "details": "Emitted when the pause is triggered by `account`."
      },
      "Unpaused(address)": {
        "details": "Emitted when the pause is lifted by `account`."
      }
    },
    "kind": "dev",
    "methods": {
      "constructor": {
        "details": "Initializes `contracts` with a batch of permitted contracts",
        "params": {
          "_admin": "- Initial admin of this contract.",
          "_contractAddresses": "- Initial associated contract addresses.",
          "_contractKeys": "- Initial contract keys."
        }
      },
      "getContract(bytes32)": {
        "params": {
          "_contractKey": "- The index to the contract address."
        }
      },
      "owner()": {
        "details": "Returns the address of the current owner."
      },
      "paused()": {
        "details": "Returns true if the contract is paused, and false otherwise."
      },
      "requestTransferOwnership(address)": {
        "details": "Requests transferring ownership of the contract to a new account (`_newOwnerCandidate`). Can only be called by the current owner."
      },
      "setContract(string,address)": {
        "params": {
          "_contractAddress": "- The associated contract address.",
          "_contractKey": "- New or existing contract key."
        }
      },
      "setContracts(string[],address[])": {
        "params": {
          "_contractAddresses": "- The associated contract addresses.",
          "_contractKeys": "- New or existing contract keys."
        }
      }
    },
    "title": "NftfiHub",
    "version": 1
  },
  "userdoc": {
    "events": {
      "ContractUpdated(bytes32,address)": {
        "notice": "This event is fired whenever the admin registers a contract."
      }
    },
    "kind": "user",
    "methods": {
      "getContract(bytes32)": {
        "notice": "This function can be called by anyone to lookup the contract address associated with the key."
      },
      "setContract(string,address)": {
        "notice": "Set or update the contract address for the given key."
      },
      "setContracts(string[],address[])": {
        "notice": "Set or update the contract addresses for the given keys."
      }
    },
    "version": 1
  },
  "storageLayout": {
    "storage": [
      {
        "astId": 23178,
        "contract": "contracts/NftfiHub.sol:NftfiHub",
        "label": "_owner",
        "offset": 0,
        "slot": "0",
        "type": "t_address"
      },
      {
        "astId": 23180,
        "contract": "contracts/NftfiHub.sol:NftfiHub",
        "label": "_ownerCandidate",
        "offset": 0,
        "slot": "1",
        "type": "t_address"
      },
      {
        "astId": 595,
        "contract": "contracts/NftfiHub.sol:NftfiHub",
        "label": "_paused",
        "offset": 20,
        "slot": "1",
        "type": "t_bool"
      },
      {
        "astId": 696,
        "contract": "contracts/NftfiHub.sol:NftfiHub",
        "label": "_status",
        "offset": 0,
        "slot": "2",
        "type": "t_uint256"
      },
      {
        "astId": 8869,
        "contract": "contracts/NftfiHub.sol:NftfiHub",
        "label": "contracts",
        "offset": 0,
        "slot": "3",
        "type": "t_mapping(t_bytes32,t_address)"
      }
    ],
    "types": {
      "t_address": {
        "encoding": "inplace",
        "label": "address",
        "numberOfBytes": "20"
      },
      "t_bool": {
        "encoding": "inplace",
        "label": "bool",
        "numberOfBytes": "1"
      },
      "t_bytes32": {
        "encoding": "inplace",
        "label": "bytes32",
        "numberOfBytes": "32"
      },
      "t_mapping(t_bytes32,t_address)": {
        "encoding": "mapping",
        "key": "t_bytes32",
        "label": "mapping(bytes32 => address)",
        "numberOfBytes": "32",
        "value": "t_address"
      },
      "t_uint256": {
        "encoding": "inplace",
        "label": "uint256",
        "numberOfBytes": "32"
      }
    }
  }
}