{
  "address": "0xEFde1F2070CC1FfA305Af57a7D53bb384e8cBD82",
  "abi": [
    {
      "inputs": [
        {
          "internalType": "address",
          "name": "_admin",
          "type": "address"
        }
      ],
      "stateMutability": "nonpayable",
      "type": "constructor"
    },
    {
      "anonymous": false,
      "inputs": [
        {
          "indexed": true,
          "internalType": "address",
          "name": "previousOwner",
          "type": "address"
        },
        {
          "indexed": true,
          "internalType": "address",
          "name": "newOwner",
          "type": "address"
        }
      ],
      "name": "OwnershipTransferred",
      "type": "event"
    },
    {
      "anonymous": false,
      "inputs": [
        {
          "indexed": true,
          "internalType": "address",
          "name": "partner",
          "type": "address"
        },
        {
          "indexed": false,
          "internalType": "uint16",
          "name": "revenueShareInBasisPoints",
          "type": "uint16"
        }
      ],
      "name": "PartnerRevenueShare",
      "type": "event"
    },
    {
      "inputs": [],
      "name": "HUNDRED_PERCENT",
      "outputs": [
        {
          "internalType": "uint256",
          "name": "",
          "type": "uint256"
        }
      ],
      "stateMutability": "view",
      "type": "function"
    },
    {
      "inputs": [],
      "name": "acceptTransferOwnership",
      "outputs": [],
      "stateMutability": "nonpayable",
      "type": "function"
    },
    {
      "inputs": [],
      "name": "cancelTransferOwnership",
      "outputs": [],
      "stateMutability": "nonpayable",
      "type": "function"
    },
    {
      "inputs": [
        {
          "internalType": "address",
          "name": "_partner",
          "type": "address"
        }
      ],
      "name": "getPartnerPermit",
      "outputs": [
        {
          "internalType": "uint16",
          "name": "",
          "type": "uint16"
        }
      ],
      "stateMutability": "view",
      "type": "function"
    },
    {
      "inputs": [],
      "name": "owner",
      "outputs": [
        {
          "internalType": "address",
          "name": "",
          "type": "address"
        }
      ],
      "stateMutability": "view",
      "type": "function"
    },
    {
      "inputs": [],
      "name": "rejectTransferOwnership",
      "outputs": [],
      "stateMutability": "nonpayable",
      "type": "function"
    },
    {
      "inputs": [
        {
          "internalType": "address",
          "name": "_newOwnerCandidate",
          "type": "address"
        }
      ],
      "name": "requestTransferOwnership",
      "outputs": [],
      "stateMutability": "nonpayable",
      "type": "function"
    },
    {
      "inputs": [
        {
          "internalType": "address",
          "name": "_partner",
          "type": "address"
        },
        {
          "internalType": "uint16",
          "name": "_revenueShareInBasisPoints",
          "type": "uint16"
        }
      ],
      "name": "setPartnerRevenueShare",
      "outputs": [],
      "stateMutability": "nonpayable",
      "type": "function"
    }
  ],
  "transactionHash": "0xca7ed23b7205ddd9a44bbf93ce9c5ec04194ac4b519b86d6f5467f80d53cbcfb",
  "args": [
    "0xbeEBCD47B8315B9fFC949318269A329AEb7D97b4"
  ],
  "numDeployments": 1,
  "solcInputHash": "1a8fa01f7869bdb20e0c3fb0bc984936",
  "bytecode": "0x608060405234801561001057600080fd5b506040516105d13803806105d183398101604081905261002f91610090565b8061003981610040565b50506100c0565b600080546001600160a01b038381166001600160a01b0319831681178455604051919092169283917f8be0079c531659141344cd1fd0a4f28419497f9722a3daafe3b4186f6b6457e09190a35050565b6000602082840312156100a257600080fd5b81516001600160a01b03811681146100b957600080fd5b9392505050565b610502806100cf6000396000f3fe608060405234801561001057600080fd5b50600436106100785760003560e01c8063410ed2e51461007d5780635f992fdd146100c25780636ed93dd0146100cc5780637b371107146100e35780638da5cb5b146100eb57806392df8fe11461010657806392fede00146101195780639d6fa61814610121575b600080fd5b6100aa61008b366004610429565b6001600160a01b031660009081526002602052604090205461ffff1690565b60405161ffff90911681526020015b60405180910390f35b6100ca610134565b005b6100d561271081565b6040519081526020016100b9565b6100ca610179565b6000546040516001600160a01b0390911681526020016100b9565b6100ca61011436600461044b565b6101b8565b6100ca6102e2565b6100ca61012f366004610429565b61030c565b6001546001600160a01b031633146101675760405162461bcd60e51b815260040161015e90610489565b60405180910390fd5b600180546001600160a01b0319169055565b6001546001600160a01b031633146101a35760405162461bcd60e51b815260040161015e90610489565b600154610167906001600160a01b03166103bd565b6000546001600160a01b031633146101e25760405162461bcd60e51b815260040161015e906104c0565b6001600160a01b0382166102325760405162461bcd60e51b8152602060048201526017602482015276506172746e65722069732061646472657373207a65726f60481b604482015260640161015e565b6127108161ffff1611156102805760405162461bcd60e51b8152602060048201526015602482015274526576656e756520736861726520746f6f2062696760581b604482015260640161015e565b6001600160a01b038216600081815260026020908152604091829020805461ffff191661ffff861690811790915591519182527fd783e82274aa6b01921b08d2e05a8261d1c1fda099b201e77805f6e1f75279ab910160405180910390a25050565b6000546001600160a01b031633146101675760405162461bcd60e51b815260040161015e906104c0565b6000546001600160a01b031633146103365760405162461bcd60e51b815260040161015e906104c0565b6001600160a01b03811661039b5760405162461bcd60e51b815260206004820152602660248201527f4f776e61626c653a206e6577206f776e657220697320746865207a65726f206160448201526564647265737360d01b606482015260840161015e565b600180546001600160a01b0319166001600160a01b0392909216919091179055565b600080546001600160a01b038381166001600160a01b0319831681178455604051919092169283917f8be0079c531659141344cd1fd0a4f28419497f9722a3daafe3b4186f6b6457e09190a35050565b80356001600160a01b038116811461042457600080fd5b919050565b60006020828403121561043b57600080fd5b6104448261040d565b9392505050565b6000806040838503121561045e57600080fd5b6104678361040d565b9150602083013561ffff8116811461047e57600080fd5b809150509250929050565b6020808252601c908201527f4f776e61626c653a206e6f74206f776e65722063616e64696461746500000000604082015260600190565b6020808252818101527f4f776e61626c653a2063616c6c6572206973206e6f7420746865206f776e657260408201526060019056fea164736f6c6343000813000a",
  "devdoc": {
    "author": "NFTfi",
    "details": "Registry for partners permitted for reciving a revenue share. Each partner's address is associated with the percent of the admin fee shared.",
    "events": {
      "PartnerRevenueShare(address,uint16)": {
        "params": {
          "partner": "- The address of the partner.",
          "revenueShareInBasisPoints": "- The percent (measured in basis points) of the admin fee amount that will be taken as a revenue share for a the partner."
        }
      }
    },
    "kind": "dev",
    "methods": {
      "constructor": {
        "params": {
          "_admin": "- Initial admin of this contract."
        }
      },
      "getPartnerPermit(address)": {
        "params": {
          "_partner": "- The address of the partner."
        },
        "returns": {
          "_0": "Returns the partner's revenue share"
        }
      },
      "owner()": {
        "details": "Returns the address of the current owner."
      },
      "requestTransferOwnership(address)": {
        "details": "Requests transferring ownership of the contract to a new account (`_newOwnerCandidate`). Can only be called by the current owner."
      },
      "setPartnerRevenueShare(address,uint16)": {
        "params": {
          "_partner": "- The address of the partner.",
          "_revenueShareInBasisPoints": "- The percent (measured in basis points) of the admin fee amount that will be taken as a revenue share for a the partner."
        }
      }
    },
    "title": "PermittedPartners",
    "version": 1
  },
  "userdoc": {
    "events": {
      "PartnerRevenueShare(address,uint16)": {
        "notice": "This event is fired whenever the admin sets a partner's revenue share."
      }
    },
    "kind": "user",
    "methods": {
      "constructor": {
        "notice": "Sets the admin of the contract."
      },
      "getPartnerPermit(address)": {
        "notice": "This function can be called by anyone to get the revenue share parcent associated with the partner."
      },
      "setPartnerRevenueShare(address,uint16)": {
        "notice": "This function can be called by admins to change the revenue share status of a partner. This includes adding an partner to the revenue share list, removing it and updating the revenue share percent."
      }
    },
    "version": 1
  },
  "storageLayout": {
    "storage": [
      {
        "astId": 23178,
        "contract": "contracts/permittedLists/PermittedPartners.sol:PermittedPartners",
        "label": "_owner",
        "offset": 0,
        "slot": "0",
        "type": "t_address"
      },
      {
        "astId": 23180,
        "contract": "contracts/permittedLists/PermittedPartners.sol:PermittedPartners",
        "label": "_ownerCandidate",
        "offset": 0,
        "slot": "1",
        "type": "t_address"
      },
      {
        "astId": 15008,
        "contract": "contracts/permittedLists/PermittedPartners.sol:PermittedPartners",
        "label": "partnerRevenueShare",
        "offset": 0,
        "slot": "2",
        "type": "t_mapping(t_address,t_uint16)"
      }
    ],
    "types": {
      "t_address": {
        "encoding": "inplace",
        "label": "address",
        "numberOfBytes": "20"
      },
      "t_mapping(t_address,t_uint16)": {
        "encoding": "mapping",
        "key": "t_address",
        "label": "mapping(address => uint16)",
        "numberOfBytes": "32",
        "value": "t_uint16"
      },
      "t_uint16": {
        "encoding": "inplace",
        "label": "uint16",
        "numberOfBytes": "2"
      }
    }
  }
}