{
  "address": "0x1579a11826c40f8FA1cECAE708B68a87Beed254B",
  "abi": [
    {
      "inputs": [
        {
          "internalType": "address",
          "name": "_nftfiHub",
          "type": "address"
        },
        {
          "internalType": "address",
          "name": "_targetLoanFixedOfferContract",
          "type": "address"
        },
        {
          "internalType": "address",
          "name": "_targetLoanCollectionOfferContract",
          "type": "address"
        },
        {
          "internalType": "address",
          "name": "_admin",
          "type": "address"
        },
        {
          "internalType": "string[]",
          "name": "_definedRefinanceableTypes",
          "type": "string[]"
        },
        {
          "internalType": "address[]",
          "name": "_refinancingAdapters",
          "type": "address[]"
        },
        {
          "internalType": "string[]",
          "name": "_refinanceableTypes",
          "type": "string[]"
        },
        {
          "internalType": "address[]",
          "name": "_refinanceableContracts",
          "type": "address[]"
        },
        {
          "internalType": "address",
          "name": "_soloMargin",
          "type": "address"
        },
        {
          "internalType": "uint256",
          "name": "_flashloanFee",
          "type": "uint256"
        },
        {
          "components": [
            {
              "internalType": "address",
              "name": "swapRouterAddress",
              "type": "address"
            },
            {
              "internalType": "address",
              "name": "quoterAddress",
              "type": "address"
            },
            {
              "internalType": "address",
              "name": "wethAddress",
              "type": "address"
            },
            {
              "internalType": "address[]",
              "name": "supportedTokens",
              "type": "address[]"
            },
            {
              "internalType": "uint24[]",
              "name": "swapFeeRates",
              "type": "uint24[]"
            }
          ],
          "internalType": "struct SwapFlashloanWETH.SwapConstructorParams",
          "name": "_swapContructorParams",
          "type": "tuple"
        }
      ],
      "stateMutability": "nonpayable",
      "type": "constructor"
    },
    {
      "inputs": [],
      "name": "callerNotBorrowerOfOldLoan",
      "type": "error"
    },
    {
      "inputs": [],
      "name": "callerNotFlashloanContract",
      "type": "error"
    },
    {
      "inputs": [],
      "name": "collateralNotOwned",
      "type": "error"
    },
    {
      "inputs": [],
      "name": "denominationMismatch",
      "type": "error"
    },
    {
      "inputs": [],
      "name": "flashloanInitiatorNotThisContract",
      "type": "error"
    },
    {
      "inputs": [],
      "name": "tokensFeeRatesArityMismatch",
      "type": "error"
    },
    {
      "inputs": [],
      "name": "unsupportedCollateral",
      "type": "error"
    },
    {
      "inputs": [],
      "name": "wrongTargetLoanType",
      "type": "error"
    },
    {
      "anonymous": false,
      "inputs": [
        {
          "indexed": true,
          "internalType": "address",
          "name": "refinanceableContract",
          "type": "address"
        },
        {
          "indexed": true,
          "internalType": "bytes32",
          "name": "refinanceableType",
          "type": "bytes32"
        }
      ],
      "name": "NewRefinanceableContract",
      "type": "event"
    },
    {
      "anonymous": false,
      "inputs": [
        {
          "indexed": true,
          "internalType": "address",
          "name": "previousOwner",
          "type": "address"
        },
        {
          "indexed": true,
          "internalType": "address",
          "name": "newOwner",
          "type": "address"
        }
      ],
      "name": "OwnershipTransferred",
      "type": "event"
    },
    {
      "anonymous": false,
      "inputs": [
        {
          "indexed": false,
          "internalType": "address",
          "name": "account",
          "type": "address"
        }
      ],
      "name": "Paused",
      "type": "event"
    },
    {
      "anonymous": false,
      "inputs": [
        {
          "indexed": true,
          "internalType": "uint256",
          "name": "oldLoanId",
          "type": "uint256"
        },
        {
          "indexed": true,
          "internalType": "uint32",
          "name": "newLoanId",
          "type": "uint32"
        }
      ],
      "name": "Refinanced",
      "type": "event"
    },
    {
      "anonymous": false,
      "inputs": [
        {
          "indexed": true,
          "internalType": "bytes32",
          "name": "refinanceableType",
          "type": "bytes32"
        },
        {
          "indexed": true,
          "internalType": "address",
          "name": "refinancingAdapter",
          "type": "address"
        }
      ],
      "name": "TypeUpdated",
      "type": "event"
    },
    {
      "anonymous": false,
      "inputs": [
        {
          "indexed": false,
          "internalType": "address",
          "name": "account",
          "type": "address"
        }
      ],
      "name": "Unpaused",
      "type": "event"
    },
    {
      "inputs": [],
      "name": "acceptTransferOwnership",
      "outputs": [],
      "stateMutability": "nonpayable",
      "type": "function"
    },
    {
      "inputs": [
        {
          "internalType": "address",
          "name": "sender",
          "type": "address"
        },
        {
          "components": [
            {
              "internalType": "address",
              "name": "owner",
              "type": "address"
            },
            {
              "internalType": "uint256",
              "name": "number",
              "type": "uint256"
            }
          ],
          "internalType": "struct IFlashloan.AccountInfo",
          "name": "",
          "type": "tuple"
        },
        {
          "internalType": "bytes",
          "name": "_data",
          "type": "bytes"
        }
      ],
      "name": "callFunction",
      "outputs": [],
      "stateMutability": "nonpayable",
      "type": "function"
    },
    {
      "inputs": [],
      "name": "cancelTransferOwnership",
      "outputs": [],
      "stateMutability": "nonpayable",
      "type": "function"
    },
    {
      "inputs": [],
      "name": "flashloanFee",
      "outputs": [
        {
          "internalType": "uint256",
          "name": "",
          "type": "uint256"
        }
      ],
      "stateMutability": "view",
      "type": "function"
    },
    {
      "inputs": [
        {
          "internalType": "address",
          "name": "_refinanceableContract",
          "type": "address"
        }
      ],
      "name": "getRefinanceableContract",
      "outputs": [
        {
          "internalType": "bytes32",
          "name": "",
          "type": "bytes32"
        }
      ],
      "stateMutability": "view",
      "type": "function"
    },
    {
      "inputs": [
        {
          "internalType": "address",
          "name": "_refinanceableContract",
          "type": "address"
        }
      ],
      "name": "getRefinancingAdapter",
      "outputs": [
        {
          "internalType": "address",
          "name": "",
          "type": "address"
        }
      ],
      "stateMutability": "view",
      "type": "function"
    },
    {
      "inputs": [
        {
          "internalType": "bytes32",
          "name": "_refinanceableType",
          "type": "bytes32"
        }
      ],
      "name": "getRefinancingAdapterOfType",
      "outputs": [
        {
          "internalType": "address",
          "name": "",
          "type": "address"
        }
      ],
      "stateMutability": "view",
      "type": "function"
    },
    {
      "inputs": [
        {
          "internalType": "address",
          "name": "_token",
          "type": "address"
        }
      ],
      "name": "getSwapFeeRate",
      "outputs": [
        {
          "internalType": "uint24",
          "name": "",
          "type": "uint24"
        }
      ],
      "stateMutability": "view",
      "type": "function"
    },
    {
      "inputs": [
        {
          "internalType": "address",
          "name": "_tokenIn",
          "type": "address"
        },
        {
          "internalType": "uint256",
          "name": "_amountOut",
          "type": "uint256"
        }
      ],
      "name": "getTokenAmountNeeded",
      "outputs": [
        {
          "internalType": "uint256",
          "name": "",
          "type": "uint256"
        }
      ],
      "stateMutability": "nonpayable",
      "type": "function"
    },
    {
      "inputs": [
        {
          "internalType": "address",
          "name": "_tokenOut",
          "type": "address"
        },
        {
          "internalType": "uint256",
          "name": "_amountOut",
          "type": "uint256"
        }
      ],
      "name": "getWethAmountNeeded",
      "outputs": [
        {
          "internalType": "uint256",
          "name": "",
          "type": "uint256"
        }
      ],
      "stateMutability": "nonpayable",
      "type": "function"
    },
    {
      "inputs": [],
      "name": "hub",
      "outputs": [
        {
          "internalType": "contract INftfiHub",
          "name": "",
          "type": "address"
        }
      ],
      "stateMutability": "view",
      "type": "function"
    },
    {
      "inputs": [],
      "name": "loadTokens",
      "outputs": [],
      "stateMutability": "nonpayable",
      "type": "function"
    },
    {
      "inputs": [
        {
          "internalType": "address",
          "name": "",
          "type": "address"
        }
      ],
      "name": "marketIds",
      "outputs": [
        {
          "internalType": "uint256",
          "name": "",
          "type": "uint256"
        }
      ],
      "stateMutability": "view",
      "type": "function"
    },
    {
      "inputs": [
        {
          "internalType": "address",
          "name": "",
          "type": "address"
        },
        {
          "internalType": "address",
          "name": "",
          "type": "address"
        },
        {
          "internalType": "uint256[]",
          "name": "",
          "type": "uint256[]"
        },
        {
          "internalType": "uint256[]",
          "name": "",
          "type": "uint256[]"
        },
        {
          "internalType": "bytes",
          "name": "",
          "type": "bytes"
        }
      ],
      "name": "onERC1155BatchReceived",
      "outputs": [
        {
          "internalType": "bytes4",
          "name": "",
          "type": "bytes4"
        }
      ],
      "stateMutability": "nonpayable",
      "type": "function"
    },
    {
      "inputs": [
        {
          "internalType": "address",
          "name": "",
          "type": "address"
        },
        {
          "internalType": "address",
          "name": "",
          "type": "address"
        },
        {
          "internalType": "uint256",
          "name": "",
          "type": "uint256"
        },
        {
          "internalType": "uint256",
          "name": "",
          "type": "uint256"
        },
        {
          "internalType": "bytes",
          "name": "",
          "type": "bytes"
        }
      ],
      "name": "onERC1155Received",
      "outputs": [
        {
          "internalType": "bytes4",
          "name": "",
          "type": "bytes4"
        }
      ],
      "stateMutability": "nonpayable",
      "type": "function"
    },
    {
      "inputs": [
        {
          "internalType": "address",
          "name": "",
          "type": "address"
        },
        {
          "internalType": "address",
          "name": "",
          "type": "address"
        },
        {
          "internalType": "uint256",
          "name": "",
          "type": "uint256"
        },
        {
          "internalType": "bytes",
          "name": "",
          "type": "bytes"
        }
      ],
      "name": "onERC721Received",
      "outputs": [
        {
          "internalType": "bytes4",
          "name": "",
          "type": "bytes4"
        }
      ],
      "stateMutability": "nonpayable",
      "type": "function"
    },
    {
      "inputs": [],
      "name": "owner",
      "outputs": [
        {
          "internalType": "address",
          "name": "",
          "type": "address"
        }
      ],
      "stateMutability": "view",
      "type": "function"
    },
    {
      "inputs": [],
      "name": "pause",
      "outputs": [],
      "stateMutability": "nonpayable",
      "type": "function"
    },
    {
      "inputs": [],
      "name": "paused",
      "outputs": [
        {
          "internalType": "bool",
          "name": "",
          "type": "bool"
        }
      ],
      "stateMutability": "view",
      "type": "function"
    },
    {
      "inputs": [],
      "name": "quoterAddress",
      "outputs": [
        {
          "internalType": "address",
          "name": "",
          "type": "address"
        }
      ],
      "stateMutability": "view",
      "type": "function"
    },
    {
      "inputs": [
        {
          "components": [
            {
              "internalType": "uint256",
              "name": "loanIdentifier",
              "type": "uint256"
            },
            {
              "internalType": "address",
              "name": "refinanceableContract",
              "type": "address"
            }
          ],
          "internalType": "struct Refinancing.RefinancingData",
          "name": "_refinancingData",
          "type": "tuple"
        },
        {
          "components": [
            {
              "internalType": "uint256",
              "name": "loanPrincipalAmount",
              "type": "uint256"
            },
            {
              "internalType": "uint256",
              "name": "maximumRepaymentAmount",
              "type": "uint256"
            },
            {
              "internalType": "uint256",
              "name": "nftCollateralId",
              "type": "uint256"
            },
            {
              "internalType": "address",
              "name": "nftCollateralContract",
              "type": "address"
            },
            {
              "internalType": "uint32",
              "name": "loanDuration",
              "type": "uint32"
            },
            {
              "internalType": "uint16",
              "name": "loanAdminFeeInBasisPoints",
              "type": "uint16"
            },
            {
              "internalType": "address",
              "name": "loanERC20Denomination",
              "type": "address"
            },
            {
              "internalType": "address",
              "name": "referrer",
              "type": "address"
            }
          ],
          "internalType": "struct LoanData.Offer",
          "name": "_offer",
          "type": "tuple"
        },
        {
          "components": [
            {
              "internalType": "uint256",
              "name": "nonce",
              "type": "uint256"
            },
            {
              "internalType": "uint256",
              "name": "expiry",
              "type": "uint256"
            },
            {
              "internalType": "address",
              "name": "signer",
              "type": "address"
            },
            {
              "internalType": "bytes",
              "name": "signature",
              "type": "bytes"
            }
          ],
          "internalType": "struct LoanData.Signature",
          "name": "_lenderSignature",
          "type": "tuple"
        },
        {
          "components": [
            {
              "internalType": "address",
              "name": "revenueSharePartner",
              "type": "address"
            },
            {
              "internalType": "uint16",
              "name": "referralFeeInBasisPoints",
              "type": "uint16"
            }
          ],
          "internalType": "struct LoanData.BorrowerSettings",
          "name": "_borrowerSettings",
          "type": "tuple"
        }
      ],
      "name": "refinanceCollectionOfferLoan",
      "outputs": [],
      "stateMutability": "nonpayable",
      "type": "function"
    },
    {
      "inputs": [
        {
          "components": [
            {
              "internalType": "uint256",
              "name": "loanIdentifier",
              "type": "uint256"
            },
            {
              "internalType": "address",
              "name": "refinanceableContract",
              "type": "address"
            }
          ],
          "internalType": "struct Refinancing.RefinancingData",
          "name": "_refinancingData",
          "type": "tuple"
        },
        {
          "components": [
            {
              "internalType": "uint256",
              "name": "loanPrincipalAmount",
              "type": "uint256"
            },
            {
              "internalType": "uint256",
              "name": "maximumRepaymentAmount",
              "type": "uint256"
            },
            {
              "internalType": "uint256",
              "name": "nftCollateralId",
              "type": "uint256"
            },
            {
              "internalType": "address",
              "name": "nftCollateralContract",
              "type": "address"
            },
            {
              "internalType": "uint32",
              "name": "loanDuration",
              "type": "uint32"
            },
            {
              "internalType": "uint16",
              "name": "loanAdminFeeInBasisPoints",
              "type": "uint16"
            },
            {
              "internalType": "address",
              "name": "loanERC20Denomination",
              "type": "address"
            },
            {
              "internalType": "address",
              "name": "referrer",
              "type": "address"
            }
          ],
          "internalType": "struct LoanData.Offer",
          "name": "_offer",
          "type": "tuple"
        },
        {
          "components": [
            {
              "internalType": "uint256",
              "name": "minId",
              "type": "uint256"
            },
            {
              "internalType": "uint256",
              "name": "maxId",
              "type": "uint256"
            }
          ],
          "internalType": "struct LoanData.CollectionIdRange",
          "name": "_idRange",
          "type": "tuple"
        },
        {
          "components": [
            {
              "internalType": "uint256",
              "name": "nonce",
              "type": "uint256"
            },
            {
              "internalType": "uint256",
              "name": "expiry",
              "type": "uint256"
            },
            {
              "internalType": "address",
              "name": "signer",
              "type": "address"
            },
            {
              "internalType": "bytes",
              "name": "signature",
              "type": "bytes"
            }
          ],
          "internalType": "struct LoanData.Signature",
          "name": "_lenderSignature",
          "type": "tuple"
        },
        {
          "components": [
            {
              "internalType": "address",
              "name": "revenueSharePartner",
              "type": "address"
            },
            {
              "internalType": "uint16",
              "name": "referralFeeInBasisPoints",
              "type": "uint16"
            }
          ],
          "internalType": "struct LoanData.BorrowerSettings",
          "name": "_borrowerSettings",
          "type": "tuple"
        }
      ],
      "name": "refinanceCollectionRangeOfferLoan",
      "outputs": [],
      "stateMutability": "nonpayable",
      "type": "function"
    },
    {
      "inputs": [
        {
          "components": [
            {
              "internalType": "uint256",
              "name": "loanIdentifier",
              "type": "uint256"
            },
            {
              "internalType": "address",
              "name": "refinanceableContract",
              "type": "address"
            }
          ],
          "internalType": "struct Refinancing.RefinancingData",
          "name": "_refinancingData",
          "type": "tuple"
        },
        {
          "components": [
            {
              "internalType": "uint256",
              "name": "loanPrincipalAmount",
              "type": "uint256"
            },
            {
              "internalType": "uint256",
              "name": "maximumRepaymentAmount",
              "type": "uint256"
            },
            {
              "internalType": "uint256",
              "name": "nftCollateralId",
              "type": "uint256"
            },
            {
              "internalType": "address",
              "name": "nftCollateralContract",
              "type": "address"
            },
            {
              "internalType": "uint32",
              "name": "loanDuration",
              "type": "uint32"
            },
            {
              "internalType": "uint16",
              "name": "loanAdminFeeInBasisPoints",
              "type": "uint16"
            },
            {
              "internalType": "address",
              "name": "loanERC20Denomination",
              "type": "address"
            },
            {
              "internalType": "address",
              "name": "referrer",
              "type": "address"
            }
          ],
          "internalType": "struct LoanData.Offer",
          "name": "_offer",
          "type": "tuple"
        },
        {
          "components": [
            {
              "internalType": "uint256",
              "name": "nonce",
              "type": "uint256"
            },
            {
              "internalType": "uint256",
              "name": "expiry",
              "type": "uint256"
            },
            {
              "internalType": "address",
              "name": "signer",
              "type": "address"
            },
            {
              "internalType": "bytes",
              "name": "signature",
              "type": "bytes"
            }
          ],
          "internalType": "struct LoanData.Signature",
          "name": "_lenderSignature",
          "type": "tuple"
        },
        {
          "components": [
            {
              "internalType": "address",
              "name": "revenueSharePartner",
              "type": "address"
            },
            {
              "internalType": "uint16",
              "name": "referralFeeInBasisPoints",
              "type": "uint16"
            }
          ],
          "internalType": "struct LoanData.BorrowerSettings",
          "name": "_borrowerSettings",
          "type": "tuple"
        }
      ],
      "name": "refinanceLoan",
      "outputs": [],
      "stateMutability": "nonpayable",
      "type": "function"
    },
    {
      "inputs": [],
      "name": "rejectTransferOwnership",
      "outputs": [],
      "stateMutability": "nonpayable",
      "type": "function"
    },
    {
      "inputs": [
        {
          "internalType": "address",
          "name": "_newOwnerCandidate",
          "type": "address"
        }
      ],
      "name": "requestTransferOwnership",
      "outputs": [],
      "stateMutability": "nonpayable",
      "type": "function"
    },
    {
      "inputs": [
        {
          "internalType": "uint256",
          "name": "_flashloanFee",
          "type": "uint256"
        }
      ],
      "name": "setFlashloanFee",
      "outputs": [],
      "stateMutability": "nonpayable",
      "type": "function"
    },
    {
      "inputs": [
        {
          "internalType": "address",
          "name": "_refinanceableContract",
          "type": "address"
        },
        {
          "internalType": "string",
          "name": "_refinanceableType",
          "type": "string"
        }
      ],
      "name": "setRefinanceableContract",
      "outputs": [],
      "stateMutability": "nonpayable",
      "type": "function"
    },
    {
      "inputs": [
        {
          "internalType": "address[]",
          "name": "_refinanceableContracts",
          "type": "address[]"
        },
        {
          "internalType": "string[]",
          "name": "_refinanceableTypes",
          "type": "string[]"
        }
      ],
      "name": "setRefinanceableContracts",
      "outputs": [],
      "stateMutability": "nonpayable",
      "type": "function"
    },
    {
      "inputs": [
        {
          "internalType": "string",
          "name": "_refinanceableType",
          "type": "string"
        },
        {
          "internalType": "address",
          "name": "_refinancingAdapter",
          "type": "address"
        }
      ],
      "name": "setRefinanceableType",
      "outputs": [],
      "stateMutability": "nonpayable",
      "type": "function"
    },
    {
      "inputs": [
        {
          "internalType": "string[]",
          "name": "_refinanceableTypes",
          "type": "string[]"
        },
        {
          "internalType": "address[]",
          "name": "_refinancingAdapters",
          "type": "address[]"
        }
      ],
      "name": "setRefinanceableTypes",
      "outputs": [],
      "stateMutability": "nonpayable",
      "type": "function"
    },
    {
      "inputs": [
        {
          "internalType": "address",
          "name": "_supportedToken",
          "type": "address"
        },
        {
          "internalType": "uint24",
          "name": "_swapFeeRate",
          "type": "uint24"
        }
      ],
      "name": "setSupportedTokenSwapFeeRate",
      "outputs": [],
      "stateMutability": "nonpayable",
      "type": "function"
    },
    {
      "inputs": [
        {
          "internalType": "address[]",
          "name": "_supportedTokens",
          "type": "address[]"
        },
        {
          "internalType": "uint24[]",
          "name": "_swapFeeRates",
          "type": "uint24[]"
        }
      ],
      "name": "setSupportedTokenSwapFeeRates",
      "outputs": [],
      "stateMutability": "nonpayable",
      "type": "function"
    },
    {
      "inputs": [
        {
          "internalType": "address",
          "name": "_targetLoanFixedOfferContract",
          "type": "address"
        }
      ],
      "name": "setTargetLoanFixedOfferContract",
      "outputs": [],
      "stateMutability": "nonpayable",
      "type": "function"
    },
    {
      "inputs": [
        {
          "internalType": "address",
          "name": "_targetLoanCollectionOfferContract",
          "type": "address"
        }
      ],
      "name": "settargetLoanCollectionOfferContract",
      "outputs": [],
      "stateMutability": "nonpayable",
      "type": "function"
    },
    {
      "inputs": [],
      "name": "soloMargin",
      "outputs": [
        {
          "internalType": "contract ISoloMargin",
          "name": "",
          "type": "address"
        }
      ],
      "stateMutability": "view",
      "type": "function"
    },
    {
      "inputs": [
        {
          "internalType": "address",
          "name": "",
          "type": "address"
        }
      ],
      "name": "supportedTokenFeeRates",
      "outputs": [
        {
          "internalType": "uint24",
          "name": "",
          "type": "uint24"
        }
      ],
      "stateMutability": "view",
      "type": "function"
    },
    {
      "inputs": [
        {
          "internalType": "bytes4",
          "name": "_interfaceId",
          "type": "bytes4"
        }
      ],
      "name": "supportsInterface",
      "outputs": [
        {
          "internalType": "bool",
          "name": "",
          "type": "bool"
        }
      ],
      "stateMutability": "view",
      "type": "function"
    },
    {
      "inputs": [],
      "name": "swapRouterAddress",
      "outputs": [
        {
          "internalType": "address",
          "name": "",
          "type": "address"
        }
      ],
      "stateMutability": "view",
      "type": "function"
    },
    {
      "inputs": [],
      "name": "targetLoanCollectionOfferContract",
      "outputs": [
        {
          "internalType": "address",
          "name": "",
          "type": "address"
        }
      ],
      "stateMutability": "view",
      "type": "function"
    },
    {
      "inputs": [],
      "name": "targetLoanFixedOfferContract",
      "outputs": [
        {
          "internalType": "address",
          "name": "",
          "type": "address"
        }
      ],
      "stateMutability": "view",
      "type": "function"
    },
    {
      "inputs": [
        {
          "internalType": "address",
          "name": "",
          "type": "address"
        }
      ],
      "name": "tokenFlashloanble",
      "outputs": [
        {
          "internalType": "bool",
          "name": "",
          "type": "bool"
        }
      ],
      "stateMutability": "view",
      "type": "function"
    },
    {
      "inputs": [],
      "name": "unpause",
      "outputs": [],
      "stateMutability": "nonpayable",
      "type": "function"
    },
    {
      "inputs": [],
      "name": "wethAddress",
      "outputs": [
        {
          "internalType": "address",
          "name": "",
          "type": "address"
        }
      ],
      "stateMutability": "view",
      "type": "function"
    }
  ],
  "transactionHash": "0x411c144843849928545c6ebd29e382dabc94cd580ba253f405d69f43494f408c",
  "args": [
    "0xa12E49d6fD2994d8606daca8963C84bB699962b7",
    "0x170605b4753eB8837a08D3e58aF012B68eeD06b9",
    "0x668aa2e694434C5Dc72D3AEb863762A66354EA2A",
    "0xbeEBCD47B8315B9fFC949318269A329AEb7D97b4",
    [
      "NFTFI"
    ],
    [
      "0xA5ae5631392B4C8e74f2035c5b780E43641588D0"
    ],
    [
      "NFTFI",
      "NFTFI"
    ],
    [
      "0x170605b4753eB8837a08D3e58aF012B68eeD06b9",
      "0x668aa2e694434C5Dc72D3AEb863762A66354EA2A"
    ],
    "0xCb0b3684D579Bb6192504bD730969659D6ee2CbE",
    2,
    {
      "swapRouterAddress": "0x3bFA4769FB09eefC5a80d6E87c3B9C650f7Ae48E",
      "quoterAddress": "0xEd1f6473345F45b75F8179591dd5bA1888cf2FB3",
      "wethAddress": "0x7b79995e5f793a07bc00c21412e50ecae098e7f9",
      "supportedTokens": [],
      "swapFeeRates": []
    }
  ],
  "numDeployments": 3,
  "solcInputHash": "bd12044fce9ac96838404bff6713591d",
  "bytecode": "0x6101206040523480156200001257600080fd5b50604051620055ac380380620055ac833981016040819052620000359162000af5565b8083838a8a8a8a8a84620000498162000118565b5062000056848462000168565b62000062818362000254565b505050506001600160a01b038316608081905260068390551590506200008d576200008d8262000337565b505080516001600160a01b0390811660a0526020820151811660c05260408201511660e05260608101516080820151620000c89190620003f9565b50506008805460ff19169055505060016009555050506001600160a01b03948516610100525050600a80549284166001600160a01b0319938416179055600b805491909316911617905562000d10565b600080546001600160a01b038381166001600160a01b0319831681178455604051919092169283917f8be0079c531659141344cd1fd0a4f28419497f9722a3daafe3b4186f6b6457e09190a35050565b8051825114620001e55760405162461bcd60e51b815260206004820152603960248201527f736574526566696e616e636561626c6554797065732066756e6374696f6e206960448201527f6e666f726d6174696f6e206172697479206d69736d617463680000000000000060648201526084015b60405180910390fd5b60005b81518110156200024f576200023c8382815181106200020b576200020b62000c5e565b602002602001015183838151811062000228576200022862000c5e565b60200260200101516200048660201b60201c565b620002478162000c74565b9050620001e8565b505050565b8051825114620002cd5760405162461bcd60e51b815260206004820152603d60248201527f736574526566696e616e636561626c65436f6e7472616374732066756e63746960448201527f6f6e20696e666f726d6174696f6e206172697479206d69736d617463680000006064820152608401620001dc565b60005b82518110156200024f5762000324838281518110620002f357620002f362000c5e565b602002602001015183838151811062000310576200031062000c5e565b6020026020010151620005b460201b60201c565b6200032f8162000c74565b9050620002d0565b60005b60038111620003f55760405163062bd3e960e01b8152600481018290526000906001600160a01b0384169063062bd3e990602401602060405180830381865afa1580156200038c573d6000803e3d6000fd5b505050506040513d601f19601f82011682018060405250810190620003b2919062000c9c565b6001600160a01b03166000908152600460209081526040808320805460ff191660011790556005909152902082905550620003ed8162000c74565b90506200033a565b5050565b80518251146200041c576040516306ea008f60e21b815260040160405180910390fd5b60005b82518110156200024f576200047383828151811062000442576200044262000c5e565b60200260200101518383815181106200045f576200045f62000c5e565b60200260200101516200075b60201b60201c565b6200047e8162000c74565b90506200041f565b8151600003620004d95760405162461bcd60e51b815260206004820152601a60248201527f726566696e616e636561626c655479706520697320656d7074790000000000006044820152606401620001dc565b60405163f99a8ffb60e01b8152600090736910bE31b0674C03C23beD7665E2344E5Fd0F42B9063f99a8ffb906200051590869060040162000cc1565b602060405180830381865af415801562000533573d6000803e3d6000fd5b505050506040513d601f19601f8201168201806040525081019062000559919062000cf6565b60008181526002602052604080822080546001600160a01b0319166001600160a01b03871690811790915590519293509183917f22be69269c1f7d73e73dcb25b710dd88c7aa1cf374c16d945def98df2107c2f891a3505050565b6001600160a01b0382166200061a5760405162461bcd60e51b815260206004820152602560248201527f726566696e616e636561626c65436f6e7472616374206973207a65726f206164604482015264647265737360d81b6064820152608401620001dc565b60405163f99a8ffb60e01b8152600090736910bE31b0674C03C23beD7665E2344E5Fd0F42B9063f99a8ffb906200065690859060040162000cc1565b602060405180830381865af415801562000674573d6000803e3d6000fd5b505050506040513d601f19601f820116820180604052508101906200069a919062000cf6565b9050801562000713576000818152600260205260409020546001600160a01b0316620007135760405162461bcd60e51b815260206004820152602160248201527f726566696e616e636561626c652074797065206e6f74207265676973746572656044820152601960fa1b6064820152608401620001dc565b6001600160a01b038316600081815260036020526040808220849055518392917fbc1ee51e22f75dc0717328a68abc443efc99d36fc942fc68f0a18bfffa67270191a3505050565b6001600160a01b03919091166000908152600760205260409020805462ffffff191662ffffff909216919091179055565b80516001600160a01b0381168114620007a457600080fd5b919050565b634e487b7160e01b600052604160045260246000fd5b60405160a081016001600160401b0381118282101715620007e457620007e4620007a9565b60405290565b604051601f8201601f191681016001600160401b0381118282101715620008155762000815620007a9565b604052919050565b60006001600160401b03821115620008395762000839620007a9565b5060051b60200190565b60005b838110156200086057818101518382015260200162000846565b50506000910152565b6000601f83818401126200087c57600080fd5b82516020620008956200088f836200081d565b620007ea565b82815260059290921b85018101918181019087841115620008b557600080fd5b8287015b84811015620009575780516001600160401b0380821115620008db5760008081fd5b818a0191508a603f830112620008f15760008081fd5b858201516040828211156200090a576200090a620007a9565b6200091d828b01601f19168901620007ea565b92508183528c81838601011115620009355760008081fd5b620009468289850183870162000843565b5050845250918301918301620008b9565b50979650505050505050565b600082601f8301126200097557600080fd5b81516020620009886200088f836200081d565b82815260059290921b84018101918181019086841115620009a857600080fd5b8286015b84811015620009ce57620009c0816200078c565b8352918301918301620009ac565b509695505050505050565b600060a08284031215620009ec57600080fd5b620009f6620007bf565b905062000a03826200078c565b8152602062000a148184016200078c565b8183015262000a26604084016200078c565b604083015260608301516001600160401b038082111562000a4657600080fd5b62000a548683870162000963565b6060850152608085015191508082111562000a6e57600080fd5b508301601f8101851362000a8157600080fd5b805162000a926200088f826200081d565b81815260059190911b8201830190838101908783111562000ab257600080fd5b928401925b8284101562000ae557835162ffffff8116811462000ad55760008081fd5b8252928401929084019062000ab7565b6080860152509295945050505050565b60008060008060008060008060008060006101608c8e03121562000b1857600080fd5b62000b238c6200078c565b9a5062000b3360208d016200078c565b995062000b4360408d016200078c565b985062000b5360608d016200078c565b60808d01519098506001600160401b0381111562000b7057600080fd5b62000b7e8e828f0162000869565b60a08e015190985090506001600160401b0381111562000b9d57600080fd5b62000bab8e828f0162000963565b60c08e015190975090506001600160401b0381111562000bca57600080fd5b62000bd88e828f0162000869565b60e08e015190965090506001600160401b0381111562000bf757600080fd5b62000c058e828f0162000963565b94505062000c176101008d016200078c565b6101208d01516101408e015191945092506001600160401b0381111562000c3d57600080fd5b62000c4b8e828f01620009d9565b9150509295989b509295989b9093969950565b634e487b7160e01b600052603260045260246000fd5b60006001820162000c9557634e487b7160e01b600052601160045260246000fd5b5060010190565b60006020828403121562000caf57600080fd5b62000cba826200078c565b9392505050565b602081526000825180602084015262000ce281604085016020870162000843565b601f01601f19169190910160400192915050565b60006020828403121562000d0957600080fd5b5051919050565b60805160a05160c05160e051610100516147d262000dda600039600081816104070152612c4d01526000818161049201528181610858015281816109d70152818161147601528181612313015281816123a30152818161247b0152612aab0152600081816102e30152818161082901526109a7015260008181610539015281816123d001528181612440015281816129f10152612a6101526000818161030a01528181610ab001528181610d50015281816114a501528181611da80152611eca01526147d26000f3fe608060405234801561001057600080fd5b50600436106102695760003560e01c80635c975abb116101515780639d6fa618116100c3578063edddad6c11610087578063edddad6c146105cf578063f23a6e61146105e2578063f5a1204214610602578063f8f05a321461060a578063f9a691361461061d578063fd5559e71461063057600080fd5b80639d6fa61814610563578063bc197c8114610576578063c00358f214610589578063e090c76f1461059c578063e7ded902146105bc57600080fd5b80637b371107116101155780637b371107146105095780638456cb59146105115780638b418713146105195780638da5cb5b1461052c57806390fcdb361461053457806392fede001461055b57600080fd5b80635c975abb146104bd5780635f992fdd146104c857806364169d41146104d05780637782d5e0146104e35780637aa781f3146104f657600080fd5b8063311f463f116101ea5780633f4ba83a116101ae5780633f4ba83a1461044c57806342092bc214610454578063429180d2146104675780634ae8ba001461047a5780634f0e0ef31461048d5780635ba0f6e8146104b457600080fd5b8063311f463f146103b557806334169175146103c85780633424752a146103ef578063365a86fc146104025780633d2d53741461042957600080fd5b8063134f6d3a11610231578063134f6d3a14610305578063150b7a021461032c57806324ad0ae2146103585780632aacd1c11461036b5780632b4c5859146103a257600080fd5b806301ffc9a71461026e5780630cb95b02146102965780630e4248c9146102ab5780630e4cb1f9146102cb57806311a2f0cb146102de575b600080fd5b61028161027c3660046133ee565b610655565b60405190151581526020015b60405180910390f35b6102a96102a436600461370a565b6106a7565b005b600b546102be906001600160a01b031681565b60405161028d919061377e565b600a546102be906001600160a01b031681565b6102be7f000000000000000000000000000000000000000000000000000000000000000081565b6102be7f000000000000000000000000000000000000000000000000000000000000000081565b61033f61033a366004613792565b6106dc565b6040516001600160e01b0319909116815260200161028d565b6102a96103663660046137fd565b6106ed565b6103946103793660046138a6565b6001600160a01b031660009081526003602052604090205490565b60405190815260200161028d565b6102a96103b03660046139d4565b6106fd565b6102a96103c3366004613a37565b610743565b6103db6103d63660046138a6565b610777565b60405162ffffff909116815260200161028d565b6102a96103fd366004613a50565b610797565b6102be7f000000000000000000000000000000000000000000000000000000000000000081565b6102816104373660046138a6565b60046020526000908152604090205460ff1681565b6102a96107d0565b6102a961046236600461370a565b610809565b610394610475366004613aa1565b610825565b6102a9610488366004613ae0565b610913565b6102be7f000000000000000000000000000000000000000000000000000000000000000081565b61039460065481565b60085460ff16610281565b6102a961094c565b6102be6104de366004613a37565b610988565b6103946104f1366004613aa1565b6109a3565b6102a9610504366004613ba1565b6109ff565b6102a9610a38565b6102a9610a77565b6102a9610527366004613bd6565b610aae565b6102be610b78565b6102be7f000000000000000000000000000000000000000000000000000000000000000081565b6102a9610b87565b6102a96105713660046138a6565b610bb6565b61033f610584366004613ce4565b610c6c565b6102a9610597366004613da2565b610cb7565b6103946105aa3660046138a6565b60056020526000908152604090205481565b6102be6105ca3660046138a6565b610cf0565b6102a96105dd366004613de7565b610d12565b61033f6105f0366004613e40565b63f23a6e6160e01b9695505050505050565b6102a9610d4b565b6102a96106183660046138a6565b610d74565b6102a961062b3660046138a6565b610dc5565b6103db61063e3660046138a6565b60076020526000908152604090205462ffffff1681565b60006001600160e01b03198216630271189760e51b148061068657506001600160e01b03198216630a85bd0160e11b145b806106a157506001600160e01b031982166301ffc9a760e01b145b92915050565b60006106c6604051806040016040528060008152602001600081525090565b6106d4828787848888610e16565b505050505050565b630a85bd0160e11b5b949350505050565b60026106d4818787878787610e16565b33610706610b78565b6001600160a01b0316146107355760405162461bcd60e51b815260040161072c90613ebb565b60405180910390fd5b61073f8282610ff6565b5050565b3361074c610b78565b6001600160a01b0316146107725760405162461bcd60e51b815260040161072c90613ebb565b600655565b6001600160a01b031660009081526007602052604090205462ffffff1690565b336107a0610b78565b6001600160a01b0316146107c65760405162461bcd60e51b815260040161072c90613ebb565b61073f82826110ca565b336107d9610b78565b6001600160a01b0316146107ff5760405162461bcd60e51b815260040161072c90613ebb565b6108076111f1565b565b60408051808201909152600080825260208201526001906106c6565b60007f00000000000000000000000000000000000000000000000000000000000000006001600160a01b03166330d07f217f00000000000000000000000000000000000000000000000000000000000000008561088187610777565b6040516001600160e01b031960e086901b1681526001600160a01b03938416600482015292909116602483015262ffffff166044820152606481018590526000608482015260a4016020604051808303816000875af11580156108e8573d6000803e3d6000fd5b505050506040513d601f19601f8201168201806040525081019061090c9190613ef0565b9392505050565b3361091c610b78565b6001600160a01b0316146109425760405162461bcd60e51b815260040161072c90613ebb565b61073f828261123d565b6001546001600160a01b031633146109765760405162461bcd60e51b815260040161072c90613f09565b600180546001600160a01b0319169055565b6000908152600260205260409020546001600160a01b031690565b60007f00000000000000000000000000000000000000000000000000000000000000006001600160a01b03166330d07f21847f000000000000000000000000000000000000000000000000000000000000000061088187610777565b33610a08610b78565b6001600160a01b031614610a2e5760405162461bcd60e51b815260040161072c90613ebb565b61073f82826112b7565b6001546001600160a01b03163314610a625760405162461bcd60e51b815260040161072c90613f09565b600154610976906001600160a01b03166112e8565b33610a80610b78565b6001600160a01b031614610aa65760405162461bcd60e51b815260040161072c90613ebb565b610807611338565b7f00000000000000000000000000000000000000000000000000000000000000006001600160a01b03163314610af75760405163d3ed9d4d60e01b815260040160405180910390fd5b6001600160a01b0383163014610b20576040516315089afb60e21b815260040160405180910390fd5b6000806000806000806000806000808a806020019051810190610b439190614151565b9950995099509950995099509950995099509950610b698a8a8a8a8a8a8a8a8a8a611375565b50505050505050505050505050565b6000546001600160a01b031690565b33610b90610b78565b6001600160a01b0316146109765760405162461bcd60e51b815260040161072c90613ebb565b33610bbf610b78565b6001600160a01b031614610be55760405162461bcd60e51b815260040161072c90613ebb565b6001600160a01b038116610c4a5760405162461bcd60e51b815260206004820152602660248201527f4f776e61626c653a206e6577206f776e657220697320746865207a65726f206160448201526564647265737360d01b606482015260840161072c565b600180546001600160a01b0319166001600160a01b0392909216919091179055565b60405162461bcd60e51b815260206004820152601b60248201527f45524331313535206261746368206e6f7420737570706f727465640000000000604482015260009060640161072c565b33610cc0610b78565b6001600160a01b031614610ce65760405162461bcd60e51b815260040161072c90613ebb565b61073f8282611542565b6001600160a01b03811660009081526003602052604081205461090c81610988565b33610d1b610b78565b6001600160a01b031614610d415760405162461bcd60e51b815260040161072c90613ebb565b61073f82826116dc565b6108077f00000000000000000000000000000000000000000000000000000000000000006117a7565b33610d7d610b78565b6001600160a01b031614610da35760405162461bcd60e51b815260040161072c90613ebb565b600b80546001600160a01b0319166001600160a01b0392909216919091179055565b33610dce610b78565b6001600160a01b031614610df45760405162461bcd60e51b815260040161072c90613ebb565b600a80546001600160a01b0319166001600160a01b0392909216919091179055565b610e1e61185e565b610e266118a4565b6000806000806000610e3b8a60200151610cf0565b9050610e50818b602001518c600001516118fd565b94506001600160a01b03851615610e8f576001600160a01b0385163314610e8a5760405163a1d2c4af60e01b815260040160405180910390fd5b610e93565b3394505b6000610ea8828c602001518d600001516119a7565b60c08c015191965091506001600160a01b03808716911614610edd5760405163df03d9cf60e01b815260040160405180910390fd5b610ef0828c602001518d60000151611a55565b610efa8582611ae8565b94509250610f1491508590508484848e8e8e8e8e8e611b2d565b6040516370a0823160e01b81526000906001600160a01b038516906370a0823190610f4390309060040161377e565b602060405180830381865afa158015610f60573d6000803e3d6000fd5b505050506040513d601f19601f82011682018060405250810190610f849190613ef0565b90508015610fa057610fa06001600160a01b0385168683611f42565b50600b548951604051600160a01b90920463ffffffff16917fb980a1928a01840d355e1c50794637d057179bd5b394dd0930efd7c0c738066a90600090a3610fe8848b611f98565b505050506106d46001600955565b805182511461106d5760405162461bcd60e51b815260206004820152603d60248201527f736574526566696e616e636561626c65436f6e7472616374732066756e63746960448201527f6f6e20696e666f726d6174696f6e206172697479206d69736d61746368000000606482015260840161072c565b60005b82518110156110c5576110b583828151811061108e5761108e61422f565b60200260200101518383815181106110a8576110a861422f565b6020026020010151611542565b6110be8161425b565b9050611070565b505050565b815160000361111b5760405162461bcd60e51b815260206004820152601a60248201527f726566696e616e636561626c655479706520697320656d707479000000000000604482015260640161072c565b60405163f99a8ffb60e01b8152600090736910bE31b0674C03C23beD7665E2344E5Fd0F42B9063f99a8ffb906111559086906004016142a0565b602060405180830381865af4158015611172573d6000803e3d6000fd5b505050506040513d601f19601f820116820180604052508101906111969190613ef0565b60008181526002602052604080822080546001600160a01b0319166001600160a01b03871690811790915590519293509183917f22be69269c1f7d73e73dcb25b710dd88c7aa1cf374c16d945def98df2107c2f891a3505050565b6111f96122b0565b6008805460ff191690557f5db9ee0a495bf2e6ff9c91a7834c1ba4fdd244a5e8aa4e537bd38aeae4b073aa335b604051611233919061377e565b60405180910390a1565b805182511461125f576040516306ea008f60e21b815260040160405180910390fd5b60005b82518110156110c5576112a78382815181106112805761128061422f565b602002602001015183838151811061129a5761129a61422f565b60200260200101516112b7565b6112b08161425b565b9050611262565b6001600160a01b03919091166000908152600760205260409020805462ffffff191662ffffff909216919091179055565b600080546001600160a01b038381166001600160a01b0319831681178455604051919092169283917f8be0079c531659141344cd1fd0a4f28419497f9722a3daafe3b4186f6b6457e09190a35050565b61134061185e565b6008805460ff191660011790557f62e78cea01bee320cd4e420270b5ea74000d11b0c9f74754ebdbfc544b05a2586112263390565b60006113848660200151610cf0565b905060008061139c8389602001518a600001516119a7565b9150915089156113b0576113b08c826122f9565b6113c58389602001518a6000015185856125b0565b50506000806113dd8389602001518a60000151612637565b915091506113ec8282306126bf565b611409576040516388c4b5fd60e01b815260040160405180910390fd5b6114168d8d8d8a8e612761565b6114296114228a6127a9565b8383612846565b5061143789888888886128e5565b600b60146101000a81548163ffffffff021916908363ffffffff1602179055508915610b69576114748c6006548d61146f91906142b3565b61295a565b7f00000000000000000000000000000000000000000000000000000000000000006001600160a01b031663095ea7b37f00000000000000000000000000000000000000000000000000000000000000006006548e6114d291906142b3565b6040518363ffffffff1660e01b81526004016114ef9291906142c6565b6020604051808303816000875af115801561150e573d6000803e3d6000fd5b505050506040513d601f19601f8201168201806040525081019061153291906142df565b5050505050505050505050505050565b6001600160a01b0382166115a65760405162461bcd60e51b815260206004820152602560248201527f726566696e616e636561626c65436f6e7472616374206973207a65726f206164604482015264647265737360d81b606482015260840161072c565b60405163f99a8ffb60e01b8152600090736910bE31b0674C03C23beD7665E2344E5Fd0F42B9063f99a8ffb906115e09085906004016142a0565b602060405180830381865af41580156115fd573d6000803e3d6000fd5b505050506040513d601f19601f820116820180604052508101906116219190613ef0565b9050801561169457600061163482610988565b6001600160a01b0316036116945760405162461bcd60e51b815260206004820152602160248201527f726566696e616e636561626c652074797065206e6f74207265676973746572656044820152601960fa1b606482015260840161072c565b6001600160a01b038316600081815260036020526040808220849055518392917fbc1ee51e22f75dc0717328a68abc443efc99d36fc942fc68f0a18bfffa67270191a3505050565b805182511461174f5760405162461bcd60e51b815260206004820152603960248201527f736574526566696e616e636561626c6554797065732066756e6374696f6e20696044820152780dcccdee4dac2e8d2dedc40c2e4d2e8f240dad2e6dac2e8c6d603b1b606482015260840161072c565b60005b81518110156110c5576117978382815181106117705761177061422f565b602002602001015183838151811061178a5761178a61422f565b60200260200101516110ca565b6117a08161425b565b9050611752565b60005b6003811161073f5760405163062bd3e960e01b8152600481018290526000906001600160a01b0384169063062bd3e990602401602060405180830381865afa1580156117fa573d6000803e3d6000fd5b505050506040513d601f19601f8201168201806040525081019061181e91906142fa565b6001600160a01b03166000908152600460209081526040808320805460ff1916600117905560059091529020829055506118578161425b565b90506117aa565b60085460ff16156108075760405162461bcd60e51b815260206004820152601060248201526f14185d5cd8589b194e881c185d5cd95960821b604482015260640161072c565b6002600954036118f65760405162461bcd60e51b815260206004820152601f60248201527f5265656e7472616e637947756172643a207265656e7472616e742063616c6c00604482015260640161072c565b6002600955565b60008061198885637da9f01860e01b868660405160240161191f9291906142c6565b604051602081830303815290604052906001600160e01b0319166020820180516001600160e01b0383818316178352505050506040518060400160405280601881526020017733b2ba2137b93937bbb2b920b2323932b9b99032b93937b960411b815250612ae1565b90508080602001905181019061199e91906142fa565b95945050505050565b6000806000611a32866310b29fee60e01b87876040516024016119cb9291906142c6565b604051602081830303815290604052906001600160e01b0319166020820180516001600160e01b0383818316178352505050506040518060400160405280601681526020017533b2ba2830bcb7b3332232ba30b4b6399032b93937b960511b815250612ae1565b905080806020019051810190611a489190614317565b9250925050935093915050565b611ae28363a4d160e360e01b8484604051602401611a749291906142c6565b604051602081830303815290604052906001600160e01b0319166020820180516001600160e01b0383818316178352505050506040518060400160405280601a81526020017f7472616e73666572426f72726f776572526f6c65206572726f72000000000000815250612ae1565b50505050565b6001600160a01b038216600090815260046020526040812054819060ff16611b1f5760019150611b188484610825565b9050611b26565b5060009050815b9250929050565b6001600160a01b038916600090815260056020526040808220548151600380825260808201909352909291816020015b611b65613378565b815260200190600190039081611b5d575050604080516101008101825260018152600060208083018290528351608081018552828152949550919392840192918201908152602001600081526020018d815250815260200183815260200160008152602001306001600160a01b03168152602001600081526020016040518060200160405280600081525081525081600081518110611c0657611c0661422f565b6020908102919091010152604080516101008101909152806008815260200160008152602001604051806080016040528060001515815260200160006001811115611c5357611c53614345565b8152602001600081526020016000815250815260200183815260200160008152602001306001600160a01b03168152602001600081526020018d8d8d8d8d8d8d8d8d8d604051602001611caf9a9998979695949392919061441a565b60405160208183030381529060405281525081600181518110611cd457611cd461422f565b6020908102919091010152604080516101008101909152806000815260200160008152602001604051806080016040528060011515815260200160006001811115611d2157611d21614345565b8152602001600081526020016006548e611d3b91906142b3565b815250815260200183815260200160008152602001306001600160a01b03168152602001600081526020016040518060200160405280600081525081525081600281518110611d8c57611d8c61422f565b60200260200101819052508a6001600160a01b031663095ea7b37f00000000000000000000000000000000000000000000000000000000000000006006548d611dd591906142b3565b6040518363ffffffff1660e01b8152600401611df29291906142c6565b6020604051808303816000875af1158015611e11573d6000803e3d6000fd5b505050506040513d601f19601f82011682018060405250810190611e3591906142df565b50604080516001808252818301909252600091816020015b6040805180820190915260008082526020820152815260200190600190039081611e4d5790505090506040518060400160405280306001600160a01b03168152602001600181525081600081518110611ea857611ea861422f565b602090810291909101015260405163a67a6a4560e01b81526001600160a01b037f0000000000000000000000000000000000000000000000000000000000000000169063a67a6a4590611f019084908690600401614508565b600060405180830381600087803b158015611f1b57600080fd5b505af1158015611f2f573d6000803e3d6000fd5b5050505050505050505050505050505050565b6110c58363a9059cbb60e01b8484604051602401611f619291906142c6565b60408051601f198184030181529190526020810180516001600160e01b03166001600160e01b031990931692909217909152612b4f565b611fa1816127a9565b600b54604051635e72172160e11b8152600160a01b90910463ffffffff1660048201526001600160a01b03919091169063bce42e4290602401600060405180830381600087803b158015611ff457600080fd5b505af1158015612008573d6000803e3d6000fd5b505050506000612017826127a9565b90506000816001600160a01b031663365a86fc6040518163ffffffff1660e01b8152600401602060405180830381865afa158015612059573d6000803e3d6000fd5b505050506040513d601f19601f8201168201806040525081019061207d91906142fa565b6001600160a01b031663e16c7d98836001600160a01b03166377cfa9916040518163ffffffff1660e01b8152600401602060405180830381865afa1580156120c9573d6000803e3d6000fd5b505050506040513d601f19601f820116820180604052508101906120ed9190613ef0565b6040518263ffffffff1660e01b815260040161210b91815260200190565b602060405180830381865afa158015612128573d6000803e3d6000fd5b505050506040513d601f19601f8201168201806040525081019061214c91906142fa565b600b5460405163e6c5a54160e01b8152600160a01b90910463ffffffff1660048201529091506000906001600160a01b0383169063e6c5a54190602401606060405180830381865afa1580156121a6573d6000803e3d6000fd5b505050506040513d601f19601f820116820180604052508101906121ca9190614639565b6020015190506000826001600160a01b0316638208e76c6040518163ffffffff1660e01b8152600401602060405180830381865afa158015612210573d6000803e3d6000fd5b505050506040513d601f19601f8201168201806040525081019061223491906142fa565b604051632142170760e11b81523060048201526001600160a01b0388811660248301526001600160401b0385166044830152919250908216906342842e0e90606401600060405180830381600087803b15801561229057600080fd5b505af11580156122a4573d6000803e3d6000fd5b50505050505050505050565b60085460ff166108075760405162461bcd60e51b815260206004820152601460248201527314185d5cd8589b194e881b9bdd081c185d5cd95960621b604482015260640161072c565b6040516370a0823160e01b81526000906001600160a01b037f000000000000000000000000000000000000000000000000000000000000000016906370a082319061234890309060040161377e565b602060405180830381865afa158015612365573d6000803e3d6000fd5b505050506040513d601f19601f820116820180604052508101906123899190613ef0565b60405163095ea7b360e01b81529091506001600160a01b037f0000000000000000000000000000000000000000000000000000000000000000169063095ea7b3906123fa907f00000000000000000000000000000000000000000000000000000000000000009085906004016142c6565b6020604051808303816000875af1158015612419573d6000803e3d6000fd5b505050506040513d601f19601f8201168201806040525081019061243d91906142df565b507f00000000000000000000000000000000000000000000000000000000000000006001600160a01b031663db3e21986040518061010001604052807f00000000000000000000000000000000000000000000000000000000000000006001600160a01b03168152602001866001600160a01b031681526020016124c087610777565b62ffffff1681523060208201526040016124db42600f6142b3565b8152602080820187905260408083018790526000606093840152805160e086811b6001600160e01b031916825285516001600160a01b03908116600484015293860151841660248301529185015162ffffff16604482015292840151821660648401526080840151608484015260a084015160a484015260c084015160c4840152929092015190911660e4820152610104016020604051808303816000875af115801561258c573d6000803e3d6000fd5b505050506040513d601f19601f82011682018060405250810190611ae29190613ef0565b604080516001600160a01b038681166024830152604482018690528416606482015260848082018490528251808303909101815260a49091018252602080820180516001600160e01b031663235fc9e160e21b179052825180840190935260118352703830bca130b1b5b637b0b71032b93937b960791b908301526106d491879190612ae1565b6000806000611a32866358024fce60e01b878760405160240161265b9291906142c6565b604051602081830303815290604052906001600160e01b0319166020820180516001600160e01b0383818316178352505050506040518060400160405280601381526020017233b2ba21b7b63630ba32b930b61032b93937b960691b815250612ae1565b6000806126cb85612c24565b905060006127418263f370e8c560e01b8689896040516024016126f0939291906146ba565b604051602081830303815290604052906001600160e01b0319166020820180516001600160e01b0383818316178352505050506040518060600160405280602281526020016147a460229139612ae1565b90508080602001905181019061275791906142df565b9695505050505050565b600061276e858584612d2c565b83519091508111156106d457825160009061278990836146de565b90506127a06001600160a01b038716883084612d5a565b50505050505050565b6000808260028111156127be576127be614345565b036127d4575050600a546001600160a01b031690565b60018260028111156127e8576127e8614345565b036127fe575050600b546001600160a01b031690565b600282600281111561281257612812614345565b03612828575050600b546001600160a01b031690565b604051631d2000df60e11b815260040160405180910390fd5b919050565b60008061285284612c24565b9050600061274182637336aaf060e01b888888604051602401612877939291906146ba565b604051602081830303815290604052906001600160e01b0319166020820180516001600160e01b0383818316178352505050506040518060400160405280601d81526020017f4e4654206e6f74207375636365737366756c6c7920617070726f766564000000815250612ae1565b6000808660028111156128fa576128fa614345565b036129115761290a858484612d7b565b905061199e565b600186600281111561292557612925614345565b036129355761290a858484612df3565b600286600281111561294957612949614345565b036128285761290a85858585612fee565b6040516370a0823160e01b81526000906001600160a01b038416906370a082319061298990309060040161377e565b602060405180830381865afa1580156129a6573d6000803e3d6000fd5b505050506040513d601f19601f820116820180604052508101906129ca9190613ef0565b60405163095ea7b360e01b81529091506001600160a01b0384169063095ea7b390612a1b907f00000000000000000000000000000000000000000000000000000000000000009085906004016142c6565b6020604051808303816000875af1158015612a3a573d6000803e3d6000fd5b505050506040513d601f19601f82011682018060405250810190612a5e91906142df565b507f00000000000000000000000000000000000000000000000000000000000000006001600160a01b031663db3e2198604051806101000160405280866001600160a01b031681526020017f00000000000000000000000000000000000000000000000000000000000000006001600160a01b031681526020016124c087610777565b6060600080856001600160a01b031685604051612afe91906146f1565b600060405180830381855af49150503d8060008114612b39576040519150601f19603f3d011682016040523d82523d6000602084013e612b3e565b606091505b5091509150612757868383876131eb565b6000612ba4826040518060400160405280602081526020017f5361666545524332303a206c6f772d6c6576656c2063616c6c206661696c6564815250856001600160a01b03166132649092919063ffffffff16565b9050805160001480612bc5575080806020019051810190612bc591906142df565b6110c55760405162461bcd60e51b815260206004820152602a60248201527f5361666545524332303a204552433230206f7065726174696f6e20646964206e6044820152691bdd081cdd58d8d9595960b21b606482015260840161072c565b604051631c2d8fb360e31b81526d5045524d49545445445f4e46545360901b60048201526000907f00000000000000000000000000000000000000000000000000000000000000006001600160a01b03169063e16c7d9890602401602060405180830381865afa158015612c9c573d6000803e3d6000fd5b505050506040513d601f19601f82011682018060405250810190612cc091906142fa565b6001600160a01b031663b8c8aff8836040518263ffffffff1660e01b8152600401612ceb919061377e565b602060405180830381865afa158015612d08573d6000803e3d6000fd5b505050506040513d601f19601f820116820180604052508101906106a191906142fa565b60008115612d4d57612d4684600654856104f191906142b3565b905061090c565b6006546106e590846142b3565b611ae2846323b872dd60e01b858585604051602401611f61939291906146ba565b600a546040516315bbfa6360e21b81526000916001600160a01b0316906356efe98c90612db09087908790879060040161470d565b6020604051808303816000875af1158015612dcf573d6000803e3d6000fd5b505050506040513d601f19601f820116820180604052508101906106e59190614740565b600b5460405163c192f4e560e01b81526000916001600160a01b031690819063c192f4e590612e2a9088908890889060040161470d565b600060405180830381600087803b158015612e4457600080fd5b505af1158015612e58573d6000803e3d6000fd5b50505050806001600160a01b031663365a86fc6040518163ffffffff1660e01b8152600401602060405180830381865afa158015612e9a573d6000803e3d6000fd5b505050506040513d601f19601f82011682018060405250810190612ebe91906142fa565b6001600160a01b031663e16c7d98826001600160a01b03166377cfa9916040518163ffffffff1660e01b8152600401602060405180830381865afa158015612f0a573d6000803e3d6000fd5b505050506040513d601f19601f82011682018060405250810190612f2e9190613ef0565b6040518263ffffffff1660e01b8152600401612f4c91815260200190565b602060405180830381865afa158015612f69573d6000803e3d6000fd5b505050506040513d601f19601f82011682018060405250810190612f8d91906142fa565b6001600160a01b0316635794fefc6040518163ffffffff1660e01b8152600401602060405180830381865afa158015612fca573d6000803e3d6000fd5b505050506040513d601f19601f8201168201806040525081019061199e9190614740565b600b546040516307e4228760e21b81526000916001600160a01b0316908190631f908a1c9061302790899089908990899060040161475d565b600060405180830381600087803b15801561304157600080fd5b505af1158015613055573d6000803e3d6000fd5b50505050806001600160a01b031663365a86fc6040518163ffffffff1660e01b8152600401602060405180830381865afa158015613097573d6000803e3d6000fd5b505050506040513d601f19601f820116820180604052508101906130bb91906142fa565b6001600160a01b031663e16c7d98826001600160a01b03166377cfa9916040518163ffffffff1660e01b8152600401602060405180830381865afa158015613107573d6000803e3d6000fd5b505050506040513d601f19601f8201168201806040525081019061312b9190613ef0565b6040518263ffffffff1660e01b815260040161314991815260200190565b602060405180830381865afa158015613166573d6000803e3d6000fd5b505050506040513d601f19601f8201168201806040525081019061318a91906142fa565b6001600160a01b0316635794fefc6040518163ffffffff1660e01b8152600401602060405180830381865afa1580156131c7573d6000803e3d6000fd5b505050506040513d601f19601f820116820180604052508101906127579190614740565b6060831561325a578251600003613253576001600160a01b0385163b6132535760405162461bcd60e51b815260206004820152601d60248201527f416464726573733a2063616c6c20746f206e6f6e2d636f6e7472616374000000604482015260640161072c565b50816106e5565b6106e58383613273565b60606106e5848460008561329d565b8151156132835781518083602001fd5b8060405162461bcd60e51b815260040161072c91906142a0565b6060824710156132fe5760405162461bcd60e51b815260206004820152602660248201527f416464726573733a20696e73756666696369656e742062616c616e636520666f6044820152651c8818d85b1b60d21b606482015260840161072c565b600080866001600160a01b0316858760405161331a91906146f1565b60006040518083038185875af1925050503d8060008114613357576040519150601f19603f3d011682016040523d82523d6000602084013e61335c565b606091505b509150915061336d878383876131eb565b979650505050505050565b6040805161010081018252600080825260208201529081016133bc604080516080810190915260008082526020820190815260200160008152602001600081525090565b8152602001600081526020016000815260200160006001600160a01b0316815260200160008152602001606081525090565b60006020828403121561340057600080fd5b81356001600160e01b03198116811461090c57600080fd5b634e487b7160e01b600052604160045260246000fd5b604080519081016001600160401b038111828210171561345057613450613418565b60405290565b60405161010081016001600160401b038111828210171561345057613450613418565b604051608081016001600160401b038111828210171561345057613450613418565b604051601f8201601f191681016001600160401b03811182821017156134c3576134c3613418565b604052919050565b6001600160a01b03811681146134e057600080fd5b50565b8035612841816134cb565b60006040828403121561350057600080fd5b61350861342e565b905081358152602082013561351c816134cb565b602082015292915050565b63ffffffff811681146134e057600080fd5b61ffff811681146134e057600080fd5b803561284181613539565b6000610100828403121561356757600080fd5b61356f613456565b90508135815260208201356020820152604082013560408201526060820135613597816134cb565b606082015260808201356135aa81613527565b60808201526135bb60a08301613549565b60a08201526135cc60c083016134e3565b60c08201526135dd60e083016134e3565b60e082015292915050565b60006001600160401b0382111561360157613601613418565b50601f01601f191660200190565b600082601f83011261362057600080fd5b813561363361362e826135e8565b61349b565b81815284602083860101111561364857600080fd5b816020850160208301376000918101602001919091529392505050565b60006080828403121561367757600080fd5b61367f613479565b90508135815260208201356020820152604082013561369d816134cb565b604082015260608201356001600160401b038111156136bb57600080fd5b6136c78482850161360f565b60608301525092915050565b6000604082840312156136e557600080fd5b6136ed61342e565b905081356136fa816134cb565b8152602082013561351c81613539565b6000806000806101a0858703121561372157600080fd5b61372b86866134ee565b935061373a8660408701613554565b92506101408501356001600160401b0381111561375657600080fd5b61376287828801613665565b9250506137738661016087016136d3565b905092959194509250565b6001600160a01b0391909116815260200190565b600080600080608085870312156137a857600080fd5b84356137b3816134cb565b935060208501356137c3816134cb565b92506040850135915060608501356001600160401b038111156137e557600080fd5b6137f18782880161360f565b91505092959194509250565b60008060008060008587036101e081121561381757600080fd5b61382188886134ee565b95506138308860408901613554565b9450604061013f198201121561384557600080fd5b5061384e61342e565b6101408701358152610160870135602082015292506101808601356001600160401b0381111561387d57600080fd5b61388988828901613665565b92505061389a876101a088016136d3565b90509295509295909350565b6000602082840312156138b857600080fd5b813561090c816134cb565b60006001600160401b038211156138dc576138dc613418565b5060051b60200190565b600082601f8301126138f757600080fd5b8135602061390761362e836138c3565b82815260059290921b8401810191818101908684111561392657600080fd5b8286015b8481101561394a57803561393d816134cb565b835291830191830161392a565b509695505050505050565b600082601f83011261396657600080fd5b8135602061397661362e836138c3565b82815260059290921b8401810191818101908684111561399557600080fd5b8286015b8481101561394a5780356001600160401b038111156139b85760008081fd5b6139c68986838b010161360f565b845250918301918301613999565b600080604083850312156139e757600080fd5b82356001600160401b03808211156139fe57600080fd5b613a0a868387016138e6565b93506020850135915080821115613a2057600080fd5b50613a2d85828601613955565b9150509250929050565b600060208284031215613a4957600080fd5b5035919050565b60008060408385031215613a6357600080fd5b82356001600160401b03811115613a7957600080fd5b613a858582860161360f565b9250506020830135613a96816134cb565b809150509250929050565b60008060408385031215613ab457600080fd5b8235613abf816134cb565b946020939093013593505050565b803562ffffff8116811461284157600080fd5b60008060408385031215613af357600080fd5b82356001600160401b0380821115613b0a57600080fd5b613b16868387016138e6565b9350602091508185013581811115613b2d57600080fd5b85019050601f81018613613b4057600080fd5b8035613b4e61362e826138c3565b81815260059190911b82018301908381019088831115613b6d57600080fd5b928401925b82841015613b9257613b8384613acd565b82529284019290840190613b72565b80955050505050509250929050565b60008060408385031215613bb457600080fd5b8235613bbf816134cb565b9150613bcd60208401613acd565b90509250929050565b60008060008385036080811215613bec57600080fd5b8435613bf7816134cb565b93506040601f1982011215613c0b57600080fd5b50613c1461342e565b6020850135613c22816134cb565b815260408501356020820152915060608401356001600160401b03811115613c4957600080fd5b613c558682870161360f565b9150509250925092565b60008083601f840112613c7157600080fd5b5081356001600160401b03811115613c8857600080fd5b6020830191508360208260051b8501011115611b2657600080fd5b60008083601f840112613cb557600080fd5b5081356001600160401b03811115613ccc57600080fd5b602083019150836020828501011115611b2657600080fd5b60008060008060008060008060a0898b031215613d0057600080fd5b8835613d0b816134cb565b97506020890135613d1b816134cb565b965060408901356001600160401b0380821115613d3757600080fd5b613d438c838d01613c5f565b909850965060608b0135915080821115613d5c57600080fd5b613d688c838d01613c5f565b909650945060808b0135915080821115613d8157600080fd5b50613d8e8b828c01613ca3565b999c989b5096995094979396929594505050565b60008060408385031215613db557600080fd5b8235613dc0816134cb565b915060208301356001600160401b03811115613ddb57600080fd5b613a2d8582860161360f565b60008060408385031215613dfa57600080fd5b82356001600160401b0380821115613e1157600080fd5b613e1d86838701613955565b93506020850135915080821115613e3357600080fd5b50613a2d858286016138e6565b60008060008060008060a08789031215613e5957600080fd5b8635613e64816134cb565b95506020870135613e74816134cb565b9450604087013593506060870135925060808701356001600160401b03811115613e9d57600080fd5b613ea989828a01613ca3565b979a9699509497509295939492505050565b6020808252818101527f4f776e61626c653a2063616c6c6572206973206e6f7420746865206f776e6572604082015260600190565b600060208284031215613f0257600080fd5b5051919050565b6020808252601c908201527f4f776e61626c653a206e6f74206f776e65722063616e64696461746500000000604082015260600190565b8051801515811461284157600080fd5b8051612841816134cb565b600060408284031215613f6d57600080fd5b613f7561342e565b905081518152602082015161351c816134cb565b805161284181613539565b60006101008284031215613fa757600080fd5b613faf613456565b90508151815260208201516020820152604082015160408201526060820151613fd7816134cb565b60608201526080820151613fea81613527565b6080820152613ffb60a08301613f89565b60a082015261400c60c08301613f50565b60c08201526135dd60e08301613f50565b60006040828403121561402f57600080fd5b61403761342e565b9050815181526020820151602082015292915050565b60005b83811015614068578181015183820152602001614050565b50506000910152565b60006080828403121561408357600080fd5b61408b613479565b9050815181526020820151602082015260408201516140a9816134cb565b604082015260608201516001600160401b038111156140c757600080fd5b8201601f810184136140d857600080fd5b80516140e661362e826135e8565b8181528560208385010111156140fb57600080fd5b61410c82602083016020860161404d565b606084015250909392505050565b60006040828403121561412c57600080fd5b61413461342e565b90508151614141816134cb565b8152602082015161351c81613539565b6000806000806000806000806000806102808b8d03121561417157600080fd5b8a5161417c816134cb565b60208c0151909a5061418d816134cb565b60408c015190995097506141a360608c01613f40565b965060808b0151600381106141b757600080fd5b95506141c68c60a08d01613f5b565b94506141d58c60e08d01613f94565b93506141e58c6101e08d0161401d565b92506102208b01516001600160401b0381111561420157600080fd5b61420d8d828e01614071565b92505061421e8c6102408d0161411a565b90509295989b9194979a5092959850565b634e487b7160e01b600052603260045260246000fd5b634e487b7160e01b600052601160045260246000fd5b60006001820161426d5761426d614245565b5060010190565b6000815180845261428c81602086016020860161404d565b601f01601f19169290920160200192915050565b60208152600061090c6020830184614274565b808201808211156106a1576106a1614245565b6001600160a01b03929092168252602082015260400190565b6000602082840312156142f157600080fd5b61090c82613f40565b60006020828403121561430c57600080fd5b815161090c816134cb565b6000806040838503121561432a57600080fd5b8251614335816134cb565b6020939093015192949293505050565b634e487b7160e01b600052602160045260246000fd5b805182526020810151602083015260408101516040830152606081015160018060a01b03808216606085015263ffffffff608084015116608085015261ffff60a08401511660a08501528060c08401511660c08501528060e08401511660e085015250505050565b805182526020810151602083015260018060a01b03604082015116604083015260006060820151608060608501526106e56080850182614274565b80516001600160a01b0316825260209081015161ffff16910152565b6001600160a01b038b811682528a81166020830152604082018a905288151560608301526000906102809060038a1061445557614455614345565b608084018a9052885160a085015260208901511660c084015261447b60e084018861435b565b85516101e08401526020860151610200840152806102208401526144a1818401866143c3565b9150506144b26102408301846143fe565b9b9a5050505050505050505050565b600281106134e0576134e0614345565b80511515825260208101516144e5816144c1565b602083015260408101516144f8816144c1565b6040830152606090810151910152565b6040808252835182820181905260009190606090818501906020808901865b8381101561455557815180516001600160a01b03168652830151838601529386019390820190600101614527565b50508683038188015287518084528184019250600581901b8401820189830160005b8381101561462857601f19878403018652815161016081516009811061459f5761459f614345565b855281870151878601528a8201516145b98c8701826144d1565b508982015160c081818801526080840151915060e0828189015260a085015192506145f06101008901846001600160a01b03169052565b90840151610120880152909201516101408601829052915061461481860183614274565b978701979450505090840190600101614577565b50909b9a5050505050505050505050565b60006060828403121561464b57600080fd5b604051606081016001600160401b03828210818311171561466e5761466e613418565b816040528451915061467f826134cb565b908252602084015190808216821461469657600080fd5b5060208201526040830151600481106146ae57600080fd5b60408201529392505050565b6001600160a01b039384168152919092166020820152604081019190915260600190565b818103818111156106a1576106a1614245565b6000825161470381846020870161404d565b9190910192915050565b600061016061471c838761435b565b8061010084015261472f818401866143c3565b9150506106e56101208301846143fe565b60006020828403121561475257600080fd5b815161090c81613527565b60006101a061476c838861435b565b8551610100840152602086015161012084015280610140840152614792818401866143c3565b91505061199e6101608301846143fe56fe4e4654206f776e65727368697020636865636b206e6f74207375636365737366756ca164736f6c6343000813000a",
  "deployedBytecode": "0x608060405234801561001057600080fd5b50600436106102695760003560e01c80635c975abb116101515780639d6fa618116100c3578063edddad6c11610087578063edddad6c146105cf578063f23a6e61146105e2578063f5a1204214610602578063f8f05a321461060a578063f9a691361461061d578063fd5559e71461063057600080fd5b80639d6fa61814610563578063bc197c8114610576578063c00358f214610589578063e090c76f1461059c578063e7ded902146105bc57600080fd5b80637b371107116101155780637b371107146105095780638456cb59146105115780638b418713146105195780638da5cb5b1461052c57806390fcdb361461053457806392fede001461055b57600080fd5b80635c975abb146104bd5780635f992fdd146104c857806364169d41146104d05780637782d5e0146104e35780637aa781f3146104f657600080fd5b8063311f463f116101ea5780633f4ba83a116101ae5780633f4ba83a1461044c57806342092bc214610454578063429180d2146104675780634ae8ba001461047a5780634f0e0ef31461048d5780635ba0f6e8146104b457600080fd5b8063311f463f146103b557806334169175146103c85780633424752a146103ef578063365a86fc146104025780633d2d53741461042957600080fd5b8063134f6d3a11610231578063134f6d3a14610305578063150b7a021461032c57806324ad0ae2146103585780632aacd1c11461036b5780632b4c5859146103a257600080fd5b806301ffc9a71461026e5780630cb95b02146102965780630e4248c9146102ab5780630e4cb1f9146102cb57806311a2f0cb146102de575b600080fd5b61028161027c3660046133ee565b610655565b60405190151581526020015b60405180910390f35b6102a96102a436600461370a565b6106a7565b005b600b546102be906001600160a01b031681565b60405161028d919061377e565b600a546102be906001600160a01b031681565b6102be7f000000000000000000000000000000000000000000000000000000000000000081565b6102be7f000000000000000000000000000000000000000000000000000000000000000081565b61033f61033a366004613792565b6106dc565b6040516001600160e01b0319909116815260200161028d565b6102a96103663660046137fd565b6106ed565b6103946103793660046138a6565b6001600160a01b031660009081526003602052604090205490565b60405190815260200161028d565b6102a96103b03660046139d4565b6106fd565b6102a96103c3366004613a37565b610743565b6103db6103d63660046138a6565b610777565b60405162ffffff909116815260200161028d565b6102a96103fd366004613a50565b610797565b6102be7f000000000000000000000000000000000000000000000000000000000000000081565b6102816104373660046138a6565b60046020526000908152604090205460ff1681565b6102a96107d0565b6102a961046236600461370a565b610809565b610394610475366004613aa1565b610825565b6102a9610488366004613ae0565b610913565b6102be7f000000000000000000000000000000000000000000000000000000000000000081565b61039460065481565b60085460ff16610281565b6102a961094c565b6102be6104de366004613a37565b610988565b6103946104f1366004613aa1565b6109a3565b6102a9610504366004613ba1565b6109ff565b6102a9610a38565b6102a9610a77565b6102a9610527366004613bd6565b610aae565b6102be610b78565b6102be7f000000000000000000000000000000000000000000000000000000000000000081565b6102a9610b87565b6102a96105713660046138a6565b610bb6565b61033f610584366004613ce4565b610c6c565b6102a9610597366004613da2565b610cb7565b6103946105aa3660046138a6565b60056020526000908152604090205481565b6102be6105ca3660046138a6565b610cf0565b6102a96105dd366004613de7565b610d12565b61033f6105f0366004613e40565b63f23a6e6160e01b9695505050505050565b6102a9610d4b565b6102a96106183660046138a6565b610d74565b6102a961062b3660046138a6565b610dc5565b6103db61063e3660046138a6565b60076020526000908152604090205462ffffff1681565b60006001600160e01b03198216630271189760e51b148061068657506001600160e01b03198216630a85bd0160e11b145b806106a157506001600160e01b031982166301ffc9a760e01b145b92915050565b60006106c6604051806040016040528060008152602001600081525090565b6106d4828787848888610e16565b505050505050565b630a85bd0160e11b5b949350505050565b60026106d4818787878787610e16565b33610706610b78565b6001600160a01b0316146107355760405162461bcd60e51b815260040161072c90613ebb565b60405180910390fd5b61073f8282610ff6565b5050565b3361074c610b78565b6001600160a01b0316146107725760405162461bcd60e51b815260040161072c90613ebb565b600655565b6001600160a01b031660009081526007602052604090205462ffffff1690565b336107a0610b78565b6001600160a01b0316146107c65760405162461bcd60e51b815260040161072c90613ebb565b61073f82826110ca565b336107d9610b78565b6001600160a01b0316146107ff5760405162461bcd60e51b815260040161072c90613ebb565b6108076111f1565b565b60408051808201909152600080825260208201526001906106c6565b60007f00000000000000000000000000000000000000000000000000000000000000006001600160a01b03166330d07f217f00000000000000000000000000000000000000000000000000000000000000008561088187610777565b6040516001600160e01b031960e086901b1681526001600160a01b03938416600482015292909116602483015262ffffff166044820152606481018590526000608482015260a4016020604051808303816000875af11580156108e8573d6000803e3d6000fd5b505050506040513d601f19601f8201168201806040525081019061090c9190613ef0565b9392505050565b3361091c610b78565b6001600160a01b0316146109425760405162461bcd60e51b815260040161072c90613ebb565b61073f828261123d565b6001546001600160a01b031633146109765760405162461bcd60e51b815260040161072c90613f09565b600180546001600160a01b0319169055565b6000908152600260205260409020546001600160a01b031690565b60007f00000000000000000000000000000000000000000000000000000000000000006001600160a01b03166330d07f21847f000000000000000000000000000000000000000000000000000000000000000061088187610777565b33610a08610b78565b6001600160a01b031614610a2e5760405162461bcd60e51b815260040161072c90613ebb565b61073f82826112b7565b6001546001600160a01b03163314610a625760405162461bcd60e51b815260040161072c90613f09565b600154610976906001600160a01b03166112e8565b33610a80610b78565b6001600160a01b031614610aa65760405162461bcd60e51b815260040161072c90613ebb565b610807611338565b7f00000000000000000000000000000000000000000000000000000000000000006001600160a01b03163314610af75760405163d3ed9d4d60e01b815260040160405180910390fd5b6001600160a01b0383163014610b20576040516315089afb60e21b815260040160405180910390fd5b6000806000806000806000806000808a806020019051810190610b439190614151565b9950995099509950995099509950995099509950610b698a8a8a8a8a8a8a8a8a8a611375565b50505050505050505050505050565b6000546001600160a01b031690565b33610b90610b78565b6001600160a01b0316146109765760405162461bcd60e51b815260040161072c90613ebb565b33610bbf610b78565b6001600160a01b031614610be55760405162461bcd60e51b815260040161072c90613ebb565b6001600160a01b038116610c4a5760405162461bcd60e51b815260206004820152602660248201527f4f776e61626c653a206e6577206f776e657220697320746865207a65726f206160448201526564647265737360d01b606482015260840161072c565b600180546001600160a01b0319166001600160a01b0392909216919091179055565b60405162461bcd60e51b815260206004820152601b60248201527f45524331313535206261746368206e6f7420737570706f727465640000000000604482015260009060640161072c565b33610cc0610b78565b6001600160a01b031614610ce65760405162461bcd60e51b815260040161072c90613ebb565b61073f8282611542565b6001600160a01b03811660009081526003602052604081205461090c81610988565b33610d1b610b78565b6001600160a01b031614610d415760405162461bcd60e51b815260040161072c90613ebb565b61073f82826116dc565b6108077f00000000000000000000000000000000000000000000000000000000000000006117a7565b33610d7d610b78565b6001600160a01b031614610da35760405162461bcd60e51b815260040161072c90613ebb565b600b80546001600160a01b0319166001600160a01b0392909216919091179055565b33610dce610b78565b6001600160a01b031614610df45760405162461bcd60e51b815260040161072c90613ebb565b600a80546001600160a01b0319166001600160a01b0392909216919091179055565b610e1e61185e565b610e266118a4565b6000806000806000610e3b8a60200151610cf0565b9050610e50818b602001518c600001516118fd565b94506001600160a01b03851615610e8f576001600160a01b0385163314610e8a5760405163a1d2c4af60e01b815260040160405180910390fd5b610e93565b3394505b6000610ea8828c602001518d600001516119a7565b60c08c015191965091506001600160a01b03808716911614610edd5760405163df03d9cf60e01b815260040160405180910390fd5b610ef0828c602001518d60000151611a55565b610efa8582611ae8565b94509250610f1491508590508484848e8e8e8e8e8e611b2d565b6040516370a0823160e01b81526000906001600160a01b038516906370a0823190610f4390309060040161377e565b602060405180830381865afa158015610f60573d6000803e3d6000fd5b505050506040513d601f19601f82011682018060405250810190610f849190613ef0565b90508015610fa057610fa06001600160a01b0385168683611f42565b50600b548951604051600160a01b90920463ffffffff16917fb980a1928a01840d355e1c50794637d057179bd5b394dd0930efd7c0c738066a90600090a3610fe8848b611f98565b505050506106d46001600955565b805182511461106d5760405162461bcd60e51b815260206004820152603d60248201527f736574526566696e616e636561626c65436f6e7472616374732066756e63746960448201527f6f6e20696e666f726d6174696f6e206172697479206d69736d61746368000000606482015260840161072c565b60005b82518110156110c5576110b583828151811061108e5761108e61422f565b60200260200101518383815181106110a8576110a861422f565b6020026020010151611542565b6110be8161425b565b9050611070565b505050565b815160000361111b5760405162461bcd60e51b815260206004820152601a60248201527f726566696e616e636561626c655479706520697320656d707479000000000000604482015260640161072c565b60405163f99a8ffb60e01b815260009073__$d7e2e0a2db402280e6c36233d590dce656$__9063f99a8ffb906111559086906004016142a0565b602060405180830381865af4158015611172573d6000803e3d6000fd5b505050506040513d601f19601f820116820180604052508101906111969190613ef0565b60008181526002602052604080822080546001600160a01b0319166001600160a01b03871690811790915590519293509183917f22be69269c1f7d73e73dcb25b710dd88c7aa1cf374c16d945def98df2107c2f891a3505050565b6111f96122b0565b6008805460ff191690557f5db9ee0a495bf2e6ff9c91a7834c1ba4fdd244a5e8aa4e537bd38aeae4b073aa335b604051611233919061377e565b60405180910390a1565b805182511461125f576040516306ea008f60e21b815260040160405180910390fd5b60005b82518110156110c5576112a78382815181106112805761128061422f565b602002602001015183838151811061129a5761129a61422f565b60200260200101516112b7565b6112b08161425b565b9050611262565b6001600160a01b03919091166000908152600760205260409020805462ffffff191662ffffff909216919091179055565b600080546001600160a01b038381166001600160a01b0319831681178455604051919092169283917f8be0079c531659141344cd1fd0a4f28419497f9722a3daafe3b4186f6b6457e09190a35050565b61134061185e565b6008805460ff191660011790557f62e78cea01bee320cd4e420270b5ea74000d11b0c9f74754ebdbfc544b05a2586112263390565b60006113848660200151610cf0565b905060008061139c8389602001518a600001516119a7565b9150915089156113b0576113b08c826122f9565b6113c58389602001518a6000015185856125b0565b50506000806113dd8389602001518a60000151612637565b915091506113ec8282306126bf565b611409576040516388c4b5fd60e01b815260040160405180910390fd5b6114168d8d8d8a8e612761565b6114296114228a6127a9565b8383612846565b5061143789888888886128e5565b600b60146101000a81548163ffffffff021916908363ffffffff1602179055508915610b69576114748c6006548d61146f91906142b3565b61295a565b7f00000000000000000000000000000000000000000000000000000000000000006001600160a01b031663095ea7b37f00000000000000000000000000000000000000000000000000000000000000006006548e6114d291906142b3565b6040518363ffffffff1660e01b81526004016114ef9291906142c6565b6020604051808303816000875af115801561150e573d6000803e3d6000fd5b505050506040513d601f19601f8201168201806040525081019061153291906142df565b5050505050505050505050505050565b6001600160a01b0382166115a65760405162461bcd60e51b815260206004820152602560248201527f726566696e616e636561626c65436f6e7472616374206973207a65726f206164604482015264647265737360d81b606482015260840161072c565b60405163f99a8ffb60e01b815260009073__$d7e2e0a2db402280e6c36233d590dce656$__9063f99a8ffb906115e09085906004016142a0565b602060405180830381865af41580156115fd573d6000803e3d6000fd5b505050506040513d601f19601f820116820180604052508101906116219190613ef0565b9050801561169457600061163482610988565b6001600160a01b0316036116945760405162461bcd60e51b815260206004820152602160248201527f726566696e616e636561626c652074797065206e6f74207265676973746572656044820152601960fa1b606482015260840161072c565b6001600160a01b038316600081815260036020526040808220849055518392917fbc1ee51e22f75dc0717328a68abc443efc99d36fc942fc68f0a18bfffa67270191a3505050565b805182511461174f5760405162461bcd60e51b815260206004820152603960248201527f736574526566696e616e636561626c6554797065732066756e6374696f6e20696044820152780dcccdee4dac2e8d2dedc40c2e4d2e8f240dad2e6dac2e8c6d603b1b606482015260840161072c565b60005b81518110156110c5576117978382815181106117705761177061422f565b602002602001015183838151811061178a5761178a61422f565b60200260200101516110ca565b6117a08161425b565b9050611752565b60005b6003811161073f5760405163062bd3e960e01b8152600481018290526000906001600160a01b0384169063062bd3e990602401602060405180830381865afa1580156117fa573d6000803e3d6000fd5b505050506040513d601f19601f8201168201806040525081019061181e91906142fa565b6001600160a01b03166000908152600460209081526040808320805460ff1916600117905560059091529020829055506118578161425b565b90506117aa565b60085460ff16156108075760405162461bcd60e51b815260206004820152601060248201526f14185d5cd8589b194e881c185d5cd95960821b604482015260640161072c565b6002600954036118f65760405162461bcd60e51b815260206004820152601f60248201527f5265656e7472616e637947756172643a207265656e7472616e742063616c6c00604482015260640161072c565b6002600955565b60008061198885637da9f01860e01b868660405160240161191f9291906142c6565b604051602081830303815290604052906001600160e01b0319166020820180516001600160e01b0383818316178352505050506040518060400160405280601881526020017733b2ba2137b93937bbb2b920b2323932b9b99032b93937b960411b815250612ae1565b90508080602001905181019061199e91906142fa565b95945050505050565b6000806000611a32866310b29fee60e01b87876040516024016119cb9291906142c6565b604051602081830303815290604052906001600160e01b0319166020820180516001600160e01b0383818316178352505050506040518060400160405280601681526020017533b2ba2830bcb7b3332232ba30b4b6399032b93937b960511b815250612ae1565b905080806020019051810190611a489190614317565b9250925050935093915050565b611ae28363a4d160e360e01b8484604051602401611a749291906142c6565b604051602081830303815290604052906001600160e01b0319166020820180516001600160e01b0383818316178352505050506040518060400160405280601a81526020017f7472616e73666572426f72726f776572526f6c65206572726f72000000000000815250612ae1565b50505050565b6001600160a01b038216600090815260046020526040812054819060ff16611b1f5760019150611b188484610825565b9050611b26565b5060009050815b9250929050565b6001600160a01b038916600090815260056020526040808220548151600380825260808201909352909291816020015b611b65613378565b815260200190600190039081611b5d575050604080516101008101825260018152600060208083018290528351608081018552828152949550919392840192918201908152602001600081526020018d815250815260200183815260200160008152602001306001600160a01b03168152602001600081526020016040518060200160405280600081525081525081600081518110611c0657611c0661422f565b6020908102919091010152604080516101008101909152806008815260200160008152602001604051806080016040528060001515815260200160006001811115611c5357611c53614345565b8152602001600081526020016000815250815260200183815260200160008152602001306001600160a01b03168152602001600081526020018d8d8d8d8d8d8d8d8d8d604051602001611caf9a9998979695949392919061441a565b60405160208183030381529060405281525081600181518110611cd457611cd461422f565b6020908102919091010152604080516101008101909152806000815260200160008152602001604051806080016040528060011515815260200160006001811115611d2157611d21614345565b8152602001600081526020016006548e611d3b91906142b3565b815250815260200183815260200160008152602001306001600160a01b03168152602001600081526020016040518060200160405280600081525081525081600281518110611d8c57611d8c61422f565b60200260200101819052508a6001600160a01b031663095ea7b37f00000000000000000000000000000000000000000000000000000000000000006006548d611dd591906142b3565b6040518363ffffffff1660e01b8152600401611df29291906142c6565b6020604051808303816000875af1158015611e11573d6000803e3d6000fd5b505050506040513d601f19601f82011682018060405250810190611e3591906142df565b50604080516001808252818301909252600091816020015b6040805180820190915260008082526020820152815260200190600190039081611e4d5790505090506040518060400160405280306001600160a01b03168152602001600181525081600081518110611ea857611ea861422f565b602090810291909101015260405163a67a6a4560e01b81526001600160a01b037f0000000000000000000000000000000000000000000000000000000000000000169063a67a6a4590611f019084908690600401614508565b600060405180830381600087803b158015611f1b57600080fd5b505af1158015611f2f573d6000803e3d6000fd5b5050505050505050505050505050505050565b6110c58363a9059cbb60e01b8484604051602401611f619291906142c6565b60408051601f198184030181529190526020810180516001600160e01b03166001600160e01b031990931692909217909152612b4f565b611fa1816127a9565b600b54604051635e72172160e11b8152600160a01b90910463ffffffff1660048201526001600160a01b03919091169063bce42e4290602401600060405180830381600087803b158015611ff457600080fd5b505af1158015612008573d6000803e3d6000fd5b505050506000612017826127a9565b90506000816001600160a01b031663365a86fc6040518163ffffffff1660e01b8152600401602060405180830381865afa158015612059573d6000803e3d6000fd5b505050506040513d601f19601f8201168201806040525081019061207d91906142fa565b6001600160a01b031663e16c7d98836001600160a01b03166377cfa9916040518163ffffffff1660e01b8152600401602060405180830381865afa1580156120c9573d6000803e3d6000fd5b505050506040513d601f19601f820116820180604052508101906120ed9190613ef0565b6040518263ffffffff1660e01b815260040161210b91815260200190565b602060405180830381865afa158015612128573d6000803e3d6000fd5b505050506040513d601f19601f8201168201806040525081019061214c91906142fa565b600b5460405163e6c5a54160e01b8152600160a01b90910463ffffffff1660048201529091506000906001600160a01b0383169063e6c5a54190602401606060405180830381865afa1580156121a6573d6000803e3d6000fd5b505050506040513d601f19601f820116820180604052508101906121ca9190614639565b6020015190506000826001600160a01b0316638208e76c6040518163ffffffff1660e01b8152600401602060405180830381865afa158015612210573d6000803e3d6000fd5b505050506040513d601f19601f8201168201806040525081019061223491906142fa565b604051632142170760e11b81523060048201526001600160a01b0388811660248301526001600160401b0385166044830152919250908216906342842e0e90606401600060405180830381600087803b15801561229057600080fd5b505af11580156122a4573d6000803e3d6000fd5b50505050505050505050565b60085460ff166108075760405162461bcd60e51b815260206004820152601460248201527314185d5cd8589b194e881b9bdd081c185d5cd95960621b604482015260640161072c565b6040516370a0823160e01b81526000906001600160a01b037f000000000000000000000000000000000000000000000000000000000000000016906370a082319061234890309060040161377e565b602060405180830381865afa158015612365573d6000803e3d6000fd5b505050506040513d601f19601f820116820180604052508101906123899190613ef0565b60405163095ea7b360e01b81529091506001600160a01b037f0000000000000000000000000000000000000000000000000000000000000000169063095ea7b3906123fa907f00000000000000000000000000000000000000000000000000000000000000009085906004016142c6565b6020604051808303816000875af1158015612419573d6000803e3d6000fd5b505050506040513d601f19601f8201168201806040525081019061243d91906142df565b507f00000000000000000000000000000000000000000000000000000000000000006001600160a01b031663db3e21986040518061010001604052807f00000000000000000000000000000000000000000000000000000000000000006001600160a01b03168152602001866001600160a01b031681526020016124c087610777565b62ffffff1681523060208201526040016124db42600f6142b3565b8152602080820187905260408083018790526000606093840152805160e086811b6001600160e01b031916825285516001600160a01b03908116600484015293860151841660248301529185015162ffffff16604482015292840151821660648401526080840151608484015260a084015160a484015260c084015160c4840152929092015190911660e4820152610104016020604051808303816000875af115801561258c573d6000803e3d6000fd5b505050506040513d601f19601f82011682018060405250810190611ae29190613ef0565b604080516001600160a01b038681166024830152604482018690528416606482015260848082018490528251808303909101815260a49091018252602080820180516001600160e01b031663235fc9e160e21b179052825180840190935260118352703830bca130b1b5b637b0b71032b93937b960791b908301526106d491879190612ae1565b6000806000611a32866358024fce60e01b878760405160240161265b9291906142c6565b604051602081830303815290604052906001600160e01b0319166020820180516001600160e01b0383818316178352505050506040518060400160405280601381526020017233b2ba21b7b63630ba32b930b61032b93937b960691b815250612ae1565b6000806126cb85612c24565b905060006127418263f370e8c560e01b8689896040516024016126f0939291906146ba565b604051602081830303815290604052906001600160e01b0319166020820180516001600160e01b0383818316178352505050506040518060600160405280602281526020016147a460229139612ae1565b90508080602001905181019061275791906142df565b9695505050505050565b600061276e858584612d2c565b83519091508111156106d457825160009061278990836146de565b90506127a06001600160a01b038716883084612d5a565b50505050505050565b6000808260028111156127be576127be614345565b036127d4575050600a546001600160a01b031690565b60018260028111156127e8576127e8614345565b036127fe575050600b546001600160a01b031690565b600282600281111561281257612812614345565b03612828575050600b546001600160a01b031690565b604051631d2000df60e11b815260040160405180910390fd5b919050565b60008061285284612c24565b9050600061274182637336aaf060e01b888888604051602401612877939291906146ba565b604051602081830303815290604052906001600160e01b0319166020820180516001600160e01b0383818316178352505050506040518060400160405280601d81526020017f4e4654206e6f74207375636365737366756c6c7920617070726f766564000000815250612ae1565b6000808660028111156128fa576128fa614345565b036129115761290a858484612d7b565b905061199e565b600186600281111561292557612925614345565b036129355761290a858484612df3565b600286600281111561294957612949614345565b036128285761290a85858585612fee565b6040516370a0823160e01b81526000906001600160a01b038416906370a082319061298990309060040161377e565b602060405180830381865afa1580156129a6573d6000803e3d6000fd5b505050506040513d601f19601f820116820180604052508101906129ca9190613ef0565b60405163095ea7b360e01b81529091506001600160a01b0384169063095ea7b390612a1b907f00000000000000000000000000000000000000000000000000000000000000009085906004016142c6565b6020604051808303816000875af1158015612a3a573d6000803e3d6000fd5b505050506040513d601f19601f82011682018060405250810190612a5e91906142df565b507f00000000000000000000000000000000000000000000000000000000000000006001600160a01b031663db3e2198604051806101000160405280866001600160a01b031681526020017f00000000000000000000000000000000000000000000000000000000000000006001600160a01b031681526020016124c087610777565b6060600080856001600160a01b031685604051612afe91906146f1565b600060405180830381855af49150503d8060008114612b39576040519150601f19603f3d011682016040523d82523d6000602084013e612b3e565b606091505b5091509150612757868383876131eb565b6000612ba4826040518060400160405280602081526020017f5361666545524332303a206c6f772d6c6576656c2063616c6c206661696c6564815250856001600160a01b03166132649092919063ffffffff16565b9050805160001480612bc5575080806020019051810190612bc591906142df565b6110c55760405162461bcd60e51b815260206004820152602a60248201527f5361666545524332303a204552433230206f7065726174696f6e20646964206e6044820152691bdd081cdd58d8d9595960b21b606482015260840161072c565b604051631c2d8fb360e31b81526d5045524d49545445445f4e46545360901b60048201526000907f00000000000000000000000000000000000000000000000000000000000000006001600160a01b03169063e16c7d9890602401602060405180830381865afa158015612c9c573d6000803e3d6000fd5b505050506040513d601f19601f82011682018060405250810190612cc091906142fa565b6001600160a01b031663b8c8aff8836040518263ffffffff1660e01b8152600401612ceb919061377e565b602060405180830381865afa158015612d08573d6000803e3d6000fd5b505050506040513d601f19601f820116820180604052508101906106a191906142fa565b60008115612d4d57612d4684600654856104f191906142b3565b905061090c565b6006546106e590846142b3565b611ae2846323b872dd60e01b858585604051602401611f61939291906146ba565b600a546040516315bbfa6360e21b81526000916001600160a01b0316906356efe98c90612db09087908790879060040161470d565b6020604051808303816000875af1158015612dcf573d6000803e3d6000fd5b505050506040513d601f19601f820116820180604052508101906106e59190614740565b600b5460405163c192f4e560e01b81526000916001600160a01b031690819063c192f4e590612e2a9088908890889060040161470d565b600060405180830381600087803b158015612e4457600080fd5b505af1158015612e58573d6000803e3d6000fd5b50505050806001600160a01b031663365a86fc6040518163ffffffff1660e01b8152600401602060405180830381865afa158015612e9a573d6000803e3d6000fd5b505050506040513d601f19601f82011682018060405250810190612ebe91906142fa565b6001600160a01b031663e16c7d98826001600160a01b03166377cfa9916040518163ffffffff1660e01b8152600401602060405180830381865afa158015612f0a573d6000803e3d6000fd5b505050506040513d601f19601f82011682018060405250810190612f2e9190613ef0565b6040518263ffffffff1660e01b8152600401612f4c91815260200190565b602060405180830381865afa158015612f69573d6000803e3d6000fd5b505050506040513d601f19601f82011682018060405250810190612f8d91906142fa565b6001600160a01b0316635794fefc6040518163ffffffff1660e01b8152600401602060405180830381865afa158015612fca573d6000803e3d6000fd5b505050506040513d601f19601f8201168201806040525081019061199e9190614740565b600b546040516307e4228760e21b81526000916001600160a01b0316908190631f908a1c9061302790899089908990899060040161475d565b600060405180830381600087803b15801561304157600080fd5b505af1158015613055573d6000803e3d6000fd5b50505050806001600160a01b031663365a86fc6040518163ffffffff1660e01b8152600401602060405180830381865afa158015613097573d6000803e3d6000fd5b505050506040513d601f19601f820116820180604052508101906130bb91906142fa565b6001600160a01b031663e16c7d98826001600160a01b03166377cfa9916040518163ffffffff1660e01b8152600401602060405180830381865afa158015613107573d6000803e3d6000fd5b505050506040513d601f19601f8201168201806040525081019061312b9190613ef0565b6040518263ffffffff1660e01b815260040161314991815260200190565b602060405180830381865afa158015613166573d6000803e3d6000fd5b505050506040513d601f19601f8201168201806040525081019061318a91906142fa565b6001600160a01b0316635794fefc6040518163ffffffff1660e01b8152600401602060405180830381865afa1580156131c7573d6000803e3d6000fd5b505050506040513d601f19601f820116820180604052508101906127579190614740565b6060831561325a578251600003613253576001600160a01b0385163b6132535760405162461bcd60e51b815260206004820152601d60248201527f416464726573733a2063616c6c20746f206e6f6e2d636f6e7472616374000000604482015260640161072c565b50816106e5565b6106e58383613273565b60606106e5848460008561329d565b8151156132835781518083602001fd5b8060405162461bcd60e51b815260040161072c91906142a0565b6060824710156132fe5760405162461bcd60e51b815260206004820152602660248201527f416464726573733a20696e73756666696369656e742062616c616e636520666f6044820152651c8818d85b1b60d21b606482015260840161072c565b600080866001600160a01b0316858760405161331a91906146f1565b60006040518083038185875af1925050503d8060008114613357576040519150601f19603f3d011682016040523d82523d6000602084013e61335c565b606091505b509150915061336d878383876131eb565b979650505050505050565b6040805161010081018252600080825260208201529081016133bc604080516080810190915260008082526020820190815260200160008152602001600081525090565b8152602001600081526020016000815260200160006001600160a01b0316815260200160008152602001606081525090565b60006020828403121561340057600080fd5b81356001600160e01b03198116811461090c57600080fd5b634e487b7160e01b600052604160045260246000fd5b604080519081016001600160401b038111828210171561345057613450613418565b60405290565b60405161010081016001600160401b038111828210171561345057613450613418565b604051608081016001600160401b038111828210171561345057613450613418565b604051601f8201601f191681016001600160401b03811182821017156134c3576134c3613418565b604052919050565b6001600160a01b03811681146134e057600080fd5b50565b8035612841816134cb565b60006040828403121561350057600080fd5b61350861342e565b905081358152602082013561351c816134cb565b602082015292915050565b63ffffffff811681146134e057600080fd5b61ffff811681146134e057600080fd5b803561284181613539565b6000610100828403121561356757600080fd5b61356f613456565b90508135815260208201356020820152604082013560408201526060820135613597816134cb565b606082015260808201356135aa81613527565b60808201526135bb60a08301613549565b60a08201526135cc60c083016134e3565b60c08201526135dd60e083016134e3565b60e082015292915050565b60006001600160401b0382111561360157613601613418565b50601f01601f191660200190565b600082601f83011261362057600080fd5b813561363361362e826135e8565b61349b565b81815284602083860101111561364857600080fd5b816020850160208301376000918101602001919091529392505050565b60006080828403121561367757600080fd5b61367f613479565b90508135815260208201356020820152604082013561369d816134cb565b604082015260608201356001600160401b038111156136bb57600080fd5b6136c78482850161360f565b60608301525092915050565b6000604082840312156136e557600080fd5b6136ed61342e565b905081356136fa816134cb565b8152602082013561351c81613539565b6000806000806101a0858703121561372157600080fd5b61372b86866134ee565b935061373a8660408701613554565b92506101408501356001600160401b0381111561375657600080fd5b61376287828801613665565b9250506137738661016087016136d3565b905092959194509250565b6001600160a01b0391909116815260200190565b600080600080608085870312156137a857600080fd5b84356137b3816134cb565b935060208501356137c3816134cb565b92506040850135915060608501356001600160401b038111156137e557600080fd5b6137f18782880161360f565b91505092959194509250565b60008060008060008587036101e081121561381757600080fd5b61382188886134ee565b95506138308860408901613554565b9450604061013f198201121561384557600080fd5b5061384e61342e565b6101408701358152610160870135602082015292506101808601356001600160401b0381111561387d57600080fd5b61388988828901613665565b92505061389a876101a088016136d3565b90509295509295909350565b6000602082840312156138b857600080fd5b813561090c816134cb565b60006001600160401b038211156138dc576138dc613418565b5060051b60200190565b600082601f8301126138f757600080fd5b8135602061390761362e836138c3565b82815260059290921b8401810191818101908684111561392657600080fd5b8286015b8481101561394a57803561393d816134cb565b835291830191830161392a565b509695505050505050565b600082601f83011261396657600080fd5b8135602061397661362e836138c3565b82815260059290921b8401810191818101908684111561399557600080fd5b8286015b8481101561394a5780356001600160401b038111156139b85760008081fd5b6139c68986838b010161360f565b845250918301918301613999565b600080604083850312156139e757600080fd5b82356001600160401b03808211156139fe57600080fd5b613a0a868387016138e6565b93506020850135915080821115613a2057600080fd5b50613a2d85828601613955565b9150509250929050565b600060208284031215613a4957600080fd5b5035919050565b60008060408385031215613a6357600080fd5b82356001600160401b03811115613a7957600080fd5b613a858582860161360f565b9250506020830135613a96816134cb565b809150509250929050565b60008060408385031215613ab457600080fd5b8235613abf816134cb565b946020939093013593505050565b803562ffffff8116811461284157600080fd5b60008060408385031215613af357600080fd5b82356001600160401b0380821115613b0a57600080fd5b613b16868387016138e6565b9350602091508185013581811115613b2d57600080fd5b85019050601f81018613613b4057600080fd5b8035613b4e61362e826138c3565b81815260059190911b82018301908381019088831115613b6d57600080fd5b928401925b82841015613b9257613b8384613acd565b82529284019290840190613b72565b80955050505050509250929050565b60008060408385031215613bb457600080fd5b8235613bbf816134cb565b9150613bcd60208401613acd565b90509250929050565b60008060008385036080811215613bec57600080fd5b8435613bf7816134cb565b93506040601f1982011215613c0b57600080fd5b50613c1461342e565b6020850135613c22816134cb565b815260408501356020820152915060608401356001600160401b03811115613c4957600080fd5b613c558682870161360f565b9150509250925092565b60008083601f840112613c7157600080fd5b5081356001600160401b03811115613c8857600080fd5b6020830191508360208260051b8501011115611b2657600080fd5b60008083601f840112613cb557600080fd5b5081356001600160401b03811115613ccc57600080fd5b602083019150836020828501011115611b2657600080fd5b60008060008060008060008060a0898b031215613d0057600080fd5b8835613d0b816134cb565b97506020890135613d1b816134cb565b965060408901356001600160401b0380821115613d3757600080fd5b613d438c838d01613c5f565b909850965060608b0135915080821115613d5c57600080fd5b613d688c838d01613c5f565b909650945060808b0135915080821115613d8157600080fd5b50613d8e8b828c01613ca3565b999c989b5096995094979396929594505050565b60008060408385031215613db557600080fd5b8235613dc0816134cb565b915060208301356001600160401b03811115613ddb57600080fd5b613a2d8582860161360f565b60008060408385031215613dfa57600080fd5b82356001600160401b0380821115613e1157600080fd5b613e1d86838701613955565b93506020850135915080821115613e3357600080fd5b50613a2d858286016138e6565b60008060008060008060a08789031215613e5957600080fd5b8635613e64816134cb565b95506020870135613e74816134cb565b9450604087013593506060870135925060808701356001600160401b03811115613e9d57600080fd5b613ea989828a01613ca3565b979a9699509497509295939492505050565b6020808252818101527f4f776e61626c653a2063616c6c6572206973206e6f7420746865206f776e6572604082015260600190565b600060208284031215613f0257600080fd5b5051919050565b6020808252601c908201527f4f776e61626c653a206e6f74206f776e65722063616e64696461746500000000604082015260600190565b8051801515811461284157600080fd5b8051612841816134cb565b600060408284031215613f6d57600080fd5b613f7561342e565b905081518152602082015161351c816134cb565b805161284181613539565b60006101008284031215613fa757600080fd5b613faf613456565b90508151815260208201516020820152604082015160408201526060820151613fd7816134cb565b60608201526080820151613fea81613527565b6080820152613ffb60a08301613f89565b60a082015261400c60c08301613f50565b60c08201526135dd60e08301613f50565b60006040828403121561402f57600080fd5b61403761342e565b9050815181526020820151602082015292915050565b60005b83811015614068578181015183820152602001614050565b50506000910152565b60006080828403121561408357600080fd5b61408b613479565b9050815181526020820151602082015260408201516140a9816134cb565b604082015260608201516001600160401b038111156140c757600080fd5b8201601f810184136140d857600080fd5b80516140e661362e826135e8565b8181528560208385010111156140fb57600080fd5b61410c82602083016020860161404d565b606084015250909392505050565b60006040828403121561412c57600080fd5b61413461342e565b90508151614141816134cb565b8152602082015161351c81613539565b6000806000806000806000806000806102808b8d03121561417157600080fd5b8a5161417c816134cb565b60208c0151909a5061418d816134cb565b60408c015190995097506141a360608c01613f40565b965060808b0151600381106141b757600080fd5b95506141c68c60a08d01613f5b565b94506141d58c60e08d01613f94565b93506141e58c6101e08d0161401d565b92506102208b01516001600160401b0381111561420157600080fd5b61420d8d828e01614071565b92505061421e8c6102408d0161411a565b90509295989b9194979a5092959850565b634e487b7160e01b600052603260045260246000fd5b634e487b7160e01b600052601160045260246000fd5b60006001820161426d5761426d614245565b5060010190565b6000815180845261428c81602086016020860161404d565b601f01601f19169290920160200192915050565b60208152600061090c6020830184614274565b808201808211156106a1576106a1614245565b6001600160a01b03929092168252602082015260400190565b6000602082840312156142f157600080fd5b61090c82613f40565b60006020828403121561430c57600080fd5b815161090c816134cb565b6000806040838503121561432a57600080fd5b8251614335816134cb565b6020939093015192949293505050565b634e487b7160e01b600052602160045260246000fd5b805182526020810151602083015260408101516040830152606081015160018060a01b03808216606085015263ffffffff608084015116608085015261ffff60a08401511660a08501528060c08401511660c08501528060e08401511660e085015250505050565b805182526020810151602083015260018060a01b03604082015116604083015260006060820151608060608501526106e56080850182614274565b80516001600160a01b0316825260209081015161ffff16910152565b6001600160a01b038b811682528a81166020830152604082018a905288151560608301526000906102809060038a1061445557614455614345565b608084018a9052885160a085015260208901511660c084015261447b60e084018861435b565b85516101e08401526020860151610200840152806102208401526144a1818401866143c3565b9150506144b26102408301846143fe565b9b9a5050505050505050505050565b600281106134e0576134e0614345565b80511515825260208101516144e5816144c1565b602083015260408101516144f8816144c1565b6040830152606090810151910152565b6040808252835182820181905260009190606090818501906020808901865b8381101561455557815180516001600160a01b03168652830151838601529386019390820190600101614527565b50508683038188015287518084528184019250600581901b8401820189830160005b8381101561462857601f19878403018652815161016081516009811061459f5761459f614345565b855281870151878601528a8201516145b98c8701826144d1565b508982015160c081818801526080840151915060e0828189015260a085015192506145f06101008901846001600160a01b03169052565b90840151610120880152909201516101408601829052915061461481860183614274565b978701979450505090840190600101614577565b50909b9a5050505050505050505050565b60006060828403121561464b57600080fd5b604051606081016001600160401b03828210818311171561466e5761466e613418565b816040528451915061467f826134cb565b908252602084015190808216821461469657600080fd5b5060208201526040830151600481106146ae57600080fd5b60408201529392505050565b6001600160a01b039384168152919092166020820152604081019190915260600190565b818103818111156106a1576106a1614245565b6000825161470381846020870161404d565b9190910192915050565b600061016061471c838761435b565b8061010084015261472f818401866143c3565b9150506106e56101208301846143fe565b60006020828403121561475257600080fd5b815161090c81613527565b60006101a061476c838861435b565b8551610100840152602086015161012084015280610140840152614792818401866143c3565b91505061199e6101608301846143fe56fe4e4654206f776e65727368697020636865636b206e6f74207375636365737366756ca164736f6c6343000813000a",
  "libraries": {
    "ContractKeys": "0x6910bE31b0674C03C23beD7665E2344E5Fd0F42B"
  },
  "devdoc": {
    "author": "NFTfi",
    "details": "This smart contract is designed to manage the process of loan refinancing. It allows borrowers to replace their current loans with new ones that have more favorable terms. Each loan is identified by a unique identifier and associated with a refinanceable contract, enabling tracking and management of loan refinancing details.",
    "events": {
      "NewRefinanceableContract(address,bytes32)": {
        "params": {
          "refinanceableContract": "- Address of the refinanceable contract.",
          "refinanceableType": "- refinanceable type e.g. bytes32(\"DIRECT_LOAN_FIXED_OFFER\")"
        }
      },
      "Paused(address)": {
        "details": "Emitted when the pause is triggered by `account`."
      },
      "TypeUpdated(bytes32,address)": {
        "params": {
          "refinanceableType": "- refinanceable type e.g. bytes32(\"DIRECT_LOAN_FIXED_OFFER\")",
          "refinancingAdapter": "- Address of the refinancing adapter contract."
        }
      },
      "Unpaused(address)": {
        "details": "Emitted when the pause is lifted by `account`."
      }
    },
    "kind": "dev",
    "methods": {
      "callFunction(address,(address,uint256),bytes)": {
        "params": {
          "_data": "- Byte array of data returned by the flashloan"
        }
      },
      "constructor": {
        "params": {
          "_admin": "- Initial admin of this contract.",
          "_definedRefinanceableTypes": "- Array of defined refinancing types",
          "_flashloanFee": "- Fee for using a flashloan",
          "_nftfiHub": "- Address of the NftfiHub contract",
          "_refinanceableContracts": "- Array of addresses of the refinancing contracts",
          "_refinanceableTypes": "- Array of refinancing types",
          "_refinancingAdapters": "- Array of addresses of the refinancing adapters",
          "_soloMargin": "- Address of the solo margin contract for flashloans",
          "_targetLoanCollectionOfferContract": "- Address of the target loan contract",
          "_targetLoanFixedOfferContract": "- Address of the target loan contract"
        }
      },
      "getRefinanceableContract(address)": {
        "params": {
          "_refinanceableContract": "- Address of the refinanceable contract."
        },
        "returns": {
          "_0": "The refinanceable type: - bytes32(\"\") means \"not registered\" - != bytes32(\"\") means \"permitted with the given refinanceable type\""
        }
      },
      "getRefinancingAdapter(address)": {
        "params": {
          "_refinanceableContract": "- Address of the refinanceable contract."
        },
        "returns": {
          "_0": "The address of the refinanceable adapter contract."
        }
      },
      "getRefinancingAdapterOfType(bytes32)": {
        "params": {
          "_refinanceableType": "- Refinanceable type, e.g., bytes32(\"DIRECT_LOAN_FIXED_OFFER\")"
        },
        "returns": {
          "_0": "The address of the refinancing adapter contract."
        }
      },
      "getSwapFeeRate(address)": {
        "details": "Retrieves the swap fee rate for a given token.",
        "params": {
          "_token": "The address of the token to query the fee rate for."
        },
        "returns": {
          "_0": "uint24 The fee rate for swaps involving the specified token."
        }
      },
      "getTokenAmountNeeded(address,uint256)": {
        "details": "Estimates the amount of a token needed to receive a specific amount of WETH.",
        "params": {
          "_amountOut": "The desired amount of WETH to receive.",
          "_tokenIn": "The address of the token to provide."
        },
        "returns": {
          "_0": "uint256 The estimated amount of the input token required."
        }
      },
      "getWethAmountNeeded(address,uint256)": {
        "details": "Estimates the amount of WETH needed to receive a specific amount of a given token.",
        "params": {
          "_amountOut": "The desired amount of the token to receive.",
          "_tokenOut": "The address of the token to receive."
        },
        "returns": {
          "_0": "uint256 The estimated amount of WETH required."
        }
      },
      "loadTokens()": {
        "details": "Loads tokens that can be flash loaned from the SoloMargin contract. It uses the private _loadTokens function to populate the tokenFlashloanble and marketIds mappings."
      },
      "onERC1155BatchReceived(address,address,uint256[],uint256[],bytes)": {
        "details": "Handles the receipt of a multiple ERC1155 token types. This function is called at the end of a `safeBatchTransferFrom` after the balances have been updated.",
        "returns": {
          "_0": "`bytes4(keccak256(\"onERC1155BatchReceived(address,address,uint256[],uint256[],bytes)\"))` if allowed"
        }
      },
      "onERC1155Received(address,address,uint256,uint256,bytes)": {
        "details": "Handles the receipt of a single ERC1155 token type. This function is called at the end of a `safeTransferFrom` after the balance has been updated.",
        "returns": {
          "_0": "`bytes4(keccak256(\"onERC1155Received(address,address,uint256,uint256,bytes)\"))` if allowed"
        }
      },
      "onERC721Received(address,address,uint256,bytes)": {
        "details": "See {IERC721Receiver-onERC721Received}. Always returns `IERC721Receiver.onERC721Received.selector`."
      },
      "owner()": {
        "details": "Returns the address of the current owner."
      },
      "pause()": {
        "details": "Triggers stopped state. Requirements: - Only the owner can call this method. - The contract must not be paused."
      },
      "paused()": {
        "details": "Returns true if the contract is paused, and false otherwise."
      },
      "refinanceCollectionOfferLoan((uint256,address),(uint256,uint256,uint256,address,uint32,uint16,address,address),(uint256,uint256,address,bytes),(address,uint16))": {
        "params": {
          "_borrowerSettings": "- Settings related to the borrower",
          "_lenderSignature": "- Signature of the lender",
          "_offer": "- The loan offer details",
          "_refinancingData": "- Data related to the refinancing loan"
        }
      },
      "refinanceCollectionRangeOfferLoan((uint256,address),(uint256,uint256,uint256,address,uint32,uint16,address,address),(uint256,uint256),(uint256,uint256,address,bytes),(address,uint16))": {
        "params": {
          "_borrowerSettings": "- Settings related to the borrower",
          "_idRange": "- id range of collateral",
          "_lenderSignature": "- Signature of the lender",
          "_offer": "- The loan offer details",
          "_refinancingData": "- Data related to the refinancing loan"
        }
      },
      "refinanceLoan((uint256,address),(uint256,uint256,uint256,address,uint32,uint16,address,address),(uint256,uint256,address,bytes),(address,uint16))": {
        "params": {
          "_borrowerSettings": "- Settings related to the borrower",
          "_lenderSignature": "- Signature of the lender",
          "_offer": "- The loan offer details",
          "_refinancingData": "- Data related to the refinancing loan"
        }
      },
      "requestTransferOwnership(address)": {
        "details": "Requests transferring ownership of the contract to a new account (`_newOwnerCandidate`). Can only be called by the current owner."
      },
      "setFlashloanFee(uint256)": {
        "details": "Sets the fee for flash loans.",
        "params": {
          "_flashloanFee": "The fee percentage for flash loans."
        }
      },
      "setRefinanceableContract(address,string)": {
        "params": {
          "_refinanceableContract": "- Address of the refinanceable contract.",
          "_refinanceableType": "- Refinanceable type, e.g., \"DIRECT_LOAN_FIXED_OFFER\". - \"\" means \"disable this permit\" - != \"\" means \"enable permit with the given NFT Type\""
        }
      },
      "setRefinanceableContracts(address[],string[])": {
        "params": {
          "_refinanceableContracts": "- Array of refinanceable contract addresses.",
          "_refinanceableTypes": "- Array of refinanceable types associated with the refinanceable contracts. - \"\" means \"disable this permit\" - != \"\" means \"enable permit with the given NFT Type\""
        }
      },
      "setRefinanceableType(string,address)": {
        "params": {
          "_refinanceableType": "- Refinanceable type, e.g., \"DIRECT_LOAN_FIXED_OFFER\"",
          "_refinancingAdapter": "- Address of the refinancing adapter contract that implements the refinanceable behavior for dealing with the correct refinanceable type"
        }
      },
      "setRefinanceableTypes(string[],address[])": {
        "params": {
          "_refinanceableTypes": "- Array of refinanceable types, e.g., \"DIRECT_LOAN_FIXED_OFFER\"",
          "_refinancingAdapters": "- Array of addresses of the refinancing adapter contracts that implement the refinanceable behavior for dealing with the correct refinanceable type"
        }
      },
      "setSupportedTokenSwapFeeRate(address,uint24)": {
        "details": "Sets the swap fee rate for a single supported token.",
        "params": {
          "_supportedToken": "The address of the supported token.",
          "_swapFeeRate": "The swap fee rate for the specified supported token."
        }
      },
      "setSupportedTokenSwapFeeRates(address[],uint24[])": {
        "details": "Sets the swap fee rates for multiple supported tokens in batch.",
        "params": {
          "_supportedTokens": "An array of addresses of the supported tokens.",
          "_swapFeeRates": "An array of corresponding swap fee rates for each supported token."
        }
      },
      "setTargetLoanFixedOfferContract(address)": {
        "details": "Sets the target loan contract address",
        "params": {
          "_targetLoanFixedOfferContract": "The address of the target loan contract."
        }
      },
      "settargetLoanCollectionOfferContract(address)": {
        "details": "Sets the target loan collection offer contract address",
        "params": {
          "_targetLoanCollectionOfferContract": "The address of the target loan contract."
        }
      },
      "supportsInterface(bytes4)": {
        "details": "Checks whether this contract implements the interface defined by `interfaceId`.",
        "params": {
          "_interfaceId": "Id of the interface"
        },
        "returns": {
          "_0": "true if this contract implements the interface"
        }
      },
      "unpause()": {
        "details": "Returns to normal state. Requirements: - Only the owner can call this method. - The contract must be paused."
      }
    },
    "title": "Refinancing",
    "version": 1
  },
  "userdoc": {
    "events": {
      "NewRefinanceableContract(address,bytes32)": {
        "notice": "This event is fired whenever the admin sets a new refinanceable contract"
      },
      "TypeUpdated(bytes32,address)": {
        "notice": "This event is fired whenever the admins register a refinancing type."
      }
    },
    "kind": "user",
    "methods": {
      "callFunction(address,(address,uint256),bytes)": {
        "notice": "Function that's called back when flashloan is executed. Decodes the data returned by the flashloan, then calls the internal `_refinanceFlashloanCallback` function. DyDx flashloan interface expects this function to exist this function is only the entry point of the operations happening in the callback, it also serves to decode the callback data, the main logic is implemented in _refinanceFlashloanCallback()"
      },
      "constructor": {
        "notice": "Sets the admin of the contract. Initializes `contractTypes` with a batch of loan types. Sets `NftfiHub`. Initializes RefinancingAdapterRegistry and Flashloan contracts"
      },
      "getRefinanceableContract(address)": {
        "notice": "Looks up the refinanceable type associated with a refinanceable contract."
      },
      "getRefinancingAdapter(address)": {
        "notice": "Looks up the address of the refinanceable adapter associated with the refinanceable contract type."
      },
      "getRefinancingAdapterOfType(bytes32)": {
        "notice": "Gets the address of the refinancing adapter contract that implements the given refinanceable type."
      },
      "refinanceCollectionOfferLoan((uint256,address),(uint256,uint256,uint256,address,uint32,uint16,address,address),(uint256,uint256,address,bytes),(address,uint16))": {
        "notice": "External function for refinancing a collaction offer loan, sets targetType, and calls the internal _refinance(...) function"
      },
      "refinanceCollectionRangeOfferLoan((uint256,address),(uint256,uint256,uint256,address,uint32,uint16,address,address),(uint256,uint256),(uint256,uint256,address,bytes),(address,uint16))": {
        "notice": "External function for refinancing a collaction offer loan with id ranges, sets targetType, and calls the internal _refinance(...) function"
      },
      "refinanceLoan((uint256,address),(uint256,uint256,uint256,address,uint32,uint16,address,address),(uint256,uint256,address,bytes),(address,uint16))": {
        "notice": "External function for refinancing a regular (non-collaction offer) loan, sets targetType, and calls the internal _refinance(...) function"
      },
      "setRefinanceableContract(address,string)": {
        "notice": "Changes the status of a refinanceable contract. This includes both adding a refinanceable contract to the permitted list and removing it."
      },
      "setRefinanceableContracts(address[],string[])": {
        "notice": "Changes the status of a batch of refinanceable contracts. This includes both adding refinanceable contracts to the permitted list and removing them."
      },
      "setRefinanceableType(string,address)": {
        "notice": "Sets or updates the address of the refinanceable adapter contract for the given refinanceable type. Set address(0) for a refinanceable type to unregister it."
      },
      "setRefinanceableTypes(string[],address[])": {
        "notice": "Sets or updates the addresses of the refinanceable adapter contracts for the given batch of refinanceable types. Set address(0) for a refinanceable type to unregister it."
      }
    },
    "version": 1
  },
  "storageLayout": {
    "storage": [
      {
        "astId": 12149,
        "contract": "contracts/refinancing/Refinancing.sol:Refinancing",
        "label": "_owner",
        "offset": 0,
        "slot": "0",
        "type": "t_address"
      },
      {
        "astId": 12151,
        "contract": "contracts/refinancing/Refinancing.sol:Refinancing",
        "label": "_ownerCandidate",
        "offset": 0,
        "slot": "1",
        "type": "t_address"
      },
      {
        "astId": 10921,
        "contract": "contracts/refinancing/Refinancing.sol:Refinancing",
        "label": "refinanceableTypes",
        "offset": 0,
        "slot": "2",
        "type": "t_mapping(t_bytes32,t_address)"
      },
      {
        "astId": 10925,
        "contract": "contracts/refinancing/Refinancing.sol:Refinancing",
        "label": "refinanceableContracts",
        "offset": 0,
        "slot": "3",
        "type": "t_mapping(t_address,t_bytes32)"
      },
      {
        "astId": 10467,
        "contract": "contracts/refinancing/Refinancing.sol:Refinancing",
        "label": "tokenFlashloanble",
        "offset": 0,
        "slot": "4",
        "type": "t_mapping(t_address,t_bool)"
      },
      {
        "astId": 10471,
        "contract": "contracts/refinancing/Refinancing.sol:Refinancing",
        "label": "marketIds",
        "offset": 0,
        "slot": "5",
        "type": "t_mapping(t_address,t_uint256)"
      },
      {
        "astId": 10473,
        "contract": "contracts/refinancing/Refinancing.sol:Refinancing",
        "label": "flashloanFee",
        "offset": 0,
        "slot": "6",
        "type": "t_uint256"
      },
      {
        "astId": 10162,
        "contract": "contracts/refinancing/Refinancing.sol:Refinancing",
        "label": "supportedTokenFeeRates",
        "offset": 0,
        "slot": "7",
        "type": "t_mapping(t_address,t_uint24)"
      },
      {
        "astId": 420,
        "contract": "contracts/refinancing/Refinancing.sol:Refinancing",
        "label": "_paused",
        "offset": 0,
        "slot": "8",
        "type": "t_bool"
      },
      {
        "astId": 521,
        "contract": "contracts/refinancing/Refinancing.sol:Refinancing",
        "label": "_status",
        "offset": 0,
        "slot": "9",
        "type": "t_uint256"
      },
      {
        "astId": 8695,
        "contract": "contracts/refinancing/Refinancing.sol:Refinancing",
        "label": "targetLoanFixedOfferContract",
        "offset": 0,
        "slot": "10",
        "type": "t_address"
      },
      {
        "astId": 8697,
        "contract": "contracts/refinancing/Refinancing.sol:Refinancing",
        "label": "targetLoanCollectionOfferContract",
        "offset": 0,
        "slot": "11",
        "type": "t_address"
      },
      {
        "astId": 8708,
        "contract": "contracts/refinancing/Refinancing.sol:Refinancing",
        "label": "latestRefinancedLoanId",
        "offset": 20,
        "slot": "11",
        "type": "t_uint32"
      }
    ],
    "types": {
      "t_address": {
        "encoding": "inplace",
        "label": "address",
        "numberOfBytes": "20"
      },
      "t_bool": {
        "encoding": "inplace",
        "label": "bool",
        "numberOfBytes": "1"
      },
      "t_bytes32": {
        "encoding": "inplace",
        "label": "bytes32",
        "numberOfBytes": "32"
      },
      "t_mapping(t_address,t_bool)": {
        "encoding": "mapping",
        "key": "t_address",
        "label": "mapping(address => bool)",
        "numberOfBytes": "32",
        "value": "t_bool"
      },
      "t_mapping(t_address,t_bytes32)": {
        "encoding": "mapping",
        "key": "t_address",
        "label": "mapping(address => bytes32)",
        "numberOfBytes": "32",
        "value": "t_bytes32"
      },
      "t_mapping(t_address,t_uint24)": {
        "encoding": "mapping",
        "key": "t_address",
        "label": "mapping(address => uint24)",
        "numberOfBytes": "32",
        "value": "t_uint24"
      },
      "t_mapping(t_address,t_uint256)": {
        "encoding": "mapping",
        "key": "t_address",
        "label": "mapping(address => uint256)",
        "numberOfBytes": "32",
        "value": "t_uint256"
      },
      "t_mapping(t_bytes32,t_address)": {
        "encoding": "mapping",
        "key": "t_bytes32",
        "label": "mapping(bytes32 => address)",
        "numberOfBytes": "32",
        "value": "t_address"
      },
      "t_uint24": {
        "encoding": "inplace",
        "label": "uint24",
        "numberOfBytes": "3"
      },
      "t_uint256": {
        "encoding": "inplace",
        "label": "uint256",
        "numberOfBytes": "32"
      },
      "t_uint32": {
        "encoding": "inplace",
        "label": "uint32",
        "numberOfBytes": "4"
      }
    }
  }
}