{
  "address": "0x89f2e3cacf5a664adc75e989ad9173dd513d6312",
  "abi": [
    {
      "inputs": [],
      "stateMutability": "payable",
      "type": "constructor"
    },
    {
      "anonymous": false,
      "inputs": [
        {
          "indexed": true,
          "internalType": "address",
          "name": "to",
          "type": "address"
        },
        {
          "indexed": false,
          "internalType": "uint256",
          "name": "punkIndex",
          "type": "uint256"
        }
      ],
      "name": "Assign",
      "type": "event"
    },
    {
      "anonymous": false,
      "inputs": [
        {
          "indexed": true,
          "internalType": "uint256",
          "name": "punkIndex",
          "type": "uint256"
        },
        {
          "indexed": false,
          "internalType": "uint256",
          "name": "value",
          "type": "uint256"
        },
        {
          "indexed": true,
          "internalType": "address",
          "name": "fromAddress",
          "type": "address"
        },
        {
          "indexed": true,
          "internalType": "address",
          "name": "toAddress",
          "type": "address"
        }
      ],
      "name": "PunkBought",
      "type": "event"
    },
    {
      "anonymous": false,
      "inputs": [
        {
          "indexed": true,
          "internalType": "uint256",
          "name": "punkIndex",
          "type": "uint256"
        }
      ],
      "name": "PunkNoLongerForSale",
      "type": "event"
    },
    {
      "anonymous": false,
      "inputs": [
        {
          "indexed": true,
          "internalType": "uint256",
          "name": "punkIndex",
          "type": "uint256"
        },
        {
          "indexed": false,
          "internalType": "uint256",
          "name": "minValue",
          "type": "uint256"
        },
        {
          "indexed": true,
          "internalType": "address",
          "name": "toAddress",
          "type": "address"
        }
      ],
      "name": "PunkOffered",
      "type": "event"
    },
    {
      "anonymous": false,
      "inputs": [
        {
          "indexed": true,
          "internalType": "address",
          "name": "from",
          "type": "address"
        },
        {
          "indexed": true,
          "internalType": "address",
          "name": "to",
          "type": "address"
        },
        {
          "indexed": false,
          "internalType": "uint256",
          "name": "punkIndex",
          "type": "uint256"
        }
      ],
      "name": "PunkTransfer",
      "type": "event"
    },
    {
      "anonymous": false,
      "inputs": [
        {
          "indexed": true,
          "internalType": "address",
          "name": "from",
          "type": "address"
        },
        {
          "indexed": true,
          "internalType": "address",
          "name": "to",
          "type": "address"
        },
        {
          "indexed": false,
          "internalType": "uint256",
          "name": "value",
          "type": "uint256"
        }
      ],
      "name": "Transfer",
      "type": "event"
    },
    {
      "inputs": [
        {
          "internalType": "address",
          "name": "",
          "type": "address"
        }
      ],
      "name": "balanceOf",
      "outputs": [
        {
          "internalType": "uint256",
          "name": "",
          "type": "uint256"
        }
      ],
      "stateMutability": "view",
      "type": "function"
    },
    {
      "inputs": [
        {
          "internalType": "uint256",
          "name": "punkIndex",
          "type": "uint256"
        }
      ],
      "name": "buyPunk",
      "outputs": [],
      "stateMutability": "payable",
      "type": "function"
    },
    {
      "inputs": [],
      "name": "counter",
      "outputs": [
        {
          "internalType": "uint256",
          "name": "",
          "type": "uint256"
        }
      ],
      "stateMutability": "view",
      "type": "function"
    },
    {
      "inputs": [],
      "name": "decimals",
      "outputs": [
        {
          "internalType": "uint8",
          "name": "",
          "type": "uint8"
        }
      ],
      "stateMutability": "view",
      "type": "function"
    },
    {
      "inputs": [
        {
          "internalType": "address",
          "name": "to",
          "type": "address"
        }
      ],
      "name": "mintPunk",
      "outputs": [],
      "stateMutability": "nonpayable",
      "type": "function"
    },
    {
      "inputs": [],
      "name": "name",
      "outputs": [
        {
          "internalType": "string",
          "name": "",
          "type": "string"
        }
      ],
      "stateMutability": "view",
      "type": "function"
    },
    {
      "inputs": [
        {
          "internalType": "uint256",
          "name": "punkIndex",
          "type": "uint256"
        },
        {
          "internalType": "uint256",
          "name": "minSalePriceInWei",
          "type": "uint256"
        },
        {
          "internalType": "address",
          "name": "toAddress",
          "type": "address"
        }
      ],
      "name": "offerPunkForSaleToAddress",
      "outputs": [],
      "stateMutability": "nonpayable",
      "type": "function"
    },
    {
      "inputs": [
        {
          "internalType": "address",
          "name": "",
          "type": "address"
        }
      ],
      "name": "pendingWithdrawals",
      "outputs": [
        {
          "internalType": "uint256",
          "name": "",
          "type": "uint256"
        }
      ],
      "stateMutability": "view",
      "type": "function"
    },
    {
      "inputs": [
        {
          "internalType": "uint256",
          "name": "",
          "type": "uint256"
        }
      ],
      "name": "punkIndexToAddress",
      "outputs": [
        {
          "internalType": "address",
          "name": "",
          "type": "address"
        }
      ],
      "stateMutability": "view",
      "type": "function"
    },
    {
      "inputs": [
        {
          "internalType": "uint256",
          "name": "punkIndex",
          "type": "uint256"
        }
      ],
      "name": "punkNoLongerForSale",
      "outputs": [],
      "stateMutability": "nonpayable",
      "type": "function"
    },
    {
      "inputs": [
        {
          "internalType": "uint256",
          "name": "",
          "type": "uint256"
        }
      ],
      "name": "punksOfferedForSale",
      "outputs": [
        {
          "internalType": "bool",
          "name": "isForSale",
          "type": "bool"
        },
        {
          "internalType": "uint256",
          "name": "punkIndex",
          "type": "uint256"
        },
        {
          "internalType": "address",
          "name": "seller",
          "type": "address"
        },
        {
          "internalType": "uint256",
          "name": "minValue",
          "type": "uint256"
        },
        {
          "internalType": "address",
          "name": "onlySellTo",
          "type": "address"
        }
      ],
      "stateMutability": "view",
      "type": "function"
    },
    {
      "inputs": [],
      "name": "standard",
      "outputs": [
        {
          "internalType": "string",
          "name": "",
          "type": "string"
        }
      ],
      "stateMutability": "view",
      "type": "function"
    },
    {
      "inputs": [],
      "name": "symbol",
      "outputs": [
        {
          "internalType": "string",
          "name": "",
          "type": "string"
        }
      ],
      "stateMutability": "view",
      "type": "function"
    },
    {
      "inputs": [],
      "name": "totalSupply",
      "outputs": [
        {
          "internalType": "uint256",
          "name": "",
          "type": "uint256"
        }
      ],
      "stateMutability": "view",
      "type": "function"
    },
    {
      "inputs": [
        {
          "internalType": "address",
          "name": "to",
          "type": "address"
        },
        {
          "internalType": "uint256",
          "name": "punkIndex",
          "type": "uint256"
        }
      ],
      "name": "transferPunk",
      "outputs": [],
      "stateMutability": "nonpayable",
      "type": "function"
    }
  ],
  "transactionHash": "0xa5c4497091883d1fede2da840977ffcea7fd360a2120233798db20e87420e95c",
  "args": [],
  "numDeployments": 1,
  "solcInputHash": "1a8fa01f7869bdb20e0c3fb0bc984936",
  "bytecode": "0x60c0604052600b60809081526a43727970746f50756e6b7360a81b60a0526000906200002c908262000148565b50600060055561271060045560408051808201909152600c81526b544553544e455450554e4b5360a01b60208201526001906200006a908262000148565b5060408051808201909152600280825261544360f01b60208301529062000092908262000148565b506003805460ff1916905562000214565b634e487b7160e01b600052604160045260246000fd5b600181811c90821680620000ce57607f821691505b602082108103620000ef57634e487b7160e01b600052602260045260246000fd5b50919050565b601f8211156200014357600081815260208120601f850160051c810160208610156200011e5750805b601f850160051c820191505b818110156200013f578281556001016200012a565b5050505b505050565b81516001600160401b03811115620001645762000164620000a3565b6200017c81620001758454620000b9565b84620000f5565b602080601f831160018114620001b457600084156200019b5750858301515b600019600386901b1c1916600185901b1785556200013f565b600085815260208120601f198616915b82811015620001e557888601518255948401946001909101908401620001c4565b5085821015620002045787850151600019600388901b60f8161c191681555b5050505050600190811b01905550565b610cea80620002246000396000f3fe6080604052600436106100c85760003560e01c806370a082311161007a57806370a08231146102505780638264fe981461027d57806388c76581146102925780638b72a2ec146102b257806395d89b41146102d2578063bf31196f146102e7578063f3f4370314610307578063f6eeff1e1461033457600080fd5b806306fdde03146100cd578063088f11f3146100f857806318160ddd14610187578063313ce567146101ab57806358178168146101d75780635a3b7e421461022557806361bc221a1461023a575b600080fd5b3480156100d957600080fd5b506100e2610354565b6040516100ef9190610b07565b60405180910390f35b34801561010457600080fd5b50610151610113366004610b55565b6006602052600090815260409020805460018201546002830154600384015460049094015460ff9093169391926001600160a01b0391821692911685565b60408051951515865260208601949094526001600160a01b0392831693850193909352606084015216608082015260a0016100ef565b34801561019357600080fd5b5061019d60045481565b6040519081526020016100ef565b3480156101b757600080fd5b506003546101c59060ff1681565b60405160ff90911681526020016100ef565b3480156101e357600080fd5b5061020d6101f2366004610b55565b6007602052600090815260409020546001600160a01b031681565b6040516001600160a01b0390911681526020016100ef565b34801561023157600080fd5b506100e26103e2565b34801561024657600080fd5b5061019d60055481565b34801561025c57600080fd5b5061019d61026b366004610b8a565b60086020526000908152604090205481565b61029061028b366004610b55565b6103ef565b005b34801561029e57600080fd5b506102906102ad366004610b8a565b6106dc565b3480156102be57600080fd5b506102906102cd366004610bac565b610782565b3480156102de57600080fd5b506100e26108cc565b3480156102f357600080fd5b50610290610302366004610bd6565b6108d9565b34801561031357600080fd5b5061019d610322366004610b8a565b60096020526000908152604090205481565b34801561034057600080fd5b5061029061034f366004610b55565b6109fa565b6001805461036190610c0b565b80601f016020809104026020016040519081016040528092919081815260200182805461038d90610c0b565b80156103da5780601f106103af576101008083540402835291602001916103da565b820191906000526020600020905b8154815290600101906020018083116103bd57829003601f168201915b505050505081565b6000805461036190610c0b565b600081815260066020908152604091829020825160a081018452815460ff161515815260018201549281019290925260028101546001600160a01b03908116938301939093526003810154606083015260040154909116608082015261271082106104755760405162461bcd60e51b815260040161046c90610c45565b60405180910390fd5b80516104b75760405162461bcd60e51b815260206004820152601160248201527070756e6b206e6f7420666f722073616c6560781b604482015260640161046c565b60808101516001600160a01b031615806104dd575060808101516001600160a01b031633145b6105295760405162461bcd60e51b815260206004820152601d60248201527f73686f756c646e7420626520736f6c6420746f20746869732075736572000000604482015260640161046c565b80606001513410156105735760405162461bcd60e51b81526020600482015260136024820152721b9bdd08195b9bdd59da08115512081cd95b9d606a1b604482015260640161046c565b6040808201516000848152600760205291909120546001600160a01b039081169116146105d55760405162461bcd60e51b815260206004820152601060248201526f39b2b63632b9103737ba1037bbb732b960811b604482015260640161046c565b60408082015160008481526007602090815283822080546001600160a01b031916331790556001600160a01b0383168252600890529182208054919261061a83610c83565b909155505033600090815260086020526040812080549161063a83610c9a565b90915550506040516001815233906001600160a01b038316907fddf252ad1be2c89b69c2b068fc378daa952ba7f163c4a11628f55a4df523b3ef9060200160405180910390a3610689836109fa565b336001600160a01b0316816001600160a01b0316847f58e5d5a525e3b40bc15abaa38b5882678db1ee68befd2f60bafe3a7fd06db9e3346040516106cf91815260200190565b60405180910390a4505050565b600554600081815260076020908152604080832080546001600160a01b0319166001600160a01b03871690811790915583526008909152812080549161072183610c9a565b90915550506005805490600061073683610c9a565b9190505550816001600160a01b03167f8a0e37b73a0d9c82e205d4d1a3ff3d0b57ce5f4d7bccf6bac03336dc101cb7ba8260405161077691815260200190565b60405180910390a25050565b6000818152600760205260409020546001600160a01b031633146107b85760405162461bcd60e51b815260040161046c90610cb3565b61271081106107d95760405162461bcd60e51b815260040161046c90610c45565b600081815260076020908152604080832080546001600160a01b0319166001600160a01b0387161790553383526008909152812080549161081983610c83565b90915550506001600160a01b038216600090815260086020526040812080549161084283610c9a565b9091555050604051600181526001600160a01b0383169033907fddf252ad1be2c89b69c2b068fc378daa952ba7f163c4a11628f55a4df523b3ef9060200160405180910390a36040518181526001600160a01b0383169033907f05af636b70da6819000c49f85b21fa82081c632069bb626f30932034099107d89060200160405180910390a35050565b6002805461036190610c0b565b6000838152600760205260409020546001600160a01b0316331461090f5760405162461bcd60e51b815260040161046c90610cb3565b61271083106109305760405162461bcd60e51b815260040161046c90610c45565b6040805160a0810182526001808252602080830187815233848601908152606085018881526001600160a01b038881166080880181815260008d8152600688528a90209851895460ff191690151517895594519688019690965591516002870180546001600160a01b031990811692851692909217905590516003870155915160049095018054909216941693909317909255915184815285917f3c7b682d5da98001a9b8cbda6c647d2c63d698a4184fd1d55e2ce7b66f5d21eb910160405180910390a3505050565b6000818152600760205260409020546001600160a01b03163314610a305760405162461bcd60e51b815260040161046c90610cb3565b6127108110610a515760405162461bcd60e51b815260040161046c90610c45565b6040805160a0810182526000808252602080830185815233848601908152606085018481526080860185815288865260069094528685209551865460ff191690151517865591516001860155516002850180546001600160a01b03199081166001600160a01b0393841617909155915160038601559151600490940180549091169390911692909217909155905182917fb0e0a660b4e50f26f0b7ce75c24655fc76cc66e3334a54ff410277229fa10bd491a250565b600060208083528351808285015260005b81811015610b3457858101830151858201604001528201610b18565b506000604082860101526040601f19601f8301168501019250505092915050565b600060208284031215610b6757600080fd5b5035919050565b80356001600160a01b0381168114610b8557600080fd5b919050565b600060208284031215610b9c57600080fd5b610ba582610b6e565b9392505050565b60008060408385031215610bbf57600080fd5b610bc883610b6e565b946020939093013593505050565b600080600060608486031215610beb57600080fd5b8335925060208401359150610c0260408501610b6e565b90509250925092565b600181811c90821680610c1f57607f821691505b602082108103610c3f57634e487b7160e01b600052602260045260246000fd5b50919050565b6020808252600e908201526d0696e646578203e3d2031303030360941b604082015260600190565b634e487b7160e01b600052601160045260246000fd5b600081610c9257610c92610c6d565b506000190190565b600060018201610cac57610cac610c6d565b5060010190565b60208082526010908201526f39b2b73232b9103737ba1037bbb732b960811b60408201526060019056fea164736f6c6343000813000a",
  "devdoc": {
    "kind": "dev",
    "methods": {},
    "version": 1
  },
  "userdoc": {
    "kind": "user",
    "methods": {},
    "version": 1
  },
  "storageLayout": {
    "storage": [
      {
        "astId": 21705,
        "contract": "contracts/test/TestnetPunks.sol:TestnetPunks",
        "label": "standard",
        "offset": 0,
        "slot": "0",
        "type": "t_string_storage"
      },
      {
        "astId": 21707,
        "contract": "contracts/test/TestnetPunks.sol:TestnetPunks",
        "label": "name",
        "offset": 0,
        "slot": "1",
        "type": "t_string_storage"
      },
      {
        "astId": 21709,
        "contract": "contracts/test/TestnetPunks.sol:TestnetPunks",
        "label": "symbol",
        "offset": 0,
        "slot": "2",
        "type": "t_string_storage"
      },
      {
        "astId": 21711,
        "contract": "contracts/test/TestnetPunks.sol:TestnetPunks",
        "label": "decimals",
        "offset": 0,
        "slot": "3",
        "type": "t_uint8"
      },
      {
        "astId": 21713,
        "contract": "contracts/test/TestnetPunks.sol:TestnetPunks",
        "label": "totalSupply",
        "offset": 0,
        "slot": "4",
        "type": "t_uint256"
      },
      {
        "astId": 21716,
        "contract": "contracts/test/TestnetPunks.sol:TestnetPunks",
        "label": "counter",
        "offset": 0,
        "slot": "5",
        "type": "t_uint256"
      },
      {
        "astId": 21732,
        "contract": "contracts/test/TestnetPunks.sol:TestnetPunks",
        "label": "punksOfferedForSale",
        "offset": 0,
        "slot": "6",
        "type": "t_mapping(t_uint256,t_struct(Offer)21727_storage)"
      },
      {
        "astId": 21737,
        "contract": "contracts/test/TestnetPunks.sol:TestnetPunks",
        "label": "punkIndexToAddress",
        "offset": 0,
        "slot": "7",
        "type": "t_mapping(t_uint256,t_address)"
      },
      {
        "astId": 21742,
        "contract": "contracts/test/TestnetPunks.sol:TestnetPunks",
        "label": "balanceOf",
        "offset": 0,
        "slot": "8",
        "type": "t_mapping(t_address,t_uint256)"
      },
      {
        "astId": 21746,
        "contract": "contracts/test/TestnetPunks.sol:TestnetPunks",
        "label": "pendingWithdrawals",
        "offset": 0,
        "slot": "9",
        "type": "t_mapping(t_address,t_uint256)"
      }
    ],
    "types": {
      "t_address": {
        "encoding": "inplace",
        "label": "address",
        "numberOfBytes": "20"
      },
      "t_bool": {
        "encoding": "inplace",
        "label": "bool",
        "numberOfBytes": "1"
      },
      "t_mapping(t_address,t_uint256)": {
        "encoding": "mapping",
        "key": "t_address",
        "label": "mapping(address => uint256)",
        "numberOfBytes": "32",
        "value": "t_uint256"
      },
      "t_mapping(t_uint256,t_address)": {
        "encoding": "mapping",
        "key": "t_uint256",
        "label": "mapping(uint256 => address)",
        "numberOfBytes": "32",
        "value": "t_address"
      },
      "t_mapping(t_uint256,t_struct(Offer)21727_storage)": {
        "encoding": "mapping",
        "key": "t_uint256",
        "label": "mapping(uint256 => struct TestnetPunks.Offer)",
        "numberOfBytes": "32",
        "value": "t_struct(Offer)21727_storage"
      },
      "t_string_storage": {
        "encoding": "bytes",
        "label": "string",
        "numberOfBytes": "32"
      },
      "t_struct(Offer)21727_storage": {
        "encoding": "inplace",
        "label": "struct TestnetPunks.Offer",
        "members": [
          {
            "astId": 21718,
            "contract": "contracts/test/TestnetPunks.sol:TestnetPunks",
            "label": "isForSale",
            "offset": 0,
            "slot": "0",
            "type": "t_bool"
          },
          {
            "astId": 21720,
            "contract": "contracts/test/TestnetPunks.sol:TestnetPunks",
            "label": "punkIndex",
            "offset": 0,
            "slot": "1",
            "type": "t_uint256"
          },
          {
            "astId": 21722,
            "contract": "contracts/test/TestnetPunks.sol:TestnetPunks",
            "label": "seller",
            "offset": 0,
            "slot": "2",
            "type": "t_address"
          },
          {
            "astId": 21724,
            "contract": "contracts/test/TestnetPunks.sol:TestnetPunks",
            "label": "minValue",
            "offset": 0,
            "slot": "3",
            "type": "t_uint256"
          },
          {
            "astId": 21726,
            "contract": "contracts/test/TestnetPunks.sol:TestnetPunks",
            "label": "onlySellTo",
            "offset": 0,
            "slot": "4",
            "type": "t_address"
          }
        ],
        "numberOfBytes": "160"
      },
      "t_uint256": {
        "encoding": "inplace",
        "label": "uint256",
        "numberOfBytes": "32"
      },
      "t_uint8": {
        "encoding": "inplace",
        "label": "uint8",
        "numberOfBytes": "1"
      }
    }
  }
}