{
  "address": "0xb37FE6603Abf427682C33836221Cf54987E1F09B",
  "abi": [
    {
      "inputs": [
        {
          "internalType": "address",
          "name": "_owner",
          "type": "address"
        },
        {
          "internalType": "address",
          "name": "_nftContract",
          "type": "address"
        },
        {
          "internalType": "uint256",
          "name": "_tokenId",
          "type": "uint256"
        }
      ],
      "name": "isOwner",
      "outputs": [
        {
          "internalType": "bool",
          "name": "",
          "type": "bool"
        }
      ],
      "stateMutability": "view",
      "type": "function"
    },
    {
      "inputs": [
        {
          "internalType": "address",
          "name": "_sender",
          "type": "address"
        },
        {
          "internalType": "address",
          "name": "_recipient",
          "type": "address"
        },
        {
          "internalType": "address",
          "name": "_nftContract",
          "type": "address"
        },
        {
          "internalType": "uint256",
          "name": "_nftId",
          "type": "uint256"
        }
      ],
      "name": "transferNFT",
      "outputs": [
        {
          "internalType": "bool",
          "name": "",
          "type": "bool"
        }
      ],
      "stateMutability": "nonpayable",
      "type": "function"
    },
    {
      "inputs": [
        {
          "internalType": "address",
          "name": "_recipient",
          "type": "address"
        },
        {
          "internalType": "address",
          "name": "_nftContract",
          "type": "address"
        },
        {
          "internalType": "uint256",
          "name": "_nftId",
          "type": "uint256"
        },
        {
          "internalType": "address",
          "name": "_beneficiary",
          "type": "address"
        }
      ],
      "name": "wrapAirdropReceiver",
      "outputs": [
        {
          "internalType": "bool",
          "name": "",
          "type": "bool"
        }
      ],
      "stateMutability": "nonpayable",
      "type": "function"
    }
  ],
  "transactionHash": "0x5d8c07cfbf95ee20406cb9078fc866b6dbcbbf00117ed7ee400f812c793781a8",
  "args": [],
  "numDeployments": 1,
  "solcInputHash": "e960dbb71492b307ed8580de393cc147",
  "bytecode": "0x608060405234801561001057600080fd5b506103a2806100206000396000f3fe608060405234801561001057600080fd5b50600436106100415760003560e01c8063b030667114610046578063c7783aaa1461006d578063f370e8c514610080575b600080fd5b61005961005436600461022f565b610093565b604051901515815260200160405180910390f35b61005961007b3660046102b4565b610122565b61005961008e366004610279565b610187565b604051637921219560e11b81526001600160a01b0385811660048301528481166024830152604482018390526001606483015260a06084830152600060a48301819052919084169063f242432a9060c4015b600060405180830381600087803b1580156100ff57600080fd5b505af1158015610113573d6000803e3d6000fd5b50600198975050505050505050565b6000836001600160a01b031663f242432a30878660018760405160200161015891906001600160a01b0391909116815260200190565b6040516020818303038152906040526040518663ffffffff1660e01b81526004016100e5959493929190610318565b604051627eeac760e11b81526001600160a01b03848116600483015260248201839052600091829185169062fdd58e9060440160206040518083038186803b1580156101d257600080fd5b505afa1580156101e6573d6000803e3d6000fd5b505050506040513d601f19601f8201168201806040525081019061020a9190610300565b11949350505050565b80356001600160a01b038116811461022a57600080fd5b919050565b60008060008060808587031215610244578384fd5b61024d85610213565b935061025b60208601610213565b925061026960408601610213565b9396929550929360600135925050565b60008060006060848603121561028d578283fd5b61029684610213565b92506102a460208501610213565b9150604084013590509250925092565b600080600080608085870312156102c9578384fd5b6102d285610213565b93506102e060208601610213565b9250604085013591506102f560608601610213565b905092959194509250565b600060208284031215610311578081fd5b5051919050565b600060018060a01b03808816835260208188168185015286604085015285606085015260a06080850152845191508160a0850152825b8281101561036a5785810182015185820160c00152810161034e565b8281111561037b578360c084870101525b5050601f01601f19169190910160c001969550505050505056fea164736f6c6343000804000a",
  "devdoc": {
    "details": "Provides logic to transfer ERC1155 tokens",
    "kind": "dev",
    "methods": {
      "transferNFT(address,address,address,uint256)": {
        "details": "Transfer the nft to the `recipient`",
        "params": {
          "_nftContract": "Address of the nft contract",
          "_nftId": "Id of the nft",
          "_recipient": "Address that will receive the nft",
          "_sender": "Address of the current owner of the nft"
        },
        "returns": {
          "_0": "true if successfully transferred, false otherwise"
        }
      }
    },
    "title": "ERC1155Wrapper",
    "version": 1
  },
  "userdoc": {
    "kind": "user",
    "methods": {},
    "version": 1
  },
  "storageLayout": {
    "storage": [],
    "types": null
  }
}