{
  "address": "0x430F44d9521D984b4Eef98FF72846b7a57b6bbFE",
  "abi": [
    {
      "inputs": [
        {
          "internalType": "address",
          "name": "_nftfiHub",
          "type": "address"
        },
        {
          "internalType": "string",
          "name": "_name",
          "type": "string"
        },
        {
          "internalType": "string",
          "name": "_symbol",
          "type": "string"
        }
      ],
      "stateMutability": "nonpayable",
      "type": "constructor"
    },
    {
      "anonymous": false,
      "inputs": [
        {
          "indexed": true,
          "internalType": "address",
          "name": "owner",
          "type": "address"
        },
        {
          "indexed": true,
          "internalType": "address",
          "name": "approved",
          "type": "address"
        },
        {
          "indexed": true,
          "internalType": "uint256",
          "name": "tokenId",
          "type": "uint256"
        }
      ],
      "name": "Approval",
      "type": "event"
    },
    {
      "anonymous": false,
      "inputs": [
        {
          "indexed": true,
          "internalType": "address",
          "name": "owner",
          "type": "address"
        },
        {
          "indexed": true,
          "internalType": "address",
          "name": "operator",
          "type": "address"
        },
        {
          "indexed": false,
          "internalType": "bool",
          "name": "approved",
          "type": "bool"
        }
      ],
      "name": "ApprovalForAll",
      "type": "event"
    },
    {
      "anonymous": false,
      "inputs": [
        {
          "indexed": false,
          "internalType": "uint256",
          "name": "bundleId",
          "type": "uint256"
        },
        {
          "indexed": true,
          "internalType": "address",
          "name": "sender",
          "type": "address"
        },
        {
          "indexed": true,
          "internalType": "address",
          "name": "receiver",
          "type": "address"
        }
      ],
      "name": "NewBundle",
      "type": "event"
    },
    {
      "anonymous": false,
      "inputs": [
        {
          "indexed": true,
          "internalType": "address",
          "name": "from",
          "type": "address"
        },
        {
          "indexed": true,
          "internalType": "uint256",
          "name": "toTokenId",
          "type": "uint256"
        },
        {
          "indexed": true,
          "internalType": "address",
          "name": "childContract",
          "type": "address"
        },
        {
          "indexed": false,
          "internalType": "uint256",
          "name": "childTokenId",
          "type": "uint256"
        },
        {
          "indexed": false,
          "internalType": "uint256",
          "name": "amount",
          "type": "uint256"
        }
      ],
      "name": "Received1155Child",
      "type": "event"
    },
    {
      "anonymous": false,
      "inputs": [
        {
          "indexed": true,
          "internalType": "address",
          "name": "_from",
          "type": "address"
        },
        {
          "indexed": true,
          "internalType": "uint256",
          "name": "_tokenId",
          "type": "uint256"
        },
        {
          "indexed": true,
          "internalType": "address",
          "name": "_childContract",
          "type": "address"
        },
        {
          "indexed": false,
          "internalType": "uint256",
          "name": "_childTokenId",
          "type": "uint256"
        }
      ],
      "name": "ReceivedChild",
      "type": "event"
    },
    {
      "anonymous": false,
      "inputs": [
        {
          "indexed": true,
          "internalType": "address",
          "name": "_from",
          "type": "address"
        },
        {
          "indexed": true,
          "internalType": "uint256",
          "name": "_tokenId",
          "type": "uint256"
        },
        {
          "indexed": true,
          "internalType": "address",
          "name": "_erc20Contract",
          "type": "address"
        },
        {
          "indexed": false,
          "internalType": "uint256",
          "name": "_value",
          "type": "uint256"
        }
      ],
      "name": "ReceivedERC20",
      "type": "event"
    },
    {
      "anonymous": false,
      "inputs": [
        {
          "indexed": true,
          "internalType": "address",
          "name": "from",
          "type": "address"
        },
        {
          "indexed": true,
          "internalType": "address",
          "name": "to",
          "type": "address"
        },
        {
          "indexed": true,
          "internalType": "uint256",
          "name": "tokenId",
          "type": "uint256"
        }
      ],
      "name": "Transfer",
      "type": "event"
    },
    {
      "anonymous": false,
      "inputs": [
        {
          "indexed": true,
          "internalType": "uint256",
          "name": "fromTokenId",
          "type": "uint256"
        },
        {
          "indexed": true,
          "internalType": "address",
          "name": "to",
          "type": "address"
        },
        {
          "indexed": true,
          "internalType": "address",
          "name": "childContract",
          "type": "address"
        },
        {
          "indexed": false,
          "internalType": "uint256[]",
          "name": "childTokenIds",
          "type": "uint256[]"
        },
        {
          "indexed": false,
          "internalType": "uint256[]",
          "name": "amounts",
          "type": "uint256[]"
        }
      ],
      "name": "Transfer1155BatchChild",
      "type": "event"
    },
    {
      "anonymous": false,
      "inputs": [
        {
          "indexed": true,
          "internalType": "uint256",
          "name": "fromTokenId",
          "type": "uint256"
        },
        {
          "indexed": true,
          "internalType": "address",
          "name": "to",
          "type": "address"
        },
        {
          "indexed": true,
          "internalType": "address",
          "name": "childContract",
          "type": "address"
        },
        {
          "indexed": false,
          "internalType": "uint256",
          "name": "childTokenId",
          "type": "uint256"
        },
        {
          "indexed": false,
          "internalType": "uint256",
          "name": "amount",
          "type": "uint256"
        }
      ],
      "name": "Transfer1155Child",
      "type": "event"
    },
    {
      "anonymous": false,
      "inputs": [
        {
          "indexed": true,
          "internalType": "uint256",
          "name": "tokenId",
          "type": "uint256"
        },
        {
          "indexed": true,
          "internalType": "address",
          "name": "_to",
          "type": "address"
        },
        {
          "indexed": true,
          "internalType": "address",
          "name": "_childContract",
          "type": "address"
        },
        {
          "indexed": false,
          "internalType": "uint256",
          "name": "_childTokenId",
          "type": "uint256"
        }
      ],
      "name": "TransferChild",
      "type": "event"
    },
    {
      "anonymous": false,
      "inputs": [
        {
          "indexed": true,
          "internalType": "uint256",
          "name": "_tokenId",
          "type": "uint256"
        },
        {
          "indexed": true,
          "internalType": "address",
          "name": "_to",
          "type": "address"
        },
        {
          "indexed": true,
          "internalType": "address",
          "name": "_erc20Contract",
          "type": "address"
        },
        {
          "indexed": false,
          "internalType": "uint256",
          "name": "_value",
          "type": "uint256"
        }
      ],
      "name": "TransferERC20",
      "type": "event"
    },
    {
      "inputs": [],
      "name": "ERC998_MAGIC_VALUE",
      "outputs": [
        {
          "internalType": "bytes32",
          "name": "",
          "type": "bytes32"
        }
      ],
      "stateMutability": "view",
      "type": "function"
    },
    {
      "inputs": [
        {
          "internalType": "address",
          "name": "to",
          "type": "address"
        },
        {
          "internalType": "uint256",
          "name": "tokenId",
          "type": "uint256"
        }
      ],
      "name": "approve",
      "outputs": [],
      "stateMutability": "nonpayable",
      "type": "function"
    },
    {
      "inputs": [
        {
          "internalType": "address",
          "name": "owner",
          "type": "address"
        }
      ],
      "name": "balanceOf",
      "outputs": [
        {
          "internalType": "uint256",
          "name": "",
          "type": "uint256"
        }
      ],
      "stateMutability": "view",
      "type": "function"
    },
    {
      "inputs": [
        {
          "internalType": "uint256",
          "name": "_tokenId",
          "type": "uint256"
        },
        {
          "internalType": "address",
          "name": "_erc20Contract",
          "type": "address"
        }
      ],
      "name": "balanceOfERC20",
      "outputs": [
        {
          "internalType": "uint256",
          "name": "",
          "type": "uint256"
        }
      ],
      "stateMutability": "view",
      "type": "function"
    },
    {
      "inputs": [
        {
          "components": [
            {
              "components": [
                {
                  "internalType": "address",
                  "name": "tokenContract",
                  "type": "address"
                },
                {
                  "internalType": "uint256",
                  "name": "id",
                  "type": "uint256"
                },
                {
                  "internalType": "bool",
                  "name": "safeTransferable",
                  "type": "bool"
                }
              ],
              "internalType": "struct IBundleBuilder.BundleElementERC721[]",
              "name": "erc721s",
              "type": "tuple[]"
            },
            {
              "components": [
                {
                  "internalType": "address",
                  "name": "tokenContract",
                  "type": "address"
                },
                {
                  "internalType": "uint256",
                  "name": "amount",
                  "type": "uint256"
                }
              ],
              "internalType": "struct IBundleBuilder.BundleElementERC20[]",
              "name": "erc20s",
              "type": "tuple[]"
            },
            {
              "components": [
                {
                  "internalType": "address",
                  "name": "tokenContract",
                  "type": "address"
                },
                {
                  "internalType": "uint256[]",
                  "name": "ids",
                  "type": "uint256[]"
                },
                {
                  "internalType": "uint256[]",
                  "name": "amounts",
                  "type": "uint256[]"
                }
              ],
              "internalType": "struct IBundleBuilder.BundleElementERC1155[]",
              "name": "erc1155s",
              "type": "tuple[]"
            }
          ],
          "internalType": "struct IBundleBuilder.BundleElements",
          "name": "_bundleElements",
          "type": "tuple"
        },
        {
          "internalType": "address",
          "name": "_sender",
          "type": "address"
        },
        {
          "internalType": "address",
          "name": "_receiver",
          "type": "address"
        }
      ],
      "name": "buildBundle",
      "outputs": [
        {
          "internalType": "uint256",
          "name": "",
          "type": "uint256"
        }
      ],
      "stateMutability": "nonpayable",
      "type": "function"
    },
    {
      "inputs": [
        {
          "internalType": "uint256",
          "name": "_tokenId",
          "type": "uint256"
        },
        {
          "internalType": "address",
          "name": "_childContract",
          "type": "address"
        },
        {
          "internalType": "uint256",
          "name": "_childTokenId",
          "type": "uint256"
        }
      ],
      "name": "childBalance",
      "outputs": [
        {
          "internalType": "uint256",
          "name": "",
          "type": "uint256"
        }
      ],
      "stateMutability": "view",
      "type": "function"
    },
    {
      "inputs": [
        {
          "internalType": "uint256",
          "name": "_tokenId",
          "type": "uint256"
        },
        {
          "internalType": "uint256",
          "name": "_index",
          "type": "uint256"
        }
      ],
      "name": "childContractByIndex",
      "outputs": [
        {
          "internalType": "address",
          "name": "childContract",
          "type": "address"
        }
      ],
      "stateMutability": "view",
      "type": "function"
    },
    {
      "inputs": [
        {
          "internalType": "address",
          "name": "_childContract",
          "type": "address"
        },
        {
          "internalType": "uint256",
          "name": "_childTokenId",
          "type": "uint256"
        }
      ],
      "name": "childExists",
      "outputs": [
        {
          "internalType": "bool",
          "name": "",
          "type": "bool"
        }
      ],
      "stateMutability": "view",
      "type": "function"
    },
    {
      "inputs": [
        {
          "internalType": "uint256",
          "name": "_tokenId",
          "type": "uint256"
        },
        {
          "internalType": "address",
          "name": "_childContract",
          "type": "address"
        },
        {
          "internalType": "uint256",
          "name": "_index",
          "type": "uint256"
        }
      ],
      "name": "childTokenByIndex",
      "outputs": [
        {
          "internalType": "uint256",
          "name": "childTokenId",
          "type": "uint256"
        }
      ],
      "stateMutability": "view",
      "type": "function"
    },
    {
      "inputs": [
        {
          "internalType": "uint256",
          "name": "_tokenId",
          "type": "uint256"
        },
        {
          "internalType": "address",
          "name": "_receiver",
          "type": "address"
        }
      ],
      "name": "decomposeBundle",
      "outputs": [],
      "stateMutability": "nonpayable",
      "type": "function"
    },
    {
      "inputs": [
        {
          "internalType": "uint256",
          "name": "_tokenId",
          "type": "uint256"
        },
        {
          "internalType": "uint256",
          "name": "_index",
          "type": "uint256"
        }
      ],
      "name": "erc20ContractByIndex",
      "outputs": [
        {
          "internalType": "address",
          "name": "",
          "type": "address"
        }
      ],
      "stateMutability": "view",
      "type": "function"
    },
    {
      "inputs": [
        {
          "internalType": "uint256",
          "name": "tokenId",
          "type": "uint256"
        }
      ],
      "name": "getApproved",
      "outputs": [
        {
          "internalType": "address",
          "name": "",
          "type": "address"
        }
      ],
      "stateMutability": "view",
      "type": "function"
    },
    {
      "inputs": [
        {
          "internalType": "address",
          "name": "",
          "type": "address"
        },
        {
          "internalType": "uint256",
          "name": "",
          "type": "uint256"
        },
        {
          "internalType": "address",
          "name": "",
          "type": "address"
        },
        {
          "internalType": "uint256",
          "name": "",
          "type": "uint256"
        }
      ],
      "name": "getChild",
      "outputs": [],
      "stateMutability": "pure",
      "type": "function"
    },
    {
      "inputs": [
        {
          "internalType": "address",
          "name": "",
          "type": "address"
        },
        {
          "internalType": "uint256",
          "name": "",
          "type": "uint256"
        },
        {
          "internalType": "address",
          "name": "",
          "type": "address"
        },
        {
          "internalType": "uint256",
          "name": "",
          "type": "uint256"
        }
      ],
      "name": "getERC20",
      "outputs": [],
      "stateMutability": "pure",
      "type": "function"
    },
    {
      "inputs": [],
      "name": "hub",
      "outputs": [
        {
          "internalType": "contract INftfiHub",
          "name": "",
          "type": "address"
        }
      ],
      "stateMutability": "view",
      "type": "function"
    },
    {
      "inputs": [
        {
          "internalType": "address",
          "name": "owner",
          "type": "address"
        },
        {
          "internalType": "address",
          "name": "operator",
          "type": "address"
        }
      ],
      "name": "isApprovedForAll",
      "outputs": [
        {
          "internalType": "bool",
          "name": "",
          "type": "bool"
        }
      ],
      "stateMutability": "view",
      "type": "function"
    },
    {
      "inputs": [],
      "name": "name",
      "outputs": [
        {
          "internalType": "string",
          "name": "",
          "type": "string"
        }
      ],
      "stateMutability": "view",
      "type": "function"
    },
    {
      "inputs": [
        {
          "internalType": "address",
          "name": "",
          "type": "address"
        },
        {
          "internalType": "address",
          "name": "_from",
          "type": "address"
        },
        {
          "internalType": "uint256[]",
          "name": "_ids",
          "type": "uint256[]"
        },
        {
          "internalType": "uint256[]",
          "name": "_values",
          "type": "uint256[]"
        },
        {
          "internalType": "bytes",
          "name": "_data",
          "type": "bytes"
        }
      ],
      "name": "onERC1155BatchReceived",
      "outputs": [
        {
          "internalType": "bytes4",
          "name": "",
          "type": "bytes4"
        }
      ],
      "stateMutability": "nonpayable",
      "type": "function"
    },
    {
      "inputs": [
        {
          "internalType": "address",
          "name": "",
          "type": "address"
        },
        {
          "internalType": "address",
          "name": "",
          "type": "address"
        },
        {
          "internalType": "uint256",
          "name": "",
          "type": "uint256"
        },
        {
          "internalType": "uint256",
          "name": "",
          "type": "uint256"
        },
        {
          "internalType": "bytes",
          "name": "",
          "type": "bytes"
        }
      ],
      "name": "onERC1155Received",
      "outputs": [
        {
          "internalType": "bytes4",
          "name": "",
          "type": "bytes4"
        }
      ],
      "stateMutability": "nonpayable",
      "type": "function"
    },
    {
      "inputs": [
        {
          "internalType": "address",
          "name": "",
          "type": "address"
        },
        {
          "internalType": "address",
          "name": "_from",
          "type": "address"
        },
        {
          "internalType": "uint256",
          "name": "_childTokenId",
          "type": "uint256"
        },
        {
          "internalType": "bytes",
          "name": "_data",
          "type": "bytes"
        }
      ],
      "name": "onERC721Received",
      "outputs": [
        {
          "internalType": "bytes4",
          "name": "",
          "type": "bytes4"
        }
      ],
      "stateMutability": "nonpayable",
      "type": "function"
    },
    {
      "inputs": [
        {
          "internalType": "uint256",
          "name": "tokenId",
          "type": "uint256"
        }
      ],
      "name": "ownerOf",
      "outputs": [
        {
          "internalType": "address",
          "name": "",
          "type": "address"
        }
      ],
      "stateMutability": "view",
      "type": "function"
    },
    {
      "inputs": [
        {
          "internalType": "address",
          "name": "_childContract",
          "type": "address"
        },
        {
          "internalType": "uint256",
          "name": "_childTokenId",
          "type": "uint256"
        }
      ],
      "name": "ownerOfChild",
      "outputs": [
        {
          "internalType": "bytes32",
          "name": "parentTokenOwner",
          "type": "bytes32"
        },
        {
          "internalType": "uint256",
          "name": "parentTokenId",
          "type": "uint256"
        }
      ],
      "stateMutability": "view",
      "type": "function"
    },
    {
      "inputs": [
        {
          "internalType": "address",
          "name": "_asset",
          "type": "address"
        }
      ],
      "name": "permittedAsset",
      "outputs": [
        {
          "internalType": "bool",
          "name": "",
          "type": "bool"
        }
      ],
      "stateMutability": "view",
      "type": "function"
    },
    {
      "inputs": [
        {
          "internalType": "address",
          "name": "_erc20Contract",
          "type": "address"
        }
      ],
      "name": "permittedErc20Asset",
      "outputs": [
        {
          "internalType": "bool",
          "name": "",
          "type": "bool"
        }
      ],
      "stateMutability": "view",
      "type": "function"
    },
    {
      "inputs": [
        {
          "internalType": "uint256",
          "name": "_tokenId",
          "type": "uint256"
        }
      ],
      "name": "rootOwnerOf",
      "outputs": [
        {
          "internalType": "bytes32",
          "name": "rootOwner",
          "type": "bytes32"
        }
      ],
      "stateMutability": "view",
      "type": "function"
    },
    {
      "inputs": [
        {
          "internalType": "address",
          "name": "_childContract",
          "type": "address"
        },
        {
          "internalType": "uint256",
          "name": "_childTokenId",
          "type": "uint256"
        }
      ],
      "name": "rootOwnerOfChild",
      "outputs": [
        {
          "internalType": "bytes32",
          "name": "rootOwner",
          "type": "bytes32"
        }
      ],
      "stateMutability": "view",
      "type": "function"
    },
    {
      "inputs": [
        {
          "internalType": "uint256",
          "name": "_tokenId",
          "type": "uint256"
        },
        {
          "internalType": "address",
          "name": "_to",
          "type": "address"
        },
        {
          "internalType": "address",
          "name": "_childContract",
          "type": "address"
        },
        {
          "internalType": "uint256[]",
          "name": "_childTokenIds",
          "type": "uint256[]"
        },
        {
          "internalType": "uint256[]",
          "name": "_amounts",
          "type": "uint256[]"
        },
        {
          "internalType": "bytes",
          "name": "_data",
          "type": "bytes"
        }
      ],
      "name": "safeBatchTransferChild",
      "outputs": [],
      "stateMutability": "nonpayable",
      "type": "function"
    },
    {
      "inputs": [
        {
          "internalType": "uint256",
          "name": "_fromTokenId",
          "type": "uint256"
        },
        {
          "internalType": "address",
          "name": "_to",
          "type": "address"
        },
        {
          "internalType": "address",
          "name": "_childContract",
          "type": "address"
        },
        {
          "internalType": "uint256",
          "name": "_childTokenId",
          "type": "uint256"
        }
      ],
      "name": "safeTransferChild",
      "outputs": [],
      "stateMutability": "nonpayable",
      "type": "function"
    },
    {
      "inputs": [
        {
          "internalType": "uint256",
          "name": "_fromTokenId",
          "type": "uint256"
        },
        {
          "internalType": "address",
          "name": "_to",
          "type": "address"
        },
        {
          "internalType": "address",
          "name": "_childContract",
          "type": "address"
        },
        {
          "internalType": "uint256",
          "name": "_childTokenId",
          "type": "uint256"
        },
        {
          "internalType": "bytes",
          "name": "_data",
          "type": "bytes"
        }
      ],
      "name": "safeTransferChild",
      "outputs": [],
      "stateMutability": "nonpayable",
      "type": "function"
    },
    {
      "inputs": [
        {
          "internalType": "uint256",
          "name": "_tokenId",
          "type": "uint256"
        },
        {
          "internalType": "address",
          "name": "_to",
          "type": "address"
        },
        {
          "internalType": "address",
          "name": "_childContract",
          "type": "address"
        },
        {
          "internalType": "uint256",
          "name": "_childTokenId",
          "type": "uint256"
        },
        {
          "internalType": "uint256",
          "name": "_amount",
          "type": "uint256"
        },
        {
          "internalType": "bytes",
          "name": "_data",
          "type": "bytes"
        }
      ],
      "name": "safeTransferChild",
      "outputs": [],
      "stateMutability": "nonpayable",
      "type": "function"
    },
    {
      "inputs": [
        {
          "internalType": "address",
          "name": "from",
          "type": "address"
        },
        {
          "internalType": "address",
          "name": "to",
          "type": "address"
        },
        {
          "internalType": "uint256",
          "name": "tokenId",
          "type": "uint256"
        }
      ],
      "name": "safeTransferFrom",
      "outputs": [],
      "stateMutability": "nonpayable",
      "type": "function"
    },
    {
      "inputs": [
        {
          "internalType": "address",
          "name": "from",
          "type": "address"
        },
        {
          "internalType": "address",
          "name": "to",
          "type": "address"
        },
        {
          "internalType": "uint256",
          "name": "tokenId",
          "type": "uint256"
        },
        {
          "internalType": "bytes",
          "name": "_data",
          "type": "bytes"
        }
      ],
      "name": "safeTransferFrom",
      "outputs": [],
      "stateMutability": "nonpayable",
      "type": "function"
    },
    {
      "inputs": [
        {
          "internalType": "address",
          "name": "operator",
          "type": "address"
        },
        {
          "internalType": "bool",
          "name": "approved",
          "type": "bool"
        }
      ],
      "name": "setApprovalForAll",
      "outputs": [],
      "stateMutability": "nonpayable",
      "type": "function"
    },
    {
      "inputs": [
        {
          "internalType": "bytes4",
          "name": "_interfaceId",
          "type": "bytes4"
        }
      ],
      "name": "supportsInterface",
      "outputs": [
        {
          "internalType": "bool",
          "name": "",
          "type": "bool"
        }
      ],
      "stateMutability": "view",
      "type": "function"
    },
    {
      "inputs": [],
      "name": "symbol",
      "outputs": [
        {
          "internalType": "string",
          "name": "",
          "type": "string"
        }
      ],
      "stateMutability": "view",
      "type": "function"
    },
    {
      "inputs": [
        {
          "internalType": "uint256",
          "name": "index",
          "type": "uint256"
        }
      ],
      "name": "tokenByIndex",
      "outputs": [
        {
          "internalType": "uint256",
          "name": "",
          "type": "uint256"
        }
      ],
      "stateMutability": "view",
      "type": "function"
    },
    {
      "inputs": [],
      "name": "tokenCount",
      "outputs": [
        {
          "internalType": "uint256",
          "name": "",
          "type": "uint256"
        }
      ],
      "stateMutability": "view",
      "type": "function"
    },
    {
      "inputs": [
        {
          "internalType": "address",
          "name": "",
          "type": "address"
        },
        {
          "internalType": "uint256",
          "name": "",
          "type": "uint256"
        },
        {
          "internalType": "bytes",
          "name": "",
          "type": "bytes"
        }
      ],
      "name": "tokenFallback",
      "outputs": [],
      "stateMutability": "nonpayable",
      "type": "function"
    },
    {
      "inputs": [
        {
          "internalType": "address",
          "name": "owner",
          "type": "address"
        },
        {
          "internalType": "uint256",
          "name": "index",
          "type": "uint256"
        }
      ],
      "name": "tokenOfOwnerByIndex",
      "outputs": [
        {
          "internalType": "uint256",
          "name": "",
          "type": "uint256"
        }
      ],
      "stateMutability": "view",
      "type": "function"
    },
    {
      "inputs": [
        {
          "internalType": "uint256",
          "name": "tokenId",
          "type": "uint256"
        }
      ],
      "name": "tokenURI",
      "outputs": [
        {
          "internalType": "string",
          "name": "",
          "type": "string"
        }
      ],
      "stateMutability": "view",
      "type": "function"
    },
    {
      "inputs": [
        {
          "internalType": "uint256",
          "name": "_tokenId",
          "type": "uint256"
        }
      ],
      "name": "totalChildContracts",
      "outputs": [
        {
          "internalType": "uint256",
          "name": "",
          "type": "uint256"
        }
      ],
      "stateMutability": "view",
      "type": "function"
    },
    {
      "inputs": [
        {
          "internalType": "uint256",
          "name": "_tokenId",
          "type": "uint256"
        },
        {
          "internalType": "address",
          "name": "_childContract",
          "type": "address"
        }
      ],
      "name": "totalChildTokens",
      "outputs": [
        {
          "internalType": "uint256",
          "name": "",
          "type": "uint256"
        }
      ],
      "stateMutability": "view",
      "type": "function"
    },
    {
      "inputs": [
        {
          "internalType": "uint256",
          "name": "_tokenId",
          "type": "uint256"
        }
      ],
      "name": "totalERC20Contracts",
      "outputs": [
        {
          "internalType": "uint256",
          "name": "",
          "type": "uint256"
        }
      ],
      "stateMutability": "view",
      "type": "function"
    },
    {
      "inputs": [],
      "name": "totalSupply",
      "outputs": [
        {
          "internalType": "uint256",
          "name": "",
          "type": "uint256"
        }
      ],
      "stateMutability": "view",
      "type": "function"
    },
    {
      "inputs": [
        {
          "internalType": "uint256",
          "name": "_fromTokenId",
          "type": "uint256"
        },
        {
          "internalType": "address",
          "name": "_to",
          "type": "address"
        },
        {
          "internalType": "address",
          "name": "_childContract",
          "type": "address"
        },
        {
          "internalType": "uint256",
          "name": "_childTokenId",
          "type": "uint256"
        }
      ],
      "name": "transferChild",
      "outputs": [],
      "stateMutability": "nonpayable",
      "type": "function"
    },
    {
      "inputs": [
        {
          "internalType": "uint256",
          "name": "",
          "type": "uint256"
        },
        {
          "internalType": "address",
          "name": "",
          "type": "address"
        },
        {
          "internalType": "uint256",
          "name": "",
          "type": "uint256"
        },
        {
          "internalType": "address",
          "name": "",
          "type": "address"
        },
        {
          "internalType": "uint256",
          "name": "",
          "type": "uint256"
        },
        {
          "internalType": "bytes",
          "name": "",
          "type": "bytes"
        }
      ],
      "name": "transferChildToParent",
      "outputs": [],
      "stateMutability": "pure",
      "type": "function"
    },
    {
      "inputs": [
        {
          "internalType": "uint256",
          "name": "_tokenId",
          "type": "uint256"
        },
        {
          "internalType": "address",
          "name": "_to",
          "type": "address"
        },
        {
          "internalType": "address",
          "name": "_erc20Contract",
          "type": "address"
        },
        {
          "internalType": "uint256",
          "name": "_value",
          "type": "uint256"
        }
      ],
      "name": "transferERC20",
      "outputs": [],
      "stateMutability": "nonpayable",
      "type": "function"
    },
    {
      "inputs": [
        {
          "internalType": "uint256",
          "name": "",
          "type": "uint256"
        },
        {
          "internalType": "address",
          "name": "",
          "type": "address"
        },
        {
          "internalType": "address",
          "name": "",
          "type": "address"
        },
        {
          "internalType": "uint256",
          "name": "",
          "type": "uint256"
        },
        {
          "internalType": "bytes",
          "name": "",
          "type": "bytes"
        }
      ],
      "name": "transferERC223",
      "outputs": [],
      "stateMutability": "nonpayable",
      "type": "function"
    },
    {
      "inputs": [
        {
          "internalType": "address",
          "name": "from",
          "type": "address"
        },
        {
          "internalType": "address",
          "name": "to",
          "type": "address"
        },
        {
          "internalType": "uint256",
          "name": "tokenId",
          "type": "uint256"
        }
      ],
      "name": "transferFrom",
      "outputs": [],
      "stateMutability": "nonpayable",
      "type": "function"
    }
  ],
  "transactionHash": "0x4739f58898900ac99792be3e17913bce49863402f4ee548c7c18047057f1273c",
  "args": [
    "0x5165C6D1BaBD35B6c770140fea24dA3209f9Fa1d",
    "NFTBundler",
    "NFTBundler"
  ],
  "numDeployments": 1,
  "solcInputHash": "e960dbb71492b307ed8580de393cc147",
  "bytecode": "0x60a06040526000600b553480156200001657600080fd5b506040516200537f3803806200537f8339810160408190526200003991620001e1565b8151829082906200005290600090602085019062000088565b5080516200006890600190602084019062000088565b50506001600a5550505060601b6001600160601b031916608052620002ba565b828054620000969062000267565b90600052602060002090601f016020900481019282620000ba576000855562000105565b82601f10620000d557805160ff191683800117855562000105565b8280016001018555821562000105579182015b8281111562000105578251825591602001919060010190620000e8565b506200011392915062000117565b5090565b5b8082111562000113576000815560010162000118565b600082601f8301126200013f578081fd5b81516001600160401b03808211156200015c576200015c620002a4565b604051601f8301601f19908116603f01168101908282118183101715620001875762000187620002a4565b81604052838152602092508683858801011115620001a3578485fd5b8491505b83821015620001c65785820183015181830184015290820190620001a7565b83821115620001d757848385830101525b9695505050505050565b600080600060608486031215620001f6578283fd5b83516001600160a01b03811681146200020d578384fd5b60208501519093506001600160401b03808211156200022a578384fd5b62000238878388016200012e565b935060408601519150808211156200024e578283fd5b506200025d868287016200012e565b9150509250925092565b600181811c908216806200027c57607f821691505b602082108114156200029e57634e487b7160e01b600052602260045260246000fd5b50919050565b634e487b7160e01b600052604160045260246000fd5b60805160601c615098620002e76000396000818161043501528181610af2015261157301526150986000f3fe608060405234801561001057600080fd5b50600436106102ab5760003560e01c80636352211e11610172578063b88d4fde116100d9578063d49d1bac11610092578063d49d1bac14610646578063df74908614610659578063e226ed221461066c578063e985e9c5146106a2578063eadb80b8146106b5578063ed81cdda146106dd578063f23a6e61146106f057600080fd5b8063b88d4fde146105e7578063ba6b5f96146102ed578063bc197c81146105fa578063bef44f181461060d578063c0ee0b8a14610620578063c87b56dd1461063357600080fd5b80638da7d0b51161012b5780638da7d0b51461058a57806395d89b411461059d5780639f181b5e146105a5578063a22cb465146105ae578063a6330851146105c1578063a7811732146105d457600080fd5b80636352211e14610518578063668037481461052b578063676a196a1461053e57806370a0823114610551578063830ef41b146105645780638d81f51e1461057757600080fd5b806322ab2e6f1161021657806342842e0e116101cf57806342842e0e1461045757806343a61a8e1461046a5780634f6ccce71461047d5780635680a3ad1461049057806360d4d23a146104c8578063627c81ff1461050557600080fd5b806322ab2e6f146103d657806323b872dd146103e45780632f745c59146103f7578063306d68881461040a57806335b21ceb1461041d578063365a86fc1461043057600080fd5b80630d5a621b116102685780630d5a621b14610348578063150b7a021461035b578063160b01a11461038757806318160ddd146103a85780631c9faae4146103b05780631d98f3c5146103c357600080fd5b806301ffc9a7146102b057806306fdde03146102d857806307cff6f2146102ed578063081812fc1461030257806308937f6214610322578063095ea7b314610335575b600080fd5b6102c36102be3660046145e9565b610703565b60405190151581526020015b60405180910390f35b6102e0610749565b6040516102cf9190614c99565b6103006102fb366004614515565b6107db565b005b610315610310366004614786565b6107fc565b6040516102cf9190614b45565b610300610330366004614a11565b610884565b6103006103433660046144ea565b6108cc565b610315610356366004614a73565b6109dd565b61036e61036936600461437e565b6109fc565b6040516001600160e01b031990911681526020016102cf565b61039a6103953660046149eb565b610a82565b6040519081526020016102cf565b60085461039a565b6102c36103be366004614225565b610ab6565b6103006103d1366004614873565b610beb565b61039a63cd740db560e01b81565b6103006103f236600461433e565b610cc8565b61039a6104053660046144ea565b610cf9565b6103006104183660046147c2565b610d8f565b61039a61042b36600461479e565b610f8e565b6103157f000000000000000000000000000000000000000000000000000000000000000081565b61030061046536600461433e565b610fb9565b61039a610478366004614786565b610fd4565b61039a61048b366004614786565b610fe1565b6102c361049e3660046144ea565b6001600160a01b03919091166000908152600e602090815260408083209383529290522054151590565b61039a6104d63660046149eb565b6000928352600f602090815260408085206001600160a01b039490941685529281528284209184525290205490565b610315610513366004614a73565b611082565b610315610526366004614786565b61109a565b61039a610539366004614621565b611111565b6102c361054c366004614225565b611540565b61039a61055f366004614225565b611677565b610300610572366004614873565b6116fe565b610300610585366004614923565b61178c565b61039a610598366004614786565b61188f565b6102e06118a6565b61039a600b5481565b6103006105bc3660046144bd565b6118b5565b6103006105cf36600461497d565b6118c4565b61039a6105e2366004614786565b6119e2565b6103006105f53660046143ee565b6119f9565b61036e610608366004614295565b611a31565b61030061061b366004614873565b611bc0565b61030061062e36600461455c565b611c33565b6102e0610641366004614786565b611c87565b6103006106543660046148aa565b611d5e565b61030061066736600461479e565b611da6565b61039a61067a36600461479e565b60009182526011602090815260408084206001600160a01b0393909316845291905290205490565b6102c36106b036600461425d565b612172565b6106c86106c33660046144ea565b6121a0565b604080519283526020830191909152016102cf565b61039a6106eb3660046144ea565b612200565b61036e6106fe366004614457565b6122f4565b60006001600160e01b03198216630a85bd0160e11b148061073457506001600160e01b03198216639fa4074560e01b145b8061074357506107438261230e565b92915050565b60606000805461075890614f86565b80601f016020809104026020016040519081016040528092919081815260200182805461078490614f86565b80156107d15780601f106107a6576101008083540402835291602001916107d1565b820191906000526020600020905b8154815290600101906020018083116107b457829003601f168201915b5050505050905090565b60405162461bcd60e51b81526004016107f390614e10565b60405180910390fd5b60006108078261234e565b6108685760405162461bcd60e51b815260206004820152602c60248201527f4552433732313a20617070726f76656420717565727920666f72206e6f6e657860448201526b34b9ba32b73a103a37b5b2b760a11b60648201526084016107f3565b506000908152600460205260409020546001600160a01b031690565b60405162461bcd60e51b815260206004820152601d60248201527f424f54544f4d5f55505f4348494c445f4e4f545f535550504f5254454400000060448201526064016107f3565b60006108d78261109a565b9050806001600160a01b0316836001600160a01b031614156109455760405162461bcd60e51b815260206004820152602160248201527f4552433732313a20617070726f76616c20746f2063757272656e74206f776e656044820152603960f91b60648201526084016107f3565b336001600160a01b038216148061096157506109618133612172565b6109ce5760405162461bcd60e51b815260206004820152603860248201527f4552433732313a20617070726f76652063616c6c6572206973206e6f74206f776044820152771b995c881b9bdc88185c1c1c9bdd995908199bdc88185b1b60421b60648201526084016107f3565b6109d8838361236b565b505050565b6000828152600c602052604081206109f590836123d9565b9392505050565b60006002600a541415610a215760405162461bcd60e51b81526004016107f390614e43565b6002600a81905550610a6b85338686868080601f0160208091040260200160405190810160405280939291908181526020018383808284376000920191909152506123e592505050565b50630a85bd0160e11b6001600a5595945050505050565b6000838152600d602090815260408083206001600160a01b03861684529091528120610aae90836123d9565b949350505050565b604051631c2d8fb360e31b8152765045524d49545445445f42554e444c455f45524332305360481b600482015260009081906001600160a01b037f0000000000000000000000000000000000000000000000000000000000000000169063e16c7d989060240160206040518083038186803b158015610b3457600080fd5b505afa158015610b48573d6000803e3d6000fd5b505050506040513d601f19601f82011682018060405250810190610b6c9190614241565b60405163439439df60e11b81529091506001600160a01b0382169063872873be90610b9b908690600401614b45565b60206040518083038186803b158015610bb357600080fd5b505afa158015610bc7573d6000803e3d6000fd5b505050506040513d601f19601f820116820180604052508101906109f591906145b5565b6002600a541415610c0e5760405162461bcd60e51b81526004016107f390614e43565b6002600a55610c1f84848484612428565b604051632142170760e11b81526001600160a01b038316906342842e0e90610c4f90309087908690600401614bb7565b600060405180830381600087803b158015610c6957600080fd5b505af1158015610c7d573d6000803e3d6000fd5b50505050816001600160a01b0316836001600160a01b03168560008051602061506c83398151915284604051610cb591815260200190565b60405180910390a450506001600a555050565b610cd23382612447565b610cee5760405162461bcd60e51b81526004016107f390614dbf565b6109d8838383612509565b6000610d0483611677565b8210610d665760405162461bcd60e51b815260206004820152602b60248201527f455243373231456e756d657261626c653a206f776e657220696e646578206f7560448201526a74206f6620626f756e647360a81b60648201526084016107f3565b506001600160a01b03919091166000908152600660209081526040808320938352929052205490565b6002600a541415610db25760405162461bcd60e51b81526004016107f390614e43565b6002600a558151835114610e085760405162461bcd60e51b815260206004820152601f60248201527f69647320616e6420616d6f756e7473206c656e677468206d69736d617463680060448201526064016107f3565b610e11856126b0565b610e1a86612709565b60005b8351811015610ebb576000848281518110610e4857634e487b7160e01b600052603260045260246000fd5b602002602001015190506000848381518110610e7457634e487b7160e01b600052603260045260246000fd5b60200260200101519050610e8a89888484612712565b6001600160a01b038816301415610ea857610ea83388848488612889565b505080610eb490614fc1565b9050610e1d565b506001600160a01b0385163014610f8157604051631759616b60e11b81526001600160a01b03851690632eb2c2d690610f009030908990889088908890600401614b59565b600060405180830381600087803b158015610f1a57600080fd5b505af1158015610f2e573d6000803e3d6000fd5b50505050836001600160a01b0316856001600160a01b0316877fa797202f39afe67da4ce6b40162421384da6655bc2054c48cb0e08fbb6ea418c8686604051610f78929190614c6b565b60405180910390a45b50506001600a5550505050565b6000828152600d602090815260408083206001600160a01b038516845290915281206109f590612923565b6109d8838383604051806020016040528060008152506119f9565b6000610743600083612200565b6000610fec60085490565b821061104f5760405162461bcd60e51b815260206004820152602c60248201527f455243373231456e756d657261626c653a20676c6f62616c20696e646578206f60448201526b7574206f6620626f756e647360a01b60648201526084016107f3565b6008828154811061107057634e487b7160e01b600052603260045260246000fd5b90600052602060002001549050919050565b60008281526010602052604081206109f590836123d9565b6000818152600260205260408120546001600160a01b0316806107435760405162461bcd60e51b815260206004820152602960248201527f4552433732313a206f776e657220717565727920666f72206e6f6e657869737460448201526832b73a103a37b5b2b760b91b60648201526084016107f3565b60008061111d8361292d565b85515190915015158061113557506000856020015151115b8061114557506000856040015151115b6111835760405162461bcd60e51b815260206004820152600f60248201526e62756e646c6520697320656d70747960881b60448201526064016107f3565b60005b8551518110156113255785518051829081106111b257634e487b7160e01b600052603260045260246000fd5b602002602001015160400151156112a95785518051829081106111e557634e487b7160e01b600052603260045260246000fd5b6020026020010151600001516001600160a01b031663b88d4fde86308960000151858151811061122557634e487b7160e01b600052603260045260246000fd5b6020026020010151602001518660405160200161124491815260200190565b6040516020818303038152906040526040518563ffffffff1660e01b81526004016112729493929190614bdb565b600060405180830381600087803b15801561128c57600080fd5b505af11580156112a0573d6000803e3d6000fd5b50505050611313565b6113138583886000015184815181106112d257634e487b7160e01b600052603260045260246000fd5b6020026020010151600001518960000151858151811061130257634e487b7160e01b600052603260045260246000fd5b602002602001015160200151612950565b8061131d81614fc1565b915050611186565b5060005b8560200151518110156113b2576113a085838860200151848151811061135f57634e487b7160e01b600052603260045260246000fd5b6020026020010151600001518960200151858151811061138f57634e487b7160e01b600052603260045260246000fd5b6020026020010151602001516129f1565b806113aa81614fc1565b915050611329565b5060005b8560400151518110156114ea57856040015181815181106113e757634e487b7160e01b600052603260045260246000fd5b6020026020010151600001516001600160a01b0316632eb2c2d686308960400151858151811061142757634e487b7160e01b600052603260045260246000fd5b6020026020010151602001518a60400151868151811061145757634e487b7160e01b600052603260045260246000fd5b6020026020010151604001518760405160200161147691815260200190565b6040516020818303038152906040526040518663ffffffff1660e01b81526004016114a5959493929190614b59565b600060405180830381600087803b1580156114bf57600080fd5b505af11580156114d3573d6000803e3d6000fd5b5050505080806114e290614fc1565b9150506113b6565b50826001600160a01b0316846001600160a01b03167f63478a9ffc3ee02f60be7618f5ebcc24dca8fdfaf29503c1f812162a941afe548360405161153091815260200190565b60405180910390a3949350505050565b604051631c2d8fb360e31b81526d5045524d49545445445f4e46545360901b600482015260009081906001600160a01b037f0000000000000000000000000000000000000000000000000000000000000000169063e16c7d989060240160206040518083038186803b1580156115b557600080fd5b505afa1580156115c9573d6000803e3d6000fd5b505050506040513d601f19601f820116820180604052508101906115ed9190614241565b604051636651f11d60e01b81529091506000906001600160a01b03831690636651f11d9061161f908790600401614b45565b60206040518083038186803b15801561163757600080fd5b505afa15801561164b573d6000803e3d6000fd5b505050506040513d601f19601f8201168201806040525081019061166f91906145d1565b119392505050565b60006001600160a01b0382166116e25760405162461bcd60e51b815260206004820152602a60248201527f4552433732313a2062616c616e636520717565727920666f7220746865207a65604482015269726f206164647265737360b01b60648201526084016107f3565b506001600160a01b031660009081526003602052604090205490565b61170781612a1b565b611710836126b0565b61171984612709565b611724848383612a59565b6117386001600160a01b0383168483612b33565b816001600160a01b0316836001600160a01b0316857fa8352277873fc0d2b233b8127433da351a4164fa701ed6ff79655694222932c48460405161177e91815260200190565b60405180910390a450505050565b6002600a5414156117af5760405162461bcd60e51b81526004016107f390614e43565b6002600a556117c085858585612428565b6001600160a01b0384163014156117e2576117dd338484846123e5565b611883565b604051635c46a7ef60e11b81526001600160a01b0384169063b88d4fde90611814903090889087908790600401614bdb565b600060405180830381600087803b15801561182e57600080fd5b505af1158015611842573d6000803e3d6000fd5b50505050826001600160a01b0316846001600160a01b03168660008051602061506c8339815191528560405161187a91815260200190565b60405180910390a45b50506001600a55505050565b6000818152600c6020526040812061074390612923565b60606001805461075890614f86565b6118c0338383612b89565b5050565b6002600a5414156118e75760405162461bcd60e51b81526004016107f390614e43565b6002600a556118f5856126b0565b6118fe86612709565b61190a86858585612712565b6001600160a01b03851630141561192d576119283385858585612889565b610f81565b604051637921219560e11b81526001600160a01b0385169063f242432a906119619030908990889088908890600401614c18565b600060405180830381600087803b15801561197b57600080fd5b505af115801561198f573d6000803e3d6000fd5b50505050836001600160a01b0316856001600160a01b0316877f16b5931e3f21f56cbd2534ea6493edfadf9ec64d0413aa2f2a4f79be6d7c0da18686604051610f78929190918252602082015260400190565b600081815260106020526040812061074390612923565b611a033383612447565b611a1f5760405162461bcd60e51b81526004016107f390614dbf565b611a2b84848484612c54565b50505050565b60006002600a541415611a565760405162461bcd60e51b81526004016107f390614e43565b6002600a558151602014611a7c5760405162461bcd60e51b81526004016107f390614d67565b6000611a89836020015190565b905060005b8551811015611ba757611af18233888481518110611abc57634e487b7160e01b600052603260045260246000fd5b6020026020010151888581518110611ae457634e487b7160e01b600052603260045260246000fd5b6020026020010151612c87565b336001600160a01b031682886001600160a01b03167e9b022bed8cf61abc5e33a83d371c1cfe8bec72ea5cfe121648583c057c4a36898581518110611b4657634e487b7160e01b600052603260045260246000fd5b6020026020010151898681518110611b6e57634e487b7160e01b600052603260045260246000fd5b6020026020010151604051611b8d929190918252602082015260400190565b60405180910390a480611b9f81614fc1565b915050611a8e565b50506001600a555063bc197c8160e01b95945050505050565b6002600a541415611be35760405162461bcd60e51b81526004016107f390614e43565b6002600a55611bf484848484612428565b611bff838383612ce0565b816001600160a01b0316836001600160a01b03168560008051602061506c83398151915284604051610cb591815260200190565b60405162461bcd60e51b815260206004820152602360248201527f544f4b454e5f46414c4c4241434b5f4552433232335f4e4f545f535550504f5260448201526215115160ea1b60648201526084016107f3565b6060611c928261234e565b611cf65760405162461bcd60e51b815260206004820152602f60248201527f4552433732314d657461646174613a2055524920717565727920666f72206e6f60448201526e3732bc34b9ba32b73a103a37b5b2b760891b60648201526084016107f3565b6000611d0d60408051602081019091526000815290565b90506000815111611d2d57604051806020016040528060008152506109f5565b80611d3784612da1565b604051602001611d48929190614b16565b6040516020818303038152906040529392505050565b60405162461bcd60e51b815260206004820152601d60248201527f5452414e534645525f4552433232335f4e4f545f535550504f5254454400000060448201526064016107f3565b6002600a541415611dc95760405162461bcd60e51b81526004016107f390614e43565b6002600a5533611dd88361109a565b6001600160a01b031614611e245760405162461bcd60e51b815260206004820152601360248201527231b0b63632b91034b9903737ba1037bbb732b960691b60448201526064016107f3565b611e2d816126b0565b6000828152600c60205260408120611e4490612923565b111561209a576000828152600c60205260408120611e6290826123d9565b90505b6000838152600d602090815260408083206001600160a01b03851684529091528120611e9090612923565b1115612094576000838152600d602090815260408083206001600160a01b03851684529091528120611ec290826123d9565b6000858152600f602090815260408083206001600160a01b038716845282528083208484529091529020549091508015611fdb57611f0285848484612712565b604051637921219560e11b81523060048201526001600160a01b038581166024830152604482018490526064820183905260a06084830152600060a483015284169063f242432a9060c401600060405180830381600087803b158015611f6757600080fd5b505af1158015611f7b573d6000803e3d6000fd5b50505050826001600160a01b0316846001600160a01b0316867f16b5931e3f21f56cbd2534ea6493edfadf9ec64d0413aa2f2a4f79be6d7c0da18585604051611fce929190918252602082015260400190565b60405180910390a461208d565b611fe6858484612eba565b604051632142170760e11b81526001600160a01b038416906342842e0e9061201690309088908790600401614bb7565b600060405180830381600087803b15801561203057600080fd5b505af1925050508015612041575060015b61205057612050848484612ce0565b826001600160a01b0316846001600160a01b03168660008051602061506c8339815191528560405161208491815260200190565b60405180910390a45b5050611e65565b50611e2d565b60008281526010602052604081206120b190612923565b11156121695760008281526010602052604081206120cf90826123d9565b60008481526011602090815260408083206001600160a01b0385168452909152902054909150612100848383612a59565b6121146001600160a01b0383168483612b33565b816001600160a01b0316836001600160a01b0316857fa8352277873fc0d2b233b8127433da351a4164fa701ed6ff79655694222932c48460405161215a91815260200190565b60405180910390a4505061209a565b50506001600a55565b6001600160a01b03918216600090815260056020908152604080832093909416825291909152205460ff1690565b6001600160a01b0382166000908152600e60209081526040808320848452909152812054806121e15760405162461bcd60e51b81526004016107f390614cfe565b60006121ec8261109a565b63cd740db560e01b17959194509092505050565b6000806001600160a01b038416156122255761221c8484612f43565b93509050612231565b61222e8361109a565b90505b6001600160a01b0381163b156122e4576040516376c0e6ed60e11b81526001600160a01b0382169063ed81cdda9061226f9030908790600401614c52565b60206040518083038186803b15801561228757600080fd5b505afa9250505080156122b7575060408051601f3d908101601f191682019092526122b4918101906145d1565b60015b6122c0576122e4565b6001600160e01b0319811663cd740db560e01b14156122e25791506107439050565b505b63cd740db560e01b179392505050565b600060405162461bcd60e51b81526004016107f390614e10565b60006001600160e01b03198216637294ffed60e01b148061233f57506001600160e01b0319821663c5fd96cd60e01b145b80610743575061074382612f97565b6000908152600260205260409020546001600160a01b0316151590565b600081815260046020526040902080546001600160a01b0319166001600160a01b03841690811790915581906123a08261109a565b6001600160a01b03167f8c5be1e5ebec7d5bd14f71427d1e84f3dd0314c0f7b2291e5b200ac8c7c3b92560405160405180910390a45050565b60006109f58383612fd7565b60008151116124065760405162461bcd60e51b81526004016107f390614d67565b6000612413826020015190565b90506124218582868661300f565b5050505050565b612431836126b0565b61243c848383613067565b611a2b848383612eba565b60006124528261234e565b6124b35760405162461bcd60e51b815260206004820152602c60248201527f4552433732313a206f70657261746f7220717565727920666f72206e6f6e657860448201526b34b9ba32b73a103a37b5b2b760a11b60648201526084016107f3565b60006124be8361109a565b9050806001600160a01b0316846001600160a01b031614806124f95750836001600160a01b03166124ee846107fc565b6001600160a01b0316145b80610aae5750610aae8185612172565b826001600160a01b031661251c8261109a565b6001600160a01b0316146125805760405162461bcd60e51b815260206004820152602560248201527f4552433732313a207472616e736665722066726f6d20696e636f72726563742060448201526437bbb732b960d91b60648201526084016107f3565b6001600160a01b0382166125e25760405162461bcd60e51b8152602060048201526024808201527f4552433732313a207472616e7366657220746f20746865207a65726f206164646044820152637265737360e01b60648201526084016107f3565b6125ed83838361316c565b6125f860008261236b565b6001600160a01b0383166000908152600360205260408120805460019290612621908490614f43565b90915550506001600160a01b038216600090815260036020526040812080546001929061264f908490614f17565b909155505060008181526002602052604080822080546001600160a01b0319166001600160a01b0386811691821790925591518493918716917fddf252ad1be2c89b69c2b068fc378daa952ba7f163c4a11628f55a4df523b3ef91a4505050565b6001600160a01b0381166127065760405162461bcd60e51b815260206004820152601e60248201527f6368696c64207472616e7366657220746f207a65726f2061646472657373000060448201526064016107f3565b50565b612706816131d0565b801580159061274b57506000848152600f602090815260408083206001600160a01b038716845282528083208584529091529020548111155b6127a75760405162461bcd60e51b815260206004820152602760248201527f696e73756666696369656e74206368696c642062616c616e636520666f7220746044820152663930b739b332b960c91b60648201526084016107f3565b6000848152600f602090815260408083206001600160a01b03871684528252808320858452909152812080548392906127e1908490614f43565b90915550506000848152600f602090815260408083206001600160a01b03871684528252808320858452909152902054611a2b576000848152600d602090815260408083206001600160a01b03871684529091529020612841908361326e565b506000848152600d602090815260408083206001600160a01b0387168452909152902061286d90612923565b611a2b576000848152600c60205260409020612421908461327a565b80516020146128aa5760405162461bcd60e51b81526004016107f390614d67565b60006128b7826020015190565b90506128c581868686612c87565b846001600160a01b031681876001600160a01b03167e9b022bed8cf61abc5e33a83d371c1cfe8bec72ea5cfe121648583c057c4a368787604051612913929190918252602082015260400190565b60405180910390a4505050505050565b6000610743825490565b600080600b6000815461293f90614fc1565b91829055509050610743838261328f565b6002600a5414156129735760405162461bcd60e51b81526004016107f390614e43565b6002600a556129848484848461300f565b6040516323b872dd60e01b81526001600160a01b038316906323b872dd906129b490879030908690600401614bb7565b600060405180830381600087803b1580156129ce57600080fd5b505af11580156129e2573d6000803e3d6000fd5b50506001600a55505050505050565b6129fa81612a1b565b612a06848484846132a9565b611a2b6001600160a01b038316853084613300565b600081116127065760405162461bcd60e51b815260206004820152600b60248201526a1e995c9bc8185b5bdd5b9d60aa1b60448201526064016107f3565b60008381526011602090815260408083206001600160a01b038616845290915290205481811015612adb5760405162461bcd60e51b815260206004820152602660248201527f6e6f7420656e6f75676820746f6b656e20617661696c61626c6520746f20747260448201526530b739b332b960d11b60648201526084016107f3565b6000612ae78383614f43565b60008681526011602090815260408083206001600160a01b03891684529091529020819055905080612421576000858152601060205260409020612b2b908561327a565b505050505050565b6109d88363a9059cbb60e01b8484604051602401612b52929190614c52565b60408051601f198184030181529190526020810180516001600160e01b03166001600160e01b031990931692909217909152613321565b816001600160a01b0316836001600160a01b03161415612be75760405162461bcd60e51b815260206004820152601960248201527822a9219b99189d1030b8383937bb32903a379031b0b63632b960391b60448201526064016107f3565b6001600160a01b03838116600081815260056020908152604080832094871680845294825291829020805460ff191686151590811790915591519182527f17307eab39ab6107e8899845ad3d59bd9653f200f220920489ca2b5937696c31910160405180910390a3505050565b612c5f848484612509565b612c6b848484846133f3565b611a2b5760405162461bcd60e51b81526004016107f390614cac565b612c9083611540565b612cd45760405162461bcd60e51b8152602060048201526015602482015274195c98cc4c4d4d481b9bdd081c195c9b5a5d1d1959605a1b60448201526064016107f3565b611a2b84848484613500565b60405163095ea7b360e01b81526001600160a01b0383169063095ea7b390612d0e9030908590600401614c52565b600060405180830381600087803b158015612d2857600080fd5b505af1925050508015612d39575060015b506040516323b872dd60e01b81526001600160a01b038316906323b872dd90612d6a90309087908690600401614bb7565b600060405180830381600087803b158015612d8457600080fd5b505af1158015612d98573d6000803e3d6000fd5b50505050505050565b606081612dc55750506040805180820190915260018152600360fc1b602082015290565b8160005b8115612def5780612dd981614fc1565b9150612de89050600a83614f2f565b9150612dc9565b6000816001600160401b03811115612e1757634e487b7160e01b600052604160045260246000fd5b6040519080825280601f01601f191660200182016040528015612e41576020820181803683370190505b5090505b8415610aae57612e56600183614f43565b9150612e63600a86614fdc565b612e6e906030614f17565b60f81b818381518110612e9157634e487b7160e01b600052603260045260246000fd5b60200101906001600160f81b031916908160001a905350612eb3600a86614f2f565b9450612e45565b6000838152600d602090815260408083206001600160a01b03861684529091529020612ee6908261326e565b506001600160a01b0382166000818152600e602090815260408083208584528252808320839055868352600d825280832093835292905220612f2790612923565b6109d8576000838152600c60205260409020611a2b908361327a565b6001600160a01b0382166000908152600e6020908152604080832084845290915281205480612f845760405162461bcd60e51b81526004016107f390614cfe565b612f8d8161109a565b91505b9250929050565b60006001600160e01b0319821663f68ab2e360e01b1480612fc857506001600160e01b03198216630271189760e51b145b806107435750610743826135e4565b6000826000018281548110612ffc57634e487b7160e01b600052603260045260246000fd5b9060005260206000200154905092915050565b61301882611540565b61305b5760405162461bcd60e51b8152602060048201526014602482015273195c98cdcc8c481b9bdd081c195c9b5a5d1d195960621b60448201526064016107f3565b611a2b8484848461363f565b6001600160a01b0382166000908152600e60209081526040808320848452909152902054806130f65760405162461bcd60e51b815260206004820152603560248201527f5f7472616e736665724368696c64205f6368696c64436f6e7472616374205f636044820152741a1a5b19151bdad95b9259081b9bdd08199bdd5b99605a1b60648201526084016107f3565b8381146131635760405162461bcd60e51b815260206004820152603560248201527f436f6d706f7361626c65546f70446f776e3a205f7472616e736665724368696c60448201527419081ddc9bdb99c81d1bdad95b925908199bdd5b99605a1b60648201526084016107f3565b611a2b816131d0565b6001600160a01b0382163014156131c55760405162461bcd60e51b815260206004820152601a60248201527f6e65737465642062756e646c6573206e6f7420616c6c6f77656400000000000060448201526064016107f3565b6109d8838383613745565b60006131db82610fd4565b90506001600160a01b0381163314806132045750336131f9836107fc565b6001600160a01b0316145b8061321457506132148133612172565b6118c05760405162461bcd60e51b815260206004820152602560248201527f7472616e736665724368696c64206d73672e73656e646572206e6f7420656c696044820152646769626c6560d81b60648201526084016107f3565b60006109f583836137fd565b60006109f5836001600160a01b0384166137fd565b6118c082826040518060200160405280600081525061391a565b6132b282610ab6565b6132f45760405162461bcd60e51b8152602060048201526013602482015272195c98cc8c081b9bdd081c195c9b5a5d1d1959606a1b60448201526064016107f3565b611a2b8484848461394d565b611a2b846323b872dd60e01b858585604051602401612b5293929190614bb7565b6000613376826040518060400160405280602081526020017f5361666545524332303a206c6f772d6c6576656c2063616c6c206661696c6564815250856001600160a01b0316613a339092919063ffffffff16565b8051909150156109d8578080602001905181019061339491906145b5565b6109d85760405162461bcd60e51b815260206004820152602a60248201527f5361666545524332303a204552433230206f7065726174696f6e20646964206e6044820152691bdd081cdd58d8d9595960b21b60648201526084016107f3565b60006001600160a01b0384163b156134f557604051630a85bd0160e11b81526001600160a01b0385169063150b7a0290613437903390899088908890600401614bdb565b602060405180830381600087803b15801561345157600080fd5b505af1925050508015613481575060408051601f3d908101601f1916820190925261347e91810190614605565b60015b6134db573d8080156134af576040519150601f19603f3d011682016040523d82523d6000602084013e6134b4565b606091505b5080516134d35760405162461bcd60e51b81526004016107f390614cac565b805181602001fd5b6001600160e01b031916630a85bd0160e11b149050610aae565b506001949350505050565b6135098461234e565b6135255760405162461bcd60e51b81526004016107f390614d30565b6000848152600d602090815260408083206001600160a01b0387168452909152812061355090612923565b905080613571576000858152600c6020526040902061356f9085613a42565b505b6000858152600d602090815260408083206001600160a01b0388168452909152902061359d9084613a57565b506000858152600f602090815260408083206001600160a01b03881684528252808320868452909152812080548492906135d8908490614f17565b90915550505050505050565b60006001600160e01b0319821663cde244d960e01b148061361557506001600160e01b031982166328d12bf960e21b145b806136305750630f7ef9b560e11b6001600160e01b03198316145b80610743575061074382613a63565b6136488361234e565b6136645760405162461bcd60e51b81526004016107f390614d30565b6000838152600d602090815260408083206001600160a01b0386168452909152812061368f90612923565b9050806136b0576000848152600c602052604090206136ae9084613a42565b505b6000848152600d602090815260408083206001600160a01b038716845290915290206136dc9083613a57565b506001600160a01b038381166000818152600e60209081526040808320878452825291829020889055905185815291928792908916917f0371ddf2288ad1ba92626a7e31c86a9d006e592cfe57d7d946ef08b13457c08b91015b60405180910390a45050505050565b6001600160a01b0383166137a05761379b81600880546000838152600960205260408120829055600182018355919091527ff3f7a9fe364faab93b216da50a3214154f22a0a2b415b23a84c8169e8b636ee30155565b6137c3565b816001600160a01b0316836001600160a01b0316146137c3576137c38382613a88565b6001600160a01b0382166137da576109d881613b25565b826001600160a01b0316826001600160a01b0316146109d8576109d88282613bfe565b60008181526001830160205260408120548015613910576000613821600183614f43565b855490915060009061383590600190614f43565b90508181146138b657600086600001828154811061386357634e487b7160e01b600052603260045260246000fd5b906000526020600020015490508087600001848154811061389457634e487b7160e01b600052603260045260246000fd5b6000918252602080832090910192909255918252600188019052604090208390555b85548690806138d557634e487b7160e01b600052603160045260246000fd5b600190038181906000526020600020016000905590558560010160008681526020019081526020016000206000905560019350505050610743565b6000915050610743565b6139248383613c42565b61393160008484846133f3565b6109d85760405162461bcd60e51b81526004016107f390614cac565b6139568361234e565b6139725760405162461bcd60e51b81526004016107f390614d30565b60008381526011602090815260408083206001600160a01b0386168452909152902054806139b45760008481526010602052604090206139b29084613a42565b505b60008481526011602090815260408083206001600160a01b0387168452909152812080548492906139e6908490614f17565b92505081905550826001600160a01b031684866001600160a01b03167f684ce28ace37552c6bfb98b7cceda8ed55327078eafb5dfb31218e08563827638560405161373691815260200190565b6060610aae8484600085613d81565b60006109f5836001600160a01b038416613eb2565b60006109f58383613eb2565b60006001600160e01b0319821663780e9d6360e01b1480610743575061074382613f01565b60006001613a9584611677565b613a9f9190614f43565b600083815260076020526040902054909150808214613af2576001600160a01b03841660009081526006602090815260408083208584528252808320548484528184208190558352600790915290208190555b5060009182526007602090815260408084208490556001600160a01b039094168352600681528383209183525290812055565b600854600090613b3790600190614f43565b60008381526009602052604081205460088054939450909284908110613b6d57634e487b7160e01b600052603260045260246000fd5b906000526020600020015490508060088381548110613b9c57634e487b7160e01b600052603260045260246000fd5b6000918252602080832090910192909255828152600990915260408082208490558582528120556008805480613be257634e487b7160e01b600052603160045260246000fd5b6001900381819060005260206000200160009055905550505050565b6000613c0983611677565b6001600160a01b039093166000908152600660209081526040808320868452825280832085905593825260079052919091209190915550565b6001600160a01b038216613c985760405162461bcd60e51b815260206004820181905260248201527f4552433732313a206d696e7420746f20746865207a65726f206164647265737360448201526064016107f3565b613ca18161234e565b15613cee5760405162461bcd60e51b815260206004820152601c60248201527f4552433732313a20746f6b656e20616c7265616479206d696e7465640000000060448201526064016107f3565b613cfa6000838361316c565b6001600160a01b0382166000908152600360205260408120805460019290613d23908490614f17565b909155505060008181526002602052604080822080546001600160a01b0319166001600160a01b03861690811790915590518392907fddf252ad1be2c89b69c2b068fc378daa952ba7f163c4a11628f55a4df523b3ef908290a45050565b606082471015613de25760405162461bcd60e51b815260206004820152602660248201527f416464726573733a20696e73756666696369656e742062616c616e636520666f6044820152651c8818d85b1b60d21b60648201526084016107f3565b6001600160a01b0385163b613e395760405162461bcd60e51b815260206004820152601d60248201527f416464726573733a2063616c6c20746f206e6f6e2d636f6e747261637400000060448201526064016107f3565b600080866001600160a01b03168587604051613e559190614afa565b60006040518083038185875af1925050503d8060008114613e92576040519150601f19603f3d011682016040523d82523d6000602084013e613e97565b606091505b5091509150613ea7828286613f51565b979650505050505050565b6000818152600183016020526040812054613ef957508154600181810184556000848152602080822090930184905584548482528286019093526040902091909155610743565b506000610743565b60006001600160e01b031982166380ac58cd60e01b1480613f3257506001600160e01b03198216635b5e139f60e01b145b8061074357506301ffc9a760e01b6001600160e01b0319831614610743565b60608315613f605750816109f5565b825115613f705782518084602001fd5b8160405162461bcd60e51b81526004016107f39190614c99565b8035613f9581615032565b919050565b600082601f830112613faa578081fd5b81356020613fbf613fba83614ef4565b614ec4565b80838252828201915082860187848660051b8901011115613fde578586fd5b855b8581101561408a5781356001600160401b0380821115613ffe578889fd5b908901906060828c03601f190181131561401657898afd5b61401e614e7a565b8884013561402b81615032565b81526040848101358481111561403f578c8dfd5b61404d8f8c8389010161411f565b838c015250918401359183831115614063578b8cfd5b6140718e8b8588010161411f565b9082015287525050509284019290840190600101613fe0565b5090979650505050505050565b600082601f8301126140a7578081fd5b813560206140b7613fba83614ef4565b80838252828201915082860187848660061b89010111156140d6578586fd5b855b8581101561408a57604080838b0312156140f0578788fd5b6140f8614ea2565b833561410381615032565b81528387013587820152855293850193909101906001016140d8565b600082601f83011261412f578081fd5b8135602061413f613fba83614ef4565b80838252828201915082860187848660051b890101111561415e578586fd5b855b8581101561408a57813584529284019290840190600101614160565b60008083601f84011261418d578182fd5b5081356001600160401b038111156141a3578182fd5b602083019150836020828501011115612f9057600080fd5b600082601f8301126141cb578081fd5b81356001600160401b038111156141e4576141e461501c565b6141f7601f8201601f1916602001614ec4565b81815284602083860101111561420b578283fd5b816020850160208301379081016020019190915292915050565b600060208284031215614236578081fd5b81356109f581615032565b600060208284031215614252578081fd5b81516109f581615032565b6000806040838503121561426f578081fd5b823561427a81615032565b9150602083013561428a81615032565b809150509250929050565b600080600080600060a086880312156142ac578081fd5b85356142b781615032565b945060208601356142c781615032565b935060408601356001600160401b03808211156142e2578283fd5b6142ee89838a0161411f565b94506060880135915080821115614303578283fd5b61430f89838a0161411f565b93506080880135915080821115614324578283fd5b50614331888289016141bb565b9150509295509295909350565b600080600060608486031215614352578081fd5b833561435d81615032565b9250602084013561436d81615032565b929592945050506040919091013590565b600080600080600060808688031215614395578283fd5b85356143a081615032565b945060208601356143b081615032565b93506040860135925060608601356001600160401b038111156143d1578182fd5b6143dd8882890161417c565b969995985093965092949392505050565b60008060008060808587031215614403578182fd5b843561440e81615032565b9350602085013561441e81615032565b92506040850135915060608501356001600160401b0381111561443f578182fd5b61444b878288016141bb565b91505092959194509250565b600080600080600060a0868803121561446e578283fd5b853561447981615032565b9450602086013561448981615032565b9350604086013592506060860135915060808601356001600160401b038111156144b1578182fd5b614331888289016141bb565b600080604083850312156144cf578182fd5b82356144da81615032565b9150602083013561428a81615047565b600080604083850312156144fc578182fd5b823561450781615032565b946020939093013593505050565b6000806000806080858703121561452a578182fd5b843561453581615032565b935060208501359250604085013561454c81615032565b9396929550929360600135925050565b60008060008060608587031215614571578182fd5b843561457c81615032565b93506020850135925060408501356001600160401b0381111561459d578283fd5b6145a98782880161417c565b95989497509550505050565b6000602082840312156145c6578081fd5b81516109f581615047565b6000602082840312156145e2578081fd5b5051919050565b6000602082840312156145fa578081fd5b81356109f581615055565b600060208284031215614616578081fd5b81516109f581615055565b600080600060608486031215614635578081fd5b83356001600160401b038082111561464b578283fd5b908501906060828803121561465e578283fd5b614666614e7a565b823582811115614674578485fd5b8301601f81018913614684578485fd5b80356020614694613fba83614ef4565b8281528181019084830160608502860184018e10156146b157898afd5b8995505b84861015614711576060818f0312156146cc57898afd5b6146d4614e7a565b81356146df81615032565b8152818501358582015260408201356146f781615047565b6040820152835260019590950194918301916060016146b5565b5085525085810135925084831115614727578687fd5b6147338b848801614097565b81850152604086013592508483111561474a578687fd5b6147568b848801613f9a565b6040850152839850614769818b01613f8a565b975050505050505061477d60408501613f8a565b90509250925092565b600060208284031215614797578081fd5b5035919050565b600080604083850312156147b0578182fd5b82359150602083013561428a81615032565b60008060008060008060c087890312156147da578384fd5b8635955060208701356147ec81615032565b945060408701356147fc81615032565b935060608701356001600160401b0380821115614817578283fd5b6148238a838b0161411f565b94506080890135915080821115614838578283fd5b6148448a838b0161411f565b935060a0890135915080821115614859578283fd5b5061486689828a016141bb565b9150509295509295509295565b60008060008060808587031215614888578182fd5b84359350602085013561489a81615032565b9250604085013561454c81615032565b60008060008060008060a087890312156148c2578384fd5b8635955060208701356148d481615032565b945060408701356148e481615032565b93506060870135925060808701356001600160401b03811115614905578283fd5b61491189828a0161417c565b979a9699509497509295939492505050565b600080600080600060a0868803121561493a578283fd5b85359450602086013561494c81615032565b9350604086013561495c81615032565b92506060860135915060808601356001600160401b038111156144b1578182fd5b60008060008060008060c08789031215614995578384fd5b8635955060208701356149a781615032565b945060408701356149b781615032565b9350606087013592506080870135915060a08701356001600160401b038111156149df578182fd5b61486689828a016141bb565b6000806000606084860312156149ff578081fd5b83359250602084013561436d81615032565b60008060008060008060c08789031215614a29578384fd5b863595506020870135614a3b81615032565b9450604087013593506060870135614a5281615032565b92506080870135915060a08701356001600160401b038111156149df578182fd5b60008060408385031215614a85578182fd5b50508035926020909101359150565b6000815180845260208085019450808401835b83811015614ac357815187529582019590820190600101614aa7565b509495945050505050565b60008151808452614ae6816020860160208601614f5a565b601f01601f19169290920160200192915050565b60008251614b0c818460208701614f5a565b9190910192915050565b60008351614b28818460208801614f5a565b835190830190614b3c818360208801614f5a565b01949350505050565b6001600160a01b0391909116815260200190565b6001600160a01b0386811682528516602082015260a060408201819052600090614b8590830186614a94565b8281036060840152614b978186614a94565b90508281036080840152614bab8185614ace565b98975050505050505050565b6001600160a01b039384168152919092166020820152604081019190915260600190565b6001600160a01b0385811682528416602082015260408101839052608060608201819052600090614c0e90830184614ace565b9695505050505050565b6001600160a01b03868116825285166020820152604081018490526060810183905260a060808201819052600090613ea790830184614ace565b6001600160a01b03929092168252602082015260400190565b604081526000614c7e6040830185614a94565b8281036020840152614c908185614a94565b95945050505050565b6020815260006109f56020830184614ace565b60208082526032908201527f4552433732313a207472616e7366657220746f206e6f6e20455243373231526560408201527131b2b4bb32b91034b6b83632b6b2b73a32b960711b606082015260800190565b6020808252601890820152771bdddb995c881bd98818da1a5b19081b9bdd08199bdd5b9960421b604082015260600190565b6020808252601d908201527f62756e646c6520746f6b656e496420646f6573206e6f74206578697374000000604082015260600190565b60208082526038908201527f64617461206d75737420636f6e7461696e20746f6b656e496420746f207472616040820152776e7366657220746865206368696c6420746f6b656e20746f60401b606082015260800190565b60208082526031908201527f4552433732313a207472616e736665722063616c6c6572206973206e6f74206f6040820152701ddb995c881b9bdc88185c1c1c9bdd9959607a1b606082015260800190565b602080825260199082015278195e1d195c9b985b0818d85b1b1cc81c995cdd1c9a58dd1959603a1b604082015260600190565b6020808252601f908201527f5265656e7472616e637947756172643a207265656e7472616e742063616c6c00604082015260600190565b604051606081016001600160401b0381118282101715614e9c57614e9c61501c565b60405290565b604080519081016001600160401b0381118282101715614e9c57614e9c61501c565b604051601f8201601f191681016001600160401b0381118282101715614eec57614eec61501c565b604052919050565b60006001600160401b03821115614f0d57614f0d61501c565b5060051b60200190565b60008219821115614f2a57614f2a614ff0565b500190565b600082614f3e57614f3e615006565b500490565b600082821015614f5557614f55614ff0565b500390565b60005b83811015614f75578181015183820152602001614f5d565b83811115611a2b5750506000910152565b600181811c90821680614f9a57607f821691505b60208210811415614fbb57634e487b7160e01b600052602260045260246000fd5b50919050565b6000600019821415614fd557614fd5614ff0565b5060010190565b600082614feb57614feb615006565b500690565b634e487b7160e01b600052601160045260246000fd5b634e487b7160e01b600052601260045260246000fd5b634e487b7160e01b600052604160045260246000fd5b6001600160a01b038116811461270657600080fd5b801515811461270657600080fd5b6001600160e01b03198116811461270657600080fdfe0ef52e516fb5aec15a5d3587e5480481b702b26db93c8430eca78b61990fd3f6a164736f6c6343000804000a",
  "devdoc": {
    "author": "NFTfi",
    "details": "ERC998 Top-Down Composable Non-Fungible Token that supports permitted ERC721, ERC1155 and ERC20 children.",
    "kind": "dev",
    "methods": {
      "approve(address,uint256)": {
        "details": "See {IERC721-approve}."
      },
      "balanceOf(address)": {
        "details": "See {IERC721-balanceOf}."
      },
      "balanceOfERC20(uint256,address)": {
        "details": "Look up the balance of ERC20 tokens for a specific token and ERC20 contract",
        "params": {
          "_erc20Contract": "The ERC20 contract",
          "_tokenId": "The token that owns the ERC20 tokens"
        },
        "returns": {
          "_0": "The number of ERC20 tokens owned by a token"
        }
      },
      "buildBundle(((address,uint256,bool)[],(address,uint256)[],(address,uint256[],uint256[])[]),address,address)": {
        "details": "used by the loan contract to build a bundle from the BundleElements struct at the beginning of a loan, returns the id of the created bundle",
        "params": {
          "_bundleElements": "- the lists of erc721-20-1155 tokens that are to be bundled",
          "_receiver": "receiver of the created bundle, normally the loan contract",
          "_sender": "sender of the tokens in the bundle - the borrower"
        }
      },
      "childBalance(uint256,address,uint256)": {
        "details": "Gives child balance for a specific child contract and child id",
        "params": {
          "_childContract": "The ERC1155 contract of the child token",
          "_childTokenId": "The tokenId of the child token"
        }
      },
      "childContractByIndex(uint256,uint256)": {
        "params": {
          "_index": "The index position of the child contract",
          "_tokenId": "The parent token of child tokens in child contract"
        },
        "returns": {
          "childContract": "The contract found at the _tokenId and index"
        }
      },
      "childExists(address,uint256)": {
        "params": {
          "_childContract": "The contract address of the child token",
          "_childTokenId": "The tokenId of the child"
        },
        "returns": {
          "_0": "True if the child exists, false otherwise"
        }
      },
      "childTokenByIndex(uint256,address,uint256)": {
        "params": {
          "_childContract": "The child contract of the child token",
          "_index": "The index position of the child token",
          "_tokenId": "The parent token of the child token"
        },
        "returns": {
          "childTokenId": "The child tokenId for the parent token, child token and index"
        }
      },
      "constructor": {
        "details": "Stores the NftfiHub, name and symbol",
        "params": {
          "_name": "name of the token contract",
          "_nftfiHub": "Address of the NftfiHub contract",
          "_symbol": "symbol of the token contract"
        }
      },
      "decomposeBundle(uint256,address)": {
        "details": "This method may run out of gas if the list of children is too big. In that case, children can be removed      individually.",
        "params": {
          "_receiver": "address of the receiver of the children",
          "_tokenId": "the id of the bundle"
        }
      },
      "erc20ContractByIndex(uint256,uint256)": {
        "params": {
          "_index": "The index position of the child contract",
          "_tokenId": "The parent token of ERC20 tokens"
        },
        "returns": {
          "_0": "childContract The contract found at the tokenId and index"
        }
      },
      "getApproved(uint256)": {
        "details": "See {IERC721-getApproved}."
      },
      "getERC20(address,uint256,address,uint256)": {
        "details": "This contract has to be approved first by _erc20Contract"
      },
      "isApprovedForAll(address,address)": {
        "details": "See {IERC721-isApprovedForAll}."
      },
      "name()": {
        "details": "See {IERC721Metadata-name}."
      },
      "onERC1155BatchReceived(address,address,uint256[],uint256[],bytes)": {
        "params": {
          "_data": "Up to the first 32 bytes contains an integer which is the receiving parent tokenId",
          "_from": "The owner of the child token",
          "_ids": "The list of token id that is being transferred to the parent",
          "_values": "The list of amounts of the tokens that is being transferred"
        },
        "returns": {
          "_0": "the selector of this method"
        }
      },
      "onERC721Received(address,address,uint256,bytes)": {
        "params": {
          "_childTokenId": "The token that is being transferred to the parent",
          "_data": "Up to the first 32 bytes contains an integer which is the receiving parent tokenId",
          "_from": "The owner of the child token"
        },
        "returns": {
          "_0": "the selector of this method"
        }
      },
      "ownerOf(uint256)": {
        "details": "See {IERC721-ownerOf}."
      },
      "ownerOfChild(address,uint256)": {
        "params": {
          "_childContract": "The contract address of the child token",
          "_childTokenId": "The tokenId of the child"
        },
        "returns": {
          "parentTokenId": "The parent tokenId of _childTokenId",
          "parentTokenOwner": "The parent address of the parent token and ERC998 magic value"
        }
      },
      "permittedAsset(address)": {
        "params": {
          "_asset": "address of the asset"
        },
        "returns": {
          "_0": "true if permitted, false otherwise"
        }
      },
      "permittedErc20Asset(address)": {
        "params": {
          "_erc20Contract": "address of the erc20"
        },
        "returns": {
          "_0": "true if permitted, false otherwise"
        }
      },
      "rootOwnerOf(uint256)": {
        "params": {
          "_tokenId": "The token to query for a root owner address"
        },
        "returns": {
          "rootOwner": "The root owner at the top of tree of tokens and ERC998 magic value."
        }
      },
      "rootOwnerOfChild(address,uint256)": {
        "details": "Returns the owner at the top of the tree of composables Use Cases handled: - Case 1: Token owner is this contract and token. - Case 2: Token owner is other external top-down composable - Case 3: Token owner is other contract - Case 4: Token owner is user",
        "params": {
          "_childContract": "The contract address of the child token",
          "_childTokenId": "The tokenId of the child"
        },
        "returns": {
          "rootOwner": "The root owner at the top of tree of tokens and ERC998 magic value"
        }
      },
      "safeBatchTransferChild(uint256,address,address,uint256[],uint256[],bytes)": {
        "params": {
          "_amounts": "The list of amount of the token that is being transferred",
          "_childContract": "The ERC1155 contract of the child token",
          "_childTokenIds": "The list of tokenId of the token that is being transferred",
          "_data": "Additional data with no specified format",
          "_to": "The address that receives the child token",
          "_tokenId": "The owning token to transfer from"
        }
      },
      "safeTransferChild(uint256,address,address,uint256)": {
        "params": {
          "_childContract": "The ERC721 contract of the child token",
          "_childTokenId": "The tokenId of the token that is being transferred",
          "_fromTokenId": "The owning token to transfer from",
          "_to": "The address that receives the child token"
        }
      },
      "safeTransferChild(uint256,address,address,uint256,bytes)": {
        "params": {
          "_childContract": "The ERC721 contract of the child token",
          "_childTokenId": "The tokenId of the token that is being transferred",
          "_data": "Additional data with no specified format",
          "_fromTokenId": "The owning token to transfer from",
          "_to": "The address that receives the child token"
        }
      },
      "safeTransferChild(uint256,address,address,uint256,uint256,bytes)": {
        "params": {
          "_amount": "The amount of the token that is being transferred",
          "_childContract": "The ERC1155 contract of the child token",
          "_childTokenId": "The tokenId of the token that is being transferred",
          "_data": "Additional data with no specified format",
          "_to": "The address that receives the child token",
          "_tokenId": "The owning token to transfer from"
        }
      },
      "safeTransferFrom(address,address,uint256)": {
        "details": "See {IERC721-safeTransferFrom}."
      },
      "safeTransferFrom(address,address,uint256,bytes)": {
        "details": "See {IERC721-safeTransferFrom}."
      },
      "setApprovalForAll(address,bool)": {
        "details": "See {IERC721-setApprovalForAll}."
      },
      "supportsInterface(bytes4)": {
        "details": "See {IERC165-supportsInterface}."
      },
      "symbol()": {
        "details": "See {IERC721Metadata-symbol}."
      },
      "tokenByIndex(uint256)": {
        "details": "See {IERC721Enumerable-tokenByIndex}."
      },
      "tokenOfOwnerByIndex(address,uint256)": {
        "details": "See {IERC721Enumerable-tokenOfOwnerByIndex}."
      },
      "tokenURI(uint256)": {
        "details": "See {IERC721Metadata-tokenURI}."
      },
      "totalChildContracts(uint256)": {
        "params": {
          "_tokenId": "The parent token of child tokens in child contracts"
        },
        "returns": {
          "_0": "uint256 The total number of child contracts with tokens owned by _tokenId"
        }
      },
      "totalChildTokens(uint256,address)": {
        "params": {
          "_childContract": "The child contract containing the child tokens",
          "_tokenId": "The parent token of child tokens"
        },
        "returns": {
          "_0": "uint256 The total number of child tokens found in child contract that are owned by _tokenId"
        }
      },
      "totalERC20Contracts(uint256)": {
        "params": {
          "_tokenId": "The parent token of ERC20 tokens"
        },
        "returns": {
          "_0": "uint256 The total number of ERC20 tokens"
        }
      },
      "totalSupply()": {
        "details": "See {IERC721Enumerable-totalSupply}."
      },
      "transferChild(uint256,address,address,uint256)": {
        "details": "Transfer child token from top-down composable to address",
        "params": {
          "_childContract": "The ERC721 contract of the child token",
          "_childTokenId": "The tokenId of the token that is being transferred",
          "_fromTokenId": "The owning token to transfer from",
          "_to": "The address that receives the child token"
        }
      },
      "transferERC20(uint256,address,address,uint256)": {
        "params": {
          "_erc20Contract": "The ERC20 contract",
          "_to": "The address to send the ERC20 tokens to",
          "_tokenId": "The token to transfer from",
          "_value": "The number of ERC20 tokens to transfer"
        }
      },
      "transferFrom(address,address,uint256)": {
        "details": "See {IERC721-transferFrom}."
      }
    },
    "title": "NftfiBundler",
    "version": 1
  },
  "userdoc": {
    "kind": "user",
    "methods": {
      "childContractByIndex(uint256,uint256)": {
        "notice": "Get child contract by tokenId and index"
      },
      "childExists(address,uint256)": {
        "notice": "Tells whether the ERC721 type child exists or not"
      },
      "childTokenByIndex(uint256,address,uint256)": {
        "notice": "Get child token owned by _tokenId, in child contract, at index position"
      },
      "decomposeBundle(uint256,address)": {
        "notice": "Remove all the children from the bundle"
      },
      "erc20ContractByIndex(uint256,uint256)": {
        "notice": "Get ERC20 contract by tokenId and index"
      },
      "getChild(address,uint256,address,uint256)": {
        "notice": "Transfer a child token from an ERC721 contract to a composable. Used for old tokens that does not have a safeTransferFrom method like cryptokitties"
      },
      "getERC20(address,uint256,address,uint256)": {
        "notice": "Get ERC20 tokens from ERC20 contract."
      },
      "onERC1155BatchReceived(address,address,uint256[],uint256[],bytes)": {
        "notice": "A token receives a batch of child tokens param The address that caused the transfer"
      },
      "onERC1155Received(address,address,uint256,uint256,bytes)": {
        "notice": "A token receives a child token"
      },
      "onERC721Received(address,address,uint256,bytes)": {
        "notice": "A token receives a child token param The address that caused the transfer"
      },
      "ownerOfChild(address,uint256)": {
        "notice": "Get the parent tokenId and its owner of a ERC721 child token"
      },
      "permittedAsset(address)": {
        "notice": "Tells if an asset is permitted or not"
      },
      "permittedErc20Asset(address)": {
        "notice": "Tells if the erc20 is permitted or not"
      },
      "rootOwnerOf(uint256)": {
        "notice": "Get the root owner of tokenId"
      },
      "rootOwnerOfChild(address,uint256)": {
        "notice": "Get the root owner of a child token"
      },
      "safeBatchTransferChild(uint256,address,address,uint256[],uint256[],bytes)": {
        "notice": "Transfer batch of ERC1155 child token from top-down composable to address or other top-down composable"
      },
      "safeTransferChild(uint256,address,address,uint256)": {
        "notice": "Transfer child token from top-down composable to address"
      },
      "safeTransferChild(uint256,address,address,uint256,bytes)": {
        "notice": "Transfer child token from top-down composable to address or other top-down composable"
      },
      "safeTransferChild(uint256,address,address,uint256,uint256,bytes)": {
        "notice": "Transfer a ERC1155 child token from top-down composable to address or other top-down composable"
      },
      "tokenFallback(address,uint256,bytes)": {
        "notice": "NOT SUPPORTED Intended to receive ERC223 tokens. ERC223 tokens can be deposited as regular ERC20"
      },
      "totalChildContracts(uint256)": {
        "notice": "Get the total number of child contracts with tokens that are owned by _tokenId"
      },
      "totalChildTokens(uint256,address)": {
        "notice": "Get the total number of child tokens owned by tokenId that exist in a child contract"
      },
      "totalERC20Contracts(uint256)": {
        "notice": "Get the total number of ERC20 tokens owned by tokenId"
      },
      "transferChildToParent(uint256,address,uint256,address,uint256,bytes)": {
        "notice": "NOT SUPPORTED Intended to transfer bottom-up composable child token from top-down composable to other ERC721 token."
      },
      "transferERC20(uint256,address,address,uint256)": {
        "notice": "Transfer ERC20 tokens to address"
      },
      "transferERC223(uint256,address,address,uint256,bytes)": {
        "notice": "NOT SUPPORTED Intended to transfer ERC223 tokens. ERC223 tokens can be transferred as regular ERC20"
      }
    },
    "version": 1
  },
  "storageLayout": {
    "storage": [
      {
        "astId": 3553,
        "contract": "contracts/composable/NftfiBundler.sol:NftfiBundler",
        "label": "_name",
        "offset": 0,
        "slot": "0",
        "type": "t_string_storage"
      },
      {
        "astId": 3555,
        "contract": "contracts/composable/NftfiBundler.sol:NftfiBundler",
        "label": "_symbol",
        "offset": 0,
        "slot": "1",
        "type": "t_string_storage"
      },
      {
        "astId": 3559,
        "contract": "contracts/composable/NftfiBundler.sol:NftfiBundler",
        "label": "_owners",
        "offset": 0,
        "slot": "2",
        "type": "t_mapping(t_uint256,t_address)"
      },
      {
        "astId": 3563,
        "contract": "contracts/composable/NftfiBundler.sol:NftfiBundler",
        "label": "_balances",
        "offset": 0,
        "slot": "3",
        "type": "t_mapping(t_address,t_uint256)"
      },
      {
        "astId": 3567,
        "contract": "contracts/composable/NftfiBundler.sol:NftfiBundler",
        "label": "_tokenApprovals",
        "offset": 0,
        "slot": "4",
        "type": "t_mapping(t_uint256,t_address)"
      },
      {
        "astId": 3573,
        "contract": "contracts/composable/NftfiBundler.sol:NftfiBundler",
        "label": "_operatorApprovals",
        "offset": 0,
        "slot": "5",
        "type": "t_mapping(t_address,t_mapping(t_address,t_bool))"
      },
      {
        "astId": 4572,
        "contract": "contracts/composable/NftfiBundler.sol:NftfiBundler",
        "label": "_ownedTokens",
        "offset": 0,
        "slot": "6",
        "type": "t_mapping(t_address,t_mapping(t_uint256,t_uint256))"
      },
      {
        "astId": 4576,
        "contract": "contracts/composable/NftfiBundler.sol:NftfiBundler",
        "label": "_ownedTokensIndex",
        "offset": 0,
        "slot": "7",
        "type": "t_mapping(t_uint256,t_uint256)"
      },
      {
        "astId": 4579,
        "contract": "contracts/composable/NftfiBundler.sol:NftfiBundler",
        "label": "_allTokens",
        "offset": 0,
        "slot": "8",
        "type": "t_array(t_uint256)dyn_storage"
      },
      {
        "astId": 4583,
        "contract": "contracts/composable/NftfiBundler.sol:NftfiBundler",
        "label": "_allTokensIndex",
        "offset": 0,
        "slot": "9",
        "type": "t_mapping(t_uint256,t_uint256)"
      },
      {
        "astId": 802,
        "contract": "contracts/composable/NftfiBundler.sol:NftfiBundler",
        "label": "_status",
        "offset": 0,
        "slot": "10",
        "type": "t_uint256"
      },
      {
        "astId": 9448,
        "contract": "contracts/composable/NftfiBundler.sol:NftfiBundler",
        "label": "tokenCount",
        "offset": 0,
        "slot": "11",
        "type": "t_uint256"
      },
      {
        "astId": 9453,
        "contract": "contracts/composable/NftfiBundler.sol:NftfiBundler",
        "label": "childContracts",
        "offset": 0,
        "slot": "12",
        "type": "t_mapping(t_uint256,t_struct(AddressSet)6788_storage)"
      },
      {
        "astId": 9460,
        "contract": "contracts/composable/NftfiBundler.sol:NftfiBundler",
        "label": "childTokens",
        "offset": 0,
        "slot": "13",
        "type": "t_mapping(t_uint256,t_mapping(t_address,t_struct(UintSet)6945_storage))"
      },
      {
        "astId": 9466,
        "contract": "contracts/composable/NftfiBundler.sol:NftfiBundler",
        "label": "childTokenOwner",
        "offset": 0,
        "slot": "14",
        "type": "t_mapping(t_address,t_mapping(t_uint256,t_uint256))"
      },
      {
        "astId": 8481,
        "contract": "contracts/composable/NftfiBundler.sol:NftfiBundler",
        "label": "balances",
        "offset": 0,
        "slot": "15",
        "type": "t_mapping(t_uint256,t_mapping(t_address,t_mapping(t_uint256,t_uint256)))"
      },
      {
        "astId": 9051,
        "contract": "contracts/composable/NftfiBundler.sol:NftfiBundler",
        "label": "erc20ChildContracts",
        "offset": 0,
        "slot": "16",
        "type": "t_mapping(t_uint256,t_struct(AddressSet)6788_storage)"
      },
      {
        "astId": 9057,
        "contract": "contracts/composable/NftfiBundler.sol:NftfiBundler",
        "label": "erc20Balances",
        "offset": 0,
        "slot": "17",
        "type": "t_mapping(t_uint256,t_mapping(t_address,t_uint256))"
      }
    ],
    "types": {
      "t_address": {
        "encoding": "inplace",
        "label": "address",
        "numberOfBytes": "20"
      },
      "t_array(t_bytes32)dyn_storage": {
        "base": "t_bytes32",
        "encoding": "dynamic_array",
        "label": "bytes32[]",
        "numberOfBytes": "32"
      },
      "t_array(t_uint256)dyn_storage": {
        "base": "t_uint256",
        "encoding": "dynamic_array",
        "label": "uint256[]",
        "numberOfBytes": "32"
      },
      "t_bool": {
        "encoding": "inplace",
        "label": "bool",
        "numberOfBytes": "1"
      },
      "t_bytes32": {
        "encoding": "inplace",
        "label": "bytes32",
        "numberOfBytes": "32"
      },
      "t_mapping(t_address,t_bool)": {
        "encoding": "mapping",
        "key": "t_address",
        "label": "mapping(address => bool)",
        "numberOfBytes": "32",
        "value": "t_bool"
      },
      "t_mapping(t_address,t_mapping(t_address,t_bool))": {
        "encoding": "mapping",
        "key": "t_address",
        "label": "mapping(address => mapping(address => bool))",
        "numberOfBytes": "32",
        "value": "t_mapping(t_address,t_bool)"
      },
      "t_mapping(t_address,t_mapping(t_uint256,t_uint256))": {
        "encoding": "mapping",
        "key": "t_address",
        "label": "mapping(address => mapping(uint256 => uint256))",
        "numberOfBytes": "32",
        "value": "t_mapping(t_uint256,t_uint256)"
      },
      "t_mapping(t_address,t_struct(UintSet)6945_storage)": {
        "encoding": "mapping",
        "key": "t_address",
        "label": "mapping(address => struct EnumerableSet.UintSet)",
        "numberOfBytes": "32",
        "value": "t_struct(UintSet)6945_storage"
      },
      "t_mapping(t_address,t_uint256)": {
        "encoding": "mapping",
        "key": "t_address",
        "label": "mapping(address => uint256)",
        "numberOfBytes": "32",
        "value": "t_uint256"
      },
      "t_mapping(t_bytes32,t_uint256)": {
        "encoding": "mapping",
        "key": "t_bytes32",
        "label": "mapping(bytes32 => uint256)",
        "numberOfBytes": "32",
        "value": "t_uint256"
      },
      "t_mapping(t_uint256,t_address)": {
        "encoding": "mapping",
        "key": "t_uint256",
        "label": "mapping(uint256 => address)",
        "numberOfBytes": "32",
        "value": "t_address"
      },
      "t_mapping(t_uint256,t_mapping(t_address,t_mapping(t_uint256,t_uint256)))": {
        "encoding": "mapping",
        "key": "t_uint256",
        "label": "mapping(uint256 => mapping(address => mapping(uint256 => uint256)))",
        "numberOfBytes": "32",
        "value": "t_mapping(t_address,t_mapping(t_uint256,t_uint256))"
      },
      "t_mapping(t_uint256,t_mapping(t_address,t_struct(UintSet)6945_storage))": {
        "encoding": "mapping",
        "key": "t_uint256",
        "label": "mapping(uint256 => mapping(address => struct EnumerableSet.UintSet))",
        "numberOfBytes": "32",
        "value": "t_mapping(t_address,t_struct(UintSet)6945_storage)"
      },
      "t_mapping(t_uint256,t_mapping(t_address,t_uint256))": {
        "encoding": "mapping",
        "key": "t_uint256",
        "label": "mapping(uint256 => mapping(address => uint256))",
        "numberOfBytes": "32",
        "value": "t_mapping(t_address,t_uint256)"
      },
      "t_mapping(t_uint256,t_struct(AddressSet)6788_storage)": {
        "encoding": "mapping",
        "key": "t_uint256",
        "label": "mapping(uint256 => struct EnumerableSet.AddressSet)",
        "numberOfBytes": "32",
        "value": "t_struct(AddressSet)6788_storage"
      },
      "t_mapping(t_uint256,t_uint256)": {
        "encoding": "mapping",
        "key": "t_uint256",
        "label": "mapping(uint256 => uint256)",
        "numberOfBytes": "32",
        "value": "t_uint256"
      },
      "t_string_storage": {
        "encoding": "bytes",
        "label": "string",
        "numberOfBytes": "32"
      },
      "t_struct(AddressSet)6788_storage": {
        "encoding": "inplace",
        "label": "struct EnumerableSet.AddressSet",
        "members": [
          {
            "astId": 6787,
            "contract": "contracts/composable/NftfiBundler.sol:NftfiBundler",
            "label": "_inner",
            "offset": 0,
            "slot": "0",
            "type": "t_struct(Set)6487_storage"
          }
        ],
        "numberOfBytes": "64"
      },
      "t_struct(Set)6487_storage": {
        "encoding": "inplace",
        "label": "struct EnumerableSet.Set",
        "members": [
          {
            "astId": 6482,
            "contract": "contracts/composable/NftfiBundler.sol:NftfiBundler",
            "label": "_values",
            "offset": 0,
            "slot": "0",
            "type": "t_array(t_bytes32)dyn_storage"
          },
          {
            "astId": 6486,
            "contract": "contracts/composable/NftfiBundler.sol:NftfiBundler",
            "label": "_indexes",
            "offset": 0,
            "slot": "1",
            "type": "t_mapping(t_bytes32,t_uint256)"
          }
        ],
        "numberOfBytes": "64"
      },
      "t_struct(UintSet)6945_storage": {
        "encoding": "inplace",
        "label": "struct EnumerableSet.UintSet",
        "members": [
          {
            "astId": 6944,
            "contract": "contracts/composable/NftfiBundler.sol:NftfiBundler",
            "label": "_inner",
            "offset": 0,
            "slot": "0",
            "type": "t_struct(Set)6487_storage"
          }
        ],
        "numberOfBytes": "64"
      },
      "t_uint256": {
        "encoding": "inplace",
        "label": "uint256",
        "numberOfBytes": "32"
      }
    }
  }
}