{
  "address": "0x09BF9c764552288Fe925d88c0A92833241c8c153",
  "abi": [
    {
      "inputs": [
        {
          "internalType": "address",
          "name": "_admin",
          "type": "address"
        },
        {
          "internalType": "address",
          "name": "_nftfiHub",
          "type": "address"
        },
        {
          "internalType": "address",
          "name": "_loanCoordinator",
          "type": "address"
        },
        {
          "internalType": "string",
          "name": "_name",
          "type": "string"
        },
        {
          "internalType": "string",
          "name": "_symbol",
          "type": "string"
        },
        {
          "internalType": "string",
          "name": "_customBaseURI",
          "type": "string"
        }
      ],
      "stateMutability": "nonpayable",
      "type": "constructor"
    },
    {
      "anonymous": false,
      "inputs": [
        {
          "indexed": true,
          "internalType": "address",
          "name": "owner",
          "type": "address"
        },
        {
          "indexed": true,
          "internalType": "address",
          "name": "approved",
          "type": "address"
        },
        {
          "indexed": true,
          "internalType": "uint256",
          "name": "tokenId",
          "type": "uint256"
        }
      ],
      "name": "Approval",
      "type": "event"
    },
    {
      "anonymous": false,
      "inputs": [
        {
          "indexed": true,
          "internalType": "address",
          "name": "owner",
          "type": "address"
        },
        {
          "indexed": true,
          "internalType": "address",
          "name": "operator",
          "type": "address"
        },
        {
          "indexed": false,
          "internalType": "bool",
          "name": "approved",
          "type": "bool"
        }
      ],
      "name": "ApprovalForAll",
      "type": "event"
    },
    {
      "anonymous": false,
      "inputs": [
        {
          "indexed": true,
          "internalType": "bytes32",
          "name": "role",
          "type": "bytes32"
        },
        {
          "indexed": true,
          "internalType": "bytes32",
          "name": "previousAdminRole",
          "type": "bytes32"
        },
        {
          "indexed": true,
          "internalType": "bytes32",
          "name": "newAdminRole",
          "type": "bytes32"
        }
      ],
      "name": "RoleAdminChanged",
      "type": "event"
    },
    {
      "anonymous": false,
      "inputs": [
        {
          "indexed": true,
          "internalType": "bytes32",
          "name": "role",
          "type": "bytes32"
        },
        {
          "indexed": true,
          "internalType": "address",
          "name": "account",
          "type": "address"
        },
        {
          "indexed": true,
          "internalType": "address",
          "name": "sender",
          "type": "address"
        }
      ],
      "name": "RoleGranted",
      "type": "event"
    },
    {
      "anonymous": false,
      "inputs": [
        {
          "indexed": true,
          "internalType": "bytes32",
          "name": "role",
          "type": "bytes32"
        },
        {
          "indexed": true,
          "internalType": "address",
          "name": "account",
          "type": "address"
        },
        {
          "indexed": true,
          "internalType": "address",
          "name": "sender",
          "type": "address"
        }
      ],
      "name": "RoleRevoked",
      "type": "event"
    },
    {
      "anonymous": false,
      "inputs": [
        {
          "indexed": true,
          "internalType": "address",
          "name": "from",
          "type": "address"
        },
        {
          "indexed": true,
          "internalType": "address",
          "name": "to",
          "type": "address"
        },
        {
          "indexed": true,
          "internalType": "uint256",
          "name": "tokenId",
          "type": "uint256"
        }
      ],
      "name": "Transfer",
      "type": "event"
    },
    {
      "inputs": [],
      "name": "BASE_URI_ROLE",
      "outputs": [
        {
          "internalType": "bytes32",
          "name": "",
          "type": "bytes32"
        }
      ],
      "stateMutability": "view",
      "type": "function"
    },
    {
      "inputs": [],
      "name": "DEFAULT_ADMIN_ROLE",
      "outputs": [
        {
          "internalType": "bytes32",
          "name": "",
          "type": "bytes32"
        }
      ],
      "stateMutability": "view",
      "type": "function"
    },
    {
      "inputs": [],
      "name": "LOAN_COORDINATOR_ROLE",
      "outputs": [
        {
          "internalType": "bytes32",
          "name": "",
          "type": "bytes32"
        }
      ],
      "stateMutability": "view",
      "type": "function"
    },
    {
      "inputs": [
        {
          "internalType": "address",
          "name": "to",
          "type": "address"
        },
        {
          "internalType": "uint256",
          "name": "tokenId",
          "type": "uint256"
        }
      ],
      "name": "approve",
      "outputs": [],
      "stateMutability": "nonpayable",
      "type": "function"
    },
    {
      "inputs": [
        {
          "internalType": "address",
          "name": "owner",
          "type": "address"
        }
      ],
      "name": "balanceOf",
      "outputs": [
        {
          "internalType": "uint256",
          "name": "",
          "type": "uint256"
        }
      ],
      "stateMutability": "view",
      "type": "function"
    },
    {
      "inputs": [],
      "name": "baseURI",
      "outputs": [
        {
          "internalType": "string",
          "name": "",
          "type": "string"
        }
      ],
      "stateMutability": "view",
      "type": "function"
    },
    {
      "inputs": [
        {
          "internalType": "uint256",
          "name": "_tokenId",
          "type": "uint256"
        }
      ],
      "name": "burn",
      "outputs": [],
      "stateMutability": "nonpayable",
      "type": "function"
    },
    {
      "inputs": [
        {
          "internalType": "uint256",
          "name": "_tokenId",
          "type": "uint256"
        }
      ],
      "name": "exists",
      "outputs": [
        {
          "internalType": "bool",
          "name": "",
          "type": "bool"
        }
      ],
      "stateMutability": "view",
      "type": "function"
    },
    {
      "inputs": [
        {
          "internalType": "uint256",
          "name": "tokenId",
          "type": "uint256"
        }
      ],
      "name": "getApproved",
      "outputs": [
        {
          "internalType": "address",
          "name": "",
          "type": "address"
        }
      ],
      "stateMutability": "view",
      "type": "function"
    },
    {
      "inputs": [
        {
          "internalType": "bytes32",
          "name": "role",
          "type": "bytes32"
        }
      ],
      "name": "getRoleAdmin",
      "outputs": [
        {
          "internalType": "bytes32",
          "name": "",
          "type": "bytes32"
        }
      ],
      "stateMutability": "view",
      "type": "function"
    },
    {
      "inputs": [
        {
          "internalType": "bytes32",
          "name": "role",
          "type": "bytes32"
        },
        {
          "internalType": "address",
          "name": "account",
          "type": "address"
        }
      ],
      "name": "grantRole",
      "outputs": [],
      "stateMutability": "nonpayable",
      "type": "function"
    },
    {
      "inputs": [
        {
          "internalType": "bytes32",
          "name": "role",
          "type": "bytes32"
        },
        {
          "internalType": "address",
          "name": "account",
          "type": "address"
        }
      ],
      "name": "hasRole",
      "outputs": [
        {
          "internalType": "bool",
          "name": "",
          "type": "bool"
        }
      ],
      "stateMutability": "view",
      "type": "function"
    },
    {
      "inputs": [],
      "name": "hub",
      "outputs": [
        {
          "internalType": "contract INftfiHub",
          "name": "",
          "type": "address"
        }
      ],
      "stateMutability": "view",
      "type": "function"
    },
    {
      "inputs": [
        {
          "internalType": "address",
          "name": "owner",
          "type": "address"
        },
        {
          "internalType": "address",
          "name": "operator",
          "type": "address"
        }
      ],
      "name": "isApprovedForAll",
      "outputs": [
        {
          "internalType": "bool",
          "name": "",
          "type": "bool"
        }
      ],
      "stateMutability": "view",
      "type": "function"
    },
    {
      "inputs": [
        {
          "internalType": "uint256",
          "name": "",
          "type": "uint256"
        }
      ],
      "name": "loans",
      "outputs": [
        {
          "internalType": "address",
          "name": "loanCoordinator",
          "type": "address"
        },
        {
          "internalType": "uint256",
          "name": "loanId",
          "type": "uint256"
        }
      ],
      "stateMutability": "view",
      "type": "function"
    },
    {
      "inputs": [
        {
          "internalType": "address",
          "name": "_to",
          "type": "address"
        },
        {
          "internalType": "uint256",
          "name": "_tokenId",
          "type": "uint256"
        },
        {
          "internalType": "bytes",
          "name": "_data",
          "type": "bytes"
        }
      ],
      "name": "mint",
      "outputs": [],
      "stateMutability": "nonpayable",
      "type": "function"
    },
    {
      "inputs": [],
      "name": "name",
      "outputs": [
        {
          "internalType": "string",
          "name": "",
          "type": "string"
        }
      ],
      "stateMutability": "view",
      "type": "function"
    },
    {
      "inputs": [
        {
          "internalType": "uint256",
          "name": "tokenId",
          "type": "uint256"
        }
      ],
      "name": "ownerOf",
      "outputs": [
        {
          "internalType": "address",
          "name": "",
          "type": "address"
        }
      ],
      "stateMutability": "view",
      "type": "function"
    },
    {
      "inputs": [
        {
          "internalType": "bytes32",
          "name": "role",
          "type": "bytes32"
        },
        {
          "internalType": "address",
          "name": "account",
          "type": "address"
        }
      ],
      "name": "renounceRole",
      "outputs": [],
      "stateMutability": "nonpayable",
      "type": "function"
    },
    {
      "inputs": [
        {
          "internalType": "bytes32",
          "name": "role",
          "type": "bytes32"
        },
        {
          "internalType": "address",
          "name": "account",
          "type": "address"
        }
      ],
      "name": "revokeRole",
      "outputs": [],
      "stateMutability": "nonpayable",
      "type": "function"
    },
    {
      "inputs": [
        {
          "internalType": "address",
          "name": "from",
          "type": "address"
        },
        {
          "internalType": "address",
          "name": "to",
          "type": "address"
        },
        {
          "internalType": "uint256",
          "name": "tokenId",
          "type": "uint256"
        }
      ],
      "name": "safeTransferFrom",
      "outputs": [],
      "stateMutability": "nonpayable",
      "type": "function"
    },
    {
      "inputs": [
        {
          "internalType": "address",
          "name": "from",
          "type": "address"
        },
        {
          "internalType": "address",
          "name": "to",
          "type": "address"
        },
        {
          "internalType": "uint256",
          "name": "tokenId",
          "type": "uint256"
        },
        {
          "internalType": "bytes",
          "name": "_data",
          "type": "bytes"
        }
      ],
      "name": "safeTransferFrom",
      "outputs": [],
      "stateMutability": "nonpayable",
      "type": "function"
    },
    {
      "inputs": [
        {
          "internalType": "address",
          "name": "operator",
          "type": "address"
        },
        {
          "internalType": "bool",
          "name": "approved",
          "type": "bool"
        }
      ],
      "name": "setApprovalForAll",
      "outputs": [],
      "stateMutability": "nonpayable",
      "type": "function"
    },
    {
      "inputs": [
        {
          "internalType": "string",
          "name": "_customBaseURI",
          "type": "string"
        }
      ],
      "name": "setBaseURI",
      "outputs": [],
      "stateMutability": "nonpayable",
      "type": "function"
    },
    {
      "inputs": [
        {
          "internalType": "address",
          "name": "_account",
          "type": "address"
        }
      ],
      "name": "setLoanCoordinator",
      "outputs": [],
      "stateMutability": "nonpayable",
      "type": "function"
    },
    {
      "inputs": [
        {
          "internalType": "bytes4",
          "name": "_interfaceId",
          "type": "bytes4"
        }
      ],
      "name": "supportsInterface",
      "outputs": [
        {
          "internalType": "bool",
          "name": "",
          "type": "bool"
        }
      ],
      "stateMutability": "view",
      "type": "function"
    },
    {
      "inputs": [],
      "name": "symbol",
      "outputs": [
        {
          "internalType": "string",
          "name": "",
          "type": "string"
        }
      ],
      "stateMutability": "view",
      "type": "function"
    },
    {
      "inputs": [
        {
          "internalType": "uint256",
          "name": "tokenId",
          "type": "uint256"
        }
      ],
      "name": "tokenURI",
      "outputs": [
        {
          "internalType": "string",
          "name": "",
          "type": "string"
        }
      ],
      "stateMutability": "view",
      "type": "function"
    },
    {
      "inputs": [
        {
          "internalType": "address",
          "name": "from",
          "type": "address"
        },
        {
          "internalType": "address",
          "name": "to",
          "type": "address"
        },
        {
          "internalType": "uint256",
          "name": "tokenId",
          "type": "uint256"
        }
      ],
      "name": "transferFrom",
      "outputs": [],
      "stateMutability": "nonpayable",
      "type": "function"
    }
  ],
  "transactionHash": "0x972ccdaace63c2ff0e40c6b921a8d3269267a341654e4c3c00f37674a928de2b",
  "args": [
    "0xDcA17eeDc1aa3dbB14361678566b2dA5A1Bb4C31",
    "0x5165C6D1BaBD35B6c770140fea24dA3209f9Fa1d",
    "0xfe9B322632D85ccC5DEf0Cf3010a384d17C50582",
    "NFTfi Obligation Receipt",
    "ORNFI",
    "https://metadata.nftfi.com/loans/v2/obligation/"
  ],
  "numDeployments": 2,
  "solcInputHash": "e960dbb71492b307ed8580de393cc147",
  "bytecode": "0x60a06040523480156200001157600080fd5b50604051620026a1380380620026a183398101604081905262000034916200049e565b8251839083906200004d9060009060208501906200034c565b508051620000639060019060208401906200034c565b506200007591506000905087620000f3565b620000a17ff372640890c51dda497431936a65d3bb1ddf67b1c27cd6cdf578ce883c4f5c3687620000f3565b620000cd7f0152ff3abcd076e5909dae88c15988bc9c69e3f026f3af132517ce02b1e7920e85620000f3565b620000d88162000103565b5050505060601b6001600160601b03191660805250620006d5565b620000ff828262000173565b5050565b60008151116200012357604051806020016040528060008152506200015d565b806200013a466200021760201b62000c441760201c565b6040516020016200014d92919062000563565b6040516020818303038152906040525b8051620000ff916008916020909101906200034c565b60008281526006602090815260408083206001600160a01b038516845290915290205460ff16620000ff5760008281526006602090815260408083206001600160a01b03851684529091529020805460ff19166001179055620001d33390565b6001600160a01b0316816001600160a01b0316837f2f8788117e7eff1d82e926ec794901d17c78024a50270940304540a733656f0d60405160405180910390a45050565b6060816200023c5750506040805180820190915260018152600360fc1b602082015290565b8160005b81156200026c578062000253816200065e565b9150620002649050600a83620005bd565b915062000240565b6000816001600160401b038111156200029557634e487b7160e01b600052604160045260246000fd5b6040519080825280601f01601f191660200182016040528015620002c0576020820181803683370190505b5090505b84156200034457620002d8600183620005d4565b9150620002e7600a866200067c565b620002f4906030620005a2565b60f81b8183815181106200031857634e487b7160e01b600052603260045260246000fd5b60200101906001600160f81b031916908160001a9053506200033c600a86620005bd565b9450620002c4565b949350505050565b8280546200035a9062000621565b90600052602060002090601f0160209004810192826200037e5760008555620003c9565b82601f106200039957805160ff1916838001178555620003c9565b82800160010185558215620003c9579182015b82811115620003c9578251825591602001919060010190620003ac565b50620003d7929150620003db565b5090565b5b80821115620003d75760008155600101620003dc565b80516001600160a01b03811681146200040a57600080fd5b919050565b600082601f83011262000420578081fd5b81516001600160401b03808211156200043d576200043d620006bf565b604051601f8301601f19908116603f01168101908282118183101715620004685762000468620006bf565b8160405283815286602085880101111562000481578485fd5b62000494846020830160208901620005ee565b9695505050505050565b60008060008060008060c08789031215620004b7578182fd5b620004c287620003f2565b9550620004d260208801620003f2565b9450620004e260408801620003f2565b60608801519094506001600160401b0380821115620004ff578384fd5b6200050d8a838b016200040f565b9450608089015191508082111562000523578384fd5b620005318a838b016200040f565b935060a089015191508082111562000547578283fd5b506200055689828a016200040f565b9150509295509295509295565b6000835162000577818460208801620005ee565b8351908301906200058d818360208801620005ee565b602f60f81b9101908152600101949350505050565b60008219821115620005b857620005b862000693565b500190565b600082620005cf57620005cf620006a9565b500490565b600082821015620005e957620005e962000693565b500390565b60005b838110156200060b578181015183820152602001620005f1565b838111156200061b576000848401525b50505050565b600181811c908216806200063657607f821691505b602082108114156200065857634e487b7160e01b600052602260045260246000fd5b50919050565b600060001982141562000675576200067562000693565b5060010190565b6000826200068e576200068e620006a9565b500690565b634e487b7160e01b600052601160045260246000fd5b634e487b7160e01b600052601260045260246000fd5b634e487b7160e01b600052604160045260246000fd5b60805160601c611fad620006f460003960006102800152611fad6000f3fe608060405234801561001057600080fd5b506004361061018f5760003560e01c80636c0360eb116100e4578063b88d4fde11610092578063b88d4fde14610365578063bdadce3c14610378578063c87b56dd1461039f578063c9836cdb146103b2578063d2710e2c146103c7578063d547741f146103da578063e1ec3c68146103ed578063e985e9c51461043f57600080fd5b80636c0360eb1461030157806370a082311461030957806391d148541461031c57806394d008ef1461032f57806395d89b4114610342578063a217fddf1461034a578063a22cb4651461035257600080fd5b806336568abe1161014157806336568abe14610268578063365a86fc1461027b57806342842e0e146102a257806342966c68146102b55780634f558e79146102c857806355f804b3146102db5780636352211e146102ee57600080fd5b806301ffc9a71461019457806306fdde03146101bc578063081812fc146101d1578063095ea7b3146101fc57806323b872dd14610211578063248a9ca3146102245780632f2ff15d14610255575b600080fd5b6101a76101a2366004611b83565b610452565b60405190151581526020015b60405180910390f35b6101c4610463565b6040516101b39190611d43565b6101e46101df366004611b49565b6104f5565b6040516001600160a01b0390911681526020016101b3565b61020f61020a366004611a9e565b610582565b005b61020f61021f3660046119b0565b610693565b610247610232366004611b49565b60009081526006602052604090206001015490565b6040519081526020016101b3565b61020f610263366004611b61565b6106c4565b61020f610276366004611b61565b6106ea565b6101e47f000000000000000000000000000000000000000000000000000000000000000081565b61020f6102b03660046119b0565b610768565b61020f6102c3366004611b49565b610783565b6101a76102d6366004611b49565b6107c5565b61020f6102e9366004611bbb565b6107d0565b6101e46102fc366004611b49565b610804565b6101c461087b565b610247610317366004611964565b610909565b6101a761032a366004611b61565b610990565b61020f61033d366004611ac7565b6109bb565b6101c4610ab8565b610247600081565b61020f610360366004611a64565b610ac7565b61020f6103733660046119eb565b610ad2565b6102477ff372640890c51dda497431936a65d3bb1ddf67b1c27cd6cdf578ce883c4f5c3681565b6101c46103ad366004611b49565b610b0a565b610247600080516020611f8183398151915281565b61020f6103d5366004611964565b610bd5565b61020f6103e8366004611b61565b610bf0565b6104206103fb366004611b49565b600760205260009081526040902080546001909101546001600160a01b039091169082565b604080516001600160a01b0390931683526020830191909152016101b3565b6101a761044d36600461197e565b610c16565b600061045d82610d66565b92915050565b60606000805461047290611e9e565b80601f016020809104026020016040519081016040528092919081815260200182805461049e90611e9e565b80156104eb5780601f106104c0576101008083540402835291602001916104eb565b820191906000526020600020905b8154815290600101906020018083116104ce57829003601f168201915b5050505050905090565b600061050082610d8b565b6105665760405162461bcd60e51b815260206004820152602c60248201527f4552433732313a20617070726f76656420717565727920666f72206e6f6e657860448201526b34b9ba32b73a103a37b5b2b760a11b60648201526084015b60405180910390fd5b506000908152600460205260409020546001600160a01b031690565b600061058d82610804565b9050806001600160a01b0316836001600160a01b031614156105fb5760405162461bcd60e51b815260206004820152602160248201527f4552433732313a20617070726f76616c20746f2063757272656e74206f776e656044820152603960f91b606482015260840161055d565b336001600160a01b038216148061061757506106178133610c16565b6106845760405162461bcd60e51b815260206004820152603860248201527f4552433732313a20617070726f76652063616c6c6572206973206e6f74206f776044820152771b995c881b9bdc88185c1c1c9bdd995908199bdc88185b1b60421b606482015260840161055d565b61068e8383610da8565b505050565b61069d3382610e16565b6106b95760405162461bcd60e51b815260040161055d90611da8565b61068e838383610ed8565b6000828152600660205260409020600101546106e08133611062565b61068e83836110c6565b6001600160a01b038116331461075a5760405162461bcd60e51b815260206004820152602f60248201527f416363657373436f6e74726f6c3a2063616e206f6e6c792072656e6f756e636560448201526e103937b632b9903337b91039b2b63360891b606482015260840161055d565b610764828261114c565b5050565b61068e83838360405180602001604052806000815250610ad2565b600080516020611f8183398151915261079c8133611062565b600082815260076020526040812080546001600160a01b031916815560010155610764826111b3565b600061045d82610d8b565b7ff372640890c51dda497431936a65d3bb1ddf67b1c27cd6cdf578ce883c4f5c366107fb8133611062565b6107648261123c565b6000818152600260205260408120546001600160a01b03168061045d5760405162461bcd60e51b815260206004820152602960248201527f4552433732313a206f776e657220717565727920666f72206e6f6e657869737460448201526832b73a103a37b5b2b760b91b606482015260840161055d565b6008805461088890611e9e565b80601f01602080910402602001604051908101604052809291908181526020018280546108b490611e9e565b80156109015780601f106108d657610100808354040283529160200191610901565b820191906000526020600020905b8154815290600101906020018083116108e457829003601f168201915b505050505081565b60006001600160a01b0382166109745760405162461bcd60e51b815260206004820152602a60248201527f4552433732313a2062616c616e636520717565727920666f7220746865207a65604482015269726f206164647265737360b01b606482015260840161055d565b506001600160a01b031660009081526003602052604090205490565b60009182526006602090815260408084206001600160a01b0393909316845291905290205460ff1690565b600080516020611f818339815191526109d48133611062565b81610a1c5760405162461bcd60e51b815260206004820152601860248201527719185d18481b5d5cdd0818dbdb9d185a5b881b1bd85b925960421b604482015260640161055d565b6000610a2a83850185611b49565b604080518082018252338152602080820184815260008a815260078352849020925183546001600160a01b0319166001600160a01b03909116178355516001909201919091558151601f8701829004820281018201909252858252919250610ab09188918891889088908190840183828082843760009201919091525061129992505050565b505050505050565b60606001805461047290611e9e565b6107643383836112cc565b610adc3383610e16565b610af85760405162461bcd60e51b815260040161055d90611da8565b610b0484848484611397565b50505050565b6060610b1582610d8b565b610b795760405162461bcd60e51b815260206004820152602f60248201527f4552433732314d657461646174613a2055524920717565727920666f72206e6f60448201526e3732bc34b9ba32b73a103a37b5b2b760891b606482015260840161055d565b6000610b836113ca565b90506000815111610ba35760405180602001604052806000815250610bce565b80610bad84610c44565b604051602001610bbe929190611c2d565b6040516020818303038152906040525b9392505050565b610bed600080516020611f81833981519152826106c4565b50565b600082815260066020526040902060010154610c0c8133611062565b61068e838361114c565b6001600160a01b03918216600090815260056020908152604080832093909416825291909152205460ff1690565b606081610c685750506040805180820190915260018152600360fc1b602082015290565b8160005b8115610c925780610c7c81611ed9565b9150610c8b9050600a83611e11565b9150610c6c565b60008167ffffffffffffffff811115610cbb57634e487b7160e01b600052604160045260246000fd5b6040519080825280601f01601f191660200182016040528015610ce5576020820181803683370190505b5090505b8415610d5e57610cfa600183611e44565b9150610d07600a86611ef4565b610d12906030611df9565b60f81b818381518110610d3557634e487b7160e01b600052603260045260246000fd5b60200101906001600160f81b031916908160001a905350610d57600a86611e11565b9450610ce9565b949350505050565b60006001600160e01b03198216637965db0b60e01b148061045d575061045d826113d9565b6000908152600260205260409020546001600160a01b0316151590565b600081815260046020526040902080546001600160a01b0319166001600160a01b0384169081179091558190610ddd82610804565b6001600160a01b03167f8c5be1e5ebec7d5bd14f71427d1e84f3dd0314c0f7b2291e5b200ac8c7c3b92560405160405180910390a45050565b6000610e2182610d8b565b610e825760405162461bcd60e51b815260206004820152602c60248201527f4552433732313a206f70657261746f7220717565727920666f72206e6f6e657860448201526b34b9ba32b73a103a37b5b2b760a11b606482015260840161055d565b6000610e8d83610804565b9050806001600160a01b0316846001600160a01b03161480610ec85750836001600160a01b0316610ebd846104f5565b6001600160a01b0316145b80610d5e5750610d5e8185610c16565b826001600160a01b0316610eeb82610804565b6001600160a01b031614610f4f5760405162461bcd60e51b815260206004820152602560248201527f4552433732313a207472616e736665722066726f6d20696e636f72726563742060448201526437bbb732b960d91b606482015260840161055d565b6001600160a01b038216610fb15760405162461bcd60e51b8152602060048201526024808201527f4552433732313a207472616e7366657220746f20746865207a65726f206164646044820152637265737360e01b606482015260840161055d565b610fbc600082610da8565b6001600160a01b0383166000908152600360205260408120805460019290610fe5908490611e44565b90915550506001600160a01b0382166000908152600360205260408120805460019290611013908490611df9565b909155505060008181526002602052604080822080546001600160a01b0319166001600160a01b038681169182179092559151849391871691600080516020611f6183398151915291a4505050565b61106c8282610990565b61076457611084816001600160a01b03166014611429565b61108f836020611429565b6040516020016110a0929190611c97565b60408051601f198184030181529082905262461bcd60e51b825261055d91600401611d43565b6110d08282610990565b6107645760008281526006602090815260408083206001600160a01b03851684529091529020805460ff191660011790556111083390565b6001600160a01b0316816001600160a01b0316837f2f8788117e7eff1d82e926ec794901d17c78024a50270940304540a733656f0d60405160405180910390a45050565b6111568282610990565b156107645760008281526006602090815260408083206001600160a01b0385168085529252808320805460ff1916905551339285917ff6391f5c32d9c69d2a47ea670b442974b53935d1edc7fd64eb21e047a839171b9190a45050565b60006111be82610804565b90506111cb600083610da8565b6001600160a01b03811660009081526003602052604081208054600192906111f4908490611e44565b909155505060008281526002602052604080822080546001600160a01b0319169055518391906001600160a01b03841690600080516020611f61833981519152908390a45050565b600081511161125a5760405180602001604052806000815250611285565b8061126446610c44565b604051602001611275929190611c5c565b6040516020818303038152906040525b805161076491600891602090910190611839565b6112a3838361160b565b6112b0600084848461172c565b61068e5760405162461bcd60e51b815260040161055d90611d56565b816001600160a01b0316836001600160a01b0316141561132a5760405162461bcd60e51b815260206004820152601960248201527822a9219b99189d1030b8383937bb32903a379031b0b63632b960391b604482015260640161055d565b6001600160a01b03838116600081815260056020908152604080832094871680845294825291829020805460ff191686151590811790915591519182527f17307eab39ab6107e8899845ad3d59bd9653f200f220920489ca2b5937696c31910160405180910390a3505050565b6113a2848484610ed8565b6113ae8484848461172c565b610b045760405162461bcd60e51b815260040161055d90611d56565b60606008805461047290611e9e565b60006001600160e01b031982166380ac58cd60e01b148061140a57506001600160e01b03198216635b5e139f60e01b145b8061045d57506301ffc9a760e01b6001600160e01b031983161461045d565b60606000611438836002611e25565b611443906002611df9565b67ffffffffffffffff81111561146957634e487b7160e01b600052604160045260246000fd5b6040519080825280601f01601f191660200182016040528015611493576020820181803683370190505b509050600360fc1b816000815181106114bc57634e487b7160e01b600052603260045260246000fd5b60200101906001600160f81b031916908160001a905350600f60fb1b816001815181106114f957634e487b7160e01b600052603260045260246000fd5b60200101906001600160f81b031916908160001a905350600061151d846002611e25565b611528906001611df9565b90505b60018111156115bc576f181899199a1a9b1b9c1cb0b131b232b360811b85600f166010811061156a57634e487b7160e01b600052603260045260246000fd5b1a60f81b82828151811061158e57634e487b7160e01b600052603260045260246000fd5b60200101906001600160f81b031916908160001a90535060049490941c936115b581611e87565b905061152b565b508315610bce5760405162461bcd60e51b815260206004820181905260248201527f537472696e67733a20686578206c656e67746820696e73756666696369656e74604482015260640161055d565b6001600160a01b0382166116615760405162461bcd60e51b815260206004820181905260248201527f4552433732313a206d696e7420746f20746865207a65726f2061646472657373604482015260640161055d565b61166a81610d8b565b156116b75760405162461bcd60e51b815260206004820152601c60248201527f4552433732313a20746f6b656e20616c7265616479206d696e74656400000000604482015260640161055d565b6001600160a01b03821660009081526003602052604081208054600192906116e0908490611df9565b909155505060008181526002602052604080822080546001600160a01b0319166001600160a01b0386169081179091559051839290600080516020611f61833981519152908290a45050565b60006001600160a01b0384163b1561182e57604051630a85bd0160e11b81526001600160a01b0385169063150b7a0290611770903390899088908890600401611d06565b602060405180830381600087803b15801561178a57600080fd5b505af19250505080156117ba575060408051601f3d908101601f191682019092526117b791810190611b9f565b60015b611814573d8080156117e8576040519150601f19603f3d011682016040523d82523d6000602084013e6117ed565b606091505b50805161180c5760405162461bcd60e51b815260040161055d90611d56565b805181602001fd5b6001600160e01b031916630a85bd0160e11b149050610d5e565b506001949350505050565b82805461184590611e9e565b90600052602060002090601f01602090048101928261186757600085556118ad565b82601f1061188057805160ff19168380011785556118ad565b828001600101855582156118ad579182015b828111156118ad578251825591602001919060010190611892565b506118b99291506118bd565b5090565b5b808211156118b957600081556001016118be565b600067ffffffffffffffff808411156118ed576118ed611f34565b604051601f8501601f19908116603f0116810190828211818310171561191557611915611f34565b8160405280935085815286868601111561192e57600080fd5b858560208301376000602087830101525050509392505050565b80356001600160a01b038116811461195f57600080fd5b919050565b600060208284031215611975578081fd5b610bce82611948565b60008060408385031215611990578081fd5b61199983611948565b91506119a760208401611948565b90509250929050565b6000806000606084860312156119c4578081fd5b6119cd84611948565b92506119db60208501611948565b9150604084013590509250925092565b60008060008060808587031215611a00578081fd5b611a0985611948565b9350611a1760208601611948565b925060408501359150606085013567ffffffffffffffff811115611a39578182fd5b8501601f81018713611a49578182fd5b611a58878235602084016118d2565b91505092959194509250565b60008060408385031215611a76578182fd5b611a7f83611948565b915060208301358015158114611a93578182fd5b809150509250929050565b60008060408385031215611ab0578182fd5b611ab983611948565b946020939093013593505050565b60008060008060608587031215611adc578384fd5b611ae585611948565b935060208501359250604085013567ffffffffffffffff80821115611b08578384fd5b818701915087601f830112611b1b578384fd5b813581811115611b29578485fd5b886020828501011115611b3a578485fd5b95989497505060200194505050565b600060208284031215611b5a578081fd5b5035919050565b60008060408385031215611b73578182fd5b823591506119a760208401611948565b600060208284031215611b94578081fd5b8135610bce81611f4a565b600060208284031215611bb0578081fd5b8151610bce81611f4a565b600060208284031215611bcc578081fd5b813567ffffffffffffffff811115611be2578182fd5b8201601f81018413611bf2578182fd5b610d5e848235602084016118d2565b60008151808452611c19816020860160208601611e5b565b601f01601f19169290920160200192915050565b60008351611c3f818460208801611e5b565b835190830190611c53818360208801611e5b565b01949350505050565b60008351611c6e818460208801611e5b565b835190830190611c82818360208801611e5b565b602f60f81b9101908152600101949350505050565b76020b1b1b2b9b9a1b7b73a3937b61d1030b1b1b7bab73a1604d1b815260008351611cc9816017850160208801611e5b565b7001034b99036b4b9b9b4b733903937b6329607d1b6017918401918201528351611cfa816028840160208801611e5b565b01602801949350505050565b6001600160a01b0385811682528416602082015260408101839052608060608201819052600090611d3990830184611c01565b9695505050505050565b602081526000610bce6020830184611c01565b60208082526032908201527f4552433732313a207472616e7366657220746f206e6f6e20455243373231526560408201527131b2b4bb32b91034b6b83632b6b2b73a32b960711b606082015260800190565b60208082526031908201527f4552433732313a207472616e736665722063616c6c6572206973206e6f74206f6040820152701ddb995c881b9bdc88185c1c1c9bdd9959607a1b606082015260800190565b60008219821115611e0c57611e0c611f08565b500190565b600082611e2057611e20611f1e565b500490565b6000816000190483118215151615611e3f57611e3f611f08565b500290565b600082821015611e5657611e56611f08565b500390565b60005b83811015611e76578181015183820152602001611e5e565b83811115610b045750506000910152565b600081611e9657611e96611f08565b506000190190565b600181811c90821680611eb257607f821691505b60208210811415611ed357634e487b7160e01b600052602260045260246000fd5b50919050565b6000600019821415611eed57611eed611f08565b5060010190565b600082611f0357611f03611f1e565b500690565b634e487b7160e01b600052601160045260246000fd5b634e487b7160e01b600052601260045260246000fd5b634e487b7160e01b600052604160045260246000fd5b6001600160e01b031981168114610bed57600080fdfeddf252ad1be2c89b69c2b068fc378daa952ba7f163c4a11628f55a4df523b3ef0152ff3abcd076e5909dae88c15988bc9c69e3f026f3af132517ce02b1e7920ea164736f6c6343000804000a",
  "devdoc": {
    "author": "NFTfi",
    "details": "An ERC721 token which represents a very basic implementation of the NFTfi V2 SmartNFT.",
    "kind": "dev",
    "methods": {
      "approve(address,uint256)": {
        "details": "See {IERC721-approve}."
      },
      "balanceOf(address)": {
        "details": "See {IERC721-balanceOf}."
      },
      "burn(uint256)": {
        "details": "Burns `_tokenId` token. Requirements: - the caller must have `LOAN_COORDINATOR_ROLE` role."
      },
      "constructor": {
        "details": "Grants the contract the default admin role to `_admin`. Grants LOAN_COORDINATOR_ROLE to `_loanCoordinator`.",
        "params": {
          "_admin": "- Account to set as the admin of roles",
          "_customBaseURI": "- Base URI for the SmarNFT",
          "_loanCoordinator": "- Initial loan coordinator",
          "_name": "- Name for the SmarNFT",
          "_nftfiHub": "- Address of the NftfiHub contract",
          "_symbol": "- Symbol for the SmarNFT"
        }
      },
      "getApproved(uint256)": {
        "details": "See {IERC721-getApproved}."
      },
      "getRoleAdmin(bytes32)": {
        "details": "Returns the admin role that controls `role`. See {grantRole} and {revokeRole}. To change a role's admin, use {_setRoleAdmin}."
      },
      "grantRole(bytes32,address)": {
        "details": "Grants `role` to `account`. If `account` had not been already granted `role`, emits a {RoleGranted} event. Requirements: - the caller must have ``role``'s admin role."
      },
      "hasRole(bytes32,address)": {
        "details": "Returns `true` if `account` has been granted `role`."
      },
      "isApprovedForAll(address,address)": {
        "details": "See {IERC721-isApprovedForAll}."
      },
      "mint(address,uint256,bytes)": {
        "details": "Mints a new token with `_tokenId` and assigne to `_to`. Requirements: - the caller must have `LOAN_COORDINATOR_ROLE` role.",
        "params": {
          "_data": "Up to the first 32 bytes contains an integer which represents the loanId linked to the SmartNft",
          "_to": "The address reciving the SmartNft",
          "_tokenId": "The id of the new SmartNft"
        }
      },
      "name()": {
        "details": "See {IERC721Metadata-name}."
      },
      "ownerOf(uint256)": {
        "details": "See {IERC721-ownerOf}."
      },
      "renounceRole(bytes32,address)": {
        "details": "Revokes `role` from the calling account. Roles are often managed via {grantRole} and {revokeRole}: this function's purpose is to provide a mechanism for accounts to lose their privileges if they are compromised (such as when a trusted device is misplaced). If the calling account had been revoked `role`, emits a {RoleRevoked} event. Requirements: - the caller must be `account`."
      },
      "revokeRole(bytes32,address)": {
        "details": "Revokes `role` from `account`. If `account` had been granted `role`, emits a {RoleRevoked} event. Requirements: - the caller must have ``role``'s admin role."
      },
      "safeTransferFrom(address,address,uint256)": {
        "details": "See {IERC721-safeTransferFrom}."
      },
      "safeTransferFrom(address,address,uint256,bytes)": {
        "details": "See {IERC721-safeTransferFrom}."
      },
      "setApprovalForAll(address,bool)": {
        "details": "See {IERC721-setApprovalForAll}."
      },
      "setBaseURI(string)": {
        "details": "Sets baseURI.",
        "params": {
          "_customBaseURI": "- Base URI for the SmarNFT"
        }
      },
      "setLoanCoordinator(address)": {
        "details": "Grants LOAN_COORDINATOR_ROLE to `_account`. Requirements: - the caller must have ``role``'s admin role."
      },
      "supportsInterface(bytes4)": {
        "details": "See {IERC165-supportsInterface}."
      },
      "symbol()": {
        "details": "See {IERC721Metadata-symbol}."
      },
      "tokenURI(uint256)": {
        "details": "See {IERC721Metadata-tokenURI}."
      },
      "transferFrom(address,address,uint256)": {
        "details": "See {IERC721-transferFrom}."
      }
    },
    "title": "SmartNft",
    "version": 1
  },
  "userdoc": {
    "kind": "user",
    "methods": {},
    "version": 1
  },
  "storageLayout": {
    "storage": [
      {
        "astId": 3553,
        "contract": "contracts/smartNft/SmartNft.sol:SmartNft",
        "label": "_name",
        "offset": 0,
        "slot": "0",
        "type": "t_string_storage"
      },
      {
        "astId": 3555,
        "contract": "contracts/smartNft/SmartNft.sol:SmartNft",
        "label": "_symbol",
        "offset": 0,
        "slot": "1",
        "type": "t_string_storage"
      },
      {
        "astId": 3559,
        "contract": "contracts/smartNft/SmartNft.sol:SmartNft",
        "label": "_owners",
        "offset": 0,
        "slot": "2",
        "type": "t_mapping(t_uint256,t_address)"
      },
      {
        "astId": 3563,
        "contract": "contracts/smartNft/SmartNft.sol:SmartNft",
        "label": "_balances",
        "offset": 0,
        "slot": "3",
        "type": "t_mapping(t_address,t_uint256)"
      },
      {
        "astId": 3567,
        "contract": "contracts/smartNft/SmartNft.sol:SmartNft",
        "label": "_tokenApprovals",
        "offset": 0,
        "slot": "4",
        "type": "t_mapping(t_uint256,t_address)"
      },
      {
        "astId": 3573,
        "contract": "contracts/smartNft/SmartNft.sol:SmartNft",
        "label": "_operatorApprovals",
        "offset": 0,
        "slot": "5",
        "type": "t_mapping(t_address,t_mapping(t_address,t_bool))"
      },
      {
        "astId": 24,
        "contract": "contracts/smartNft/SmartNft.sol:SmartNft",
        "label": "_roles",
        "offset": 0,
        "slot": "6",
        "type": "t_mapping(t_bytes32,t_struct(RoleData)19_storage)"
      },
      {
        "astId": 18909,
        "contract": "contracts/smartNft/SmartNft.sol:SmartNft",
        "label": "loans",
        "offset": 0,
        "slot": "7",
        "type": "t_mapping(t_uint256,t_struct(Loan)18891_storage)"
      },
      {
        "astId": 18911,
        "contract": "contracts/smartNft/SmartNft.sol:SmartNft",
        "label": "baseURI",
        "offset": 0,
        "slot": "8",
        "type": "t_string_storage"
      }
    ],
    "types": {
      "t_address": {
        "encoding": "inplace",
        "label": "address",
        "numberOfBytes": "20"
      },
      "t_bool": {
        "encoding": "inplace",
        "label": "bool",
        "numberOfBytes": "1"
      },
      "t_bytes32": {
        "encoding": "inplace",
        "label": "bytes32",
        "numberOfBytes": "32"
      },
      "t_mapping(t_address,t_bool)": {
        "encoding": "mapping",
        "key": "t_address",
        "label": "mapping(address => bool)",
        "numberOfBytes": "32",
        "value": "t_bool"
      },
      "t_mapping(t_address,t_mapping(t_address,t_bool))": {
        "encoding": "mapping",
        "key": "t_address",
        "label": "mapping(address => mapping(address => bool))",
        "numberOfBytes": "32",
        "value": "t_mapping(t_address,t_bool)"
      },
      "t_mapping(t_address,t_uint256)": {
        "encoding": "mapping",
        "key": "t_address",
        "label": "mapping(address => uint256)",
        "numberOfBytes": "32",
        "value": "t_uint256"
      },
      "t_mapping(t_bytes32,t_struct(RoleData)19_storage)": {
        "encoding": "mapping",
        "key": "t_bytes32",
        "label": "mapping(bytes32 => struct AccessControl.RoleData)",
        "numberOfBytes": "32",
        "value": "t_struct(RoleData)19_storage"
      },
      "t_mapping(t_uint256,t_address)": {
        "encoding": "mapping",
        "key": "t_uint256",
        "label": "mapping(uint256 => address)",
        "numberOfBytes": "32",
        "value": "t_address"
      },
      "t_mapping(t_uint256,t_struct(Loan)18891_storage)": {
        "encoding": "mapping",
        "key": "t_uint256",
        "label": "mapping(uint256 => struct SmartNft.Loan)",
        "numberOfBytes": "32",
        "value": "t_struct(Loan)18891_storage"
      },
      "t_string_storage": {
        "encoding": "bytes",
        "label": "string",
        "numberOfBytes": "32"
      },
      "t_struct(Loan)18891_storage": {
        "encoding": "inplace",
        "label": "struct SmartNft.Loan",
        "members": [
          {
            "astId": 18888,
            "contract": "contracts/smartNft/SmartNft.sol:SmartNft",
            "label": "loanCoordinator",
            "offset": 0,
            "slot": "0",
            "type": "t_address"
          },
          {
            "astId": 18890,
            "contract": "contracts/smartNft/SmartNft.sol:SmartNft",
            "label": "loanId",
            "offset": 0,
            "slot": "1",
            "type": "t_uint256"
          }
        ],
        "numberOfBytes": "64"
      },
      "t_struct(RoleData)19_storage": {
        "encoding": "inplace",
        "label": "struct AccessControl.RoleData",
        "members": [
          {
            "astId": 16,
            "contract": "contracts/smartNft/SmartNft.sol:SmartNft",
            "label": "members",
            "offset": 0,
            "slot": "0",
            "type": "t_mapping(t_address,t_bool)"
          },
          {
            "astId": 18,
            "contract": "contracts/smartNft/SmartNft.sol:SmartNft",
            "label": "adminRole",
            "offset": 0,
            "slot": "1",
            "type": "t_bytes32"
          }
        ],
        "numberOfBytes": "64"
      },
      "t_uint256": {
        "encoding": "inplace",
        "label": "uint256",
        "numberOfBytes": "32"
      }
    }
  }
}