{
  "address": "0xa393276A24cb325eFE401fA059f9a7a198Fc35D3",
  "abi": [
    {
      "inputs": [
        {
          "internalType": "address",
          "name": "_admin",
          "type": "address"
        },
        {
          "internalType": "address[]",
          "name": "_airdopContracts",
          "type": "address[]"
        },
        {
          "internalType": "bytes4[]",
          "name": "_selectors",
          "type": "bytes4[]"
        }
      ],
      "stateMutability": "nonpayable",
      "type": "constructor"
    },
    {
      "anonymous": false,
      "inputs": [
        {
          "indexed": true,
          "internalType": "address",
          "name": "airdropContract",
          "type": "address"
        },
        {
          "indexed": true,
          "internalType": "bytes4",
          "name": "selector",
          "type": "bytes4"
        },
        {
          "indexed": false,
          "internalType": "bool",
          "name": "isPermitted",
          "type": "bool"
        }
      ],
      "name": "AirdropPermit",
      "type": "event"
    },
    {
      "anonymous": false,
      "inputs": [
        {
          "indexed": true,
          "internalType": "address",
          "name": "previousOwner",
          "type": "address"
        },
        {
          "indexed": true,
          "internalType": "address",
          "name": "newOwner",
          "type": "address"
        }
      ],
      "name": "OwnershipTransferred",
      "type": "event"
    },
    {
      "inputs": [
        {
          "internalType": "bytes",
          "name": "_addressSel",
          "type": "bytes"
        }
      ],
      "name": "isValidAirdrop",
      "outputs": [
        {
          "internalType": "bool",
          "name": "",
          "type": "bool"
        }
      ],
      "stateMutability": "view",
      "type": "function"
    },
    {
      "inputs": [],
      "name": "owner",
      "outputs": [
        {
          "internalType": "address",
          "name": "",
          "type": "address"
        }
      ],
      "stateMutability": "view",
      "type": "function"
    },
    {
      "inputs": [
        {
          "internalType": "address",
          "name": "_airdropContract",
          "type": "address"
        },
        {
          "internalType": "bytes4",
          "name": "_selector",
          "type": "bytes4"
        },
        {
          "internalType": "bool",
          "name": "_permit",
          "type": "bool"
        }
      ],
      "name": "setAirdroptPermit",
      "outputs": [],
      "stateMutability": "nonpayable",
      "type": "function"
    },
    {
      "inputs": [
        {
          "internalType": "address[]",
          "name": "_airdropContracts",
          "type": "address[]"
        },
        {
          "internalType": "bytes4[]",
          "name": "_selectors",
          "type": "bytes4[]"
        },
        {
          "internalType": "bool[]",
          "name": "_permits",
          "type": "bool[]"
        }
      ],
      "name": "setAirdroptPermits",
      "outputs": [],
      "stateMutability": "nonpayable",
      "type": "function"
    },
    {
      "inputs": [
        {
          "internalType": "address",
          "name": "_newOwner",
          "type": "address"
        }
      ],
      "name": "transferOwnership",
      "outputs": [],
      "stateMutability": "nonpayable",
      "type": "function"
    }
  ],
  "transactionHash": "0xa8a01826446e82e6e5e66c6b8006ddfeca022e7159c5975e71764ae68e0ff726",
  "args": [
    "0xDcA17eeDc1aa3dbB14361678566b2dA5A1Bb4C31",
    [],
    []
  ],
  "numDeployments": 2,
  "solcInputHash": "e960dbb71492b307ed8580de393cc147",
  "bytecode": "0x60806040523480156200001157600080fd5b5060405162000e3238038062000e32833981016040819052620000349162000383565b82620000408162000134565b508051825114620000a45760405162461bcd60e51b815260206004820152602360248201527f66756e6374696f6e20696e666f726d6174696f6e206172697479206d69736d616044820152620e8c6d60eb1b60648201526084015b60405180910390fd5b60005b82518110156200012a5762000115838281518110620000d657634e487b7160e01b600052603260045260246000fd5b6020026020010151838381518110620000ff57634e487b7160e01b600052603260045260246000fd5b602002602001015160016200018460201b60201c565b806200012181620004fd565b915050620000a7565b505050506200053b565b600080546001600160a01b038381166001600160a01b0319831681178455604051919092169283917f8be0079c531659141344cd1fd0a4f28419497f9722a3daafe3b4186f6b6457e09190a35050565b6001600160a01b038316620001dc5760405162461bcd60e51b815260206004820152601f60248201527f61697264726f70436f6e7472616374206973207a65726f20616464726573730060448201526064016200009b565b6001600160e01b03198216620002295760405162461bcd60e51b815260206004820152601160248201527073656c6563746f7220697320656d70747960781b60448201526064016200009b565b604080516001600160a01b03851660208201526001600160e01b031984168183015281518082038301815260609091019182905282916001916200026d9162000468565b90815260405160209181900382018120805460ff19169315159390931790925582151582526001600160e01b03198416916001600160a01b038616917f4fb5d66f0781b52e06572f05110768e37a4102e49da260e8b2726a46a1c8945d910160405180910390a3505050565b80516001600160a01b0381168114620002f157600080fd5b919050565b600082601f83011262000307578081fd5b81516020620003206200031a83620004d7565b620004a4565b80838252828201915082860187848660051b890101111562000340578586fd5b855b85811015620003765781516001600160e01b03198116811462000363578788fd5b8452928401929084019060010162000342565b5090979650505050505050565b60008060006060848603121562000398578283fd5b620003a384620002d9565b602085810151919450906001600160401b0380821115620003c2578485fd5b818701915087601f830112620003d6578485fd5b8151620003e76200031a82620004d7565b8082825285820191508585018b878560051b880101111562000407578889fd5b8895505b8386101562000434576200041f81620002d9565b8352600195909501949186019186016200040b565b5060408a015190975094505050808311156200044e578384fd5b50506200045e86828701620002f6565b9150509250925092565b60008251815b818110156200048a57602081860181015185830152016200046e565b81811115620004995782828501525b509190910192915050565b604051601f8201601f191681016001600160401b0381118282101715620004cf57620004cf62000525565b604052919050565b60006001600160401b03821115620004f357620004f362000525565b5060051b60200190565b60006000198214156200051e57634e487b7160e01b81526011600452602481fd5b5060010190565b634e487b7160e01b600052604160045260246000fd5b6108e7806200054b6000396000f3fe608060405234801561001057600080fd5b50600436106100575760003560e01c80636bf14bcc1461005c5780638da5cb5b14610071578063bcef622e14610091578063cf9cad94146100b4578063f2fde38b146100c7575b600080fd5b61006f61006a3660046105d1565b6100da565b005b6000546040516001600160a01b0390911681526020015b60405180910390f35b6100a461009f3660046106f7565b61011d565b6040519015158152602001610088565b61006f6100c2366004610613565b610148565b61006f6100d53660046105b0565b610258565b6000546001600160a01b0316331461010d5760405162461bcd60e51b815260040161010490610813565b60405180910390fd5b6101188383836102f3565b505050565b600060018260405161012f9190610784565b9081526040519081900360200190205460ff1692915050565b6000546001600160a01b031633146101725760405162461bcd60e51b815260040161010490610813565b81518351146101935760405162461bcd60e51b8152600401610104906107bd565b80518251146101b45760405162461bcd60e51b8152600401610104906107bd565b60005b8351811015610252576102408482815181106101e357634e487b7160e01b600052603260045260246000fd5b602002602001015184838151811061020b57634e487b7160e01b600052603260045260246000fd5b602002602001015184848151811061023357634e487b7160e01b600052603260045260246000fd5b60200260200101516102f3565b8061024a8161089d565b9150506101b7565b50505050565b6000546001600160a01b031633146102825760405162461bcd60e51b815260040161010490610813565b6001600160a01b0381166102e75760405162461bcd60e51b815260206004820152602660248201527f4f776e61626c653a206e6577206f776e657220697320746865207a65726f206160448201526564647265737360d01b6064820152608401610104565b6102f081610442565b50565b6001600160a01b0383166103495760405162461bcd60e51b815260206004820152601f60248201527f61697264726f70436f6e7472616374206973207a65726f2061646472657373006044820152606401610104565b6001600160e01b031982166103945760405162461bcd60e51b815260206004820152601160248201527073656c6563746f7220697320656d70747960781b6044820152606401610104565b604080516001600160a01b03851660208201526001600160e01b031984168183015281518082038301815260609091019182905282916001916103d691610784565b90815260405160209181900382018120805460ff19169315159390931790925582151582526001600160e01b03198416916001600160a01b038616917f4fb5d66f0781b52e06572f05110768e37a4102e49da260e8b2726a46a1c8945d910160405180910390a3505050565b600080546001600160a01b038381166001600160a01b0319831681178455604051919092169283917f8be0079c531659141344cd1fd0a4f28419497f9722a3daafe3b4186f6b6457e09190a35050565b80356001600160a01b03811681146104a957600080fd5b919050565b600082601f8301126104be578081fd5b813560206104d36104ce83610879565b610848565b80838252828201915082860187848660051b89010111156104f2578586fd5b855b858110156105175761050582610588565b845292840192908401906001016104f4565b5090979650505050505050565b600082601f830112610534578081fd5b813560206105446104ce83610879565b80838252828201915082860187848660051b8901011115610563578586fd5b855b858110156105175761057682610598565b84529284019290840190600101610565565b803580151581146104a957600080fd5b80356001600160e01b0319811681146104a957600080fd5b6000602082840312156105c1578081fd5b6105ca82610492565b9392505050565b6000806000606084860312156105e5578182fd5b6105ee84610492565b92506105fc60208501610598565b915061060a60408501610588565b90509250925092565b600080600060608486031215610627578283fd5b833567ffffffffffffffff8082111561063e578485fd5b818601915086601f830112610651578485fd5b813560206106616104ce83610879565b8083825282820191508286018b848660051b890101111561068057898afd5b8996505b848710156106a95761069581610492565b835260019690960195918301918301610684565b50975050870135925050808211156106bf578384fd5b6106cb87838801610524565b935060408601359150808211156106e0578283fd5b506106ed868287016104ae565b9150509250925092565b60006020808385031215610709578182fd5b823567ffffffffffffffff80821115610720578384fd5b818501915085601f830112610733578384fd5b813581811115610745576107456108c4565b610757601f8201601f19168501610848565b9150808252868482850101111561076c578485fd5b80848401858401378101909201929092529392505050565b60008251815b818110156107a4576020818601810151858301520161078a565b818111156107b25782828501525b509190910192915050565b60208082526036908201527f73657441697264726f70745065726d6974732066756e6374696f6e20696e666f6040820152750e4dac2e8d2dedc40c2e4d2e8f240dad2e6dac2e8c6d60531b606082015260800190565b6020808252818101527f4f776e61626c653a2063616c6c6572206973206e6f7420746865206f776e6572604082015260600190565b604051601f8201601f1916810167ffffffffffffffff81118282101715610871576108716108c4565b604052919050565b600067ffffffffffffffff821115610893576108936108c4565b5060051b60200190565b60006000198214156108bd57634e487b7160e01b81526011600452602481fd5b5060010190565b634e487b7160e01b600052604160045260246000fdfea164736f6c6343000804000a",
  "devdoc": {
    "author": "NFTfi",
    "details": "Registry for airdropa supported by NFTfi. Each Airdrop is associated with a boolean permit.",
    "events": {
      "AirdropPermit(address,bytes4,bool)": {
        "params": {
          "airdropContract": "- Address of the airdrop contract.",
          "isPermitted": "- Signals airdrop permit.",
          "selector": "- The selector of the permitted function in the `airdropContract`."
        }
      }
    },
    "kind": "dev",
    "methods": {
      "constructor": {
        "params": {
          "_admin": "- Initial admin of this contract.",
          "_airdopContracts": "- The batch of airdrop contract addresses initially permitted.",
          "_selectors": "- The batch of selector of the permitted functions for each `_airdopContracts`."
        }
      },
      "isValidAirdrop(bytes)": {
        "params": {
          "_addressSel": "- The address of the airdrop contract + function selector."
        },
        "returns": {
          "_0": "Returns whether the airdrop is permitted"
        }
      },
      "owner()": {
        "details": "Returns the address of the current owner."
      },
      "setAirdroptPermit(address,bytes4,bool)": {
        "params": {
          "_airdropContract": "- The address of airdrop contract whose permit list status changed.",
          "_permit": "- The new status of whether the airdrop is permitted or not.",
          "_selector": "- The selector of the permitted function whose permit list status changed."
        }
      },
      "setAirdroptPermits(address[],bytes4[],bool[])": {
        "params": {
          "_airdropContracts": "- The addresses of the airdrop contracts whose permit list status changed.",
          "_permits": "- The new statuses of whether the airdrop is permitted or not.",
          "_selectors": "- the selector of the permitted functions for each airdop whose permit list status changed."
        }
      },
      "transferOwnership(address)": {
        "details": "Transfers ownership of the contract to a new account (`newOwner`). Can only be called by the current owner."
      }
    },
    "title": "PermittedAirdrops",
    "version": 1
  },
  "userdoc": {
    "events": {
      "AirdropPermit(address,bytes4,bool)": {
        "notice": "This event is fired whenever the admin sets a ERC20 permit."
      }
    },
    "kind": "user",
    "methods": {
      "constructor": {
        "notice": "Initialize `airdropPermits` with a batch of permitted airdops"
      },
      "isValidAirdrop(bytes)": {
        "notice": "This function can be called by anyone to get the permit associated with the airdrop."
      },
      "setAirdroptPermit(address,bytes4,bool)": {
        "notice": "This function can be called by admins to change the permitted status of an airdrop. This includes both adding an airdrop to the permitted list and removing it."
      },
      "setAirdroptPermits(address[],bytes4[],bool[])": {
        "notice": "This function can be called by admins to change the permitted status of a batch of airdrops. This includes both adding an airdop to the permitted list and removing it."
      }
    },
    "version": 1
  },
  "storageLayout": {
    "storage": [
      {
        "astId": 21501,
        "contract": "contracts/permittedLists/PermittedAirdrops.sol:PermittedAirdrops",
        "label": "_owner",
        "offset": 0,
        "slot": "0",
        "type": "t_address"
      },
      {
        "astId": 17996,
        "contract": "contracts/permittedLists/PermittedAirdrops.sol:PermittedAirdrops",
        "label": "airdropPermits",
        "offset": 0,
        "slot": "1",
        "type": "t_mapping(t_bytes_memory_ptr,t_bool)"
      }
    ],
    "types": {
      "t_address": {
        "encoding": "inplace",
        "label": "address",
        "numberOfBytes": "20"
      },
      "t_bool": {
        "encoding": "inplace",
        "label": "bool",
        "numberOfBytes": "1"
      },
      "t_bytes_memory_ptr": {
        "encoding": "bytes",
        "label": "bytes",
        "numberOfBytes": "32"
      },
      "t_mapping(t_bytes_memory_ptr,t_bool)": {
        "encoding": "mapping",
        "key": "t_bytes_memory_ptr",
        "label": "mapping(bytes => bool)",
        "numberOfBytes": "32",
        "value": "t_bool"
      }
    }
  }
}