{
  "address": "0xE941D3988809A6BFdC28d504e8871EF936Ef6eB9",
  "abi": [
    {
      "inputs": [
        {
          "internalType": "address",
          "name": "_admin",
          "type": "address"
        }
      ],
      "stateMutability": "nonpayable",
      "type": "constructor"
    },
    {
      "anonymous": false,
      "inputs": [
        {
          "indexed": true,
          "internalType": "address",
          "name": "previousOwner",
          "type": "address"
        },
        {
          "indexed": true,
          "internalType": "address",
          "name": "newOwner",
          "type": "address"
        }
      ],
      "name": "OwnershipTransferred",
      "type": "event"
    },
    {
      "anonymous": false,
      "inputs": [
        {
          "indexed": true,
          "internalType": "address",
          "name": "partner",
          "type": "address"
        },
        {
          "indexed": false,
          "internalType": "uint16",
          "name": "revenueShareInBasisPoints",
          "type": "uint16"
        }
      ],
      "name": "PartnerRevenueShare",
      "type": "event"
    },
    {
      "inputs": [],
      "name": "HUNDRED_PERCENT",
      "outputs": [
        {
          "internalType": "uint256",
          "name": "",
          "type": "uint256"
        }
      ],
      "stateMutability": "view",
      "type": "function"
    },
    {
      "inputs": [
        {
          "internalType": "address",
          "name": "_partner",
          "type": "address"
        }
      ],
      "name": "getPartnerPermit",
      "outputs": [
        {
          "internalType": "uint16",
          "name": "",
          "type": "uint16"
        }
      ],
      "stateMutability": "view",
      "type": "function"
    },
    {
      "inputs": [],
      "name": "owner",
      "outputs": [
        {
          "internalType": "address",
          "name": "",
          "type": "address"
        }
      ],
      "stateMutability": "view",
      "type": "function"
    },
    {
      "inputs": [
        {
          "internalType": "address",
          "name": "_partner",
          "type": "address"
        },
        {
          "internalType": "uint16",
          "name": "_revenueShareInBasisPoints",
          "type": "uint16"
        }
      ],
      "name": "setPartnerRevenueShare",
      "outputs": [],
      "stateMutability": "nonpayable",
      "type": "function"
    },
    {
      "inputs": [
        {
          "internalType": "address",
          "name": "_newOwner",
          "type": "address"
        }
      ],
      "name": "transferOwnership",
      "outputs": [],
      "stateMutability": "nonpayable",
      "type": "function"
    }
  ],
  "transactionHash": "0xfffc34bd55f67a006b13a536b5c2b3f9b13c18d5a924509ad9af98e5e361d8e5",
  "args": [
    "0xDcA17eeDc1aa3dbB14361678566b2dA5A1Bb4C31"
  ],
  "numDeployments": 2,
  "solcInputHash": "e960dbb71492b307ed8580de393cc147",
  "bytecode": "0x608060405234801561001057600080fd5b506040516104a13803806104a183398101604081905261002f91610090565b8061003981610040565b50506100be565b600080546001600160a01b038381166001600160a01b0319831681178455604051919092169283917f8be0079c531659141344cd1fd0a4f28419497f9722a3daafe3b4186f6b6457e09190a35050565b6000602082840312156100a1578081fd5b81516001600160a01b03811681146100b7578182fd5b9392505050565b6103d4806100cd6000396000f3fe608060405234801561001057600080fd5b50600436106100575760003560e01c8063410ed2e51461005c5780636ed93dd0146100a15780638da5cb5b146100b857806392df8fe1146100d3578063f2fde38b146100e8575b600080fd5b61008961006a366004610335565b6001600160a01b031660009081526001602052604090205461ffff1690565b60405161ffff90911681526020015b60405180910390f35b6100aa61271081565b604051908152602001610098565b6000546040516001600160a01b039091168152602001610098565b6100e66100e1366004610356565b6100fb565b005b6100e66100f6366004610335565b61022e565b6000546001600160a01b0316331461012e5760405162461bcd60e51b815260040161012590610392565b60405180910390fd5b6001600160a01b03821661017e5760405162461bcd60e51b8152602060048201526017602482015276506172746e65722069732061646472657373207a65726f60481b6044820152606401610125565b6127108161ffff1611156101cc5760405162461bcd60e51b8152602060048201526015602482015274526576656e756520736861726520746f6f2062696760581b6044820152606401610125565b6001600160a01b038216600081815260016020908152604091829020805461ffff191661ffff861690811790915591519182527fd783e82274aa6b01921b08d2e05a8261d1c1fda099b201e77805f6e1f75279ab910160405180910390a25050565b6000546001600160a01b031633146102585760405162461bcd60e51b815260040161012590610392565b6001600160a01b0381166102bd5760405162461bcd60e51b815260206004820152602660248201527f4f776e61626c653a206e6577206f776e657220697320746865207a65726f206160448201526564647265737360d01b6064820152608401610125565b6102c6816102c9565b50565b600080546001600160a01b038381166001600160a01b0319831681178455604051919092169283917f8be0079c531659141344cd1fd0a4f28419497f9722a3daafe3b4186f6b6457e09190a35050565b80356001600160a01b038116811461033057600080fd5b919050565b600060208284031215610346578081fd5b61034f82610319565b9392505050565b60008060408385031215610368578081fd5b61037183610319565b9150602083013561ffff81168114610387578182fd5b809150509250929050565b6020808252818101527f4f776e61626c653a2063616c6c6572206973206e6f7420746865206f776e657260408201526060019056fea164736f6c6343000804000a",
  "devdoc": {
    "author": "NFTfi",
    "details": "Registry for partners permitted for reciving a revenue share. Each partner's address is associated with the percent of the admin fee shared.",
    "events": {
      "PartnerRevenueShare(address,uint16)": {
        "params": {
          "partner": "- The address of the partner.",
          "revenueShareInBasisPoints": "- The percent (measured in basis points) of the admin fee amount that will be taken as a revenue share for a the partner."
        }
      }
    },
    "kind": "dev",
    "methods": {
      "constructor": {
        "params": {
          "_admin": "- Initial admin of this contract."
        }
      },
      "getPartnerPermit(address)": {
        "params": {
          "_partner": "- The address of the partner."
        },
        "returns": {
          "_0": "Returns the partner's revenue share"
        }
      },
      "owner()": {
        "details": "Returns the address of the current owner."
      },
      "setPartnerRevenueShare(address,uint16)": {
        "params": {
          "_partner": "- The address of the partner.",
          "_revenueShareInBasisPoints": "- The percent (measured in basis points) of the admin fee amount that will be taken as a revenue share for a the partner."
        }
      },
      "transferOwnership(address)": {
        "details": "Transfers ownership of the contract to a new account (`newOwner`). Can only be called by the current owner."
      }
    },
    "title": "PermittedPartners",
    "version": 1
  },
  "userdoc": {
    "events": {
      "PartnerRevenueShare(address,uint16)": {
        "notice": "This event is fired whenever the admin sets a partner's revenue share."
      }
    },
    "kind": "user",
    "methods": {
      "constructor": {
        "notice": "Sets the admin of the contract."
      },
      "getPartnerPermit(address)": {
        "notice": "This function can be called by anyone to get the revenue share parcent associated with the partner."
      },
      "setPartnerRevenueShare(address,uint16)": {
        "notice": "This function can be called by admins to change the revenue share status of a partner. This includes adding an partner to the revenue share list, removing it and updating the revenue share percent."
      }
    },
    "version": 1
  },
  "storageLayout": {
    "storage": [
      {
        "astId": 21501,
        "contract": "contracts/permittedLists/PermittedPartners.sol:PermittedPartners",
        "label": "_owner",
        "offset": 0,
        "slot": "0",
        "type": "t_address"
      },
      {
        "astId": 18796,
        "contract": "contracts/permittedLists/PermittedPartners.sol:PermittedPartners",
        "label": "partnerRevenueShare",
        "offset": 0,
        "slot": "1",
        "type": "t_mapping(t_address,t_uint16)"
      }
    ],
    "types": {
      "t_address": {
        "encoding": "inplace",
        "label": "address",
        "numberOfBytes": "20"
      },
      "t_mapping(t_address,t_uint16)": {
        "encoding": "mapping",
        "key": "t_address",
        "label": "mapping(address => uint16)",
        "numberOfBytes": "32",
        "value": "t_uint16"
      },
      "t_uint16": {
        "encoding": "inplace",
        "label": "uint16",
        "numberOfBytes": "2"
      }
    }
  }
}