{
  "address": "0x0D48F2229320F6E8DC9239D72112ca2F5F139FF4",
  "abi": [
    {
      "inputs": [
        {
          "internalType": "address",
          "name": "_nftfiHub",
          "type": "address"
        },
        {
          "internalType": "bytes32",
          "name": "_loanCoordinatorKey",
          "type": "bytes32"
        }
      ],
      "stateMutability": "nonpayable",
      "type": "constructor"
    },
    {
      "inputs": [],
      "name": "LOAN_COORDINATOR",
      "outputs": [
        {
          "internalType": "bytes32",
          "name": "",
          "type": "bytes32"
        }
      ],
      "stateMutability": "view",
      "type": "function"
    },
    {
      "inputs": [
        {
          "internalType": "address",
          "name": "_tradeERC20",
          "type": "address"
        },
        {
          "internalType": "uint256",
          "name": "_nftId",
          "type": "uint256"
        },
        {
          "internalType": "uint256",
          "name": "_erc20Amount",
          "type": "uint256"
        },
        {
          "internalType": "address",
          "name": "_seller",
          "type": "address"
        },
        {
          "internalType": "uint256",
          "name": "_sellerNonce",
          "type": "uint256"
        },
        {
          "internalType": "uint256",
          "name": "_expiry",
          "type": "uint256"
        },
        {
          "internalType": "bytes",
          "name": "_sellerSignature",
          "type": "bytes"
        }
      ],
      "name": "buyObligationReceipt",
      "outputs": [],
      "stateMutability": "nonpayable",
      "type": "function"
    },
    {
      "inputs": [
        {
          "internalType": "address",
          "name": "_tradeERC20",
          "type": "address"
        },
        {
          "internalType": "uint256",
          "name": "_nftId",
          "type": "uint256"
        },
        {
          "internalType": "uint256",
          "name": "_erc20Amount",
          "type": "uint256"
        },
        {
          "internalType": "address",
          "name": "_seller",
          "type": "address"
        },
        {
          "internalType": "uint256",
          "name": "_sellerNonce",
          "type": "uint256"
        },
        {
          "internalType": "uint256",
          "name": "_expiry",
          "type": "uint256"
        },
        {
          "internalType": "bytes",
          "name": "_sellerSignature",
          "type": "bytes"
        }
      ],
      "name": "buyPromissoryNote",
      "outputs": [],
      "stateMutability": "nonpayable",
      "type": "function"
    },
    {
      "inputs": [
        {
          "internalType": "uint256",
          "name": "_nonce",
          "type": "uint256"
        }
      ],
      "name": "cancelTradeCommitment",
      "outputs": [],
      "stateMutability": "nonpayable",
      "type": "function"
    },
    {
      "inputs": [
        {
          "internalType": "address",
          "name": "_user",
          "type": "address"
        },
        {
          "internalType": "uint256",
          "name": "_nonce",
          "type": "uint256"
        }
      ],
      "name": "getNonceUsage",
      "outputs": [
        {
          "internalType": "bool",
          "name": "",
          "type": "bool"
        }
      ],
      "stateMutability": "view",
      "type": "function"
    },
    {
      "inputs": [],
      "name": "hub",
      "outputs": [
        {
          "internalType": "contract INftfiHub",
          "name": "",
          "type": "address"
        }
      ],
      "stateMutability": "view",
      "type": "function"
    },
    {
      "inputs": [
        {
          "internalType": "address",
          "name": "_tradeERC20",
          "type": "address"
        },
        {
          "internalType": "address",
          "name": "_tradeNft",
          "type": "address"
        },
        {
          "internalType": "uint256",
          "name": "_nftId",
          "type": "uint256"
        },
        {
          "internalType": "uint256",
          "name": "_erc20Amount",
          "type": "uint256"
        },
        {
          "internalType": "address",
          "name": "_accepter",
          "type": "address"
        },
        {
          "internalType": "uint256",
          "name": "_accepterNonce",
          "type": "uint256"
        },
        {
          "internalType": "uint256",
          "name": "_expiry",
          "type": "uint256"
        },
        {
          "internalType": "bytes",
          "name": "_accepterSignature",
          "type": "bytes"
        }
      ],
      "name": "isValidTradeSignature",
      "outputs": [
        {
          "internalType": "bool",
          "name": "",
          "type": "bool"
        }
      ],
      "stateMutability": "view",
      "type": "function"
    },
    {
      "inputs": [
        {
          "internalType": "address",
          "name": "_tradeERC20",
          "type": "address"
        },
        {
          "internalType": "uint256",
          "name": "_nftId",
          "type": "uint256"
        },
        {
          "internalType": "uint256",
          "name": "_erc20Amount",
          "type": "uint256"
        },
        {
          "internalType": "address",
          "name": "_buyer",
          "type": "address"
        },
        {
          "internalType": "uint256",
          "name": "_buyerNonce",
          "type": "uint256"
        },
        {
          "internalType": "uint256",
          "name": "_expiry",
          "type": "uint256"
        },
        {
          "internalType": "bytes",
          "name": "_buyerSignature",
          "type": "bytes"
        }
      ],
      "name": "sellObligationReceipt",
      "outputs": [],
      "stateMutability": "nonpayable",
      "type": "function"
    },
    {
      "inputs": [
        {
          "internalType": "address",
          "name": "_tradeERC20",
          "type": "address"
        },
        {
          "internalType": "uint256",
          "name": "_nftId",
          "type": "uint256"
        },
        {
          "internalType": "uint256",
          "name": "_erc20Amount",
          "type": "uint256"
        },
        {
          "internalType": "address",
          "name": "_buyer",
          "type": "address"
        },
        {
          "internalType": "uint256",
          "name": "_buyerNonce",
          "type": "uint256"
        },
        {
          "internalType": "uint256",
          "name": "_expiry",
          "type": "uint256"
        },
        {
          "internalType": "bytes",
          "name": "_buyerSignature",
          "type": "bytes"
        }
      ],
      "name": "sellPromissoryNote",
      "outputs": [],
      "stateMutability": "nonpayable",
      "type": "function"
    }
  ],
  "transactionHash": "0xb01ba95cfdb48dc1da37e1ea46ce0e79a3c168e37891ca0410c1363783235f4b",
  "args": [
    "0x5165C6D1BaBD35B6c770140fea24dA3209f9Fa1d",
    "0x4449524543545f4c4f414e5f434f4f5244494e41544f52000000000000000000"
  ],
  "numDeployments": 1,
  "solcInputHash": "e960dbb71492b307ed8580de393cc147",
  "bytecode": "0x60a060405234801561001057600080fd5b5060405161164838038061164883398101604081905261002f91610058565b600080546001600160a01b0319166001600160a01b039390931692909217909155608052610090565b6000806040838503121561006a578182fd5b82516001600160a01b0381168114610080578283fd5b6020939093015192949293505050565b6080516115816100c7600039600081816101080152818161038601528181610548015281816106ff01526108c501526115816000f3fe608060405234801561001057600080fd5b50600436106100835760003560e01c80632803ee16146100885780633388b81b146100b0578063365a86fc146100c5578063389ace0d146100f057806377cfa991146101035780639743274414610138578063c3754a271461014b578063d75dbe4914610184578063fdd5365714610197575b600080fd5b61009b610096366004611270565b6101aa565b60405190151581526020015b60405180910390f35b6100c36100be366004611335565b610301565b005b6000546100d8906001600160a01b031681565b6040516001600160a01b0390911681526020016100a7565b6100c36100fe366004611335565b6104c3565b61012a7f000000000000000000000000000000000000000000000000000000000000000081565b6040519081526020016100a7565b6100c3610146366004611335565b61067a565b61009b61015936600461130a565b6001600160a01b03919091166000908152600160209081526040808320938352929052205460ff1690565b6100c36101923660046113dc565b6107bd565b6100c36101a5366004611335565b610840565b6000824211156102015760405162461bcd60e51b815260206004820152601b60248201527f5472616465205369676e6174757265206861732065787069726564000000000060448201526064015b60405180910390fd5b6001600160a01b038516610217575060006102f5565b6040805160608b811b6bffffffffffffffffffffffff199081166020808501919091528c831b82166034850152604884018c9052606884018b90529189901b166088830152609c820187905260bc82018690524660dc808401919091528351808403909101815260fc830184528051908201207f19457468657265756d205369676e6564204d6573736167653a0a33320000000061011c8401526101388084018290528451808503909101815261015890930190935281519101206001600160a01b0387166102e68286610983565b6001600160a01b031614925050505b98975050505050505050565b6001600160a01b038416600090815260016020908152604080832086845290915290205460ff16156103455760405162461bcd60e51b81526004016101f890611467565b6001600160a01b038481166000908152600160208181526040808420888552909152808320805460ff191690921790915581549051631c2d8fb360e31b81527f000000000000000000000000000000000000000000000000000000000000000060048201529192169063e16c7d989060240160206040518083038186803b1580156103cf57600080fd5b505afa1580156103e3573d6000803e3d6000fd5b505050506040513d601f19601f820116820180604052508101906104079190611254565b90506000816001600160a01b0316634fbe68a06040518163ffffffff1660e01b815260040160206040518083038186803b15801561044457600080fd5b505afa158015610458573d6000803e3d6000fd5b505050506040513d601f19601f8201168201806040525081019061047c9190611254565b905061048e89828a8a8a8a8a8a6101aa565b6104aa5760405162461bcd60e51b81526004016101f8906114c2565b6104b889828a8a8a336109a7565b505050505050505050565b6001600160a01b038416600090815260016020908152604080832086845290915290205460ff16156105075760405162461bcd60e51b81526004016101f890611495565b6001600160a01b038481166000908152600160208181526040808420888552909152808320805460ff191690921790915581549051631c2d8fb360e31b81527f000000000000000000000000000000000000000000000000000000000000000060048201529192169063e16c7d989060240160206040518083038186803b15801561059157600080fd5b505afa1580156105a5573d6000803e3d6000fd5b505050506040513d601f19601f820116820180604052508101906105c99190611254565b90506000816001600160a01b0316634fbe68a06040518163ffffffff1660e01b815260040160206040518083038186803b15801561060657600080fd5b505afa15801561061a573d6000803e3d6000fd5b505050506040513d601f19601f8201168201806040525081019061063e9190611254565b905061065089828a8a8a8a8a8a6101aa565b61066c5760405162461bcd60e51b81526004016101f8906114c2565b6104b889828a8a338b6109a7565b6001600160a01b038416600090815260016020908152604080832086845290915290205460ff16156106be5760405162461bcd60e51b81526004016101f890611495565b6001600160a01b038481166000908152600160208181526040808420888552909152808320805460ff191690921790915581549051631c2d8fb360e31b81527f000000000000000000000000000000000000000000000000000000000000000060048201529192169063e16c7d989060240160206040518083038186803b15801561074857600080fd5b505afa15801561075c573d6000803e3d6000fd5b505050506040513d601f19601f820116820180604052508101906107809190611254565b90506000816001600160a01b0316638208e76c6040518163ffffffff1660e01b815260040160206040518083038186803b15801561060657600080fd5b33600090815260016020908152604080832084845290915290205460ff16156108185760405162461bcd60e51b815260206004820152600d60248201526c496e76616c6964206e6f6e636560981b60448201526064016101f8565b336000908152600160208181526040808420948452939052919020805460ff19169091179055565b6001600160a01b038416600090815260016020908152604080832086845290915290205460ff16156108845760405162461bcd60e51b81526004016101f890611467565b6001600160a01b038481166000908152600160208181526040808420888552909152808320805460ff191690921790915581549051631c2d8fb360e31b81527f000000000000000000000000000000000000000000000000000000000000000060048201529192169063e16c7d989060240160206040518083038186803b15801561090e57600080fd5b505afa158015610922573d6000803e3d6000fd5b505050506040513d601f19601f820116820180604052508101906109469190611254565b90506000816001600160a01b0316638208e76c6040518163ffffffff1660e01b815260040160206040518083038186803b15801561044457600080fd5b60008060006109928585610b8a565b9150915061099f81610bfa565b509392505050565b600054604051631c2d8fb360e31b81526f5045524d49545445445f45524332305360801b60048201526001600160a01b039091169063e16c7d989060240160206040518083038186803b1580156109fd57600080fd5b505afa158015610a11573d6000803e3d6000fd5b505050506040513d601f19601f82011682018060405250810190610a359190611254565b60405163439439df60e11b81526001600160a01b038881166004830152919091169063872873be9060240160206040518083038186803b158015610a7857600080fd5b505afa158015610a8c573d6000803e3d6000fd5b505050506040513d601f19601f82011682018060405250810190610ab091906113bc565b610b0b5760405162461bcd60e51b815260206004820152602660248201527f43757272656e63792064656e6f6d696e6174696f6e206973206e6f74207065726044820152651b5a5d1d195960d21b60648201526084016101f8565b610b206001600160a01b038716828486610df9565b604051632142170760e11b81526001600160a01b038616906342842e0e90610b5090859085908990600401611410565b600060405180830381600087803b158015610b6a57600080fd5b505af1158015610b7e573d6000803e3d6000fd5b50505050505050505050565b600080825160411415610bc15760208301516040840151606085015160001a610bb587828585610e57565b94509450505050610bf3565b825160401415610beb5760208301516040840151610be0868383610f3a565b935093505050610bf3565b506000905060025b9250929050565b6000816004811115610c1c57634e487b7160e01b600052602160045260246000fd5b1415610c255750565b6001816004811115610c4757634e487b7160e01b600052602160045260246000fd5b1415610c905760405162461bcd60e51b815260206004820152601860248201527745434453413a20696e76616c6964207369676e617475726560401b60448201526064016101f8565b6002816004811115610cb257634e487b7160e01b600052602160045260246000fd5b1415610d005760405162461bcd60e51b815260206004820152601f60248201527f45434453413a20696e76616c6964207369676e6174757265206c656e6774680060448201526064016101f8565b6003816004811115610d2257634e487b7160e01b600052602160045260246000fd5b1415610d7b5760405162461bcd60e51b815260206004820152602260248201527f45434453413a20696e76616c6964207369676e6174757265202773272076616c604482015261756560f01b60648201526084016101f8565b6004816004811115610d9d57634e487b7160e01b600052602160045260246000fd5b1415610df65760405162461bcd60e51b815260206004820152602260248201527f45434453413a20696e76616c6964207369676e6174757265202776272076616c604482015261756560f01b60648201526084016101f8565b50565b610e51846323b872dd60e01b858585604051602401610e1a93929190611410565b60408051601f198184030181529190526020810180516001600160e01b03166001600160e01b031990931692909217909152610f73565b50505050565b6000806fa2a8918ca85bafe22016d0b997e4df60600160ff1b03831115610e845750600090506003610f31565b8460ff16601b14158015610e9c57508460ff16601c14155b15610ead5750600090506004610f31565b6040805160008082526020820180845289905260ff881692820192909252606081018690526080810185905260019060a0016020604051602081039080840390855afa158015610f01573d6000803e3d6000fd5b5050604051601f1901519150506001600160a01b038116610f2a57600060019250925050610f31565b9150600090505b94509492505050565b6000806001600160ff1b03831681610f5760ff86901c601b6114f9565b9050610f6587828885610e57565b935093505050935093915050565b6000610fc8826040518060400160405280602081526020017f5361666545524332303a206c6f772d6c6576656c2063616c6c206661696c6564815250856001600160a01b031661104a9092919063ffffffff16565b8051909150156110455780806020019051810190610fe691906113bc565b6110455760405162461bcd60e51b815260206004820152602a60248201527f5361666545524332303a204552433230206f7065726174696f6e20646964206e6044820152691bdd081cdd58d8d9595960b21b60648201526084016101f8565b505050565b60606110598484600085611063565b90505b9392505050565b6060824710156110c45760405162461bcd60e51b815260206004820152602660248201527f416464726573733a20696e73756666696369656e742062616c616e636520666f6044820152651c8818d85b1b60d21b60648201526084016101f8565b6001600160a01b0385163b61111b5760405162461bcd60e51b815260206004820152601d60248201527f416464726573733a2063616c6c20746f206e6f6e2d636f6e747261637400000060448201526064016101f8565b600080866001600160a01b0316858760405161113791906113f4565b60006040518083038185875af1925050503d8060008114611174576040519150601f19603f3d011682016040523d82523d6000602084013e611179565b606091505b5091509150611189828286611194565b979650505050505050565b606083156111a357508161105c565b8251156111b35782518084602001fd5b8160405162461bcd60e51b81526004016101f89190611434565b600082601f8301126111dd578081fd5b813567ffffffffffffffff808211156111f8576111f8611549565b604051601f8301601f19908116603f0116810190828211818310171561122057611220611549565b81604052838152866020858801011115611238578485fd5b8360208701602083013792830160200193909352509392505050565b600060208284031215611265578081fd5b815161105c8161155f565b600080600080600080600080610100898b03121561128c578384fd5b88356112978161155f565b975060208901356112a78161155f565b9650604089013595506060890135945060808901356112c58161155f565b935060a0890135925060c0890135915060e089013567ffffffffffffffff8111156112ee578182fd5b6112fa8b828c016111cd565b9150509295985092959890939650565b6000806040838503121561131c578182fd5b82356113278161155f565b946020939093013593505050565b600080600080600080600060e0888a03121561134f578283fd5b873561135a8161155f565b9650602088013595506040880135945060608801356113788161155f565b93506080880135925060a0880135915060c088013567ffffffffffffffff8111156113a1578182fd5b6113ad8a828b016111cd565b91505092959891949750929550565b6000602082840312156113cd578081fd5b8151801515811461105c578182fd5b6000602082840312156113ed578081fd5b5035919050565b6000825161140681846020870161151d565b9190910192915050565b6001600160a01b039384168152919092166020820152604081019190915260600190565b602081526000825180602084015261145381604085016020870161151d565b601f01601f19169190910160400192915050565b60208082526014908201527314d95b1b195c881b9bdb98d9481a5b9d985b1a5960621b604082015260600190565b602080825260139082015272109d5e595c881b9bdb98d9481a5b9d985b1a59606a1b604082015260600190565b6020808252601a908201527f5472616465207369676e617475726520697320696e76616c6964000000000000604082015260600190565b6000821982111561151857634e487b7160e01b81526011600452602481fd5b500190565b60005b83811015611538578181015183820152602001611520565b83811115610e515750506000910152565b634e487b7160e01b600052604160045260246000fd5b6001600160a01b0381168114610df657600080fdfea164736f6c6343000804000a",
  "devdoc": {
    "kind": "dev",
    "methods": {
      "cancelTradeCommitment(uint256)": {
        "params": {
          "_nonce": "- User nonce"
        }
      },
      "getNonceUsage(address,uint256)": {
        "params": {
          "_nonce": "- The nonce referred to here is not the same as an Ethereum account's nonce. We are referring instead to nonces that are used by both the lender and the borrower when they are first signing off-chain NFTfi orders. These nonces can be any uint256 value that the user has not previously used to sign an off-chain order. Each nonce can be used at most once per user within NFTfi, regardless of whether they are the lender or the borrower in that situation. This serves two purposes: - First, it prevents replay attacks where an attacker would submit a user's off-chain order more than once. - Second, it allows a user to cancel an off-chain order by calling NFTfi.cancelTradeCommitment() , which marks the nonce as used and prevents any future trade from using the user's off-chain order that contains that nonce.",
          "_user": "- The address of the user. This function works for both lenders and borrowers alike."
        },
        "returns": {
          "_0": "A bool representing whether or not this nonce has been used for this user."
        }
      },
      "isValidTradeSignature(address,address,uint256,uint256,address,uint256,uint256,bytes)": {
        "params": {
          "_accepter": "- address of the user accepting the proposed trade, they have created the off-chain signature",
          "_accepterNonce": "- The nonce referred to here is not the same as an Ethereum account's nonce. We are referring instead to nonces that are used by both the lender and the borrower when they are first signing off-chain NFTfi orders. These nonces can be any uint256 value that the user has not previously used to sign an off-chain order. Each nonce can be used at most once per user within NFTfi, regardless of whether they are the lender or the borrower in that situation. This serves two purposes: - First, it prevents replay attacks where an attacker would submit a user's off-chain order more than once. - Second, it allows a user to cancel an off-chain order by calling NFTfi.cancelTradeCommitment() , which marks the nonce as used and prevents any future trade from using the user's off-chain order that contains that nonce.",
          "_accepterSignature": "- The ECDSA signature of the trade initiator, obtained off-chain ahead of time, signing the following combination of parameters: - tradeERC20, - tradeLoanNft, - loanNftId, - erc20Amount, - initiator, - accepter, - initiatorNonce, - expiry, - chainId",
          "_erc20Amount": "- amount of payment price in erc20 for the loanNFT",
          "_expiry": "- The date when the trade offer expires",
          "_nftId": "- ID of the loanNFT to be tradeped",
          "_tradeERC20": "- Contract address for the token denomination of the erc20 side of the trade, can only be a premitted erc20 token",
          "_tradeNft": "- Contract address for the loanNFT side of the trade, can only be the 'promissory note' or the 'obligation receipt' of the used loan coordinator"
        }
      }
    },
    "version": 1
  },
  "userdoc": {
    "kind": "user",
    "methods": {
      "buyObligationReceipt(address,uint256,uint256,address,uint256,uint256,bytes)": {
        "notice": "trade initiator buys obligation receipt of the accepter Activates an off chain proposed ERC20-loanNFT token trade, works very much like the loan offer acceptal both parties have to approve the token allowances for the trade contract before calling this function parameters: see trade()"
      },
      "buyPromissoryNote(address,uint256,uint256,address,uint256,uint256,bytes)": {
        "notice": "trade initiator buys promissory note of the accepter Activates an off chain proposed ERC20-loanNFT token trade, works very much like the loan offer acceptal both parties have to approve the token allowances for the trade contract before calling this function parameters: see trade()"
      },
      "cancelTradeCommitment(uint256)": {
        "notice": "This function can be called by the initiator to cancel all off-chain orders that they have signed that contain this nonce. If the off-chain orders were created correctly, there should only be one off-chain order that contains this nonce at all. The nonce referred to here is not the same as an Ethereum account's nonce. We are referring instead to nonces that are used by both the lender and the borrower when they are first signing off-chain NFTfi orders. These nonces can be any uint256 value that the user has not previously used to sign an off-chain order. Each nonce can be used at most once per user within NFTfi, regardless of whether they are the lender or the borrower in that situation. This serves two purposes. First, it prevents replay attacks where an attacker would submit a user's off-chain order more than once. Second, it allows a user to cancel an off-chain order by calling NFTfi.cancelTradeCommitment(), which marks the nonce as used and prevents any future trade from using the user's off-chain order that contains that nonce."
      },
      "getNonceUsage(address,uint256)": {
        "notice": "This function can be used to view whether a particular nonce for a particular user has already been used, either from a successful trade or a cancelled off-chain order."
      },
      "isValidTradeSignature(address,address,uint256,uint256,address,uint256,uint256,bytes)": {
        "notice": "This function is called in trade()to validate the trade initiator's signature that the lender has provided off-chain to verify that they did indeed want to agree to this loan renegotiation according to these terms."
      },
      "sellObligationReceipt(address,uint256,uint256,address,uint256,uint256,bytes)": {
        "notice": "trade initiator sells their obligation receipt to the accepter Activates an off chain proposed ERC20-loanNFT token trade, works very much like the loan offer acceptal both parties have to approve the token allowances for the trade contract before calling this function parameters: see trade()"
      },
      "sellPromissoryNote(address,uint256,uint256,address,uint256,uint256,bytes)": {
        "notice": "trade initiator sells their promissory note to the accepter Activates an off chain proposed ERC20-loanNFT token trade, works very much like the loan offer acceptal both parties have to approve the token allowances for the trade contract before calling this function parameters: see trade()"
      }
    },
    "version": 1
  },
  "storageLayout": {
    "storage": [
      {
        "astId": 21605,
        "contract": "contracts/utils/TokenTrade.sol:TokenTrade",
        "label": "hub",
        "offset": 0,
        "slot": "0",
        "type": "t_contract(INftfiHub)14051"
      },
      {
        "astId": 21632,
        "contract": "contracts/utils/TokenTrade.sol:TokenTrade",
        "label": "_nonceHasBeenUsedForUser",
        "offset": 0,
        "slot": "1",
        "type": "t_mapping(t_address,t_mapping(t_uint256,t_bool))"
      }
    ],
    "types": {
      "t_address": {
        "encoding": "inplace",
        "label": "address",
        "numberOfBytes": "20"
      },
      "t_bool": {
        "encoding": "inplace",
        "label": "bool",
        "numberOfBytes": "1"
      },
      "t_contract(INftfiHub)14051": {
        "encoding": "inplace",
        "label": "contract INftfiHub",
        "numberOfBytes": "20"
      },
      "t_mapping(t_address,t_mapping(t_uint256,t_bool))": {
        "encoding": "mapping",
        "key": "t_address",
        "label": "mapping(address => mapping(uint256 => bool))",
        "numberOfBytes": "32",
        "value": "t_mapping(t_uint256,t_bool)"
      },
      "t_mapping(t_uint256,t_bool)": {
        "encoding": "mapping",
        "key": "t_uint256",
        "label": "mapping(uint256 => bool)",
        "numberOfBytes": "32",
        "value": "t_bool"
      },
      "t_uint256": {
        "encoding": "inplace",
        "label": "uint256",
        "numberOfBytes": "32"
      }
    }
  }
}