{
  "address": "0x30FBa6cE5499EC0A3400BCD3c3c70dAB29A95C16",
  "abi": [
    {
      "inputs": [
        {
          "internalType": "address",
          "name": "_admin",
          "type": "address"
        },
        {
          "internalType": "address",
          "name": "_nftfiHub",
          "type": "address"
        }
      ],
      "stateMutability": "nonpayable",
      "type": "constructor"
    },
    {
      "anonymous": false,
      "inputs": [
        {
          "indexed": true,
          "internalType": "address",
          "name": "instance",
          "type": "address"
        },
        {
          "indexed": true,
          "internalType": "uint256",
          "name": "receiverId",
          "type": "uint256"
        },
        {
          "indexed": true,
          "internalType": "address",
          "name": "owner",
          "type": "address"
        },
        {
          "indexed": false,
          "internalType": "address",
          "name": "creator",
          "type": "address"
        }
      ],
      "name": "AirdropReceiverCreated",
      "type": "event"
    },
    {
      "anonymous": false,
      "inputs": [
        {
          "indexed": true,
          "internalType": "address",
          "name": "previousOwner",
          "type": "address"
        },
        {
          "indexed": true,
          "internalType": "address",
          "name": "newOwner",
          "type": "address"
        }
      ],
      "name": "OwnershipTransferred",
      "type": "event"
    },
    {
      "inputs": [
        {
          "internalType": "address",
          "name": "_to",
          "type": "address"
        }
      ],
      "name": "createAirdropReceiver",
      "outputs": [
        {
          "internalType": "address",
          "name": "",
          "type": "address"
        },
        {
          "internalType": "uint256",
          "name": "",
          "type": "uint256"
        }
      ],
      "stateMutability": "nonpayable",
      "type": "function"
    },
    {
      "inputs": [],
      "name": "hub",
      "outputs": [
        {
          "internalType": "contract INftfiHub",
          "name": "",
          "type": "address"
        }
      ],
      "stateMutability": "view",
      "type": "function"
    },
    {
      "inputs": [],
      "name": "owner",
      "outputs": [
        {
          "internalType": "address",
          "name": "",
          "type": "address"
        }
      ],
      "stateMutability": "view",
      "type": "function"
    },
    {
      "inputs": [
        {
          "internalType": "address",
          "name": "_newOwner",
          "type": "address"
        }
      ],
      "name": "transferOwnership",
      "outputs": [],
      "stateMutability": "nonpayable",
      "type": "function"
    }
  ],
  "transactionHash": "0x446dc6ccfc66038e4ceea42e4b74e4f33f3c4aa8001fcb9a28b63d185a0bd6e2",
  "args": [
    "0x42e0911810C50FF07B12305365495aeb0b2b4f93",
    "0xAbbe8e4C7cd7428E667400114fdfDD8B26Ed5138"
  ],
  "numDeployments": 1,
  "solcInputHash": "32dd1857130027c4619df8c447073dac",
  "bytecode": "0x60a060405234801561001057600080fd5b5060405161077338038061077383398101604081905261002f916100bc565b8161003981610050565b5060601b6001600160601b031916608052506100ee565b600080546001600160a01b038381166001600160a01b0319831681178455604051919092169283917f8be0079c531659141344cd1fd0a4f28419497f9722a3daafe3b4186f6b6457e09190a35050565b80516001600160a01b03811681146100b757600080fd5b919050565b600080604083850312156100ce578182fd5b6100d7836100a0565b91506100e5602084016100a0565b90509250929050565b60805160601c61065a610119600039600081816056015281816101ed015261031f015261065a6000f3fe608060405234801561001057600080fd5b506004361061004c5760003560e01c8063365a86fc146100515780638da5cb5b1461008e578063f2fde38b1461009f578063f4a543f2146100b4575b600080fd5b6100787f000000000000000000000000000000000000000000000000000000000000000081565b60405161008591906105c1565b60405180910390f35b6000546001600160a01b0316610078565b6100b26100ad36600461056a565b6100e6565b005b6100c76100c236600461056a565b6101b6565b604080516001600160a01b039093168352602083019190915201610085565b6000546001600160a01b031633146101455760405162461bcd60e51b815260206004820181905260248201527f4f776e61626c653a2063616c6c6572206973206e6f7420746865206f776e657260448201526064015b60405180910390fd5b6001600160a01b0381166101aa5760405162461bcd60e51b815260206004820152602660248201527f4f776e61626c653a206e6577206f776e657220697320746865207a65726f206160448201526564647265737360d01b606482015260840161013c565b6101b38161047d565b50565b604051631c2d8fb360e31b81526f20a4a9222927a82fa922a1a2a4ab22a960811b6004820152600090819081906001600160a01b037f0000000000000000000000000000000000000000000000000000000000000000169063e16c7d989060240160206040518083038186803b15801561022f57600080fd5b505afa158015610243573d6000803e3d6000fd5b505050506040513d601f19601f82011682018060405250810190610267919061058d565b90506000610274826104cd565b90506000816001600160a01b031663c4d66de8876040518263ffffffff1660e01b81526004016102a491906105c1565b602060405180830381600087803b1580156102be57600080fd5b505af11580156102d2573d6000803e3d6000fd5b505050506040513d601f19601f820116820180604052508101906102f691906105a9565b604051631c2d8fb360e31b81526d5045524d49545445445f4e46545360901b60048201529091507f00000000000000000000000000000000000000000000000000000000000000006001600160a01b03169063e16c7d989060240160206040518083038186803b15801561036957600080fd5b505afa15801561037d573d6000803e3d6000fd5b505050506040513d601f19601f820116820180604052508101906103a1919061058d565b6001600160a01b031663c88641a2836040518060400160405280600e81526020016d20b4b9323937b82bb930b83832b960911b8152506040518363ffffffff1660e01b81526004016103f49291906105d5565b600060405180830381600087803b15801561040e57600080fd5b505af1158015610422573d6000803e3d6000fd5b50505050856001600160a01b031681836001600160a01b03167f69797d45ae1640a98df6764530beb2ff4d830fd31844bdd6fa2f13f417d16d7e3360405161046a91906105c1565b60405180910390a4909590945092505050565b600080546001600160a01b038381166001600160a01b0319831681178455604051919092169283917f8be0079c531659141344cd1fd0a4f28419497f9722a3daafe3b4186f6b6457e09190a35050565b6000604051733d602d80600a3d3981f3363d3d373d3d3d363d7360601b81528260601b60148201526e5af43d82803e903d91602b57fd5bf360881b60288201526037816000f09150506001600160a01b0381166105655760405162461bcd60e51b8152602060048201526016602482015275115490cc4c4d8dce8818dc99585d194819985a5b195960521b604482015260640161013c565b919050565b60006020828403121561057b578081fd5b813561058681610638565b9392505050565b60006020828403121561059e578081fd5b815161058681610638565b6000602082840312156105ba578081fd5b5051919050565b6001600160a01b0391909116815260200190565b60018060a01b0383168152600060206040818401528351806040850152825b81811015610610578581018301518582016060015282016105f4565b818111156106215783606083870101525b50601f01601f191692909201606001949350505050565b6001600160a01b03811681146101b357600080fdfea164736f6c6343000804000a",
  "devdoc": {
    "author": "NFTfi",
    "kind": "dev",
    "methods": {
      "owner()": {
        "details": "Returns the address of the current owner."
      },
      "transferOwnership(address)": {
        "details": "Transfers ownership of the contract to a new account (`newOwner`). Can only be called by the current owner."
      }
    },
    "title": "AirdropReceiver",
    "version": 1
  },
  "userdoc": {
    "kind": "user",
    "methods": {},
    "version": 1
  },
  "storageLayout": {
    "storage": [
      {
        "astId": 24747,
        "contract": "contracts/airdrop/AirdropReceiverFactory.sol:AirdropReceiverFactory",
        "label": "_owner",
        "offset": 0,
        "slot": "0",
        "type": "t_address"
      }
    ],
    "types": {
      "t_address": {
        "encoding": "inplace",
        "label": "address",
        "numberOfBytes": "20"
      }
    }
  }
}