{
  "address": "0x95886C853bc4dc056bbefA642D3E443bBB552a69",
  "abi": [
    {
      "inputs": [
        {
          "internalType": "address",
          "name": "_admin",
          "type": "address"
        },
        {
          "internalType": "address",
          "name": "_nftfiHub",
          "type": "address"
        },
        {
          "internalType": "address[]",
          "name": "_permittedErc20s",
          "type": "address[]"
        },
        {
          "internalType": "address",
          "name": "_protocolSignerAddress",
          "type": "address"
        }
      ],
      "stateMutability": "nonpayable",
      "type": "constructor"
    },
    {
      "inputs": [],
      "name": "AdminFeeChanged",
      "type": "error"
    },
    {
      "inputs": [],
      "name": "BasisPointsTooHigh",
      "type": "error"
    },
    {
      "inputs": [],
      "name": "CollateralIdNotInRange",
      "type": "error"
    },
    {
      "inputs": [],
      "name": "CurrencyDenominationNotPermitted",
      "type": "error"
    },
    {
      "inputs": [],
      "name": "ERC20ZeroAddress",
      "type": "error"
    },
    {
      "inputs": [],
      "name": "FunctionInformationArityMismatch",
      "type": "error"
    },
    {
      "inputs": [],
      "name": "InvalidLenderSignature",
      "type": "error"
    },
    {
      "inputs": [],
      "name": "InvalidNonce",
      "type": "error"
    },
    {
      "inputs": [],
      "name": "InvalidProtocolSignature",
      "type": "error"
    },
    {
      "inputs": [],
      "name": "InvalidProtocolSigner",
      "type": "error"
    },
    {
      "inputs": [],
      "name": "LoanAlreadyRepaidOrLiquidated",
      "type": "error"
    },
    {
      "inputs": [],
      "name": "LoanDurationCannotBeZero",
      "type": "error"
    },
    {
      "inputs": [],
      "name": "LoanDurationExceedsMaximum",
      "type": "error"
    },
    {
      "inputs": [],
      "name": "LoanDurationOverflow",
      "type": "error"
    },
    {
      "inputs": [],
      "name": "LoanNotOverdueYet",
      "type": "error"
    },
    {
      "inputs": [],
      "name": "MinIdGreaterThanMaxId",
      "type": "error"
    },
    {
      "inputs": [],
      "name": "NFTCollateralContractNotPermitted",
      "type": "error"
    },
    {
      "inputs": [],
      "name": "NFTNotOwned",
      "type": "error"
    },
    {
      "inputs": [],
      "name": "NegativeInterestRate",
      "type": "error"
    },
    {
      "inputs": [],
      "name": "NoNFTsOwned",
      "type": "error"
    },
    {
      "inputs": [],
      "name": "NoTokensInEscrow",
      "type": "error"
    },
    {
      "inputs": [],
      "name": "NoTokensOwned",
      "type": "error"
    },
    {
      "inputs": [],
      "name": "OnlyLenderCanLiquidate",
      "type": "error"
    },
    {
      "inputs": [],
      "name": "OriginalAcceptOfferDisabled",
      "type": "error"
    },
    {
      "inputs": [],
      "name": "RenegotiationSignatureInvalid",
      "type": "error"
    },
    {
      "inputs": [],
      "name": "SenderNotBorrower",
      "type": "error"
    },
    {
      "inputs": [],
      "name": "TokenIsCollateral",
      "type": "error"
    },
    {
      "inputs": [],
      "name": "TokensInEscrow",
      "type": "error"
    },
    {
      "anonymous": false,
      "inputs": [
        {
          "indexed": false,
          "internalType": "uint16",
          "name": "newAdminFee",
          "type": "uint16"
        }
      ],
      "name": "AdminFeeUpdated",
      "type": "event"
    },
    {
      "anonymous": false,
      "inputs": [
        {
          "indexed": true,
          "internalType": "address",
          "name": "erc20Contract",
          "type": "address"
        },
        {
          "indexed": false,
          "internalType": "bool",
          "name": "isPermitted",
          "type": "bool"
        }
      ],
      "name": "ERC20Permit",
      "type": "event"
    },
    {
      "anonymous": false,
      "inputs": [
        {
          "indexed": true,
          "internalType": "uint32",
          "name": "loanId",
          "type": "uint32"
        }
      ],
      "name": "EscrowRepay",
      "type": "event"
    },
    {
      "anonymous": false,
      "inputs": [
        {
          "indexed": true,
          "internalType": "uint32",
          "name": "loanId",
          "type": "uint32"
        },
        {
          "indexed": true,
          "internalType": "address",
          "name": "borrower",
          "type": "address"
        },
        {
          "indexed": true,
          "internalType": "address",
          "name": "lender",
          "type": "address"
        },
        {
          "indexed": false,
          "internalType": "uint256",
          "name": "loanPrincipalAmount",
          "type": "uint256"
        },
        {
          "indexed": false,
          "internalType": "uint256",
          "name": "nftCollateralId",
          "type": "uint256"
        },
        {
          "indexed": false,
          "internalType": "uint256",
          "name": "loanMaturityDate",
          "type": "uint256"
        },
        {
          "indexed": false,
          "internalType": "uint256",
          "name": "loanLiquidationDate",
          "type": "uint256"
        },
        {
          "indexed": false,
          "internalType": "address",
          "name": "nftCollateralContract",
          "type": "address"
        }
      ],
      "name": "LoanLiquidated",
      "type": "event"
    },
    {
      "anonymous": false,
      "inputs": [
        {
          "indexed": true,
          "internalType": "uint32",
          "name": "loanId",
          "type": "uint32"
        },
        {
          "indexed": true,
          "internalType": "address",
          "name": "borrower",
          "type": "address"
        },
        {
          "indexed": true,
          "internalType": "address",
          "name": "lender",
          "type": "address"
        },
        {
          "indexed": false,
          "internalType": "uint32",
          "name": "newLoanDuration",
          "type": "uint32"
        },
        {
          "indexed": false,
          "internalType": "uint256",
          "name": "newMaximumRepaymentAmount",
          "type": "uint256"
        },
        {
          "indexed": false,
          "internalType": "uint256",
          "name": "renegotiationFee",
          "type": "uint256"
        },
        {
          "indexed": false,
          "internalType": "uint256",
          "name": "renegotiationAdminFee",
          "type": "uint256"
        }
      ],
      "name": "LoanRenegotiated",
      "type": "event"
    },
    {
      "anonymous": false,
      "inputs": [
        {
          "indexed": true,
          "internalType": "uint32",
          "name": "loanId",
          "type": "uint32"
        },
        {
          "indexed": true,
          "internalType": "address",
          "name": "borrower",
          "type": "address"
        },
        {
          "indexed": true,
          "internalType": "address",
          "name": "lender",
          "type": "address"
        },
        {
          "indexed": false,
          "internalType": "uint256",
          "name": "loanPrincipalAmount",
          "type": "uint256"
        },
        {
          "indexed": false,
          "internalType": "uint256",
          "name": "nftCollateralId",
          "type": "uint256"
        },
        {
          "indexed": false,
          "internalType": "uint256",
          "name": "amountPaidToLender",
          "type": "uint256"
        },
        {
          "indexed": false,
          "internalType": "uint256",
          "name": "adminFee",
          "type": "uint256"
        },
        {
          "indexed": false,
          "internalType": "uint256",
          "name": "revenueShare",
          "type": "uint256"
        },
        {
          "indexed": false,
          "internalType": "address",
          "name": "revenueSharePartner",
          "type": "address"
        },
        {
          "indexed": false,
          "internalType": "address",
          "name": "nftCollateralContract",
          "type": "address"
        },
        {
          "indexed": false,
          "internalType": "address",
          "name": "loanERC20Denomination",
          "type": "address"
        }
      ],
      "name": "LoanRepaid",
      "type": "event"
    },
    {
      "anonymous": false,
      "inputs": [
        {
          "indexed": true,
          "internalType": "uint32",
          "name": "loanId",
          "type": "uint32"
        },
        {
          "indexed": true,
          "internalType": "address",
          "name": "borrower",
          "type": "address"
        },
        {
          "indexed": true,
          "internalType": "address",
          "name": "lender",
          "type": "address"
        },
        {
          "components": [
            {
              "internalType": "uint256",
              "name": "loanPrincipalAmount",
              "type": "uint256"
            },
            {
              "internalType": "uint256",
              "name": "maximumRepaymentAmount",
              "type": "uint256"
            },
            {
              "internalType": "uint256",
              "name": "nftCollateralId",
              "type": "uint256"
            },
            {
              "internalType": "address",
              "name": "loanERC20Denomination",
              "type": "address"
            },
            {
              "internalType": "uint32",
              "name": "loanDuration",
              "type": "uint32"
            },
            {
              "internalType": "uint16",
              "name": "loanInterestRateForDurationInBasisPoints",
              "type": "uint16"
            },
            {
              "internalType": "uint16",
              "name": "loanAdminFeeInBasisPoints",
              "type": "uint16"
            },
            {
              "internalType": "address",
              "name": "nftCollateralWrapper",
              "type": "address"
            },
            {
              "internalType": "uint64",
              "name": "loanStartTime",
              "type": "uint64"
            },
            {
              "internalType": "address",
              "name": "nftCollateralContract",
              "type": "address"
            },
            {
              "internalType": "address",
              "name": "borrower",
              "type": "address"
            }
          ],
          "indexed": false,
          "internalType": "struct LoanData.LoanTerms",
          "name": "loanTerms",
          "type": "tuple"
        },
        {
          "components": [
            {
              "internalType": "address",
              "name": "revenueSharePartner",
              "type": "address"
            },
            {
              "internalType": "uint16",
              "name": "revenueShareInBasisPoints",
              "type": "uint16"
            },
            {
              "internalType": "uint16",
              "name": "referralFeeInBasisPoints",
              "type": "uint16"
            }
          ],
          "indexed": false,
          "internalType": "struct LoanData.LoanExtras",
          "name": "loanExtras",
          "type": "tuple"
        }
      ],
      "name": "LoanStarted",
      "type": "event"
    },
    {
      "anonymous": false,
      "inputs": [
        {
          "indexed": false,
          "internalType": "uint256",
          "name": "newMaximumLoanDuration",
          "type": "uint256"
        }
      ],
      "name": "MaximumLoanDurationUpdated",
      "type": "event"
    },
    {
      "anonymous": false,
      "inputs": [
        {
          "indexed": true,
          "internalType": "address",
          "name": "previousOwner",
          "type": "address"
        },
        {
          "indexed": true,
          "internalType": "address",
          "name": "newOwner",
          "type": "address"
        }
      ],
      "name": "OwnershipTransferred",
      "type": "event"
    },
    {
      "anonymous": false,
      "inputs": [
        {
          "indexed": false,
          "internalType": "address",
          "name": "account",
          "type": "address"
        }
      ],
      "name": "Paused",
      "type": "event"
    },
    {
      "anonymous": false,
      "inputs": [
        {
          "indexed": false,
          "internalType": "address",
          "name": "account",
          "type": "address"
        }
      ],
      "name": "Unpaused",
      "type": "event"
    },
    {
      "inputs": [],
      "name": "HUNDRED_PERCENT",
      "outputs": [
        {
          "internalType": "uint16",
          "name": "",
          "type": "uint16"
        }
      ],
      "stateMutability": "view",
      "type": "function"
    },
    {
      "inputs": [],
      "name": "LOAN_COORDINATOR",
      "outputs": [
        {
          "internalType": "bytes32",
          "name": "",
          "type": "bytes32"
        }
      ],
      "stateMutability": "view",
      "type": "function"
    },
    {
      "inputs": [],
      "name": "LOAN_TYPE",
      "outputs": [
        {
          "internalType": "bytes32",
          "name": "",
          "type": "bytes32"
        }
      ],
      "stateMutability": "pure",
      "type": "function"
    },
    {
      "inputs": [
        {
          "components": [
            {
              "internalType": "uint256",
              "name": "loanPrincipalAmount",
              "type": "uint256"
            },
            {
              "internalType": "uint256",
              "name": "maximumRepaymentAmount",
              "type": "uint256"
            },
            {
              "internalType": "uint256",
              "name": "nftCollateralId",
              "type": "uint256"
            },
            {
              "internalType": "address",
              "name": "nftCollateralContract",
              "type": "address"
            },
            {
              "internalType": "uint32",
              "name": "loanDuration",
              "type": "uint32"
            },
            {
              "internalType": "uint16",
              "name": "loanAdminFeeInBasisPoints",
              "type": "uint16"
            },
            {
              "internalType": "address",
              "name": "loanERC20Denomination",
              "type": "address"
            },
            {
              "internalType": "address",
              "name": "referrer",
              "type": "address"
            }
          ],
          "internalType": "struct LoanData.Offer",
          "name": "_offer",
          "type": "tuple"
        },
        {
          "components": [
            {
              "internalType": "uint256",
              "name": "nonce",
              "type": "uint256"
            },
            {
              "internalType": "uint256",
              "name": "expiry",
              "type": "uint256"
            },
            {
              "internalType": "address",
              "name": "signer",
              "type": "address"
            },
            {
              "internalType": "bytes",
              "name": "signature",
              "type": "bytes"
            }
          ],
          "internalType": "struct LoanData.Signature",
          "name": "_signature",
          "type": "tuple"
        },
        {
          "components": [
            {
              "internalType": "uint256",
              "name": "expiry",
              "type": "uint256"
            },
            {
              "internalType": "address",
              "name": "signer",
              "type": "address"
            },
            {
              "internalType": "bytes",
              "name": "signature",
              "type": "bytes"
            }
          ],
          "internalType": "struct LoanData.ProtocolSignature",
          "name": "_protocolSignature",
          "type": "tuple"
        },
        {
          "components": [
            {
              "internalType": "address",
              "name": "revenueSharePartner",
              "type": "address"
            },
            {
              "internalType": "uint16",
              "name": "referralFeeInBasisPoints",
              "type": "uint16"
            }
          ],
          "internalType": "struct LoanData.BorrowerSettings",
          "name": "_borrowerSettings",
          "type": "tuple"
        }
      ],
      "name": "acceptCollectionOffer",
      "outputs": [],
      "stateMutability": "nonpayable",
      "type": "function"
    },
    {
      "inputs": [
        {
          "components": [
            {
              "internalType": "uint256",
              "name": "loanPrincipalAmount",
              "type": "uint256"
            },
            {
              "internalType": "uint256",
              "name": "maximumRepaymentAmount",
              "type": "uint256"
            },
            {
              "internalType": "uint256",
              "name": "nftCollateralId",
              "type": "uint256"
            },
            {
              "internalType": "address",
              "name": "nftCollateralContract",
              "type": "address"
            },
            {
              "internalType": "uint32",
              "name": "loanDuration",
              "type": "uint32"
            },
            {
              "internalType": "uint16",
              "name": "loanAdminFeeInBasisPoints",
              "type": "uint16"
            },
            {
              "internalType": "address",
              "name": "loanERC20Denomination",
              "type": "address"
            },
            {
              "internalType": "address",
              "name": "referrer",
              "type": "address"
            }
          ],
          "internalType": "struct LoanData.Offer",
          "name": "_offer",
          "type": "tuple"
        },
        {
          "components": [
            {
              "internalType": "uint256",
              "name": "minId",
              "type": "uint256"
            },
            {
              "internalType": "uint256",
              "name": "maxId",
              "type": "uint256"
            }
          ],
          "internalType": "struct LoanData.CollectionIdRange",
          "name": "_idRange",
          "type": "tuple"
        },
        {
          "components": [
            {
              "internalType": "uint256",
              "name": "nonce",
              "type": "uint256"
            },
            {
              "internalType": "uint256",
              "name": "expiry",
              "type": "uint256"
            },
            {
              "internalType": "address",
              "name": "signer",
              "type": "address"
            },
            {
              "internalType": "bytes",
              "name": "signature",
              "type": "bytes"
            }
          ],
          "internalType": "struct LoanData.Signature",
          "name": "_signature",
          "type": "tuple"
        },
        {
          "components": [
            {
              "internalType": "uint256",
              "name": "expiry",
              "type": "uint256"
            },
            {
              "internalType": "address",
              "name": "signer",
              "type": "address"
            },
            {
              "internalType": "bytes",
              "name": "signature",
              "type": "bytes"
            }
          ],
          "internalType": "struct LoanData.ProtocolSignature",
          "name": "_protocolSignature",
          "type": "tuple"
        },
        {
          "components": [
            {
              "internalType": "address",
              "name": "revenueSharePartner",
              "type": "address"
            },
            {
              "internalType": "uint16",
              "name": "referralFeeInBasisPoints",
              "type": "uint16"
            }
          ],
          "internalType": "struct LoanData.BorrowerSettings",
          "name": "_borrowerSettings",
          "type": "tuple"
        }
      ],
      "name": "acceptCollectionOfferWithIdRange",
      "outputs": [],
      "stateMutability": "nonpayable",
      "type": "function"
    },
    {
      "inputs": [
        {
          "components": [
            {
              "internalType": "uint256",
              "name": "loanPrincipalAmount",
              "type": "uint256"
            },
            {
              "internalType": "uint256",
              "name": "maximumRepaymentAmount",
              "type": "uint256"
            },
            {
              "internalType": "uint256",
              "name": "nftCollateralId",
              "type": "uint256"
            },
            {
              "internalType": "address",
              "name": "nftCollateralContract",
              "type": "address"
            },
            {
              "internalType": "uint32",
              "name": "loanDuration",
              "type": "uint32"
            },
            {
              "internalType": "uint16",
              "name": "loanAdminFeeInBasisPoints",
              "type": "uint16"
            },
            {
              "internalType": "address",
              "name": "loanERC20Denomination",
              "type": "address"
            },
            {
              "internalType": "address",
              "name": "referrer",
              "type": "address"
            }
          ],
          "internalType": "struct LoanData.Offer",
          "name": "",
          "type": "tuple"
        },
        {
          "components": [
            {
              "internalType": "uint256",
              "name": "nonce",
              "type": "uint256"
            },
            {
              "internalType": "uint256",
              "name": "expiry",
              "type": "uint256"
            },
            {
              "internalType": "address",
              "name": "signer",
              "type": "address"
            },
            {
              "internalType": "bytes",
              "name": "signature",
              "type": "bytes"
            }
          ],
          "internalType": "struct LoanData.Signature",
          "name": "",
          "type": "tuple"
        },
        {
          "components": [
            {
              "internalType": "address",
              "name": "revenueSharePartner",
              "type": "address"
            },
            {
              "internalType": "uint16",
              "name": "referralFeeInBasisPoints",
              "type": "uint16"
            }
          ],
          "internalType": "struct LoanData.BorrowerSettings",
          "name": "",
          "type": "tuple"
        }
      ],
      "name": "acceptOffer",
      "outputs": [
        {
          "internalType": "uint32",
          "name": "",
          "type": "uint32"
        }
      ],
      "stateMutability": "nonpayable",
      "type": "function"
    },
    {
      "inputs": [],
      "name": "adminFeeInBasisPoints",
      "outputs": [
        {
          "internalType": "uint16",
          "name": "",
          "type": "uint16"
        }
      ],
      "stateMutability": "view",
      "type": "function"
    },
    {
      "inputs": [
        {
          "internalType": "uint256",
          "name": "_nonce",
          "type": "uint256"
        }
      ],
      "name": "cancelLoanCommitmentBeforeLoanHasBegun",
      "outputs": [],
      "stateMutability": "nonpayable",
      "type": "function"
    },
    {
      "inputs": [
        {
          "internalType": "address",
          "name": "_tokenAddress",
          "type": "address"
        },
        {
          "internalType": "uint256",
          "name": "_tokenId",
          "type": "uint256"
        },
        {
          "internalType": "address",
          "name": "_receiver",
          "type": "address"
        }
      ],
      "name": "drainERC1155Airdrop",
      "outputs": [],
      "stateMutability": "nonpayable",
      "type": "function"
    },
    {
      "inputs": [
        {
          "internalType": "address",
          "name": "_tokenAddress",
          "type": "address"
        },
        {
          "internalType": "uint256",
          "name": "amount",
          "type": "uint256"
        },
        {
          "internalType": "address",
          "name": "_receiver",
          "type": "address"
        }
      ],
      "name": "drainERC20Airdrop",
      "outputs": [],
      "stateMutability": "nonpayable",
      "type": "function"
    },
    {
      "inputs": [
        {
          "internalType": "address",
          "name": "_tokenAddress",
          "type": "address"
        },
        {
          "internalType": "uint256",
          "name": "_tokenId",
          "type": "uint256"
        },
        {
          "internalType": "address",
          "name": "_receiver",
          "type": "address"
        }
      ],
      "name": "drainERC721Airdrop",
      "outputs": [],
      "stateMutability": "nonpayable",
      "type": "function"
    },
    {
      "inputs": [
        {
          "internalType": "address",
          "name": "_erc20",
          "type": "address"
        }
      ],
      "name": "getERC20Permit",
      "outputs": [
        {
          "internalType": "bool",
          "name": "",
          "type": "bool"
        }
      ],
      "stateMutability": "view",
      "type": "function"
    },
    {
      "inputs": [
        {
          "internalType": "address",
          "name": "_token",
          "type": "address"
        }
      ],
      "name": "getEscrowedPayBack",
      "outputs": [],
      "stateMutability": "nonpayable",
      "type": "function"
    },
    {
      "inputs": [
        {
          "internalType": "uint32",
          "name": "_loanId",
          "type": "uint32"
        }
      ],
      "name": "getPayoffAmount",
      "outputs": [
        {
          "internalType": "uint256",
          "name": "",
          "type": "uint256"
        }
      ],
      "stateMutability": "view",
      "type": "function"
    },
    {
      "inputs": [
        {
          "internalType": "address",
          "name": "_user",
          "type": "address"
        },
        {
          "internalType": "uint256",
          "name": "_nonce",
          "type": "uint256"
        }
      ],
      "name": "getWhetherNonceHasBeenUsedForUser",
      "outputs": [
        {
          "internalType": "bool",
          "name": "",
          "type": "bool"
        }
      ],
      "stateMutability": "view",
      "type": "function"
    },
    {
      "inputs": [],
      "name": "hub",
      "outputs": [
        {
          "internalType": "contract INftfiHub",
          "name": "",
          "type": "address"
        }
      ],
      "stateMutability": "view",
      "type": "function"
    },
    {
      "inputs": [
        {
          "internalType": "uint32",
          "name": "_loanId",
          "type": "uint32"
        }
      ],
      "name": "liquidateOverdueLoan",
      "outputs": [],
      "stateMutability": "nonpayable",
      "type": "function"
    },
    {
      "inputs": [
        {
          "internalType": "uint32",
          "name": "",
          "type": "uint32"
        }
      ],
      "name": "loanIdToLoan",
      "outputs": [
        {
          "internalType": "uint256",
          "name": "loanPrincipalAmount",
          "type": "uint256"
        },
        {
          "internalType": "uint256",
          "name": "maximumRepaymentAmount",
          "type": "uint256"
        },
        {
          "internalType": "uint256",
          "name": "nftCollateralId",
          "type": "uint256"
        },
        {
          "internalType": "address",
          "name": "loanERC20Denomination",
          "type": "address"
        },
        {
          "internalType": "uint32",
          "name": "loanDuration",
          "type": "uint32"
        },
        {
          "internalType": "uint16",
          "name": "loanInterestRateForDurationInBasisPoints",
          "type": "uint16"
        },
        {
          "internalType": "uint16",
          "name": "loanAdminFeeInBasisPoints",
          "type": "uint16"
        },
        {
          "internalType": "address",
          "name": "nftCollateralWrapper",
          "type": "address"
        },
        {
          "internalType": "uint64",
          "name": "loanStartTime",
          "type": "uint64"
        },
        {
          "internalType": "address",
          "name": "nftCollateralContract",
          "type": "address"
        },
        {
          "internalType": "address",
          "name": "borrower",
          "type": "address"
        }
      ],
      "stateMutability": "view",
      "type": "function"
    },
    {
      "inputs": [
        {
          "internalType": "uint32",
          "name": "",
          "type": "uint32"
        }
      ],
      "name": "loanIdToLoanExtras",
      "outputs": [
        {
          "internalType": "address",
          "name": "revenueSharePartner",
          "type": "address"
        },
        {
          "internalType": "uint16",
          "name": "revenueShareInBasisPoints",
          "type": "uint16"
        },
        {
          "internalType": "uint16",
          "name": "referralFeeInBasisPoints",
          "type": "uint16"
        }
      ],
      "stateMutability": "view",
      "type": "function"
    },
    {
      "inputs": [
        {
          "internalType": "uint32",
          "name": "",
          "type": "uint32"
        }
      ],
      "name": "loanRepaidOrLiquidated",
      "outputs": [
        {
          "internalType": "bool",
          "name": "",
          "type": "bool"
        }
      ],
      "stateMutability": "view",
      "type": "function"
    },
    {
      "inputs": [],
      "name": "maximumLoanDuration",
      "outputs": [
        {
          "internalType": "uint256",
          "name": "",
          "type": "uint256"
        }
      ],
      "stateMutability": "view",
      "type": "function"
    },
    {
      "inputs": [
        {
          "internalType": "uint32",
          "name": "_loanId",
          "type": "uint32"
        }
      ],
      "name": "mintObligationReceipt",
      "outputs": [],
      "stateMutability": "nonpayable",
      "type": "function"
    },
    {
      "inputs": [
        {
          "internalType": "address",
          "name": "",
          "type": "address"
        },
        {
          "internalType": "address",
          "name": "",
          "type": "address"
        },
        {
          "internalType": "uint256[]",
          "name": "",
          "type": "uint256[]"
        },
        {
          "internalType": "uint256[]",
          "name": "",
          "type": "uint256[]"
        },
        {
          "internalType": "bytes",
          "name": "",
          "type": "bytes"
        }
      ],
      "name": "onERC1155BatchReceived",
      "outputs": [
        {
          "internalType": "bytes4",
          "name": "",
          "type": "bytes4"
        }
      ],
      "stateMutability": "nonpayable",
      "type": "function"
    },
    {
      "inputs": [
        {
          "internalType": "address",
          "name": "",
          "type": "address"
        },
        {
          "internalType": "address",
          "name": "",
          "type": "address"
        },
        {
          "internalType": "uint256",
          "name": "",
          "type": "uint256"
        },
        {
          "internalType": "uint256",
          "name": "",
          "type": "uint256"
        },
        {
          "internalType": "bytes",
          "name": "",
          "type": "bytes"
        }
      ],
      "name": "onERC1155Received",
      "outputs": [
        {
          "internalType": "bytes4",
          "name": "",
          "type": "bytes4"
        }
      ],
      "stateMutability": "nonpayable",
      "type": "function"
    },
    {
      "inputs": [
        {
          "internalType": "address",
          "name": "",
          "type": "address"
        },
        {
          "internalType": "address",
          "name": "",
          "type": "address"
        },
        {
          "internalType": "uint256",
          "name": "",
          "type": "uint256"
        },
        {
          "internalType": "bytes",
          "name": "",
          "type": "bytes"
        }
      ],
      "name": "onERC721Received",
      "outputs": [
        {
          "internalType": "bytes4",
          "name": "",
          "type": "bytes4"
        }
      ],
      "stateMutability": "nonpayable",
      "type": "function"
    },
    {
      "inputs": [],
      "name": "owner",
      "outputs": [
        {
          "internalType": "address",
          "name": "",
          "type": "address"
        }
      ],
      "stateMutability": "view",
      "type": "function"
    },
    {
      "inputs": [],
      "name": "pause",
      "outputs": [],
      "stateMutability": "nonpayable",
      "type": "function"
    },
    {
      "inputs": [],
      "name": "paused",
      "outputs": [
        {
          "internalType": "bool",
          "name": "",
          "type": "bool"
        }
      ],
      "stateMutability": "view",
      "type": "function"
    },
    {
      "inputs": [
        {
          "internalType": "uint32",
          "name": "_loanId",
          "type": "uint32"
        }
      ],
      "name": "payBackLoan",
      "outputs": [],
      "stateMutability": "nonpayable",
      "type": "function"
    },
    {
      "inputs": [
        {
          "internalType": "uint32",
          "name": "_loanId",
          "type": "uint32"
        }
      ],
      "name": "payBackLoanSafe",
      "outputs": [],
      "stateMutability": "nonpayable",
      "type": "function"
    },
    {
      "inputs": [],
      "name": "protocolSignerAddress",
      "outputs": [
        {
          "internalType": "address",
          "name": "",
          "type": "address"
        }
      ],
      "stateMutability": "view",
      "type": "function"
    },
    {
      "inputs": [
        {
          "internalType": "uint32",
          "name": "_loanId",
          "type": "uint32"
        },
        {
          "internalType": "address",
          "name": "_target",
          "type": "address"
        },
        {
          "internalType": "bytes",
          "name": "_data",
          "type": "bytes"
        },
        {
          "internalType": "address",
          "name": "_nftAirdrop",
          "type": "address"
        },
        {
          "internalType": "uint256",
          "name": "_nftAirdropId",
          "type": "uint256"
        },
        {
          "internalType": "bool",
          "name": "_is1155",
          "type": "bool"
        },
        {
          "internalType": "uint256",
          "name": "_nftAirdropAmount",
          "type": "uint256"
        }
      ],
      "name": "pullAirdrop",
      "outputs": [],
      "stateMutability": "nonpayable",
      "type": "function"
    },
    {
      "inputs": [
        {
          "internalType": "uint32",
          "name": "_loanId",
          "type": "uint32"
        },
        {
          "internalType": "address",
          "name": "_target",
          "type": "address"
        },
        {
          "internalType": "bytes",
          "name": "_data",
          "type": "bytes"
        }
      ],
      "name": "pullAirdropReceiver",
      "outputs": [],
      "stateMutability": "nonpayable",
      "type": "function"
    },
    {
      "inputs": [
        {
          "internalType": "uint32",
          "name": "_loanId",
          "type": "uint32"
        },
        {
          "internalType": "uint32",
          "name": "_newLoanDuration",
          "type": "uint32"
        },
        {
          "internalType": "uint256",
          "name": "_newMaximumRepaymentAmount",
          "type": "uint256"
        },
        {
          "internalType": "uint256",
          "name": "_renegotiationFee",
          "type": "uint256"
        },
        {
          "internalType": "uint256",
          "name": "_lenderNonce",
          "type": "uint256"
        },
        {
          "internalType": "uint256",
          "name": "_expiry",
          "type": "uint256"
        },
        {
          "internalType": "bytes",
          "name": "_lenderSignature",
          "type": "bytes"
        }
      ],
      "name": "renegotiateLoan",
      "outputs": [],
      "stateMutability": "nonpayable",
      "type": "function"
    },
    {
      "inputs": [
        {
          "internalType": "address",
          "name": "_erc20",
          "type": "address"
        },
        {
          "internalType": "bool",
          "name": "_permit",
          "type": "bool"
        }
      ],
      "name": "setERC20Permit",
      "outputs": [],
      "stateMutability": "nonpayable",
      "type": "function"
    },
    {
      "inputs": [
        {
          "internalType": "address[]",
          "name": "_erc20s",
          "type": "address[]"
        },
        {
          "internalType": "bool[]",
          "name": "_permits",
          "type": "bool[]"
        }
      ],
      "name": "setERC20Permits",
      "outputs": [],
      "stateMutability": "nonpayable",
      "type": "function"
    },
    {
      "inputs": [
        {
          "internalType": "address",
          "name": "_protocolSignerAddress",
          "type": "address"
        }
      ],
      "name": "setProtocolSignerAddress",
      "outputs": [],
      "stateMutability": "nonpayable",
      "type": "function"
    },
    {
      "inputs": [
        {
          "internalType": "bytes4",
          "name": "_interfaceId",
          "type": "bytes4"
        }
      ],
      "name": "supportsInterface",
      "outputs": [
        {
          "internalType": "bool",
          "name": "",
          "type": "bool"
        }
      ],
      "stateMutability": "view",
      "type": "function"
    },
    {
      "inputs": [
        {
          "internalType": "address",
          "name": "_newOwner",
          "type": "address"
        }
      ],
      "name": "transferOwnership",
      "outputs": [],
      "stateMutability": "nonpayable",
      "type": "function"
    },
    {
      "inputs": [],
      "name": "unpause",
      "outputs": [],
      "stateMutability": "nonpayable",
      "type": "function"
    },
    {
      "inputs": [
        {
          "internalType": "uint16",
          "name": "_newAdminFeeInBasisPoints",
          "type": "uint16"
        }
      ],
      "name": "updateAdminFee",
      "outputs": [],
      "stateMutability": "nonpayable",
      "type": "function"
    },
    {
      "inputs": [
        {
          "internalType": "uint256",
          "name": "_newMaximumLoanDuration",
          "type": "uint256"
        }
      ],
      "name": "updateMaximumLoanDuration",
      "outputs": [],
      "stateMutability": "nonpayable",
      "type": "function"
    },
    {
      "inputs": [
        {
          "internalType": "uint32",
          "name": "_loanId",
          "type": "uint32"
        }
      ],
      "name": "wrapCollateral",
      "outputs": [],
      "stateMutability": "nonpayable",
      "type": "function"
    }
  ],
  "transactionHash": "0xcd451567bc3a664e6cb1492e55cee079f3be19c44d023b0825d81e3e29857807",
  "args": [
    "0x02e037F56728E947e92Af2c05baF7FeF387Ddd06",
    "0xBD2cc314A2FCB8C0313641120Faf027d30DE5eA2",
    [],
    "0x959fd7ef9089b7142b6b908dc3a8af7aa8ff0fa1"
  ],
  "numDeployments": 1,
  "solcInputHash": "54de0b2a48f04d02d32721198484cdf8",
  "bytecode": "0x60c06040526301e91c806002556003805461ffff19166101f41790553480156200002857600080fd5b50604051620061d0380380620061d08339810160408190526200004b91620002c6565b838383828273d3D0E26010ABeF694F4074ca39E88c5d6dEd70C163f99a8ffb6040518163ffffffff1660e01b8152600401620000b89060208082526017908201527f4449524543545f4c4f414e5f434f4f5244494e41544f52000000000000000000604082015260600190565b60206040518083038186803b158015620000d157600080fd5b505af4158015620000e6573d6000803e3d6000fd5b505050506040513d601f19601f820116820180604052508101906200010c9190620003d5565b8383806200011a81620001d2565b50506000805460ff60a01b19168155600180556001600160601b0319606085901b1660a05260808390525b81518110156200019f576200018a8282815181106200017457634e487b7160e01b600052603260045260246000fd5b602002602001015160016200022260201b60201c565b806200019681620003ee565b91505062000145565b5050600c80546001600160a01b0319166001600160a01b039890981697909717909655506200042c975050505050505050565b600080546001600160a01b038381166001600160a01b0319831681178455604051919092169283917f8be0079c531659141344cd1fd0a4f28419497f9722a3daafe3b4186f6b6457e09190a35050565b6001600160a01b0382166200024a57604051636e8ab17b60e11b815260040160405180910390fd5b6001600160a01b0382166000818152600b6020908152604091829020805460ff191685151590811790915591519182527ff100355be652ecc881568750e6a98c0713e4316f75d5314ebc9039e0acb52f24910160405180910390a25050565b80516001600160a01b0381168114620002c157600080fd5b919050565b60008060008060808587031215620002dc578384fd5b620002e785620002a9565b93506020620002f8818701620002a9565b60408701519094506001600160401b038082111562000315578485fd5b818801915088601f83011262000329578485fd5b8151818111156200033e576200033e62000416565b8060051b604051601f19603f8301168101818110858211171562000366576200036662000416565b604052828152858101935084860182860187018d101562000385578889fd5b8895505b83861015620003b2576200039d81620002a9565b85526001959095019493860193860162000389565b50809750505050505050620003ca60608601620002a9565b905092959194509250565b600060208284031215620003e7578081fd5b5051919050565b60006000198214156200040f57634e487b7160e01b81526011600452602481fd5b5060010190565b634e487b7160e01b600052604160045260246000fd5b60805160a05160601c615cef620004e1600039600081816104f80152818161090c01528181610b2a01528181610cb50152818161101a015281816111250152818161132c015281816114af0152818161196a01528181611bfe01528181611ed7015281816120350152818161272801528181612a3101528181612e01015281816130e801526140620152600081816105e701528181611bd50152818161200c015281816130c201526140390152615cef6000f3fe608060405234801561001057600080fd5b50600436106102695760003560e01c80636ed93dd011610151578063ac4e35ea116100c3578063dd41ed3e11610087578063dd41ed3e14610727578063ddfddad61461073a578063e61b16a81461074d578063eda928ab14610760578063f23a6e6114610773578063f2fde38b1461079357600080fd5b8063ac4e35ea146106c8578063b18e7772146106db578063b31ec1d4146106ee578063bc197c8114610701578063bce42e421461071457600080fd5b8063872873be11610115578063872873be146106375780638da5cb5b146106635780638f9bb71d1461066b5780639658e4051461067e578063a4441a6f14610691578063ab3b12801461069f57600080fd5b80636ed93dd0146105c657806377cfa991146105e25780637836baf11461060957806379b640401461061c5780638456cb591461062f57600080fd5b8063328404b0116101ea57806356efe98c116101ae57806356efe98c1461055557806359a727341461057d5780635c975abb146105905780635ecd7e6d14610598578063616693d8146105ab578063657a88a1146105b357600080fd5b8063328404b0146104ba578063365a86fc146104f35780633f4ba83a1461052757806347948d921461052f5780635163a1c31461054257600080fd5b80631c6caf41116102315780631c6caf4114610366578063227cda181461037b5780632b218022146104815780632c1d4ec214610494578063318dacd3146104a757600080fd5b806301ffc9a71461026e5780630717f3aa146102965780630ff81c3f146102b9578063150b7a0214610323578063192b355d1461034f575b600080fd5b61028161027c36600461506b565b6107a6565b60405190151581526020015b60405180910390f35b6102816102a436600461532a565b60066020526000908152604090205460ff1681565b6102f96102c736600461532a565b6005602052600090815260409020546001600160a01b0381169061ffff600160a01b8204811691600160b01b90041683565b604080516001600160a01b03909416845261ffff928316602085015291169082015260600161028d565b610336610331366004614de5565b6107f8565b6040516001600160e01b0319909116815260200161028d565b61035860025481565b60405190815260200161028d565b6103796103743660046152c2565b610809565b005b61040d61038936600461532a565b600460208190526000918252604090912080546001820154600283015460038401549484015460058501546006909501549395929491936001600160a01b0380851694600160a01b80820463ffffffff1695600160c01b830461ffff90811696600160d01b909404169484841694929093046001600160401b03169290821691168b565b604080519b8c5260208c019a909a52988a01979097526001600160a01b0395861660608a015263ffffffff909416608089015261ffff92831660a0890152911660c0870152821660e08601526001600160401b0316610100850152908116610120840152166101408201526101600161028d565b61037961048f36600461532a565b6108b3565b6103796104a2366004614f4c565b6109a2565b6103796104b53660046153c4565b610ad1565b6102816104c8366004614ef4565b6001600160a01b03919091166000908152600a60209081526040808320938352929052205460ff1690565b61051a7f000000000000000000000000000000000000000000000000000000000000000081565b60405161028d919061570b565b610379610d1a565b61037961053d3660046152fa565b610d53565b610379610550366004614f4c565b610ddc565b6105686105633660046151db565b610f58565b60405163ffffffff909116815260200161028d565b61037961058b36600461532a565b610fc1565b610281611205565b6103796105a636600461523b565b611215565b6103586112af565b6103796105c1366004615362565b6112d3565b6105cf61271081565b60405161ffff909116815260200161028d565b6103587f000000000000000000000000000000000000000000000000000000000000000081565b610379610617366004614ec7565b611510565b61037961062a366004614f8d565b61154d565b610379611618565b610281610645366004614cba565b6001600160a01b03166000908152600b602052604090205460ff1690565b61051a61164f565b610379610679366004614cba565b61165e565b61037961068c3660046152fa565b6116af565b6003546105cf9061ffff1681565b6103586106ad36600461532a565b63ffffffff1660009081526004602052604090206001015490565b6103796106d6366004614f4c565b611711565b6103796106e9366004615463565b6118a8565b6103796106fc36600461532a565b611911565b61033661070f366004614d2b565b611b11565b61037961072236600461532a565b611b5c565b610379610735366004615121565b611d12565b610379610748366004614cba565b611db6565b600c5461051a906001600160a01b031681565b61037961076e36600461532a565b611e7e565b610336610781366004614e4e565b63f23a6e6160e01b9695505050505050565b6103796107a1366004614cba565b611f52565b60006001600160e01b03198216630271189760e51b14806107d757506001600160e01b03198216630a85bd0160e11b145b806107f257506001600160e01b031982166301ffc9a760e01b145b92915050565b630a85bd0160e11b5b949350505050565b3361081261164f565b6001600160a01b0316146108415760405162461bcd60e51b8152600401610838906157b2565b60405180910390fd5b61271061ffff82161115610868576040516314004bcf60e21b815260040160405180910390fd5b6003805461ffff191661ffff83169081179091556040519081527f03017365bbe16943b524030df07e7689168ab63e854d27417498e6f9dc584dab906020015b60405180910390a150565b600260015414156108d65760405162461bcd60e51b8152600401610838906157e7565b600260015560405163364d0abb60e11b8152734b45B6fC98616D4A3E9c59395d4526a863202B6e90636c9a1576906109349084907f000000000000000000000000000000000000000000000000000000000000000090600401615a43565b60006040518083038186803b15801561094c57600080fd5b505af4158015610960573d6000803e3d6000fd5b5050505060008060008061097385611ff2565b935093509350935061098785858585612406565b60016109968686858585612600565b50506001805550505050565b336109ab61164f565b6001600160a01b0316146109d15760405162461bcd60e51b8152600401610838906157b2565b6040516370a0823160e01b815283906000906001600160a01b038316906370a0823190610a0290309060040161570b565b60206040518083038186803b158015610a1a57600080fd5b505afa158015610a2e573d6000803e3d6000fd5b505050506040513d601f19601f82011682018060405250810190610a529190615312565b905080610a72576040516334b5d06d60e21b815260040160405180910390fd5b6001600160a01b0385166000908152600860205260409020548490610a979083615bfd565b1015610ab65760405163368e910d60e21b815260040160405180910390fd5b610aca6001600160a01b0383168486612617565b5050505050565b60026001541415610af45760405162461bcd60e51b8152600401610838906157e7565b6002600155604051635bfd0fb160e11b8152734b45B6fC98616D4A3E9c59395d4526a863202B6e9063b7fa1f6290610b52908b907f000000000000000000000000000000000000000000000000000000000000000090600401615a43565b60006040518083038186803b158015610b6a57600080fd5b505af4158015610b7e573d6000803e3d6000fd5b5050505063ffffffff881660009081526006602052604090205460ff1615610bb957604051633db5ad0160e11b815260040160405180910390fd5b63ffffffff8881166000908152600460208181526040928390208351610160810185528154815260018201549281019290925260028101548285015260038101546001600160a01b038082166060850152600160a01b8083049097166080850152600160c01b820461ffff90811660a0860152600160d01b90920490911660c08401528184015480821660e0850152959095046001600160401b03166101008301526005810154851661012083015260060154909316610140840152905163491bd44160e11b8152734b45B6fC98616D4A3E9c59395d4526a863202B6e91639237a88291610cdb918d9186918e918e918e918e918e918e918e917f00000000000000000000000000000000000000000000000000000000000000009101615a62565b60006040518083038186803b158015610cf357600080fd5b505af4158015610d07573d6000803e3d6000fd5b5050600180555050505050505050505050565b33610d2361164f565b6001600160a01b031614610d495760405162461bcd60e51b8152600401610838906157b2565b610d5161266d565b565b33610d5c61164f565b6001600160a01b031614610d825760405162461bcd60e51b8152600401610838906157b2565b63ffffffff811115610da757604051630737847960e51b815260040160405180910390fd5b60028190556040518181527f64f65a4a1a932867ad599da36210fc47c698b3abb2413cfdfd36bf59697a69cb906020016108a8565b33610de561164f565b6001600160a01b031614610e0b5760405162461bcd60e51b8152600401610838906157b2565b6001600160a01b0383166000908152600760209081526040808320858452909152902054839015610e4f57604051636a32439f60e01b815260040160405180910390fd5b6040516331a9108f60e11b81526004810184905230906001600160a01b03831690636352211e9060240160206040518083038186803b158015610e9157600080fd5b505afa158015610ea5573d6000803e3d6000fd5b505050506040513d601f19601f82011682018060405250810190610ec99190614cd6565b6001600160a01b031614610ef05760405163ca5ae8a360e01b815260040160405180910390fd5b604051632142170760e11b81526001600160a01b038216906342842e0e90610f209030908690889060040161571f565b600060405180830381600087803b158015610f3a57600080fd5b505af1158015610f4e573d6000803e3d6000fd5b5050505050505050565b6000610f62611205565b15610f7f5760405162461bcd60e51b815260040161083890615788565b60026001541415610fa25760405162461bcd60e51b8152600401610838906157e7565b60026001556040805163160b89f160e31b815290519081900360040190fd5b60026001541415610fe45760405162461bcd60e51b8152600401610838906157e7565b6002600155604051635bfd0fb160e11b8152734b45B6fC98616D4A3E9c59395d4526a863202B6e9063b7fa1f62906110429084907f000000000000000000000000000000000000000000000000000000000000000090600401615a43565b60006040518083038186803b15801561105a57600080fd5b505af415801561106e573d6000803e3d6000fd5b5050505063ffffffff811660009081526006602052604090205460ff16156110a957604051633db5ad0160e11b815260040160405180910390fd5b63ffffffff8116600090815260046020908152604080832060058101546001600160a01b0316845260078352818420600282015485529092528220805491926001926110f6908490615bfd565b9091555050604051631276b77d60e11b815263ffffffff83166004820152602481018290526001600160a01b037f00000000000000000000000000000000000000000000000000000000000000001660448201526000908190734b45B6fC98616D4A3E9c59395d4526a863202B6e906324ed6efa90606401604080518083038186803b15801561118557600080fd5b505af4158015611199573d6000803e3d6000fd5b505050506040513d601f19601f820116820180604052508101906111bd9190614f1f565b6001600160a01b0382166000908152600760209081526040808320848452909152812080549395509193506001926111f6908490615be5565b90915550506001805550505050565b600054600160a01b900460ff1690565b61121d611205565b1561123a5760405162461bcd60e51b815260040161083890615788565b6002600154141561125d5760405162461bcd60e51b8152600401610838906157e7565b60026001556060840151600090611273906126ff565b905061127f8582612825565b6112888561290c565b6109966112958683612932565b6112a7846000015185602001516129e6565b878787612ae4565b7f4449524543545f4c4f414e5f46495845445f434f4c4c454354494f4e0000000090565b600260015414156112f65760405162461bcd60e51b8152600401610838906157e7565b6002600155604051635bfd0fb160e11b8152734b45B6fC98616D4A3E9c59395d4526a863202B6e9063b7fa1f62906113549087907f000000000000000000000000000000000000000000000000000000000000000090600401615a43565b60006040518083038186803b15801561136c57600080fd5b505af4158015611380573d6000803e3d6000fd5b5050505063ffffffff841660009081526006602052604090205460ff16156113bb57604051633db5ad0160e11b815260040160405180910390fd5b63ffffffff8481166000908152600460208181526040928390208351610160810185528154815260018201549281019290925260028101548285015260038101546001600160a01b038082166060850152600160a01b8083049097166080850152600160c01b820461ffff90811660a0860152600160d01b90920490911660c08401528184015480821660e0850152959095046001600160401b0316610100830152600581015485166101208301526006015490931661014084015290516361ec917160e11b8152734b45B6fC98616D4A3E9c59395d4526a863202B6e9163c3d922e2916114d591899186918a918a918a917f00000000000000000000000000000000000000000000000000000000000000009101615adc565b60006040518083038186803b1580156114ed57600080fd5b505af4158015611501573d6000803e3d6000fd5b50506001805550505050505050565b3361151961164f565b6001600160a01b03161461153f5760405162461bcd60e51b8152600401610838906157b2565b6115498282612cc6565b5050565b3361155661164f565b6001600160a01b03161461157c5760405162461bcd60e51b8152600401610838906157b2565b805182511461159d57604051621dbe8b60e81b815260040160405180910390fd5b60005b8251811015611613576116018382815181106115cc57634e487b7160e01b600052603260045260246000fd5b60200260200101518383815181106115f457634e487b7160e01b600052603260045260246000fd5b6020026020010151612cc6565b8061160b81615c40565b9150506115a0565b505050565b3361162161164f565b6001600160a01b0316146116475760405162461bcd60e51b8152600401610838906157b2565b610d51612d4c565b6000546001600160a01b031690565b3361166761164f565b6001600160a01b03161461168d5760405162461bcd60e51b8152600401610838906157b2565b600c80546001600160a01b0319166001600160a01b0392909216919091179055565b336000908152600a6020908152604080832084845290915290205460ff16156116eb57604051633ab3447f60e11b815260040160405180910390fd5b336000908152600a6020908152604080832093835292905220805460ff19166001179055565b3361171a61164f565b6001600160a01b0316146117405760405162461bcd60e51b8152600401610838906157b2565b604051627eeac760e11b815283906000906001600160a01b0383169062fdd58e906117719030908890600401615743565b60206040518083038186803b15801561178957600080fd5b505afa15801561179d573d6000803e3d6000fd5b505050506040513d601f19601f820116820180604052508101906117c19190615312565b6001600160a01b03861660009081526007602090815260408083208884529091529020549091501561180657604051636a32439f60e01b815260040160405180910390fd5b806118245760405163f266c3ab60e01b815260040160405180910390fd5b604051637921219560e11b81523060048201526001600160a01b038481166024830152604482018690526064820183905260a06084830152600060a483015283169063f242432a9060c401600060405180830381600087803b15801561188957600080fd5b505af115801561189d573d6000803e3d6000fd5b505050505050505050565b6118b0611205565b156118cd5760405162461bcd60e51b815260040161083890615788565b600260015414156118f05760405162461bcd60e51b8152600401610838906157e7565b600260015561190487878787878787612dac565b5050600180555050505050565b600260015414156119345760405162461bcd60e51b8152600401610838906157e7565b6002600155604051635bfd0fb160e11b8152734b45B6fC98616D4A3E9c59395d4526a863202B6e9063b7fa1f62906119929084907f000000000000000000000000000000000000000000000000000000000000000090600401615a43565b60006040518083038186803b1580156119aa57600080fd5b505af41580156119be573d6000803e3d6000fd5b5050505063ffffffff811660009081526006602052604090205460ff16156119f957604051633db5ad0160e11b815260040160405180910390fd5b600080600080611a0885611ff2565b93509350935093506000826080015163ffffffff168361010001516001600160401b0316611a369190615be5565b9050804211611a585760405163477e47f960e11b815260040160405180910390fd5b336001600160a01b03851614611a8157604051633c35984560e11b815260040160405180910390fd5b6000611a908786868685612600565b8351604080860151610120870151825193845260208401919091529082018490524260608301526001600160a01b039081166080830152808716919088169063ffffffff8a16907f4fac0ff43299a330bce57d0579985305af580acf256a6d7977083ede81be13269060a00160405180910390a45050600180555050505050565b60405162461bcd60e51b815260206004820152601b60248201527f45524331313535206261746368206e6f7420737570706f7274656400000000006044820152600090606401610838565b60026001541415611b7f5760405162461bcd60e51b8152600401610838906157e7565b600260015563ffffffff81166000908152600460205260409020600601546001600160a01b0316338114611bc6576040516348c5194760e11b815260040160405180910390fd5b604051631c2d8fb360e31b81527f000000000000000000000000000000000000000000000000000000000000000060048201526000907f00000000000000000000000000000000000000000000000000000000000000006001600160a01b03169063e16c7d989060240160206040518083038186803b158015611c4857600080fd5b505afa158015611c5c573d6000803e3d6000fd5b505050506040513d601f19601f82011682018060405250810190611c809190614cd6565b604051631b982cf160e01b81529091506001600160a01b03821690631b982cf190611cb19086908690600401615a43565b600060405180830381600087803b158015611ccb57600080fd5b505af1158015611cdf573d6000803e3d6000fd5b50505063ffffffff909316600090815260046020526040902060060180546001600160a01b031916905550506001805550565b611d1a611205565b15611d375760405162461bcd60e51b815260040161083890615788565b60026001541415611d5a5760405162461bcd60e51b8152600401610838906157e7565b60026001556060850151600090611d70906126ff565b9050611d7c8682612825565b611d858661290c565b611d8e85613238565b610996611d9b8783612932565b611dad846000015185602001516129e6565b8888888861325e565b60026001541415611dd95760405162461bcd60e51b8152600401610838906157e7565b60026001553360009081526009602090815260408083206001600160a01b038516845290915290205480611e205760405163073ad17560e51b815260040160405180910390fd5b611e346001600160a01b0383163383612617565b3360009081526009602090815260408083206001600160a01b03861684528252808320839055600890915281208054839290611e71908490615bfd565b9091555050600180555050565b60026001541415611ea15760405162461bcd60e51b8152600401610838906157e7565b600260015560405163364d0abb60e11b8152734b45B6fC98616D4A3E9c59395d4526a863202B6e90636c9a157690611eff9084907f000000000000000000000000000000000000000000000000000000000000000090600401615a43565b60006040518083038186803b158015611f1757600080fd5b505af4158015611f2b573d6000803e3d6000fd5b50505050600080600080611f3e85611ff2565b9350935093509350610987858585856133e2565b33611f5b61164f565b6001600160a01b031614611f815760405162461bcd60e51b8152600401610838906157b2565b6001600160a01b038116611fe65760405162461bcd60e51b815260206004820152602660248201527f4f776e61626c653a206e6577206f776e657220697320746865207a65726f206160448201526564647265737360d01b6064820152608401610838565b611fef81613805565b50565b600080611ffd6148d3565b604051631c2d8fb360e31b81527f000000000000000000000000000000000000000000000000000000000000000060048201526000907f00000000000000000000000000000000000000000000000000000000000000006001600160a01b03169063e16c7d989060240160206040518083038186803b15801561207f57600080fd5b505afa158015612093573d6000803e3d6000fd5b505050506040513d601f19601f820116820180604052508101906120b79190614cd6565b60405163e6c5a54160e01b815263ffffffff871660048201529091506000906001600160a01b0383169063e6c5a5419060240160606040518083038186803b15801561210257600080fd5b505afa158015612116573d6000803e3d6000fd5b505050506040513d601f19601f8201168201806040525081019061213a91906150a3565b60208181015163ffffffff898116600090815260048085526040918290208251610160810184528154815260018201549681019690965260028101549286019290925260038201546001600160a01b038082166060880152600160a01b8083049095166080880152600160c01b820461ffff90811660a0890152600160d01b90920490911660c08701529082015480821660e08701526001600160401b0393900483166101008601526005820154811661012086015260069091015416610140840181905292965092935091909116901561221c57836101400151955061230d565b826001600160a01b0316638208e76c6040518163ffffffff1660e01b815260040160206040518083038186803b15801561225557600080fd5b505afa158015612269573d6000803e3d6000fd5b505050506040513d601f19601f8201168201806040525081019061228d9190614cd6565b6001600160a01b0316636352211e826040518263ffffffff1660e01b81526004016122ba91815260200190565b60206040518083038186803b1580156122d257600080fd5b505afa1580156122e6573d6000803e3d6000fd5b505050506040513d601f19601f8201168201806040525081019061230a9190614cd6565b95505b826001600160a01b0316634fbe68a06040518163ffffffff1660e01b815260040160206040518083038186803b15801561234657600080fd5b505afa15801561235a573d6000803e3d6000fd5b505050506040513d601f19601f8201168201806040525081019061237e9190614cd6565b6001600160a01b0316636352211e826040518263ffffffff1660e01b81526004016123ab91815260200190565b60206040518083038186803b1580156123c357600080fd5b505afa1580156123d7573d6000803e3d6000fd5b505050506040513d601f19601f820116820180604052508101906123fb9190614cd6565b945050509193509193565b63ffffffff84166000908152600560209081526040808320815160608101835290546001600160a01b038116825261ffff600160a01b8204811694830194909452600160b01b900490921690820152908061246084613855565b6060860151919350915061247f906001600160a01b031633878461391e565b6020830151604051637f5e0ed360e01b81526004810184905261ffff9091166024820152600090734b45B6fC98616D4A3E9c59395d4526a863202B6e90637f5e0ed39060440160206040518083038186803b1580156124dd57600080fd5b505af41580156124f1573d6000803e3d6000fd5b505050506040513d601f19601f820116820180604052508101906125159190615312565b9050600081118015612530575083516001600160a01b031615155b1561255f5761253f8184615bfd565b8451606087015191945061255f916001600160a01b03169033908461391e565b6125813361256b61164f565b60608801516001600160a01b031691908661391e565b856001600160a01b0316876001600160a01b03168963ffffffff167f3687d64f40b11dd1c102a76882ac1735891c546a96ae27935eb5c7865b9d86fa886000015189604001518789888c600001518e61012001518f606001516040516125ee9897969594939291906159fe565b60405180910390a45050505050505050565b61260c85848484613945565b610aca8330866139de565b6116138363a9059cbb60e01b8484604051602401612636929190615743565b60408051601f198184030181529190526020810180516001600160e01b03166001600160e01b031990931692909217909152613a81565b612675611205565b6126b85760405162461bcd60e51b815260206004820152601460248201527314185d5cd8589b194e881b9bdd081c185d5cd95960621b6044820152606401610838565b6000805460ff60a01b191690557f5db9ee0a495bf2e6ff9c91a7834c1ba4fdd244a5e8aa4e537bd38aeae4b073aa335b6040516126f5919061570b565b60405180910390a1565b604051631c2d8fb360e31b81526d5045524d49545445445f4e46545360901b60048201526000907f00000000000000000000000000000000000000000000000000000000000000006001600160a01b03169063e16c7d989060240160206040518083038186803b15801561277257600080fd5b505afa158015612786573d6000803e3d6000fd5b505050506040513d601f19601f820116820180604052508101906127aa9190614cd6565b6001600160a01b031663b8c8aff8836040518263ffffffff1660e01b81526004016127d5919061570b565b60206040518083038186803b1580156127ed57600080fd5b505afa158015612801573d6000803e3d6000fd5b505050506040513d601f19601f820116820180604052508101906107f29190614cd6565b60c08201516001600160a01b03166000908152600b602052604090205460ff1661286257604051633bf6dbbd60e11b815260040160405180910390fd5b6001600160a01b03811661288957604051634499a26b60e01b815260040160405180910390fd5b600254826080015163ffffffff1611156128b657604051631c71337360e11b815260040160405180910390fd5b608082015163ffffffff166128de5760405163f883f39d60e01b815260040160405180910390fd5b60035460a083015161ffff90811691161461154957604051635b5e710360e01b815260040160405180910390fd5b805160208201511015611fef57604051635169219960e01b815260040160405180910390fd5b61293a6148d3565b6040518061016001604052808460000151815260200184602001518152602001846040015181526020018460c001516001600160a01b03168152602001846080015163ffffffff168152602001600061ffff1681526020018460a0015161ffff168152602001836001600160a01b03168152602001426001600160401b0316815260200184606001516001600160a01b03168152602001336001600160a01b0316815250905092915050565b6040805160608101825260008082526020820181905291810191909152604080516060810182526001600160a01b0380861680835292516347e332df60e11b815260048101939093527f0000000000000000000000000000000000000000000000000000000000000000166024830152906020820190734b45B6fC98616D4A3E9c59395d4526a863202B6e90638fc665be9060440160206040518083038186803b158015612a9357600080fd5b505af4158015612aa7573d6000803e3d6000fd5b505050506040513d601f19601f82011682018060405250810190612acb91906152de565b61ffff1681526020018361ffff16815250905092915050565b6040808301516001600160a01b03166000908152600a60209081528282208551835290529081205460ff1615612b2d57604051633ab3447f60e11b815260040160405180910390fd5b600c5460208301516001600160a01b03908116911614612b605760405163120d418960e01b815260040160405180910390fd5b60006040808601919091525163eb2ac63f60e01b81528490736AFd80bBc24123Ab9ec630b239D0DEFb40D35e389063eb2ac63f90612ba4908490889060040161596f565b60206040518083038186803b158015612bbc57600080fd5b505af4158015612bd0573d6000803e3d6000fd5b505050506040513d601f19601f82011682018060405250810190612bf4919061504f565b612c1157604051636d2a03cf60e01b815260040160405180910390fd5b612c25846060015133896040015186613b53565b612c4257604051630174878360e51b815260040160405180910390fd5b6000612c61612c4f6112af565b89893389604001518b60e00151613c1a565b905084604001516001600160a01b0316336001600160a01b03168263ffffffff167f42cc7f53ef7b494c5dd6f0095175f7d07b5d3d7b2a03f34389fea445ba4a3a8b8b8b604051612cb392919061581e565b60405180910390a4979650505050505050565b6001600160a01b038216612ced57604051636e8ab17b60e11b815260040160405180910390fd5b6001600160a01b0382166000818152600b6020908152604091829020805460ff191685151590811790915591519182527ff100355be652ecc881568750e6a98c0713e4316f75d5314ebc9039e0acb52f24910160405180910390a25050565b612d54611205565b15612d715760405162461bcd60e51b815260040161083890615788565b6000805460ff60a01b1916600160a01b1790557f62e78cea01bee320cd4e420270b5ea74000d11b0c9f74754ebdbfc544b05a2586126e83390565b63ffffffff87166000908152600460208190526040808320905163b5ec526360e01b81529092918291734b45B6fC98616D4A3E9c59395d4526a863202B6e9163b5ec526391612e279187918f918f918f918e917f00000000000000000000000000000000000000000000000000000000000000009101615864565b604080518083038186803b158015612e3e57600080fd5b505af4158015612e52573d6000803e3d6000fd5b505050506040513d601f19601f82011682018060405250810190612e769190614cf2565b6001600160a01b0381166000818152600a602090815260408083208c8452825291829020805460ff1916600117905581516080810183528b81529081018a905280820192909252606082018890525163d06ff74160e01b8152929450909250736AFd80bBc24123Ab9ec630b239D0DEFb40D35e389163d06ff74191612f05918e918e918e918e91600401615b35565b60206040518083038186803b158015612f1d57600080fd5b505af4158015612f31573d6000803e3d6000fd5b505050506040513d601f19601f82011682018060405250810190612f55919061504f565b612f725760405163e83dc84b60e01b815260040160405180910390fd5b6000871561305c576003840154604051632ad659af60e01b8152600481018a9052600160d01b90910461ffff166024820152734b45B6fC98616D4A3E9c59395d4526a863202B6e90632ad659af9060440160206040518083038186803b158015612fdb57600080fd5b505af4158015612fef573d6000803e3d6000fd5b505050506040513d601f19601f820116820180604052508101906130139190615312565b905061303a8383613024848c615bfd565b60038801546001600160a01b031692919061391e565b61305c8361304661164f565b60038701546001600160a01b031691908461391e565b60038401805463ffffffff60a01b1916600160a01b63ffffffff8d16021790556001840189905560068401546001600160a01b03166130b3576006840180546001600160a01b0319166001600160a01b0385161790555b604051631c2d8fb360e31b81527f000000000000000000000000000000000000000000000000000000000000000060048201527f00000000000000000000000000000000000000000000000000000000000000006001600160a01b03169063e16c7d989060240160206040518083038186803b15801561313257600080fd5b505afa158015613146573d6000803e3d6000fd5b505050506040513d601f19601f8201168201806040525081019061316a9190614cd6565b6001600160a01b031663072db1478c846040518363ffffffff1660e01b8152600401613197929190615a43565b600060405180830381600087803b1580156131b157600080fd5b505af11580156131c5573d6000803e3d6000fd5b50506040805163ffffffff8e81168252602082018e90529181018c9052606081018590526001600160a01b03808716945087169250908e16907f37357bed780fda5aed28c32fe9cd762cb2f2f8a70c0d9b342aba59c945943ca09060800160405180910390a45050505050505050505050565b602081015181511115611fef5760405163813d0b5b60e01b815260040160405180910390fd5b6040808301516001600160a01b03166000908152600a6020908152828220855183529052205460ff16156132a557604051633ab3447f60e11b815260040160405180910390fd5b600c5460208201516001600160a01b039081169116146132d85760405163120d418960e01b815260040160405180910390fd5b8251604087015110806132f2575082602001518660400151115b156133105760405163227d1a9160e11b815260040160405180910390fd5b6000604085015283613323818585613c40565b61334057604051636d2a03cf60e01b815260040160405180910390fd5b613354836060015133896040015185613b53565b61337157604051630174878360e51b815260040160405180910390fd5b600061339061337e6112af565b89893388604001518b60e00151613c1a565b905083604001516001600160a01b0316336001600160a01b03168263ffffffff167f42cc7f53ef7b494c5dd6f0095175f7d07b5d3d7b2a03f34389fea445ba4a3a8b8b8b6040516125ee92919061581e565b63ffffffff84166000908152600560209081526040808320815160608101835290546001600160a01b038116825261ffff600160a01b8204811694830194909452600160b01b900490921690820152908061343c84613855565b9150915083606001516001600160a01b03166323b872dd3387846040518463ffffffff1660e01b81526004016134749392919061571f565b602060405180830381600087803b15801561348e57600080fd5b505af19250505080156134be575060408051601f3d908101601f191682019092526134bb9181019061504f565b60015b6135845760608401516134dc906001600160a01b031633308461391e565b6001600160a01b038086166000908152600960209081526040808320606089015190941683529290529081208054839290613518908490615be5565b909155505060608401516001600160a01b031660009081526008602052604081208054839290613549908490615be5565b909155505060405163ffffffff8816907fe6dfda7486ec1e06f754c28be83c676af29b18143765a2843361313cdab2712590600090a2613586565b505b6020830151604051637f5e0ed360e01b81526004810184905261ffff9091166024820152600090734b45B6fC98616D4A3E9c59395d4526a863202B6e90637f5e0ed39060440160206040518083038186803b1580156135e457600080fd5b505af41580156135f8573d6000803e3d6000fd5b505050506040513d601f19601f8201168201806040525081019061361c9190615312565b9050600081118015613637575083516001600160a01b031615155b156136ef576136468184615bfd565b606086015185516040516323b872dd60e01b81529295506001600160a01b03909116916323b872dd9161368091339190869060040161571f565b602060405180830381600087803b15801561369a57600080fd5b505af19250505080156136ca575060408051601f3d908101601f191682019092526136c79181019061504f565b60015b6136ed5760608501516136e8906001600160a01b031633308461391e565b6136ef565b505b84606001516001600160a01b03166323b872dd3361370b61164f565b866040518463ffffffff1660e01b815260040161372a9392919061571f565b602060405180830381600087803b15801561374457600080fd5b505af1925050508015613774575060408051601f3d908101601f191682019092526137719181019061504f565b60015b613797576060850151613792906001600160a01b031633308661391e565b612581565b50856001600160a01b0316876001600160a01b03168963ffffffff167f3687d64f40b11dd1c102a76882ac1735891c546a96ae27935eb5c7865b9d86fa886000015189604001518789888c600001518e61012001518f606001516040516125ee9897969594939291906159fe565b600080546001600160a01b038381166001600160a01b0319831681178455604051919092169283917f8be0079c531659141344cd1fd0a4f28419497f9722a3daafe3b4186f6b6457e09190a35050565b60008060008360000151846020015161386e9190615bfd565b60c0850151604051632ad659af60e01b81526004810183905261ffff9091166024820152909150734b45B6fC98616D4A3E9c59395d4526a863202B6e90632ad659af9060440160206040518083038186803b1580156138cc57600080fd5b505af41580156138e0573d6000803e3d6000fd5b505050506040513d601f19601f820116820180604052508101906139049190615312565b92508284602001516139169190615bfd565b915050915091565b61393f846323b872dd60e01b8585856040516024016126369392919061571f565b50505050565b63ffffffff84166000908152600660209081526040808320805460ff191660019081179091556101208701516001600160a01b0316845260078352818420878301518552909252822080549192909161399f908490615bfd565b909155505060405163a4d0845d60e01b815263ffffffff8516600482015281151560248201526001600160a01b0383169063a4d0845d90604401610f20565b60e083015161012084015160408086015181516001600160a01b038781166024830152868116604483015290931660648401526084808401919091528151808403909101815260a49092018152602080830180516001600160e01b031663b030667160e01b17905281518083019092528082527f4e4654206e6f74207375636365737366756c6c79207472616e736665727265649082015261393f929190613c58565b6000613ad6826040518060400160405280602081526020017f5361666545524332303a206c6f772d6c6576656c2063616c6c206661696c6564815250856001600160a01b0316613d359092919063ffffffff16565b8051909150156116135780806020019051810190613af4919061504f565b6116135760405162461bcd60e51b815260206004820152602a60248201527f5361666545524332303a204552433230206f7065726174696f6e20646964206e6044820152691bdd081cdd58d8d9595960b21b6064820152608401610838565b8051600090421115613ba75760405162461bcd60e51b815260206004820152601a60248201527f50726f746f636f6c205369676e617475726520657870697265640000000000006044820152606401610838565b60208201516001600160a01b0316613bc157506000610801565b6020808301518351604051600093613bdf938a938a938a9301615660565b604051602081830303815290604052805190602001209050613c128360200151613c0883613d44565b8560400151613d97565b915050610801565b6000613c278685306139de565b613c35878787878787613ef1565b979650505050505050565b6000613c4e8484843061439e565b90505b9392505050565b60606001600160a01b0384163b613cc05760405162461bcd60e51b815260206004820152602660248201527f416464726573733a2064656c65676174652063616c6c20746f206e6f6e2d636f6044820152651b9d1c9858dd60d21b6064820152608401610838565b600080856001600160a01b031685604051613cdb9190615644565b600060405180830381855af49150503d8060008114613d16576040519150601f19603f3d011682016040523d82523d6000602084013e613d1b565b606091505b5091509150613d2b8282866144e6565b9695505050505050565b6060613c4e848460008561451f565b6040517f19457468657265756d205369676e6564204d6573736167653a0a3332000000006020820152603c8101829052600090605c01604051602081830303815290604052805190602001209050919050565b6000806000613da68585614645565b90925090506000816004811115613dcd57634e487b7160e01b600052602160045260246000fd5b148015613deb5750856001600160a01b0316826001600160a01b0316145b15613dfb57600192505050613c51565b600080876001600160a01b0316631626ba7e60e01b8888604051602401613e2392919061575c565b60408051601f198184030181529181526020820180516001600160e01b03166001600160e01b0319909416939093179092529051613e619190615644565b600060405180830381855afa9150503d8060008114613e9c576040519150601f19603f3d011682016040523d82523d6000602084013e613ea1565b606091505b5091509150818015613eb4575080516020145b8015613ee557508051630b135d3f60e11b90613ed99083016020908101908401615087565b6001600160e01b031916145b98975050505050505050565b6101208501516001600160a01b0316600090815260076020908152604080832081890151845290915281208054600191908390613f2f908490615be5565b909155505085516040868101519051637b2392f160e01b8152600481019290925261ffff1660248201526001600160a01b0383166044820152600090734b45B6fC98616D4A3E9c59395d4526a863202B6e90637b2392f19060640160206040518083038186803b158015613fa257600080fd5b505af4158015613fb6573d6000803e3d6000fd5b505050506040513d601f19601f82011682018060405250810190613fda9190615312565b90506000818860000151613fee9190615bfd565b90508115614010576060880151614010906001600160a01b031686868561391e565b606088015161402a906001600160a01b031686888461391e565b604051631c2d8fb360e31b81527f000000000000000000000000000000000000000000000000000000000000000060048201526000907f00000000000000000000000000000000000000000000000000000000000000006001600160a01b03169063e16c7d989060240160206040518083038186803b1580156140ac57600080fd5b505afa1580156140c0573d6000803e3d6000fd5b505050506040513d601f19601f820116820180604052508101906140e49190614cd6565b60405163d1f7659560e01b81529091506001600160a01b0382169063d1f76595906141159089908e90600401615743565b602060405180830381600087803b15801561412f57600080fd5b505af1158015614143573d6000803e3d6000fd5b505050506040513d601f19601f820116820180604052508101906141679190615346565b935088600460008663ffffffff1663ffffffff16815260200190815260200160002060008201518160000155602082015181600101556040820151816002015560608201518160030160006101000a8154816001600160a01b0302191690836001600160a01b0316021790555060808201518160030160146101000a81548163ffffffff021916908363ffffffff16021790555060a08201518160030160186101000a81548161ffff021916908361ffff16021790555060c082015181600301601a6101000a81548161ffff021916908361ffff16021790555060e08201518160040160006101000a8154816001600160a01b0302191690836001600160a01b031602179055506101008201518160040160146101000a8154816001600160401b0302191690836001600160401b031602179055506101208201518160050160006101000a8154816001600160a01b0302191690836001600160a01b031602179055506101408201518160060160006101000a8154816001600160a01b0302191690836001600160a01b0316021790555090505087600560008663ffffffff1663ffffffff16815260200190815260200160002060008201518160000160006101000a8154816001600160a01b0302191690836001600160a01b0316021790555060208201518160000160146101000a81548161ffff021916908361ffff16021790555060408201518160000160166101000a81548161ffff021916908361ffff1602179055509050505050509695505050505050565b600082602001514211156143f45760405162461bcd60e51b815260206004820152601c60248201527f4c656e646572205369676e6174757265206861732065787069726564000000006044820152606401610838565b6001600160a01b0382166144415760405162461bcd60e51b81526020600482015260146024820152734c6f616e206973207a65726f206164647265737360601b6044820152606401610838565b60408301516001600160a01b031661445b57506000610801565b6000614466866146b5565b8551602080880151604051614485939201918252602082015260400190565b60405160208183030381529060405261449d86614774565b85466040516020016144b39594939291906156ac565b604051602081830303815290604052805190602001209050613c1284604001516144dc83613d44565b8660600151613d97565b606083156144f5575081613c51565b8251156145055782518084602001fd5b8160405162461bcd60e51b81526004016108389190615775565b6060824710156145805760405162461bcd60e51b815260206004820152602660248201527f416464726573733a20696e73756666696369656e742062616c616e636520666f6044820152651c8818d85b1b60d21b6064820152608401610838565b6001600160a01b0385163b6145d75760405162461bcd60e51b815260206004820152601d60248201527f416464726573733a2063616c6c20746f206e6f6e2d636f6e74726163740000006044820152606401610838565b600080866001600160a01b031685876040516145f39190615644565b60006040518083038185875af1925050503d8060008114614630576040519150601f19603f3d011682016040523d82523d6000602084013e614635565b606091505b5091509150613c358282866144e6565b60008082516041141561467c5760208301516040840151606085015160001a614670878285856147b7565b945094505050506146ae565b8251604014156146a6576020830151604084015161469b86838361489a565b9350935050506146ae565b506000905060025b9250929050565b60608160c0015182600001518360200151846060015185604001518660e0015187608001518860a0015160405160200161475e989796959493929190606098891b6001600160601b031990811682526014820198909852603481019690965293871b86166054860152606885019290925290941b909216608882015260e09290921b6001600160e01b031916609c83015260f01b6001600160f01b03191660a082015260a20190565b6040516020818303038152906040529050919050565b606081604001518260000151836020015160405160200161475e9392919060609390931b6001600160601b03191683526014830191909152603482015260540190565b6000806fa2a8918ca85bafe22016d0b997e4df60600160ff1b038311156147e45750600090506003614891565b8460ff16601b141580156147fc57508460ff16601c14155b1561480d5750600090506004614891565b6040805160008082526020820180845289905260ff881692820192909252606081018690526080810185905260019060a0016020604051602081039080840390855afa158015614861573d6000803e3d6000fd5b5050604051601f1901519150506001600160a01b03811661488a57600060019250925050614891565b9150600090505b94509492505050565b6000806001600160ff1b038316816148b760ff86901c601b615be5565b90506148c5878288856147b7565b935093505050935093915050565b6040805161016081018252600080825260208201819052918101829052606081018290526080810182905260a0810182905260c0810182905260e081018290526101008101829052610120810182905261014081019190915290565b803561493a81615c87565b919050565b600082601f83011261494f578081fd5b8135602061496461495f83615bc2565b615b92565b80838252828201915082860187848660051b8901011115614983578586fd5b855b858110156149aa57813561499881615c9c565b84529284019290840190600101614985565b5090979650505050505050565b60008083601f8401126149c8578182fd5b5081356001600160401b038111156149de578182fd5b6020830191508360208260051b85010111156146ae57600080fd5b60008083601f840112614a0a578182fd5b5081356001600160401b03811115614a20578182fd5b6020830191508360208285010111156146ae57600080fd5b600082601f830112614a48578081fd5b81356001600160401b03811115614a6157614a61615c71565b614a74601f8201601f1916602001615b92565b818152846020838601011115614a88578283fd5b816020850160208301379081016020019190915292915050565b600060408284031215614ab3578081fd5b614abb615b6a565b90508135614ac881615c87565b81526020820135614ad881615cc0565b602082015292915050565b6000610100808385031215614af6578182fd5b604051908101906001600160401b0382118183101715614b1857614b18615c71565b81604052809250833581526020840135602082015260408401356040820152614b436060850161492f565b6060820152614b5460808501614caf565b6080820152614b6560a08501614ca4565b60a0820152614b7660c0850161492f565b60c0820152614b8760e0850161492f565b60e0820152505092915050565b600060608284031215614ba5578081fd5b604051606081016001600160401b038282108183111715614bc857614bc8615c71565b816040528293508435835260208501359150614be382615c87565b8160208401526040850135915080821115614bfd57600080fd5b50614c0a85828601614a38565b6040830152505092915050565b600060808284031215614c28578081fd5b604051608081016001600160401b038282108183111715614c4b57614c4b615c71565b81604052829350843583526020850135602084015260408501359150614c7082615c87565b8160408401526060850135915080821115614c8a57600080fd5b50614c9785828601614a38565b6060830152505092915050565b803561493a81615cc0565b803561493a81615cd0565b600060208284031215614ccb578081fd5b8135613c5181615c87565b600060208284031215614ce7578081fd5b8151613c5181615c87565b60008060408385031215614d04578081fd5b8251614d0f81615c87565b6020840151909250614d2081615c87565b809150509250929050565b60008060008060008060008060a0898b031215614d46578384fd5b8835614d5181615c87565b97506020890135614d6181615c87565b965060408901356001600160401b0380821115614d7c578586fd5b614d888c838d016149b7565b909850965060608b0135915080821115614da0578586fd5b614dac8c838d016149b7565b909650945060808b0135915080821115614dc4578384fd5b50614dd18b828c016149f9565b999c989b5096995094979396929594505050565b60008060008060808587031215614dfa578182fd5b8435614e0581615c87565b93506020850135614e1581615c87565b92506040850135915060608501356001600160401b03811115614e36578182fd5b614e4287828801614a38565b91505092959194509250565b60008060008060008060a08789031215614e66578384fd5b8635614e7181615c87565b95506020870135614e8181615c87565b9450604087013593506060870135925060808701356001600160401b03811115614ea9578283fd5b614eb589828a016149f9565b979a9699509497509295939492505050565b60008060408385031215614ed9578182fd5b8235614ee481615c87565b91506020830135614d2081615c9c565b60008060408385031215614f06578182fd5b8235614f1181615c87565b946020939093013593505050565b60008060408385031215614f31578182fd5b8251614f3c81615c87565b6020939093015192949293505050565b600080600060608486031215614f60578081fd5b8335614f6b81615c87565b9250602084013591506040840135614f8281615c87565b809150509250925092565b60008060408385031215614f9f578182fd5b82356001600160401b0380821115614fb5578384fd5b818501915085601f830112614fc8578384fd5b81356020614fd861495f83615bc2565b8083825282820191508286018a848660051b8901011115614ff7578889fd5b8896505b8487101561502257803561500e81615c87565b835260019690960195918301918301614ffb565b5096505086013592505080821115615038578283fd5b506150458582860161493f565b9150509250929050565b600060208284031215615060578081fd5b8151613c5181615c9c565b60006020828403121561507c578081fd5b8135613c5181615caa565b600060208284031215615098578081fd5b8151613c5181615caa565b6000606082840312156150b4578081fd5b604051606081016001600160401b0382821081831117156150d7576150d7615c71565b81604052845191506150e882615c87565b90825260208401519080821682146150fe578384fd5b506020820152604083015160048110615115578283fd5b60408201529392505050565b60008060008060008587036101c081121561513a578384fd5b6151448888614ae3565b9550604060ff1982011215615157578384fd5b50615160615b6a565b6101008701358152610120870135602082015293506101408601356001600160401b038082111561518f578485fd5b61519b89838a01614c17565b94506101608801359150808211156151b1578283fd5b506151be88828901614b94565b9250506151cf876101808801614aa2565b90509295509295909350565b600080600061016084860312156151f0578081fd5b6151fa8585614ae3565b92506101008401356001600160401b03811115615215578182fd5b61522186828701614c17565b925050615232856101208601614aa2565b90509250925092565b6000806000806101808587031215615251578182fd5b61525b8686614ae3565b93506101008501356001600160401b0380821115615277578384fd5b61528388838901614c17565b9450610120870135915080821115615299578384fd5b506152a687828801614b94565b9250506152b7866101408701614aa2565b905092959194509250565b6000602082840312156152d3578081fd5b8135613c5181615cc0565b6000602082840312156152ef578081fd5b8151613c5181615cc0565b60006020828403121561530b578081fd5b5035919050565b600060208284031215615323578081fd5b5051919050565b60006020828403121561533b578081fd5b8135613c5181615cd0565b600060208284031215615357578081fd5b8151613c5181615cd0565b60008060008060608587031215615377578182fd5b843561538281615cd0565b9350602085013561539281615c87565b925060408501356001600160401b038111156153ac578283fd5b6153b8878288016149f9565b95989497509550505050565b60008060008060008060008060e0898b0312156153df578182fd5b88356153ea81615cd0565b975060208901356153fa81615c87565b965060408901356001600160401b03811115615414578283fd5b6154208b828c016149f9565b909750955050606089013561543481615c87565b93506080890135925060a089013561544b81615c9c565b8092505060c089013590509295985092959890939650565b600080600080600080600060e0888a03121561547d578081fd5b873561548881615cd0565b9650602088013561549881615cd0565b955060408801359450606088013593506080880135925060a0880135915060c08801356001600160401b038111156154ce578182fd5b6154da8a828b01614a38565b91505092959891949750929550565b6001600160a01b03169052565b81835281816020850137506000828201602090810191909152601f909101601f19169091010190565b60008151808452615537816020860160208601615c14565b601f01601f19169290920160200192915050565b805182526020810151602083015260408101516040830152606081015161557560608401826154e9565b50608081015161558d608084018263ffffffff169052565b5060a08101516155a360a084018261ffff169052565b5060c08101516155b960c084018261ffff169052565b5060e08101516155cc60e08401826154e9565b50610100818101516001600160401b031690830152610120808201516155f4828501826154e9565b50506101408082015161393f828501826154e9565b805182526020810151602083015260018060a01b0360408201511660408301526000606082015160806060850152610801608085018261551f565b60008251615656818460208701615c14565b9190910192915050565b60008651615672818460208b01615c14565b6001600160601b0319606097881b8116919093019081526014810195909552509190931b1660348201526048810191909152606801919050565b600086516156be818460208b01615c14565b8651908301906156d2818360208b01615c14565b86519101906156e5818360208a01615c14565b60609590951b6001600160601b0319169401938452505060148201526034019392505050565b6001600160a01b0391909116815260200190565b6001600160a01b039384168152919092166020820152604081019190915260600190565b6001600160a01b03929092168252602082015260400190565b828152604060208201526000613c4e604083018461551f565b602081526000613c51602083018461551f565b60208082526010908201526f14185d5cd8589b194e881c185d5cd95960821b604082015260600190565b6020808252818101527f4f776e61626c653a2063616c6c6572206973206e6f7420746865206f776e6572604082015260600190565b6020808252601f908201527f5265656e7472616e637947756172643a207265656e7472616e742063616c6c00604082015260600190565b6101c0810161582d828561554b565b82516001600160a01b0316610160830152602083015161ffff9081166101808401526040909301519092166101a090910152919050565b86548152600187015460208201526002870154604082015260038701546102008201906001600160a01b0361589e606085018284166154e9565b60a082901c63ffffffff16608085015261ffff60c083901c811660a08601526158d260c08601828560d01c1661ffff169052565b5060048a015491506158e960e085018284166154e9565b5060a081901c6001600160401b03166101008401525060058801546001600160a01b031661591b6101208401826154e9565b5060068801546001600160a01b03166159386101408401826154e9565b5063ffffffff871661016083015263ffffffff8616610180830152846101a0830152836101c0830152613c356101e08301846154e9565b600061012084518352602085015160208401526040850151604084015260018060a01b03606086015116606084015263ffffffff608086015116608084015261ffff60a08601511660a084015260c08501516159ce60c08501826154e9565b5060e08501516159e160e08501826154e9565b50806101008401526159f581840185615609565b95945050505050565b97885260208801969096526040870194909452606086019290925260808501526001600160a01b0390811660a085015290811660c08401521660e08201526101000190565b63ffffffff9290921682526001600160a01b0316602082015260400190565b600061026063ffffffff8d168352615a7d602084018d61554b565b6001600160a01b038b81166101808501526101a08401829052615aa38285018b8d6154f6565b9881166101c08501526101e084019790975250509215156102008401526102208301919091529091166102409091015295945050505050565b60006101e063ffffffff89168352615af7602084018961554b565b6001600160a01b038781166101808501526101a08401829052615b1d82850187896154f6565b92508085166101c08501525050979650505050505050565b600063ffffffff808816835280871660208401525084604083015283606083015260a06080830152613c3560a0830184615609565b604080519081016001600160401b0381118282101715615b8c57615b8c615c71565b60405290565b604051601f8201601f191681016001600160401b0381118282101715615bba57615bba615c71565b604052919050565b60006001600160401b03821115615bdb57615bdb615c71565b5060051b60200190565b60008219821115615bf857615bf8615c5b565b500190565b600082821015615c0f57615c0f615c5b565b500390565b60005b83811015615c2f578181015183820152602001615c17565b8381111561393f5750506000910152565b6000600019821415615c5457615c54615c5b565b5060010190565b634e487b7160e01b600052601160045260246000fd5b634e487b7160e01b600052604160045260246000fd5b6001600160a01b0381168114611fef57600080fd5b8015158114611fef57600080fd5b6001600160e01b031981168114611fef57600080fd5b61ffff81168114611fef57600080fd5b63ffffffff81168114611fef57600080fdfea164736f6c6343000804000a",
  "deployedBytecode": "0x608060405234801561001057600080fd5b50600436106102695760003560e01c80636ed93dd011610151578063ac4e35ea116100c3578063dd41ed3e11610087578063dd41ed3e14610727578063ddfddad61461073a578063e61b16a81461074d578063eda928ab14610760578063f23a6e6114610773578063f2fde38b1461079357600080fd5b8063ac4e35ea146106c8578063b18e7772146106db578063b31ec1d4146106ee578063bc197c8114610701578063bce42e421461071457600080fd5b8063872873be11610115578063872873be146106375780638da5cb5b146106635780638f9bb71d1461066b5780639658e4051461067e578063a4441a6f14610691578063ab3b12801461069f57600080fd5b80636ed93dd0146105c657806377cfa991146105e25780637836baf11461060957806379b640401461061c5780638456cb591461062f57600080fd5b8063328404b0116101ea57806356efe98c116101ae57806356efe98c1461055557806359a727341461057d5780635c975abb146105905780635ecd7e6d14610598578063616693d8146105ab578063657a88a1146105b357600080fd5b8063328404b0146104ba578063365a86fc146104f35780633f4ba83a1461052757806347948d921461052f5780635163a1c31461054257600080fd5b80631c6caf41116102315780631c6caf4114610366578063227cda181461037b5780632b218022146104815780632c1d4ec214610494578063318dacd3146104a757600080fd5b806301ffc9a71461026e5780630717f3aa146102965780630ff81c3f146102b9578063150b7a0214610323578063192b355d1461034f575b600080fd5b61028161027c36600461506b565b6107a6565b60405190151581526020015b60405180910390f35b6102816102a436600461532a565b60066020526000908152604090205460ff1681565b6102f96102c736600461532a565b6005602052600090815260409020546001600160a01b0381169061ffff600160a01b8204811691600160b01b90041683565b604080516001600160a01b03909416845261ffff928316602085015291169082015260600161028d565b610336610331366004614de5565b6107f8565b6040516001600160e01b0319909116815260200161028d565b61035860025481565b60405190815260200161028d565b6103796103743660046152c2565b610809565b005b61040d61038936600461532a565b600460208190526000918252604090912080546001820154600283015460038401549484015460058501546006909501549395929491936001600160a01b0380851694600160a01b80820463ffffffff1695600160c01b830461ffff90811696600160d01b909404169484841694929093046001600160401b03169290821691168b565b604080519b8c5260208c019a909a52988a01979097526001600160a01b0395861660608a015263ffffffff909416608089015261ffff92831660a0890152911660c0870152821660e08601526001600160401b0316610100850152908116610120840152166101408201526101600161028d565b61037961048f36600461532a565b6108b3565b6103796104a2366004614f4c565b6109a2565b6103796104b53660046153c4565b610ad1565b6102816104c8366004614ef4565b6001600160a01b03919091166000908152600a60209081526040808320938352929052205460ff1690565b61051a7f000000000000000000000000000000000000000000000000000000000000000081565b60405161028d919061570b565b610379610d1a565b61037961053d3660046152fa565b610d53565b610379610550366004614f4c565b610ddc565b6105686105633660046151db565b610f58565b60405163ffffffff909116815260200161028d565b61037961058b36600461532a565b610fc1565b610281611205565b6103796105a636600461523b565b611215565b6103586112af565b6103796105c1366004615362565b6112d3565b6105cf61271081565b60405161ffff909116815260200161028d565b6103587f000000000000000000000000000000000000000000000000000000000000000081565b610379610617366004614ec7565b611510565b61037961062a366004614f8d565b61154d565b610379611618565b610281610645366004614cba565b6001600160a01b03166000908152600b602052604090205460ff1690565b61051a61164f565b610379610679366004614cba565b61165e565b61037961068c3660046152fa565b6116af565b6003546105cf9061ffff1681565b6103586106ad36600461532a565b63ffffffff1660009081526004602052604090206001015490565b6103796106d6366004614f4c565b611711565b6103796106e9366004615463565b6118a8565b6103796106fc36600461532a565b611911565b61033661070f366004614d2b565b611b11565b61037961072236600461532a565b611b5c565b610379610735366004615121565b611d12565b610379610748366004614cba565b611db6565b600c5461051a906001600160a01b031681565b61037961076e36600461532a565b611e7e565b610336610781366004614e4e565b63f23a6e6160e01b9695505050505050565b6103796107a1366004614cba565b611f52565b60006001600160e01b03198216630271189760e51b14806107d757506001600160e01b03198216630a85bd0160e11b145b806107f257506001600160e01b031982166301ffc9a760e01b145b92915050565b630a85bd0160e11b5b949350505050565b3361081261164f565b6001600160a01b0316146108415760405162461bcd60e51b8152600401610838906157b2565b60405180910390fd5b61271061ffff82161115610868576040516314004bcf60e21b815260040160405180910390fd5b6003805461ffff191661ffff83169081179091556040519081527f03017365bbe16943b524030df07e7689168ab63e854d27417498e6f9dc584dab906020015b60405180910390a150565b600260015414156108d65760405162461bcd60e51b8152600401610838906157e7565b600260015560405163364d0abb60e11b815273__$1291e1ff22aea68c4ae26c19e2b9f8f397$__90636c9a1576906109349084907f000000000000000000000000000000000000000000000000000000000000000090600401615a43565b60006040518083038186803b15801561094c57600080fd5b505af4158015610960573d6000803e3d6000fd5b5050505060008060008061097385611ff2565b935093509350935061098785858585612406565b60016109968686858585612600565b50506001805550505050565b336109ab61164f565b6001600160a01b0316146109d15760405162461bcd60e51b8152600401610838906157b2565b6040516370a0823160e01b815283906000906001600160a01b038316906370a0823190610a0290309060040161570b565b60206040518083038186803b158015610a1a57600080fd5b505afa158015610a2e573d6000803e3d6000fd5b505050506040513d601f19601f82011682018060405250810190610a529190615312565b905080610a72576040516334b5d06d60e21b815260040160405180910390fd5b6001600160a01b0385166000908152600860205260409020548490610a979083615bfd565b1015610ab65760405163368e910d60e21b815260040160405180910390fd5b610aca6001600160a01b0383168486612617565b5050505050565b60026001541415610af45760405162461bcd60e51b8152600401610838906157e7565b6002600155604051635bfd0fb160e11b815273__$1291e1ff22aea68c4ae26c19e2b9f8f397$__9063b7fa1f6290610b52908b907f000000000000000000000000000000000000000000000000000000000000000090600401615a43565b60006040518083038186803b158015610b6a57600080fd5b505af4158015610b7e573d6000803e3d6000fd5b5050505063ffffffff881660009081526006602052604090205460ff1615610bb957604051633db5ad0160e11b815260040160405180910390fd5b63ffffffff8881166000908152600460208181526040928390208351610160810185528154815260018201549281019290925260028101548285015260038101546001600160a01b038082166060850152600160a01b8083049097166080850152600160c01b820461ffff90811660a0860152600160d01b90920490911660c08401528184015480821660e0850152959095046001600160401b03166101008301526005810154851661012083015260060154909316610140840152905163491bd44160e11b815273__$f4648c37a6443643782b15e2e6be9a7811$__91639237a88291610cdb918d9186918e918e918e918e918e918e918e917f00000000000000000000000000000000000000000000000000000000000000009101615a62565b60006040518083038186803b158015610cf357600080fd5b505af4158015610d07573d6000803e3d6000fd5b5050600180555050505050505050505050565b33610d2361164f565b6001600160a01b031614610d495760405162461bcd60e51b8152600401610838906157b2565b610d5161266d565b565b33610d5c61164f565b6001600160a01b031614610d825760405162461bcd60e51b8152600401610838906157b2565b63ffffffff811115610da757604051630737847960e51b815260040160405180910390fd5b60028190556040518181527f64f65a4a1a932867ad599da36210fc47c698b3abb2413cfdfd36bf59697a69cb906020016108a8565b33610de561164f565b6001600160a01b031614610e0b5760405162461bcd60e51b8152600401610838906157b2565b6001600160a01b0383166000908152600760209081526040808320858452909152902054839015610e4f57604051636a32439f60e01b815260040160405180910390fd5b6040516331a9108f60e11b81526004810184905230906001600160a01b03831690636352211e9060240160206040518083038186803b158015610e9157600080fd5b505afa158015610ea5573d6000803e3d6000fd5b505050506040513d601f19601f82011682018060405250810190610ec99190614cd6565b6001600160a01b031614610ef05760405163ca5ae8a360e01b815260040160405180910390fd5b604051632142170760e11b81526001600160a01b038216906342842e0e90610f209030908690889060040161571f565b600060405180830381600087803b158015610f3a57600080fd5b505af1158015610f4e573d6000803e3d6000fd5b5050505050505050565b6000610f62611205565b15610f7f5760405162461bcd60e51b815260040161083890615788565b60026001541415610fa25760405162461bcd60e51b8152600401610838906157e7565b60026001556040805163160b89f160e31b815290519081900360040190fd5b60026001541415610fe45760405162461bcd60e51b8152600401610838906157e7565b6002600155604051635bfd0fb160e11b815273__$1291e1ff22aea68c4ae26c19e2b9f8f397$__9063b7fa1f62906110429084907f000000000000000000000000000000000000000000000000000000000000000090600401615a43565b60006040518083038186803b15801561105a57600080fd5b505af415801561106e573d6000803e3d6000fd5b5050505063ffffffff811660009081526006602052604090205460ff16156110a957604051633db5ad0160e11b815260040160405180910390fd5b63ffffffff8116600090815260046020908152604080832060058101546001600160a01b0316845260078352818420600282015485529092528220805491926001926110f6908490615bfd565b9091555050604051631276b77d60e11b815263ffffffff83166004820152602481018290526001600160a01b037f0000000000000000000000000000000000000000000000000000000000000000166044820152600090819073__$f4648c37a6443643782b15e2e6be9a7811$__906324ed6efa90606401604080518083038186803b15801561118557600080fd5b505af4158015611199573d6000803e3d6000fd5b505050506040513d601f19601f820116820180604052508101906111bd9190614f1f565b6001600160a01b0382166000908152600760209081526040808320848452909152812080549395509193506001926111f6908490615be5565b90915550506001805550505050565b600054600160a01b900460ff1690565b61121d611205565b1561123a5760405162461bcd60e51b815260040161083890615788565b6002600154141561125d5760405162461bcd60e51b8152600401610838906157e7565b60026001556060840151600090611273906126ff565b905061127f8582612825565b6112888561290c565b6109966112958683612932565b6112a7846000015185602001516129e6565b878787612ae4565b7f4449524543545f4c4f414e5f46495845445f434f4c4c454354494f4e0000000090565b600260015414156112f65760405162461bcd60e51b8152600401610838906157e7565b6002600155604051635bfd0fb160e11b815273__$1291e1ff22aea68c4ae26c19e2b9f8f397$__9063b7fa1f62906113549087907f000000000000000000000000000000000000000000000000000000000000000090600401615a43565b60006040518083038186803b15801561136c57600080fd5b505af4158015611380573d6000803e3d6000fd5b5050505063ffffffff841660009081526006602052604090205460ff16156113bb57604051633db5ad0160e11b815260040160405180910390fd5b63ffffffff8481166000908152600460208181526040928390208351610160810185528154815260018201549281019290925260028101548285015260038101546001600160a01b038082166060850152600160a01b8083049097166080850152600160c01b820461ffff90811660a0860152600160d01b90920490911660c08401528184015480821660e0850152959095046001600160401b0316610100830152600581015485166101208301526006015490931661014084015290516361ec917160e11b815273__$f4648c37a6443643782b15e2e6be9a7811$__9163c3d922e2916114d591899186918a918a918a917f00000000000000000000000000000000000000000000000000000000000000009101615adc565b60006040518083038186803b1580156114ed57600080fd5b505af4158015611501573d6000803e3d6000fd5b50506001805550505050505050565b3361151961164f565b6001600160a01b03161461153f5760405162461bcd60e51b8152600401610838906157b2565b6115498282612cc6565b5050565b3361155661164f565b6001600160a01b03161461157c5760405162461bcd60e51b8152600401610838906157b2565b805182511461159d57604051621dbe8b60e81b815260040160405180910390fd5b60005b8251811015611613576116018382815181106115cc57634e487b7160e01b600052603260045260246000fd5b60200260200101518383815181106115f457634e487b7160e01b600052603260045260246000fd5b6020026020010151612cc6565b8061160b81615c40565b9150506115a0565b505050565b3361162161164f565b6001600160a01b0316146116475760405162461bcd60e51b8152600401610838906157b2565b610d51612d4c565b6000546001600160a01b031690565b3361166761164f565b6001600160a01b03161461168d5760405162461bcd60e51b8152600401610838906157b2565b600c80546001600160a01b0319166001600160a01b0392909216919091179055565b336000908152600a6020908152604080832084845290915290205460ff16156116eb57604051633ab3447f60e11b815260040160405180910390fd5b336000908152600a6020908152604080832093835292905220805460ff19166001179055565b3361171a61164f565b6001600160a01b0316146117405760405162461bcd60e51b8152600401610838906157b2565b604051627eeac760e11b815283906000906001600160a01b0383169062fdd58e906117719030908890600401615743565b60206040518083038186803b15801561178957600080fd5b505afa15801561179d573d6000803e3d6000fd5b505050506040513d601f19601f820116820180604052508101906117c19190615312565b6001600160a01b03861660009081526007602090815260408083208884529091529020549091501561180657604051636a32439f60e01b815260040160405180910390fd5b806118245760405163f266c3ab60e01b815260040160405180910390fd5b604051637921219560e11b81523060048201526001600160a01b038481166024830152604482018690526064820183905260a06084830152600060a483015283169063f242432a9060c401600060405180830381600087803b15801561188957600080fd5b505af115801561189d573d6000803e3d6000fd5b505050505050505050565b6118b0611205565b156118cd5760405162461bcd60e51b815260040161083890615788565b600260015414156118f05760405162461bcd60e51b8152600401610838906157e7565b600260015561190487878787878787612dac565b5050600180555050505050565b600260015414156119345760405162461bcd60e51b8152600401610838906157e7565b6002600155604051635bfd0fb160e11b815273__$1291e1ff22aea68c4ae26c19e2b9f8f397$__9063b7fa1f62906119929084907f000000000000000000000000000000000000000000000000000000000000000090600401615a43565b60006040518083038186803b1580156119aa57600080fd5b505af41580156119be573d6000803e3d6000fd5b5050505063ffffffff811660009081526006602052604090205460ff16156119f957604051633db5ad0160e11b815260040160405180910390fd5b600080600080611a0885611ff2565b93509350935093506000826080015163ffffffff168361010001516001600160401b0316611a369190615be5565b9050804211611a585760405163477e47f960e11b815260040160405180910390fd5b336001600160a01b03851614611a8157604051633c35984560e11b815260040160405180910390fd5b6000611a908786868685612600565b8351604080860151610120870151825193845260208401919091529082018490524260608301526001600160a01b039081166080830152808716919088169063ffffffff8a16907f4fac0ff43299a330bce57d0579985305af580acf256a6d7977083ede81be13269060a00160405180910390a45050600180555050505050565b60405162461bcd60e51b815260206004820152601b60248201527f45524331313535206261746368206e6f7420737570706f7274656400000000006044820152600090606401610838565b60026001541415611b7f5760405162461bcd60e51b8152600401610838906157e7565b600260015563ffffffff81166000908152600460205260409020600601546001600160a01b0316338114611bc6576040516348c5194760e11b815260040160405180910390fd5b604051631c2d8fb360e31b81527f000000000000000000000000000000000000000000000000000000000000000060048201526000907f00000000000000000000000000000000000000000000000000000000000000006001600160a01b03169063e16c7d989060240160206040518083038186803b158015611c4857600080fd5b505afa158015611c5c573d6000803e3d6000fd5b505050506040513d601f19601f82011682018060405250810190611c809190614cd6565b604051631b982cf160e01b81529091506001600160a01b03821690631b982cf190611cb19086908690600401615a43565b600060405180830381600087803b158015611ccb57600080fd5b505af1158015611cdf573d6000803e3d6000fd5b50505063ffffffff909316600090815260046020526040902060060180546001600160a01b031916905550506001805550565b611d1a611205565b15611d375760405162461bcd60e51b815260040161083890615788565b60026001541415611d5a5760405162461bcd60e51b8152600401610838906157e7565b60026001556060850151600090611d70906126ff565b9050611d7c8682612825565b611d858661290c565b611d8e85613238565b610996611d9b8783612932565b611dad846000015185602001516129e6565b8888888861325e565b60026001541415611dd95760405162461bcd60e51b8152600401610838906157e7565b60026001553360009081526009602090815260408083206001600160a01b038516845290915290205480611e205760405163073ad17560e51b815260040160405180910390fd5b611e346001600160a01b0383163383612617565b3360009081526009602090815260408083206001600160a01b03861684528252808320839055600890915281208054839290611e71908490615bfd565b9091555050600180555050565b60026001541415611ea15760405162461bcd60e51b8152600401610838906157e7565b600260015560405163364d0abb60e11b815273__$1291e1ff22aea68c4ae26c19e2b9f8f397$__90636c9a157690611eff9084907f000000000000000000000000000000000000000000000000000000000000000090600401615a43565b60006040518083038186803b158015611f1757600080fd5b505af4158015611f2b573d6000803e3d6000fd5b50505050600080600080611f3e85611ff2565b9350935093509350610987858585856133e2565b33611f5b61164f565b6001600160a01b031614611f815760405162461bcd60e51b8152600401610838906157b2565b6001600160a01b038116611fe65760405162461bcd60e51b815260206004820152602660248201527f4f776e61626c653a206e6577206f776e657220697320746865207a65726f206160448201526564647265737360d01b6064820152608401610838565b611fef81613805565b50565b600080611ffd6148d3565b604051631c2d8fb360e31b81527f000000000000000000000000000000000000000000000000000000000000000060048201526000907f00000000000000000000000000000000000000000000000000000000000000006001600160a01b03169063e16c7d989060240160206040518083038186803b15801561207f57600080fd5b505afa158015612093573d6000803e3d6000fd5b505050506040513d601f19601f820116820180604052508101906120b79190614cd6565b60405163e6c5a54160e01b815263ffffffff871660048201529091506000906001600160a01b0383169063e6c5a5419060240160606040518083038186803b15801561210257600080fd5b505afa158015612116573d6000803e3d6000fd5b505050506040513d601f19601f8201168201806040525081019061213a91906150a3565b60208181015163ffffffff898116600090815260048085526040918290208251610160810184528154815260018201549681019690965260028101549286019290925260038201546001600160a01b038082166060880152600160a01b8083049095166080880152600160c01b820461ffff90811660a0890152600160d01b90920490911660c08701529082015480821660e08701526001600160401b0393900483166101008601526005820154811661012086015260069091015416610140840181905292965092935091909116901561221c57836101400151955061230d565b826001600160a01b0316638208e76c6040518163ffffffff1660e01b815260040160206040518083038186803b15801561225557600080fd5b505afa158015612269573d6000803e3d6000fd5b505050506040513d601f19601f8201168201806040525081019061228d9190614cd6565b6001600160a01b0316636352211e826040518263ffffffff1660e01b81526004016122ba91815260200190565b60206040518083038186803b1580156122d257600080fd5b505afa1580156122e6573d6000803e3d6000fd5b505050506040513d601f19601f8201168201806040525081019061230a9190614cd6565b95505b826001600160a01b0316634fbe68a06040518163ffffffff1660e01b815260040160206040518083038186803b15801561234657600080fd5b505afa15801561235a573d6000803e3d6000fd5b505050506040513d601f19601f8201168201806040525081019061237e9190614cd6565b6001600160a01b0316636352211e826040518263ffffffff1660e01b81526004016123ab91815260200190565b60206040518083038186803b1580156123c357600080fd5b505afa1580156123d7573d6000803e3d6000fd5b505050506040513d601f19601f820116820180604052508101906123fb9190614cd6565b945050509193509193565b63ffffffff84166000908152600560209081526040808320815160608101835290546001600160a01b038116825261ffff600160a01b8204811694830194909452600160b01b900490921690820152908061246084613855565b6060860151919350915061247f906001600160a01b031633878461391e565b6020830151604051637f5e0ed360e01b81526004810184905261ffff909116602482015260009073__$1291e1ff22aea68c4ae26c19e2b9f8f397$__90637f5e0ed39060440160206040518083038186803b1580156124dd57600080fd5b505af41580156124f1573d6000803e3d6000fd5b505050506040513d601f19601f820116820180604052508101906125159190615312565b9050600081118015612530575083516001600160a01b031615155b1561255f5761253f8184615bfd565b8451606087015191945061255f916001600160a01b03169033908461391e565b6125813361256b61164f565b60608801516001600160a01b031691908661391e565b856001600160a01b0316876001600160a01b03168963ffffffff167f3687d64f40b11dd1c102a76882ac1735891c546a96ae27935eb5c7865b9d86fa886000015189604001518789888c600001518e61012001518f606001516040516125ee9897969594939291906159fe565b60405180910390a45050505050505050565b61260c85848484613945565b610aca8330866139de565b6116138363a9059cbb60e01b8484604051602401612636929190615743565b60408051601f198184030181529190526020810180516001600160e01b03166001600160e01b031990931692909217909152613a81565b612675611205565b6126b85760405162461bcd60e51b815260206004820152601460248201527314185d5cd8589b194e881b9bdd081c185d5cd95960621b6044820152606401610838565b6000805460ff60a01b191690557f5db9ee0a495bf2e6ff9c91a7834c1ba4fdd244a5e8aa4e537bd38aeae4b073aa335b6040516126f5919061570b565b60405180910390a1565b604051631c2d8fb360e31b81526d5045524d49545445445f4e46545360901b60048201526000907f00000000000000000000000000000000000000000000000000000000000000006001600160a01b03169063e16c7d989060240160206040518083038186803b15801561277257600080fd5b505afa158015612786573d6000803e3d6000fd5b505050506040513d601f19601f820116820180604052508101906127aa9190614cd6565b6001600160a01b031663b8c8aff8836040518263ffffffff1660e01b81526004016127d5919061570b565b60206040518083038186803b1580156127ed57600080fd5b505afa158015612801573d6000803e3d6000fd5b505050506040513d601f19601f820116820180604052508101906107f29190614cd6565b60c08201516001600160a01b03166000908152600b602052604090205460ff1661286257604051633bf6dbbd60e11b815260040160405180910390fd5b6001600160a01b03811661288957604051634499a26b60e01b815260040160405180910390fd5b600254826080015163ffffffff1611156128b657604051631c71337360e11b815260040160405180910390fd5b608082015163ffffffff166128de5760405163f883f39d60e01b815260040160405180910390fd5b60035460a083015161ffff90811691161461154957604051635b5e710360e01b815260040160405180910390fd5b805160208201511015611fef57604051635169219960e01b815260040160405180910390fd5b61293a6148d3565b6040518061016001604052808460000151815260200184602001518152602001846040015181526020018460c001516001600160a01b03168152602001846080015163ffffffff168152602001600061ffff1681526020018460a0015161ffff168152602001836001600160a01b03168152602001426001600160401b0316815260200184606001516001600160a01b03168152602001336001600160a01b0316815250905092915050565b6040805160608101825260008082526020820181905291810191909152604080516060810182526001600160a01b0380861680835292516347e332df60e11b815260048101939093527f000000000000000000000000000000000000000000000000000000000000000016602483015290602082019073__$1291e1ff22aea68c4ae26c19e2b9f8f397$__90638fc665be9060440160206040518083038186803b158015612a9357600080fd5b505af4158015612aa7573d6000803e3d6000fd5b505050506040513d601f19601f82011682018060405250810190612acb91906152de565b61ffff1681526020018361ffff16815250905092915050565b6040808301516001600160a01b03166000908152600a60209081528282208551835290529081205460ff1615612b2d57604051633ab3447f60e11b815260040160405180910390fd5b600c5460208301516001600160a01b03908116911614612b605760405163120d418960e01b815260040160405180910390fd5b60006040808601919091525163eb2ac63f60e01b8152849073__$07730b9b91c2b41a419f99961f709e7858$__9063eb2ac63f90612ba4908490889060040161596f565b60206040518083038186803b158015612bbc57600080fd5b505af4158015612bd0573d6000803e3d6000fd5b505050506040513d601f19601f82011682018060405250810190612bf4919061504f565b612c1157604051636d2a03cf60e01b815260040160405180910390fd5b612c25846060015133896040015186613b53565b612c4257604051630174878360e51b815260040160405180910390fd5b6000612c61612c4f6112af565b89893389604001518b60e00151613c1a565b905084604001516001600160a01b0316336001600160a01b03168263ffffffff167f42cc7f53ef7b494c5dd6f0095175f7d07b5d3d7b2a03f34389fea445ba4a3a8b8b8b604051612cb392919061581e565b60405180910390a4979650505050505050565b6001600160a01b038216612ced57604051636e8ab17b60e11b815260040160405180910390fd5b6001600160a01b0382166000818152600b6020908152604091829020805460ff191685151590811790915591519182527ff100355be652ecc881568750e6a98c0713e4316f75d5314ebc9039e0acb52f24910160405180910390a25050565b612d54611205565b15612d715760405162461bcd60e51b815260040161083890615788565b6000805460ff60a01b1916600160a01b1790557f62e78cea01bee320cd4e420270b5ea74000d11b0c9f74754ebdbfc544b05a2586126e83390565b63ffffffff87166000908152600460208190526040808320905163b5ec526360e01b8152909291829173__$1291e1ff22aea68c4ae26c19e2b9f8f397$__9163b5ec526391612e279187918f918f918f918e917f00000000000000000000000000000000000000000000000000000000000000009101615864565b604080518083038186803b158015612e3e57600080fd5b505af4158015612e52573d6000803e3d6000fd5b505050506040513d601f19601f82011682018060405250810190612e769190614cf2565b6001600160a01b0381166000818152600a602090815260408083208c8452825291829020805460ff1916600117905581516080810183528b81529081018a905280820192909252606082018890525163d06ff74160e01b815292945090925073__$07730b9b91c2b41a419f99961f709e7858$__9163d06ff74191612f05918e918e918e918e91600401615b35565b60206040518083038186803b158015612f1d57600080fd5b505af4158015612f31573d6000803e3d6000fd5b505050506040513d601f19601f82011682018060405250810190612f55919061504f565b612f725760405163e83dc84b60e01b815260040160405180910390fd5b6000871561305c576003840154604051632ad659af60e01b8152600481018a9052600160d01b90910461ffff16602482015273__$1291e1ff22aea68c4ae26c19e2b9f8f397$__90632ad659af9060440160206040518083038186803b158015612fdb57600080fd5b505af4158015612fef573d6000803e3d6000fd5b505050506040513d601f19601f820116820180604052508101906130139190615312565b905061303a8383613024848c615bfd565b60038801546001600160a01b031692919061391e565b61305c8361304661164f565b60038701546001600160a01b031691908461391e565b60038401805463ffffffff60a01b1916600160a01b63ffffffff8d16021790556001840189905560068401546001600160a01b03166130b3576006840180546001600160a01b0319166001600160a01b0385161790555b604051631c2d8fb360e31b81527f000000000000000000000000000000000000000000000000000000000000000060048201527f00000000000000000000000000000000000000000000000000000000000000006001600160a01b03169063e16c7d989060240160206040518083038186803b15801561313257600080fd5b505afa158015613146573d6000803e3d6000fd5b505050506040513d601f19601f8201168201806040525081019061316a9190614cd6565b6001600160a01b031663072db1478c846040518363ffffffff1660e01b8152600401613197929190615a43565b600060405180830381600087803b1580156131b157600080fd5b505af11580156131c5573d6000803e3d6000fd5b50506040805163ffffffff8e81168252602082018e90529181018c9052606081018590526001600160a01b03808716945087169250908e16907f37357bed780fda5aed28c32fe9cd762cb2f2f8a70c0d9b342aba59c945943ca09060800160405180910390a45050505050505050505050565b602081015181511115611fef5760405163813d0b5b60e01b815260040160405180910390fd5b6040808301516001600160a01b03166000908152600a6020908152828220855183529052205460ff16156132a557604051633ab3447f60e11b815260040160405180910390fd5b600c5460208201516001600160a01b039081169116146132d85760405163120d418960e01b815260040160405180910390fd5b8251604087015110806132f2575082602001518660400151115b156133105760405163227d1a9160e11b815260040160405180910390fd5b6000604085015283613323818585613c40565b61334057604051636d2a03cf60e01b815260040160405180910390fd5b613354836060015133896040015185613b53565b61337157604051630174878360e51b815260040160405180910390fd5b600061339061337e6112af565b89893388604001518b60e00151613c1a565b905083604001516001600160a01b0316336001600160a01b03168263ffffffff167f42cc7f53ef7b494c5dd6f0095175f7d07b5d3d7b2a03f34389fea445ba4a3a8b8b8b6040516125ee92919061581e565b63ffffffff84166000908152600560209081526040808320815160608101835290546001600160a01b038116825261ffff600160a01b8204811694830194909452600160b01b900490921690820152908061343c84613855565b9150915083606001516001600160a01b03166323b872dd3387846040518463ffffffff1660e01b81526004016134749392919061571f565b602060405180830381600087803b15801561348e57600080fd5b505af19250505080156134be575060408051601f3d908101601f191682019092526134bb9181019061504f565b60015b6135845760608401516134dc906001600160a01b031633308461391e565b6001600160a01b038086166000908152600960209081526040808320606089015190941683529290529081208054839290613518908490615be5565b909155505060608401516001600160a01b031660009081526008602052604081208054839290613549908490615be5565b909155505060405163ffffffff8816907fe6dfda7486ec1e06f754c28be83c676af29b18143765a2843361313cdab2712590600090a2613586565b505b6020830151604051637f5e0ed360e01b81526004810184905261ffff909116602482015260009073__$1291e1ff22aea68c4ae26c19e2b9f8f397$__90637f5e0ed39060440160206040518083038186803b1580156135e457600080fd5b505af41580156135f8573d6000803e3d6000fd5b505050506040513d601f19601f8201168201806040525081019061361c9190615312565b9050600081118015613637575083516001600160a01b031615155b156136ef576136468184615bfd565b606086015185516040516323b872dd60e01b81529295506001600160a01b03909116916323b872dd9161368091339190869060040161571f565b602060405180830381600087803b15801561369a57600080fd5b505af19250505080156136ca575060408051601f3d908101601f191682019092526136c79181019061504f565b60015b6136ed5760608501516136e8906001600160a01b031633308461391e565b6136ef565b505b84606001516001600160a01b03166323b872dd3361370b61164f565b866040518463ffffffff1660e01b815260040161372a9392919061571f565b602060405180830381600087803b15801561374457600080fd5b505af1925050508015613774575060408051601f3d908101601f191682019092526137719181019061504f565b60015b613797576060850151613792906001600160a01b031633308661391e565b612581565b50856001600160a01b0316876001600160a01b03168963ffffffff167f3687d64f40b11dd1c102a76882ac1735891c546a96ae27935eb5c7865b9d86fa886000015189604001518789888c600001518e61012001518f606001516040516125ee9897969594939291906159fe565b600080546001600160a01b038381166001600160a01b0319831681178455604051919092169283917f8be0079c531659141344cd1fd0a4f28419497f9722a3daafe3b4186f6b6457e09190a35050565b60008060008360000151846020015161386e9190615bfd565b60c0850151604051632ad659af60e01b81526004810183905261ffff909116602482015290915073__$1291e1ff22aea68c4ae26c19e2b9f8f397$__90632ad659af9060440160206040518083038186803b1580156138cc57600080fd5b505af41580156138e0573d6000803e3d6000fd5b505050506040513d601f19601f820116820180604052508101906139049190615312565b92508284602001516139169190615bfd565b915050915091565b61393f846323b872dd60e01b8585856040516024016126369392919061571f565b50505050565b63ffffffff84166000908152600660209081526040808320805460ff191660019081179091556101208701516001600160a01b0316845260078352818420878301518552909252822080549192909161399f908490615bfd565b909155505060405163a4d0845d60e01b815263ffffffff8516600482015281151560248201526001600160a01b0383169063a4d0845d90604401610f20565b60e083015161012084015160408086015181516001600160a01b038781166024830152868116604483015290931660648401526084808401919091528151808403909101815260a49092018152602080830180516001600160e01b031663b030667160e01b17905281518083019092528082527f4e4654206e6f74207375636365737366756c6c79207472616e736665727265649082015261393f929190613c58565b6000613ad6826040518060400160405280602081526020017f5361666545524332303a206c6f772d6c6576656c2063616c6c206661696c6564815250856001600160a01b0316613d359092919063ffffffff16565b8051909150156116135780806020019051810190613af4919061504f565b6116135760405162461bcd60e51b815260206004820152602a60248201527f5361666545524332303a204552433230206f7065726174696f6e20646964206e6044820152691bdd081cdd58d8d9595960b21b6064820152608401610838565b8051600090421115613ba75760405162461bcd60e51b815260206004820152601a60248201527f50726f746f636f6c205369676e617475726520657870697265640000000000006044820152606401610838565b60208201516001600160a01b0316613bc157506000610801565b6020808301518351604051600093613bdf938a938a938a9301615660565b604051602081830303815290604052805190602001209050613c128360200151613c0883613d44565b8560400151613d97565b915050610801565b6000613c278685306139de565b613c35878787878787613ef1565b979650505050505050565b6000613c4e8484843061439e565b90505b9392505050565b60606001600160a01b0384163b613cc05760405162461bcd60e51b815260206004820152602660248201527f416464726573733a2064656c65676174652063616c6c20746f206e6f6e2d636f6044820152651b9d1c9858dd60d21b6064820152608401610838565b600080856001600160a01b031685604051613cdb9190615644565b600060405180830381855af49150503d8060008114613d16576040519150601f19603f3d011682016040523d82523d6000602084013e613d1b565b606091505b5091509150613d2b8282866144e6565b9695505050505050565b6060613c4e848460008561451f565b6040517f19457468657265756d205369676e6564204d6573736167653a0a3332000000006020820152603c8101829052600090605c01604051602081830303815290604052805190602001209050919050565b6000806000613da68585614645565b90925090506000816004811115613dcd57634e487b7160e01b600052602160045260246000fd5b148015613deb5750856001600160a01b0316826001600160a01b0316145b15613dfb57600192505050613c51565b600080876001600160a01b0316631626ba7e60e01b8888604051602401613e2392919061575c565b60408051601f198184030181529181526020820180516001600160e01b03166001600160e01b0319909416939093179092529051613e619190615644565b600060405180830381855afa9150503d8060008114613e9c576040519150601f19603f3d011682016040523d82523d6000602084013e613ea1565b606091505b5091509150818015613eb4575080516020145b8015613ee557508051630b135d3f60e11b90613ed99083016020908101908401615087565b6001600160e01b031916145b98975050505050505050565b6101208501516001600160a01b0316600090815260076020908152604080832081890151845290915281208054600191908390613f2f908490615be5565b909155505085516040868101519051637b2392f160e01b8152600481019290925261ffff1660248201526001600160a01b038316604482015260009073__$1291e1ff22aea68c4ae26c19e2b9f8f397$__90637b2392f19060640160206040518083038186803b158015613fa257600080fd5b505af4158015613fb6573d6000803e3d6000fd5b505050506040513d601f19601f82011682018060405250810190613fda9190615312565b90506000818860000151613fee9190615bfd565b90508115614010576060880151614010906001600160a01b031686868561391e565b606088015161402a906001600160a01b031686888461391e565b604051631c2d8fb360e31b81527f000000000000000000000000000000000000000000000000000000000000000060048201526000907f00000000000000000000000000000000000000000000000000000000000000006001600160a01b03169063e16c7d989060240160206040518083038186803b1580156140ac57600080fd5b505afa1580156140c0573d6000803e3d6000fd5b505050506040513d601f19601f820116820180604052508101906140e49190614cd6565b60405163d1f7659560e01b81529091506001600160a01b0382169063d1f76595906141159089908e90600401615743565b602060405180830381600087803b15801561412f57600080fd5b505af1158015614143573d6000803e3d6000fd5b505050506040513d601f19601f820116820180604052508101906141679190615346565b935088600460008663ffffffff1663ffffffff16815260200190815260200160002060008201518160000155602082015181600101556040820151816002015560608201518160030160006101000a8154816001600160a01b0302191690836001600160a01b0316021790555060808201518160030160146101000a81548163ffffffff021916908363ffffffff16021790555060a08201518160030160186101000a81548161ffff021916908361ffff16021790555060c082015181600301601a6101000a81548161ffff021916908361ffff16021790555060e08201518160040160006101000a8154816001600160a01b0302191690836001600160a01b031602179055506101008201518160040160146101000a8154816001600160401b0302191690836001600160401b031602179055506101208201518160050160006101000a8154816001600160a01b0302191690836001600160a01b031602179055506101408201518160060160006101000a8154816001600160a01b0302191690836001600160a01b0316021790555090505087600560008663ffffffff1663ffffffff16815260200190815260200160002060008201518160000160006101000a8154816001600160a01b0302191690836001600160a01b0316021790555060208201518160000160146101000a81548161ffff021916908361ffff16021790555060408201518160000160166101000a81548161ffff021916908361ffff1602179055509050505050509695505050505050565b600082602001514211156143f45760405162461bcd60e51b815260206004820152601c60248201527f4c656e646572205369676e6174757265206861732065787069726564000000006044820152606401610838565b6001600160a01b0382166144415760405162461bcd60e51b81526020600482015260146024820152734c6f616e206973207a65726f206164647265737360601b6044820152606401610838565b60408301516001600160a01b031661445b57506000610801565b6000614466866146b5565b8551602080880151604051614485939201918252602082015260400190565b60405160208183030381529060405261449d86614774565b85466040516020016144b39594939291906156ac565b604051602081830303815290604052805190602001209050613c1284604001516144dc83613d44565b8660600151613d97565b606083156144f5575081613c51565b8251156145055782518084602001fd5b8160405162461bcd60e51b81526004016108389190615775565b6060824710156145805760405162461bcd60e51b815260206004820152602660248201527f416464726573733a20696e73756666696369656e742062616c616e636520666f6044820152651c8818d85b1b60d21b6064820152608401610838565b6001600160a01b0385163b6145d75760405162461bcd60e51b815260206004820152601d60248201527f416464726573733a2063616c6c20746f206e6f6e2d636f6e74726163740000006044820152606401610838565b600080866001600160a01b031685876040516145f39190615644565b60006040518083038185875af1925050503d8060008114614630576040519150601f19603f3d011682016040523d82523d6000602084013e614635565b606091505b5091509150613c358282866144e6565b60008082516041141561467c5760208301516040840151606085015160001a614670878285856147b7565b945094505050506146ae565b8251604014156146a6576020830151604084015161469b86838361489a565b9350935050506146ae565b506000905060025b9250929050565b60608160c0015182600001518360200151846060015185604001518660e0015187608001518860a0015160405160200161475e989796959493929190606098891b6001600160601b031990811682526014820198909852603481019690965293871b86166054860152606885019290925290941b909216608882015260e09290921b6001600160e01b031916609c83015260f01b6001600160f01b03191660a082015260a20190565b6040516020818303038152906040529050919050565b606081604001518260000151836020015160405160200161475e9392919060609390931b6001600160601b03191683526014830191909152603482015260540190565b6000806fa2a8918ca85bafe22016d0b997e4df60600160ff1b038311156147e45750600090506003614891565b8460ff16601b141580156147fc57508460ff16601c14155b1561480d5750600090506004614891565b6040805160008082526020820180845289905260ff881692820192909252606081018690526080810185905260019060a0016020604051602081039080840390855afa158015614861573d6000803e3d6000fd5b5050604051601f1901519150506001600160a01b03811661488a57600060019250925050614891565b9150600090505b94509492505050565b6000806001600160ff1b038316816148b760ff86901c601b615be5565b90506148c5878288856147b7565b935093505050935093915050565b6040805161016081018252600080825260208201819052918101829052606081018290526080810182905260a0810182905260c0810182905260e081018290526101008101829052610120810182905261014081019190915290565b803561493a81615c87565b919050565b600082601f83011261494f578081fd5b8135602061496461495f83615bc2565b615b92565b80838252828201915082860187848660051b8901011115614983578586fd5b855b858110156149aa57813561499881615c9c565b84529284019290840190600101614985565b5090979650505050505050565b60008083601f8401126149c8578182fd5b5081356001600160401b038111156149de578182fd5b6020830191508360208260051b85010111156146ae57600080fd5b60008083601f840112614a0a578182fd5b5081356001600160401b03811115614a20578182fd5b6020830191508360208285010111156146ae57600080fd5b600082601f830112614a48578081fd5b81356001600160401b03811115614a6157614a61615c71565b614a74601f8201601f1916602001615b92565b818152846020838601011115614a88578283fd5b816020850160208301379081016020019190915292915050565b600060408284031215614ab3578081fd5b614abb615b6a565b90508135614ac881615c87565b81526020820135614ad881615cc0565b602082015292915050565b6000610100808385031215614af6578182fd5b604051908101906001600160401b0382118183101715614b1857614b18615c71565b81604052809250833581526020840135602082015260408401356040820152614b436060850161492f565b6060820152614b5460808501614caf565b6080820152614b6560a08501614ca4565b60a0820152614b7660c0850161492f565b60c0820152614b8760e0850161492f565b60e0820152505092915050565b600060608284031215614ba5578081fd5b604051606081016001600160401b038282108183111715614bc857614bc8615c71565b816040528293508435835260208501359150614be382615c87565b8160208401526040850135915080821115614bfd57600080fd5b50614c0a85828601614a38565b6040830152505092915050565b600060808284031215614c28578081fd5b604051608081016001600160401b038282108183111715614c4b57614c4b615c71565b81604052829350843583526020850135602084015260408501359150614c7082615c87565b8160408401526060850135915080821115614c8a57600080fd5b50614c9785828601614a38565b6060830152505092915050565b803561493a81615cc0565b803561493a81615cd0565b600060208284031215614ccb578081fd5b8135613c5181615c87565b600060208284031215614ce7578081fd5b8151613c5181615c87565b60008060408385031215614d04578081fd5b8251614d0f81615c87565b6020840151909250614d2081615c87565b809150509250929050565b60008060008060008060008060a0898b031215614d46578384fd5b8835614d5181615c87565b97506020890135614d6181615c87565b965060408901356001600160401b0380821115614d7c578586fd5b614d888c838d016149b7565b909850965060608b0135915080821115614da0578586fd5b614dac8c838d016149b7565b909650945060808b0135915080821115614dc4578384fd5b50614dd18b828c016149f9565b999c989b5096995094979396929594505050565b60008060008060808587031215614dfa578182fd5b8435614e0581615c87565b93506020850135614e1581615c87565b92506040850135915060608501356001600160401b03811115614e36578182fd5b614e4287828801614a38565b91505092959194509250565b60008060008060008060a08789031215614e66578384fd5b8635614e7181615c87565b95506020870135614e8181615c87565b9450604087013593506060870135925060808701356001600160401b03811115614ea9578283fd5b614eb589828a016149f9565b979a9699509497509295939492505050565b60008060408385031215614ed9578182fd5b8235614ee481615c87565b91506020830135614d2081615c9c565b60008060408385031215614f06578182fd5b8235614f1181615c87565b946020939093013593505050565b60008060408385031215614f31578182fd5b8251614f3c81615c87565b6020939093015192949293505050565b600080600060608486031215614f60578081fd5b8335614f6b81615c87565b9250602084013591506040840135614f8281615c87565b809150509250925092565b60008060408385031215614f9f578182fd5b82356001600160401b0380821115614fb5578384fd5b818501915085601f830112614fc8578384fd5b81356020614fd861495f83615bc2565b8083825282820191508286018a848660051b8901011115614ff7578889fd5b8896505b8487101561502257803561500e81615c87565b835260019690960195918301918301614ffb565b5096505086013592505080821115615038578283fd5b506150458582860161493f565b9150509250929050565b600060208284031215615060578081fd5b8151613c5181615c9c565b60006020828403121561507c578081fd5b8135613c5181615caa565b600060208284031215615098578081fd5b8151613c5181615caa565b6000606082840312156150b4578081fd5b604051606081016001600160401b0382821081831117156150d7576150d7615c71565b81604052845191506150e882615c87565b90825260208401519080821682146150fe578384fd5b506020820152604083015160048110615115578283fd5b60408201529392505050565b60008060008060008587036101c081121561513a578384fd5b6151448888614ae3565b9550604060ff1982011215615157578384fd5b50615160615b6a565b6101008701358152610120870135602082015293506101408601356001600160401b038082111561518f578485fd5b61519b89838a01614c17565b94506101608801359150808211156151b1578283fd5b506151be88828901614b94565b9250506151cf876101808801614aa2565b90509295509295909350565b600080600061016084860312156151f0578081fd5b6151fa8585614ae3565b92506101008401356001600160401b03811115615215578182fd5b61522186828701614c17565b925050615232856101208601614aa2565b90509250925092565b6000806000806101808587031215615251578182fd5b61525b8686614ae3565b93506101008501356001600160401b0380821115615277578384fd5b61528388838901614c17565b9450610120870135915080821115615299578384fd5b506152a687828801614b94565b9250506152b7866101408701614aa2565b905092959194509250565b6000602082840312156152d3578081fd5b8135613c5181615cc0565b6000602082840312156152ef578081fd5b8151613c5181615cc0565b60006020828403121561530b578081fd5b5035919050565b600060208284031215615323578081fd5b5051919050565b60006020828403121561533b578081fd5b8135613c5181615cd0565b600060208284031215615357578081fd5b8151613c5181615cd0565b60008060008060608587031215615377578182fd5b843561538281615cd0565b9350602085013561539281615c87565b925060408501356001600160401b038111156153ac578283fd5b6153b8878288016149f9565b95989497509550505050565b60008060008060008060008060e0898b0312156153df578182fd5b88356153ea81615cd0565b975060208901356153fa81615c87565b965060408901356001600160401b03811115615414578283fd5b6154208b828c016149f9565b909750955050606089013561543481615c87565b93506080890135925060a089013561544b81615c9c565b8092505060c089013590509295985092959890939650565b600080600080600080600060e0888a03121561547d578081fd5b873561548881615cd0565b9650602088013561549881615cd0565b955060408801359450606088013593506080880135925060a0880135915060c08801356001600160401b038111156154ce578182fd5b6154da8a828b01614a38565b91505092959891949750929550565b6001600160a01b03169052565b81835281816020850137506000828201602090810191909152601f909101601f19169091010190565b60008151808452615537816020860160208601615c14565b601f01601f19169290920160200192915050565b805182526020810151602083015260408101516040830152606081015161557560608401826154e9565b50608081015161558d608084018263ffffffff169052565b5060a08101516155a360a084018261ffff169052565b5060c08101516155b960c084018261ffff169052565b5060e08101516155cc60e08401826154e9565b50610100818101516001600160401b031690830152610120808201516155f4828501826154e9565b50506101408082015161393f828501826154e9565b805182526020810151602083015260018060a01b0360408201511660408301526000606082015160806060850152610801608085018261551f565b60008251615656818460208701615c14565b9190910192915050565b60008651615672818460208b01615c14565b6001600160601b0319606097881b8116919093019081526014810195909552509190931b1660348201526048810191909152606801919050565b600086516156be818460208b01615c14565b8651908301906156d2818360208b01615c14565b86519101906156e5818360208a01615c14565b60609590951b6001600160601b0319169401938452505060148201526034019392505050565b6001600160a01b0391909116815260200190565b6001600160a01b039384168152919092166020820152604081019190915260600190565b6001600160a01b03929092168252602082015260400190565b828152604060208201526000613c4e604083018461551f565b602081526000613c51602083018461551f565b60208082526010908201526f14185d5cd8589b194e881c185d5cd95960821b604082015260600190565b6020808252818101527f4f776e61626c653a2063616c6c6572206973206e6f7420746865206f776e6572604082015260600190565b6020808252601f908201527f5265656e7472616e637947756172643a207265656e7472616e742063616c6c00604082015260600190565b6101c0810161582d828561554b565b82516001600160a01b0316610160830152602083015161ffff9081166101808401526040909301519092166101a090910152919050565b86548152600187015460208201526002870154604082015260038701546102008201906001600160a01b0361589e606085018284166154e9565b60a082901c63ffffffff16608085015261ffff60c083901c811660a08601526158d260c08601828560d01c1661ffff169052565b5060048a015491506158e960e085018284166154e9565b5060a081901c6001600160401b03166101008401525060058801546001600160a01b031661591b6101208401826154e9565b5060068801546001600160a01b03166159386101408401826154e9565b5063ffffffff871661016083015263ffffffff8616610180830152846101a0830152836101c0830152613c356101e08301846154e9565b600061012084518352602085015160208401526040850151604084015260018060a01b03606086015116606084015263ffffffff608086015116608084015261ffff60a08601511660a084015260c08501516159ce60c08501826154e9565b5060e08501516159e160e08501826154e9565b50806101008401526159f581840185615609565b95945050505050565b97885260208801969096526040870194909452606086019290925260808501526001600160a01b0390811660a085015290811660c08401521660e08201526101000190565b63ffffffff9290921682526001600160a01b0316602082015260400190565b600061026063ffffffff8d168352615a7d602084018d61554b565b6001600160a01b038b81166101808501526101a08401829052615aa38285018b8d6154f6565b9881166101c08501526101e084019790975250509215156102008401526102208301919091529091166102409091015295945050505050565b60006101e063ffffffff89168352615af7602084018961554b565b6001600160a01b038781166101808501526101a08401829052615b1d82850187896154f6565b92508085166101c08501525050979650505050505050565b600063ffffffff808816835280871660208401525084604083015283606083015260a06080830152613c3560a0830184615609565b604080519081016001600160401b0381118282101715615b8c57615b8c615c71565b60405290565b604051601f8201601f191681016001600160401b0381118282101715615bba57615bba615c71565b604052919050565b60006001600160401b03821115615bdb57615bdb615c71565b5060051b60200190565b60008219821115615bf857615bf8615c5b565b500190565b600082821015615c0f57615c0f615c5b565b500390565b60005b83811015615c2f578181015183820152602001615c17565b8381111561393f5750506000910152565b6000600019821415615c5457615c54615c5b565b5060010190565b634e487b7160e01b600052601160045260246000fd5b634e487b7160e01b600052604160045260246000fd5b6001600160a01b0381168114611fef57600080fd5b8015158114611fef57600080fd5b6001600160e01b031981168114611fef57600080fd5b61ffff81168114611fef57600080fd5b63ffffffff81168114611fef57600080fdfea164736f6c6343000804000a",
  "libraries": {
    "NFTfiSigningUtils": "0x6AFd80bBc24123Ab9ec630b239D0DEFb40D35e38",
    "LoanChecksAndCalculations": "0x4b45B6fC98616D4A3E9c59395d4526a863202B6e",
    "LoanAirdropUtils": "0x4b45B6fC98616D4A3E9c59395d4526a863202B6e",
    "ContractKeys": "0xd3D0E26010ABeF694F4074ca39E88c5d6dEd70C1"
  },
  "devdoc": {
    "author": "NFTfi",
    "kind": "dev",
    "methods": {
      "acceptCollectionOffer((uint256,uint256,uint256,address,uint32,uint16,address,address),(uint256,uint256,address,bytes),(uint256,address,bytes),(address,uint16))": {
        "params": {
          "_borrowerSettings": "- Some extra parameters that the borrower needs to set when accepting an offer.",
          "_offer": "- The offer made by the lender.",
          "_protocolSignature": "- signature of the given nftId by the protocol to filter stolen or otherwise unwanted items",
          "_signature": "- The components of the lender's signature."
        }
      },
      "acceptCollectionOfferWithIdRange((uint256,uint256,uint256,address,uint32,uint16,address,address),(uint256,uint256),(uint256,uint256,address,bytes),(uint256,address,bytes),(address,uint16))": {
        "params": {
          "_borrowerSettings": "- Some extra parameters that the borrower needs to set when accepting an offer.",
          "_idRange": "- min and max (inclusive) Id ranges for collection offers on collections, like ArtBlocks, where multiple collections are defined on one contract differentiated by id-ranges",
          "_offer": "- The offer made by the lender.",
          "_protocolSignature": "- signature of the given nftId by the protocol to filter stolen or otherwise unwanted items",
          "_signature": "- The components of the lender's signature."
        }
      },
      "cancelLoanCommitmentBeforeLoanHasBegun(uint256)": {
        "params": {
          "_nonce": "- User nonce"
        }
      },
      "constructor": {
        "details": "Sets `hub` and permitted erc20-s",
        "params": {
          "_admin": "- Initial admin of this contract.",
          "_nftfiHub": "- NFTfiHub address",
          "_permittedErc20s": "- list of permitted ERC20 token contract addresses"
        }
      },
      "drainERC1155Airdrop(address,uint256,address)": {
        "params": {
          "_receiver": "- receiver of the token",
          "_tokenAddress": "- address of the token contract for the token to be sent out",
          "_tokenId": "- id token to be sent out"
        }
      },
      "drainERC20Airdrop(address,uint256,address)": {
        "params": {
          "_receiver": "- receiver of the token",
          "_tokenAddress": "- address of the token contract for the token to be sent out"
        }
      },
      "drainERC721Airdrop(address,uint256,address)": {
        "params": {
          "_receiver": "- receiver of the token",
          "_tokenAddress": "- address of the token contract for the token to be sent out",
          "_tokenId": "- id token to be sent out"
        }
      },
      "getERC20Permit(address)": {
        "params": {
          "_erc20": "- The address of the erc20 contract."
        },
        "returns": {
          "_0": "Returns whether the erc20 is permitted"
        }
      },
      "getEscrowedPayBack(address)": {
        "params": {
          "_token": "ERC20 token conract address"
        }
      },
      "getPayoffAmount(uint32)": {
        "params": {
          "_loanId": "A unique identifier for this particular loan, sourced from the Loan Coordinator."
        },
        "returns": {
          "_0": "The amount of the specified ERC20 currency required to pay back this loan, measured in the smallest unit of the specified ERC20 currency."
        }
      },
      "getWhetherNonceHasBeenUsedForUser(address,uint256)": {
        "params": {
          "_nonce": "- The nonce referred to here is not the same as an Ethereum account's nonce. We are referring instead to nonces that are used by both the lender and the borrower when they are first signing off-chain NFTfi orders. These nonces can be any uint256 value that the user has not previously used to sign an off-chain order. Each nonce can be used at most once per user within NFTfi, regardless of whether they are the lender or the borrower in that situation. This serves two purposes: - First, it prevents replay attacks where an attacker would submit a user's off-chain order more than once. - Second, it allows a user to cancel an off-chain order by calling NFTfi.cancelLoanCommitmentBeforeLoanHasBegun() , which marks the nonce as used and prevents any future loan from using the user's off-chain order that contains that nonce.",
          "_user": "- The address of the user. This function works for both lenders and borrowers alike."
        },
        "returns": {
          "_0": "A bool representing whether or not this nonce has been used for this user."
        }
      },
      "liquidateOverdueLoan(uint32)": {
        "params": {
          "_loanId": "A unique identifier for this particular loan, sourced from the Loan Coordinator."
        }
      },
      "onERC1155BatchReceived(address,address,uint256[],uint256[],bytes)": {
        "details": "Handles the receipt of a multiple ERC1155 token types. This function is called at the end of a `safeBatchTransferFrom` after the balances have been updated.",
        "returns": {
          "_0": "`bytes4(keccak256(\"onERC1155BatchReceived(address,address,uint256[],uint256[],bytes)\"))` if allowed"
        }
      },
      "onERC1155Received(address,address,uint256,uint256,bytes)": {
        "details": "Handles the receipt of a single ERC1155 token type. This function is called at the end of a `safeTransferFrom` after the balance has been updated.",
        "returns": {
          "_0": "`bytes4(keccak256(\"onERC1155Received(address,address,uint256,uint256,bytes)\"))` if allowed"
        }
      },
      "onERC721Received(address,address,uint256,bytes)": {
        "details": "See {IERC721Receiver-onERC721Received}. Always returns `IERC721Receiver.onERC721Received.selector`."
      },
      "owner()": {
        "details": "Returns the address of the current owner."
      },
      "pause()": {
        "details": "Triggers stopped state. Requirements: - Only the owner can call this method. - The contract must not be paused."
      },
      "paused()": {
        "details": "Returns true if the contract is paused, and false otherwise."
      },
      "payBackLoan(uint32)": {
        "params": {
          "_loanId": "A unique identifier for this particular loan, sourced from the Loan Coordinator."
        }
      },
      "payBackLoanSafe(uint32)": {
        "params": {
          "_loanId": "A unique identifier for this particular loan, sourced from the Loan Coordinator."
        }
      },
      "pullAirdrop(uint32,address,bytes,address,uint256,bool,uint256)": {
        "params": {
          "_data": "- function selector to be called on the airdropping contract",
          "_is1155": "-",
          "_loanId": "-",
          "_nftAirdrop": "- address of the used claiming nft in the drop",
          "_nftAirdropAmount": "- amount in case of 1155",
          "_nftAirdropId": "- id of the used claiming nft in the drop",
          "_target": "- address of the airdropping contract"
        }
      },
      "pullAirdropReceiver(uint32,address,bytes)": {
        "params": {
          "_data": "- function selector to be called on the airdropping contract",
          "_loanId": "-",
          "_target": "- address of the airdropping contract"
        }
      },
      "renegotiateLoan(uint32,uint32,uint256,uint256,uint256,uint256,bytes)": {
        "details": "makes possible to change loan duration and max repayment amount, loan duration even can be extended if loan was expired but not liquidated.",
        "params": {
          "_expiry": "- The date when the renegotiation offer expires",
          "_lenderNonce": "- The nonce referred to here is not the same as an Ethereum account's nonce. We are referring instead to nonces that are used by both the lender and the borrower when they are first signing off-chain NFTfi orders. These nonces can be any uint256 value that the user has not previously used to sign an off-chain order. Each nonce can be used at most once per user within NFTfi, regardless of whether they are the lender or the borrower in that situation. This serves two purposes: - First, it prevents replay attacks where an attacker would submit a user's off-chain order more than once. - Second, it allows a user to cancel an off-chain order by calling NFTfi.cancelLoanCommitmentBeforeLoanHasBegun() , which marks the nonce as used and prevents any future loan from using the user's off-chain order that contains that nonce.",
          "_lenderSignature": "- The ECDSA signature of the lender, obtained off-chain ahead of time, signing the following combination of parameters: - _loanId - _newLoanDuration - _newMaximumRepaymentAmount - _lender - _expiry  - address of this contract - chainId",
          "_loanId": "- The unique identifier for the loan to be renegotiated",
          "_newLoanDuration": "- The new amount of time (measured in seconds) that can elapse before the lender can liquidate the loan and seize the underlying collateral NFT.",
          "_newMaximumRepaymentAmount": "- The new maximum amount of money that the borrower would be required to retrieve their collateral, measured in the smallest units of the ERC20 currency used for the loan. The borrower will always have to pay this amount to retrieve their collateral, regardless of whether they repay early.",
          "_renegotiationFee": "Agreed upon fee in ether that borrower pays for the lender for the renegitiation"
        }
      },
      "setERC20Permit(address,bool)": {
        "params": {
          "_erc20": "- The address of the ERC20 currency whose permit list status changed.",
          "_permit": "- The new status of whether the currency is permitted or not."
        }
      },
      "setERC20Permits(address[],bool[])": {
        "params": {
          "_erc20s": "- The addresses of the ERC20 currencies whose permit list status changed.",
          "_permits": "- The new statuses of whether the currency is permitted or not."
        }
      },
      "supportsInterface(bytes4)": {
        "details": "Checks whether this contract implements the interface defined by `interfaceId`.",
        "params": {
          "_interfaceId": "Id of the interface"
        },
        "returns": {
          "_0": "true if this contract implements the interface"
        }
      },
      "transferOwnership(address)": {
        "details": "Transfers ownership of the contract to a new account (`newOwner`). Can only be called by the current owner."
      },
      "unpause()": {
        "details": "Returns to normal state. Requirements: - Only the owner can call this method. - The contract must be paused."
      },
      "updateAdminFee(uint16)": {
        "params": {
          "_newAdminFeeInBasisPoints": "- The new admin fee measured in basis points. This is a percent of the interest paid upon a loan's completion that go to the contract admins."
        }
      },
      "updateMaximumLoanDuration(uint256)": {
        "params": {
          "_newMaximumLoanDuration": "- The new maximum loan duration, measured in seconds."
        }
      },
      "wrapCollateral(uint32)": {
        "params": {
          "_loanId": "-"
        }
      }
    },
    "title": "DirectLoanFixedCollectionOffer",
    "version": 1
  },
  "userdoc": {
    "events": {
      "AdminFeeUpdated(uint16)": {
        "notice": "This event is fired whenever the admins change the percent of interest rates earned that they charge as a fee. Note that newAdminFee can never exceed 10,000, since the fee is measured in basis points."
      },
      "ERC20Permit(address,bool)": {
        "notice": "This event is fired whenever the admin sets a ERC20 permit."
      },
      "EscrowRepay(uint32)": {
        "notice": "This event is fired whenever a loan is repaid into escrow"
      },
      "LoanLiquidated(uint32,address,address,uint256,uint256,uint256,uint256,address)": {
        "notice": "This event is fired whenever a lender liquidates an outstanding loan that is owned to them that has exceeded its duration. The lender receives the underlying NFT collateral, and the borrower no longer needs to repay the loan principal-plus-interest."
      },
      "LoanRenegotiated(uint32,address,address,uint32,uint256,uint256,uint256)": {
        "notice": "This event is fired when some of the terms of a loan are being renegotiated."
      },
      "LoanRepaid(uint32,address,address,uint256,uint256,uint256,uint256,uint256,address,address,address)": {
        "notice": "This event is fired whenever a borrower successfully repays their loan, paying principal-plus-interest-minus-fee to the lender in loanERC20Denomination, paying fee to owner in loanERC20Denomination, and receiving their NFT collateral back."
      },
      "LoanStarted(uint32,address,address,(uint256,uint256,uint256,address,uint32,uint16,uint16,address,uint64,address,address),(address,uint16,uint16))": {
        "notice": "This event is fired whenever a borrower begins a loan by calling NFTfi.beginLoan(), which can only occur after both the lender and borrower have approved their ERC721 and ERC20 contracts to use NFTfi, and when they both have signed off-chain messages that agree on the terms of the loan."
      },
      "MaximumLoanDurationUpdated(uint256)": {
        "notice": "This event is fired whenever the admins change the maximum duration of any loan started for this loan type."
      }
    },
    "kind": "user",
    "methods": {
      "LOAN_TYPE()": {
        "notice": "This function returns a bytes32 value identifying the loan type for the coordinator"
      },
      "acceptCollectionOffer((uint256,uint256,uint256,address,uint32,uint16,address,address),(uint256,uint256,address,bytes),(uint256,address,bytes),(address,uint16))": {
        "notice": "This function is called by the borrower when accepting a lender's collection offer to begin a loan."
      },
      "acceptCollectionOfferWithIdRange((uint256,uint256,uint256,address,uint32,uint16,address,address),(uint256,uint256),(uint256,uint256,address,bytes),(uint256,address,bytes),(address,uint16))": {
        "notice": "This function is called by the borrower when accepting a lender's collection offer with a given id range to begin a loan"
      },
      "acceptOffer((uint256,uint256,uint256,address,uint32,uint16,address,address),(uint256,uint256,address,bytes),(address,uint16))": {
        "notice": "overriding to make it impossible to create a regular offer on this contract (only collection offers)"
      },
      "adminFeeInBasisPoints()": {
        "notice": "The percentage of interest earned by lenders on this platform that is taken by the contract admin's as a fee, measured in basis points (hundreths of a percent). The max allowed value is 10000."
      },
      "cancelLoanCommitmentBeforeLoanHasBegun(uint256)": {
        "notice": "This function can be called by either a lender or a borrower to cancel all off-chain orders that they have signed that contain this nonce. If the off-chain orders were created correctly, there should only be one off-chain order that contains this nonce at all. The nonce referred to here is not the same as an Ethereum account's nonce. We are referring instead to nonces that are used by both the lender and the borrower when they are first signing off-chain NFTfi orders. These nonces can be any uint256 value that the user has not previously used to sign an off-chain order. Each nonce can be used at most once per user within NFTfi, regardless of whether they are the lender or the borrower in that situation. This serves two purposes. First, it prevents replay attacks where an attacker would submit a user's off-chain order more than once. Second, it allows a user to cancel an off-chain order by calling NFTfi.cancelLoanCommitmentBeforeLoanHasBegun(), which marks the nonce as used and prevents any future loan from using the user's off-chain order that contains that nonce."
      },
      "drainERC1155Airdrop(address,uint256,address)": {
        "notice": "used by the owner account to be able to drain ERC1155 tokens received as airdrops for the locked  collateral NFT-s"
      },
      "drainERC20Airdrop(address,uint256,address)": {
        "notice": "used by the owner account to be able to drain ERC20 tokens received as airdrops for the locked  collateral NFT-s"
      },
      "drainERC721Airdrop(address,uint256,address)": {
        "notice": "used by the owner account to be able to drain ERC721 tokens received as airdrops for the locked  collateral NFT-s"
      },
      "getERC20Permit(address)": {
        "notice": "This function can be called by anyone to get the permit associated with the erc20 contract."
      },
      "getEscrowedPayBack(address)": {
        "notice": "Used for lenders to get their payback from escrow, in case the direct loan payback didn't work, because it caused a revert."
      },
      "getPayoffAmount(uint32)": {
        "notice": "This function can be used to view the current quantity of the ERC20 currency used in the specified loan required by the borrower to repay their loan, measured in the smallest unit of the ERC20 currency."
      },
      "getWhetherNonceHasBeenUsedForUser(address,uint256)": {
        "notice": "This function can be used to view whether a particular nonce for a particular user has already been used, either from a successful loan or a cancelled off-chain order."
      },
      "liquidateOverdueLoan(uint32)": {
        "notice": "This function is called by a lender once a loan has finished its duration and the borrower still has not repaid. The lender can call this function to seize the underlying NFT collateral, although the lender gives up all rights to the principal-plus-collateral by doing so. This function is purposefully not pausable in order to prevent an attack where the contract admin's pause the contract and hold hostage the NFT's that are still within it. We intentionally allow anybody to call this function, although only the lender will end up receiving the seized collateral. We are exploring the possbility of incentivizing users to call this function by using some of the admin funds."
      },
      "loanIdToLoan(uint32)": {
        "notice": "A mapping from a loan's identifier to the loan's details, represted by the loan struct."
      },
      "loanRepaidOrLiquidated(uint32)": {
        "notice": "A mapping tracking whether a loan has either been repaid or liquidated. This prevents an attacker trying to repay or liquidate the same loan twice."
      },
      "maximumLoanDuration()": {
        "notice": "The maximum duration of any loan started for this loan type, measured in seconds. This is both a sanity-check for borrowers and an upper limit on how long admins will have to support v1 of this contract if they eventually deprecate it, as well as a check to ensure that the loan duration never exceeds the space alotted for it in the loan struct."
      },
      "payBackLoan(uint32)": {
        "notice": "This function is called by a anyone to repay a loan. It can be called at any time after the loan has begun and before loan expiry.. The caller will pay a pro-rata portion of their interest if the loan is paid off early and the loan is pro-rated type, but the complete repayment amount if it is fixed type. The the borrower (current owner of the obligation note) will get the collaterl NFT back. This function is purposefully not pausable in order to prevent an attack where the contract admin's pause the contract and hold hostage the NFT's that are still within it."
      },
      "payBackLoanSafe(uint32)": {
        "notice": "This function is called by a anyone to repay a loan. It can be called at any time after the loan has begun and before loan expiry.. The caller will pay a pro-rata portion of their interest if the loan is paid off early and the loan is pro-rated type, but the complete repayment amount if it is fixed type. The the borrower (current owner of the obligation note) will get the collaterl NFT back. This function is purposefully not pausable in order to prevent an attack where the contract admin's pause the contract and hold hostage the NFT's that are still within it."
      },
      "pullAirdrop(uint32,address,bytes,address,uint256,bool,uint256)": {
        "notice": "this function initiates a flashloan to pull an airdrop from a tartget contract"
      },
      "pullAirdropReceiver(uint32,address,bytes)": {
        "notice": "this function initiates a flashloan to pull an airdrop from a tartget contract"
      },
      "setERC20Permit(address,bool)": {
        "notice": "This function can be called by admins to change the permitted status of an ERC20 currency. This includes both adding an ERC20 currency to the permitted list and removing it."
      },
      "setERC20Permits(address[],bool[])": {
        "notice": "This function can be called by admins to change the permitted status of a batch of ERC20 currency. This includes both adding an ERC20 currency to the permitted list and removing it."
      },
      "updateAdminFee(uint16)": {
        "notice": "This function can be called by admins to change the percent of interest rates earned that they charge as a fee. Note that newAdminFee can never exceed 10,000, since the fee is measured in basis points."
      },
      "updateMaximumLoanDuration(uint256)": {
        "notice": "This function can be called by admins to change the maximumLoanDuration. Note that they can never change maximumLoanDuration to be greater than UINT32_MAX, since that's the maximum space alotted for the duration in the loan struct."
      },
      "wrapCollateral(uint32)": {
        "notice": "this function creates a proxy contract wrapping the collateral to be able to catch an expected airdrop"
      }
    },
    "notice": "Main contract for NFTfi Direct Loans Fixed Collection Type. This contract manages the ability to create reoccurring NFT-backed peer-to-peer loans of type Fixed (agreed to be a fixed-repayment loan) where the borrower pays the maximumRepaymentAmount regardless of whether they repay early or not. In collection offer type loans the collateral can be any one item (id) of a given NFT collection (contract). To commence an NFT-backed loan: The borrower accepts a lender's offer by calling `acceptOffer`.   1. the borrower calls nftContract.approveAll(NFTfi), approving the NFTfi contract to move their NFT's on their be1alf.   2. the lender calls erc20Contract.approve(NFTfi), allowing NFTfi to move the lender's ERC20 tokens on their behalf.   3. the lender signs a reusable off-chain message, proposing its collection offer terms.   4. the borrower gets a protocol signature from an offchain service to approve their nft   5. the borrower calls `acceptOffer` to accept these terms and enter into the loan. The NFT is stored in the contract, the borrower receives the loan principal in the specified ERC20 currency, the lender receives an NFTfi promissory note (in ERC721 form) that represents the rights to either the principal-plus-interest, or the underlying NFT collateral if the borrower does not pay back in time, and the borrower receives obligation receipt (in ERC721 form) that gives them the right to pay back the loan and get the collateral back.  6. another borrower can also repeat step 4 until the original lender cancels or their wallet runs out of funds with allowance to the contract The lender can freely transfer and trade this ERC721 promissory note as they wish, with the knowledge that transferring the ERC721 promissory note tranfsers the rights to principal-plus-interest and/or collateral, and that they will no longer have a claim on the loan. The ERC721 promissory note itself represents that claim. The borrower can freely transfer and trade this ERC721 obligaiton receipt as they wish, with the knowledge that transferring the ERC721 obligaiton receipt tranfsers the rights right to pay back the loan and get the collateral back. A loan may end in one of two ways: - First, a borrower may call NFTfi.payBackLoan() and pay back the loan plus interest at any time, in which case they receive their NFT back in the same transaction. - Second, if the loan's duration has passed and the loan has not been paid back yet, a lender can call NFTfi.liquidateOverdueLoan(), in which case they receive the underlying NFT collateral and forfeit the rights to the principal-plus-interest, which the borrower now keeps.",
    "version": 1
  },
  "storageLayout": {
    "storage": [
      {
        "astId": 21148,
        "contract": "contracts/loans/direct/loanTypes/DirectLoanFixedCollectionOffer.sol:DirectLoanFixedCollectionOffer",
        "label": "_owner",
        "offset": 0,
        "slot": "0",
        "type": "t_address"
      },
      {
        "astId": 717,
        "contract": "contracts/loans/direct/loanTypes/DirectLoanFixedCollectionOffer.sol:DirectLoanFixedCollectionOffer",
        "label": "_paused",
        "offset": 20,
        "slot": "0",
        "type": "t_bool"
      },
      {
        "astId": 802,
        "contract": "contracts/loans/direct/loanTypes/DirectLoanFixedCollectionOffer.sol:DirectLoanFixedCollectionOffer",
        "label": "_status",
        "offset": 0,
        "slot": "1",
        "type": "t_uint256"
      },
      {
        "astId": 9553,
        "contract": "contracts/loans/direct/loanTypes/DirectLoanFixedCollectionOffer.sol:DirectLoanFixedCollectionOffer",
        "label": "maximumLoanDuration",
        "offset": 0,
        "slot": "2",
        "type": "t_uint256"
      },
      {
        "astId": 9558,
        "contract": "contracts/loans/direct/loanTypes/DirectLoanFixedCollectionOffer.sol:DirectLoanFixedCollectionOffer",
        "label": "adminFeeInBasisPoints",
        "offset": 0,
        "slot": "3",
        "type": "t_uint16"
      },
      {
        "astId": 9565,
        "contract": "contracts/loans/direct/loanTypes/DirectLoanFixedCollectionOffer.sol:DirectLoanFixedCollectionOffer",
        "label": "loanIdToLoan",
        "offset": 0,
        "slot": "4",
        "type": "t_mapping(t_uint32,t_struct(LoanTerms)13808_storage)"
      },
      {
        "astId": 9570,
        "contract": "contracts/loans/direct/loanTypes/DirectLoanFixedCollectionOffer.sol:DirectLoanFixedCollectionOffer",
        "label": "loanIdToLoanExtras",
        "offset": 0,
        "slot": "5",
        "type": "t_mapping(t_uint32,t_struct(LoanExtras)13815_storage)"
      },
      {
        "astId": 9576,
        "contract": "contracts/loans/direct/loanTypes/DirectLoanFixedCollectionOffer.sol:DirectLoanFixedCollectionOffer",
        "label": "loanRepaidOrLiquidated",
        "offset": 0,
        "slot": "6",
        "type": "t_mapping(t_uint32,t_bool)"
      },
      {
        "astId": 9583,
        "contract": "contracts/loans/direct/loanTypes/DirectLoanFixedCollectionOffer.sol:DirectLoanFixedCollectionOffer",
        "label": "_escrowTokens",
        "offset": 0,
        "slot": "7",
        "type": "t_mapping(t_address,t_mapping(t_uint256,t_uint256))"
      },
      {
        "astId": 9588,
        "contract": "contracts/loans/direct/loanTypes/DirectLoanFixedCollectionOffer.sol:DirectLoanFixedCollectionOffer",
        "label": "_escrowErc20Tokens",
        "offset": 0,
        "slot": "8",
        "type": "t_mapping(t_address,t_uint256)"
      },
      {
        "astId": 9595,
        "contract": "contracts/loans/direct/loanTypes/DirectLoanFixedCollectionOffer.sol:DirectLoanFixedCollectionOffer",
        "label": "_payBackEscrow",
        "offset": 0,
        "slot": "9",
        "type": "t_mapping(t_address,t_mapping(t_address,t_uint256))"
      },
      {
        "astId": 9602,
        "contract": "contracts/loans/direct/loanTypes/DirectLoanFixedCollectionOffer.sol:DirectLoanFixedCollectionOffer",
        "label": "_nonceHasBeenUsedForUser",
        "offset": 0,
        "slot": "10",
        "type": "t_mapping(t_address,t_mapping(t_uint256,t_bool))"
      },
      {
        "astId": 9607,
        "contract": "contracts/loans/direct/loanTypes/DirectLoanFixedCollectionOffer.sol:DirectLoanFixedCollectionOffer",
        "label": "erc20Permits",
        "offset": 0,
        "slot": "11",
        "type": "t_mapping(t_address,t_bool)"
      },
      {
        "astId": 11619,
        "contract": "contracts/loans/direct/loanTypes/DirectLoanFixedCollectionOffer.sol:DirectLoanFixedCollectionOffer",
        "label": "protocolSignerAddress",
        "offset": 0,
        "slot": "12",
        "type": "t_address"
      }
    ],
    "types": {
      "t_address": {
        "encoding": "inplace",
        "label": "address",
        "numberOfBytes": "20"
      },
      "t_bool": {
        "encoding": "inplace",
        "label": "bool",
        "numberOfBytes": "1"
      },
      "t_mapping(t_address,t_bool)": {
        "encoding": "mapping",
        "key": "t_address",
        "label": "mapping(address => bool)",
        "numberOfBytes": "32",
        "value": "t_bool"
      },
      "t_mapping(t_address,t_mapping(t_address,t_uint256))": {
        "encoding": "mapping",
        "key": "t_address",
        "label": "mapping(address => mapping(address => uint256))",
        "numberOfBytes": "32",
        "value": "t_mapping(t_address,t_uint256)"
      },
      "t_mapping(t_address,t_mapping(t_uint256,t_bool))": {
        "encoding": "mapping",
        "key": "t_address",
        "label": "mapping(address => mapping(uint256 => bool))",
        "numberOfBytes": "32",
        "value": "t_mapping(t_uint256,t_bool)"
      },
      "t_mapping(t_address,t_mapping(t_uint256,t_uint256))": {
        "encoding": "mapping",
        "key": "t_address",
        "label": "mapping(address => mapping(uint256 => uint256))",
        "numberOfBytes": "32",
        "value": "t_mapping(t_uint256,t_uint256)"
      },
      "t_mapping(t_address,t_uint256)": {
        "encoding": "mapping",
        "key": "t_address",
        "label": "mapping(address => uint256)",
        "numberOfBytes": "32",
        "value": "t_uint256"
      },
      "t_mapping(t_uint256,t_bool)": {
        "encoding": "mapping",
        "key": "t_uint256",
        "label": "mapping(uint256 => bool)",
        "numberOfBytes": "32",
        "value": "t_bool"
      },
      "t_mapping(t_uint256,t_uint256)": {
        "encoding": "mapping",
        "key": "t_uint256",
        "label": "mapping(uint256 => uint256)",
        "numberOfBytes": "32",
        "value": "t_uint256"
      },
      "t_mapping(t_uint32,t_bool)": {
        "encoding": "mapping",
        "key": "t_uint32",
        "label": "mapping(uint32 => bool)",
        "numberOfBytes": "32",
        "value": "t_bool"
      },
      "t_mapping(t_uint32,t_struct(LoanExtras)13815_storage)": {
        "encoding": "mapping",
        "key": "t_uint32",
        "label": "mapping(uint32 => struct LoanData.LoanExtras)",
        "numberOfBytes": "32",
        "value": "t_struct(LoanExtras)13815_storage"
      },
      "t_mapping(t_uint32,t_struct(LoanTerms)13808_storage)": {
        "encoding": "mapping",
        "key": "t_uint32",
        "label": "mapping(uint32 => struct LoanData.LoanTerms)",
        "numberOfBytes": "32",
        "value": "t_struct(LoanTerms)13808_storage"
      },
      "t_struct(LoanExtras)13815_storage": {
        "encoding": "inplace",
        "label": "struct LoanData.LoanExtras",
        "members": [
          {
            "astId": 13810,
            "contract": "contracts/loans/direct/loanTypes/DirectLoanFixedCollectionOffer.sol:DirectLoanFixedCollectionOffer",
            "label": "revenueSharePartner",
            "offset": 0,
            "slot": "0",
            "type": "t_address"
          },
          {
            "astId": 13812,
            "contract": "contracts/loans/direct/loanTypes/DirectLoanFixedCollectionOffer.sol:DirectLoanFixedCollectionOffer",
            "label": "revenueShareInBasisPoints",
            "offset": 20,
            "slot": "0",
            "type": "t_uint16"
          },
          {
            "astId": 13814,
            "contract": "contracts/loans/direct/loanTypes/DirectLoanFixedCollectionOffer.sol:DirectLoanFixedCollectionOffer",
            "label": "referralFeeInBasisPoints",
            "offset": 22,
            "slot": "0",
            "type": "t_uint16"
          }
        ],
        "numberOfBytes": "32"
      },
      "t_struct(LoanTerms)13808_storage": {
        "encoding": "inplace",
        "label": "struct LoanData.LoanTerms",
        "members": [
          {
            "astId": 13787,
            "contract": "contracts/loans/direct/loanTypes/DirectLoanFixedCollectionOffer.sol:DirectLoanFixedCollectionOffer",
            "label": "loanPrincipalAmount",
            "offset": 0,
            "slot": "0",
            "type": "t_uint256"
          },
          {
            "astId": 13789,
            "contract": "contracts/loans/direct/loanTypes/DirectLoanFixedCollectionOffer.sol:DirectLoanFixedCollectionOffer",
            "label": "maximumRepaymentAmount",
            "offset": 0,
            "slot": "1",
            "type": "t_uint256"
          },
          {
            "astId": 13791,
            "contract": "contracts/loans/direct/loanTypes/DirectLoanFixedCollectionOffer.sol:DirectLoanFixedCollectionOffer",
            "label": "nftCollateralId",
            "offset": 0,
            "slot": "2",
            "type": "t_uint256"
          },
          {
            "astId": 13793,
            "contract": "contracts/loans/direct/loanTypes/DirectLoanFixedCollectionOffer.sol:DirectLoanFixedCollectionOffer",
            "label": "loanERC20Denomination",
            "offset": 0,
            "slot": "3",
            "type": "t_address"
          },
          {
            "astId": 13795,
            "contract": "contracts/loans/direct/loanTypes/DirectLoanFixedCollectionOffer.sol:DirectLoanFixedCollectionOffer",
            "label": "loanDuration",
            "offset": 20,
            "slot": "3",
            "type": "t_uint32"
          },
          {
            "astId": 13797,
            "contract": "contracts/loans/direct/loanTypes/DirectLoanFixedCollectionOffer.sol:DirectLoanFixedCollectionOffer",
            "label": "loanInterestRateForDurationInBasisPoints",
            "offset": 24,
            "slot": "3",
            "type": "t_uint16"
          },
          {
            "astId": 13799,
            "contract": "contracts/loans/direct/loanTypes/DirectLoanFixedCollectionOffer.sol:DirectLoanFixedCollectionOffer",
            "label": "loanAdminFeeInBasisPoints",
            "offset": 26,
            "slot": "3",
            "type": "t_uint16"
          },
          {
            "astId": 13801,
            "contract": "contracts/loans/direct/loanTypes/DirectLoanFixedCollectionOffer.sol:DirectLoanFixedCollectionOffer",
            "label": "nftCollateralWrapper",
            "offset": 0,
            "slot": "4",
            "type": "t_address"
          },
          {
            "astId": 13803,
            "contract": "contracts/loans/direct/loanTypes/DirectLoanFixedCollectionOffer.sol:DirectLoanFixedCollectionOffer",
            "label": "loanStartTime",
            "offset": 20,
            "slot": "4",
            "type": "t_uint64"
          },
          {
            "astId": 13805,
            "contract": "contracts/loans/direct/loanTypes/DirectLoanFixedCollectionOffer.sol:DirectLoanFixedCollectionOffer",
            "label": "nftCollateralContract",
            "offset": 0,
            "slot": "5",
            "type": "t_address"
          },
          {
            "astId": 13807,
            "contract": "contracts/loans/direct/loanTypes/DirectLoanFixedCollectionOffer.sol:DirectLoanFixedCollectionOffer",
            "label": "borrower",
            "offset": 0,
            "slot": "6",
            "type": "t_address"
          }
        ],
        "numberOfBytes": "224"
      },
      "t_uint16": {
        "encoding": "inplace",
        "label": "uint16",
        "numberOfBytes": "2"
      },
      "t_uint256": {
        "encoding": "inplace",
        "label": "uint256",
        "numberOfBytes": "32"
      },
      "t_uint32": {
        "encoding": "inplace",
        "label": "uint32",
        "numberOfBytes": "4"
      },
      "t_uint64": {
        "encoding": "inplace",
        "label": "uint64",
        "numberOfBytes": "8"
      }
    }
  }
}