{
  "address": "0x889d2b579d356cAe709422F3DDC7D2e61902917e",
  "abi": [
    {
      "inputs": [
        {
          "internalType": "address",
          "name": "_admin",
          "type": "address"
        },
        {
          "internalType": "address",
          "name": "_nftfiHub",
          "type": "address"
        },
        {
          "internalType": "address[]",
          "name": "_permittedErc20s",
          "type": "address[]"
        }
      ],
      "stateMutability": "nonpayable",
      "type": "constructor"
    },
    {
      "inputs": [],
      "name": "AdminFeeChanged",
      "type": "error"
    },
    {
      "inputs": [],
      "name": "BasisPointsTooHigh",
      "type": "error"
    },
    {
      "inputs": [],
      "name": "CurrencyDenominationNotPermitted",
      "type": "error"
    },
    {
      "inputs": [],
      "name": "ERC20ZeroAddress",
      "type": "error"
    },
    {
      "inputs": [],
      "name": "FunctionInformationArityMismatch",
      "type": "error"
    },
    {
      "inputs": [],
      "name": "InvalidLenderSignature",
      "type": "error"
    },
    {
      "inputs": [],
      "name": "InvalidNonce",
      "type": "error"
    },
    {
      "inputs": [],
      "name": "LoanAlreadyRepaidOrLiquidated",
      "type": "error"
    },
    {
      "inputs": [],
      "name": "LoanDurationCannotBeZero",
      "type": "error"
    },
    {
      "inputs": [],
      "name": "LoanDurationExceedsMaximum",
      "type": "error"
    },
    {
      "inputs": [],
      "name": "LoanDurationOverflow",
      "type": "error"
    },
    {
      "inputs": [],
      "name": "LoanNotOverdueYet",
      "type": "error"
    },
    {
      "inputs": [],
      "name": "NFTCollateralContractNotPermitted",
      "type": "error"
    },
    {
      "inputs": [],
      "name": "NFTNotOwned",
      "type": "error"
    },
    {
      "inputs": [],
      "name": "NegativeInterestRate",
      "type": "error"
    },
    {
      "inputs": [],
      "name": "NoNFTsOwned",
      "type": "error"
    },
    {
      "inputs": [],
      "name": "NoTokensInEscrow",
      "type": "error"
    },
    {
      "inputs": [],
      "name": "NoTokensOwned",
      "type": "error"
    },
    {
      "inputs": [],
      "name": "OnlyLenderCanLiquidate",
      "type": "error"
    },
    {
      "inputs": [],
      "name": "RenegotiationSignatureInvalid",
      "type": "error"
    },
    {
      "inputs": [],
      "name": "SenderNotBorrower",
      "type": "error"
    },
    {
      "inputs": [],
      "name": "TokenIsCollateral",
      "type": "error"
    },
    {
      "inputs": [],
      "name": "TokensInEscrow",
      "type": "error"
    },
    {
      "anonymous": false,
      "inputs": [
        {
          "indexed": false,
          "internalType": "uint16",
          "name": "newAdminFee",
          "type": "uint16"
        }
      ],
      "name": "AdminFeeUpdated",
      "type": "event"
    },
    {
      "anonymous": false,
      "inputs": [
        {
          "indexed": true,
          "internalType": "address",
          "name": "erc20Contract",
          "type": "address"
        },
        {
          "indexed": false,
          "internalType": "bool",
          "name": "isPermitted",
          "type": "bool"
        }
      ],
      "name": "ERC20Permit",
      "type": "event"
    },
    {
      "anonymous": false,
      "inputs": [
        {
          "indexed": true,
          "internalType": "uint32",
          "name": "loanId",
          "type": "uint32"
        }
      ],
      "name": "EscrowRepay",
      "type": "event"
    },
    {
      "anonymous": false,
      "inputs": [
        {
          "indexed": true,
          "internalType": "uint32",
          "name": "loanId",
          "type": "uint32"
        },
        {
          "indexed": true,
          "internalType": "address",
          "name": "borrower",
          "type": "address"
        },
        {
          "indexed": true,
          "internalType": "address",
          "name": "lender",
          "type": "address"
        },
        {
          "indexed": false,
          "internalType": "uint256",
          "name": "loanPrincipalAmount",
          "type": "uint256"
        },
        {
          "indexed": false,
          "internalType": "uint256",
          "name": "nftCollateralId",
          "type": "uint256"
        },
        {
          "indexed": false,
          "internalType": "uint256",
          "name": "loanMaturityDate",
          "type": "uint256"
        },
        {
          "indexed": false,
          "internalType": "uint256",
          "name": "loanLiquidationDate",
          "type": "uint256"
        },
        {
          "indexed": false,
          "internalType": "address",
          "name": "nftCollateralContract",
          "type": "address"
        }
      ],
      "name": "LoanLiquidated",
      "type": "event"
    },
    {
      "anonymous": false,
      "inputs": [
        {
          "indexed": true,
          "internalType": "uint32",
          "name": "loanId",
          "type": "uint32"
        },
        {
          "indexed": true,
          "internalType": "address",
          "name": "borrower",
          "type": "address"
        },
        {
          "indexed": true,
          "internalType": "address",
          "name": "lender",
          "type": "address"
        },
        {
          "indexed": false,
          "internalType": "uint32",
          "name": "newLoanDuration",
          "type": "uint32"
        },
        {
          "indexed": false,
          "internalType": "uint256",
          "name": "newMaximumRepaymentAmount",
          "type": "uint256"
        },
        {
          "indexed": false,
          "internalType": "uint256",
          "name": "renegotiationFee",
          "type": "uint256"
        },
        {
          "indexed": false,
          "internalType": "uint256",
          "name": "renegotiationAdminFee",
          "type": "uint256"
        }
      ],
      "name": "LoanRenegotiated",
      "type": "event"
    },
    {
      "anonymous": false,
      "inputs": [
        {
          "indexed": true,
          "internalType": "uint32",
          "name": "loanId",
          "type": "uint32"
        },
        {
          "indexed": true,
          "internalType": "address",
          "name": "borrower",
          "type": "address"
        },
        {
          "indexed": true,
          "internalType": "address",
          "name": "lender",
          "type": "address"
        },
        {
          "indexed": false,
          "internalType": "uint256",
          "name": "loanPrincipalAmount",
          "type": "uint256"
        },
        {
          "indexed": false,
          "internalType": "uint256",
          "name": "nftCollateralId",
          "type": "uint256"
        },
        {
          "indexed": false,
          "internalType": "uint256",
          "name": "amountPaidToLender",
          "type": "uint256"
        },
        {
          "indexed": false,
          "internalType": "uint256",
          "name": "adminFee",
          "type": "uint256"
        },
        {
          "indexed": false,
          "internalType": "uint256",
          "name": "revenueShare",
          "type": "uint256"
        },
        {
          "indexed": false,
          "internalType": "address",
          "name": "revenueSharePartner",
          "type": "address"
        },
        {
          "indexed": false,
          "internalType": "address",
          "name": "nftCollateralContract",
          "type": "address"
        },
        {
          "indexed": false,
          "internalType": "address",
          "name": "loanERC20Denomination",
          "type": "address"
        }
      ],
      "name": "LoanRepaid",
      "type": "event"
    },
    {
      "anonymous": false,
      "inputs": [
        {
          "indexed": true,
          "internalType": "uint32",
          "name": "loanId",
          "type": "uint32"
        },
        {
          "indexed": true,
          "internalType": "address",
          "name": "borrower",
          "type": "address"
        },
        {
          "indexed": true,
          "internalType": "address",
          "name": "lender",
          "type": "address"
        },
        {
          "components": [
            {
              "internalType": "uint256",
              "name": "loanPrincipalAmount",
              "type": "uint256"
            },
            {
              "internalType": "uint256",
              "name": "maximumRepaymentAmount",
              "type": "uint256"
            },
            {
              "internalType": "uint256",
              "name": "nftCollateralId",
              "type": "uint256"
            },
            {
              "internalType": "address",
              "name": "loanERC20Denomination",
              "type": "address"
            },
            {
              "internalType": "uint32",
              "name": "loanDuration",
              "type": "uint32"
            },
            {
              "internalType": "uint16",
              "name": "loanInterestRateForDurationInBasisPoints",
              "type": "uint16"
            },
            {
              "internalType": "uint16",
              "name": "loanAdminFeeInBasisPoints",
              "type": "uint16"
            },
            {
              "internalType": "address",
              "name": "nftCollateralWrapper",
              "type": "address"
            },
            {
              "internalType": "uint64",
              "name": "loanStartTime",
              "type": "uint64"
            },
            {
              "internalType": "address",
              "name": "nftCollateralContract",
              "type": "address"
            },
            {
              "internalType": "address",
              "name": "borrower",
              "type": "address"
            }
          ],
          "indexed": false,
          "internalType": "struct LoanData.LoanTerms",
          "name": "loanTerms",
          "type": "tuple"
        },
        {
          "components": [
            {
              "internalType": "address",
              "name": "revenueSharePartner",
              "type": "address"
            },
            {
              "internalType": "uint16",
              "name": "revenueShareInBasisPoints",
              "type": "uint16"
            },
            {
              "internalType": "uint16",
              "name": "referralFeeInBasisPoints",
              "type": "uint16"
            }
          ],
          "indexed": false,
          "internalType": "struct LoanData.LoanExtras",
          "name": "loanExtras",
          "type": "tuple"
        }
      ],
      "name": "LoanStarted",
      "type": "event"
    },
    {
      "anonymous": false,
      "inputs": [
        {
          "indexed": false,
          "internalType": "uint256",
          "name": "newMaximumLoanDuration",
          "type": "uint256"
        }
      ],
      "name": "MaximumLoanDurationUpdated",
      "type": "event"
    },
    {
      "anonymous": false,
      "inputs": [
        {
          "indexed": true,
          "internalType": "address",
          "name": "previousOwner",
          "type": "address"
        },
        {
          "indexed": true,
          "internalType": "address",
          "name": "newOwner",
          "type": "address"
        }
      ],
      "name": "OwnershipTransferred",
      "type": "event"
    },
    {
      "anonymous": false,
      "inputs": [
        {
          "indexed": false,
          "internalType": "address",
          "name": "account",
          "type": "address"
        }
      ],
      "name": "Paused",
      "type": "event"
    },
    {
      "anonymous": false,
      "inputs": [
        {
          "indexed": false,
          "internalType": "address",
          "name": "account",
          "type": "address"
        }
      ],
      "name": "Unpaused",
      "type": "event"
    },
    {
      "inputs": [],
      "name": "HUNDRED_PERCENT",
      "outputs": [
        {
          "internalType": "uint16",
          "name": "",
          "type": "uint16"
        }
      ],
      "stateMutability": "view",
      "type": "function"
    },
    {
      "inputs": [],
      "name": "LOAN_COORDINATOR",
      "outputs": [
        {
          "internalType": "bytes32",
          "name": "",
          "type": "bytes32"
        }
      ],
      "stateMutability": "view",
      "type": "function"
    },
    {
      "inputs": [],
      "name": "LOAN_TYPE",
      "outputs": [
        {
          "internalType": "bytes32",
          "name": "",
          "type": "bytes32"
        }
      ],
      "stateMutability": "pure",
      "type": "function"
    },
    {
      "inputs": [
        {
          "components": [
            {
              "internalType": "uint256",
              "name": "loanPrincipalAmount",
              "type": "uint256"
            },
            {
              "internalType": "uint256",
              "name": "maximumRepaymentAmount",
              "type": "uint256"
            },
            {
              "internalType": "uint256",
              "name": "nftCollateralId",
              "type": "uint256"
            },
            {
              "internalType": "address",
              "name": "nftCollateralContract",
              "type": "address"
            },
            {
              "internalType": "uint32",
              "name": "loanDuration",
              "type": "uint32"
            },
            {
              "internalType": "uint16",
              "name": "loanAdminFeeInBasisPoints",
              "type": "uint16"
            },
            {
              "internalType": "address",
              "name": "loanERC20Denomination",
              "type": "address"
            },
            {
              "internalType": "address",
              "name": "referrer",
              "type": "address"
            }
          ],
          "internalType": "struct LoanData.Offer",
          "name": "_offer",
          "type": "tuple"
        },
        {
          "components": [
            {
              "internalType": "uint256",
              "name": "nonce",
              "type": "uint256"
            },
            {
              "internalType": "uint256",
              "name": "expiry",
              "type": "uint256"
            },
            {
              "internalType": "address",
              "name": "signer",
              "type": "address"
            },
            {
              "internalType": "bytes",
              "name": "signature",
              "type": "bytes"
            }
          ],
          "internalType": "struct LoanData.Signature",
          "name": "_signature",
          "type": "tuple"
        },
        {
          "components": [
            {
              "internalType": "address",
              "name": "revenueSharePartner",
              "type": "address"
            },
            {
              "internalType": "uint16",
              "name": "referralFeeInBasisPoints",
              "type": "uint16"
            }
          ],
          "internalType": "struct LoanData.BorrowerSettings",
          "name": "_borrowerSettings",
          "type": "tuple"
        }
      ],
      "name": "acceptOffer",
      "outputs": [
        {
          "internalType": "uint32",
          "name": "",
          "type": "uint32"
        }
      ],
      "stateMutability": "nonpayable",
      "type": "function"
    },
    {
      "inputs": [],
      "name": "adminFeeInBasisPoints",
      "outputs": [
        {
          "internalType": "uint16",
          "name": "",
          "type": "uint16"
        }
      ],
      "stateMutability": "view",
      "type": "function"
    },
    {
      "inputs": [
        {
          "internalType": "uint256",
          "name": "_nonce",
          "type": "uint256"
        }
      ],
      "name": "cancelLoanCommitmentBeforeLoanHasBegun",
      "outputs": [],
      "stateMutability": "nonpayable",
      "type": "function"
    },
    {
      "inputs": [
        {
          "internalType": "address",
          "name": "_tokenAddress",
          "type": "address"
        },
        {
          "internalType": "uint256",
          "name": "_tokenId",
          "type": "uint256"
        },
        {
          "internalType": "address",
          "name": "_receiver",
          "type": "address"
        }
      ],
      "name": "drainERC1155Airdrop",
      "outputs": [],
      "stateMutability": "nonpayable",
      "type": "function"
    },
    {
      "inputs": [
        {
          "internalType": "address",
          "name": "_tokenAddress",
          "type": "address"
        },
        {
          "internalType": "uint256",
          "name": "amount",
          "type": "uint256"
        },
        {
          "internalType": "address",
          "name": "_receiver",
          "type": "address"
        }
      ],
      "name": "drainERC20Airdrop",
      "outputs": [],
      "stateMutability": "nonpayable",
      "type": "function"
    },
    {
      "inputs": [
        {
          "internalType": "address",
          "name": "_tokenAddress",
          "type": "address"
        },
        {
          "internalType": "uint256",
          "name": "_tokenId",
          "type": "uint256"
        },
        {
          "internalType": "address",
          "name": "_receiver",
          "type": "address"
        }
      ],
      "name": "drainERC721Airdrop",
      "outputs": [],
      "stateMutability": "nonpayable",
      "type": "function"
    },
    {
      "inputs": [
        {
          "internalType": "address",
          "name": "_erc20",
          "type": "address"
        }
      ],
      "name": "getERC20Permit",
      "outputs": [
        {
          "internalType": "bool",
          "name": "",
          "type": "bool"
        }
      ],
      "stateMutability": "view",
      "type": "function"
    },
    {
      "inputs": [
        {
          "internalType": "address",
          "name": "_token",
          "type": "address"
        }
      ],
      "name": "getEscrowedPayBack",
      "outputs": [],
      "stateMutability": "nonpayable",
      "type": "function"
    },
    {
      "inputs": [
        {
          "internalType": "uint32",
          "name": "_loanId",
          "type": "uint32"
        }
      ],
      "name": "getPayoffAmount",
      "outputs": [
        {
          "internalType": "uint256",
          "name": "",
          "type": "uint256"
        }
      ],
      "stateMutability": "view",
      "type": "function"
    },
    {
      "inputs": [
        {
          "internalType": "address",
          "name": "_user",
          "type": "address"
        },
        {
          "internalType": "uint256",
          "name": "_nonce",
          "type": "uint256"
        }
      ],
      "name": "getWhetherNonceHasBeenUsedForUser",
      "outputs": [
        {
          "internalType": "bool",
          "name": "",
          "type": "bool"
        }
      ],
      "stateMutability": "view",
      "type": "function"
    },
    {
      "inputs": [],
      "name": "hub",
      "outputs": [
        {
          "internalType": "contract INftfiHub",
          "name": "",
          "type": "address"
        }
      ],
      "stateMutability": "view",
      "type": "function"
    },
    {
      "inputs": [
        {
          "internalType": "uint32",
          "name": "_loanId",
          "type": "uint32"
        }
      ],
      "name": "liquidateOverdueLoan",
      "outputs": [],
      "stateMutability": "nonpayable",
      "type": "function"
    },
    {
      "inputs": [
        {
          "internalType": "uint32",
          "name": "",
          "type": "uint32"
        }
      ],
      "name": "loanIdToLoan",
      "outputs": [
        {
          "internalType": "uint256",
          "name": "loanPrincipalAmount",
          "type": "uint256"
        },
        {
          "internalType": "uint256",
          "name": "maximumRepaymentAmount",
          "type": "uint256"
        },
        {
          "internalType": "uint256",
          "name": "nftCollateralId",
          "type": "uint256"
        },
        {
          "internalType": "address",
          "name": "loanERC20Denomination",
          "type": "address"
        },
        {
          "internalType": "uint32",
          "name": "loanDuration",
          "type": "uint32"
        },
        {
          "internalType": "uint16",
          "name": "loanInterestRateForDurationInBasisPoints",
          "type": "uint16"
        },
        {
          "internalType": "uint16",
          "name": "loanAdminFeeInBasisPoints",
          "type": "uint16"
        },
        {
          "internalType": "address",
          "name": "nftCollateralWrapper",
          "type": "address"
        },
        {
          "internalType": "uint64",
          "name": "loanStartTime",
          "type": "uint64"
        },
        {
          "internalType": "address",
          "name": "nftCollateralContract",
          "type": "address"
        },
        {
          "internalType": "address",
          "name": "borrower",
          "type": "address"
        }
      ],
      "stateMutability": "view",
      "type": "function"
    },
    {
      "inputs": [
        {
          "internalType": "uint32",
          "name": "",
          "type": "uint32"
        }
      ],
      "name": "loanIdToLoanExtras",
      "outputs": [
        {
          "internalType": "address",
          "name": "revenueSharePartner",
          "type": "address"
        },
        {
          "internalType": "uint16",
          "name": "revenueShareInBasisPoints",
          "type": "uint16"
        },
        {
          "internalType": "uint16",
          "name": "referralFeeInBasisPoints",
          "type": "uint16"
        }
      ],
      "stateMutability": "view",
      "type": "function"
    },
    {
      "inputs": [
        {
          "internalType": "uint32",
          "name": "",
          "type": "uint32"
        }
      ],
      "name": "loanRepaidOrLiquidated",
      "outputs": [
        {
          "internalType": "bool",
          "name": "",
          "type": "bool"
        }
      ],
      "stateMutability": "view",
      "type": "function"
    },
    {
      "inputs": [],
      "name": "maximumLoanDuration",
      "outputs": [
        {
          "internalType": "uint256",
          "name": "",
          "type": "uint256"
        }
      ],
      "stateMutability": "view",
      "type": "function"
    },
    {
      "inputs": [
        {
          "internalType": "uint32",
          "name": "_loanId",
          "type": "uint32"
        }
      ],
      "name": "mintObligationReceipt",
      "outputs": [],
      "stateMutability": "nonpayable",
      "type": "function"
    },
    {
      "inputs": [
        {
          "internalType": "address",
          "name": "",
          "type": "address"
        },
        {
          "internalType": "address",
          "name": "",
          "type": "address"
        },
        {
          "internalType": "uint256[]",
          "name": "",
          "type": "uint256[]"
        },
        {
          "internalType": "uint256[]",
          "name": "",
          "type": "uint256[]"
        },
        {
          "internalType": "bytes",
          "name": "",
          "type": "bytes"
        }
      ],
      "name": "onERC1155BatchReceived",
      "outputs": [
        {
          "internalType": "bytes4",
          "name": "",
          "type": "bytes4"
        }
      ],
      "stateMutability": "nonpayable",
      "type": "function"
    },
    {
      "inputs": [
        {
          "internalType": "address",
          "name": "",
          "type": "address"
        },
        {
          "internalType": "address",
          "name": "",
          "type": "address"
        },
        {
          "internalType": "uint256",
          "name": "",
          "type": "uint256"
        },
        {
          "internalType": "uint256",
          "name": "",
          "type": "uint256"
        },
        {
          "internalType": "bytes",
          "name": "",
          "type": "bytes"
        }
      ],
      "name": "onERC1155Received",
      "outputs": [
        {
          "internalType": "bytes4",
          "name": "",
          "type": "bytes4"
        }
      ],
      "stateMutability": "nonpayable",
      "type": "function"
    },
    {
      "inputs": [
        {
          "internalType": "address",
          "name": "",
          "type": "address"
        },
        {
          "internalType": "address",
          "name": "",
          "type": "address"
        },
        {
          "internalType": "uint256",
          "name": "",
          "type": "uint256"
        },
        {
          "internalType": "bytes",
          "name": "",
          "type": "bytes"
        }
      ],
      "name": "onERC721Received",
      "outputs": [
        {
          "internalType": "bytes4",
          "name": "",
          "type": "bytes4"
        }
      ],
      "stateMutability": "nonpayable",
      "type": "function"
    },
    {
      "inputs": [],
      "name": "owner",
      "outputs": [
        {
          "internalType": "address",
          "name": "",
          "type": "address"
        }
      ],
      "stateMutability": "view",
      "type": "function"
    },
    {
      "inputs": [],
      "name": "pause",
      "outputs": [],
      "stateMutability": "nonpayable",
      "type": "function"
    },
    {
      "inputs": [],
      "name": "paused",
      "outputs": [
        {
          "internalType": "bool",
          "name": "",
          "type": "bool"
        }
      ],
      "stateMutability": "view",
      "type": "function"
    },
    {
      "inputs": [
        {
          "internalType": "uint32",
          "name": "_loanId",
          "type": "uint32"
        }
      ],
      "name": "payBackLoan",
      "outputs": [],
      "stateMutability": "nonpayable",
      "type": "function"
    },
    {
      "inputs": [
        {
          "internalType": "uint32",
          "name": "_loanId",
          "type": "uint32"
        }
      ],
      "name": "payBackLoanSafe",
      "outputs": [],
      "stateMutability": "nonpayable",
      "type": "function"
    },
    {
      "inputs": [
        {
          "internalType": "uint32",
          "name": "_loanId",
          "type": "uint32"
        },
        {
          "internalType": "address",
          "name": "_target",
          "type": "address"
        },
        {
          "internalType": "bytes",
          "name": "_data",
          "type": "bytes"
        },
        {
          "internalType": "address",
          "name": "_nftAirdrop",
          "type": "address"
        },
        {
          "internalType": "uint256",
          "name": "_nftAirdropId",
          "type": "uint256"
        },
        {
          "internalType": "bool",
          "name": "_is1155",
          "type": "bool"
        },
        {
          "internalType": "uint256",
          "name": "_nftAirdropAmount",
          "type": "uint256"
        }
      ],
      "name": "pullAirdrop",
      "outputs": [],
      "stateMutability": "nonpayable",
      "type": "function"
    },
    {
      "inputs": [
        {
          "internalType": "uint32",
          "name": "_loanId",
          "type": "uint32"
        },
        {
          "internalType": "address",
          "name": "_target",
          "type": "address"
        },
        {
          "internalType": "bytes",
          "name": "_data",
          "type": "bytes"
        }
      ],
      "name": "pullAirdropReceiver",
      "outputs": [],
      "stateMutability": "nonpayable",
      "type": "function"
    },
    {
      "inputs": [
        {
          "internalType": "uint32",
          "name": "_loanId",
          "type": "uint32"
        },
        {
          "internalType": "uint32",
          "name": "_newLoanDuration",
          "type": "uint32"
        },
        {
          "internalType": "uint256",
          "name": "_newMaximumRepaymentAmount",
          "type": "uint256"
        },
        {
          "internalType": "uint256",
          "name": "_renegotiationFee",
          "type": "uint256"
        },
        {
          "internalType": "uint256",
          "name": "_lenderNonce",
          "type": "uint256"
        },
        {
          "internalType": "uint256",
          "name": "_expiry",
          "type": "uint256"
        },
        {
          "internalType": "bytes",
          "name": "_lenderSignature",
          "type": "bytes"
        }
      ],
      "name": "renegotiateLoan",
      "outputs": [],
      "stateMutability": "nonpayable",
      "type": "function"
    },
    {
      "inputs": [
        {
          "internalType": "address",
          "name": "_erc20",
          "type": "address"
        },
        {
          "internalType": "bool",
          "name": "_permit",
          "type": "bool"
        }
      ],
      "name": "setERC20Permit",
      "outputs": [],
      "stateMutability": "nonpayable",
      "type": "function"
    },
    {
      "inputs": [
        {
          "internalType": "address[]",
          "name": "_erc20s",
          "type": "address[]"
        },
        {
          "internalType": "bool[]",
          "name": "_permits",
          "type": "bool[]"
        }
      ],
      "name": "setERC20Permits",
      "outputs": [],
      "stateMutability": "nonpayable",
      "type": "function"
    },
    {
      "inputs": [
        {
          "internalType": "bytes4",
          "name": "_interfaceId",
          "type": "bytes4"
        }
      ],
      "name": "supportsInterface",
      "outputs": [
        {
          "internalType": "bool",
          "name": "",
          "type": "bool"
        }
      ],
      "stateMutability": "view",
      "type": "function"
    },
    {
      "inputs": [
        {
          "internalType": "address",
          "name": "_newOwner",
          "type": "address"
        }
      ],
      "name": "transferOwnership",
      "outputs": [],
      "stateMutability": "nonpayable",
      "type": "function"
    },
    {
      "inputs": [],
      "name": "unpause",
      "outputs": [],
      "stateMutability": "nonpayable",
      "type": "function"
    },
    {
      "inputs": [
        {
          "internalType": "uint16",
          "name": "_newAdminFeeInBasisPoints",
          "type": "uint16"
        }
      ],
      "name": "updateAdminFee",
      "outputs": [],
      "stateMutability": "nonpayable",
      "type": "function"
    },
    {
      "inputs": [
        {
          "internalType": "uint256",
          "name": "_newMaximumLoanDuration",
          "type": "uint256"
        }
      ],
      "name": "updateMaximumLoanDuration",
      "outputs": [],
      "stateMutability": "nonpayable",
      "type": "function"
    },
    {
      "inputs": [
        {
          "internalType": "uint32",
          "name": "_loanId",
          "type": "uint32"
        }
      ],
      "name": "wrapCollateral",
      "outputs": [],
      "stateMutability": "nonpayable",
      "type": "function"
    }
  ],
  "transactionHash": "0x223002ee86a9c8214a2f01215af055638dc1f880ebd49d50b9c483e819a1b2de",
  "args": [
    "0x02e037F56728E947e92Af2c05baF7FeF387Ddd06",
    "0xBD2cc314A2FCB8C0313641120Faf027d30DE5eA2",
    []
  ],
  "numDeployments": 1,
  "solcInputHash": "54de0b2a48f04d02d32721198484cdf8",
  "bytecode": "0x60c06040526301e91c806002556003805461ffff19166101f41790553480156200002857600080fd5b50604051620054b9380380620054b98339810160408190526200004b9162000298565b60405163f99a8ffb60e01b815260206004820152601760248201527f4449524543545f4c4f414e5f434f4f5244494e41544f5200000000000000000060448201528390839073d3D0E26010ABeF694F4074ca39E88c5d6dEd70C19063f99a8ffb9060640160206040518083038186803b158015620000c857600080fd5b505af4158015620000dd573d6000803e3d6000fd5b505050506040513d601f19601f8201168201806040525081019062000103919062000394565b8383806200011181620001a4565b50506000805460ff60a01b19168155600180556001600160601b0319606085901b1660a05260808390525b81518110156200019657620001818282815181106200016b57634e487b7160e01b600052603260045260246000fd5b60200260200101516001620001f460201b60201c565b806200018d81620003ad565b9150506200013c565b5050505050505050620003eb565b600080546001600160a01b038381166001600160a01b0319831681178455604051919092169283917f8be0079c531659141344cd1fd0a4f28419497f9722a3daafe3b4186f6b6457e09190a35050565b6001600160a01b0382166200021c57604051636e8ab17b60e11b815260040160405180910390fd5b6001600160a01b0382166000818152600b6020908152604091829020805460ff191685151590811790915591519182527ff100355be652ecc881568750e6a98c0713e4316f75d5314ebc9039e0acb52f24910160405180910390a25050565b80516001600160a01b03811681146200029357600080fd5b919050565b600080600060608486031215620002ad578283fd5b620002b8846200027b565b92506020620002c98186016200027b565b60408601519093506001600160401b0380821115620002e6578384fd5b818701915087601f830112620002fa578384fd5b8151818111156200030f576200030f620003d5565b8060051b604051601f19603f83011681018181108582111715620003375762000337620003d5565b604052828152858101935084860182860187018c101562000356578788fd5b8795505b8386101562000383576200036e816200027b565b8552600195909501949386019386016200035a565b508096505050505050509250925092565b600060208284031215620003a6578081fd5b5051919050565b6000600019821415620003ce57634e487b7160e01b81526011600452602481fd5b5060010190565b634e487b7160e01b600052604160045260246000fd5b60805160a05160601c615019620004a0600039600081816104c70152818161089601528181610ab401528181610c3f01528181610fe3015281816110ee01528181611237015281816113ba0152818161182401528181611ab801528181611ced01528181611e4b0152818161253e0152818161284701528181612be901528181612ed00152613a1e0152600081816105bb01528181611a8f01528181611e2201528181612eaa01526139f501526150196000f3fe608060405234801561001057600080fd5b506004361061022d5760003560e01c8063657a88a11161013b578063ab3b1280116100b8578063bce42e421161007c578063bce42e42146106d5578063ddfddad6146106e8578063eda928ab146106fb578063f23a6e611461070e578063f2fde38b1461072e57600080fd5b8063ab3b128014610660578063ac4e35ea14610689578063b18e77721461069c578063b31ec1d4146106af578063bc197c81146106c257600080fd5b80638456cb59116100ff5780638456cb5914610603578063872873be1461060b5780638da5cb5b146106375780639658e4051461063f578063a4441a6f1461065257600080fd5b8063657a88a1146105875780636ed93dd01461059a57806377cfa991146105b65780637836baf1146105dd57806379b64040146105f057600080fd5b8063318dacd3116101c95780635163a1c31161018d5780635163a1c31461051157806356efe98c1461052457806359a727341461054c5780635c975abb1461055f578063616693d81461056757600080fd5b8063318dacd314610476578063328404b014610489578063365a86fc146104c25780633f4ba83a146104f657806347948d92146104fe57600080fd5b806301ffc9a7146102325780630717f3aa1461025a5780630ff81c3f1461027d578063150b7a02146102e7578063192b355d1461031e5780631c6caf4114610335578063227cda181461034a5780632b218022146104505780632c1d4ec214610463575b600080fd5b610245610240366004614544565b610741565b60405190151581526020015b60405180910390f35b61024561026836600461472d565b60066020526000908152604090205460ff1681565b6102bd61028b36600461472d565b6005602052600090815260409020546001600160a01b0381169061ffff600160a01b8204811691600160b01b90041683565b604080516001600160a01b03909416845261ffff9283166020850152911690820152606001610251565b6103056102f53660046142be565b630a85bd0160e11b949350505050565b6040516001600160e01b03199091168152602001610251565b61032760025481565b604051908152602001610251565b6103486103433660046146c5565b610793565b005b6103dc61035836600461472d565b600460208190526000918252604090912080546001820154600283015460038401549484015460058501546006909501549395929491936001600160a01b0380851694600160a01b80820463ffffffff1695600160c01b830461ffff90811696600160d01b909404169484841694929093046001600160401b03169290821691168b565b604080519b8c5260208c019a909a52988a01979097526001600160a01b0395861660608a015263ffffffff909416608089015261ffff92831660a0890152911660c0870152821660e08601526001600160401b03166101008501529081166101208401521661014082015261016001610251565b61034861045e36600461472d565b61083d565b610348610471366004614425565b61092c565b6103486104843660046147c7565b610a5b565b6102456104973660046143cd565b6001600160a01b03919091166000908152600a60209081526040808320938352929052205460ff1690565b6104e97f000000000000000000000000000000000000000000000000000000000000000081565b6040516102519190614a63565b610348610ca4565b61034861050c3660046146fd565b610cdd565b61034861051f366004614425565b610d66565b6105376105323660046145ea565b610ee2565b60405163ffffffff9091168152602001610251565b61034861055a36600461472d565b610f8a565b6102456111ce565b762224a922a1aa2fa627a0a72fa324ac22a22fa7a32322a960491b610327565b610348610595366004614765565b6111de565b6105a361271081565b60405161ffff9091168152602001610251565b6103277f000000000000000000000000000000000000000000000000000000000000000081565b6103486105eb3660046143a0565b61141b565b6103486105fe366004614466565b611458565b610348611523565b610245610619366004614193565b6001600160a01b03166000908152600b602052604090205460ff1690565b6104e961155a565b61034861064d3660046146fd565b611569565b6003546105a39061ffff1681565b61032761066e36600461472d565b63ffffffff1660009081526004602052604090206001015490565b610348610697366004614425565b6115cb565b6103486106aa366004614866565b611762565b6103486106bd36600461472d565b6117cb565b6103056106d0366004614204565b6119cb565b6103486106e336600461472d565b611a16565b6103486106f6366004614193565b611bcc565b61034861070936600461472d565b611c94565b61030561071c366004614327565b63f23a6e6160e01b9695505050505050565b61034861073c366004614193565b611d68565b60006001600160e01b03198216630271189760e51b148061077257506001600160e01b03198216630a85bd0160e11b145b8061078d57506001600160e01b031982166301ffc9a760e01b145b92915050565b3361079c61155a565b6001600160a01b0316146107cb5760405162461bcd60e51b81526004016107c290614af1565b60405180910390fd5b61271061ffff821611156107f2576040516314004bcf60e21b815260040160405180910390fd5b6003805461ffff191661ffff83169081179091556040519081527f03017365bbe16943b524030df07e7689168ab63e854d27417498e6f9dc584dab906020015b60405180910390a150565b600260015414156108605760405162461bcd60e51b81526004016107c290614b26565b600260015560405163364d0abb60e11b8152734b45B6fC98616D4A3E9c59395d4526a863202B6e90636c9a1576906108be9084907f000000000000000000000000000000000000000000000000000000000000000090600401614d82565b60006040518083038186803b1580156108d657600080fd5b505af41580156108ea573d6000803e3d6000fd5b505050506000806000806108fd85611e08565b93509350935093506109118585858561221c565b60016109208686858585612416565b50506001805550505050565b3361093561155a565b6001600160a01b03161461095b5760405162461bcd60e51b81526004016107c290614af1565b6040516370a0823160e01b815283906000906001600160a01b038316906370a082319061098c903090600401614a63565b60206040518083038186803b1580156109a457600080fd5b505afa1580156109b8573d6000803e3d6000fd5b505050506040513d601f19601f820116820180604052508101906109dc9190614715565b9050806109fc576040516334b5d06d60e21b815260040160405180910390fd5b6001600160a01b0385166000908152600860205260409020548490610a219083614f3d565b1015610a405760405163368e910d60e21b815260040160405180910390fd5b610a546001600160a01b038316848661242d565b5050505050565b60026001541415610a7e5760405162461bcd60e51b81526004016107c290614b26565b6002600155604051635bfd0fb160e11b8152734b45B6fC98616D4A3E9c59395d4526a863202B6e9063b7fa1f6290610adc908b907f000000000000000000000000000000000000000000000000000000000000000090600401614d82565b60006040518083038186803b158015610af457600080fd5b505af4158015610b08573d6000803e3d6000fd5b5050505063ffffffff881660009081526006602052604090205460ff1615610b4357604051633db5ad0160e11b815260040160405180910390fd5b63ffffffff8881166000908152600460208181526040928390208351610160810185528154815260018201549281019290925260028101548285015260038101546001600160a01b038082166060850152600160a01b8083049097166080850152600160c01b820461ffff90811660a0860152600160d01b90920490911660c08401528184015480821660e0850152959095046001600160401b03166101008301526005810154851661012083015260060154909316610140840152905163491bd44160e11b8152734b45B6fC98616D4A3E9c59395d4526a863202B6e91639237a88291610c65918d9186918e918e918e918e918e918e918e917f00000000000000000000000000000000000000000000000000000000000000009101614da1565b60006040518083038186803b158015610c7d57600080fd5b505af4158015610c91573d6000803e3d6000fd5b5050600180555050505050505050505050565b33610cad61155a565b6001600160a01b031614610cd35760405162461bcd60e51b81526004016107c290614af1565b610cdb612483565b565b33610ce661155a565b6001600160a01b031614610d0c5760405162461bcd60e51b81526004016107c290614af1565b63ffffffff811115610d3157604051630737847960e51b815260040160405180910390fd5b60028190556040518181527f64f65a4a1a932867ad599da36210fc47c698b3abb2413cfdfd36bf59697a69cb90602001610832565b33610d6f61155a565b6001600160a01b031614610d955760405162461bcd60e51b81526004016107c290614af1565b6001600160a01b0383166000908152600760209081526040808320858452909152902054839015610dd957604051636a32439f60e01b815260040160405180910390fd5b6040516331a9108f60e11b81526004810184905230906001600160a01b03831690636352211e9060240160206040518083038186803b158015610e1b57600080fd5b505afa158015610e2f573d6000803e3d6000fd5b505050506040513d601f19601f82011682018060405250810190610e5391906141af565b6001600160a01b031614610e7a5760405163ca5ae8a360e01b815260040160405180910390fd5b604051632142170760e11b81526001600160a01b038216906342842e0e90610eaa90309086908890600401614a77565b600060405180830381600087803b158015610ec457600080fd5b505af1158015610ed8573d6000803e3d6000fd5b5050505050505050565b6000610eec6111ce565b15610f095760405162461bcd60e51b81526004016107c290614ac7565b60026001541415610f2c5760405162461bcd60e51b81526004016107c290614b26565b60026001556060840151600090610f4290612515565b9050610f4e858261263b565b610f5785612722565b610f7d610f648683612748565b610f76856000015186602001516127fc565b87876128fa565b6001805595945050505050565b60026001541415610fad5760405162461bcd60e51b81526004016107c290614b26565b6002600155604051635bfd0fb160e11b8152734b45B6fC98616D4A3E9c59395d4526a863202B6e9063b7fa1f629061100b9084907f000000000000000000000000000000000000000000000000000000000000000090600401614d82565b60006040518083038186803b15801561102357600080fd5b505af4158015611037573d6000803e3d6000fd5b5050505063ffffffff811660009081526006602052604090205460ff161561107257604051633db5ad0160e11b815260040160405180910390fd5b63ffffffff8116600090815260046020908152604080832060058101546001600160a01b0316845260078352818420600282015485529092528220805491926001926110bf908490614f3d565b9091555050604051631276b77d60e11b815263ffffffff83166004820152602481018290526001600160a01b037f00000000000000000000000000000000000000000000000000000000000000001660448201526000908190734b45B6fC98616D4A3E9c59395d4526a863202B6e906324ed6efa90606401604080518083038186803b15801561114e57600080fd5b505af4158015611162573d6000803e3d6000fd5b505050506040513d601f19601f8201168201806040525081019061118691906143f8565b6001600160a01b0382166000908152600760209081526040808320848452909152812080549395509193506001926111bf908490614f25565b90915550506001805550505050565b600054600160a01b900460ff1690565b600260015414156112015760405162461bcd60e51b81526004016107c290614b26565b6002600155604051635bfd0fb160e11b8152734b45B6fC98616D4A3E9c59395d4526a863202B6e9063b7fa1f629061125f9087907f000000000000000000000000000000000000000000000000000000000000000090600401614d82565b60006040518083038186803b15801561127757600080fd5b505af415801561128b573d6000803e3d6000fd5b5050505063ffffffff841660009081526006602052604090205460ff16156112c657604051633db5ad0160e11b815260040160405180910390fd5b63ffffffff8481166000908152600460208181526040928390208351610160810185528154815260018201549281019290925260028101548285015260038101546001600160a01b038082166060850152600160a01b8083049097166080850152600160c01b820461ffff90811660a0860152600160d01b90920490911660c08401528184015480821660e0850152959095046001600160401b0316610100830152600581015485166101208301526006015490931661014084015290516361ec917160e11b8152734b45B6fC98616D4A3E9c59395d4526a863202B6e9163c3d922e2916113e091899186918a918a918a917f00000000000000000000000000000000000000000000000000000000000000009101614e1b565b60006040518083038186803b1580156113f857600080fd5b505af415801561140c573d6000803e3d6000fd5b50506001805550505050505050565b3361142461155a565b6001600160a01b03161461144a5760405162461bcd60e51b81526004016107c290614af1565b6114548282612aae565b5050565b3361146161155a565b6001600160a01b0316146114875760405162461bcd60e51b81526004016107c290614af1565b80518251146114a857604051621dbe8b60e81b815260040160405180910390fd5b60005b825181101561151e5761150c8382815181106114d757634e487b7160e01b600052603260045260246000fd5b60200260200101518383815181106114ff57634e487b7160e01b600052603260045260246000fd5b6020026020010151612aae565b8061151681614f80565b9150506114ab565b505050565b3361152c61155a565b6001600160a01b0316146115525760405162461bcd60e51b81526004016107c290614af1565b610cdb612b34565b6000546001600160a01b031690565b336000908152600a6020908152604080832084845290915290205460ff16156115a557604051633ab3447f60e11b815260040160405180910390fd5b336000908152600a6020908152604080832093835292905220805460ff19166001179055565b336115d461155a565b6001600160a01b0316146115fa5760405162461bcd60e51b81526004016107c290614af1565b604051627eeac760e11b815283906000906001600160a01b0383169062fdd58e9061162b9030908890600401614a9b565b60206040518083038186803b15801561164357600080fd5b505afa158015611657573d6000803e3d6000fd5b505050506040513d601f19601f8201168201806040525081019061167b9190614715565b6001600160a01b0386166000908152600760209081526040808320888452909152902054909150156116c057604051636a32439f60e01b815260040160405180910390fd5b806116de5760405163f266c3ab60e01b815260040160405180910390fd5b604051637921219560e11b81523060048201526001600160a01b038481166024830152604482018690526064820183905260a06084830152600060a483015283169063f242432a9060c401600060405180830381600087803b15801561174357600080fd5b505af1158015611757573d6000803e3d6000fd5b505050505050505050565b61176a6111ce565b156117875760405162461bcd60e51b81526004016107c290614ac7565b600260015414156117aa5760405162461bcd60e51b81526004016107c290614b26565b60026001556117be87878787878787612b94565b5050600180555050505050565b600260015414156117ee5760405162461bcd60e51b81526004016107c290614b26565b6002600155604051635bfd0fb160e11b8152734b45B6fC98616D4A3E9c59395d4526a863202B6e9063b7fa1f629061184c9084907f000000000000000000000000000000000000000000000000000000000000000090600401614d82565b60006040518083038186803b15801561186457600080fd5b505af4158015611878573d6000803e3d6000fd5b5050505063ffffffff811660009081526006602052604090205460ff16156118b357604051633db5ad0160e11b815260040160405180910390fd5b6000806000806118c285611e08565b93509350935093506000826080015163ffffffff168361010001516001600160401b03166118f09190614f25565b90508042116119125760405163477e47f960e11b815260040160405180910390fd5b336001600160a01b0385161461193b57604051633c35984560e11b815260040160405180910390fd5b600061194a8786868685612416565b8351604080860151610120870151825193845260208401919091529082018490524260608301526001600160a01b039081166080830152808716919088169063ffffffff8a16907f4fac0ff43299a330bce57d0579985305af580acf256a6d7977083ede81be13269060a00160405180910390a45050600180555050505050565b60405162461bcd60e51b815260206004820152601b60248201527f45524331313535206261746368206e6f7420737570706f72746564000000000060448201526000906064016107c2565b60026001541415611a395760405162461bcd60e51b81526004016107c290614b26565b600260015563ffffffff81166000908152600460205260409020600601546001600160a01b0316338114611a80576040516348c5194760e11b815260040160405180910390fd5b604051631c2d8fb360e31b81527f000000000000000000000000000000000000000000000000000000000000000060048201526000907f00000000000000000000000000000000000000000000000000000000000000006001600160a01b03169063e16c7d989060240160206040518083038186803b158015611b0257600080fd5b505afa158015611b16573d6000803e3d6000fd5b505050506040513d601f19601f82011682018060405250810190611b3a91906141af565b604051631b982cf160e01b81529091506001600160a01b03821690631b982cf190611b6b9086908690600401614d82565b600060405180830381600087803b158015611b8557600080fd5b505af1158015611b99573d6000803e3d6000fd5b50505063ffffffff909316600090815260046020526040902060060180546001600160a01b031916905550506001805550565b60026001541415611bef5760405162461bcd60e51b81526004016107c290614b26565b60026001553360009081526009602090815260408083206001600160a01b038516845290915290205480611c365760405163073ad17560e51b815260040160405180910390fd5b611c4a6001600160a01b038316338361242d565b3360009081526009602090815260408083206001600160a01b03861684528252808320839055600890915281208054839290611c87908490614f3d565b9091555050600180555050565b60026001541415611cb75760405162461bcd60e51b81526004016107c290614b26565b600260015560405163364d0abb60e11b8152734b45B6fC98616D4A3E9c59395d4526a863202B6e90636c9a157690611d159084907f000000000000000000000000000000000000000000000000000000000000000090600401614d82565b60006040518083038186803b158015611d2d57600080fd5b505af4158015611d41573d6000803e3d6000fd5b50505050600080600080611d5485611e08565b935093509350935061091185858585613020565b33611d7161155a565b6001600160a01b031614611d975760405162461bcd60e51b81526004016107c290614af1565b6001600160a01b038116611dfc5760405162461bcd60e51b815260206004820152602660248201527f4f776e61626c653a206e6577206f776e657220697320746865207a65726f206160448201526564647265737360d01b60648201526084016107c2565b611e0581613443565b50565b600080611e13613eb9565b604051631c2d8fb360e31b81527f000000000000000000000000000000000000000000000000000000000000000060048201526000907f00000000000000000000000000000000000000000000000000000000000000006001600160a01b03169063e16c7d989060240160206040518083038186803b158015611e9557600080fd5b505afa158015611ea9573d6000803e3d6000fd5b505050506040513d601f19601f82011682018060405250810190611ecd91906141af565b60405163e6c5a54160e01b815263ffffffff871660048201529091506000906001600160a01b0383169063e6c5a5419060240160606040518083038186803b158015611f1857600080fd5b505afa158015611f2c573d6000803e3d6000fd5b505050506040513d601f19601f82011682018060405250810190611f50919061456c565b60208181015163ffffffff898116600090815260048085526040918290208251610160810184528154815260018201549681019690965260028101549286019290925260038201546001600160a01b038082166060880152600160a01b8083049095166080880152600160c01b820461ffff90811660a0890152600160d01b90920490911660c08701529082015480821660e08701526001600160401b03939004831661010086015260058201548116610120860152600690910154166101408401819052929650929350919091169015612032578361014001519550612123565b826001600160a01b0316638208e76c6040518163ffffffff1660e01b815260040160206040518083038186803b15801561206b57600080fd5b505afa15801561207f573d6000803e3d6000fd5b505050506040513d601f19601f820116820180604052508101906120a391906141af565b6001600160a01b0316636352211e826040518263ffffffff1660e01b81526004016120d091815260200190565b60206040518083038186803b1580156120e857600080fd5b505afa1580156120fc573d6000803e3d6000fd5b505050506040513d601f19601f8201168201806040525081019061212091906141af565b95505b826001600160a01b0316634fbe68a06040518163ffffffff1660e01b815260040160206040518083038186803b15801561215c57600080fd5b505afa158015612170573d6000803e3d6000fd5b505050506040513d601f19601f8201168201806040525081019061219491906141af565b6001600160a01b0316636352211e826040518263ffffffff1660e01b81526004016121c191815260200190565b60206040518083038186803b1580156121d957600080fd5b505afa1580156121ed573d6000803e3d6000fd5b505050506040513d601f19601f8201168201806040525081019061221191906141af565b945050509193509193565b63ffffffff84166000908152600560209081526040808320815160608101835290546001600160a01b038116825261ffff600160a01b8204811694830194909452600160b01b900490921690820152908061227684613493565b60608601519193509150612295906001600160a01b031633878461355c565b6020830151604051637f5e0ed360e01b81526004810184905261ffff9091166024820152600090734b45B6fC98616D4A3E9c59395d4526a863202B6e90637f5e0ed39060440160206040518083038186803b1580156122f357600080fd5b505af4158015612307573d6000803e3d6000fd5b505050506040513d601f19601f8201168201806040525081019061232b9190614715565b9050600081118015612346575083516001600160a01b031615155b15612375576123558184614f3d565b84516060870151919450612375916001600160a01b03169033908461355c565b6123973361238161155a565b60608801516001600160a01b031691908661355c565b856001600160a01b0316876001600160a01b03168963ffffffff167f3687d64f40b11dd1c102a76882ac1735891c546a96ae27935eb5c7865b9d86fa886000015189604001518789888c600001518e61012001518f60600151604051612404989796959493929190614d3d565b60405180910390a45050505050505050565b61242285848484613583565b610a5483308661361c565b61151e8363a9059cbb60e01b848460405160240161244c929190614a9b565b60408051601f198184030181529190526020810180516001600160e01b03166001600160e01b0319909316929092179091526136bf565b61248b6111ce565b6124ce5760405162461bcd60e51b815260206004820152601460248201527314185d5cd8589b194e881b9bdd081c185d5cd95960621b60448201526064016107c2565b6000805460ff60a01b191690557f5db9ee0a495bf2e6ff9c91a7834c1ba4fdd244a5e8aa4e537bd38aeae4b073aa335b60405161250b9190614a63565b60405180910390a1565b604051631c2d8fb360e31b81526d5045524d49545445445f4e46545360901b60048201526000907f00000000000000000000000000000000000000000000000000000000000000006001600160a01b03169063e16c7d989060240160206040518083038186803b15801561258857600080fd5b505afa15801561259c573d6000803e3d6000fd5b505050506040513d601f19601f820116820180604052508101906125c091906141af565b6001600160a01b031663b8c8aff8836040518263ffffffff1660e01b81526004016125eb9190614a63565b60206040518083038186803b15801561260357600080fd5b505afa158015612617573d6000803e3d6000fd5b505050506040513d601f19601f8201168201806040525081019061078d91906141af565b60c08201516001600160a01b03166000908152600b602052604090205460ff1661267857604051633bf6dbbd60e11b815260040160405180910390fd5b6001600160a01b03811661269f57604051634499a26b60e01b815260040160405180910390fd5b600254826080015163ffffffff1611156126cc57604051631c71337360e11b815260040160405180910390fd5b608082015163ffffffff166126f45760405163f883f39d60e01b815260040160405180910390fd5b60035460a083015161ffff90811691161461145457604051635b5e710360e01b815260040160405180910390fd5b805160208201511015611e0557604051635169219960e01b815260040160405180910390fd5b612750613eb9565b6040518061016001604052808460000151815260200184602001518152602001846040015181526020018460c001516001600160a01b03168152602001846080015163ffffffff168152602001600061ffff1681526020018460a0015161ffff168152602001836001600160a01b03168152602001426001600160401b0316815260200184606001516001600160a01b03168152602001336001600160a01b0316815250905092915050565b6040805160608101825260008082526020820181905291810191909152604080516060810182526001600160a01b0380861680835292516347e332df60e11b815260048101939093527f0000000000000000000000000000000000000000000000000000000000000000166024830152906020820190734b45B6fC98616D4A3E9c59395d4526a863202B6e90638fc665be9060440160206040518083038186803b1580156128a957600080fd5b505af41580156128bd573d6000803e3d6000fd5b505050506040513d601f19601f820116820180604052508101906128e191906146e1565b61ffff1681526020018361ffff16815250905092915050565b6040808201516001600160a01b03166000908152600a60209081528282208451835290529081205460ff161561294357604051633ab3447f60e11b815260040160405180910390fd5b6040808301516001600160a01b03166000908152600a6020908152828220855183529052819020805460ff191660011790555163eb2ac63f60e01b8152736AFd80bBc24123Ab9ec630b239D0DEFb40D35e389063eb2ac63f906129ac9086908690600401614cae565b60206040518083038186803b1580156129c457600080fd5b505af41580156129d8573d6000803e3d6000fd5b505050506040513d601f19601f820116820180604052508101906129fc9190614528565b612a1957604051636d2a03cf60e01b815260040160405180910390fd5b6000612a4b762224a922a1aa2fa627a0a72fa324ac22a22fa7a32322a960491b87873387604001518960e00151613791565b905082604001516001600160a01b0316336001600160a01b03168263ffffffff167f42cc7f53ef7b494c5dd6f0095175f7d07b5d3d7b2a03f34389fea445ba4a3a8b8989604051612a9d929190614b5d565b60405180910390a495945050505050565b6001600160a01b038216612ad557604051636e8ab17b60e11b815260040160405180910390fd5b6001600160a01b0382166000818152600b6020908152604091829020805460ff191685151590811790915591519182527ff100355be652ecc881568750e6a98c0713e4316f75d5314ebc9039e0acb52f24910160405180910390a25050565b612b3c6111ce565b15612b595760405162461bcd60e51b81526004016107c290614ac7565b6000805460ff60a01b1916600160a01b1790557f62e78cea01bee320cd4e420270b5ea74000d11b0c9f74754ebdbfc544b05a2586124fe3390565b63ffffffff87166000908152600460208190526040808320905163b5ec526360e01b81529092918291734b45B6fC98616D4A3E9c59395d4526a863202B6e9163b5ec526391612c0f9187918f918f918f918e917f00000000000000000000000000000000000000000000000000000000000000009101614ba3565b604080518083038186803b158015612c2657600080fd5b505af4158015612c3a573d6000803e3d6000fd5b505050506040513d601f19601f82011682018060405250810190612c5e91906141cb565b6001600160a01b0381166000818152600a602090815260408083208c8452825291829020805460ff1916600117905581516080810183528b81529081018a905280820192909252606082018890525163d06ff74160e01b8152929450909250736AFd80bBc24123Ab9ec630b239D0DEFb40D35e389163d06ff74191612ced918e918e918e918e91600401614e74565b60206040518083038186803b158015612d0557600080fd5b505af4158015612d19573d6000803e3d6000fd5b505050506040513d601f19601f82011682018060405250810190612d3d9190614528565b612d5a5760405163e83dc84b60e01b815260040160405180910390fd5b60008715612e44576003840154604051632ad659af60e01b8152600481018a9052600160d01b90910461ffff166024820152734b45B6fC98616D4A3E9c59395d4526a863202B6e90632ad659af9060440160206040518083038186803b158015612dc357600080fd5b505af4158015612dd7573d6000803e3d6000fd5b505050506040513d601f19601f82011682018060405250810190612dfb9190614715565b9050612e228383612e0c848c614f3d565b60038801546001600160a01b031692919061355c565b612e4483612e2e61155a565b60038701546001600160a01b031691908461355c565b60038401805463ffffffff60a01b1916600160a01b63ffffffff8d16021790556001840189905560068401546001600160a01b0316612e9b576006840180546001600160a01b0319166001600160a01b0385161790555b604051631c2d8fb360e31b81527f000000000000000000000000000000000000000000000000000000000000000060048201527f00000000000000000000000000000000000000000000000000000000000000006001600160a01b03169063e16c7d989060240160206040518083038186803b158015612f1a57600080fd5b505afa158015612f2e573d6000803e3d6000fd5b505050506040513d601f19601f82011682018060405250810190612f5291906141af565b6001600160a01b031663072db1478c846040518363ffffffff1660e01b8152600401612f7f929190614d82565b600060405180830381600087803b158015612f9957600080fd5b505af1158015612fad573d6000803e3d6000fd5b50506040805163ffffffff8e81168252602082018e90529181018c9052606081018590526001600160a01b03808716945087169250908e16907f37357bed780fda5aed28c32fe9cd762cb2f2f8a70c0d9b342aba59c945943ca09060800160405180910390a45050505050505050505050565b63ffffffff84166000908152600560209081526040808320815160608101835290546001600160a01b038116825261ffff600160a01b8204811694830194909452600160b01b900490921690820152908061307a84613493565b9150915083606001516001600160a01b03166323b872dd3387846040518463ffffffff1660e01b81526004016130b293929190614a77565b602060405180830381600087803b1580156130cc57600080fd5b505af19250505080156130fc575060408051601f3d908101601f191682019092526130f991810190614528565b60015b6131c257606084015161311a906001600160a01b031633308461355c565b6001600160a01b038086166000908152600960209081526040808320606089015190941683529290529081208054839290613156908490614f25565b909155505060608401516001600160a01b031660009081526008602052604081208054839290613187908490614f25565b909155505060405163ffffffff8816907fe6dfda7486ec1e06f754c28be83c676af29b18143765a2843361313cdab2712590600090a26131c4565b505b6020830151604051637f5e0ed360e01b81526004810184905261ffff9091166024820152600090734b45B6fC98616D4A3E9c59395d4526a863202B6e90637f5e0ed39060440160206040518083038186803b15801561322257600080fd5b505af4158015613236573d6000803e3d6000fd5b505050506040513d601f19601f8201168201806040525081019061325a9190614715565b9050600081118015613275575083516001600160a01b031615155b1561332d576132848184614f3d565b606086015185516040516323b872dd60e01b81529295506001600160a01b03909116916323b872dd916132be913391908690600401614a77565b602060405180830381600087803b1580156132d857600080fd5b505af1925050508015613308575060408051601f3d908101601f1916820190925261330591810190614528565b60015b61332b576060850151613326906001600160a01b031633308461355c565b61332d565b505b84606001516001600160a01b03166323b872dd3361334961155a565b866040518463ffffffff1660e01b815260040161336893929190614a77565b602060405180830381600087803b15801561338257600080fd5b505af19250505080156133b2575060408051601f3d908101601f191682019092526133af91810190614528565b60015b6133d55760608501516133d0906001600160a01b031633308661355c565b612397565b50856001600160a01b0316876001600160a01b03168963ffffffff167f3687d64f40b11dd1c102a76882ac1735891c546a96ae27935eb5c7865b9d86fa886000015189604001518789888c600001518e61012001518f60600151604051612404989796959493929190614d3d565b600080546001600160a01b038381166001600160a01b0319831681178455604051919092169283917f8be0079c531659141344cd1fd0a4f28419497f9722a3daafe3b4186f6b6457e09190a35050565b6000806000836000015184602001516134ac9190614f3d565b60c0850151604051632ad659af60e01b81526004810183905261ffff9091166024820152909150734b45B6fC98616D4A3E9c59395d4526a863202B6e90632ad659af9060440160206040518083038186803b15801561350a57600080fd5b505af415801561351e573d6000803e3d6000fd5b505050506040513d601f19601f820116820180604052508101906135429190614715565b92508284602001516135549190614f3d565b915050915091565b61357d846323b872dd60e01b85858560405160240161244c93929190614a77565b50505050565b63ffffffff84166000908152600660209081526040808320805460ff191660019081179091556101208701516001600160a01b031684526007835281842087830151855290925282208054919290916135dd908490614f3d565b909155505060405163a4d0845d60e01b815263ffffffff8516600482015281151560248201526001600160a01b0383169063a4d0845d90604401610eaa565b60e083015161012084015160408086015181516001600160a01b038781166024830152868116604483015290931660648401526084808401919091528151808403909101815260a49092018152602080830180516001600160e01b031663b030667160e01b17905281518083019092528082527f4e4654206e6f74207375636365737366756c6c79207472616e736665727265649082015261357d9291906137b7565b6000613714826040518060400160405280602081526020017f5361666545524332303a206c6f772d6c6576656c2063616c6c206661696c6564815250856001600160a01b03166138969092919063ffffffff16565b80519091501561151e57808060200190518101906137329190614528565b61151e5760405162461bcd60e51b815260206004820152602a60248201527f5361666545524332303a204552433230206f7065726174696f6e20646964206e6044820152691bdd081cdd58d8d9595960b21b60648201526084016107c2565b600061379e86853061361c565b6137ac8787878787876138ad565b979650505050505050565b60606001600160a01b0384163b61381f5760405162461bcd60e51b815260206004820152602660248201527f416464726573733a2064656c65676174652063616c6c20746f206e6f6e2d636f6044820152651b9d1c9858dd60d21b60648201526084016107c2565b600080856001600160a01b03168560405161383a9190614a47565b600060405180830381855af49150503d8060008114613875576040519150601f19603f3d011682016040523d82523d6000602084013e61387a565b606091505b509150915061388a828286613d5a565b925050505b9392505050565b60606138a58484600085613d93565b949350505050565b6101208501516001600160a01b03166000908152600760209081526040808320818901518452909152812080546001919083906138eb908490614f25565b909155505085516040868101519051637b2392f160e01b8152600481019290925261ffff1660248201526001600160a01b0383166044820152600090734b45B6fC98616D4A3E9c59395d4526a863202B6e90637b2392f19060640160206040518083038186803b15801561395e57600080fd5b505af4158015613972573d6000803e3d6000fd5b505050506040513d601f19601f820116820180604052508101906139969190614715565b905060008188600001516139aa9190614f3d565b905081156139cc5760608801516139cc906001600160a01b031686868561355c565b60608801516139e6906001600160a01b031686888461355c565b604051631c2d8fb360e31b81527f000000000000000000000000000000000000000000000000000000000000000060048201526000907f00000000000000000000000000000000000000000000000000000000000000006001600160a01b03169063e16c7d989060240160206040518083038186803b158015613a6857600080fd5b505afa158015613a7c573d6000803e3d6000fd5b505050506040513d601f19601f82011682018060405250810190613aa091906141af565b60405163d1f7659560e01b81529091506001600160a01b0382169063d1f7659590613ad19089908e90600401614a9b565b602060405180830381600087803b158015613aeb57600080fd5b505af1158015613aff573d6000803e3d6000fd5b505050506040513d601f19601f82011682018060405250810190613b239190614749565b935088600460008663ffffffff1663ffffffff16815260200190815260200160002060008201518160000155602082015181600101556040820151816002015560608201518160030160006101000a8154816001600160a01b0302191690836001600160a01b0316021790555060808201518160030160146101000a81548163ffffffff021916908363ffffffff16021790555060a08201518160030160186101000a81548161ffff021916908361ffff16021790555060c082015181600301601a6101000a81548161ffff021916908361ffff16021790555060e08201518160040160006101000a8154816001600160a01b0302191690836001600160a01b031602179055506101008201518160040160146101000a8154816001600160401b0302191690836001600160401b031602179055506101208201518160050160006101000a8154816001600160a01b0302191690836001600160a01b031602179055506101408201518160060160006101000a8154816001600160a01b0302191690836001600160a01b0316021790555090505087600560008663ffffffff1663ffffffff16815260200190815260200160002060008201518160000160006101000a8154816001600160a01b0302191690836001600160a01b0316021790555060208201518160000160146101000a81548161ffff021916908361ffff16021790555060408201518160000160166101000a81548161ffff021916908361ffff1602179055509050505050509695505050505050565b60608315613d6957508161388f565b825115613d795782518084602001fd5b8160405162461bcd60e51b81526004016107c29190614ab4565b606082471015613df45760405162461bcd60e51b815260206004820152602660248201527f416464726573733a20696e73756666696369656e742062616c616e636520666f6044820152651c8818d85b1b60d21b60648201526084016107c2565b6001600160a01b0385163b613e4b5760405162461bcd60e51b815260206004820152601d60248201527f416464726573733a2063616c6c20746f206e6f6e2d636f6e747261637400000060448201526064016107c2565b600080866001600160a01b03168587604051613e679190614a47565b60006040518083038185875af1925050503d8060008114613ea4576040519150601f19603f3d011682016040523d82523d6000602084013e613ea9565b606091505b50915091506137ac828286613d5a565b6040805161016081018252600080825260208201819052918101829052606081018290526080810182905260a0810182905260c0810182905260e081018290526101008101829052610120810182905261014081019190915290565b8035613f2081614fc7565b919050565b600082601f830112613f35578081fd5b81356020613f4a613f4583614f02565b614ed2565b80838252828201915082860187848660051b8901011115613f69578586fd5b855b85811015613f90578135613f7e81614fdc565b84529284019290840190600101613f6b565b5090979650505050505050565b60008083601f840112613fae578182fd5b5081356001600160401b03811115613fc4578182fd5b6020830191508360208260051b8501011115613fdf57600080fd5b9250929050565b60008083601f840112613ff7578182fd5b5081356001600160401b0381111561400d578182fd5b602083019150836020828501011115613fdf57600080fd5b600082601f830112614035578081fd5b81356001600160401b0381111561404e5761404e614fb1565b614061601f8201601f1916602001614ed2565b818152846020838601011115614075578283fd5b816020850160208301379081016020019190915292915050565b6000604082840312156140a0578081fd5b604051604081018181106001600160401b03821117156140c2576140c2614fb1565b60405290508082356140d381614fc7565b815260208301356140e381614fea565b6020919091015292915050565b600060808284031215614101578081fd5b604051608081016001600160401b03828210818311171561412457614124614fb1565b8160405282935084358352602085013560208401526040850135915061414982614fc7565b816040840152606085013591508082111561416357600080fd5b5061417085828601614025565b6060830152505092915050565b8035613f2081614fea565b8035613f2081614ffa565b6000602082840312156141a4578081fd5b813561388f81614fc7565b6000602082840312156141c0578081fd5b815161388f81614fc7565b600080604083850312156141dd578081fd5b82516141e881614fc7565b60208401519092506141f981614fc7565b809150509250929050565b60008060008060008060008060a0898b03121561421f578384fd5b883561422a81614fc7565b9750602089013561423a81614fc7565b965060408901356001600160401b0380821115614255578586fd5b6142618c838d01613f9d565b909850965060608b0135915080821115614279578586fd5b6142858c838d01613f9d565b909650945060808b013591508082111561429d578384fd5b506142aa8b828c01613fe6565b999c989b5096995094979396929594505050565b600080600080608085870312156142d3578182fd5b84356142de81614fc7565b935060208501356142ee81614fc7565b92506040850135915060608501356001600160401b0381111561430f578182fd5b61431b87828801614025565b91505092959194509250565b60008060008060008060a0878903121561433f578384fd5b863561434a81614fc7565b9550602087013561435a81614fc7565b9450604087013593506060870135925060808701356001600160401b03811115614382578283fd5b61438e89828a01613fe6565b979a9699509497509295939492505050565b600080604083850312156143b2578182fd5b82356143bd81614fc7565b915060208301356141f981614fdc565b600080604083850312156143df578182fd5b82356143ea81614fc7565b946020939093013593505050565b6000806040838503121561440a578182fd5b825161441581614fc7565b6020939093015192949293505050565b600080600060608486031215614439578081fd5b833561444481614fc7565b925060208401359150604084013561445b81614fc7565b809150509250925092565b60008060408385031215614478578182fd5b82356001600160401b038082111561448e578384fd5b818501915085601f8301126144a1578384fd5b813560206144b1613f4583614f02565b8083825282820191508286018a848660051b89010111156144d0578889fd5b8896505b848710156144fb5780356144e781614fc7565b8352600196909601959183019183016144d4565b5096505086013592505080821115614511578283fd5b5061451e85828601613f25565b9150509250929050565b600060208284031215614539578081fd5b815161388f81614fdc565b600060208284031215614555578081fd5b81356001600160e01b03198116811461388f578182fd5b60006060828403121561457d578081fd5b604051606081016001600160401b0382821081831117156145a0576145a0614fb1565b81604052845191506145b182614fc7565b90825260208401519080821682146145c7578384fd5b5060208201526040830151600481106145de578283fd5b60408201529392505050565b6000806000838503610160811215614600578182fd5b6101008082121561460f578283fd5b614617614ea9565b915085358252602086013560208301526040860135604083015261463d60608701613f15565b606083015261464e60808701614188565b608083015261465f60a0870161417d565b60a083015261467060c08701613f15565b60c083015261468160e08701613f15565b60e08301529093508401356001600160401b0381111561469f578182fd5b6146ab868287016140f0565b9250506146bc85610120860161408f565b90509250925092565b6000602082840312156146d6578081fd5b813561388f81614fea565b6000602082840312156146f2578081fd5b815161388f81614fea565b60006020828403121561470e578081fd5b5035919050565b600060208284031215614726578081fd5b5051919050565b60006020828403121561473e578081fd5b813561388f81614ffa565b60006020828403121561475a578081fd5b815161388f81614ffa565b6000806000806060858703121561477a578182fd5b843561478581614ffa565b9350602085013561479581614fc7565b925060408501356001600160401b038111156147af578283fd5b6147bb87828801613fe6565b95989497509550505050565b60008060008060008060008060e0898b0312156147e2578182fd5b88356147ed81614ffa565b975060208901356147fd81614fc7565b965060408901356001600160401b03811115614817578283fd5b6148238b828c01613fe6565b909750955050606089013561483781614fc7565b93506080890135925060a089013561484e81614fdc565b8092505060c089013590509295985092959890939650565b600080600080600080600060e0888a031215614880578081fd5b873561488b81614ffa565b9650602088013561489b81614ffa565b955060408801359450606088013593506080880135925060a0880135915060c08801356001600160401b038111156148d1578182fd5b6148dd8a828b01614025565b91505092959891949750929550565b6001600160a01b03169052565b81835281816020850137506000828201602090810191909152601f909101601f19169091010190565b6000815180845261493a816020860160208601614f54565b601f01601f19169290920160200192915050565b805182526020810151602083015260408101516040830152606081015161497860608401826148ec565b506080810151614990608084018263ffffffff169052565b5060a08101516149a660a084018261ffff169052565b5060c08101516149bc60c084018261ffff169052565b5060e08101516149cf60e08401826148ec565b50610100818101516001600160401b031690830152610120808201516149f7828501826148ec565b50506101408082015161357d828501826148ec565b805182526020810151602083015260018060a01b03604082015116604083015260006060820151608060608501526138a56080850182614922565b60008251614a59818460208701614f54565b9190910192915050565b6001600160a01b0391909116815260200190565b6001600160a01b039384168152919092166020820152604081019190915260600190565b6001600160a01b03929092168252602082015260400190565b60208152600061388f6020830184614922565b60208082526010908201526f14185d5cd8589b194e881c185d5cd95960821b604082015260600190565b6020808252818101527f4f776e61626c653a2063616c6c6572206973206e6f7420746865206f776e6572604082015260600190565b6020808252601f908201527f5265656e7472616e637947756172643a207265656e7472616e742063616c6c00604082015260600190565b6101c08101614b6c828561494e565b82516001600160a01b0316610160830152602083015161ffff9081166101808401526040909301519092166101a090910152919050565b86548152600187015460208201526002870154604082015260038701546102008201906001600160a01b03614bdd606085018284166148ec565b60a082901c63ffffffff16608085015261ffff60c083901c811660a0860152614c1160c08601828560d01c1661ffff169052565b5060048a01549150614c2860e085018284166148ec565b5060a081901c6001600160401b03166101008401525060058801546001600160a01b0316614c5a6101208401826148ec565b5060068801546001600160a01b0316614c776101408401826148ec565b5063ffffffff871661016083015263ffffffff8616610180830152846101a0830152836101c08301526137ac6101e08301846148ec565b600061012084518352602085015160208401526040850151604084015260018060a01b03606086015116606084015263ffffffff608086015116608084015261ffff60a08601511660a084015260c0850151614d0d60c08501826148ec565b5060e0850151614d2060e08501826148ec565b5080610100840152614d3481840185614a0c565b95945050505050565b97885260208801969096526040870194909452606086019290925260808501526001600160a01b0390811660a085015290811660c08401521660e08201526101000190565b63ffffffff9290921682526001600160a01b0316602082015260400190565b600061026063ffffffff8d168352614dbc602084018d61494e565b6001600160a01b038b81166101808501526101a08401829052614de28285018b8d6148f9565b9881166101c08501526101e084019790975250509215156102008401526102208301919091529091166102409091015295945050505050565b60006101e063ffffffff89168352614e36602084018961494e565b6001600160a01b038781166101808501526101a08401829052614e5c82850187896148f9565b92508085166101c08501525050979650505050505050565b600063ffffffff808816835280871660208401525084604083015283606083015260a060808301526137ac60a0830184614a0c565b60405161010081016001600160401b0381118282101715614ecc57614ecc614fb1565b60405290565b604051601f8201601f191681016001600160401b0381118282101715614efa57614efa614fb1565b604052919050565b60006001600160401b03821115614f1b57614f1b614fb1565b5060051b60200190565b60008219821115614f3857614f38614f9b565b500190565b600082821015614f4f57614f4f614f9b565b500390565b60005b83811015614f6f578181015183820152602001614f57565b8381111561357d5750506000910152565b6000600019821415614f9457614f94614f9b565b5060010190565b634e487b7160e01b600052601160045260246000fd5b634e487b7160e01b600052604160045260246000fd5b6001600160a01b0381168114611e0557600080fd5b8015158114611e0557600080fd5b61ffff81168114611e0557600080fd5b63ffffffff81168114611e0557600080fdfea164736f6c6343000804000a",
  "deployedBytecode": "0x608060405234801561001057600080fd5b506004361061022d5760003560e01c8063657a88a11161013b578063ab3b1280116100b8578063bce42e421161007c578063bce42e42146106d5578063ddfddad6146106e8578063eda928ab146106fb578063f23a6e611461070e578063f2fde38b1461072e57600080fd5b8063ab3b128014610660578063ac4e35ea14610689578063b18e77721461069c578063b31ec1d4146106af578063bc197c81146106c257600080fd5b80638456cb59116100ff5780638456cb5914610603578063872873be1461060b5780638da5cb5b146106375780639658e4051461063f578063a4441a6f1461065257600080fd5b8063657a88a1146105875780636ed93dd01461059a57806377cfa991146105b65780637836baf1146105dd57806379b64040146105f057600080fd5b8063318dacd3116101c95780635163a1c31161018d5780635163a1c31461051157806356efe98c1461052457806359a727341461054c5780635c975abb1461055f578063616693d81461056757600080fd5b8063318dacd314610476578063328404b014610489578063365a86fc146104c25780633f4ba83a146104f657806347948d92146104fe57600080fd5b806301ffc9a7146102325780630717f3aa1461025a5780630ff81c3f1461027d578063150b7a02146102e7578063192b355d1461031e5780631c6caf4114610335578063227cda181461034a5780632b218022146104505780632c1d4ec214610463575b600080fd5b610245610240366004614544565b610741565b60405190151581526020015b60405180910390f35b61024561026836600461472d565b60066020526000908152604090205460ff1681565b6102bd61028b36600461472d565b6005602052600090815260409020546001600160a01b0381169061ffff600160a01b8204811691600160b01b90041683565b604080516001600160a01b03909416845261ffff9283166020850152911690820152606001610251565b6103056102f53660046142be565b630a85bd0160e11b949350505050565b6040516001600160e01b03199091168152602001610251565b61032760025481565b604051908152602001610251565b6103486103433660046146c5565b610793565b005b6103dc61035836600461472d565b600460208190526000918252604090912080546001820154600283015460038401549484015460058501546006909501549395929491936001600160a01b0380851694600160a01b80820463ffffffff1695600160c01b830461ffff90811696600160d01b909404169484841694929093046001600160401b03169290821691168b565b604080519b8c5260208c019a909a52988a01979097526001600160a01b0395861660608a015263ffffffff909416608089015261ffff92831660a0890152911660c0870152821660e08601526001600160401b03166101008501529081166101208401521661014082015261016001610251565b61034861045e36600461472d565b61083d565b610348610471366004614425565b61092c565b6103486104843660046147c7565b610a5b565b6102456104973660046143cd565b6001600160a01b03919091166000908152600a60209081526040808320938352929052205460ff1690565b6104e97f000000000000000000000000000000000000000000000000000000000000000081565b6040516102519190614a63565b610348610ca4565b61034861050c3660046146fd565b610cdd565b61034861051f366004614425565b610d66565b6105376105323660046145ea565b610ee2565b60405163ffffffff9091168152602001610251565b61034861055a36600461472d565b610f8a565b6102456111ce565b762224a922a1aa2fa627a0a72fa324ac22a22fa7a32322a960491b610327565b610348610595366004614765565b6111de565b6105a361271081565b60405161ffff9091168152602001610251565b6103277f000000000000000000000000000000000000000000000000000000000000000081565b6103486105eb3660046143a0565b61141b565b6103486105fe366004614466565b611458565b610348611523565b610245610619366004614193565b6001600160a01b03166000908152600b602052604090205460ff1690565b6104e961155a565b61034861064d3660046146fd565b611569565b6003546105a39061ffff1681565b61032761066e36600461472d565b63ffffffff1660009081526004602052604090206001015490565b610348610697366004614425565b6115cb565b6103486106aa366004614866565b611762565b6103486106bd36600461472d565b6117cb565b6103056106d0366004614204565b6119cb565b6103486106e336600461472d565b611a16565b6103486106f6366004614193565b611bcc565b61034861070936600461472d565b611c94565b61030561071c366004614327565b63f23a6e6160e01b9695505050505050565b61034861073c366004614193565b611d68565b60006001600160e01b03198216630271189760e51b148061077257506001600160e01b03198216630a85bd0160e11b145b8061078d57506001600160e01b031982166301ffc9a760e01b145b92915050565b3361079c61155a565b6001600160a01b0316146107cb5760405162461bcd60e51b81526004016107c290614af1565b60405180910390fd5b61271061ffff821611156107f2576040516314004bcf60e21b815260040160405180910390fd5b6003805461ffff191661ffff83169081179091556040519081527f03017365bbe16943b524030df07e7689168ab63e854d27417498e6f9dc584dab906020015b60405180910390a150565b600260015414156108605760405162461bcd60e51b81526004016107c290614b26565b600260015560405163364d0abb60e11b815273__$1291e1ff22aea68c4ae26c19e2b9f8f397$__90636c9a1576906108be9084907f000000000000000000000000000000000000000000000000000000000000000090600401614d82565b60006040518083038186803b1580156108d657600080fd5b505af41580156108ea573d6000803e3d6000fd5b505050506000806000806108fd85611e08565b93509350935093506109118585858561221c565b60016109208686858585612416565b50506001805550505050565b3361093561155a565b6001600160a01b03161461095b5760405162461bcd60e51b81526004016107c290614af1565b6040516370a0823160e01b815283906000906001600160a01b038316906370a082319061098c903090600401614a63565b60206040518083038186803b1580156109a457600080fd5b505afa1580156109b8573d6000803e3d6000fd5b505050506040513d601f19601f820116820180604052508101906109dc9190614715565b9050806109fc576040516334b5d06d60e21b815260040160405180910390fd5b6001600160a01b0385166000908152600860205260409020548490610a219083614f3d565b1015610a405760405163368e910d60e21b815260040160405180910390fd5b610a546001600160a01b038316848661242d565b5050505050565b60026001541415610a7e5760405162461bcd60e51b81526004016107c290614b26565b6002600155604051635bfd0fb160e11b815273__$1291e1ff22aea68c4ae26c19e2b9f8f397$__9063b7fa1f6290610adc908b907f000000000000000000000000000000000000000000000000000000000000000090600401614d82565b60006040518083038186803b158015610af457600080fd5b505af4158015610b08573d6000803e3d6000fd5b5050505063ffffffff881660009081526006602052604090205460ff1615610b4357604051633db5ad0160e11b815260040160405180910390fd5b63ffffffff8881166000908152600460208181526040928390208351610160810185528154815260018201549281019290925260028101548285015260038101546001600160a01b038082166060850152600160a01b8083049097166080850152600160c01b820461ffff90811660a0860152600160d01b90920490911660c08401528184015480821660e0850152959095046001600160401b03166101008301526005810154851661012083015260060154909316610140840152905163491bd44160e11b815273__$f4648c37a6443643782b15e2e6be9a7811$__91639237a88291610c65918d9186918e918e918e918e918e918e918e917f00000000000000000000000000000000000000000000000000000000000000009101614da1565b60006040518083038186803b158015610c7d57600080fd5b505af4158015610c91573d6000803e3d6000fd5b5050600180555050505050505050505050565b33610cad61155a565b6001600160a01b031614610cd35760405162461bcd60e51b81526004016107c290614af1565b610cdb612483565b565b33610ce661155a565b6001600160a01b031614610d0c5760405162461bcd60e51b81526004016107c290614af1565b63ffffffff811115610d3157604051630737847960e51b815260040160405180910390fd5b60028190556040518181527f64f65a4a1a932867ad599da36210fc47c698b3abb2413cfdfd36bf59697a69cb90602001610832565b33610d6f61155a565b6001600160a01b031614610d955760405162461bcd60e51b81526004016107c290614af1565b6001600160a01b0383166000908152600760209081526040808320858452909152902054839015610dd957604051636a32439f60e01b815260040160405180910390fd5b6040516331a9108f60e11b81526004810184905230906001600160a01b03831690636352211e9060240160206040518083038186803b158015610e1b57600080fd5b505afa158015610e2f573d6000803e3d6000fd5b505050506040513d601f19601f82011682018060405250810190610e5391906141af565b6001600160a01b031614610e7a5760405163ca5ae8a360e01b815260040160405180910390fd5b604051632142170760e11b81526001600160a01b038216906342842e0e90610eaa90309086908890600401614a77565b600060405180830381600087803b158015610ec457600080fd5b505af1158015610ed8573d6000803e3d6000fd5b5050505050505050565b6000610eec6111ce565b15610f095760405162461bcd60e51b81526004016107c290614ac7565b60026001541415610f2c5760405162461bcd60e51b81526004016107c290614b26565b60026001556060840151600090610f4290612515565b9050610f4e858261263b565b610f5785612722565b610f7d610f648683612748565b610f76856000015186602001516127fc565b87876128fa565b6001805595945050505050565b60026001541415610fad5760405162461bcd60e51b81526004016107c290614b26565b6002600155604051635bfd0fb160e11b815273__$1291e1ff22aea68c4ae26c19e2b9f8f397$__9063b7fa1f629061100b9084907f000000000000000000000000000000000000000000000000000000000000000090600401614d82565b60006040518083038186803b15801561102357600080fd5b505af4158015611037573d6000803e3d6000fd5b5050505063ffffffff811660009081526006602052604090205460ff161561107257604051633db5ad0160e11b815260040160405180910390fd5b63ffffffff8116600090815260046020908152604080832060058101546001600160a01b0316845260078352818420600282015485529092528220805491926001926110bf908490614f3d565b9091555050604051631276b77d60e11b815263ffffffff83166004820152602481018290526001600160a01b037f0000000000000000000000000000000000000000000000000000000000000000166044820152600090819073__$f4648c37a6443643782b15e2e6be9a7811$__906324ed6efa90606401604080518083038186803b15801561114e57600080fd5b505af4158015611162573d6000803e3d6000fd5b505050506040513d601f19601f8201168201806040525081019061118691906143f8565b6001600160a01b0382166000908152600760209081526040808320848452909152812080549395509193506001926111bf908490614f25565b90915550506001805550505050565b600054600160a01b900460ff1690565b600260015414156112015760405162461bcd60e51b81526004016107c290614b26565b6002600155604051635bfd0fb160e11b815273__$1291e1ff22aea68c4ae26c19e2b9f8f397$__9063b7fa1f629061125f9087907f000000000000000000000000000000000000000000000000000000000000000090600401614d82565b60006040518083038186803b15801561127757600080fd5b505af415801561128b573d6000803e3d6000fd5b5050505063ffffffff841660009081526006602052604090205460ff16156112c657604051633db5ad0160e11b815260040160405180910390fd5b63ffffffff8481166000908152600460208181526040928390208351610160810185528154815260018201549281019290925260028101548285015260038101546001600160a01b038082166060850152600160a01b8083049097166080850152600160c01b820461ffff90811660a0860152600160d01b90920490911660c08401528184015480821660e0850152959095046001600160401b0316610100830152600581015485166101208301526006015490931661014084015290516361ec917160e11b815273__$f4648c37a6443643782b15e2e6be9a7811$__9163c3d922e2916113e091899186918a918a918a917f00000000000000000000000000000000000000000000000000000000000000009101614e1b565b60006040518083038186803b1580156113f857600080fd5b505af415801561140c573d6000803e3d6000fd5b50506001805550505050505050565b3361142461155a565b6001600160a01b03161461144a5760405162461bcd60e51b81526004016107c290614af1565b6114548282612aae565b5050565b3361146161155a565b6001600160a01b0316146114875760405162461bcd60e51b81526004016107c290614af1565b80518251146114a857604051621dbe8b60e81b815260040160405180910390fd5b60005b825181101561151e5761150c8382815181106114d757634e487b7160e01b600052603260045260246000fd5b60200260200101518383815181106114ff57634e487b7160e01b600052603260045260246000fd5b6020026020010151612aae565b8061151681614f80565b9150506114ab565b505050565b3361152c61155a565b6001600160a01b0316146115525760405162461bcd60e51b81526004016107c290614af1565b610cdb612b34565b6000546001600160a01b031690565b336000908152600a6020908152604080832084845290915290205460ff16156115a557604051633ab3447f60e11b815260040160405180910390fd5b336000908152600a6020908152604080832093835292905220805460ff19166001179055565b336115d461155a565b6001600160a01b0316146115fa5760405162461bcd60e51b81526004016107c290614af1565b604051627eeac760e11b815283906000906001600160a01b0383169062fdd58e9061162b9030908890600401614a9b565b60206040518083038186803b15801561164357600080fd5b505afa158015611657573d6000803e3d6000fd5b505050506040513d601f19601f8201168201806040525081019061167b9190614715565b6001600160a01b0386166000908152600760209081526040808320888452909152902054909150156116c057604051636a32439f60e01b815260040160405180910390fd5b806116de5760405163f266c3ab60e01b815260040160405180910390fd5b604051637921219560e11b81523060048201526001600160a01b038481166024830152604482018690526064820183905260a06084830152600060a483015283169063f242432a9060c401600060405180830381600087803b15801561174357600080fd5b505af1158015611757573d6000803e3d6000fd5b505050505050505050565b61176a6111ce565b156117875760405162461bcd60e51b81526004016107c290614ac7565b600260015414156117aa5760405162461bcd60e51b81526004016107c290614b26565b60026001556117be87878787878787612b94565b5050600180555050505050565b600260015414156117ee5760405162461bcd60e51b81526004016107c290614b26565b6002600155604051635bfd0fb160e11b815273__$1291e1ff22aea68c4ae26c19e2b9f8f397$__9063b7fa1f629061184c9084907f000000000000000000000000000000000000000000000000000000000000000090600401614d82565b60006040518083038186803b15801561186457600080fd5b505af4158015611878573d6000803e3d6000fd5b5050505063ffffffff811660009081526006602052604090205460ff16156118b357604051633db5ad0160e11b815260040160405180910390fd5b6000806000806118c285611e08565b93509350935093506000826080015163ffffffff168361010001516001600160401b03166118f09190614f25565b90508042116119125760405163477e47f960e11b815260040160405180910390fd5b336001600160a01b0385161461193b57604051633c35984560e11b815260040160405180910390fd5b600061194a8786868685612416565b8351604080860151610120870151825193845260208401919091529082018490524260608301526001600160a01b039081166080830152808716919088169063ffffffff8a16907f4fac0ff43299a330bce57d0579985305af580acf256a6d7977083ede81be13269060a00160405180910390a45050600180555050505050565b60405162461bcd60e51b815260206004820152601b60248201527f45524331313535206261746368206e6f7420737570706f72746564000000000060448201526000906064016107c2565b60026001541415611a395760405162461bcd60e51b81526004016107c290614b26565b600260015563ffffffff81166000908152600460205260409020600601546001600160a01b0316338114611a80576040516348c5194760e11b815260040160405180910390fd5b604051631c2d8fb360e31b81527f000000000000000000000000000000000000000000000000000000000000000060048201526000907f00000000000000000000000000000000000000000000000000000000000000006001600160a01b03169063e16c7d989060240160206040518083038186803b158015611b0257600080fd5b505afa158015611b16573d6000803e3d6000fd5b505050506040513d601f19601f82011682018060405250810190611b3a91906141af565b604051631b982cf160e01b81529091506001600160a01b03821690631b982cf190611b6b9086908690600401614d82565b600060405180830381600087803b158015611b8557600080fd5b505af1158015611b99573d6000803e3d6000fd5b50505063ffffffff909316600090815260046020526040902060060180546001600160a01b031916905550506001805550565b60026001541415611bef5760405162461bcd60e51b81526004016107c290614b26565b60026001553360009081526009602090815260408083206001600160a01b038516845290915290205480611c365760405163073ad17560e51b815260040160405180910390fd5b611c4a6001600160a01b038316338361242d565b3360009081526009602090815260408083206001600160a01b03861684528252808320839055600890915281208054839290611c87908490614f3d565b9091555050600180555050565b60026001541415611cb75760405162461bcd60e51b81526004016107c290614b26565b600260015560405163364d0abb60e11b815273__$1291e1ff22aea68c4ae26c19e2b9f8f397$__90636c9a157690611d159084907f000000000000000000000000000000000000000000000000000000000000000090600401614d82565b60006040518083038186803b158015611d2d57600080fd5b505af4158015611d41573d6000803e3d6000fd5b50505050600080600080611d5485611e08565b935093509350935061091185858585613020565b33611d7161155a565b6001600160a01b031614611d975760405162461bcd60e51b81526004016107c290614af1565b6001600160a01b038116611dfc5760405162461bcd60e51b815260206004820152602660248201527f4f776e61626c653a206e6577206f776e657220697320746865207a65726f206160448201526564647265737360d01b60648201526084016107c2565b611e0581613443565b50565b600080611e13613eb9565b604051631c2d8fb360e31b81527f000000000000000000000000000000000000000000000000000000000000000060048201526000907f00000000000000000000000000000000000000000000000000000000000000006001600160a01b03169063e16c7d989060240160206040518083038186803b158015611e9557600080fd5b505afa158015611ea9573d6000803e3d6000fd5b505050506040513d601f19601f82011682018060405250810190611ecd91906141af565b60405163e6c5a54160e01b815263ffffffff871660048201529091506000906001600160a01b0383169063e6c5a5419060240160606040518083038186803b158015611f1857600080fd5b505afa158015611f2c573d6000803e3d6000fd5b505050506040513d601f19601f82011682018060405250810190611f50919061456c565b60208181015163ffffffff898116600090815260048085526040918290208251610160810184528154815260018201549681019690965260028101549286019290925260038201546001600160a01b038082166060880152600160a01b8083049095166080880152600160c01b820461ffff90811660a0890152600160d01b90920490911660c08701529082015480821660e08701526001600160401b03939004831661010086015260058201548116610120860152600690910154166101408401819052929650929350919091169015612032578361014001519550612123565b826001600160a01b0316638208e76c6040518163ffffffff1660e01b815260040160206040518083038186803b15801561206b57600080fd5b505afa15801561207f573d6000803e3d6000fd5b505050506040513d601f19601f820116820180604052508101906120a391906141af565b6001600160a01b0316636352211e826040518263ffffffff1660e01b81526004016120d091815260200190565b60206040518083038186803b1580156120e857600080fd5b505afa1580156120fc573d6000803e3d6000fd5b505050506040513d601f19601f8201168201806040525081019061212091906141af565b95505b826001600160a01b0316634fbe68a06040518163ffffffff1660e01b815260040160206040518083038186803b15801561215c57600080fd5b505afa158015612170573d6000803e3d6000fd5b505050506040513d601f19601f8201168201806040525081019061219491906141af565b6001600160a01b0316636352211e826040518263ffffffff1660e01b81526004016121c191815260200190565b60206040518083038186803b1580156121d957600080fd5b505afa1580156121ed573d6000803e3d6000fd5b505050506040513d601f19601f8201168201806040525081019061221191906141af565b945050509193509193565b63ffffffff84166000908152600560209081526040808320815160608101835290546001600160a01b038116825261ffff600160a01b8204811694830194909452600160b01b900490921690820152908061227684613493565b60608601519193509150612295906001600160a01b031633878461355c565b6020830151604051637f5e0ed360e01b81526004810184905261ffff909116602482015260009073__$1291e1ff22aea68c4ae26c19e2b9f8f397$__90637f5e0ed39060440160206040518083038186803b1580156122f357600080fd5b505af4158015612307573d6000803e3d6000fd5b505050506040513d601f19601f8201168201806040525081019061232b9190614715565b9050600081118015612346575083516001600160a01b031615155b15612375576123558184614f3d565b84516060870151919450612375916001600160a01b03169033908461355c565b6123973361238161155a565b60608801516001600160a01b031691908661355c565b856001600160a01b0316876001600160a01b03168963ffffffff167f3687d64f40b11dd1c102a76882ac1735891c546a96ae27935eb5c7865b9d86fa886000015189604001518789888c600001518e61012001518f60600151604051612404989796959493929190614d3d565b60405180910390a45050505050505050565b61242285848484613583565b610a5483308661361c565b61151e8363a9059cbb60e01b848460405160240161244c929190614a9b565b60408051601f198184030181529190526020810180516001600160e01b03166001600160e01b0319909316929092179091526136bf565b61248b6111ce565b6124ce5760405162461bcd60e51b815260206004820152601460248201527314185d5cd8589b194e881b9bdd081c185d5cd95960621b60448201526064016107c2565b6000805460ff60a01b191690557f5db9ee0a495bf2e6ff9c91a7834c1ba4fdd244a5e8aa4e537bd38aeae4b073aa335b60405161250b9190614a63565b60405180910390a1565b604051631c2d8fb360e31b81526d5045524d49545445445f4e46545360901b60048201526000907f00000000000000000000000000000000000000000000000000000000000000006001600160a01b03169063e16c7d989060240160206040518083038186803b15801561258857600080fd5b505afa15801561259c573d6000803e3d6000fd5b505050506040513d601f19601f820116820180604052508101906125c091906141af565b6001600160a01b031663b8c8aff8836040518263ffffffff1660e01b81526004016125eb9190614a63565b60206040518083038186803b15801561260357600080fd5b505afa158015612617573d6000803e3d6000fd5b505050506040513d601f19601f8201168201806040525081019061078d91906141af565b60c08201516001600160a01b03166000908152600b602052604090205460ff1661267857604051633bf6dbbd60e11b815260040160405180910390fd5b6001600160a01b03811661269f57604051634499a26b60e01b815260040160405180910390fd5b600254826080015163ffffffff1611156126cc57604051631c71337360e11b815260040160405180910390fd5b608082015163ffffffff166126f45760405163f883f39d60e01b815260040160405180910390fd5b60035460a083015161ffff90811691161461145457604051635b5e710360e01b815260040160405180910390fd5b805160208201511015611e0557604051635169219960e01b815260040160405180910390fd5b612750613eb9565b6040518061016001604052808460000151815260200184602001518152602001846040015181526020018460c001516001600160a01b03168152602001846080015163ffffffff168152602001600061ffff1681526020018460a0015161ffff168152602001836001600160a01b03168152602001426001600160401b0316815260200184606001516001600160a01b03168152602001336001600160a01b0316815250905092915050565b6040805160608101825260008082526020820181905291810191909152604080516060810182526001600160a01b0380861680835292516347e332df60e11b815260048101939093527f000000000000000000000000000000000000000000000000000000000000000016602483015290602082019073__$1291e1ff22aea68c4ae26c19e2b9f8f397$__90638fc665be9060440160206040518083038186803b1580156128a957600080fd5b505af41580156128bd573d6000803e3d6000fd5b505050506040513d601f19601f820116820180604052508101906128e191906146e1565b61ffff1681526020018361ffff16815250905092915050565b6040808201516001600160a01b03166000908152600a60209081528282208451835290529081205460ff161561294357604051633ab3447f60e11b815260040160405180910390fd5b6040808301516001600160a01b03166000908152600a6020908152828220855183529052819020805460ff191660011790555163eb2ac63f60e01b815273__$07730b9b91c2b41a419f99961f709e7858$__9063eb2ac63f906129ac9086908690600401614cae565b60206040518083038186803b1580156129c457600080fd5b505af41580156129d8573d6000803e3d6000fd5b505050506040513d601f19601f820116820180604052508101906129fc9190614528565b612a1957604051636d2a03cf60e01b815260040160405180910390fd5b6000612a4b762224a922a1aa2fa627a0a72fa324ac22a22fa7a32322a960491b87873387604001518960e00151613791565b905082604001516001600160a01b0316336001600160a01b03168263ffffffff167f42cc7f53ef7b494c5dd6f0095175f7d07b5d3d7b2a03f34389fea445ba4a3a8b8989604051612a9d929190614b5d565b60405180910390a495945050505050565b6001600160a01b038216612ad557604051636e8ab17b60e11b815260040160405180910390fd5b6001600160a01b0382166000818152600b6020908152604091829020805460ff191685151590811790915591519182527ff100355be652ecc881568750e6a98c0713e4316f75d5314ebc9039e0acb52f24910160405180910390a25050565b612b3c6111ce565b15612b595760405162461bcd60e51b81526004016107c290614ac7565b6000805460ff60a01b1916600160a01b1790557f62e78cea01bee320cd4e420270b5ea74000d11b0c9f74754ebdbfc544b05a2586124fe3390565b63ffffffff87166000908152600460208190526040808320905163b5ec526360e01b8152909291829173__$1291e1ff22aea68c4ae26c19e2b9f8f397$__9163b5ec526391612c0f9187918f918f918f918e917f00000000000000000000000000000000000000000000000000000000000000009101614ba3565b604080518083038186803b158015612c2657600080fd5b505af4158015612c3a573d6000803e3d6000fd5b505050506040513d601f19601f82011682018060405250810190612c5e91906141cb565b6001600160a01b0381166000818152600a602090815260408083208c8452825291829020805460ff1916600117905581516080810183528b81529081018a905280820192909252606082018890525163d06ff74160e01b815292945090925073__$07730b9b91c2b41a419f99961f709e7858$__9163d06ff74191612ced918e918e918e918e91600401614e74565b60206040518083038186803b158015612d0557600080fd5b505af4158015612d19573d6000803e3d6000fd5b505050506040513d601f19601f82011682018060405250810190612d3d9190614528565b612d5a5760405163e83dc84b60e01b815260040160405180910390fd5b60008715612e44576003840154604051632ad659af60e01b8152600481018a9052600160d01b90910461ffff16602482015273__$1291e1ff22aea68c4ae26c19e2b9f8f397$__90632ad659af9060440160206040518083038186803b158015612dc357600080fd5b505af4158015612dd7573d6000803e3d6000fd5b505050506040513d601f19601f82011682018060405250810190612dfb9190614715565b9050612e228383612e0c848c614f3d565b60038801546001600160a01b031692919061355c565b612e4483612e2e61155a565b60038701546001600160a01b031691908461355c565b60038401805463ffffffff60a01b1916600160a01b63ffffffff8d16021790556001840189905560068401546001600160a01b0316612e9b576006840180546001600160a01b0319166001600160a01b0385161790555b604051631c2d8fb360e31b81527f000000000000000000000000000000000000000000000000000000000000000060048201527f00000000000000000000000000000000000000000000000000000000000000006001600160a01b03169063e16c7d989060240160206040518083038186803b158015612f1a57600080fd5b505afa158015612f2e573d6000803e3d6000fd5b505050506040513d601f19601f82011682018060405250810190612f5291906141af565b6001600160a01b031663072db1478c846040518363ffffffff1660e01b8152600401612f7f929190614d82565b600060405180830381600087803b158015612f9957600080fd5b505af1158015612fad573d6000803e3d6000fd5b50506040805163ffffffff8e81168252602082018e90529181018c9052606081018590526001600160a01b03808716945087169250908e16907f37357bed780fda5aed28c32fe9cd762cb2f2f8a70c0d9b342aba59c945943ca09060800160405180910390a45050505050505050505050565b63ffffffff84166000908152600560209081526040808320815160608101835290546001600160a01b038116825261ffff600160a01b8204811694830194909452600160b01b900490921690820152908061307a84613493565b9150915083606001516001600160a01b03166323b872dd3387846040518463ffffffff1660e01b81526004016130b293929190614a77565b602060405180830381600087803b1580156130cc57600080fd5b505af19250505080156130fc575060408051601f3d908101601f191682019092526130f991810190614528565b60015b6131c257606084015161311a906001600160a01b031633308461355c565b6001600160a01b038086166000908152600960209081526040808320606089015190941683529290529081208054839290613156908490614f25565b909155505060608401516001600160a01b031660009081526008602052604081208054839290613187908490614f25565b909155505060405163ffffffff8816907fe6dfda7486ec1e06f754c28be83c676af29b18143765a2843361313cdab2712590600090a26131c4565b505b6020830151604051637f5e0ed360e01b81526004810184905261ffff909116602482015260009073__$1291e1ff22aea68c4ae26c19e2b9f8f397$__90637f5e0ed39060440160206040518083038186803b15801561322257600080fd5b505af4158015613236573d6000803e3d6000fd5b505050506040513d601f19601f8201168201806040525081019061325a9190614715565b9050600081118015613275575083516001600160a01b031615155b1561332d576132848184614f3d565b606086015185516040516323b872dd60e01b81529295506001600160a01b03909116916323b872dd916132be913391908690600401614a77565b602060405180830381600087803b1580156132d857600080fd5b505af1925050508015613308575060408051601f3d908101601f1916820190925261330591810190614528565b60015b61332b576060850151613326906001600160a01b031633308461355c565b61332d565b505b84606001516001600160a01b03166323b872dd3361334961155a565b866040518463ffffffff1660e01b815260040161336893929190614a77565b602060405180830381600087803b15801561338257600080fd5b505af19250505080156133b2575060408051601f3d908101601f191682019092526133af91810190614528565b60015b6133d55760608501516133d0906001600160a01b031633308661355c565b612397565b50856001600160a01b0316876001600160a01b03168963ffffffff167f3687d64f40b11dd1c102a76882ac1735891c546a96ae27935eb5c7865b9d86fa886000015189604001518789888c600001518e61012001518f60600151604051612404989796959493929190614d3d565b600080546001600160a01b038381166001600160a01b0319831681178455604051919092169283917f8be0079c531659141344cd1fd0a4f28419497f9722a3daafe3b4186f6b6457e09190a35050565b6000806000836000015184602001516134ac9190614f3d565b60c0850151604051632ad659af60e01b81526004810183905261ffff909116602482015290915073__$1291e1ff22aea68c4ae26c19e2b9f8f397$__90632ad659af9060440160206040518083038186803b15801561350a57600080fd5b505af415801561351e573d6000803e3d6000fd5b505050506040513d601f19601f820116820180604052508101906135429190614715565b92508284602001516135549190614f3d565b915050915091565b61357d846323b872dd60e01b85858560405160240161244c93929190614a77565b50505050565b63ffffffff84166000908152600660209081526040808320805460ff191660019081179091556101208701516001600160a01b031684526007835281842087830151855290925282208054919290916135dd908490614f3d565b909155505060405163a4d0845d60e01b815263ffffffff8516600482015281151560248201526001600160a01b0383169063a4d0845d90604401610eaa565b60e083015161012084015160408086015181516001600160a01b038781166024830152868116604483015290931660648401526084808401919091528151808403909101815260a49092018152602080830180516001600160e01b031663b030667160e01b17905281518083019092528082527f4e4654206e6f74207375636365737366756c6c79207472616e736665727265649082015261357d9291906137b7565b6000613714826040518060400160405280602081526020017f5361666545524332303a206c6f772d6c6576656c2063616c6c206661696c6564815250856001600160a01b03166138969092919063ffffffff16565b80519091501561151e57808060200190518101906137329190614528565b61151e5760405162461bcd60e51b815260206004820152602a60248201527f5361666545524332303a204552433230206f7065726174696f6e20646964206e6044820152691bdd081cdd58d8d9595960b21b60648201526084016107c2565b600061379e86853061361c565b6137ac8787878787876138ad565b979650505050505050565b60606001600160a01b0384163b61381f5760405162461bcd60e51b815260206004820152602660248201527f416464726573733a2064656c65676174652063616c6c20746f206e6f6e2d636f6044820152651b9d1c9858dd60d21b60648201526084016107c2565b600080856001600160a01b03168560405161383a9190614a47565b600060405180830381855af49150503d8060008114613875576040519150601f19603f3d011682016040523d82523d6000602084013e61387a565b606091505b509150915061388a828286613d5a565b925050505b9392505050565b60606138a58484600085613d93565b949350505050565b6101208501516001600160a01b03166000908152600760209081526040808320818901518452909152812080546001919083906138eb908490614f25565b909155505085516040868101519051637b2392f160e01b8152600481019290925261ffff1660248201526001600160a01b038316604482015260009073__$1291e1ff22aea68c4ae26c19e2b9f8f397$__90637b2392f19060640160206040518083038186803b15801561395e57600080fd5b505af4158015613972573d6000803e3d6000fd5b505050506040513d601f19601f820116820180604052508101906139969190614715565b905060008188600001516139aa9190614f3d565b905081156139cc5760608801516139cc906001600160a01b031686868561355c565b60608801516139e6906001600160a01b031686888461355c565b604051631c2d8fb360e31b81527f000000000000000000000000000000000000000000000000000000000000000060048201526000907f00000000000000000000000000000000000000000000000000000000000000006001600160a01b03169063e16c7d989060240160206040518083038186803b158015613a6857600080fd5b505afa158015613a7c573d6000803e3d6000fd5b505050506040513d601f19601f82011682018060405250810190613aa091906141af565b60405163d1f7659560e01b81529091506001600160a01b0382169063d1f7659590613ad19089908e90600401614a9b565b602060405180830381600087803b158015613aeb57600080fd5b505af1158015613aff573d6000803e3d6000fd5b505050506040513d601f19601f82011682018060405250810190613b239190614749565b935088600460008663ffffffff1663ffffffff16815260200190815260200160002060008201518160000155602082015181600101556040820151816002015560608201518160030160006101000a8154816001600160a01b0302191690836001600160a01b0316021790555060808201518160030160146101000a81548163ffffffff021916908363ffffffff16021790555060a08201518160030160186101000a81548161ffff021916908361ffff16021790555060c082015181600301601a6101000a81548161ffff021916908361ffff16021790555060e08201518160040160006101000a8154816001600160a01b0302191690836001600160a01b031602179055506101008201518160040160146101000a8154816001600160401b0302191690836001600160401b031602179055506101208201518160050160006101000a8154816001600160a01b0302191690836001600160a01b031602179055506101408201518160060160006101000a8154816001600160a01b0302191690836001600160a01b0316021790555090505087600560008663ffffffff1663ffffffff16815260200190815260200160002060008201518160000160006101000a8154816001600160a01b0302191690836001600160a01b0316021790555060208201518160000160146101000a81548161ffff021916908361ffff16021790555060408201518160000160166101000a81548161ffff021916908361ffff1602179055509050505050509695505050505050565b60608315613d6957508161388f565b825115613d795782518084602001fd5b8160405162461bcd60e51b81526004016107c29190614ab4565b606082471015613df45760405162461bcd60e51b815260206004820152602660248201527f416464726573733a20696e73756666696369656e742062616c616e636520666f6044820152651c8818d85b1b60d21b60648201526084016107c2565b6001600160a01b0385163b613e4b5760405162461bcd60e51b815260206004820152601d60248201527f416464726573733a2063616c6c20746f206e6f6e2d636f6e747261637400000060448201526064016107c2565b600080866001600160a01b03168587604051613e679190614a47565b60006040518083038185875af1925050503d8060008114613ea4576040519150601f19603f3d011682016040523d82523d6000602084013e613ea9565b606091505b50915091506137ac828286613d5a565b6040805161016081018252600080825260208201819052918101829052606081018290526080810182905260a0810182905260c0810182905260e081018290526101008101829052610120810182905261014081019190915290565b8035613f2081614fc7565b919050565b600082601f830112613f35578081fd5b81356020613f4a613f4583614f02565b614ed2565b80838252828201915082860187848660051b8901011115613f69578586fd5b855b85811015613f90578135613f7e81614fdc565b84529284019290840190600101613f6b565b5090979650505050505050565b60008083601f840112613fae578182fd5b5081356001600160401b03811115613fc4578182fd5b6020830191508360208260051b8501011115613fdf57600080fd5b9250929050565b60008083601f840112613ff7578182fd5b5081356001600160401b0381111561400d578182fd5b602083019150836020828501011115613fdf57600080fd5b600082601f830112614035578081fd5b81356001600160401b0381111561404e5761404e614fb1565b614061601f8201601f1916602001614ed2565b818152846020838601011115614075578283fd5b816020850160208301379081016020019190915292915050565b6000604082840312156140a0578081fd5b604051604081018181106001600160401b03821117156140c2576140c2614fb1565b60405290508082356140d381614fc7565b815260208301356140e381614fea565b6020919091015292915050565b600060808284031215614101578081fd5b604051608081016001600160401b03828210818311171561412457614124614fb1565b8160405282935084358352602085013560208401526040850135915061414982614fc7565b816040840152606085013591508082111561416357600080fd5b5061417085828601614025565b6060830152505092915050565b8035613f2081614fea565b8035613f2081614ffa565b6000602082840312156141a4578081fd5b813561388f81614fc7565b6000602082840312156141c0578081fd5b815161388f81614fc7565b600080604083850312156141dd578081fd5b82516141e881614fc7565b60208401519092506141f981614fc7565b809150509250929050565b60008060008060008060008060a0898b03121561421f578384fd5b883561422a81614fc7565b9750602089013561423a81614fc7565b965060408901356001600160401b0380821115614255578586fd5b6142618c838d01613f9d565b909850965060608b0135915080821115614279578586fd5b6142858c838d01613f9d565b909650945060808b013591508082111561429d578384fd5b506142aa8b828c01613fe6565b999c989b5096995094979396929594505050565b600080600080608085870312156142d3578182fd5b84356142de81614fc7565b935060208501356142ee81614fc7565b92506040850135915060608501356001600160401b0381111561430f578182fd5b61431b87828801614025565b91505092959194509250565b60008060008060008060a0878903121561433f578384fd5b863561434a81614fc7565b9550602087013561435a81614fc7565b9450604087013593506060870135925060808701356001600160401b03811115614382578283fd5b61438e89828a01613fe6565b979a9699509497509295939492505050565b600080604083850312156143b2578182fd5b82356143bd81614fc7565b915060208301356141f981614fdc565b600080604083850312156143df578182fd5b82356143ea81614fc7565b946020939093013593505050565b6000806040838503121561440a578182fd5b825161441581614fc7565b6020939093015192949293505050565b600080600060608486031215614439578081fd5b833561444481614fc7565b925060208401359150604084013561445b81614fc7565b809150509250925092565b60008060408385031215614478578182fd5b82356001600160401b038082111561448e578384fd5b818501915085601f8301126144a1578384fd5b813560206144b1613f4583614f02565b8083825282820191508286018a848660051b89010111156144d0578889fd5b8896505b848710156144fb5780356144e781614fc7565b8352600196909601959183019183016144d4565b5096505086013592505080821115614511578283fd5b5061451e85828601613f25565b9150509250929050565b600060208284031215614539578081fd5b815161388f81614fdc565b600060208284031215614555578081fd5b81356001600160e01b03198116811461388f578182fd5b60006060828403121561457d578081fd5b604051606081016001600160401b0382821081831117156145a0576145a0614fb1565b81604052845191506145b182614fc7565b90825260208401519080821682146145c7578384fd5b5060208201526040830151600481106145de578283fd5b60408201529392505050565b6000806000838503610160811215614600578182fd5b6101008082121561460f578283fd5b614617614ea9565b915085358252602086013560208301526040860135604083015261463d60608701613f15565b606083015261464e60808701614188565b608083015261465f60a0870161417d565b60a083015261467060c08701613f15565b60c083015261468160e08701613f15565b60e08301529093508401356001600160401b0381111561469f578182fd5b6146ab868287016140f0565b9250506146bc85610120860161408f565b90509250925092565b6000602082840312156146d6578081fd5b813561388f81614fea565b6000602082840312156146f2578081fd5b815161388f81614fea565b60006020828403121561470e578081fd5b5035919050565b600060208284031215614726578081fd5b5051919050565b60006020828403121561473e578081fd5b813561388f81614ffa565b60006020828403121561475a578081fd5b815161388f81614ffa565b6000806000806060858703121561477a578182fd5b843561478581614ffa565b9350602085013561479581614fc7565b925060408501356001600160401b038111156147af578283fd5b6147bb87828801613fe6565b95989497509550505050565b60008060008060008060008060e0898b0312156147e2578182fd5b88356147ed81614ffa565b975060208901356147fd81614fc7565b965060408901356001600160401b03811115614817578283fd5b6148238b828c01613fe6565b909750955050606089013561483781614fc7565b93506080890135925060a089013561484e81614fdc565b8092505060c089013590509295985092959890939650565b600080600080600080600060e0888a031215614880578081fd5b873561488b81614ffa565b9650602088013561489b81614ffa565b955060408801359450606088013593506080880135925060a0880135915060c08801356001600160401b038111156148d1578182fd5b6148dd8a828b01614025565b91505092959891949750929550565b6001600160a01b03169052565b81835281816020850137506000828201602090810191909152601f909101601f19169091010190565b6000815180845261493a816020860160208601614f54565b601f01601f19169290920160200192915050565b805182526020810151602083015260408101516040830152606081015161497860608401826148ec565b506080810151614990608084018263ffffffff169052565b5060a08101516149a660a084018261ffff169052565b5060c08101516149bc60c084018261ffff169052565b5060e08101516149cf60e08401826148ec565b50610100818101516001600160401b031690830152610120808201516149f7828501826148ec565b50506101408082015161357d828501826148ec565b805182526020810151602083015260018060a01b03604082015116604083015260006060820151608060608501526138a56080850182614922565b60008251614a59818460208701614f54565b9190910192915050565b6001600160a01b0391909116815260200190565b6001600160a01b039384168152919092166020820152604081019190915260600190565b6001600160a01b03929092168252602082015260400190565b60208152600061388f6020830184614922565b60208082526010908201526f14185d5cd8589b194e881c185d5cd95960821b604082015260600190565b6020808252818101527f4f776e61626c653a2063616c6c6572206973206e6f7420746865206f776e6572604082015260600190565b6020808252601f908201527f5265656e7472616e637947756172643a207265656e7472616e742063616c6c00604082015260600190565b6101c08101614b6c828561494e565b82516001600160a01b0316610160830152602083015161ffff9081166101808401526040909301519092166101a090910152919050565b86548152600187015460208201526002870154604082015260038701546102008201906001600160a01b03614bdd606085018284166148ec565b60a082901c63ffffffff16608085015261ffff60c083901c811660a0860152614c1160c08601828560d01c1661ffff169052565b5060048a01549150614c2860e085018284166148ec565b5060a081901c6001600160401b03166101008401525060058801546001600160a01b0316614c5a6101208401826148ec565b5060068801546001600160a01b0316614c776101408401826148ec565b5063ffffffff871661016083015263ffffffff8616610180830152846101a0830152836101c08301526137ac6101e08301846148ec565b600061012084518352602085015160208401526040850151604084015260018060a01b03606086015116606084015263ffffffff608086015116608084015261ffff60a08601511660a084015260c0850151614d0d60c08501826148ec565b5060e0850151614d2060e08501826148ec565b5080610100840152614d3481840185614a0c565b95945050505050565b97885260208801969096526040870194909452606086019290925260808501526001600160a01b0390811660a085015290811660c08401521660e08201526101000190565b63ffffffff9290921682526001600160a01b0316602082015260400190565b600061026063ffffffff8d168352614dbc602084018d61494e565b6001600160a01b038b81166101808501526101a08401829052614de28285018b8d6148f9565b9881166101c08501526101e084019790975250509215156102008401526102208301919091529091166102409091015295945050505050565b60006101e063ffffffff89168352614e36602084018961494e565b6001600160a01b038781166101808501526101a08401829052614e5c82850187896148f9565b92508085166101c08501525050979650505050505050565b600063ffffffff808816835280871660208401525084604083015283606083015260a060808301526137ac60a0830184614a0c565b60405161010081016001600160401b0381118282101715614ecc57614ecc614fb1565b60405290565b604051601f8201601f191681016001600160401b0381118282101715614efa57614efa614fb1565b604052919050565b60006001600160401b03821115614f1b57614f1b614fb1565b5060051b60200190565b60008219821115614f3857614f38614f9b565b500190565b600082821015614f4f57614f4f614f9b565b500390565b60005b83811015614f6f578181015183820152602001614f57565b8381111561357d5750506000910152565b6000600019821415614f9457614f94614f9b565b5060010190565b634e487b7160e01b600052601160045260246000fd5b634e487b7160e01b600052604160045260246000fd5b6001600160a01b0381168114611e0557600080fd5b8015158114611e0557600080fd5b61ffff81168114611e0557600080fd5b63ffffffff81168114611e0557600080fdfea164736f6c6343000804000a",
  "libraries": {
    "NFTfiSigningUtils": "0x6AFd80bBc24123Ab9ec630b239D0DEFb40D35e38",
    "LoanChecksAndCalculations": "0x4b45B6fC98616D4A3E9c59395d4526a863202B6e",
    "LoanAirdropUtils": "0x4b45B6fC98616D4A3E9c59395d4526a863202B6e",
    "ContractKeys": "0xd3D0E26010ABeF694F4074ca39E88c5d6dEd70C1"
  },
  "devdoc": {
    "author": "NFTfi",
    "kind": "dev",
    "methods": {
      "acceptOffer((uint256,uint256,uint256,address,uint32,uint16,address,address),(uint256,uint256,address,bytes),(address,uint16))": {
        "params": {
          "_borrowerSettings": "- Some extra parameters that the borrower needs to set when accepting an offer.",
          "_offer": "- The offer made by the lender.",
          "_signature": "- The components of the lender's signature."
        }
      },
      "cancelLoanCommitmentBeforeLoanHasBegun(uint256)": {
        "params": {
          "_nonce": "- User nonce"
        }
      },
      "constructor": {
        "details": "Sets `hub` and permitted erc20-s",
        "params": {
          "_admin": "- Initial admin of this contract.",
          "_nftfiHub": "- NFTfiHub address",
          "_permittedErc20s": "- list of permitted ERC20 token contract addresses"
        }
      },
      "drainERC1155Airdrop(address,uint256,address)": {
        "params": {
          "_receiver": "- receiver of the token",
          "_tokenAddress": "- address of the token contract for the token to be sent out",
          "_tokenId": "- id token to be sent out"
        }
      },
      "drainERC20Airdrop(address,uint256,address)": {
        "params": {
          "_receiver": "- receiver of the token",
          "_tokenAddress": "- address of the token contract for the token to be sent out"
        }
      },
      "drainERC721Airdrop(address,uint256,address)": {
        "params": {
          "_receiver": "- receiver of the token",
          "_tokenAddress": "- address of the token contract for the token to be sent out",
          "_tokenId": "- id token to be sent out"
        }
      },
      "getERC20Permit(address)": {
        "params": {
          "_erc20": "- The address of the erc20 contract."
        },
        "returns": {
          "_0": "Returns whether the erc20 is permitted"
        }
      },
      "getEscrowedPayBack(address)": {
        "params": {
          "_token": "ERC20 token conract address"
        }
      },
      "getPayoffAmount(uint32)": {
        "params": {
          "_loanId": "A unique identifier for this particular loan, sourced from the Loan Coordinator."
        },
        "returns": {
          "_0": "The amount of the specified ERC20 currency required to pay back this loan, measured in the smallest unit of the specified ERC20 currency."
        }
      },
      "getWhetherNonceHasBeenUsedForUser(address,uint256)": {
        "params": {
          "_nonce": "- The nonce referred to here is not the same as an Ethereum account's nonce. We are referring instead to nonces that are used by both the lender and the borrower when they are first signing off-chain NFTfi orders. These nonces can be any uint256 value that the user has not previously used to sign an off-chain order. Each nonce can be used at most once per user within NFTfi, regardless of whether they are the lender or the borrower in that situation. This serves two purposes: - First, it prevents replay attacks where an attacker would submit a user's off-chain order more than once. - Second, it allows a user to cancel an off-chain order by calling NFTfi.cancelLoanCommitmentBeforeLoanHasBegun() , which marks the nonce as used and prevents any future loan from using the user's off-chain order that contains that nonce.",
          "_user": "- The address of the user. This function works for both lenders and borrowers alike."
        },
        "returns": {
          "_0": "A bool representing whether or not this nonce has been used for this user."
        }
      },
      "liquidateOverdueLoan(uint32)": {
        "params": {
          "_loanId": "A unique identifier for this particular loan, sourced from the Loan Coordinator."
        }
      },
      "onERC1155BatchReceived(address,address,uint256[],uint256[],bytes)": {
        "details": "Handles the receipt of a multiple ERC1155 token types. This function is called at the end of a `safeBatchTransferFrom` after the balances have been updated.",
        "returns": {
          "_0": "`bytes4(keccak256(\"onERC1155BatchReceived(address,address,uint256[],uint256[],bytes)\"))` if allowed"
        }
      },
      "onERC1155Received(address,address,uint256,uint256,bytes)": {
        "details": "Handles the receipt of a single ERC1155 token type. This function is called at the end of a `safeTransferFrom` after the balance has been updated.",
        "returns": {
          "_0": "`bytes4(keccak256(\"onERC1155Received(address,address,uint256,uint256,bytes)\"))` if allowed"
        }
      },
      "onERC721Received(address,address,uint256,bytes)": {
        "details": "See {IERC721Receiver-onERC721Received}. Always returns `IERC721Receiver.onERC721Received.selector`."
      },
      "owner()": {
        "details": "Returns the address of the current owner."
      },
      "pause()": {
        "details": "Triggers stopped state. Requirements: - Only the owner can call this method. - The contract must not be paused."
      },
      "paused()": {
        "details": "Returns true if the contract is paused, and false otherwise."
      },
      "payBackLoan(uint32)": {
        "params": {
          "_loanId": "A unique identifier for this particular loan, sourced from the Loan Coordinator."
        }
      },
      "payBackLoanSafe(uint32)": {
        "params": {
          "_loanId": "A unique identifier for this particular loan, sourced from the Loan Coordinator."
        }
      },
      "pullAirdrop(uint32,address,bytes,address,uint256,bool,uint256)": {
        "params": {
          "_data": "- function selector to be called on the airdropping contract",
          "_is1155": "-",
          "_loanId": "-",
          "_nftAirdrop": "- address of the used claiming nft in the drop",
          "_nftAirdropAmount": "- amount in case of 1155",
          "_nftAirdropId": "- id of the used claiming nft in the drop",
          "_target": "- address of the airdropping contract"
        }
      },
      "pullAirdropReceiver(uint32,address,bytes)": {
        "params": {
          "_data": "- function selector to be called on the airdropping contract",
          "_loanId": "-",
          "_target": "- address of the airdropping contract"
        }
      },
      "renegotiateLoan(uint32,uint32,uint256,uint256,uint256,uint256,bytes)": {
        "details": "makes possible to change loan duration and max repayment amount, loan duration even can be extended if loan was expired but not liquidated.",
        "params": {
          "_expiry": "- The date when the renegotiation offer expires",
          "_lenderNonce": "- The nonce referred to here is not the same as an Ethereum account's nonce. We are referring instead to nonces that are used by both the lender and the borrower when they are first signing off-chain NFTfi orders. These nonces can be any uint256 value that the user has not previously used to sign an off-chain order. Each nonce can be used at most once per user within NFTfi, regardless of whether they are the lender or the borrower in that situation. This serves two purposes: - First, it prevents replay attacks where an attacker would submit a user's off-chain order more than once. - Second, it allows a user to cancel an off-chain order by calling NFTfi.cancelLoanCommitmentBeforeLoanHasBegun() , which marks the nonce as used and prevents any future loan from using the user's off-chain order that contains that nonce.",
          "_lenderSignature": "- The ECDSA signature of the lender, obtained off-chain ahead of time, signing the following combination of parameters: - _loanId - _newLoanDuration - _newMaximumRepaymentAmount - _lender - _expiry  - address of this contract - chainId",
          "_loanId": "- The unique identifier for the loan to be renegotiated",
          "_newLoanDuration": "- The new amount of time (measured in seconds) that can elapse before the lender can liquidate the loan and seize the underlying collateral NFT.",
          "_newMaximumRepaymentAmount": "- The new maximum amount of money that the borrower would be required to retrieve their collateral, measured in the smallest units of the ERC20 currency used for the loan. The borrower will always have to pay this amount to retrieve their collateral, regardless of whether they repay early.",
          "_renegotiationFee": "Agreed upon fee in ether that borrower pays for the lender for the renegitiation"
        }
      },
      "setERC20Permit(address,bool)": {
        "params": {
          "_erc20": "- The address of the ERC20 currency whose permit list status changed.",
          "_permit": "- The new status of whether the currency is permitted or not."
        }
      },
      "setERC20Permits(address[],bool[])": {
        "params": {
          "_erc20s": "- The addresses of the ERC20 currencies whose permit list status changed.",
          "_permits": "- The new statuses of whether the currency is permitted or not."
        }
      },
      "supportsInterface(bytes4)": {
        "details": "Checks whether this contract implements the interface defined by `interfaceId`.",
        "params": {
          "_interfaceId": "Id of the interface"
        },
        "returns": {
          "_0": "true if this contract implements the interface"
        }
      },
      "transferOwnership(address)": {
        "details": "Transfers ownership of the contract to a new account (`newOwner`). Can only be called by the current owner."
      },
      "unpause()": {
        "details": "Returns to normal state. Requirements: - Only the owner can call this method. - The contract must be paused."
      },
      "updateAdminFee(uint16)": {
        "params": {
          "_newAdminFeeInBasisPoints": "- The new admin fee measured in basis points. This is a percent of the interest paid upon a loan's completion that go to the contract admins."
        }
      },
      "updateMaximumLoanDuration(uint256)": {
        "params": {
          "_newMaximumLoanDuration": "- The new maximum loan duration, measured in seconds."
        }
      },
      "wrapCollateral(uint32)": {
        "params": {
          "_loanId": "-"
        }
      }
    },
    "title": "DirectLoanFixedOffer",
    "version": 1
  },
  "userdoc": {
    "events": {
      "AdminFeeUpdated(uint16)": {
        "notice": "This event is fired whenever the admins change the percent of interest rates earned that they charge as a fee. Note that newAdminFee can never exceed 10,000, since the fee is measured in basis points."
      },
      "ERC20Permit(address,bool)": {
        "notice": "This event is fired whenever the admin sets a ERC20 permit."
      },
      "EscrowRepay(uint32)": {
        "notice": "This event is fired whenever a loan is repaid into escrow"
      },
      "LoanLiquidated(uint32,address,address,uint256,uint256,uint256,uint256,address)": {
        "notice": "This event is fired whenever a lender liquidates an outstanding loan that is owned to them that has exceeded its duration. The lender receives the underlying NFT collateral, and the borrower no longer needs to repay the loan principal-plus-interest."
      },
      "LoanRenegotiated(uint32,address,address,uint32,uint256,uint256,uint256)": {
        "notice": "This event is fired when some of the terms of a loan are being renegotiated."
      },
      "LoanRepaid(uint32,address,address,uint256,uint256,uint256,uint256,uint256,address,address,address)": {
        "notice": "This event is fired whenever a borrower successfully repays their loan, paying principal-plus-interest-minus-fee to the lender in loanERC20Denomination, paying fee to owner in loanERC20Denomination, and receiving their NFT collateral back."
      },
      "LoanStarted(uint32,address,address,(uint256,uint256,uint256,address,uint32,uint16,uint16,address,uint64,address,address),(address,uint16,uint16))": {
        "notice": "This event is fired whenever a borrower begins a loan by calling NFTfi.beginLoan(), which can only occur after both the lender and borrower have approved their ERC721 and ERC20 contracts to use NFTfi, and when they both have signed off-chain messages that agree on the terms of the loan."
      },
      "MaximumLoanDurationUpdated(uint256)": {
        "notice": "This event is fired whenever the admins change the maximum duration of any loan started for this loan type."
      }
    },
    "kind": "user",
    "methods": {
      "LOAN_TYPE()": {
        "notice": "This function returns a bytes32 value identifying the loan type for the coordinator"
      },
      "acceptOffer((uint256,uint256,uint256,address,uint32,uint16,address,address),(uint256,uint256,address,bytes),(address,uint16))": {
        "notice": "This function is called by the borrower when accepting a lender's offer to begin a loan."
      },
      "adminFeeInBasisPoints()": {
        "notice": "The percentage of interest earned by lenders on this platform that is taken by the contract admin's as a fee, measured in basis points (hundreths of a percent). The max allowed value is 10000."
      },
      "cancelLoanCommitmentBeforeLoanHasBegun(uint256)": {
        "notice": "This function can be called by either a lender or a borrower to cancel all off-chain orders that they have signed that contain this nonce. If the off-chain orders were created correctly, there should only be one off-chain order that contains this nonce at all. The nonce referred to here is not the same as an Ethereum account's nonce. We are referring instead to nonces that are used by both the lender and the borrower when they are first signing off-chain NFTfi orders. These nonces can be any uint256 value that the user has not previously used to sign an off-chain order. Each nonce can be used at most once per user within NFTfi, regardless of whether they are the lender or the borrower in that situation. This serves two purposes. First, it prevents replay attacks where an attacker would submit a user's off-chain order more than once. Second, it allows a user to cancel an off-chain order by calling NFTfi.cancelLoanCommitmentBeforeLoanHasBegun(), which marks the nonce as used and prevents any future loan from using the user's off-chain order that contains that nonce."
      },
      "drainERC1155Airdrop(address,uint256,address)": {
        "notice": "used by the owner account to be able to drain ERC1155 tokens received as airdrops for the locked  collateral NFT-s"
      },
      "drainERC20Airdrop(address,uint256,address)": {
        "notice": "used by the owner account to be able to drain ERC20 tokens received as airdrops for the locked  collateral NFT-s"
      },
      "drainERC721Airdrop(address,uint256,address)": {
        "notice": "used by the owner account to be able to drain ERC721 tokens received as airdrops for the locked  collateral NFT-s"
      },
      "getERC20Permit(address)": {
        "notice": "This function can be called by anyone to get the permit associated with the erc20 contract."
      },
      "getEscrowedPayBack(address)": {
        "notice": "Used for lenders to get their payback from escrow, in case the direct loan payback didn't work, because it caused a revert."
      },
      "getPayoffAmount(uint32)": {
        "notice": "This function can be used to view the current quantity of the ERC20 currency used in the specified loan required by the borrower to repay their loan, measured in the smallest unit of the ERC20 currency."
      },
      "getWhetherNonceHasBeenUsedForUser(address,uint256)": {
        "notice": "This function can be used to view whether a particular nonce for a particular user has already been used, either from a successful loan or a cancelled off-chain order."
      },
      "liquidateOverdueLoan(uint32)": {
        "notice": "This function is called by a lender once a loan has finished its duration and the borrower still has not repaid. The lender can call this function to seize the underlying NFT collateral, although the lender gives up all rights to the principal-plus-collateral by doing so. This function is purposefully not pausable in order to prevent an attack where the contract admin's pause the contract and hold hostage the NFT's that are still within it. We intentionally allow anybody to call this function, although only the lender will end up receiving the seized collateral. We are exploring the possbility of incentivizing users to call this function by using some of the admin funds."
      },
      "loanIdToLoan(uint32)": {
        "notice": "A mapping from a loan's identifier to the loan's details, represted by the loan struct."
      },
      "loanRepaidOrLiquidated(uint32)": {
        "notice": "A mapping tracking whether a loan has either been repaid or liquidated. This prevents an attacker trying to repay or liquidate the same loan twice."
      },
      "maximumLoanDuration()": {
        "notice": "The maximum duration of any loan started for this loan type, measured in seconds. This is both a sanity-check for borrowers and an upper limit on how long admins will have to support v1 of this contract if they eventually deprecate it, as well as a check to ensure that the loan duration never exceeds the space alotted for it in the loan struct."
      },
      "payBackLoan(uint32)": {
        "notice": "This function is called by a anyone to repay a loan. It can be called at any time after the loan has begun and before loan expiry.. The caller will pay a pro-rata portion of their interest if the loan is paid off early and the loan is pro-rated type, but the complete repayment amount if it is fixed type. The the borrower (current owner of the obligation note) will get the collaterl NFT back. This function is purposefully not pausable in order to prevent an attack where the contract admin's pause the contract and hold hostage the NFT's that are still within it."
      },
      "payBackLoanSafe(uint32)": {
        "notice": "This function is called by a anyone to repay a loan. It can be called at any time after the loan has begun and before loan expiry.. The caller will pay a pro-rata portion of their interest if the loan is paid off early and the loan is pro-rated type, but the complete repayment amount if it is fixed type. The the borrower (current owner of the obligation note) will get the collaterl NFT back. This function is purposefully not pausable in order to prevent an attack where the contract admin's pause the contract and hold hostage the NFT's that are still within it."
      },
      "pullAirdrop(uint32,address,bytes,address,uint256,bool,uint256)": {
        "notice": "this function initiates a flashloan to pull an airdrop from a tartget contract"
      },
      "pullAirdropReceiver(uint32,address,bytes)": {
        "notice": "this function initiates a flashloan to pull an airdrop from a tartget contract"
      },
      "setERC20Permit(address,bool)": {
        "notice": "This function can be called by admins to change the permitted status of an ERC20 currency. This includes both adding an ERC20 currency to the permitted list and removing it."
      },
      "setERC20Permits(address[],bool[])": {
        "notice": "This function can be called by admins to change the permitted status of a batch of ERC20 currency. This includes both adding an ERC20 currency to the permitted list and removing it."
      },
      "updateAdminFee(uint16)": {
        "notice": "This function can be called by admins to change the percent of interest rates earned that they charge as a fee. Note that newAdminFee can never exceed 10,000, since the fee is measured in basis points."
      },
      "updateMaximumLoanDuration(uint256)": {
        "notice": "This function can be called by admins to change the maximumLoanDuration. Note that they can never change maximumLoanDuration to be greater than UINT32_MAX, since that's the maximum space alotted for the duration in the loan struct."
      },
      "wrapCollateral(uint32)": {
        "notice": "this function creates a proxy contract wrapping the collateral to be able to catch an expected airdrop"
      }
    },
    "notice": "Main contract for NFTfi Direct Loans Fixed Type. This contract manages the ability to create NFT-backed peer-to-peer loans of type Fixed (agreed to be a fixed-repayment loan) where the borrower pays the maximumRepaymentAmount regardless of whether they repay early or not. There are two ways to commence an NFT-backed loan: a. The borrower accepts a lender's offer by calling `acceptOffer`.   1. the borrower calls nftContract.approveAll(NFTfi), approving the NFTfi contract to move their NFT's on their be1alf.   2. the lender calls erc20Contract.approve(NFTfi), allowing NFTfi to move the lender's ERC20 tokens on their behalf.   3. the lender signs an off-chain message, proposing its offer terms.   4. the borrower calls `acceptOffer` to accept these terms and enter into the loan. The NFT is stored in the contract, the borrower receives the loan principal in the specified ERC20 currency, the lender receives an NFTfi promissory note (in ERC721 form) that represents the rights to either the principal-plus-interest, or the underlying NFT collateral if the borrower does not pay back in time, and the borrower receives obligation receipt (in ERC721 form) that gives them the right to pay back the loan and get the collateral back. The lender can freely transfer and trade this ERC721 promissory note as they wish, with the knowledge that transferring the ERC721 promissory note tranfsers the rights to principal-plus-interest and/or collateral, and that they will no longer have a claim on the loan. The ERC721 promissory note itself represents that claim. The borrower can freely transfer and trade this ERC721 obligaiton receipt as they wish, with the knowledge that transferring the ERC721 obligaiton receipt tranfsers the rights right to pay back the loan and get the collateral back. A loan may end in one of two ways: - First, a borrower may call NFTfi.payBackLoan() and pay back the loan plus interest at any time, in which case they receive their NFT back in the same transaction. - Second, if the loan's duration has passed and the loan has not been paid back yet, a lender can call NFTfi.liquidateOverdueLoan(), in which case they receive the underlying NFT collateral and forfeit the rights to the principal-plus-interest, which the borrower now keeps.",
    "version": 1
  },
  "storageLayout": {
    "storage": [
      {
        "astId": 21148,
        "contract": "contracts/loans/direct/loanTypes/DirectLoanFixedOffer.sol:DirectLoanFixedOffer",
        "label": "_owner",
        "offset": 0,
        "slot": "0",
        "type": "t_address"
      },
      {
        "astId": 717,
        "contract": "contracts/loans/direct/loanTypes/DirectLoanFixedOffer.sol:DirectLoanFixedOffer",
        "label": "_paused",
        "offset": 20,
        "slot": "0",
        "type": "t_bool"
      },
      {
        "astId": 802,
        "contract": "contracts/loans/direct/loanTypes/DirectLoanFixedOffer.sol:DirectLoanFixedOffer",
        "label": "_status",
        "offset": 0,
        "slot": "1",
        "type": "t_uint256"
      },
      {
        "astId": 9553,
        "contract": "contracts/loans/direct/loanTypes/DirectLoanFixedOffer.sol:DirectLoanFixedOffer",
        "label": "maximumLoanDuration",
        "offset": 0,
        "slot": "2",
        "type": "t_uint256"
      },
      {
        "astId": 9558,
        "contract": "contracts/loans/direct/loanTypes/DirectLoanFixedOffer.sol:DirectLoanFixedOffer",
        "label": "adminFeeInBasisPoints",
        "offset": 0,
        "slot": "3",
        "type": "t_uint16"
      },
      {
        "astId": 9565,
        "contract": "contracts/loans/direct/loanTypes/DirectLoanFixedOffer.sol:DirectLoanFixedOffer",
        "label": "loanIdToLoan",
        "offset": 0,
        "slot": "4",
        "type": "t_mapping(t_uint32,t_struct(LoanTerms)13808_storage)"
      },
      {
        "astId": 9570,
        "contract": "contracts/loans/direct/loanTypes/DirectLoanFixedOffer.sol:DirectLoanFixedOffer",
        "label": "loanIdToLoanExtras",
        "offset": 0,
        "slot": "5",
        "type": "t_mapping(t_uint32,t_struct(LoanExtras)13815_storage)"
      },
      {
        "astId": 9576,
        "contract": "contracts/loans/direct/loanTypes/DirectLoanFixedOffer.sol:DirectLoanFixedOffer",
        "label": "loanRepaidOrLiquidated",
        "offset": 0,
        "slot": "6",
        "type": "t_mapping(t_uint32,t_bool)"
      },
      {
        "astId": 9583,
        "contract": "contracts/loans/direct/loanTypes/DirectLoanFixedOffer.sol:DirectLoanFixedOffer",
        "label": "_escrowTokens",
        "offset": 0,
        "slot": "7",
        "type": "t_mapping(t_address,t_mapping(t_uint256,t_uint256))"
      },
      {
        "astId": 9588,
        "contract": "contracts/loans/direct/loanTypes/DirectLoanFixedOffer.sol:DirectLoanFixedOffer",
        "label": "_escrowErc20Tokens",
        "offset": 0,
        "slot": "8",
        "type": "t_mapping(t_address,t_uint256)"
      },
      {
        "astId": 9595,
        "contract": "contracts/loans/direct/loanTypes/DirectLoanFixedOffer.sol:DirectLoanFixedOffer",
        "label": "_payBackEscrow",
        "offset": 0,
        "slot": "9",
        "type": "t_mapping(t_address,t_mapping(t_address,t_uint256))"
      },
      {
        "astId": 9602,
        "contract": "contracts/loans/direct/loanTypes/DirectLoanFixedOffer.sol:DirectLoanFixedOffer",
        "label": "_nonceHasBeenUsedForUser",
        "offset": 0,
        "slot": "10",
        "type": "t_mapping(t_address,t_mapping(t_uint256,t_bool))"
      },
      {
        "astId": 9607,
        "contract": "contracts/loans/direct/loanTypes/DirectLoanFixedOffer.sol:DirectLoanFixedOffer",
        "label": "erc20Permits",
        "offset": 0,
        "slot": "11",
        "type": "t_mapping(t_address,t_bool)"
      }
    ],
    "types": {
      "t_address": {
        "encoding": "inplace",
        "label": "address",
        "numberOfBytes": "20"
      },
      "t_bool": {
        "encoding": "inplace",
        "label": "bool",
        "numberOfBytes": "1"
      },
      "t_mapping(t_address,t_bool)": {
        "encoding": "mapping",
        "key": "t_address",
        "label": "mapping(address => bool)",
        "numberOfBytes": "32",
        "value": "t_bool"
      },
      "t_mapping(t_address,t_mapping(t_address,t_uint256))": {
        "encoding": "mapping",
        "key": "t_address",
        "label": "mapping(address => mapping(address => uint256))",
        "numberOfBytes": "32",
        "value": "t_mapping(t_address,t_uint256)"
      },
      "t_mapping(t_address,t_mapping(t_uint256,t_bool))": {
        "encoding": "mapping",
        "key": "t_address",
        "label": "mapping(address => mapping(uint256 => bool))",
        "numberOfBytes": "32",
        "value": "t_mapping(t_uint256,t_bool)"
      },
      "t_mapping(t_address,t_mapping(t_uint256,t_uint256))": {
        "encoding": "mapping",
        "key": "t_address",
        "label": "mapping(address => mapping(uint256 => uint256))",
        "numberOfBytes": "32",
        "value": "t_mapping(t_uint256,t_uint256)"
      },
      "t_mapping(t_address,t_uint256)": {
        "encoding": "mapping",
        "key": "t_address",
        "label": "mapping(address => uint256)",
        "numberOfBytes": "32",
        "value": "t_uint256"
      },
      "t_mapping(t_uint256,t_bool)": {
        "encoding": "mapping",
        "key": "t_uint256",
        "label": "mapping(uint256 => bool)",
        "numberOfBytes": "32",
        "value": "t_bool"
      },
      "t_mapping(t_uint256,t_uint256)": {
        "encoding": "mapping",
        "key": "t_uint256",
        "label": "mapping(uint256 => uint256)",
        "numberOfBytes": "32",
        "value": "t_uint256"
      },
      "t_mapping(t_uint32,t_bool)": {
        "encoding": "mapping",
        "key": "t_uint32",
        "label": "mapping(uint32 => bool)",
        "numberOfBytes": "32",
        "value": "t_bool"
      },
      "t_mapping(t_uint32,t_struct(LoanExtras)13815_storage)": {
        "encoding": "mapping",
        "key": "t_uint32",
        "label": "mapping(uint32 => struct LoanData.LoanExtras)",
        "numberOfBytes": "32",
        "value": "t_struct(LoanExtras)13815_storage"
      },
      "t_mapping(t_uint32,t_struct(LoanTerms)13808_storage)": {
        "encoding": "mapping",
        "key": "t_uint32",
        "label": "mapping(uint32 => struct LoanData.LoanTerms)",
        "numberOfBytes": "32",
        "value": "t_struct(LoanTerms)13808_storage"
      },
      "t_struct(LoanExtras)13815_storage": {
        "encoding": "inplace",
        "label": "struct LoanData.LoanExtras",
        "members": [
          {
            "astId": 13810,
            "contract": "contracts/loans/direct/loanTypes/DirectLoanFixedOffer.sol:DirectLoanFixedOffer",
            "label": "revenueSharePartner",
            "offset": 0,
            "slot": "0",
            "type": "t_address"
          },
          {
            "astId": 13812,
            "contract": "contracts/loans/direct/loanTypes/DirectLoanFixedOffer.sol:DirectLoanFixedOffer",
            "label": "revenueShareInBasisPoints",
            "offset": 20,
            "slot": "0",
            "type": "t_uint16"
          },
          {
            "astId": 13814,
            "contract": "contracts/loans/direct/loanTypes/DirectLoanFixedOffer.sol:DirectLoanFixedOffer",
            "label": "referralFeeInBasisPoints",
            "offset": 22,
            "slot": "0",
            "type": "t_uint16"
          }
        ],
        "numberOfBytes": "32"
      },
      "t_struct(LoanTerms)13808_storage": {
        "encoding": "inplace",
        "label": "struct LoanData.LoanTerms",
        "members": [
          {
            "astId": 13787,
            "contract": "contracts/loans/direct/loanTypes/DirectLoanFixedOffer.sol:DirectLoanFixedOffer",
            "label": "loanPrincipalAmount",
            "offset": 0,
            "slot": "0",
            "type": "t_uint256"
          },
          {
            "astId": 13789,
            "contract": "contracts/loans/direct/loanTypes/DirectLoanFixedOffer.sol:DirectLoanFixedOffer",
            "label": "maximumRepaymentAmount",
            "offset": 0,
            "slot": "1",
            "type": "t_uint256"
          },
          {
            "astId": 13791,
            "contract": "contracts/loans/direct/loanTypes/DirectLoanFixedOffer.sol:DirectLoanFixedOffer",
            "label": "nftCollateralId",
            "offset": 0,
            "slot": "2",
            "type": "t_uint256"
          },
          {
            "astId": 13793,
            "contract": "contracts/loans/direct/loanTypes/DirectLoanFixedOffer.sol:DirectLoanFixedOffer",
            "label": "loanERC20Denomination",
            "offset": 0,
            "slot": "3",
            "type": "t_address"
          },
          {
            "astId": 13795,
            "contract": "contracts/loans/direct/loanTypes/DirectLoanFixedOffer.sol:DirectLoanFixedOffer",
            "label": "loanDuration",
            "offset": 20,
            "slot": "3",
            "type": "t_uint32"
          },
          {
            "astId": 13797,
            "contract": "contracts/loans/direct/loanTypes/DirectLoanFixedOffer.sol:DirectLoanFixedOffer",
            "label": "loanInterestRateForDurationInBasisPoints",
            "offset": 24,
            "slot": "3",
            "type": "t_uint16"
          },
          {
            "astId": 13799,
            "contract": "contracts/loans/direct/loanTypes/DirectLoanFixedOffer.sol:DirectLoanFixedOffer",
            "label": "loanAdminFeeInBasisPoints",
            "offset": 26,
            "slot": "3",
            "type": "t_uint16"
          },
          {
            "astId": 13801,
            "contract": "contracts/loans/direct/loanTypes/DirectLoanFixedOffer.sol:DirectLoanFixedOffer",
            "label": "nftCollateralWrapper",
            "offset": 0,
            "slot": "4",
            "type": "t_address"
          },
          {
            "astId": 13803,
            "contract": "contracts/loans/direct/loanTypes/DirectLoanFixedOffer.sol:DirectLoanFixedOffer",
            "label": "loanStartTime",
            "offset": 20,
            "slot": "4",
            "type": "t_uint64"
          },
          {
            "astId": 13805,
            "contract": "contracts/loans/direct/loanTypes/DirectLoanFixedOffer.sol:DirectLoanFixedOffer",
            "label": "nftCollateralContract",
            "offset": 0,
            "slot": "5",
            "type": "t_address"
          },
          {
            "astId": 13807,
            "contract": "contracts/loans/direct/loanTypes/DirectLoanFixedOffer.sol:DirectLoanFixedOffer",
            "label": "borrower",
            "offset": 0,
            "slot": "6",
            "type": "t_address"
          }
        ],
        "numberOfBytes": "224"
      },
      "t_uint16": {
        "encoding": "inplace",
        "label": "uint16",
        "numberOfBytes": "2"
      },
      "t_uint256": {
        "encoding": "inplace",
        "label": "uint256",
        "numberOfBytes": "32"
      },
      "t_uint32": {
        "encoding": "inplace",
        "label": "uint32",
        "numberOfBytes": "4"
      },
      "t_uint64": {
        "encoding": "inplace",
        "label": "uint64",
        "numberOfBytes": "8"
      }
    }
  }
}