{
  "address": "0x567D8bb305D7428DC6b482ccab4b87F4A871E123",
  "abi": [
    {
      "inputs": [
        {
          "internalType": "uint256",
          "name": "_loanId",
          "type": "uint256"
        },
        {
          "internalType": "uint32",
          "name": "_newLoanDuration",
          "type": "uint32"
        },
        {
          "internalType": "uint256",
          "name": "_newMaximumRepaymentAmount",
          "type": "uint256"
        },
        {
          "internalType": "uint256",
          "name": "_renegotiationFee",
          "type": "uint256"
        },
        {
          "components": [
            {
              "internalType": "uint256",
              "name": "nonce",
              "type": "uint256"
            },
            {
              "internalType": "uint256",
              "name": "expiry",
              "type": "uint256"
            },
            {
              "internalType": "address",
              "name": "signer",
              "type": "address"
            },
            {
              "internalType": "bytes",
              "name": "signature",
              "type": "bytes"
            }
          ],
          "internalType": "struct LoanData.Signature",
          "name": "_signature",
          "type": "tuple"
        },
        {
          "internalType": "address",
          "name": "_loanContract",
          "type": "address"
        }
      ],
      "name": "isValidLenderRenegotiationSignature",
      "outputs": [
        {
          "internalType": "bool",
          "name": "",
          "type": "bool"
        }
      ],
      "stateMutability": "view",
      "type": "function"
    },
    {
      "inputs": [
        {
          "components": [
            {
              "internalType": "uint256",
              "name": "loanPrincipalAmount",
              "type": "uint256"
            },
            {
              "internalType": "uint256",
              "name": "maximumRepaymentAmount",
              "type": "uint256"
            },
            {
              "internalType": "uint256",
              "name": "nftCollateralId",
              "type": "uint256"
            },
            {
              "internalType": "address",
              "name": "nftCollateralContract",
              "type": "address"
            },
            {
              "internalType": "uint32",
              "name": "loanDuration",
              "type": "uint32"
            },
            {
              "internalType": "uint16",
              "name": "loanAdminFeeInBasisPoints",
              "type": "uint16"
            },
            {
              "internalType": "address",
              "name": "loanERC20Denomination",
              "type": "address"
            },
            {
              "internalType": "address",
              "name": "referrer",
              "type": "address"
            }
          ],
          "internalType": "struct LoanData.Offer",
          "name": "_offer",
          "type": "tuple"
        },
        {
          "components": [
            {
              "internalType": "uint256",
              "name": "nonce",
              "type": "uint256"
            },
            {
              "internalType": "uint256",
              "name": "expiry",
              "type": "uint256"
            },
            {
              "internalType": "address",
              "name": "signer",
              "type": "address"
            },
            {
              "internalType": "bytes",
              "name": "signature",
              "type": "bytes"
            }
          ],
          "internalType": "struct LoanData.Signature",
          "name": "_signature",
          "type": "tuple"
        },
        {
          "internalType": "address",
          "name": "_loanContract",
          "type": "address"
        }
      ],
      "name": "isValidLenderSignature",
      "outputs": [
        {
          "internalType": "bool",
          "name": "",
          "type": "bool"
        }
      ],
      "stateMutability": "view",
      "type": "function"
    }
  ],
  "transactionHash": "0x4bdf4d05d41412998594d038b3acb03889a89469c4ba0292c436d29ac2f68437",
  "args": [],
  "numDeployments": 1,
  "solcInputHash": "54de0b2a48f04d02d32721198484cdf8",
  "bytecode": "0x608060405234801561001057600080fd5b50610637806100206000396000f3fe608060405234801561001057600080fd5b50600436106100365760003560e01c80639fd1eea61461003b578063de8dadb614610062575b600080fd5b61004e6100493660046103a7565b610075565b604051901515815260200160405180910390f35b61004e6100703660046102c4565b610114565b6040516387c0a57360e01b8152600090736AFd80bBc24123Ab9ec630b239D0DEFb40D35e38906387c0a573906100b9908a908a908a908a908a908a9060040161054a565b60206040518083038186803b1580156100d157600080fd5b505af41580156100e5573d6000803e3d6000fd5b505050506040513d601f19601f82011682018060405250810190610109919061029d565b979650505050505050565b6040516301aae07b60e61b8152600090736AFd80bBc24123Ab9ec630b239D0DEFb40D35e3890636ab81ec0906101529087908790879060040161049b565b60206040518083038186803b15801561016a57600080fd5b505af415801561017e573d6000803e3d6000fd5b505050506040513d601f19601f820116820180604052508101906101a2919061029d565b949350505050565b80356001600160a01b03811681146101c157600080fd5b919050565b6000608082840312156101d7578081fd5b6101df610596565b905081358152602080830135818301526101fb604084016101aa565b6040830152606083013567ffffffffffffffff8082111561021b57600080fd5b818501915085601f83011261022f57600080fd5b81358181111561024157610241610614565b610253601f8201601f191685016105e3565b9150808252868482850101111561026957600080fd5b808484018584013760008482840101525080606085015250505092915050565b803563ffffffff811681146101c157600080fd5b6000602082840312156102ae578081fd5b815180151581146102bd578182fd5b9392505050565b60008060008385036101408112156102da578283fd5b610100808212156102e9578384fd5b6102f16105bf565b9150853582526020860135602083015260408601356040830152610317606087016101aa565b606083015261032860808701610289565b608083015260a086013561ffff81168114610341578485fd5b60a083015261035260c087016101aa565b60c083015261036360e087016101aa565b60e083015290935084013567ffffffffffffffff811115610382578283fd5b61038e868287016101c6565b92505061039e61012085016101aa565b90509250925092565b60008060008060008060c087890312156103bf578182fd5b863595506103cf60208801610289565b94506040870135935060608701359250608087013567ffffffffffffffff8111156103f8578283fd5b61040489828a016101c6565b92505061041360a088016101aa565b90509295509295509295565b8051825260006020808301518185015260018060a01b0360408401511660408501526060830151608060608601528051806080870152835b818110156104735782810184015187820160a001528301610457565b81811115610484578460a083890101525b50601f01601f19169490940160a001949350505050565b600061014085518352602086015160208401526040860151604084015260018060a01b03606087015116606084015263ffffffff608087015116608084015261ffff60a08701511660a084015260c086015161050260c08501826001600160a01b03169052565b5060e086015161051d60e08501826001600160a01b03169052565b50806101008401526105318184018661041f565b9150506101a26101208301846001600160a01b03169052565b86815263ffffffff8616602082015284604082015283606082015260c06080820152600061057b60c083018561041f565b905060018060a01b03831660a0830152979650505050505050565b6040516080810167ffffffffffffffff811182821017156105b9576105b9610614565b60405290565b604051610100810167ffffffffffffffff811182821017156105b9576105b9610614565b604051601f8201601f1916810167ffffffffffffffff8111828210171561060c5761060c610614565b604052919050565b634e487b7160e01b600052604160045260246000fdfea164736f6c6343000804000a",
  "deployedBytecode": "0x608060405234801561001057600080fd5b50600436106100365760003560e01c80639fd1eea61461003b578063de8dadb614610062575b600080fd5b61004e6100493660046103a7565b610075565b604051901515815260200160405180910390f35b61004e6100703660046102c4565b610114565b6040516387c0a57360e01b815260009073__$07730b9b91c2b41a419f99961f709e7858$__906387c0a573906100b9908a908a908a908a908a908a9060040161054a565b60206040518083038186803b1580156100d157600080fd5b505af41580156100e5573d6000803e3d6000fd5b505050506040513d601f19601f82011682018060405250810190610109919061029d565b979650505050505050565b6040516301aae07b60e61b815260009073__$07730b9b91c2b41a419f99961f709e7858$__90636ab81ec0906101529087908790879060040161049b565b60206040518083038186803b15801561016a57600080fd5b505af415801561017e573d6000803e3d6000fd5b505050506040513d601f19601f820116820180604052508101906101a2919061029d565b949350505050565b80356001600160a01b03811681146101c157600080fd5b919050565b6000608082840312156101d7578081fd5b6101df610596565b905081358152602080830135818301526101fb604084016101aa565b6040830152606083013567ffffffffffffffff8082111561021b57600080fd5b818501915085601f83011261022f57600080fd5b81358181111561024157610241610614565b610253601f8201601f191685016105e3565b9150808252868482850101111561026957600080fd5b808484018584013760008482840101525080606085015250505092915050565b803563ffffffff811681146101c157600080fd5b6000602082840312156102ae578081fd5b815180151581146102bd578182fd5b9392505050565b60008060008385036101408112156102da578283fd5b610100808212156102e9578384fd5b6102f16105bf565b9150853582526020860135602083015260408601356040830152610317606087016101aa565b606083015261032860808701610289565b608083015260a086013561ffff81168114610341578485fd5b60a083015261035260c087016101aa565b60c083015261036360e087016101aa565b60e083015290935084013567ffffffffffffffff811115610382578283fd5b61038e868287016101c6565b92505061039e61012085016101aa565b90509250925092565b60008060008060008060c087890312156103bf578182fd5b863595506103cf60208801610289565b94506040870135935060608701359250608087013567ffffffffffffffff8111156103f8578283fd5b61040489828a016101c6565b92505061041360a088016101aa565b90509295509295509295565b8051825260006020808301518185015260018060a01b0360408401511660408501526060830151608060608601528051806080870152835b818110156104735782810184015187820160a001528301610457565b81811115610484578460a083890101525b50601f01601f19169490940160a001949350505050565b600061014085518352602086015160208401526040860151604084015260018060a01b03606087015116606084015263ffffffff608087015116608084015261ffff60a08701511660a084015260c086015161050260c08501826001600160a01b03169052565b5060e086015161051d60e08501826001600160a01b03169052565b50806101008401526105318184018661041f565b9150506101a26101208301846001600160a01b03169052565b86815263ffffffff8616602082015284604082015283606082015260c06080820152600061057b60c083018561041f565b905060018060a01b03831660a0830152979650505050505050565b6040516080810167ffffffffffffffff811182821017156105b9576105b9610614565b60405290565b604051610100810167ffffffffffffffff811182821017156105b9576105b9610614565b604051601f8201601f1916810167ffffffffffffffff8111828210171561060c5761060c610614565b604052919050565b634e487b7160e01b600052604160045260246000fdfea164736f6c6343000804000a",
  "libraries": {
    "NFTfiSigningUtils": "0x6AFd80bBc24123Ab9ec630b239D0DEFb40D35e38"
  },
  "devdoc": {
    "author": "NFTfi",
    "kind": "dev",
    "methods": {
      "isValidLenderRenegotiationSignature(uint256,uint32,uint256,uint256,(uint256,uint256,address,bytes),address)": {
        "params": {
          "_loanContract": "- Address of the loan contract where the signature is going to be used",
          "_loanId": "- The unique identifier for the loan to be renegotiated",
          "_newLoanDuration": "- The new amount of time (measured in seconds) that can elapse before the lender can liquidate the loan and seize the underlying collateral NFT.",
          "_newMaximumRepaymentAmount": "- The new maximum amount of money that the borrower would be required to retrieve their collateral, measured in the smallest units of the ERC20 currency used for the loan. The borrower will always have to pay this amount to retrieve their collateral, regardless of whether they repay early.",
          "_renegotiationFee": "Agreed upon fee in ether that borrower pays for the lender for the renegitiation",
          "_signature": "- The signature structure containing: - signer: The address of the signer. The borrower for `acceptOffer` - nonce: The nonce referred here is not the same as an Ethereum account's nonce. We are referring instead to a nonce that is used by the lender or the borrower when they are first signing off-chain NFTfi orders. These nonce can be any uint256 value that the user has not previously used to sign an off-chain order. Each nonce can be used at most once peruser within NFTfi, regardless of whether they are the lender or the borrower in that situation. This serves two purposes: - First, it prevents replay attacks where an attacker would submit a user's off-chain order more than once. - Second, it allows a user to cancel an off-chain order by calling NFTfi.cancelLoanCommitmentBeforeLoanHasBegun() , which marks the nonce as used and prevents any future loan from using the user's off-chain order that contains that nonce. - expiry - The date when the renegotiation offer expires - lenderSignature - The ECDSA signature of the lender, obtained off-chain ahead of time, signing the following combination of parameters: - _loanId - _newLoanDuration - _newMaximumRepaymentAmount - _lender - _lenderNonce - _expiry  - loan contract address, - chainId"
        }
      },
      "isValidLenderSignature((uint256,uint256,uint256,address,uint32,uint16,address,address),(uint256,uint256,address,bytes),address)": {
        "params": {
          "_loanContract": "- Address of the loan contract where the signature is going to be used",
          "_offer": "- The offer struct containing: - loanERC20Denomination: The address of the ERC20 contract of the currency being used as principal/interest for this loan. - loanPrincipalAmount: The original sum of money transferred from lender to borrower at the beginning of the loan, measured in loanERC20Denomination's smallest units. - maximumRepaymentAmount: The maximum amount of money that the borrower would be required to retrieve their collateral, measured in the smallest units of the ERC20 currency used for the loan. The borrower will always have to pay this amount to retrieve their collateral, regardless of whether they repay early. - nftCollateralContract: The address of the ERC721 contract of the NFT collateral. - nftCollateralId: The ID within the NFTCollateralContract for the NFT being used as collateral for this loan. The NFT is stored within this contract during the duration of the loan. - referrer: The address of the referrer who found the lender matching the listing, Zero address to signal this there is no referrer. - loanDuration: The amount of time (measured in seconds) that can elapse before the lender can liquidate the loan and seize the underlying collateral NFT. - loanInterestRateForDurationInBasisPoints: This is the interest rate (measured in basis points, e.g. hundreths of a percent) for the loan, that must be repaid pro-rata by the borrower at the conclusion of the loan or risk seizure of their nft collateral. Note if the type of the loan is fixed then this value  is not used and is irrelevant so it should be set to 0. - loanAdminFeeInBasisPoints: The percent (measured in basis points) of the interest earned that will be taken as a fee by the contract admins when the loan is repaid. The fee is stored in the loan struct to prevent an attack where the contract admins could adjust the fee right before a loan is repaid, and take all of the interest earned.",
          "_signature": "- The signature structure containing: - signer: The address of the signer. The borrower for `acceptOffer` - nonce: The nonce referred here is not the same as an Ethereum account's nonce. We are referring instead to a nonce that is used by the lender or the borrower when they are first signing off-chain NFTfi orders. These nonce can be any uint256 value that the user has not previously used to sign an off-chain order. Each nonce can be used at most once peruser within NFTfi, regardless of whether they are the lender or the borrower in that situation. This serves two purposes:   - First, it prevents replay attacks where an attacker would submit a user's off-chain order more than once.   - Second, it allows a user to cancel an off-chain order by calling NFTfi.cancelLoanCommitmentBeforeLoanHasBegun(), which marks the nonce as used and prevents any future loan from using the user's off-chain order that contains that nonce. - expiry: Date when the signature expires - signature: The ECDSA signature of the lender, obtained off-chain ahead of time, signing the following combination of parameters:   - offer.loanERC20Denomination   - offer.loanPrincipalAmount   - offer.maximumRepaymentAmount   - offer.nftCollateralContract   - offer.nftCollateralId   - offer.referrer   - offer.loanDuration   - offer.loanAdminFeeInBasisPoints   - signature.signer,   - signature.nonce,   - signature.expiry,   - loan contract address,   - chainId"
        }
      }
    },
    "title": "NFTfiSigningUtilsContract",
    "version": 1
  },
  "userdoc": {
    "kind": "user",
    "methods": {
      "isValidLenderRenegotiationSignature(uint256,uint32,uint256,uint256,(uint256,uint256,address,bytes),address)": {
        "notice": "This function is called in renegotiateLoan() to validate the lender's signature that the lender provided off-chain to verify that they did indeed want to agree to this loan renegotiation according to these terms."
      },
      "isValidLenderSignature((uint256,uint256,uint256,address,uint32,uint16,address,address),(uint256,uint256,address,bytes),address)": {
        "notice": "This function is when the borrower accepts a lender's offer, to validate the lender's signature that the lender provided off-chain to verify that it did indeed made such offer."
      }
    },
    "notice": "Helper contract for NFTfi. This contract manages externally verifying signatures from off-chain NFTfi orders.",
    "version": 1
  },
  "storageLayout": {
    "storage": [],
    "types": null
  }
}