{
  "address": "0x675Ea7A7e895a12232B87691A5Cc61B20b2fC33B",
  "abi": [
    {
      "inputs": [
        {
          "internalType": "address",
          "name": "_nftfiHub",
          "type": "address"
        },
        {
          "internalType": "address",
          "name": "_loanContract",
          "type": "address"
        },
        {
          "internalType": "address",
          "name": "_admin",
          "type": "address"
        },
        {
          "internalType": "string[]",
          "name": "_definedRefinanceableTypes",
          "type": "string[]"
        },
        {
          "internalType": "address[]",
          "name": "_refinancingAdapters",
          "type": "address[]"
        },
        {
          "internalType": "string[]",
          "name": "_refinanceableTypes",
          "type": "string[]"
        },
        {
          "internalType": "address[]",
          "name": "_refinanceableContracts",
          "type": "address[]"
        },
        {
          "internalType": "address",
          "name": "_soloMargin",
          "type": "address"
        },
        {
          "internalType": "uint256",
          "name": "_flashloanFee",
          "type": "uint256"
        }
      ],
      "stateMutability": "nonpayable",
      "type": "constructor"
    },
    {
      "anonymous": false,
      "inputs": [
        {
          "indexed": true,
          "internalType": "address",
          "name": "refinanceableContract",
          "type": "address"
        },
        {
          "indexed": true,
          "internalType": "bytes32",
          "name": "refinanceableType",
          "type": "bytes32"
        }
      ],
      "name": "NewRefinanceableContract",
      "type": "event"
    },
    {
      "anonymous": false,
      "inputs": [
        {
          "indexed": true,
          "internalType": "address",
          "name": "previousOwner",
          "type": "address"
        },
        {
          "indexed": true,
          "internalType": "address",
          "name": "newOwner",
          "type": "address"
        }
      ],
      "name": "OwnershipTransferred",
      "type": "event"
    },
    {
      "anonymous": false,
      "inputs": [
        {
          "indexed": true,
          "internalType": "bytes32",
          "name": "refinanceableType",
          "type": "bytes32"
        },
        {
          "indexed": true,
          "internalType": "address",
          "name": "refinancingAdapter",
          "type": "address"
        }
      ],
      "name": "TypeUpdated",
      "type": "event"
    },
    {
      "inputs": [
        {
          "internalType": "address",
          "name": "",
          "type": "address"
        },
        {
          "components": [
            {
              "internalType": "address",
              "name": "owner",
              "type": "address"
            },
            {
              "internalType": "uint256",
              "name": "number",
              "type": "uint256"
            }
          ],
          "internalType": "struct IFlashloan.AccountInfo",
          "name": "",
          "type": "tuple"
        },
        {
          "internalType": "bytes",
          "name": "_data",
          "type": "bytes"
        }
      ],
      "name": "callFunction",
      "outputs": [],
      "stateMutability": "nonpayable",
      "type": "function"
    },
    {
      "inputs": [],
      "name": "flashloanFee",
      "outputs": [
        {
          "internalType": "uint256",
          "name": "",
          "type": "uint256"
        }
      ],
      "stateMutability": "view",
      "type": "function"
    },
    {
      "inputs": [
        {
          "internalType": "address",
          "name": "_refinanceableContract",
          "type": "address"
        }
      ],
      "name": "getRefinanceableContract",
      "outputs": [
        {
          "internalType": "bytes32",
          "name": "",
          "type": "bytes32"
        }
      ],
      "stateMutability": "view",
      "type": "function"
    },
    {
      "inputs": [
        {
          "internalType": "address",
          "name": "_refinanceableContract",
          "type": "address"
        }
      ],
      "name": "getRefinancingAdapter",
      "outputs": [
        {
          "internalType": "address",
          "name": "",
          "type": "address"
        }
      ],
      "stateMutability": "view",
      "type": "function"
    },
    {
      "inputs": [
        {
          "internalType": "bytes32",
          "name": "_refinanceableType",
          "type": "bytes32"
        }
      ],
      "name": "getRefinancingAdapterOfType",
      "outputs": [
        {
          "internalType": "address",
          "name": "",
          "type": "address"
        }
      ],
      "stateMutability": "view",
      "type": "function"
    },
    {
      "inputs": [],
      "name": "hub",
      "outputs": [
        {
          "internalType": "contract INftfiHub",
          "name": "",
          "type": "address"
        }
      ],
      "stateMutability": "view",
      "type": "function"
    },
    {
      "inputs": [],
      "name": "loadTokens",
      "outputs": [],
      "stateMutability": "nonpayable",
      "type": "function"
    },
    {
      "inputs": [],
      "name": "loanContract",
      "outputs": [
        {
          "internalType": "address",
          "name": "",
          "type": "address"
        }
      ],
      "stateMutability": "view",
      "type": "function"
    },
    {
      "inputs": [
        {
          "internalType": "address",
          "name": "",
          "type": "address"
        }
      ],
      "name": "marketIds",
      "outputs": [
        {
          "internalType": "uint256",
          "name": "",
          "type": "uint256"
        }
      ],
      "stateMutability": "view",
      "type": "function"
    },
    {
      "inputs": [
        {
          "internalType": "address",
          "name": "",
          "type": "address"
        },
        {
          "internalType": "address",
          "name": "",
          "type": "address"
        },
        {
          "internalType": "uint256[]",
          "name": "",
          "type": "uint256[]"
        },
        {
          "internalType": "uint256[]",
          "name": "",
          "type": "uint256[]"
        },
        {
          "internalType": "bytes",
          "name": "",
          "type": "bytes"
        }
      ],
      "name": "onERC1155BatchReceived",
      "outputs": [
        {
          "internalType": "bytes4",
          "name": "",
          "type": "bytes4"
        }
      ],
      "stateMutability": "nonpayable",
      "type": "function"
    },
    {
      "inputs": [
        {
          "internalType": "address",
          "name": "",
          "type": "address"
        },
        {
          "internalType": "address",
          "name": "",
          "type": "address"
        },
        {
          "internalType": "uint256",
          "name": "",
          "type": "uint256"
        },
        {
          "internalType": "uint256",
          "name": "",
          "type": "uint256"
        },
        {
          "internalType": "bytes",
          "name": "",
          "type": "bytes"
        }
      ],
      "name": "onERC1155Received",
      "outputs": [
        {
          "internalType": "bytes4",
          "name": "",
          "type": "bytes4"
        }
      ],
      "stateMutability": "nonpayable",
      "type": "function"
    },
    {
      "inputs": [
        {
          "internalType": "address",
          "name": "",
          "type": "address"
        },
        {
          "internalType": "address",
          "name": "",
          "type": "address"
        },
        {
          "internalType": "uint256",
          "name": "",
          "type": "uint256"
        },
        {
          "internalType": "bytes",
          "name": "",
          "type": "bytes"
        }
      ],
      "name": "onERC721Received",
      "outputs": [
        {
          "internalType": "bytes4",
          "name": "",
          "type": "bytes4"
        }
      ],
      "stateMutability": "nonpayable",
      "type": "function"
    },
    {
      "inputs": [],
      "name": "owner",
      "outputs": [
        {
          "internalType": "address",
          "name": "",
          "type": "address"
        }
      ],
      "stateMutability": "view",
      "type": "function"
    },
    {
      "inputs": [
        {
          "components": [
            {
              "internalType": "uint256",
              "name": "loanIdentifier",
              "type": "uint256"
            },
            {
              "internalType": "address",
              "name": "refinanceableContract",
              "type": "address"
            }
          ],
          "internalType": "struct Refinancing.RefinancingData",
          "name": "_refinancingData",
          "type": "tuple"
        },
        {
          "components": [
            {
              "internalType": "uint256",
              "name": "loanPrincipalAmount",
              "type": "uint256"
            },
            {
              "internalType": "uint256",
              "name": "maximumRepaymentAmount",
              "type": "uint256"
            },
            {
              "internalType": "uint256",
              "name": "nftCollateralId",
              "type": "uint256"
            },
            {
              "internalType": "address",
              "name": "nftCollateralContract",
              "type": "address"
            },
            {
              "internalType": "uint32",
              "name": "loanDuration",
              "type": "uint32"
            },
            {
              "internalType": "uint16",
              "name": "loanAdminFeeInBasisPoints",
              "type": "uint16"
            },
            {
              "internalType": "address",
              "name": "loanERC20Denomination",
              "type": "address"
            },
            {
              "internalType": "address",
              "name": "referrer",
              "type": "address"
            }
          ],
          "internalType": "struct LoanData.Offer",
          "name": "_offer",
          "type": "tuple"
        },
        {
          "components": [
            {
              "internalType": "uint256",
              "name": "nonce",
              "type": "uint256"
            },
            {
              "internalType": "uint256",
              "name": "expiry",
              "type": "uint256"
            },
            {
              "internalType": "address",
              "name": "signer",
              "type": "address"
            },
            {
              "internalType": "bytes",
              "name": "signature",
              "type": "bytes"
            }
          ],
          "internalType": "struct LoanData.Signature",
          "name": "_lenderSignature",
          "type": "tuple"
        },
        {
          "components": [
            {
              "internalType": "address",
              "name": "revenueSharePartner",
              "type": "address"
            },
            {
              "internalType": "uint16",
              "name": "referralFeeInBasisPoints",
              "type": "uint16"
            }
          ],
          "internalType": "struct LoanData.BorrowerSettings",
          "name": "_borrowerSettings",
          "type": "tuple"
        }
      ],
      "name": "refinance",
      "outputs": [],
      "stateMutability": "nonpayable",
      "type": "function"
    },
    {
      "inputs": [
        {
          "internalType": "address",
          "name": "_refinanceableContract",
          "type": "address"
        },
        {
          "internalType": "string",
          "name": "_refinanceableType",
          "type": "string"
        }
      ],
      "name": "setRefinanceableContract",
      "outputs": [],
      "stateMutability": "nonpayable",
      "type": "function"
    },
    {
      "inputs": [
        {
          "internalType": "address[]",
          "name": "_refinanceableContracts",
          "type": "address[]"
        },
        {
          "internalType": "string[]",
          "name": "_refinanceableTypes",
          "type": "string[]"
        }
      ],
      "name": "setRefinanceableContracts",
      "outputs": [],
      "stateMutability": "nonpayable",
      "type": "function"
    },
    {
      "inputs": [
        {
          "internalType": "string",
          "name": "_refinanceableType",
          "type": "string"
        },
        {
          "internalType": "address",
          "name": "_refinancingAdapter",
          "type": "address"
        }
      ],
      "name": "setRefinanceableType",
      "outputs": [],
      "stateMutability": "nonpayable",
      "type": "function"
    },
    {
      "inputs": [
        {
          "internalType": "string[]",
          "name": "_refinanceableTypes",
          "type": "string[]"
        },
        {
          "internalType": "address[]",
          "name": "_refinancingAdapters",
          "type": "address[]"
        }
      ],
      "name": "setRefinanceableTypes",
      "outputs": [],
      "stateMutability": "nonpayable",
      "type": "function"
    },
    {
      "inputs": [],
      "name": "soloMargin",
      "outputs": [
        {
          "internalType": "contract ISoloMargin",
          "name": "",
          "type": "address"
        }
      ],
      "stateMutability": "view",
      "type": "function"
    },
    {
      "inputs": [
        {
          "internalType": "bytes4",
          "name": "_interfaceId",
          "type": "bytes4"
        }
      ],
      "name": "supportsInterface",
      "outputs": [
        {
          "internalType": "bool",
          "name": "",
          "type": "bool"
        }
      ],
      "stateMutability": "view",
      "type": "function"
    },
    {
      "inputs": [
        {
          "internalType": "address",
          "name": "",
          "type": "address"
        }
      ],
      "name": "tokenFlashloanble",
      "outputs": [
        {
          "internalType": "bool",
          "name": "",
          "type": "bool"
        }
      ],
      "stateMutability": "view",
      "type": "function"
    },
    {
      "inputs": [
        {
          "internalType": "address",
          "name": "_newOwner",
          "type": "address"
        }
      ],
      "name": "transferOwnership",
      "outputs": [],
      "stateMutability": "nonpayable",
      "type": "function"
    }
  ],
  "transactionHash": "0xc4c45916a7a38e0fc6ed1fd31a718c271d71b35ed769f08ae5e4063bef22297a",
  "args": [
    "0xBD2cc314A2FCB8C0313641120Faf027d30DE5eA2",
    "0x889d2b579d356cAe709422F3DDC7D2e61902917e",
    "0x42e0911810C50FF07B12305365495aeb0b2b4f93",
    [
      "NFTFI"
    ],
    [
      "0x50b3aD64A61983e92aB13822E9722c936DD9Ce96"
    ],
    [
      "NFTFI",
      "NFTFI"
    ],
    [
      "0x889d2b579d356cAe709422F3DDC7D2e61902917e",
      "0x95886C853bc4dc056bbefA642D3E443bBB552a69"
    ],
    "0x0000000000000000000000000000000000000000",
    0
  ],
  "numDeployments": 1,
  "solcInputHash": "54de0b2a48f04d02d32721198484cdf8",
  "bytecode": "0x60c06040523480156200001157600080fd5b50604051620039e7380380620039e78339810160408190526200003491620008a5565b81818888888888846200004781620000db565b506200005484846200012b565b62000060818362000231565b5050506001600160601b0319606085901b16608052505060058190556001600160a01b03821615620000975762000097826200032e565b505050505060609590951b6001600160601b03191660a0525050600680546001600160a01b0319166001600160a01b0393909316929092179091555062000ac79050565b600080546001600160a01b038381166001600160a01b0319831681178455604051919092169283917f8be0079c531659141344cd1fd0a4f28419497f9722a3daafe3b4186f6b6457e09190a35050565b8051825114620001a85760405162461bcd60e51b815260206004820152603960248201527f736574526566696e616e636561626c6554797065732066756e6374696f6e206960448201527f6e666f726d6174696f6e206172697479206d69736d617463680000000000000060648201526084015b60405180910390fd5b60005b81518110156200022c5762000217838281518110620001da57634e487b7160e01b600052603260045260246000fd5b60200260200101518383815181106200020357634e487b7160e01b600052603260045260246000fd5b60200260200101516200040060201b60201c565b80620002238162000a89565b915050620001ab565b505050565b8051825114620002aa5760405162461bcd60e51b815260206004820152603d60248201527f736574526566696e616e636561626c65436f6e7472616374732066756e63746960448201527f6f6e20696e666f726d6174696f6e206172697479206d69736d6174636800000060648201526084016200019f565b60005b82518110156200022c5762000319838281518110620002dc57634e487b7160e01b600052603260045260246000fd5b60200260200101518383815181106200030557634e487b7160e01b600052603260045260246000fd5b60200260200101516200053b60201b60201c565b80620003258162000a89565b915050620002ad565b60005b60038111620003fc5760405163062bd3e960e01b8152600481018290526000906001600160a01b0384169063062bd3e99060240160206040518083038186803b1580156200037e57600080fd5b505afa15801562000393573d6000803e3d6000fd5b505050506040513d601f19601f82011682018060405250810190620003b9919062000881565b6001600160a01b03166000908152600360209081526040808320805460ff191660011790556004909152902082905550620003f48162000a89565b905062000331565b5050565b8151620004505760405162461bcd60e51b815260206004820152601a60248201527f726566696e616e636561626c655479706520697320656d70747900000000000060448201526064016200019f565b60405163f99a8ffb60e01b815260009073d3D0E26010ABeF694F4074ca39E88c5d6dEd70C19063f99a8ffb906200048c908690600401620009c8565b60206040518083038186803b158015620004a557600080fd5b505af4158015620004ba573d6000803e3d6000fd5b505050506040513d601f19601f82011682018060405250810190620004e09190620009af565b60008181526001602052604080822080546001600160a01b0319166001600160a01b03871690811790915590519293509183917f22be69269c1f7d73e73dcb25b710dd88c7aa1cf374c16d945def98df2107c2f891a3505050565b6001600160a01b038216620005a15760405162461bcd60e51b815260206004820152602560248201527f726566696e616e636561626c65436f6e7472616374206973207a65726f206164604482015264647265737360d81b60648201526084016200019f565b60405163f99a8ffb60e01b815260009073d3D0E26010ABeF694F4074ca39E88c5d6dEd70C19063f99a8ffb90620005dd908590600401620009c8565b60206040518083038186803b158015620005f657600080fd5b505af41580156200060b573d6000803e3d6000fd5b505050506040513d601f19601f82011682018060405250810190620006319190620009af565b90508015620006aa576000818152600160205260409020546001600160a01b0316620006aa5760405162461bcd60e51b815260206004820152602160248201527f726566696e616e636561626c652074797065206e6f74207265676973746572656044820152601960fa1b60648201526084016200019f565b6001600160a01b038316600081815260026020526040808220849055518392917fbc1ee51e22f75dc0717328a68abc443efc99d36fc942fc68f0a18bfffa67270191a3505050565b80516001600160a01b03811681146200070a57600080fd5b919050565b600082601f83011262000720578081fd5b8151602062000739620007338362000a30565b620009fd565b80838252828201915082860187848660051b890101111562000759578586fd5b855b8581101562000782576200076f82620006f2565b845292840192908401906001016200075b565b5090979650505050505050565b6000601f8381840112620007a1578182fd5b82516020620007b4620007338362000a30565b80838252828201915082870188848660051b8a01011115620007d4578687fd5b865b85811015620008735781516001600160401b0380821115620007f657898afd5b818b0191508b603f8301126200080a57898afd5b8682015160408282111562000823576200082362000ab1565b62000836828c01601f19168a01620009fd565b92508183528d818386010111156200084c578b8cfd5b6200085d828a850183870162000a56565b50508552509284019290840190600101620007d6565b509098975050505050505050565b60006020828403121562000893578081fd5b6200089e82620006f2565b9392505050565b60008060008060008060008060006101208a8c031215620008c4578485fd5b620008cf8a620006f2565b9850620008df60208b01620006f2565b9750620008ef60408b01620006f2565b60608b01519097506001600160401b03808211156200090c578687fd5b6200091a8d838e016200078f565b975060808c015191508082111562000930578687fd5b6200093e8d838e016200070f565b965060a08c015191508082111562000954578586fd5b620009628d838e016200078f565b955060c08c015191508082111562000978578485fd5b50620009878c828d016200070f565b9350506200099860e08b01620006f2565b91506101008a015190509295985092959850929598565b600060208284031215620009c1578081fd5b5051919050565b6020815260008251806020840152620009e981604085016020870162000a56565b601f01601f19169190910160400192915050565b604051601f8201601f191681016001600160401b038111828210171562000a285762000a2862000ab1565b604052919050565b60006001600160401b0382111562000a4c5762000a4c62000ab1565b5060051b60200190565b60005b8381101562000a7357818101518382015260200162000a59565b8381111562000a83576000848401525b50505050565b600060001982141562000aaa57634e487b7160e01b81526011600452602481fd5b5060010190565b634e487b7160e01b600052604160045260246000fd5b60805160601c60a05160601c612edf62000b08600039600061025101526000818161017401528181610b9e0152818161182a01526119690152612edf6000f3fe608060405234801561001057600080fd5b50600436106101425760003560e01c80638b418713116100b8578063e090c76f1161007c578063e090c76f14610306578063e7ded90214610326578063edddad6c14610339578063f23a6e611461034c578063f2fde38b1461036c578063f5a120421461037f57600080fd5b80638b418713146102b25780638da5cb5b146102c5578063bc197c81146102cd578063c00358f2146102e0578063d7063706146102f357600080fd5b80632b4c58591161010a5780632b4c5859146102245780633424752a14610239578063365a86fc1461024c5780633d2d5374146102735780635ba0f6e81461029657806364169d411461029f57600080fd5b806301ffc9a714610147578063134f6d3a1461016f578063150b7a02146101ae578063253f284b146101da5780632aacd1c1146101ed575b600080fd5b61015a61015536600461273d565b610387565b60405190151581526020015b60405180910390f35b6101967f000000000000000000000000000000000000000000000000000000000000000081565b6040516001600160a01b039091168152602001610166565b6101c16101bc36600461248c565b6103d9565b6040516001600160e01b03199091168152602001610166565b600654610196906001600160a01b031681565b6102166101fb3660046122a2565b6001600160a01b031660009081526002602052604090205490565b604051908152602001610166565b610237610232366004612641565b6103ea565b005b610237610247366004612765565b610430565b6101967f000000000000000000000000000000000000000000000000000000000000000081565b61015a6102813660046122a2565b60036020526000908152604090205460ff1681565b61021660055481565b6101966102ad36600461270d565b610469565b6102376102c03660046125bb565b610484565b6101966104cc565b6101c16102db3660046123d2565b6104db565b6102376102ee36600461256e565b610526565b610237610301366004612832565b61055f565b6102166103143660046122a2565b60046020526000908152604090205481565b6101966103343660046122a2565b610a97565b610237610347366004612697565b610ac0565b6101c161035a3660046124f5565b63f23a6e6160e01b9695505050505050565b61023761037a3660046122a2565b610af9565b610237610b99565b60006001600160e01b03198216630271189760e51b14806103b857506001600160e01b03198216630a85bd0160e11b145b806103d357506001600160e01b031982166301ffc9a760e01b145b92915050565b630a85bd0160e11b5b949350505050565b336103f36104cc565b6001600160a01b0316146104225760405162461bcd60e51b815260040161041990612c6c565b60405180910390fd5b61042c8282610bc4565b5050565b336104396104cc565b6001600160a01b03161461045f5760405162461bcd60e51b815260040161041990612c6c565b61042c8282610cb6565b6000908152600160205260409020546001600160a01b031690565b6000806000806000806000878060200190518101906104a391906122da565b96509650965096509650965096506104c087878787878787610de9565b50505050505050505050565b6000546001600160a01b031690565b60405162461bcd60e51b815260206004820152601b60248201527f45524331313535206261746368206e6f7420737570706f7274656400000000006044820152600090606401610419565b3361052f6104cc565b6001600160a01b0316146105555760405162461bcd60e51b815260040161041990612c6c565b61042c8282611179565b600061056e8560200151610a97565b905060006105858287602001518860000151611323565b90506001600160a01b038116156105f3576001600160a01b03811633146105ee5760405162461bcd60e51b815260206004820152601e60248201527f68617320746f20626520626f72726f776572206f66206f6c64206c6f616e00006044820152606401610419565b6105f6565b50335b60008061060c8489602001518a600001516113cd565b915091506106238489602001518a6000015161147b565b6106328383838b8b8b8b61150e565b6040516370a0823160e01b81523060048201526000906001600160a01b038416906370a082319060240160206040518083038186803b15801561067457600080fd5b505afa158015610688573d6000803e3d6000fd5b505050506040513d601f19601f820116820180604052508101906106ac9190612725565b905080156107365760405163a9059cbb60e01b81526001600160a01b0384169063a9059cbb906106e29087908590600401612b10565b602060405180830381600087803b1580156106fc57600080fd5b505af1158015610710573d6000803e3d6000fd5b505050506040513d601f19601f8201168201806040525081019061073491906126ed565b505b600654604051635e72172160e11b8152600160a01b820463ffffffff1660048201526001600160a01b039091169063bce42e4290602401600060405180830381600087803b15801561078757600080fd5b505af115801561079b573d6000803e3d6000fd5b505060065460408051630d96a1bf60e21b815290516001600160a01b03909216935060009250839163365a86fc91600480820192602092909190829003018186803b1580156107e957600080fd5b505afa1580156107fd573d6000803e3d6000fd5b505050506040513d601f19601f8201168201806040525081019061082191906122be565b6001600160a01b031663e16c7d98836001600160a01b03166377cfa9916040518163ffffffff1660e01b815260040160206040518083038186803b15801561086857600080fd5b505afa15801561087c573d6000803e3d6000fd5b505050506040513d601f19601f820116820180604052508101906108a09190612725565b6040518263ffffffff1660e01b81526004016108be91815260200190565b60206040518083038186803b1580156108d657600080fd5b505afa1580156108ea573d6000803e3d6000fd5b505050506040513d601f19601f8201168201806040525081019061090e91906122be565b60065460405163e6c5a54160e01b8152600160a01b90910463ffffffff1660048201529091506000906001600160a01b0383169063e6c5a5419060240160606040518083038186803b15801561096357600080fd5b505afa158015610977573d6000803e3d6000fd5b505050506040513d601f19601f8201168201806040525081019061099b91906127b4565b6020015190506000826001600160a01b0316638208e76c6040518163ffffffff1660e01b815260040160206040518083038186803b1580156109dc57600080fd5b505afa1580156109f0573d6000803e3d6000fd5b505050506040513d601f19601f82011682018060405250810190610a1491906122be565b6040516323b872dd60e01b81523060048201526001600160a01b038a811660248301526001600160401b0385166044830152919250908216906323b872dd90606401600060405180830381600087803b158015610a7057600080fd5b505af1158015610a84573d6000803e3d6000fd5b5050505050505050505050505050505050565b6001600160a01b038116600090815260026020526040812054610ab981610469565b9392505050565b33610ac96104cc565b6001600160a01b031614610aef5760405162461bcd60e51b815260040161041990612c6c565b61042c82826119de565b33610b026104cc565b6001600160a01b031614610b285760405162461bcd60e51b815260040161041990612c6c565b6001600160a01b038116610b8d5760405162461bcd60e51b815260206004820152602660248201527f4f776e61626c653a206e6577206f776e657220697320746865207a65726f206160448201526564647265737360d01b6064820152608401610419565b610b9681611ac7565b50565b610bc27f0000000000000000000000000000000000000000000000000000000000000000611b17565b565b8051825114610c3b5760405162461bcd60e51b815260206004820152603d60248201527f736574526566696e616e636561626c65436f6e7472616374732066756e63746960448201527f6f6e20696e666f726d6174696f6e206172697479206d69736d617463680000006064820152608401610419565b60005b8251811015610cb157610c9f838281518110610c6a57634e487b7160e01b600052603260045260246000fd5b6020026020010151838381518110610c9257634e487b7160e01b600052603260045260246000fd5b6020026020010151611179565b80610ca981612e2e565b915050610c3e565b505050565b8151610d045760405162461bcd60e51b815260206004820152601a60248201527f726566696e616e636561626c655479706520697320656d7074790000000000006044820152606401610419565b60405163f99a8ffb60e01b815260009073d3D0E26010ABeF694F4074ca39E88c5d6dEd70C19063f99a8ffb90610d3e908690600401612c59565b60206040518083038186803b158015610d5657600080fd5b505af4158015610d6a573d6000803e3d6000fd5b505050506040513d601f19601f82011682018060405250810190610d8e9190612725565b60008181526001602052604080822080546001600160a01b0319166001600160a01b03871690811790915590519293509183917f22be69269c1f7d73e73dcb25b710dd88c7aa1cf374c16d945def98df2107c2f891a3505050565b6000610df88560200151610a97565b9050600080610e1083886020015189600001516113cd565b91509150610e2983886020015189600001518585611bdd565b600080610e3f858a602001518b60000151611c6c565b6040516331a9108f60e11b81526004810182905291935091506001600160a01b03831690636352211e9060240160206040518083038186803b158015610e8457600080fd5b505afa158015610e98573d6000803e3d6000fd5b505050506040513d601f19601f82011682018060405250810190610ebc91906122be565b6001600160a01b0316306001600160a01b031614610f135760405162461bcd60e51b815260206004820152601460248201527318dbdb1b185d195c985b081b9bdd081bdddb995960621b6044820152606401610419565b8751600554610f22908c612dd3565b1115610fd457875160055460009190610f3b908d612dd3565b610f459190612deb565b6040516323b872dd60e01b81526001600160a01b038f8116600483015230602483015260448201839052919250908d16906323b872dd90606401602060405180830381600087803b158015610f9957600080fd5b505af1158015610fad573d6000803e3d6000fd5b505050506040513d601f19601f82011682018060405250810190610fd191906126ed565b50505b60c0880151600654895160405163095ea7b360e01b81526001600160a01b039384169363095ea7b39361100c93911691600401612b10565b602060405180830381600087803b15801561102657600080fd5b505af115801561103a573d6000803e3d6000fd5b505050506040513d601f19601f8201168201806040525081019061105e91906126ed565b5060065460405163095ea7b360e01b81526001600160a01b038481169263095ea7b39261109392909116908590600401612b10565b600060405180830381600087803b1580156110ad57600080fd5b505af11580156110c1573d6000803e3d6000fd5b50506006546040516315bbfa6360e21b81526001600160a01b0390911692506356efe98c91506110f9908b908b908b90600401612ca1565b602060405180830381600087803b15801561111357600080fd5b505af1158015611127573d6000803e3d6000fd5b505050506040513d601f19601f8201168201806040525081019061114b9190612948565b600660146101000a81548163ffffffff021916908363ffffffff160217905550505050505050505050505050565b6001600160a01b0382166111dd5760405162461bcd60e51b815260206004820152602560248201527f726566696e616e636561626c65436f6e7472616374206973207a65726f206164604482015264647265737360d81b6064820152608401610419565b60405163f99a8ffb60e01b815260009073d3D0E26010ABeF694F4074ca39E88c5d6dEd70C19063f99a8ffb90611217908590600401612c59565b60206040518083038186803b15801561122f57600080fd5b505af4158015611243573d6000803e3d6000fd5b505050506040513d601f19601f820116820180604052508101906112679190612725565b905080156112db57600061127a82610469565b6001600160a01b031614156112db5760405162461bcd60e51b815260206004820152602160248201527f726566696e616e636561626c652074797065206e6f74207265676973746572656044820152601960fa1b6064820152608401610419565b6001600160a01b038316600081815260026020526040808220849055518392917fbc1ee51e22f75dc0717328a68abc443efc99d36fc942fc68f0a18bfffa67270191a3505050565b6000806113ae85637da9f01860e01b8686604051602401611345929190612b10565b604051602081830303815290604052906001600160e01b0319166020820180516001600160e01b0383818316178352505050506040518060400160405280601881526020017733b2ba2137b93937bbb2b920b2323932b9b99032b93937b960411b815250611cf0565b9050808060200190518101906113c491906122be565b95945050505050565b6000806000611458866310b29fee60e01b87876040516024016113f1929190612b10565b604051602081830303815290604052906001600160e01b0319166020820180516001600160e01b0383818316178352505050506040518060400160405280601681526020017533b2ba2830bcb7b3332232ba30b4b6399032b93937b960511b815250611cf0565b90508080602001905181019061146e91906123a5565b9250925050935093915050565b6115088363a4d160e360e01b848460405160240161149a929190612b10565b604051602081830303815290604052906001600160e01b0319166020820180516001600160e01b0383818316178352505050506040518060400160405280601a81526020017f7472616e73666572426f72726f776572526f6c65206572726f72000000000000815250611cf0565b50505050565b6001600160a01b03861660009081526003602052604090205460ff1661156f5760405162461bcd60e51b8152602060048201526016602482015275373790333630b9b43637b0b7103337b9103a37b5b2b760511b6044820152606401610419565b6001600160a01b038616600090815260046020526040808220548151600380825260808201909352909291816020015b6115a7611e06565b81526020019060019003908161159f575050604080516101008101825260018152600060208083018290528351608081018552828152949550919392840192918201908152602001600081526020018a815250815260200183815260200160008152602001306001600160a01b0316815260200160008152602001604051806020016040528060008152508152508160008151811061165657634e487b7160e01b600052603260045260246000fd5b60209081029190910101526040805161010081019091528060088152602001600081526020016040518060800160405280600015158152602001600060018111156116b157634e487b7160e01b600052602160045260246000fd5b8152602001600081526020016000815250815260200183815260200160008152602001306001600160a01b03168152602001600081526020018a8a8a8a8a8a8a6040516020016117079796959493929190612a86565b6040516020818303038152906040528152508160018151811061173a57634e487b7160e01b600052603260045260246000fd5b602090810291909101015260408051610100810190915280600081526020016000815260200160405180608001604052806001151581526020016000600181111561179557634e487b7160e01b600052602160045260246000fd5b8152602001600081526020016005548b6117af9190612dd3565b815250815260200183815260200160008152602001306001600160a01b0316815260200160008152602001604051806020016040528060008152508152508160028151811061180e57634e487b7160e01b600052603260045260246000fd5b6020026020010181905250876001600160a01b031663095ea7b37f00000000000000000000000000000000000000000000000000000000000000006005548a6118579190612dd3565b6040518363ffffffff1660e01b8152600401611874929190612b10565b602060405180830381600087803b15801561188e57600080fd5b505af11580156118a2573d6000803e3d6000fd5b505050506040513d601f19601f820116820180604052508101906118c691906126ed565b50604080516001808252818301909252600091816020015b60408051808201909152600080825260208201528152602001906001900390816118de5790505090506040518060400160405280306001600160a01b0316815260200160018152508160008151811061194757634e487b7160e01b600052603260045260246000fd5b602090810291909101015260405163a67a6a4560e01b81526001600160a01b037f0000000000000000000000000000000000000000000000000000000000000000169063a67a6a45906119a09084908690600401612b29565b600060405180830381600087803b1580156119ba57600080fd5b505af11580156119ce573d6000803e3d6000fd5b5050505050505050505050505050565b8051825114611a515760405162461bcd60e51b815260206004820152603960248201527f736574526566696e616e636561626c6554797065732066756e6374696f6e20696044820152780dcccdee4dac2e8d2dedc40c2e4d2e8f240dad2e6dac2e8c6d603b1b6064820152608401610419565b60005b8151811015610cb157611ab5838281518110611a8057634e487b7160e01b600052603260045260246000fd5b6020026020010151838381518110611aa857634e487b7160e01b600052603260045260246000fd5b6020026020010151610cb6565b80611abf81612e2e565b915050611a54565b600080546001600160a01b038381166001600160a01b0319831681178455604051919092169283917f8be0079c531659141344cd1fd0a4f28419497f9722a3daafe3b4186f6b6457e09190a35050565b60005b6003811161042c5760405163062bd3e960e01b8152600481018290526000906001600160a01b0384169063062bd3e99060240160206040518083038186803b158015611b6557600080fd5b505afa158015611b79573d6000803e3d6000fd5b505050506040513d601f19601f82011682018060405250810190611b9d91906122be565b6001600160a01b03166000908152600360209081526040808320805460ff191660011790556004909152902082905550611bd681612e2e565b9050611b1a565b604080516001600160a01b038681166024830152604482018690528416606482015260848082018490528251808303909101815260a49091018252602080820180516001600160e01b031663235fc9e160e21b179052825180840190935260118352703830bca130b1b5b637b0b71032b93937b960791b90830152611c6491879190611cf0565b505050505050565b6000806000611458866358024fce60e01b8787604051602401611c90929190612b10565b604051602081830303815290604052906001600160e01b0319166020820180516001600160e01b0383818316178352505050506040518060400160405280601381526020017233b2ba21b7b63630ba32b930b61032b93937b960691b8152505b60606001600160a01b0384163b611d585760405162461bcd60e51b815260206004820152602660248201527f416464726573733a2064656c65676174652063616c6c20746f206e6f6e2d636f6044820152651b9d1c9858dd60d21b6064820152608401610419565b600080856001600160a01b031685604051611d739190612a6a565b600060405180830381855af49150503d8060008114611dae576040519150601f19603f3d011682016040523d82523d6000602084013e611db3565b606091505b5091509150611dc3828286611dcd565b9695505050505050565b60608315611ddc575081610ab9565b825115611dec5782518084602001fd5b8160405162461bcd60e51b81526004016104199190612c59565b604080516101008101825260008082526020820152908101611e4a604080516080810190915260008082526020820190815260200160008152602001600081525090565b8152602001600081526020016000815260200160006001600160a01b0316815260200160008152602001606081525090565b8035611e8781612e9b565b919050565b8051611e8781612e9b565b600082601f830112611ea7578081fd5b81356020611ebc611eb783612d89565b612d59565b80838252828201915082860187848660051b8901011115611edb578586fd5b855b85811015611f02578135611ef081612e9b565b84529284019290840190600101611edd565b5090979650505050505050565b600082601f830112611f1f578081fd5b81356020611f2f611eb783612d89565b80838252828201915082860187848660051b8901011115611f4e578586fd5b855b85811015611f025781356001600160401b03811115611f6d578788fd5b611f7b8a87838c0101612016565b8552509284019290840190600101611f50565b60008083601f840112611f9f578182fd5b5081356001600160401b03811115611fb5578182fd5b6020830191508360208260051b8501011115611fd057600080fd5b9250929050565b60008083601f840112611fe8578182fd5b5081356001600160401b03811115611ffe578182fd5b602083019150836020828501011115611fd057600080fd5b600082601f830112612026578081fd5b8135612034611eb782612dac565b818152846020838601011115612048578283fd5b816020850160208301379081016020019190915292915050565b600060408284031215612073578081fd5b61207b612cec565b9050813561208881612e9b565b8152602082013561209881612eb0565b602082015292915050565b6000604082840312156120b4578081fd5b6120bc612cec565b905081516120c981612e9b565b8152602082015161209881612eb0565b600061010082840312156120eb578081fd5b6120f3612d14565b9050815181526020820151602082015260408201516040820152606082015161211b81612e9b565b6060820152608082015161212e81612ec0565b608082015261213f60a0830161228c565b60a082015261215060c08301611e8c565b60c082015261216160e08301611e8c565b60e082015292915050565b60006080828403121561217d578081fd5b612185612d37565b9050813581526020820135602082015260408201356121a381612e9b565b604082015260608201356001600160401b038111156121c157600080fd5b6121cd84828501612016565b60608301525092915050565b6000608082840312156121ea578081fd5b6121f2612d37565b90508151815260208201516020820152604082015161221081612e9b565b604082015260608201516001600160401b0381111561222e57600080fd5b8201601f8101841361223f57600080fd5b805161224d611eb782612dac565b81815285602083850101111561226257600080fd5b612273826020830160208601612e02565b606084015250909392505050565b8035611e8781612eb0565b8051611e8781612eb0565b8035611e8781612ec0565b6000602082840312156122b3578081fd5b8135610ab981612e9b565b6000602082840312156122cf578081fd5b8151610ab981612e9b565b60008060008060008060008789036102008112156122f6578384fd5b885161230181612e9b565b60208a015190985061231281612e9b565b60408a810151919850909650605f198201121561232d578384fd5b50612336612cec565b60608901518152608089015161234b81612e9b565b6020820152935061235f8960a08a016120d9565b92506101a08801516001600160401b0381111561237a578283fd5b6123868a828b016121d9565b925050612397896101c08a016120a3565b905092959891949750929550565b600080604083850312156123b7578182fd5b82516123c281612e9b565b6020939093015192949293505050565b60008060008060008060008060a0898b0312156123ed578182fd5b88356123f881612e9b565b9750602089013561240881612e9b565b965060408901356001600160401b0380821115612423578384fd5b61242f8c838d01611f8e565b909850965060608b0135915080821115612447578384fd5b6124538c838d01611f8e565b909650945060808b013591508082111561246b578384fd5b506124788b828c01611fd7565b999c989b5096995094979396929594505050565b600080600080608085870312156124a1578182fd5b84356124ac81612e9b565b935060208501356124bc81612e9b565b92506040850135915060608501356001600160401b038111156124dd578182fd5b6124e987828801612016565b91505092959194509250565b60008060008060008060a0878903121561250d578384fd5b863561251881612e9b565b9550602087013561252881612e9b565b9450604087013593506060870135925060808701356001600160401b03811115612550578283fd5b61255c89828a01611fd7565b979a9699509497509295939492505050565b60008060408385031215612580578182fd5b823561258b81612e9b565b915060208301356001600160401b038111156125a5578182fd5b6125b185828601612016565b9150509250929050565b600080600083850360808112156125d0578182fd5b84356125db81612e9b565b93506040601f19820112156125ee578182fd5b506125f7612cec565b602085013561260581612e9b565b815260408501356020820152915060608401356001600160401b0381111561262b578182fd5b61263786828701612016565b9150509250925092565b60008060408385031215612653578182fd5b82356001600160401b0380821115612669578384fd5b61267586838701611e97565b9350602085013591508082111561268a578283fd5b506125b185828601611f0f565b600080604083850312156126a9578182fd5b82356001600160401b03808211156126bf578384fd5b6126cb86838701611f0f565b935060208501359150808211156126e0578283fd5b506125b185828601611e97565b6000602082840312156126fe578081fd5b81518015158114610ab9578182fd5b60006020828403121561271e578081fd5b5035919050565b600060208284031215612736578081fd5b5051919050565b60006020828403121561274e578081fd5b81356001600160e01b031981168114610ab9578182fd5b60008060408385031215612777578182fd5b82356001600160401b0381111561278c578283fd5b61279885828601612016565b92505060208301356127a981612e9b565b809150509250929050565b6000606082840312156127c5578081fd5b604051606081016001600160401b0382821081831117156127e8576127e8612e75565b81604052845191506127f982612e9b565b908252602084015190808216821461280f578384fd5b506020820152604083015160048110612826578283fd5b60408201529392505050565b6000806000808486036101a0811215612849578283fd5b6040811215612856578283fd5b61285e612cec565b86358152602087013561287081612e9b565b60208201529450610100603f19820181131561288a578384fd5b612892612d14565b91506040870135825260608701356020830152608087013560408301526128bb60a08801611e7c565b60608301526128cc60c08801612297565b60808301526128dd60e08801612281565b60a08301526128ed818801611e7c565b60c0830152506129006101208701611e7c565b60e082015292506101408501356001600160401b03811115612920578283fd5b61292c8782880161216c565b92505061293d866101608701612062565b905092959194509250565b600060208284031215612959578081fd5b8151610ab981612ec0565b6000815180845261297c816020860160208601612e02565b601f01601f19169290920160200192915050565b80511515825260208101516129a481612e8b565b602083015260408101516129b781612e8b565b6040830152606090810151910152565b805182526020810151602083015260408101516040830152606081015160018060a01b03808216606085015263ffffffff608084015116608085015261ffff60a08401511660a08501528060c08401511660c08501528060e08401511660e085015250505050565b805182526020810151602083015260018060a01b03604082015116604083015260006060820151608060608501526103e26080850182612964565b60008251612a7c818460208701612e02565b9190910192915050565b6001600160a01b03888116825287811660208084019190915260408301889052865160608401528601511660808201526000610200612ac860a08401876129c7565b806101a0840152612adb81840186612a2f565b84516001600160a01b03166101c0850152602085015161ffff166101e08501529150612b049050565b98975050505050505050565b6001600160a01b03929092168252602082015260400190565b6040808252835182820181905260009190606090818501906020808901865b83811015612b7657815180516001600160a01b03168652830151838601529386019390820190600101612b48565b50508683038188015287518084528184019250600581901b84018201898301885b83811015612c4857601f198784030186528151610160815160098110612bbf57612bbf612e5f565b855281870151878601528a820151612bd98c870182612990565b508982015160c081818801526080840151915060e0828189015260a08501519250612c106101008901846001600160a01b03169052565b908401516101208801529092015161014086018290529150612c3481860183612964565b978701979450505090840190600101612b97565b50909b9a5050505050505050505050565b602081526000610ab96020830184612964565b6020808252818101527f4f776e61626c653a2063616c6c6572206973206e6f7420746865206f776e6572604082015260600190565b6000610160612cb083876129c7565b80610100840152612cc381840186612a2f565b84516001600160a01b0316610120850152602085015161ffff1661014085015291506103e29050565b604080519081016001600160401b0381118282101715612d0e57612d0e612e75565b60405290565b60405161010081016001600160401b0381118282101715612d0e57612d0e612e75565b604051608081016001600160401b0381118282101715612d0e57612d0e612e75565b604051601f8201601f191681016001600160401b0381118282101715612d8157612d81612e75565b604052919050565b60006001600160401b03821115612da257612da2612e75565b5060051b60200190565b60006001600160401b03821115612dc557612dc5612e75565b50601f01601f191660200190565b60008219821115612de657612de6612e49565b500190565b600082821015612dfd57612dfd612e49565b500390565b60005b83811015612e1d578181015183820152602001612e05565b838111156115085750506000910152565b6000600019821415612e4257612e42612e49565b5060010190565b634e487b7160e01b600052601160045260246000fd5b634e487b7160e01b600052602160045260246000fd5b634e487b7160e01b600052604160045260246000fd5b60028110610b9657610b96612e5f565b6001600160a01b0381168114610b9657600080fd5b61ffff81168114610b9657600080fd5b63ffffffff81168114610b9657600080fdfea164736f6c6343000804000a",
  "deployedBytecode": "0x608060405234801561001057600080fd5b50600436106101425760003560e01c80638b418713116100b8578063e090c76f1161007c578063e090c76f14610306578063e7ded90214610326578063edddad6c14610339578063f23a6e611461034c578063f2fde38b1461036c578063f5a120421461037f57600080fd5b80638b418713146102b25780638da5cb5b146102c5578063bc197c81146102cd578063c00358f2146102e0578063d7063706146102f357600080fd5b80632b4c58591161010a5780632b4c5859146102245780633424752a14610239578063365a86fc1461024c5780633d2d5374146102735780635ba0f6e81461029657806364169d411461029f57600080fd5b806301ffc9a714610147578063134f6d3a1461016f578063150b7a02146101ae578063253f284b146101da5780632aacd1c1146101ed575b600080fd5b61015a61015536600461273d565b610387565b60405190151581526020015b60405180910390f35b6101967f000000000000000000000000000000000000000000000000000000000000000081565b6040516001600160a01b039091168152602001610166565b6101c16101bc36600461248c565b6103d9565b6040516001600160e01b03199091168152602001610166565b600654610196906001600160a01b031681565b6102166101fb3660046122a2565b6001600160a01b031660009081526002602052604090205490565b604051908152602001610166565b610237610232366004612641565b6103ea565b005b610237610247366004612765565b610430565b6101967f000000000000000000000000000000000000000000000000000000000000000081565b61015a6102813660046122a2565b60036020526000908152604090205460ff1681565b61021660055481565b6101966102ad36600461270d565b610469565b6102376102c03660046125bb565b610484565b6101966104cc565b6101c16102db3660046123d2565b6104db565b6102376102ee36600461256e565b610526565b610237610301366004612832565b61055f565b6102166103143660046122a2565b60046020526000908152604090205481565b6101966103343660046122a2565b610a97565b610237610347366004612697565b610ac0565b6101c161035a3660046124f5565b63f23a6e6160e01b9695505050505050565b61023761037a3660046122a2565b610af9565b610237610b99565b60006001600160e01b03198216630271189760e51b14806103b857506001600160e01b03198216630a85bd0160e11b145b806103d357506001600160e01b031982166301ffc9a760e01b145b92915050565b630a85bd0160e11b5b949350505050565b336103f36104cc565b6001600160a01b0316146104225760405162461bcd60e51b815260040161041990612c6c565b60405180910390fd5b61042c8282610bc4565b5050565b336104396104cc565b6001600160a01b03161461045f5760405162461bcd60e51b815260040161041990612c6c565b61042c8282610cb6565b6000908152600160205260409020546001600160a01b031690565b6000806000806000806000878060200190518101906104a391906122da565b96509650965096509650965096506104c087878787878787610de9565b50505050505050505050565b6000546001600160a01b031690565b60405162461bcd60e51b815260206004820152601b60248201527f45524331313535206261746368206e6f7420737570706f7274656400000000006044820152600090606401610419565b3361052f6104cc565b6001600160a01b0316146105555760405162461bcd60e51b815260040161041990612c6c565b61042c8282611179565b600061056e8560200151610a97565b905060006105858287602001518860000151611323565b90506001600160a01b038116156105f3576001600160a01b03811633146105ee5760405162461bcd60e51b815260206004820152601e60248201527f68617320746f20626520626f72726f776572206f66206f6c64206c6f616e00006044820152606401610419565b6105f6565b50335b60008061060c8489602001518a600001516113cd565b915091506106238489602001518a6000015161147b565b6106328383838b8b8b8b61150e565b6040516370a0823160e01b81523060048201526000906001600160a01b038416906370a082319060240160206040518083038186803b15801561067457600080fd5b505afa158015610688573d6000803e3d6000fd5b505050506040513d601f19601f820116820180604052508101906106ac9190612725565b905080156107365760405163a9059cbb60e01b81526001600160a01b0384169063a9059cbb906106e29087908590600401612b10565b602060405180830381600087803b1580156106fc57600080fd5b505af1158015610710573d6000803e3d6000fd5b505050506040513d601f19601f8201168201806040525081019061073491906126ed565b505b600654604051635e72172160e11b8152600160a01b820463ffffffff1660048201526001600160a01b039091169063bce42e4290602401600060405180830381600087803b15801561078757600080fd5b505af115801561079b573d6000803e3d6000fd5b505060065460408051630d96a1bf60e21b815290516001600160a01b03909216935060009250839163365a86fc91600480820192602092909190829003018186803b1580156107e957600080fd5b505afa1580156107fd573d6000803e3d6000fd5b505050506040513d601f19601f8201168201806040525081019061082191906122be565b6001600160a01b031663e16c7d98836001600160a01b03166377cfa9916040518163ffffffff1660e01b815260040160206040518083038186803b15801561086857600080fd5b505afa15801561087c573d6000803e3d6000fd5b505050506040513d601f19601f820116820180604052508101906108a09190612725565b6040518263ffffffff1660e01b81526004016108be91815260200190565b60206040518083038186803b1580156108d657600080fd5b505afa1580156108ea573d6000803e3d6000fd5b505050506040513d601f19601f8201168201806040525081019061090e91906122be565b60065460405163e6c5a54160e01b8152600160a01b90910463ffffffff1660048201529091506000906001600160a01b0383169063e6c5a5419060240160606040518083038186803b15801561096357600080fd5b505afa158015610977573d6000803e3d6000fd5b505050506040513d601f19601f8201168201806040525081019061099b91906127b4565b6020015190506000826001600160a01b0316638208e76c6040518163ffffffff1660e01b815260040160206040518083038186803b1580156109dc57600080fd5b505afa1580156109f0573d6000803e3d6000fd5b505050506040513d601f19601f82011682018060405250810190610a1491906122be565b6040516323b872dd60e01b81523060048201526001600160a01b038a811660248301526001600160401b0385166044830152919250908216906323b872dd90606401600060405180830381600087803b158015610a7057600080fd5b505af1158015610a84573d6000803e3d6000fd5b5050505050505050505050505050505050565b6001600160a01b038116600090815260026020526040812054610ab981610469565b9392505050565b33610ac96104cc565b6001600160a01b031614610aef5760405162461bcd60e51b815260040161041990612c6c565b61042c82826119de565b33610b026104cc565b6001600160a01b031614610b285760405162461bcd60e51b815260040161041990612c6c565b6001600160a01b038116610b8d5760405162461bcd60e51b815260206004820152602660248201527f4f776e61626c653a206e6577206f776e657220697320746865207a65726f206160448201526564647265737360d01b6064820152608401610419565b610b9681611ac7565b50565b610bc27f0000000000000000000000000000000000000000000000000000000000000000611b17565b565b8051825114610c3b5760405162461bcd60e51b815260206004820152603d60248201527f736574526566696e616e636561626c65436f6e7472616374732066756e63746960448201527f6f6e20696e666f726d6174696f6e206172697479206d69736d617463680000006064820152608401610419565b60005b8251811015610cb157610c9f838281518110610c6a57634e487b7160e01b600052603260045260246000fd5b6020026020010151838381518110610c9257634e487b7160e01b600052603260045260246000fd5b6020026020010151611179565b80610ca981612e2e565b915050610c3e565b505050565b8151610d045760405162461bcd60e51b815260206004820152601a60248201527f726566696e616e636561626c655479706520697320656d7074790000000000006044820152606401610419565b60405163f99a8ffb60e01b815260009073__$d7e2e0a2db402280e6c36233d590dce656$__9063f99a8ffb90610d3e908690600401612c59565b60206040518083038186803b158015610d5657600080fd5b505af4158015610d6a573d6000803e3d6000fd5b505050506040513d601f19601f82011682018060405250810190610d8e9190612725565b60008181526001602052604080822080546001600160a01b0319166001600160a01b03871690811790915590519293509183917f22be69269c1f7d73e73dcb25b710dd88c7aa1cf374c16d945def98df2107c2f891a3505050565b6000610df88560200151610a97565b9050600080610e1083886020015189600001516113cd565b91509150610e2983886020015189600001518585611bdd565b600080610e3f858a602001518b60000151611c6c565b6040516331a9108f60e11b81526004810182905291935091506001600160a01b03831690636352211e9060240160206040518083038186803b158015610e8457600080fd5b505afa158015610e98573d6000803e3d6000fd5b505050506040513d601f19601f82011682018060405250810190610ebc91906122be565b6001600160a01b0316306001600160a01b031614610f135760405162461bcd60e51b815260206004820152601460248201527318dbdb1b185d195c985b081b9bdd081bdddb995960621b6044820152606401610419565b8751600554610f22908c612dd3565b1115610fd457875160055460009190610f3b908d612dd3565b610f459190612deb565b6040516323b872dd60e01b81526001600160a01b038f8116600483015230602483015260448201839052919250908d16906323b872dd90606401602060405180830381600087803b158015610f9957600080fd5b505af1158015610fad573d6000803e3d6000fd5b505050506040513d601f19601f82011682018060405250810190610fd191906126ed565b50505b60c0880151600654895160405163095ea7b360e01b81526001600160a01b039384169363095ea7b39361100c93911691600401612b10565b602060405180830381600087803b15801561102657600080fd5b505af115801561103a573d6000803e3d6000fd5b505050506040513d601f19601f8201168201806040525081019061105e91906126ed565b5060065460405163095ea7b360e01b81526001600160a01b038481169263095ea7b39261109392909116908590600401612b10565b600060405180830381600087803b1580156110ad57600080fd5b505af11580156110c1573d6000803e3d6000fd5b50506006546040516315bbfa6360e21b81526001600160a01b0390911692506356efe98c91506110f9908b908b908b90600401612ca1565b602060405180830381600087803b15801561111357600080fd5b505af1158015611127573d6000803e3d6000fd5b505050506040513d601f19601f8201168201806040525081019061114b9190612948565b600660146101000a81548163ffffffff021916908363ffffffff160217905550505050505050505050505050565b6001600160a01b0382166111dd5760405162461bcd60e51b815260206004820152602560248201527f726566696e616e636561626c65436f6e7472616374206973207a65726f206164604482015264647265737360d81b6064820152608401610419565b60405163f99a8ffb60e01b815260009073__$d7e2e0a2db402280e6c36233d590dce656$__9063f99a8ffb90611217908590600401612c59565b60206040518083038186803b15801561122f57600080fd5b505af4158015611243573d6000803e3d6000fd5b505050506040513d601f19601f820116820180604052508101906112679190612725565b905080156112db57600061127a82610469565b6001600160a01b031614156112db5760405162461bcd60e51b815260206004820152602160248201527f726566696e616e636561626c652074797065206e6f74207265676973746572656044820152601960fa1b6064820152608401610419565b6001600160a01b038316600081815260026020526040808220849055518392917fbc1ee51e22f75dc0717328a68abc443efc99d36fc942fc68f0a18bfffa67270191a3505050565b6000806113ae85637da9f01860e01b8686604051602401611345929190612b10565b604051602081830303815290604052906001600160e01b0319166020820180516001600160e01b0383818316178352505050506040518060400160405280601881526020017733b2ba2137b93937bbb2b920b2323932b9b99032b93937b960411b815250611cf0565b9050808060200190518101906113c491906122be565b95945050505050565b6000806000611458866310b29fee60e01b87876040516024016113f1929190612b10565b604051602081830303815290604052906001600160e01b0319166020820180516001600160e01b0383818316178352505050506040518060400160405280601681526020017533b2ba2830bcb7b3332232ba30b4b6399032b93937b960511b815250611cf0565b90508080602001905181019061146e91906123a5565b9250925050935093915050565b6115088363a4d160e360e01b848460405160240161149a929190612b10565b604051602081830303815290604052906001600160e01b0319166020820180516001600160e01b0383818316178352505050506040518060400160405280601a81526020017f7472616e73666572426f72726f776572526f6c65206572726f72000000000000815250611cf0565b50505050565b6001600160a01b03861660009081526003602052604090205460ff1661156f5760405162461bcd60e51b8152602060048201526016602482015275373790333630b9b43637b0b7103337b9103a37b5b2b760511b6044820152606401610419565b6001600160a01b038616600090815260046020526040808220548151600380825260808201909352909291816020015b6115a7611e06565b81526020019060019003908161159f575050604080516101008101825260018152600060208083018290528351608081018552828152949550919392840192918201908152602001600081526020018a815250815260200183815260200160008152602001306001600160a01b0316815260200160008152602001604051806020016040528060008152508152508160008151811061165657634e487b7160e01b600052603260045260246000fd5b60209081029190910101526040805161010081019091528060088152602001600081526020016040518060800160405280600015158152602001600060018111156116b157634e487b7160e01b600052602160045260246000fd5b8152602001600081526020016000815250815260200183815260200160008152602001306001600160a01b03168152602001600081526020018a8a8a8a8a8a8a6040516020016117079796959493929190612a86565b6040516020818303038152906040528152508160018151811061173a57634e487b7160e01b600052603260045260246000fd5b602090810291909101015260408051610100810190915280600081526020016000815260200160405180608001604052806001151581526020016000600181111561179557634e487b7160e01b600052602160045260246000fd5b8152602001600081526020016005548b6117af9190612dd3565b815250815260200183815260200160008152602001306001600160a01b0316815260200160008152602001604051806020016040528060008152508152508160028151811061180e57634e487b7160e01b600052603260045260246000fd5b6020026020010181905250876001600160a01b031663095ea7b37f00000000000000000000000000000000000000000000000000000000000000006005548a6118579190612dd3565b6040518363ffffffff1660e01b8152600401611874929190612b10565b602060405180830381600087803b15801561188e57600080fd5b505af11580156118a2573d6000803e3d6000fd5b505050506040513d601f19601f820116820180604052508101906118c691906126ed565b50604080516001808252818301909252600091816020015b60408051808201909152600080825260208201528152602001906001900390816118de5790505090506040518060400160405280306001600160a01b0316815260200160018152508160008151811061194757634e487b7160e01b600052603260045260246000fd5b602090810291909101015260405163a67a6a4560e01b81526001600160a01b037f0000000000000000000000000000000000000000000000000000000000000000169063a67a6a45906119a09084908690600401612b29565b600060405180830381600087803b1580156119ba57600080fd5b505af11580156119ce573d6000803e3d6000fd5b5050505050505050505050505050565b8051825114611a515760405162461bcd60e51b815260206004820152603960248201527f736574526566696e616e636561626c6554797065732066756e6374696f6e20696044820152780dcccdee4dac2e8d2dedc40c2e4d2e8f240dad2e6dac2e8c6d603b1b6064820152608401610419565b60005b8151811015610cb157611ab5838281518110611a8057634e487b7160e01b600052603260045260246000fd5b6020026020010151838381518110611aa857634e487b7160e01b600052603260045260246000fd5b6020026020010151610cb6565b80611abf81612e2e565b915050611a54565b600080546001600160a01b038381166001600160a01b0319831681178455604051919092169283917f8be0079c531659141344cd1fd0a4f28419497f9722a3daafe3b4186f6b6457e09190a35050565b60005b6003811161042c5760405163062bd3e960e01b8152600481018290526000906001600160a01b0384169063062bd3e99060240160206040518083038186803b158015611b6557600080fd5b505afa158015611b79573d6000803e3d6000fd5b505050506040513d601f19601f82011682018060405250810190611b9d91906122be565b6001600160a01b03166000908152600360209081526040808320805460ff191660011790556004909152902082905550611bd681612e2e565b9050611b1a565b604080516001600160a01b038681166024830152604482018690528416606482015260848082018490528251808303909101815260a49091018252602080820180516001600160e01b031663235fc9e160e21b179052825180840190935260118352703830bca130b1b5b637b0b71032b93937b960791b90830152611c6491879190611cf0565b505050505050565b6000806000611458866358024fce60e01b8787604051602401611c90929190612b10565b604051602081830303815290604052906001600160e01b0319166020820180516001600160e01b0383818316178352505050506040518060400160405280601381526020017233b2ba21b7b63630ba32b930b61032b93937b960691b8152505b60606001600160a01b0384163b611d585760405162461bcd60e51b815260206004820152602660248201527f416464726573733a2064656c65676174652063616c6c20746f206e6f6e2d636f6044820152651b9d1c9858dd60d21b6064820152608401610419565b600080856001600160a01b031685604051611d739190612a6a565b600060405180830381855af49150503d8060008114611dae576040519150601f19603f3d011682016040523d82523d6000602084013e611db3565b606091505b5091509150611dc3828286611dcd565b9695505050505050565b60608315611ddc575081610ab9565b825115611dec5782518084602001fd5b8160405162461bcd60e51b81526004016104199190612c59565b604080516101008101825260008082526020820152908101611e4a604080516080810190915260008082526020820190815260200160008152602001600081525090565b8152602001600081526020016000815260200160006001600160a01b0316815260200160008152602001606081525090565b8035611e8781612e9b565b919050565b8051611e8781612e9b565b600082601f830112611ea7578081fd5b81356020611ebc611eb783612d89565b612d59565b80838252828201915082860187848660051b8901011115611edb578586fd5b855b85811015611f02578135611ef081612e9b565b84529284019290840190600101611edd565b5090979650505050505050565b600082601f830112611f1f578081fd5b81356020611f2f611eb783612d89565b80838252828201915082860187848660051b8901011115611f4e578586fd5b855b85811015611f025781356001600160401b03811115611f6d578788fd5b611f7b8a87838c0101612016565b8552509284019290840190600101611f50565b60008083601f840112611f9f578182fd5b5081356001600160401b03811115611fb5578182fd5b6020830191508360208260051b8501011115611fd057600080fd5b9250929050565b60008083601f840112611fe8578182fd5b5081356001600160401b03811115611ffe578182fd5b602083019150836020828501011115611fd057600080fd5b600082601f830112612026578081fd5b8135612034611eb782612dac565b818152846020838601011115612048578283fd5b816020850160208301379081016020019190915292915050565b600060408284031215612073578081fd5b61207b612cec565b9050813561208881612e9b565b8152602082013561209881612eb0565b602082015292915050565b6000604082840312156120b4578081fd5b6120bc612cec565b905081516120c981612e9b565b8152602082015161209881612eb0565b600061010082840312156120eb578081fd5b6120f3612d14565b9050815181526020820151602082015260408201516040820152606082015161211b81612e9b565b6060820152608082015161212e81612ec0565b608082015261213f60a0830161228c565b60a082015261215060c08301611e8c565b60c082015261216160e08301611e8c565b60e082015292915050565b60006080828403121561217d578081fd5b612185612d37565b9050813581526020820135602082015260408201356121a381612e9b565b604082015260608201356001600160401b038111156121c157600080fd5b6121cd84828501612016565b60608301525092915050565b6000608082840312156121ea578081fd5b6121f2612d37565b90508151815260208201516020820152604082015161221081612e9b565b604082015260608201516001600160401b0381111561222e57600080fd5b8201601f8101841361223f57600080fd5b805161224d611eb782612dac565b81815285602083850101111561226257600080fd5b612273826020830160208601612e02565b606084015250909392505050565b8035611e8781612eb0565b8051611e8781612eb0565b8035611e8781612ec0565b6000602082840312156122b3578081fd5b8135610ab981612e9b565b6000602082840312156122cf578081fd5b8151610ab981612e9b565b60008060008060008060008789036102008112156122f6578384fd5b885161230181612e9b565b60208a015190985061231281612e9b565b60408a810151919850909650605f198201121561232d578384fd5b50612336612cec565b60608901518152608089015161234b81612e9b565b6020820152935061235f8960a08a016120d9565b92506101a08801516001600160401b0381111561237a578283fd5b6123868a828b016121d9565b925050612397896101c08a016120a3565b905092959891949750929550565b600080604083850312156123b7578182fd5b82516123c281612e9b565b6020939093015192949293505050565b60008060008060008060008060a0898b0312156123ed578182fd5b88356123f881612e9b565b9750602089013561240881612e9b565b965060408901356001600160401b0380821115612423578384fd5b61242f8c838d01611f8e565b909850965060608b0135915080821115612447578384fd5b6124538c838d01611f8e565b909650945060808b013591508082111561246b578384fd5b506124788b828c01611fd7565b999c989b5096995094979396929594505050565b600080600080608085870312156124a1578182fd5b84356124ac81612e9b565b935060208501356124bc81612e9b565b92506040850135915060608501356001600160401b038111156124dd578182fd5b6124e987828801612016565b91505092959194509250565b60008060008060008060a0878903121561250d578384fd5b863561251881612e9b565b9550602087013561252881612e9b565b9450604087013593506060870135925060808701356001600160401b03811115612550578283fd5b61255c89828a01611fd7565b979a9699509497509295939492505050565b60008060408385031215612580578182fd5b823561258b81612e9b565b915060208301356001600160401b038111156125a5578182fd5b6125b185828601612016565b9150509250929050565b600080600083850360808112156125d0578182fd5b84356125db81612e9b565b93506040601f19820112156125ee578182fd5b506125f7612cec565b602085013561260581612e9b565b815260408501356020820152915060608401356001600160401b0381111561262b578182fd5b61263786828701612016565b9150509250925092565b60008060408385031215612653578182fd5b82356001600160401b0380821115612669578384fd5b61267586838701611e97565b9350602085013591508082111561268a578283fd5b506125b185828601611f0f565b600080604083850312156126a9578182fd5b82356001600160401b03808211156126bf578384fd5b6126cb86838701611f0f565b935060208501359150808211156126e0578283fd5b506125b185828601611e97565b6000602082840312156126fe578081fd5b81518015158114610ab9578182fd5b60006020828403121561271e578081fd5b5035919050565b600060208284031215612736578081fd5b5051919050565b60006020828403121561274e578081fd5b81356001600160e01b031981168114610ab9578182fd5b60008060408385031215612777578182fd5b82356001600160401b0381111561278c578283fd5b61279885828601612016565b92505060208301356127a981612e9b565b809150509250929050565b6000606082840312156127c5578081fd5b604051606081016001600160401b0382821081831117156127e8576127e8612e75565b81604052845191506127f982612e9b565b908252602084015190808216821461280f578384fd5b506020820152604083015160048110612826578283fd5b60408201529392505050565b6000806000808486036101a0811215612849578283fd5b6040811215612856578283fd5b61285e612cec565b86358152602087013561287081612e9b565b60208201529450610100603f19820181131561288a578384fd5b612892612d14565b91506040870135825260608701356020830152608087013560408301526128bb60a08801611e7c565b60608301526128cc60c08801612297565b60808301526128dd60e08801612281565b60a08301526128ed818801611e7c565b60c0830152506129006101208701611e7c565b60e082015292506101408501356001600160401b03811115612920578283fd5b61292c8782880161216c565b92505061293d866101608701612062565b905092959194509250565b600060208284031215612959578081fd5b8151610ab981612ec0565b6000815180845261297c816020860160208601612e02565b601f01601f19169290920160200192915050565b80511515825260208101516129a481612e8b565b602083015260408101516129b781612e8b565b6040830152606090810151910152565b805182526020810151602083015260408101516040830152606081015160018060a01b03808216606085015263ffffffff608084015116608085015261ffff60a08401511660a08501528060c08401511660c08501528060e08401511660e085015250505050565b805182526020810151602083015260018060a01b03604082015116604083015260006060820151608060608501526103e26080850182612964565b60008251612a7c818460208701612e02565b9190910192915050565b6001600160a01b03888116825287811660208084019190915260408301889052865160608401528601511660808201526000610200612ac860a08401876129c7565b806101a0840152612adb81840186612a2f565b84516001600160a01b03166101c0850152602085015161ffff166101e08501529150612b049050565b98975050505050505050565b6001600160a01b03929092168252602082015260400190565b6040808252835182820181905260009190606090818501906020808901865b83811015612b7657815180516001600160a01b03168652830151838601529386019390820190600101612b48565b50508683038188015287518084528184019250600581901b84018201898301885b83811015612c4857601f198784030186528151610160815160098110612bbf57612bbf612e5f565b855281870151878601528a820151612bd98c870182612990565b508982015160c081818801526080840151915060e0828189015260a08501519250612c106101008901846001600160a01b03169052565b908401516101208801529092015161014086018290529150612c3481860183612964565b978701979450505090840190600101612b97565b50909b9a5050505050505050505050565b602081526000610ab96020830184612964565b6020808252818101527f4f776e61626c653a2063616c6c6572206973206e6f7420746865206f776e6572604082015260600190565b6000610160612cb083876129c7565b80610100840152612cc381840186612a2f565b84516001600160a01b0316610120850152602085015161ffff1661014085015291506103e29050565b604080519081016001600160401b0381118282101715612d0e57612d0e612e75565b60405290565b60405161010081016001600160401b0381118282101715612d0e57612d0e612e75565b604051608081016001600160401b0381118282101715612d0e57612d0e612e75565b604051601f8201601f191681016001600160401b0381118282101715612d8157612d81612e75565b604052919050565b60006001600160401b03821115612da257612da2612e75565b5060051b60200190565b60006001600160401b03821115612dc557612dc5612e75565b50601f01601f191660200190565b60008219821115612de657612de6612e49565b500190565b600082821015612dfd57612dfd612e49565b500390565b60005b83811015612e1d578181015183820152602001612e05565b838111156115085750506000910152565b6000600019821415612e4257612e42612e49565b5060010190565b634e487b7160e01b600052601160045260246000fd5b634e487b7160e01b600052602160045260246000fd5b634e487b7160e01b600052604160045260246000fd5b60028110610b9657610b96612e5f565b6001600160a01b0381168114610b9657600080fd5b61ffff81168114610b9657600080fd5b63ffffffff81168114610b9657600080fdfea164736f6c6343000804000a",
  "libraries": {
    "ContractKeys": "0xd3D0E26010ABeF694F4074ca39E88c5d6dEd70C1"
  },
  "devdoc": {
    "author": "NFTfi",
    "details": "This smart contract is designed to manage the process of loan refinancing. It allows borrowers to replace their current loans with new ones that have more favorable terms. Each loan is identified by a unique identifier and associated with a refinanceable contract, enabling tracking and management of loan refinancing details.",
    "kind": "dev",
    "methods": {
      "callFunction(address,(address,uint256),bytes)": {
        "params": {
          "_data": "- Byte array of data returned by the flashloan"
        }
      },
      "constructor": {
        "params": {
          "_admin": "- Initial admin of this contract.",
          "_definedRefinanceableTypes": "- Array of defined refinancing types",
          "_flashloanFee": "- Fee for using a flashloan",
          "_loanContract": "- Address of the loan contract",
          "_nftfiHub": "- Address of the NftfiHub contract",
          "_refinanceableContracts": "- Array of addresses of the refinancing contracts",
          "_refinanceableTypes": "- Array of refinancing types",
          "_refinancingAdapters": "- Array of addresses of the refinancing adapters",
          "_soloMargin": "- Address of the solo margin contract for flashloans"
        }
      },
      "getRefinanceableContract(address)": {
        "params": {
          "_refinanceableContract": "- Address of the refinanceable contract."
        },
        "returns": {
          "_0": "The refinanceable type: - bytes32(\"\") means \"not registered\" - != bytes32(\"\") means \"permitted with the given refinanceable type\""
        }
      },
      "getRefinancingAdapter(address)": {
        "params": {
          "_refinanceableContract": "- Address of the refinanceable contract."
        },
        "returns": {
          "_0": "The address of the refinanceable adapter contract."
        }
      },
      "getRefinancingAdapterOfType(bytes32)": {
        "params": {
          "_refinanceableType": "- Refinanceable type, e.g., bytes32(\"DIRECT_LOAN_FIXED_OFFER\")"
        },
        "returns": {
          "_0": "The address of the refinancing adapter contract."
        }
      },
      "loadTokens()": {
        "details": "Loads tokens that can be flash loaned from the SoloMargin contract. It uses the private _loadTokens function to populate the tokenFlashloanble and marketIds mappings."
      },
      "onERC1155BatchReceived(address,address,uint256[],uint256[],bytes)": {
        "details": "Handles the receipt of a multiple ERC1155 token types. This function is called at the end of a `safeBatchTransferFrom` after the balances have been updated.",
        "returns": {
          "_0": "`bytes4(keccak256(\"onERC1155BatchReceived(address,address,uint256[],uint256[],bytes)\"))` if allowed"
        }
      },
      "onERC1155Received(address,address,uint256,uint256,bytes)": {
        "details": "Handles the receipt of a single ERC1155 token type. This function is called at the end of a `safeTransferFrom` after the balance has been updated.",
        "returns": {
          "_0": "`bytes4(keccak256(\"onERC1155Received(address,address,uint256,uint256,bytes)\"))` if allowed"
        }
      },
      "onERC721Received(address,address,uint256,bytes)": {
        "details": "See {IERC721Receiver-onERC721Received}. Always returns `IERC721Receiver.onERC721Received.selector`."
      },
      "owner()": {
        "details": "Returns the address of the current owner."
      },
      "refinance((uint256,address),(uint256,uint256,uint256,address,uint32,uint16,address,address),(uint256,uint256,address,bytes),(address,uint16))": {
        "params": {
          "_borrowerSettings": "- Settings related to the borrower",
          "_lenderSignature": "- Signature of the lender",
          "_offer": "- The loan offer details",
          "_refinancingData": "- Data related to the refinancing loan"
        }
      },
      "setRefinanceableContract(address,string)": {
        "params": {
          "_refinanceableContract": "- Address of the refinanceable contract.",
          "_refinanceableType": "- Refinanceable type, e.g., \"DIRECT_LOAN_FIXED_OFFER\". - \"\" means \"disable this permit\" - != \"\" means \"enable permit with the given NFT Type\""
        }
      },
      "setRefinanceableContracts(address[],string[])": {
        "params": {
          "_refinanceableContracts": "- Array of refinanceable contract addresses.",
          "_refinanceableTypes": "- Array of refinanceable types associated with the refinanceable contracts. - \"\" means \"disable this permit\" - != \"\" means \"enable permit with the given NFT Type\""
        }
      },
      "setRefinanceableType(string,address)": {
        "params": {
          "_refinanceableType": "- Refinanceable type, e.g., \"DIRECT_LOAN_FIXED_OFFER\"",
          "_refinancingAdapter": "- Address of the refinancing adapter contract that implements the refinanceable behavior for dealing with the correct refinanceable type"
        }
      },
      "setRefinanceableTypes(string[],address[])": {
        "params": {
          "_refinanceableTypes": "- Array of refinanceable types, e.g., \"DIRECT_LOAN_FIXED_OFFER\"",
          "_refinancingAdapters": "- Array of addresses of the refinancing adapter contracts that implement the refinanceable behavior for dealing with the correct refinanceable type"
        }
      },
      "supportsInterface(bytes4)": {
        "details": "Checks whether this contract implements the interface defined by `interfaceId`.",
        "params": {
          "_interfaceId": "Id of the interface"
        },
        "returns": {
          "_0": "true if this contract implements the interface"
        }
      },
      "transferOwnership(address)": {
        "details": "Transfers ownership of the contract to a new account (`newOwner`). Can only be called by the current owner."
      }
    },
    "title": "Refinancing",
    "version": 1
  },
  "userdoc": {
    "events": {
      "NewRefinanceableContract(address,bytes32)": {
        "notice": "This event is fired whenever the admin sets a new refinanceable contract"
      },
      "TypeUpdated(bytes32,address)": {
        "notice": "This event is fired whenever the admins register a refinancing type."
      }
    },
    "kind": "user",
    "methods": {
      "callFunction(address,(address,uint256),bytes)": {
        "notice": "Function that's called back when flashloan is executed. Decodes the data returned by the flashloan, then calls the internal `_refinanceFlashloanCallback` function. DyDx flashloan interface expects this function to exist this function is only the entry point of the operations happening in the callback, it also serves to decode the callback data, the main logic is implemented in _refinanceFlashloanCallback()"
      },
      "constructor": {
        "notice": "Sets the admin of the contract. Initializes `contractTypes` with a batch of loan types. Sets `NftfiHub`. Initializes RefinancingAdapterRegistry and Flashloan contracts"
      },
      "getRefinanceableContract(address)": {
        "notice": "Looks up the refinanceable type associated with a refinanceable contract."
      },
      "getRefinancingAdapter(address)": {
        "notice": "Looks up the address of the refinanceable adapter associated with the refinanceable contract type."
      },
      "getRefinancingAdapterOfType(bytes32)": {
        "notice": "Gets the address of the refinancing adapter contract that implements the given refinanceable type."
      },
      "refinance((uint256,address),(uint256,uint256,uint256,address,uint32,uint16,address,address),(uint256,uint256,address,bytes),(address,uint16))": {
        "notice": "Main function for initiating the loan refinance process. Initiated by the borrower of the old refinancable if applicable and the new loan From the standpoint of the lender this whole process can just be a regular loan, the only caveat is that the collateral is locked in some refinancable protocol (loan, market). If the old refinancable is a loan, borrower role transfer has to be approved (eg erc-721 approve for obligation receipt) to this contract beforehand. Checks the terms of the refinancing offer, verifies the borrower of the old loan, pays off the old loan, creates a new loan offer and mints an Obligation Receipt Token."
      },
      "setRefinanceableContract(address,string)": {
        "notice": "Changes the status of a refinanceable contract. This includes both adding a refinanceable contract to the permitted list and removing it."
      },
      "setRefinanceableContracts(address[],string[])": {
        "notice": "Changes the status of a batch of refinanceable contracts. This includes both adding refinanceable contracts to the permitted list and removing them."
      },
      "setRefinanceableType(string,address)": {
        "notice": "Sets or updates the address of the refinanceable adapter contract for the given refinanceable type. Set address(0) for a refinanceable type to unregister it."
      },
      "setRefinanceableTypes(string[],address[])": {
        "notice": "Sets or updates the addresses of the refinanceable adapter contracts for the given batch of refinanceable types. Set address(0) for a refinanceable type to unregister it."
      }
    },
    "version": 1
  },
  "storageLayout": {
    "storage": [
      {
        "astId": 21148,
        "contract": "contracts/refinancing/Refinancing.sol:Refinancing",
        "label": "_owner",
        "offset": 0,
        "slot": "0",
        "type": "t_address"
      },
      {
        "astId": 16737,
        "contract": "contracts/refinancing/Refinancing.sol:Refinancing",
        "label": "refinanceableTypes",
        "offset": 0,
        "slot": "1",
        "type": "t_mapping(t_bytes32,t_address)"
      },
      {
        "astId": 16741,
        "contract": "contracts/refinancing/Refinancing.sol:Refinancing",
        "label": "refinanceableContracts",
        "offset": 0,
        "slot": "2",
        "type": "t_mapping(t_address,t_bytes32)"
      },
      {
        "astId": 16045,
        "contract": "contracts/refinancing/Refinancing.sol:Refinancing",
        "label": "tokenFlashloanble",
        "offset": 0,
        "slot": "3",
        "type": "t_mapping(t_address,t_bool)"
      },
      {
        "astId": 16049,
        "contract": "contracts/refinancing/Refinancing.sol:Refinancing",
        "label": "marketIds",
        "offset": 0,
        "slot": "4",
        "type": "t_mapping(t_address,t_uint256)"
      },
      {
        "astId": 16051,
        "contract": "contracts/refinancing/Refinancing.sol:Refinancing",
        "label": "flashloanFee",
        "offset": 0,
        "slot": "5",
        "type": "t_uint256"
      },
      {
        "astId": 15419,
        "contract": "contracts/refinancing/Refinancing.sol:Refinancing",
        "label": "loanContract",
        "offset": 0,
        "slot": "6",
        "type": "t_address"
      },
      {
        "astId": 15426,
        "contract": "contracts/refinancing/Refinancing.sol:Refinancing",
        "label": "latestRefinancedLoanId",
        "offset": 20,
        "slot": "6",
        "type": "t_uint32"
      }
    ],
    "types": {
      "t_address": {
        "encoding": "inplace",
        "label": "address",
        "numberOfBytes": "20"
      },
      "t_bool": {
        "encoding": "inplace",
        "label": "bool",
        "numberOfBytes": "1"
      },
      "t_bytes32": {
        "encoding": "inplace",
        "label": "bytes32",
        "numberOfBytes": "32"
      },
      "t_mapping(t_address,t_bool)": {
        "encoding": "mapping",
        "key": "t_address",
        "label": "mapping(address => bool)",
        "numberOfBytes": "32",
        "value": "t_bool"
      },
      "t_mapping(t_address,t_bytes32)": {
        "encoding": "mapping",
        "key": "t_address",
        "label": "mapping(address => bytes32)",
        "numberOfBytes": "32",
        "value": "t_bytes32"
      },
      "t_mapping(t_address,t_uint256)": {
        "encoding": "mapping",
        "key": "t_address",
        "label": "mapping(address => uint256)",
        "numberOfBytes": "32",
        "value": "t_uint256"
      },
      "t_mapping(t_bytes32,t_address)": {
        "encoding": "mapping",
        "key": "t_bytes32",
        "label": "mapping(bytes32 => address)",
        "numberOfBytes": "32",
        "value": "t_address"
      },
      "t_uint256": {
        "encoding": "inplace",
        "label": "uint256",
        "numberOfBytes": "32"
      },
      "t_uint32": {
        "encoding": "inplace",
        "label": "uint32",
        "numberOfBytes": "4"
      }
    }
  }
}