{
  "address": "0x8282e8F6486bF4571c85212f7b663b7f3e364AA6",
  "abi": [
    {
      "inputs": [
        {
          "internalType": "address",
          "name": "_admin",
          "type": "address"
        }
      ],
      "stateMutability": "nonpayable",
      "type": "constructor"
    },
    {
      "anonymous": false,
      "inputs": [
        {
          "indexed": true,
          "internalType": "uint256",
          "name": "_seasonNumber",
          "type": "uint256"
        },
        {
          "indexed": false,
          "internalType": "address",
          "name": "_distributor",
          "type": "address"
        }
      ],
      "name": "DistributorAdded",
      "type": "event"
    },
    {
      "anonymous": false,
      "inputs": [
        {
          "indexed": true,
          "internalType": "uint256",
          "name": "_seasonNumber",
          "type": "uint256"
        },
        {
          "indexed": false,
          "internalType": "address",
          "name": "_distributor",
          "type": "address"
        }
      ],
      "name": "DistributorRemoved",
      "type": "event"
    },
    {
      "anonymous": false,
      "inputs": [
        {
          "indexed": true,
          "internalType": "address",
          "name": "previousOwner",
          "type": "address"
        },
        {
          "indexed": true,
          "internalType": "address",
          "name": "newOwner",
          "type": "address"
        }
      ],
      "name": "OwnershipTransferred",
      "type": "event"
    },
    {
      "inputs": [],
      "name": "acceptTransferOwnership",
      "outputs": [],
      "stateMutability": "nonpayable",
      "type": "function"
    },
    {
      "inputs": [
        {
          "internalType": "uint256",
          "name": "_seasonNumber",
          "type": "uint256"
        },
        {
          "internalType": "address",
          "name": "_distributor",
          "type": "address"
        }
      ],
      "name": "addDistributor",
      "outputs": [],
      "stateMutability": "nonpayable",
      "type": "function"
    },
    {
      "inputs": [],
      "name": "cancelTransferOwnership",
      "outputs": [],
      "stateMutability": "nonpayable",
      "type": "function"
    },
    {
      "inputs": [
        {
          "internalType": "address",
          "name": "",
          "type": "address"
        }
      ],
      "name": "distributors",
      "outputs": [
        {
          "internalType": "bool",
          "name": "",
          "type": "bool"
        }
      ],
      "stateMutability": "view",
      "type": "function"
    },
    {
      "inputs": [
        {
          "internalType": "uint256",
          "name": "",
          "type": "uint256"
        }
      ],
      "name": "distributorsBySeason",
      "outputs": [
        {
          "internalType": "address",
          "name": "",
          "type": "address"
        }
      ],
      "stateMutability": "view",
      "type": "function"
    },
    {
      "inputs": [
        {
          "internalType": "address",
          "name": "_distributor",
          "type": "address"
        }
      ],
      "name": "isDistributor",
      "outputs": [
        {
          "internalType": "bool",
          "name": "",
          "type": "bool"
        }
      ],
      "stateMutability": "view",
      "type": "function"
    },
    {
      "inputs": [
        {
          "components": [
            {
              "internalType": "uint256",
              "name": "seasonNumber",
              "type": "uint256"
            },
            {
              "internalType": "uint256",
              "name": "index",
              "type": "uint256"
            },
            {
              "internalType": "uint256",
              "name": "amount",
              "type": "uint256"
            },
            {
              "internalType": "bytes32[]",
              "name": "merkleProof",
              "type": "bytes32[]"
            }
          ],
          "internalType": "struct DistributorRegistry.MultiClaimData[]",
          "name": "_claimData",
          "type": "tuple[]"
        }
      ],
      "name": "multiClaim",
      "outputs": [],
      "stateMutability": "nonpayable",
      "type": "function"
    },
    {
      "inputs": [],
      "name": "owner",
      "outputs": [
        {
          "internalType": "address",
          "name": "",
          "type": "address"
        }
      ],
      "stateMutability": "view",
      "type": "function"
    },
    {
      "inputs": [],
      "name": "rejectTransferOwnership",
      "outputs": [],
      "stateMutability": "nonpayable",
      "type": "function"
    },
    {
      "inputs": [
        {
          "internalType": "uint256",
          "name": "_seasonNumber",
          "type": "uint256"
        }
      ],
      "name": "removeDistributor",
      "outputs": [],
      "stateMutability": "nonpayable",
      "type": "function"
    },
    {
      "inputs": [
        {
          "internalType": "address",
          "name": "_newOwnerCandidate",
          "type": "address"
        }
      ],
      "name": "requestTransferOwnership",
      "outputs": [],
      "stateMutability": "nonpayable",
      "type": "function"
    }
  ],
  "transactionHash": "0x2e56e8ccdf13a88dcf0014586f3bd455ec8888c58b937f0b89e6cc940b84d3e4",
  "args": [
    "0x02e037F56728E947e92Af2c05baF7FeF387Ddd06"
  ],
  "solcInputHash": "51d92f14151a784a98601c9c2ff47829",
  "bytecode": "0x608060405234801561001057600080fd5b50604051610ac5380380610ac583398101604081905261002f91610090565b8061003981610040565b50506100c0565b600080546001600160a01b038381166001600160a01b0319831681178455604051919092169283917f8be0079c531659141344cd1fd0a4f28419497f9722a3daafe3b4186f6b6457e09190a35050565b6000602082840312156100a257600080fd5b81516001600160a01b03811681146100b957600080fd5b9392505050565b6109f6806100cf6000396000f3fe608060405234801561001057600080fd5b50600436106100a95760003560e01c80638f0c86fa116100715780638f0c86fa1461012a57806392fede00146101665780639d6fa6181461016e578063aca9daa314610181578063c3f5de3314610194578063cc642784146101a757600080fd5b806301911e51146100ae5780635f992fdd146100f45780637b371107146100fe57806389126cc6146101065780638da5cb5b14610119575b600080fd5b6100d76100bc366004610699565b6002602052600090815260409020546001600160a01b031681565b6040516001600160a01b0390911681526020015b60405180910390f35b6100fc6101ca565b005b6100fc61023b565b6100fc6101143660046106ce565b6102aa565b6000546001600160a01b03166100d7565b6101566101383660046106fa565b6001600160a01b031660009081526003602052604090205460ff1690565b60405190151581526020016100eb565b6100fc6103b2565b6100fc61017c3660046106fa565b6103dc565b6100fc61018f366004610699565b61048d565b6100fc6101a23660046107b0565b610522565b6101566101b53660046106fa565b60036020526000908152604090205460ff1681565b6001546001600160a01b031633146102295760405162461bcd60e51b815260206004820152601c60248201527f4f776e61626c653a206e6f74206f776e65722063616e6469646174650000000060448201526064015b60405180910390fd5b600180546001600160a01b0319169055565b6001546001600160a01b031633146102955760405162461bcd60e51b815260206004820152601c60248201527f4f776e61626c653a206e6f74206f776e65722063616e646964617465000000006044820152606401610220565b600154610229906001600160a01b0316610649565b6000546001600160a01b031633146102d45760405162461bcd60e51b81526004016102209061090d565b6000828152600260205260409020546001600160a01b0316156103395760405162461bcd60e51b815260206004820152601960248201527f536561736f6e206e756d62657220616c726561647920736574000000000000006044820152606401610220565b600082815260026020908152604080832080546001600160a01b0319166001600160a01b0386169081179091558084526003835292819020805460ff191660011790555191825283917febc24a2f46da30574265af7b9b9ffb94510d8d9f58e69fef90df745775de93f391015b60405180910390a25050565b6000546001600160a01b031633146102295760405162461bcd60e51b81526004016102209061090d565b6000546001600160a01b031633146104065760405162461bcd60e51b81526004016102209061090d565b6001600160a01b03811661046b5760405162461bcd60e51b815260206004820152602660248201527f4f776e61626c653a206e6577206f776e657220697320746865207a65726f206160448201526564647265737360d01b6064820152608401610220565b600180546001600160a01b0319166001600160a01b0392909216919091179055565b6000546001600160a01b031633146104b75760405162461bcd60e51b81526004016102209061090d565b600081815260026020908152604080832080546001600160a01b031981169091556001600160a01b03168084526003835292819020805460ff191690555182815283917ff6bc6c905631f2598c512ac315c8135fb980d118d09e33880b202427b356bc4591016103a6565b60005b815181101561064557600082828151811061054257610542610942565b6020026020010151600001519050600083838151811061056457610564610942565b6020026020010151602001519050600084848151811061058657610586610942565b602002602001015160400151905060008585815181106105a8576105a8610942565b6020908102919091018101516060015160008681526002909252604091829020549151634722ec5560e11b81529092506001600160a01b0390911690638e45d8aa906105fe908690869086903390600401610958565b600060405180830381600087803b15801561061857600080fd5b505af115801561062c573d6000803e3d6000fd5b50505050505050508061063e906109c2565b9050610525565b5050565b600080546001600160a01b038381166001600160a01b0319831681178455604051919092169283917f8be0079c531659141344cd1fd0a4f28419497f9722a3daafe3b4186f6b6457e09190a35050565b6000602082840312156106ab57600080fd5b5035919050565b80356001600160a01b03811681146106c957600080fd5b919050565b600080604083850312156106e157600080fd5b823591506106f1602084016106b2565b90509250929050565b60006020828403121561070c57600080fd5b610715826106b2565b9392505050565b634e487b7160e01b600052604160045260246000fd5b6040516080810167ffffffffffffffff811182821017156107555761075561071c565b60405290565b604051601f8201601f1916810167ffffffffffffffff811182821017156107845761078461071c565b604052919050565b600067ffffffffffffffff8211156107a6576107a661071c565b5060051b60200190565b600060208083850312156107c357600080fd5b823567ffffffffffffffff808211156107db57600080fd5b818501915085601f8301126107ef57600080fd5b81356108026107fd8261078c565b61075b565b81815260059190911b8301840190848101908883111561082157600080fd5b8585015b838110156109005780358581111561083c57600080fd5b86016080818c03601f1901121561085257600080fd5b61085a610732565b8882013581526040808301358a8301526060830135818301526080830135888111156108865760008081fd5b8084019350508c603f84011261089c5760008081fd5b898301356108ac6107fd8261078c565b81815260059190911b84018201908b8101908f8311156108cc5760008081fd5b948301945b828610156108ea5785358252948c0194908c01906108d1565b6060850152505050845250918601918601610825565b5098975050505050505050565b6020808252818101527f4f776e61626c653a2063616c6c6572206973206e6f7420746865206f776e6572604082015260600190565b634e487b7160e01b600052603260045260246000fd5b600060808201868352602086818501526080604085015281865180845260a086019150828801935060005b8181101561099f57845183529383019391830191600101610983565b50506001600160a01b039590951660609490940193909352509195945050505050565b6000600182016109e257634e487b7160e01b600052601160045260246000fd5b506001019056fea164736f6c6343000813000a",
  "devdoc": {
    "kind": "dev",
    "methods": {
      "multiClaim((uint256,uint256,uint256,bytes32[])[])": {
        "details": "Supports batch claiming, instead of transferring to the recipient directly, tokens are locked in the TokenLock contract. multi claim where amounts are the same will fail with 'duplicate request' (request collision in token lock), users need to claim one by one on the distributors in this case",
        "params": {
          "_claimData": "An array containing details for each claim the caller wishes to make."
        }
      },
      "owner()": {
        "details": "Returns the address of the current owner."
      },
      "requestTransferOwnership(address)": {
        "details": "Requests transferring ownership of the contract to a new account (`_newOwnerCandidate`). Can only be called by the current owner."
      }
    },
    "version": 1
  },
  "userdoc": {
    "kind": "user",
    "methods": {},
    "version": 1
  },
  "storageLayout": {
    "storage": [
      {
        "astId": 6312,
        "contract": "contracts/DistributorRegistry.sol:DistributorRegistry",
        "label": "_owner",
        "offset": 0,
        "slot": "0",
        "type": "t_address"
      },
      {
        "astId": 6314,
        "contract": "contracts/DistributorRegistry.sol:DistributorRegistry",
        "label": "_ownerCandidate",
        "offset": 0,
        "slot": "1",
        "type": "t_address"
      },
      {
        "astId": 5013,
        "contract": "contracts/DistributorRegistry.sol:DistributorRegistry",
        "label": "distributorsBySeason",
        "offset": 0,
        "slot": "2",
        "type": "t_mapping(t_uint256,t_address)"
      },
      {
        "astId": 5017,
        "contract": "contracts/DistributorRegistry.sol:DistributorRegistry",
        "label": "distributors",
        "offset": 0,
        "slot": "3",
        "type": "t_mapping(t_address,t_bool)"
      }
    ],
    "types": {
      "t_address": {
        "encoding": "inplace",
        "label": "address",
        "numberOfBytes": "20"
      },
      "t_bool": {
        "encoding": "inplace",
        "label": "bool",
        "numberOfBytes": "1"
      },
      "t_mapping(t_address,t_bool)": {
        "encoding": "mapping",
        "key": "t_address",
        "label": "mapping(address => bool)",
        "numberOfBytes": "32",
        "value": "t_bool"
      },
      "t_mapping(t_uint256,t_address)": {
        "encoding": "mapping",
        "key": "t_uint256",
        "label": "mapping(uint256 => address)",
        "numberOfBytes": "32",
        "value": "t_address"
      },
      "t_uint256": {
        "encoding": "inplace",
        "label": "uint256",
        "numberOfBytes": "32"
      }
    }
  }
}