{
  "address": "0x911EfFE486d01160C286f9b0A09f0A79416a0F4c",
  "abi": [
    {
      "inputs": [
        {
          "internalType": "address",
          "name": "_admin",
          "type": "address"
        },
        {
          "internalType": "address[]",
          "name": "_tokenLockAddresses",
          "type": "address[]"
        }
      ],
      "stateMutability": "nonpayable",
      "type": "constructor"
    },
    {
      "anonymous": false,
      "inputs": [
        {
          "indexed": true,
          "internalType": "address",
          "name": "previousOwner",
          "type": "address"
        },
        {
          "indexed": true,
          "internalType": "address",
          "name": "newOwner",
          "type": "address"
        }
      ],
      "name": "OwnershipTransferred",
      "type": "event"
    },
    {
      "anonymous": false,
      "inputs": [
        {
          "indexed": true,
          "internalType": "address",
          "name": "_user",
          "type": "address"
        },
        {
          "indexed": false,
          "internalType": "uint256",
          "name": "_weightedAvgLockTime",
          "type": "uint256"
        },
        {
          "indexed": false,
          "internalType": "uint256",
          "name": "_acruedUserAmount",
          "type": "uint256"
        },
        {
          "indexed": false,
          "internalType": "uint256",
          "name": "_totalWeightedAvgLockTime",
          "type": "uint256"
        },
        {
          "indexed": false,
          "internalType": "uint256",
          "name": "_totalAmount",
          "type": "uint256"
        }
      ],
      "name": "Update",
      "type": "event"
    },
    {
      "inputs": [],
      "name": "acceptTransferOwnership",
      "outputs": [],
      "stateMutability": "nonpayable",
      "type": "function"
    },
    {
      "inputs": [
        {
          "internalType": "address[]",
          "name": "_tokenLockAddresses",
          "type": "address[]"
        }
      ],
      "name": "addTokenLocks",
      "outputs": [],
      "stateMutability": "nonpayable",
      "type": "function"
    },
    {
      "inputs": [
        {
          "internalType": "address",
          "name": "",
          "type": "address"
        }
      ],
      "name": "amounts",
      "outputs": [
        {
          "internalType": "uint256",
          "name": "",
          "type": "uint256"
        }
      ],
      "stateMutability": "view",
      "type": "function"
    },
    {
      "inputs": [],
      "name": "cancelTransferOwnership",
      "outputs": [],
      "stateMutability": "nonpayable",
      "type": "function"
    },
    {
      "inputs": [
        {
          "internalType": "address",
          "name": "_user",
          "type": "address"
        },
        {
          "internalType": "uint256",
          "name": "_amount",
          "type": "uint256"
        }
      ],
      "name": "lock",
      "outputs": [],
      "stateMutability": "nonpayable",
      "type": "function"
    },
    {
      "inputs": [],
      "name": "owner",
      "outputs": [
        {
          "internalType": "address",
          "name": "",
          "type": "address"
        }
      ],
      "stateMutability": "view",
      "type": "function"
    },
    {
      "inputs": [],
      "name": "rejectTransferOwnership",
      "outputs": [],
      "stateMutability": "nonpayable",
      "type": "function"
    },
    {
      "inputs": [
        {
          "internalType": "address[]",
          "name": "_tokenLockAddresses",
          "type": "address[]"
        }
      ],
      "name": "removeTokenLocks",
      "outputs": [],
      "stateMutability": "nonpayable",
      "type": "function"
    },
    {
      "inputs": [
        {
          "internalType": "address",
          "name": "_newOwnerCandidate",
          "type": "address"
        }
      ],
      "name": "requestTransferOwnership",
      "outputs": [],
      "stateMutability": "nonpayable",
      "type": "function"
    },
    {
      "inputs": [
        {
          "internalType": "address",
          "name": "",
          "type": "address"
        }
      ],
      "name": "tokenLocks",
      "outputs": [
        {
          "internalType": "bool",
          "name": "",
          "type": "bool"
        }
      ],
      "stateMutability": "view",
      "type": "function"
    },
    {
      "inputs": [],
      "name": "totalAmount",
      "outputs": [
        {
          "internalType": "uint256",
          "name": "",
          "type": "uint256"
        }
      ],
      "stateMutability": "view",
      "type": "function"
    },
    {
      "inputs": [],
      "name": "totalWeightedAvgLockTime",
      "outputs": [
        {
          "internalType": "uint256",
          "name": "",
          "type": "uint256"
        }
      ],
      "stateMutability": "view",
      "type": "function"
    },
    {
      "inputs": [
        {
          "internalType": "address",
          "name": "_user",
          "type": "address"
        },
        {
          "internalType": "uint256",
          "name": "_amount",
          "type": "uint256"
        }
      ],
      "name": "unlock",
      "outputs": [],
      "stateMutability": "nonpayable",
      "type": "function"
    },
    {
      "inputs": [
        {
          "internalType": "address",
          "name": "",
          "type": "address"
        }
      ],
      "name": "weightedAvgLockTimes",
      "outputs": [
        {
          "internalType": "uint256",
          "name": "",
          "type": "uint256"
        }
      ],
      "stateMutability": "view",
      "type": "function"
    }
  ],
  "transactionHash": "0x842ebc53b68b13394aa51c51da09feab521aacb1a1b0a40acc6fa58062886f21",
  "args": [
    "0xbeEBCD47B8315B9fFC949318269A329AEb7D97b4",
    [
      "0x475B1A580ff6e6204E9a690a5b0C118c004024ef",
      "0x7296760851F265eF0aFaf83917528E7f11915726"
    ]
  ],
  "solcInputHash": "d598d1a3b4fa9fa79952df1e52e16f2f",
  "bytecode": "0x60806040523480156200001157600080fd5b5060405162000c6a38038062000c6a833981016040819052620000349162000148565b81620000408162000054565b506200004c81620000a4565b50506200026f565b600080546001600160a01b038381166001600160a01b0319831681178455604051919092169283917f8be0079c531659141344cd1fd0a4f28419497f9722a3daafe3b4186f6b6457e09190a35050565b60005b81518110156200011157600160026000848481518110620000cc57620000cc62000231565b6020908102919091018101516001600160a01b03168252810191909152604001600020805460ff1916911515919091179055620001098162000247565b9050620000a7565b5050565b80516001600160a01b03811681146200012d57600080fd5b919050565b634e487b7160e01b600052604160045260246000fd5b600080604083850312156200015c57600080fd5b620001678362000115565b602084810151919350906001600160401b03808211156200018757600080fd5b818601915086601f8301126200019c57600080fd5b815181811115620001b157620001b162000132565b8060051b604051601f19603f83011681018181108582111715620001d957620001d962000132565b604052918252848201925083810185019189831115620001f857600080fd5b938501935b828510156200022157620002118562000115565b84529385019392850192620001fd565b8096505050505050509250929050565b634e487b7160e01b600052603260045260246000fd5b6000600182016200026857634e487b7160e01b600052601160045260246000fd5b5060010190565b6109eb806200027f6000396000f3fe608060405234801561001057600080fd5b50600436106100ea5760003560e01c80637eee288d1161008c5780638da5cb5b116100665780638da5cb5b146101d257806392fede00146101ed57806393447163146101f55780639d6fa6181461020857600080fd5b80637eee288d146101965780637f7f66d7146101a957806387930fc2146101b257600080fd5b806356b63df7116100c857806356b63df7146101405780635f992fdd146101735780637b3711071461017b5780637ec7ed681461018357600080fd5b80631a39d8ef146100ef578063282d3fdf1461010b57806355a3b2c114610120575b600080fd5b6100f860065481565b6040519081526020015b60405180910390f35b61011e6101193660046107df565b61021b565b005b6100f861012e366004610809565b60046020526000908152604090205481565b61016361014e366004610809565b60026020526000908152604090205460ff1681565b6040519015158152602001610102565b61011e61033b565b61011e6103a7565b61011e61019136600461083a565b610416565b61011e6101a43660046107df565b6104aa565b6100f860055481565b6100f86101c0366004610809565b60036020526000908152604090205481565b6000546040516001600160a01b039091168152602001610102565b61011e61053c565b61011e61020336600461083a565b610566565b61011e610216366004610809565b61059c565b3360009081526002602052604090205460ff166102715760405162461bcd60e51b815260206004820152600f60248201526e4f6e6c7920746f6b656e206c6f636b60881b60448201526064015b60405180910390fd5b61027b828261064d565b6102848161069d565b6001600160a01b038216600090815260046020526040812080548392906102ac908490610915565b9250508190555080600660008282546102c59190610915565b90915550506001600160a01b0382166000818152600360209081526040808320546004835292819020546005546006548351958652938501919091529083015260608201527f5b66beb724d7901f17fa655b9ac52727adb614a0de954ac47f187be24ae874599060800160405180910390a25050565b6001546001600160a01b031633146103955760405162461bcd60e51b815260206004820152601c60248201527f4f776e61626c653a206e6f74206f776e65722063616e646964617465000000006044820152606401610268565b600180546001600160a01b0319169055565b6001546001600160a01b031633146104015760405162461bcd60e51b815260206004820152601c60248201527f4f776e61626c653a206e6f74206f776e65722063616e646964617465000000006044820152606401610268565b600154610395906001600160a01b03166106b2565b6000546001600160a01b031633146104405760405162461bcd60e51b81526004016102689061092e565b60005b81518110156104a65760006002600084848151811061046457610464610963565b6020908102919091018101516001600160a01b03168252810191909152604001600020805460ff191691151591909117905561049f81610979565b9050610443565b5050565b3360009081526002602052604090205460ff166104fb5760405162461bcd60e51b815260206004820152600f60248201526e4f6e6c7920746f6b656e206c6f636b60881b6044820152606401610268565b6001600160a01b03821660009081526004602052604081208054839290610523908490610992565b9250508190555080600660008282546102c59190610992565b6000546001600160a01b031633146103955760405162461bcd60e51b81526004016102689061092e565b6000546001600160a01b031633146105905760405162461bcd60e51b81526004016102689061092e565b61059981610702565b50565b6000546001600160a01b031633146105c65760405162461bcd60e51b81526004016102689061092e565b6001600160a01b03811661062b5760405162461bcd60e51b815260206004820152602660248201527f4f776e61626c653a206e6577206f776e657220697320746865207a65726f206160448201526564647265737360d01b6064820152608401610268565b600180546001600160a01b0319166001600160a01b0392909216919091179055565b6001600160a01b03821660009081526004602090815260408083205460039092529091205461067d918391610768565b6001600160a01b0390921660009081526003602052604090209190915550565b6106ac81600654600554610768565b60055550565b600080546001600160a01b038381166001600160a01b0319831681178455604051919092169283917f8be0079c531659141344cd1fd0a4f28419497f9722a3daafe3b4186f6b6457e09190a35050565b60005b81518110156104a65760016002600084848151811061072657610726610963565b6020908102919091018101516001600160a01b03168252810191909152604001600020805460ff191691151591909117905561076181610979565b9050610705565b6000821580610775575081155b156107815750426107bc565b600061078d8585610915565b90508061079a42876109a5565b6107a485876109a5565b6107ae9190610915565b6107b891906109bc565b9150505b9392505050565b80356001600160a01b03811681146107da57600080fd5b919050565b600080604083850312156107f257600080fd5b6107fb836107c3565b946020939093013593505050565b60006020828403121561081b57600080fd5b6107bc826107c3565b634e487b7160e01b600052604160045260246000fd5b6000602080838503121561084d57600080fd5b823567ffffffffffffffff8082111561086557600080fd5b818501915085601f83011261087957600080fd5b81358181111561088b5761088b610824565b8060051b604051601f19603f830116810181811085821117156108b0576108b0610824565b6040529182528482019250838101850191888311156108ce57600080fd5b938501935b828510156108f3576108e4856107c3565b845293850193928501926108d3565b98975050505050505050565b634e487b7160e01b600052601160045260246000fd5b80820180821115610928576109286108ff565b92915050565b6020808252818101527f4f776e61626c653a2063616c6c6572206973206e6f7420746865206f776e6572604082015260600190565b634e487b7160e01b600052603260045260246000fd5b60006001820161098b5761098b6108ff565b5060010190565b81810381811115610928576109286108ff565b8082028115828204841417610928576109286108ff565b6000826109d957634e487b7160e01b600052601260045260246000fd5b50049056fea164736f6c6343000813000a",
  "devdoc": {
    "author": "NFTfi",
    "kind": "dev",
    "methods": {
      "owner()": {
        "details": "Returns the address of the current owner."
      },
      "requestTransferOwnership(address)": {
        "details": "Requests transferring ownership of the contract to a new account (`_newOwnerCandidate`). Can only be called by the current owner."
      }
    },
    "title": "TokenUtilityAccounting",
    "version": 1
  },
  "userdoc": {
    "kind": "user",
    "methods": {},
    "version": 1
  },
  "storageLayout": {
    "storage": [
      {
        "astId": 6312,
        "contract": "contracts/TokenUtilityAccounting.sol:TokenUtilityAccounting",
        "label": "_owner",
        "offset": 0,
        "slot": "0",
        "type": "t_address"
      },
      {
        "astId": 6314,
        "contract": "contracts/TokenUtilityAccounting.sol:TokenUtilityAccounting",
        "label": "_ownerCandidate",
        "offset": 0,
        "slot": "1",
        "type": "t_address"
      },
      {
        "astId": 5908,
        "contract": "contracts/TokenUtilityAccounting.sol:TokenUtilityAccounting",
        "label": "tokenLocks",
        "offset": 0,
        "slot": "2",
        "type": "t_mapping(t_address,t_bool)"
      },
      {
        "astId": 5912,
        "contract": "contracts/TokenUtilityAccounting.sol:TokenUtilityAccounting",
        "label": "weightedAvgLockTimes",
        "offset": 0,
        "slot": "3",
        "type": "t_mapping(t_address,t_uint256)"
      },
      {
        "astId": 5916,
        "contract": "contracts/TokenUtilityAccounting.sol:TokenUtilityAccounting",
        "label": "amounts",
        "offset": 0,
        "slot": "4",
        "type": "t_mapping(t_address,t_uint256)"
      },
      {
        "astId": 5918,
        "contract": "contracts/TokenUtilityAccounting.sol:TokenUtilityAccounting",
        "label": "totalWeightedAvgLockTime",
        "offset": 0,
        "slot": "5",
        "type": "t_uint256"
      },
      {
        "astId": 5920,
        "contract": "contracts/TokenUtilityAccounting.sol:TokenUtilityAccounting",
        "label": "totalAmount",
        "offset": 0,
        "slot": "6",
        "type": "t_uint256"
      }
    ],
    "types": {
      "t_address": {
        "encoding": "inplace",
        "label": "address",
        "numberOfBytes": "20"
      },
      "t_bool": {
        "encoding": "inplace",
        "label": "bool",
        "numberOfBytes": "1"
      },
      "t_mapping(t_address,t_bool)": {
        "encoding": "mapping",
        "key": "t_address",
        "label": "mapping(address => bool)",
        "numberOfBytes": "32",
        "value": "t_bool"
      },
      "t_mapping(t_address,t_uint256)": {
        "encoding": "mapping",
        "key": "t_address",
        "label": "mapping(address => uint256)",
        "numberOfBytes": "32",
        "value": "t_uint256"
      },
      "t_uint256": {
        "encoding": "inplace",
        "label": "uint256",
        "numberOfBytes": "32"
      }
    }
  }
}